{
  "_format": "hh-sol-artifact-1",
  "contractName": "KojoUtils",
  "sourceName": "contracts/utils/KojoUtils.sol",
  "abi": [
    {
      "inputs": [
        {
          "components": [
            {
              "internalType": "uint256",
              "name": "level",
              "type": "uint256"
            },
            {
              "internalType": "uint256",
              "name": "experiencePoints",
              "type": "uint256"
            },
            {
              "internalType": "uint256[]",
              "name": "plantIds",
              "type": "uint256[]"
            },
            {
              "internalType": "uint256",
              "name": "allowedTokenBalance",
              "type": "uint256"
            },
            {
              "internalType": "bool",
              "name": "hasClaimedStartSeed",
              "type": "bool"
            },
            {
              "internalType": "bool",
              "name": "isPresent",
              "type": "bool"
            }
          ],
          "internalType": "struct Structs.Participant",
          "name": "participant",
          "type": "tuple"
        },
        {
          "internalType": "uint256",
          "name": "tokenId",
          "type": "uint256"
        }
      ],
      "name": "handleAddTokenIdToParticipant",
      "outputs": [
        {
          "components": [
            {
              "internalType": "uint256",
              "name": "level",
              "type": "uint256"
            },
            {
              "internalType": "uint256",
              "name": "experiencePoints",
              "type": "uint256"
            },
            {
              "internalType": "uint256[]",
              "name": "plantIds",
              "type": "uint256[]"
            },
            {
              "internalType": "uint256",
              "name": "allowedTokenBalance",
              "type": "uint256"
            },
            {
              "internalType": "bool",
              "name": "hasClaimedStartSeed",
              "type": "bool"
            },
            {
              "internalType": "bool",
              "name": "isPresent",
              "type": "bool"
            }
          ],
          "internalType": "struct Structs.Participant",
          "name": "_participant",
          "type": "tuple"
        }
      ],
      "stateMutability": "pure",
      "type": "function"
    },
    {
      "inputs": [
        {
          "components": [
            {
              "internalType": "uint256",
              "name": "level",
              "type": "uint256"
            },
            {
              "internalType": "uint256",
              "name": "experiencePoints",
              "type": "uint256"
            },
            {
              "internalType": "uint256[]",
              "name": "plantIds",
              "type": "uint256[]"
            },
            {
              "internalType": "uint256",
              "name": "allowedTokenBalance",
              "type": "uint256"
            },
            {
              "internalType": "bool",
              "name": "hasClaimedStartSeed",
              "type": "bool"
            },
            {
              "internalType": "bool",
              "name": "isPresent",
              "type": "bool"
            }
          ],
          "internalType": "struct Structs.Participant",
          "name": "participant",
          "type": "tuple"
        },
        {
          "internalType": "uint256",
          "name": "amount",
          "type": "uint256"
        }
      ],
      "name": "handleAddXPToParticipant",
      "outputs": [
        {
          "components": [
            {
              "internalType": "uint256",
              "name": "level",
              "type": "uint256"
            },
            {
              "internalType": "uint256",
              "name": "experiencePoints",
              "type": "uint256"
            },
            {
              "internalType": "uint256[]",
              "name": "plantIds",
              "type": "uint256[]"
            },
            {
              "internalType": "uint256",
              "name": "allowedTokenBalance",
              "type": "uint256"
            },
            {
              "internalType": "bool",
              "name": "hasClaimedStartSeed",
              "type": "bool"
            },
            {
              "internalType": "bool",
              "name": "isPresent",
              "type": "bool"
            }
          ],
          "internalType": "struct Structs.Participant",
          "name": "_participant",
          "type": "tuple"
        }
      ],
      "stateMutability": "pure",
      "type": "function"
    },
    {
      "inputs": [
        {
          "components": [
            {
              "internalType": "uint256",
              "name": "level",
              "type": "uint256"
            },
            {
              "internalType": "uint256",
              "name": "experiencePoints",
              "type": "uint256"
            },
            {
              "internalType": "uint256",
              "name": "lifes",
              "type": "uint256"
            },
            {
              "internalType": "uint256",
              "name": "levelCost",
              "type": "uint256"
            },
            {
              "internalType": "bool",
              "name": "isPresent",
              "type": "bool"
            }
          ],
          "internalType": "struct Structs.Plant",
          "name": "plant",
          "type": "tuple"
        },
        {
          "internalType": "uint256",
          "name": "amount",
          "type": "uint256"
        }
      ],
      "name": "handleAddXPToPlant",
      "outputs": [
        {
          "components": [
            {
              "internalType": "uint256",
              "name": "level",
              "type": "uint256"
            },
            {
              "internalType": "uint256",
              "name": "experiencePoints",
              "type": "uint256"
            },
            {
              "internalType": "uint256",
              "name": "lifes",
              "type": "uint256"
            },
            {
              "internalType": "uint256",
              "name": "levelCost",
              "type": "uint256"
            },
            {
              "internalType": "bool",
              "name": "isPresent",
              "type": "bool"
            }
          ],
          "internalType": "struct Structs.Plant",
          "name": "_plant",
          "type": "tuple"
        }
      ],
      "stateMutability": "pure",
      "type": "function"
    },
    {
      "inputs": [
        {
          "components": [
            {
              "internalType": "uint256",
              "name": "level",
              "type": "uint256"
            },
            {
              "internalType": "uint256",
              "name": "experiencePoints",
              "type": "uint256"
            },
            {
              "internalType": "uint256",
              "name": "lifes",
              "type": "uint256"
            },
            {
              "internalType": "uint256",
              "name": "levelCost",
              "type": "uint256"
            },
            {
              "internalType": "bool",
              "name": "isPresent",
              "type": "bool"
            }
          ],
          "internalType": "struct Structs.Plant",
          "name": "plant",
          "type": "tuple"
        },
        {
          "internalType": "uint256",
          "name": "tokenId",
          "type": "uint256"
        }
      ],
      "name": "handleBuildURI",
      "outputs": [
        {
          "internalType": "string",
          "name": "_uri",
          "type": "string"
        }
      ],
      "stateMutability": "pure",
      "type": "function"
    },
    {
      "inputs": [
        {
          "components": [
            {
              "internalType": "uint256",
              "name": "level",
              "type": "uint256"
            },
            {
              "internalType": "uint256",
              "name": "experiencePoints",
              "type": "uint256"
            },
            {
              "internalType": "uint256[]",
              "name": "plantIds",
              "type": "uint256[]"
            },
            {
              "internalType": "uint256",
              "name": "allowedTokenBalance",
              "type": "uint256"
            },
            {
              "internalType": "bool",
              "name": "hasClaimedStartSeed",
              "type": "bool"
            },
            {
              "internalType": "bool",
              "name": "isPresent",
              "type": "bool"
            }
          ],
          "internalType": "struct Structs.Participant",
          "name": "participant",
          "type": "tuple"
        },
        {
          "internalType": "uint256",
          "name": "amount",
          "type": "uint256"
        }
      ],
      "name": "handleCalculateAllowedTokenBalanceFromParticipantLevel",
      "outputs": [
        {
          "internalType": "uint256",
          "name": "_amount",
          "type": "uint256"
        }
      ],
      "stateMutability": "pure",
      "type": "function"
    },
    {
      "inputs": [
        {
          "components": [
            {
              "internalType": "uint256",
              "name": "level",
              "type": "uint256"
            },
            {
              "internalType": "uint256",
              "name": "experiencePoints",
              "type": "uint256"
            },
            {
              "internalType": "uint256[]",
              "name": "plantIds",
              "type": "uint256[]"
            },
            {
              "internalType": "uint256",
              "name": "allowedTokenBalance",
              "type": "uint256"
            },
            {
              "internalType": "bool",
              "name": "hasClaimedStartSeed",
              "type": "bool"
            },
            {
              "internalType": "bool",
              "name": "isPresent",
              "type": "bool"
            }
          ],
          "internalType": "struct Structs.Participant",
          "name": "participant",
          "type": "tuple"
        },
        {
          "internalType": "uint256",
          "name": "tokenId",
          "type": "uint256"
        }
      ],
      "name": "handleRemoveTokenIdFromParticipant",
      "outputs": [
        {
          "components": [
            {
              "internalType": "uint256",
              "name": "level",
              "type": "uint256"
            },
            {
              "internalType": "uint256",
              "name": "experiencePoints",
              "type": "uint256"
            },
            {
              "internalType": "uint256[]",
              "name": "plantIds",
              "type": "uint256[]"
            },
            {
              "internalType": "uint256",
              "name": "allowedTokenBalance",
              "type": "uint256"
            },
            {
              "internalType": "bool",
              "name": "hasClaimedStartSeed",
              "type": "bool"
            },
            {
              "internalType": "bool",
              "name": "isPresent",
              "type": "bool"
            }
          ],
          "internalType": "struct Structs.Participant",
          "name": "_participant",
          "type": "tuple"
        }
      ],
      "stateMutability": "pure",
      "type": "function"
    }
  ],
  "bytecode": "0x608060405234801561001057600080fd5b50610a44806100206000396000f3fe608060405234801561001057600080fd5b50600436106100725760003560e01c8063aac8795f11610050578063aac8795f14610117578063b458e0c314610138578063cfc399051461014b57600080fd5b806358e5d9cf1461007757806367a58d62146100d75780638db0979a146100f7575b600080fd5b61008a61008536600461065f565b61015e565b6040516100ce9190600060a0820190508251825260208301516020830152604083015160408301526060830151606083015260808301511515608083015292915050565b60405180910390f35b6100ea6100e536600461065f565b610220565b6040516100ce919061071b565b61010a61010536600461074e565b61028e565b6040516100ce9190610862565b61012a61012536600461074e565b61039c565b6040519081526020016100ce565b61010a61014636600461074e565b6103be565b61010a61015936600461074e565b6104aa565b6101926040518060a00160405280600081526020016000815260200160008152602001600081526020016000151581525090565b82606001518284602001516101a7919061090e565b10156101c3578183602001516101bd919061090e565b60208401525b82606001518284602001516101d8919061090e565b1115610219576001836000018181516101f1919061090e565b9052506060830151602084015161020990849061090e565b6102139190610926565b60208401525b5090919050565b604080518082018252600981527f697066732f6e66742f00000000000000000000000000000000000000000000006020808301919091528451858401519351606094600093610275938693899391920161093d565b60408051808303601f1901815291905295945050505050565b6102cb6040518060c00160405280600081526020016000815260200160608152602001600081526020016000151581526020016000151581525090565b600060018460400151516102df9190610926565b67ffffffffffffffff8111156102f7576102f76105da565b604051908082528060200260200182016040528015610320578160200160208202803683370190505b50905060005b84604001515181101561038f5760008560400151828151811061034b5761034b61099c565b6020026020010151905084811461037c578083838151811061036f5761036f61099c565b6020026020010181815250505b5080610387816109b2565b915050610326565b5060408401525090919050565b81516000906103ad90600a906109cd565b6103b790836109ef565b9392505050565b6103fb6040518060c00160405280600081526020016000815260200160608152602001600081526020016000151581526020016000151581525090565b825160009061040c906005906109cd565b8451610418919061090e565b610424906103e86109ef565b905080838560200151610437919061090e565b10156104535782846020015161044d919061090e565b60208501525b80838560200151610464919061090e565b11156104a25760018460000181815161047d919061090e565b9052506020840151819061049290859061090e565b61049c9190610926565b60208501525b509192915050565b6104e76040518060c00160405280600081526020016000815260200160608152602001600081526020016000151581526020016000151581525090565b600083604001515160016104fb919061090e565b67ffffffffffffffff811115610513576105136105da565b60405190808252806020026020018201604052801561053c578160200160208202803683370190505b50905060005b8460400151518110156105a2576000856040015182815181106105675761056761099c565b60200260200101519050808383815181106105845761058461099c565b6020908102919091010152508061059a816109b2565b915050610542565b508281825160016105b3919061090e565b815181106105c3576105c361099c565b602090810291909101015260408401525090919050565b634e487b7160e01b600052604160045260246000fd5b60405160c0810167ffffffffffffffff81118282101715610613576106136105da565b60405290565b604051601f8201601f1916810167ffffffffffffffff81118282101715610642576106426105da565b604052919050565b8035801515811461065a57600080fd5b919050565b60008082840360c081121561067357600080fd5b60a081121561068157600080fd5b5060405160a0810181811067ffffffffffffffff821117156106a5576106a56105da565b8060405250833581526020840135602082015260408401356040820152606084013560608201526106d86080850161064a565b60808201529460a0939093013593505050565b60005b838110156107065781810151838201526020016106ee565b83811115610715576000848401525b50505050565b602081526000825180602084015261073a8160408501602087016106eb565b601f01601f19169190910160400192915050565b6000806040838503121561076157600080fd5b823567ffffffffffffffff8082111561077957600080fd5b9084019060c0828703121561078d57600080fd5b6107956105f0565b82358152602080840135818301526040840135838111156107b557600080fd5b8401601f810189136107c657600080fd5b8035848111156107d8576107d86105da565b8060051b94506107e9838601610619565b818152948201830194838101908b87111561080357600080fd5b928401925b8684101561082157833582529284019290840190610808565b60408601525050506060848101359083015261083f6080850161064a565b608083015261085060a0850161064a565b60a08301529097950135955050505050565b6000602080835260e08301845182850152818501516040850152604085015160c06060860152818151808452610100870191508483019350600092505b808310156108bf578351825292840192600192909201919084019061089f565b5060608701516080870152608087015193506108df60a087018515159052565b60a087015180151560c088015293509695505050505050565b634e487b7160e01b600052601160045260246000fd5b60008219821115610921576109216108f8565b500190565b600082821015610938576109386108f8565b500390565b6000855161094f818460208a016106eb565b91909101938452507f2d0000000000000000000000000000000000000000000000000000000000000060208401819052602184019290925260418301919091526042820152606201919050565b634e487b7160e01b600052603260045260246000fd5b60006000198214156109c6576109c66108f8565b5060010190565b6000826109ea57634e487b7160e01b600052601260045260246000fd5b500490565b6000816000190483118215151615610a0957610a096108f8565b50029056fea26469706673582212200b9e8459ef5fe0a25147f8ede9c161a9cc564c6b3703583278504a1fe0ce5e7a64736f6c63430008090033",
  "linkReferences": {},
  "deployedLinkReferences": {}
}