{
  "_format": "hh-sol-artifact-1",
  "contractName": "KojoUtils",
  "sourceName": "contracts/utils/KojoUtils.sol",
  "abi": [
    {
      "inputs": [
        {
          "components": [
            {
              "internalType": "uint256",
              "name": "level",
              "type": "uint256"
            },
            {
              "internalType": "uint256",
              "name": "experiencePoints",
              "type": "uint256"
            },
            {
              "internalType": "uint256[]",
              "name": "plantIds",
              "type": "uint256[]"
            },
            {
              "internalType": "uint256",
              "name": "allowedTokenBalance",
              "type": "uint256"
            },
            {
              "internalType": "bool",
              "name": "isPresent",
              "type": "bool"
            }
          ],
          "internalType": "struct Structs.Participant",
          "name": "participant",
          "type": "tuple"
        },
        {
          "internalType": "uint256",
          "name": "amount",
          "type": "uint256"
        }
      ],
      "name": "handleAddXPToParticipant",
      "outputs": [
        {
          "components": [
            {
              "internalType": "uint256",
              "name": "level",
              "type": "uint256"
            },
            {
              "internalType": "uint256",
              "name": "experiencePoints",
              "type": "uint256"
            },
            {
              "internalType": "uint256[]",
              "name": "plantIds",
              "type": "uint256[]"
            },
            {
              "internalType": "uint256",
              "name": "allowedTokenBalance",
              "type": "uint256"
            },
            {
              "internalType": "bool",
              "name": "isPresent",
              "type": "bool"
            }
          ],
          "internalType": "struct Structs.Participant",
          "name": "_participant",
          "type": "tuple"
        }
      ],
      "stateMutability": "pure",
      "type": "function"
    },
    {
      "inputs": [
        {
          "components": [
            {
              "internalType": "uint256",
              "name": "typeId",
              "type": "uint256"
            },
            {
              "internalType": "uint256",
              "name": "level",
              "type": "uint256"
            },
            {
              "internalType": "uint256",
              "name": "experiencePoints",
              "type": "uint256"
            },
            {
              "internalType": "uint256",
              "name": "lifes",
              "type": "uint256"
            },
            {
              "internalType": "uint256",
              "name": "levelCost",
              "type": "uint256"
            },
            {
              "internalType": "bool",
              "name": "isPresent",
              "type": "bool"
            }
          ],
          "internalType": "struct Structs.Plant",
          "name": "plant",
          "type": "tuple"
        },
        {
          "internalType": "uint256",
          "name": "amount",
          "type": "uint256"
        }
      ],
      "name": "handleAddXPToPlant",
      "outputs": [
        {
          "components": [
            {
              "internalType": "uint256",
              "name": "typeId",
              "type": "uint256"
            },
            {
              "internalType": "uint256",
              "name": "level",
              "type": "uint256"
            },
            {
              "internalType": "uint256",
              "name": "experiencePoints",
              "type": "uint256"
            },
            {
              "internalType": "uint256",
              "name": "lifes",
              "type": "uint256"
            },
            {
              "internalType": "uint256",
              "name": "levelCost",
              "type": "uint256"
            },
            {
              "internalType": "bool",
              "name": "isPresent",
              "type": "bool"
            }
          ],
          "internalType": "struct Structs.Plant",
          "name": "_plant",
          "type": "tuple"
        }
      ],
      "stateMutability": "pure",
      "type": "function"
    },
    {
      "inputs": [
        {
          "components": [
            {
              "internalType": "uint256",
              "name": "typeId",
              "type": "uint256"
            },
            {
              "internalType": "uint256",
              "name": "level",
              "type": "uint256"
            },
            {
              "internalType": "uint256",
              "name": "experiencePoints",
              "type": "uint256"
            },
            {
              "internalType": "uint256",
              "name": "lifes",
              "type": "uint256"
            },
            {
              "internalType": "uint256",
              "name": "levelCost",
              "type": "uint256"
            },
            {
              "internalType": "bool",
              "name": "isPresent",
              "type": "bool"
            }
          ],
          "internalType": "struct Structs.Plant",
          "name": "plant",
          "type": "tuple"
        }
      ],
      "name": "handleBuildURI",
      "outputs": [
        {
          "internalType": "string",
          "name": "_uri",
          "type": "string"
        }
      ],
      "stateMutability": "pure",
      "type": "function"
    },
    {
      "inputs": [
        {
          "components": [
            {
              "internalType": "uint256",
              "name": "level",
              "type": "uint256"
            },
            {
              "internalType": "uint256",
              "name": "experiencePoints",
              "type": "uint256"
            },
            {
              "internalType": "uint256[]",
              "name": "plantIds",
              "type": "uint256[]"
            },
            {
              "internalType": "uint256",
              "name": "allowedTokenBalance",
              "type": "uint256"
            },
            {
              "internalType": "bool",
              "name": "isPresent",
              "type": "bool"
            }
          ],
          "internalType": "struct Structs.Participant",
          "name": "participant",
          "type": "tuple"
        },
        {
          "internalType": "uint256",
          "name": "amount",
          "type": "uint256"
        }
      ],
      "name": "handleCalculateAllowedTokenBalanceFromParticipantLevel",
      "outputs": [
        {
          "internalType": "uint256",
          "name": "_amount",
          "type": "uint256"
        }
      ],
      "stateMutability": "pure",
      "type": "function"
    },
    {
      "inputs": [
        {
          "components": [
            {
              "internalType": "uint256",
              "name": "level",
              "type": "uint256"
            },
            {
              "internalType": "uint256",
              "name": "experiencePoints",
              "type": "uint256"
            },
            {
              "internalType": "uint256[]",
              "name": "plantIds",
              "type": "uint256[]"
            },
            {
              "internalType": "uint256",
              "name": "allowedTokenBalance",
              "type": "uint256"
            },
            {
              "internalType": "bool",
              "name": "isPresent",
              "type": "bool"
            }
          ],
          "internalType": "struct Structs.Participant",
          "name": "participant",
          "type": "tuple"
        },
        {
          "internalType": "uint256",
          "name": "tokenId",
          "type": "uint256"
        }
      ],
      "name": "handleRemoveTokenIdFromParticipant",
      "outputs": [
        {
          "components": [
            {
              "internalType": "uint256",
              "name": "level",
              "type": "uint256"
            },
            {
              "internalType": "uint256",
              "name": "experiencePoints",
              "type": "uint256"
            },
            {
              "internalType": "uint256[]",
              "name": "plantIds",
              "type": "uint256[]"
            },
            {
              "internalType": "uint256",
              "name": "allowedTokenBalance",
              "type": "uint256"
            },
            {
              "internalType": "bool",
              "name": "isPresent",
              "type": "bool"
            }
          ],
          "internalType": "struct Structs.Participant",
          "name": "_participant",
          "type": "tuple"
        }
      ],
      "stateMutability": "pure",
      "type": "function"
    }
  ],
  "bytecode": "0x608060405234801561001057600080fd5b50610bea806100206000396000f3fe608060405234801561001057600080fd5b50600436106100575760003560e01c8063691fa6461461005c5780636c6fa442146100c65780637182817b146100e657806385dc309a14610106578063ddf62c1414610119575b600080fd5b61006f61006a3660046107dd565b61013a565b6040516100bd9190600060c082019050825182526020830151602083015260408301516040830152606083015160608301526080830151608083015260a0830151151560a083015292915050565b60405180910390f35b6100d96100d4366004610808565b610203565b6040516100bd919061090b565b6100f96100f4366004610991565b610308565b6040516100bd91906109dd565b6100d9610114366004610808565b6104cc565b61012c610127366004610808565b6105af565b6040519081526020016100bd565b6101756040518060c0016040528060008152602001600081526020016000815260200160008152602001600081526020016000151581525090565b826080015182846040015161018a9190610a26565b10156101a6578183604001516101a09190610a26565b60408401525b82608001518284604001516101bb9190610a26565b11156101fc576001836020018181516101d49190610a26565b905250608083015160408401516101ec908490610a26565b6101f69190610a3e565b60408401525b5090919050565b6102376040518060a00160405280600081526020016000815260200160608152602001600081526020016000151581525090565b6000600184604001515161024b9190610a3e565b67ffffffffffffffff811115610263576102636106d7565b60405190808252806020026020018201604052801561028c578160200160208202803683370190505b50905060005b8460400151518110156102fb576000856040015182815181106102b7576102b7610a55565b602002602001015190508481146102e857808383815181106102db576102db610a55565b6020026020010181815250505b50806102f381610a6b565b915050610292565b5060408401525090919050565b60608160a001516103585760405162461bcd60e51b8152602060048201526015602482015274283630b73a103237b2b9903737ba1032bc34b9ba1760591b60448201526064015b60405180910390fd5b81602001516001148061036f575081602001516002145b8061037e575081602001516003145b8061038d575081602001516004145b8061039c575081602001516005145b6103e85760405162461bcd60e51b815260206004820152601b60248201527f506c616e74206c6576656c20646f6573206e6f742065786973742e0000000000604482015260640161034f565b8160600151600114806103ff575081606001516002145b8061040e575081606001516003145b61045a5760405162461bcd60e51b815260206004820152601b60248201527f506c616e74206c6966657320646f6573206e6f742065786973742e0000000000604482015260640161034f565b6000604051806080016040528060508152602001610b6560509139905060008161048785600001516105d1565b61049486602001516105d1565b6104a187606001516105d1565b6040516020016104b49493929190610a86565b60408051601f19818403018152919052949350505050565b6105006040518060a00160405280600081526020016000815260200160608152602001600081526020016000151581525090565b825160009061051190600590610b1d565b845161051d9190610a26565b610529906103e8610b31565b90508083856020015161053c9190610a26565b1015610558578284602001516105529190610a26565b60208501525b808385602001516105699190610a26565b11156105a7576001846000018181516105829190610a26565b90525060208401518190610597908590610a26565b6105a19190610a3e565b60208501525b509192915050565b81516000906105c090600a90610b1d565b6105ca9083610b31565b9392505050565b6060816105f55750506040805180820190915260018152600360fc1b602082015290565b8160005b811561061f578061060981610a6b565b91506106189050600a83610b1d565b91506105f9565b60008167ffffffffffffffff81111561063a5761063a6106d7565b6040519080825280601f01601f191660200182016040528015610664576020820181803683370190505b5090505b84156106cf57610679600183610a3e565b9150610686600a86610b50565b610691906030610a26565b60f81b8183815181106106a6576106a6610a55565b60200101906001600160f81b031916908160001a9053506106c8600a86610b1d565b9450610668565b949350505050565b634e487b7160e01b600052604160045260246000fd5b60405160a0810167ffffffffffffffff81118282101715610710576107106106d7565b60405290565b604051601f8201601f1916810167ffffffffffffffff8111828210171561073f5761073f6106d7565b604052919050565b8035801515811461075757600080fd5b919050565b600060c0828403121561076e57600080fd5b60405160c0810181811067ffffffffffffffff82111715610791576107916106d7565b806040525080915082358152602083013560208201526040830135604082015260608301356060820152608083013560808201526107d160a08401610747565b60a08201525092915050565b60008060e083850312156107f057600080fd5b6107fa848461075c565b9460c0939093013593505050565b6000806040838503121561081b57600080fd5b823567ffffffffffffffff8082111561083357600080fd5b9084019060a0828703121561084757600080fd5b61084f6106ed565b823581526020808401358183015260408401358381111561086f57600080fd5b8401601f8101891361088057600080fd5b803584811115610892576108926106d7565b8060051b94506108a3838601610716565b818152948201830194838101908b8711156108bd57600080fd5b928401925b868410156108db578335825292840192908401906108c2565b6040860152505050606084810135908301526108f960808501610747565b60808301529097950135955050505050565b6000602080835260c08301845182850152818501516040850152604085015160a0606086015281815180845260e0870191508483019350600092505b808310156109675783518252928401926001929092019190840190610947565b50606087015160808701526080870151935061098760a087018515159052565b9695505050505050565b600060c082840312156109a357600080fd5b6105ca838361075c565b60005b838110156109c85781810151838201526020016109b0565b838111156109d7576000848401525b50505050565b60208152600082518060208401526109fc8160408501602087016109ad565b601f01601f19169190910160400192915050565b634e487b7160e01b600052601160045260246000fd5b60008219821115610a3957610a39610a10565b500190565b600082821015610a5057610a50610a10565b500390565b634e487b7160e01b600052603260045260246000fd5b6000600019821415610a7f57610a7f610a10565b5060010190565b60008551610a98818460208a016109ad565b855190830190610aac818360208a016109ad565b602d60f81b91018181528551909190610acc816001850160208a016109ad565b60019201918201528351610ae78160028401602088016109ad565b64173539b7b760d91b600292909101918201526007019695505050505050565b634e487b7160e01b600052601260045260246000fd5b600082610b2c57610b2c610b07565b500490565b6000816000190483118215151615610b4b57610b4b610a10565b500290565b600082610b5f57610b5f610b07565b50069056fe68747470733a2f2f636c6f7564666c6172652d697066732e636f6d2f697066732f516d5a5663576d745269434e6e5355534876646f6f44426a5a33767174694169705a3675777035507a486a515a412fa2646970667358221220feab6f0b3710e194b57de35a4d6e6842b1b3ced175d8e19bb85a6e546610ac8364736f6c63430008090033",
  "linkReferences": {},
  "deployedLinkReferences": {}
}