{
  "_format": "hh-sol-artifact-1",
  "contractName": "KojoUtils",
  "sourceName": "contracts/utils/KojoUtils.sol",
  "abi": [
    {
      "inputs": [
        {
          "internalType": "bytes",
          "name": "data",
          "type": "bytes"
        }
      ],
      "name": "bytesToAddress",
      "outputs": [
        {
          "internalType": "address",
          "name": "addr",
          "type": "address"
        }
      ],
      "stateMutability": "pure",
      "type": "function"
    },
    {
      "inputs": [
        {
          "internalType": "uint256",
          "name": "levelCost",
          "type": "uint256"
        },
        {
          "internalType": "uint256",
          "name": "level",
          "type": "uint256"
        }
      ],
      "name": "calculateParticipantLevelCost",
      "outputs": [
        {
          "internalType": "uint256",
          "name": "",
          "type": "uint256"
        }
      ],
      "stateMutability": "pure",
      "type": "function"
    },
    {
      "inputs": [
        {
          "internalType": "address[]",
          "name": "addresses",
          "type": "address[]"
        }
      ],
      "name": "encodeAddressArray",
      "outputs": [
        {
          "internalType": "bytes",
          "name": "",
          "type": "bytes"
        }
      ],
      "stateMutability": "pure",
      "type": "function"
    },
    {
      "inputs": [
        {
          "components": [
            {
              "internalType": "uint256",
              "name": "level",
              "type": "uint256"
            },
            {
              "internalType": "uint256",
              "name": "experiencePoints",
              "type": "uint256"
            },
            {
              "internalType": "uint256",
              "name": "timestamp",
              "type": "uint256"
            },
            {
              "internalType": "uint256[]",
              "name": "plantIds",
              "type": "uint256[]"
            },
            {
              "internalType": "uint256",
              "name": "allowedTokenBalance",
              "type": "uint256"
            },
            {
              "internalType": "bool",
              "name": "isPresent",
              "type": "bool"
            }
          ],
          "internalType": "struct Structs.Participant",
          "name": "participant",
          "type": "tuple"
        },
        {
          "internalType": "uint256",
          "name": "amount",
          "type": "uint256"
        },
        {
          "internalType": "uint256",
          "name": "levelCost",
          "type": "uint256"
        }
      ],
      "name": "handleAddXPToParticipant",
      "outputs": [
        {
          "components": [
            {
              "internalType": "uint256",
              "name": "level",
              "type": "uint256"
            },
            {
              "internalType": "uint256",
              "name": "experiencePoints",
              "type": "uint256"
            },
            {
              "internalType": "uint256",
              "name": "timestamp",
              "type": "uint256"
            },
            {
              "internalType": "uint256[]",
              "name": "plantIds",
              "type": "uint256[]"
            },
            {
              "internalType": "uint256",
              "name": "allowedTokenBalance",
              "type": "uint256"
            },
            {
              "internalType": "bool",
              "name": "isPresent",
              "type": "bool"
            }
          ],
          "internalType": "struct Structs.Participant",
          "name": "_participant",
          "type": "tuple"
        }
      ],
      "stateMutability": "pure",
      "type": "function"
    },
    {
      "inputs": [
        {
          "components": [
            {
              "internalType": "uint256",
              "name": "typeId",
              "type": "uint256"
            },
            {
              "internalType": "uint256",
              "name": "level",
              "type": "uint256"
            },
            {
              "internalType": "uint256",
              "name": "experiencePoints",
              "type": "uint256"
            },
            {
              "internalType": "uint256",
              "name": "lifes",
              "type": "uint256"
            },
            {
              "internalType": "uint256",
              "name": "levelCost",
              "type": "uint256"
            },
            {
              "internalType": "bool",
              "name": "isPresent",
              "type": "bool"
            }
          ],
          "internalType": "struct Structs.Plant",
          "name": "plant",
          "type": "tuple"
        },
        {
          "internalType": "uint256",
          "name": "amount",
          "type": "uint256"
        }
      ],
      "name": "handleAddXPToPlant",
      "outputs": [
        {
          "components": [
            {
              "internalType": "uint256",
              "name": "typeId",
              "type": "uint256"
            },
            {
              "internalType": "uint256",
              "name": "level",
              "type": "uint256"
            },
            {
              "internalType": "uint256",
              "name": "experiencePoints",
              "type": "uint256"
            },
            {
              "internalType": "uint256",
              "name": "lifes",
              "type": "uint256"
            },
            {
              "internalType": "uint256",
              "name": "levelCost",
              "type": "uint256"
            },
            {
              "internalType": "bool",
              "name": "isPresent",
              "type": "bool"
            }
          ],
          "internalType": "struct Structs.Plant",
          "name": "_plant",
          "type": "tuple"
        }
      ],
      "stateMutability": "pure",
      "type": "function"
    },
    {
      "inputs": [
        {
          "components": [
            {
              "internalType": "uint256",
              "name": "typeId",
              "type": "uint256"
            },
            {
              "internalType": "uint256",
              "name": "level",
              "type": "uint256"
            },
            {
              "internalType": "uint256",
              "name": "experiencePoints",
              "type": "uint256"
            },
            {
              "internalType": "uint256",
              "name": "lifes",
              "type": "uint256"
            },
            {
              "internalType": "uint256",
              "name": "levelCost",
              "type": "uint256"
            },
            {
              "internalType": "bool",
              "name": "isPresent",
              "type": "bool"
            }
          ],
          "internalType": "struct Structs.Plant",
          "name": "plant",
          "type": "tuple"
        }
      ],
      "name": "handleBuildURI",
      "outputs": [
        {
          "internalType": "string",
          "name": "_uri",
          "type": "string"
        }
      ],
      "stateMutability": "pure",
      "type": "function"
    },
    {
      "inputs": [
        {
          "components": [
            {
              "internalType": "uint256",
              "name": "level",
              "type": "uint256"
            },
            {
              "internalType": "uint256",
              "name": "experiencePoints",
              "type": "uint256"
            },
            {
              "internalType": "uint256",
              "name": "timestamp",
              "type": "uint256"
            },
            {
              "internalType": "uint256[]",
              "name": "plantIds",
              "type": "uint256[]"
            },
            {
              "internalType": "uint256",
              "name": "allowedTokenBalance",
              "type": "uint256"
            },
            {
              "internalType": "bool",
              "name": "isPresent",
              "type": "bool"
            }
          ],
          "internalType": "struct Structs.Participant",
          "name": "participant",
          "type": "tuple"
        },
        {
          "internalType": "uint256",
          "name": "amount",
          "type": "uint256"
        }
      ],
      "name": "handleCalculateAllowedTokenBalanceFromParticipantLevel",
      "outputs": [
        {
          "internalType": "uint256",
          "name": "_amount",
          "type": "uint256"
        }
      ],
      "stateMutability": "pure",
      "type": "function"
    },
    {
      "inputs": [
        {
          "components": [
            {
              "internalType": "uint256",
              "name": "level",
              "type": "uint256"
            },
            {
              "internalType": "uint256",
              "name": "experiencePoints",
              "type": "uint256"
            },
            {
              "internalType": "uint256",
              "name": "timestamp",
              "type": "uint256"
            },
            {
              "internalType": "uint256[]",
              "name": "plantIds",
              "type": "uint256[]"
            },
            {
              "internalType": "uint256",
              "name": "allowedTokenBalance",
              "type": "uint256"
            },
            {
              "internalType": "bool",
              "name": "isPresent",
              "type": "bool"
            }
          ],
          "internalType": "struct Structs.Participant",
          "name": "participant",
          "type": "tuple"
        },
        {
          "internalType": "uint256",
          "name": "tokenId",
          "type": "uint256"
        }
      ],
      "name": "handleRemoveTokenIdFromParticipant",
      "outputs": [
        {
          "components": [
            {
              "internalType": "uint256",
              "name": "level",
              "type": "uint256"
            },
            {
              "internalType": "uint256",
              "name": "experiencePoints",
              "type": "uint256"
            },
            {
              "internalType": "uint256",
              "name": "timestamp",
              "type": "uint256"
            },
            {
              "internalType": "uint256[]",
              "name": "plantIds",
              "type": "uint256[]"
            },
            {
              "internalType": "uint256",
              "name": "allowedTokenBalance",
              "type": "uint256"
            },
            {
              "internalType": "bool",
              "name": "isPresent",
              "type": "bool"
            }
          ],
          "internalType": "struct Structs.Participant",
          "name": "_participant",
          "type": "tuple"
        }
      ],
      "stateMutability": "pure",
      "type": "function"
    }
  ],
  "bytecode": "0x608060405234801561001057600080fd5b50610e6b806100206000396000f3fe608060405234801561001057600080fd5b50600436106100885760003560e01c80638da92a5d1161005b5780638da92a5d1461015f5780639199a30b14610172578063b13a4dce14610185578063ffa029dd146101a557600080fd5b80632424a0e91461008d57806342526e4e146100b3578063691fa646146100de5780637182817b1461013f575b600080fd5b6100a061009b3660046107c9565b6101b8565b6040519081526020015b60405180910390f35b6100c66100c13660046107eb565b6101e3565b6040516001600160a01b0390911681526020016100aa565b6100f16100ec366004610941565b610228565b6040516100aa9190600060c082019050825182526020830151602083015260408301516040830152606083015160608301526080830151608083015260a0830151151560a083015292915050565b61015261014d36600461096c565b6102d6565b6040516100aa91906109e4565b61015261016d3660046109f7565b61048c565b6100a0610180366004610b38565b6104ff565b610198610193366004610b7d565b610539565b6040516100aa9190610bcb565b6101986101b3366004610b38565b6105bf565b6000806101c6600184610c72565b6101d190600a610c89565b6101db9085610ca8565b949350505050565b60008083838080601f01602080910402602001604051908101604052809392919081815260200183838082843760009201919091525050505060140151949350505050565b6102636040518060c0016040528060008152602001600081526020016000815260200160008152602001600081526020016000151581525090565b81836040018181516102759190610ca8565b9052506080830151604084015160009161028e91610cd6565b610299906001610ca8565b90506001811180156102ac575060058111155b156102bd57602084018190526102ce565b60058111156102ce57600560208501525b509192915050565b60608160a001516103265760405162461bcd60e51b8152602060048201526015602482015274283630b73a103237b2b9903737ba1032bc34b9ba1760591b60448201526064015b60405180910390fd5b81602001516001148061033d575081602001516002145b8061034c575081602001516003145b8061035b575081602001516004145b8061036a575081602001516005145b6103b65760405162461bcd60e51b815260206004820152601b60248201527f506c616e74206c6576656c20646f6573206e6f742065786973742e0000000000604482015260640161031d565b8160600151600114806103cd575081606001516002145b806103dc575081606001516003145b6104285760405162461bcd60e51b815260206004820152601b60248201527f506c616e74206c6966657320646f6573206e6f742065786973742e0000000000604482015260640161031d565b6000604051806080016040528060448152602001610df260449139905060008161045585600001516106cb565b61046286602001516106cb565b60405160200161047493929190610cea565b60408051601f19818403018152919052949350505050565b60608060005b838110156104f757818585838181106104ad576104ad610d4c565b90506020020160208101906104c29190610d62565b6040516020016104d3929190610d8b565b604051602081830303815290604052915080806104ef90610dc2565b915050610492565b509392505050565b6000600a600184600001516105149190610c72565b61051e9084610c89565b6105289190610cd6565b6105329083610ca8565b9392505050565b6105746040518060c0016040528060008152602001600081526020016000815260200160608152602001600081526020016000151581525090565b82846020018181516105869190610ca8565b905250602084015160009061059c908490610cd6565b6105a7906001610ca8565b905060018111156105b6578085525b50929392505050565b6105fa6040518060c0016040528060008152602001600081526020016000815260200160608152602001600081526020016000151581525090565b6000600184606001515161060e9190610c72565b67ffffffffffffffff8111156106265761062661085d565b60405190808252806020026020018201604052801561064f578160200160208202803683370190505b50905060005b8460600151518110156106be5760008560600151828151811061067a5761067a610d4c565b602002602001015190508481146106ab578083838151811061069e5761069e610d4c565b6020026020010181815250505b50806106b681610dc2565b915050610655565b5060608401525090919050565b6060816106ef5750506040805180820190915260018152600360fc1b602082015290565b8160005b8115610719578061070381610dc2565b91506107129050600a83610cd6565b91506106f3565b60008167ffffffffffffffff8111156107345761073461085d565b6040519080825280601f01601f19166020018201604052801561075e576020820181803683370190505b5090505b84156101db57610773600183610c72565b9150610780600a86610ddd565b61078b906030610ca8565b60f81b8183815181106107a0576107a0610d4c565b60200101906001600160f81b031916908160001a9053506107c2600a86610cd6565b9450610762565b600080604083850312156107dc57600080fd5b50508035926020909101359150565b600080602083850312156107fe57600080fd5b823567ffffffffffffffff8082111561081657600080fd5b818501915085601f83011261082a57600080fd5b81358181111561083957600080fd5b86602082850101111561084b57600080fd5b60209290920196919550909350505050565b634e487b7160e01b600052604160045260246000fd5b60405160c0810167ffffffffffffffff811182821017156108965761089661085d565b60405290565b604051601f8201601f1916810167ffffffffffffffff811182821017156108c5576108c561085d565b604052919050565b803580151581146108dd57600080fd5b919050565b600060c082840312156108f457600080fd5b6108fc610873565b9050813581526020820135602082015260408201356040820152606082013560608201526080820135608082015261093660a083016108cd565b60a082015292915050565b60008060e0838503121561095457600080fd5b61095e84846108e2565b9460c0939093013593505050565b600060c0828403121561097e57600080fd5b61053283836108e2565b60005b838110156109a357818101518382015260200161098b565b838111156109b2576000848401525b50505050565b600081518084526109d0816020860160208601610988565b601f01601f19169290920160200192915050565b60208152600061053260208301846109b8565b60008060208385031215610a0a57600080fd5b823567ffffffffffffffff80821115610a2257600080fd5b818501915085601f830112610a3657600080fd5b813581811115610a4557600080fd5b8660208260051b850101111561084b57600080fd5b600060c08284031215610a6c57600080fd5b610a74610873565b9050813581526020808301358183015260408301356040830152606083013567ffffffffffffffff80821115610aa957600080fd5b818501915085601f830112610abd57600080fd5b813581811115610acf57610acf61085d565b8060051b9150610ae084830161089c565b8181529183018401918481019088841115610afa57600080fd5b938501935b83851015610b1857843582529385019390850190610aff565b606087015250505050506080828101359082015261093660a083016108cd565b60008060408385031215610b4b57600080fd5b823567ffffffffffffffff811115610b6257600080fd5b610b6e85828601610a5a565b95602094909401359450505050565b600080600060608486031215610b9257600080fd5b833567ffffffffffffffff811115610ba957600080fd5b610bb586828701610a5a565b9660208601359650604090950135949350505050565b6000602080835260e0830184518285015281850151604085015260408501516060850152606085015160c06080860152818151808452610100870191508483019350600092505b80831015610c325783518252928401926001929092019190840190610c12565b50608087015160a087015260a08701519350610c5260c087018515159052565b9695505050505050565b634e487b7160e01b600052601160045260246000fd5b600082821015610c8457610c84610c5c565b500390565b6000816000190483118215151615610ca357610ca3610c5c565b500290565b60008219821115610cbb57610cbb610c5c565b500190565b634e487b7160e01b600052601260045260246000fd5b600082610ce557610ce5610cc0565b500490565b60008451610cfc818460208901610988565b845190830190610d10818360208901610988565b602d60f81b91019081528351610d2d816001840160208801610988565b64173539b7b760d91b6001929091019182015260060195945050505050565b634e487b7160e01b600052603260045260246000fd5b600060208284031215610d7457600080fd5b81356001600160a01b038116811461053257600080fd5b60008351610d9d818460208801610988565b60609390931b6bffffffffffffffffffffffff19169190920190815260140192915050565b6000600019821415610dd657610dd6610c5c565b5060010190565b600082610dec57610dec610cc0565b50069056fe68747470733a2f2f697066732e696f2f697066732f516d61796a32626f3234316f443258726b637064386737367573666e4b3673624c74395a7576554a346b3661586a2fa2646970667358221220002ee50d7f2bb8c0bafbda63060389c5f60fa0d80e89d4cae92725519414ddcb64736f6c63430008090033",
  "linkReferences": {},
  "deployedLinkReferences": {}
}