{
  "_format": "hh-sol-artifact-1",
  "contractName": "KojoUtils",
  "sourceName": "contracts/utils/KojoUtils.sol",
  "abi": [
    {
      "inputs": [
        {
          "components": [
            {
              "internalType": "uint256",
              "name": "level",
              "type": "uint256"
            },
            {
              "internalType": "uint256",
              "name": "experiencePoints",
              "type": "uint256"
            },
            {
              "internalType": "uint256[]",
              "name": "plantIds",
              "type": "uint256[]"
            },
            {
              "internalType": "uint256",
              "name": "allowedTokenBalance",
              "type": "uint256"
            },
            {
              "internalType": "bool",
              "name": "isPresent",
              "type": "bool"
            }
          ],
          "internalType": "struct Structs.Participant",
          "name": "participant",
          "type": "tuple"
        },
        {
          "internalType": "uint256",
          "name": "tokenId",
          "type": "uint256"
        }
      ],
      "name": "handleAddTokenIdToParticipant",
      "outputs": [
        {
          "components": [
            {
              "internalType": "uint256",
              "name": "level",
              "type": "uint256"
            },
            {
              "internalType": "uint256",
              "name": "experiencePoints",
              "type": "uint256"
            },
            {
              "internalType": "uint256[]",
              "name": "plantIds",
              "type": "uint256[]"
            },
            {
              "internalType": "uint256",
              "name": "allowedTokenBalance",
              "type": "uint256"
            },
            {
              "internalType": "bool",
              "name": "isPresent",
              "type": "bool"
            }
          ],
          "internalType": "struct Structs.Participant",
          "name": "_participant",
          "type": "tuple"
        }
      ],
      "stateMutability": "pure",
      "type": "function"
    },
    {
      "inputs": [
        {
          "components": [
            {
              "internalType": "uint256",
              "name": "level",
              "type": "uint256"
            },
            {
              "internalType": "uint256",
              "name": "experiencePoints",
              "type": "uint256"
            },
            {
              "internalType": "uint256[]",
              "name": "plantIds",
              "type": "uint256[]"
            },
            {
              "internalType": "uint256",
              "name": "allowedTokenBalance",
              "type": "uint256"
            },
            {
              "internalType": "bool",
              "name": "isPresent",
              "type": "bool"
            }
          ],
          "internalType": "struct Structs.Participant",
          "name": "participant",
          "type": "tuple"
        },
        {
          "internalType": "uint256",
          "name": "amount",
          "type": "uint256"
        }
      ],
      "name": "handleAddXPToParticipant",
      "outputs": [
        {
          "components": [
            {
              "internalType": "uint256",
              "name": "level",
              "type": "uint256"
            },
            {
              "internalType": "uint256",
              "name": "experiencePoints",
              "type": "uint256"
            },
            {
              "internalType": "uint256[]",
              "name": "plantIds",
              "type": "uint256[]"
            },
            {
              "internalType": "uint256",
              "name": "allowedTokenBalance",
              "type": "uint256"
            },
            {
              "internalType": "bool",
              "name": "isPresent",
              "type": "bool"
            }
          ],
          "internalType": "struct Structs.Participant",
          "name": "_participant",
          "type": "tuple"
        }
      ],
      "stateMutability": "pure",
      "type": "function"
    },
    {
      "inputs": [
        {
          "components": [
            {
              "internalType": "uint256",
              "name": "level",
              "type": "uint256"
            },
            {
              "internalType": "uint256",
              "name": "experiencePoints",
              "type": "uint256"
            },
            {
              "internalType": "uint256",
              "name": "lifes",
              "type": "uint256"
            },
            {
              "internalType": "uint256",
              "name": "levelCost",
              "type": "uint256"
            },
            {
              "internalType": "bool",
              "name": "isPresent",
              "type": "bool"
            }
          ],
          "internalType": "struct Structs.Plant",
          "name": "plant",
          "type": "tuple"
        },
        {
          "internalType": "uint256",
          "name": "amount",
          "type": "uint256"
        }
      ],
      "name": "handleAddXPToPlant",
      "outputs": [
        {
          "components": [
            {
              "internalType": "uint256",
              "name": "level",
              "type": "uint256"
            },
            {
              "internalType": "uint256",
              "name": "experiencePoints",
              "type": "uint256"
            },
            {
              "internalType": "uint256",
              "name": "lifes",
              "type": "uint256"
            },
            {
              "internalType": "uint256",
              "name": "levelCost",
              "type": "uint256"
            },
            {
              "internalType": "bool",
              "name": "isPresent",
              "type": "bool"
            }
          ],
          "internalType": "struct Structs.Plant",
          "name": "_plant",
          "type": "tuple"
        }
      ],
      "stateMutability": "pure",
      "type": "function"
    },
    {
      "inputs": [
        {
          "components": [
            {
              "internalType": "uint256",
              "name": "level",
              "type": "uint256"
            },
            {
              "internalType": "uint256",
              "name": "experiencePoints",
              "type": "uint256"
            },
            {
              "internalType": "uint256",
              "name": "lifes",
              "type": "uint256"
            },
            {
              "internalType": "uint256",
              "name": "levelCost",
              "type": "uint256"
            },
            {
              "internalType": "bool",
              "name": "isPresent",
              "type": "bool"
            }
          ],
          "internalType": "struct Structs.Plant",
          "name": "plant",
          "type": "tuple"
        },
        {
          "internalType": "uint256",
          "name": "tokenId",
          "type": "uint256"
        }
      ],
      "name": "handleBuildURI",
      "outputs": [
        {
          "internalType": "string",
          "name": "_uri",
          "type": "string"
        }
      ],
      "stateMutability": "pure",
      "type": "function"
    },
    {
      "inputs": [
        {
          "components": [
            {
              "internalType": "uint256",
              "name": "level",
              "type": "uint256"
            },
            {
              "internalType": "uint256",
              "name": "experiencePoints",
              "type": "uint256"
            },
            {
              "internalType": "uint256[]",
              "name": "plantIds",
              "type": "uint256[]"
            },
            {
              "internalType": "uint256",
              "name": "allowedTokenBalance",
              "type": "uint256"
            },
            {
              "internalType": "bool",
              "name": "isPresent",
              "type": "bool"
            }
          ],
          "internalType": "struct Structs.Participant",
          "name": "participant",
          "type": "tuple"
        },
        {
          "internalType": "uint256",
          "name": "amount",
          "type": "uint256"
        }
      ],
      "name": "handleCalculateAllowedTokenBalanceFromParticipantLevel",
      "outputs": [
        {
          "internalType": "uint256",
          "name": "_amount",
          "type": "uint256"
        }
      ],
      "stateMutability": "pure",
      "type": "function"
    },
    {
      "inputs": [
        {
          "components": [
            {
              "internalType": "uint256",
              "name": "level",
              "type": "uint256"
            },
            {
              "internalType": "uint256",
              "name": "experiencePoints",
              "type": "uint256"
            },
            {
              "internalType": "uint256[]",
              "name": "plantIds",
              "type": "uint256[]"
            },
            {
              "internalType": "uint256",
              "name": "allowedTokenBalance",
              "type": "uint256"
            },
            {
              "internalType": "bool",
              "name": "isPresent",
              "type": "bool"
            }
          ],
          "internalType": "struct Structs.Participant",
          "name": "participant",
          "type": "tuple"
        },
        {
          "internalType": "uint256",
          "name": "tokenId",
          "type": "uint256"
        }
      ],
      "name": "handleRemoveTokenIdFromParticipant",
      "outputs": [
        {
          "components": [
            {
              "internalType": "uint256",
              "name": "level",
              "type": "uint256"
            },
            {
              "internalType": "uint256",
              "name": "experiencePoints",
              "type": "uint256"
            },
            {
              "internalType": "uint256[]",
              "name": "plantIds",
              "type": "uint256[]"
            },
            {
              "internalType": "uint256",
              "name": "allowedTokenBalance",
              "type": "uint256"
            },
            {
              "internalType": "bool",
              "name": "isPresent",
              "type": "bool"
            }
          ],
          "internalType": "struct Structs.Participant",
          "name": "_participant",
          "type": "tuple"
        }
      ],
      "stateMutability": "pure",
      "type": "function"
    }
  ],
  "bytecode": "0x608060405234801561001057600080fd5b50610970806100206000396000f3fe608060405234801561001057600080fd5b50600436106100625760003560e01c806358e5d9cf1461006757806367a58d62146100c75780636c6fa442146100e757806385dc309a14610107578063a3dac6291461011a578063ddf62c141461012d575b600080fd5b61007a6100753660046105e8565b61014e565b6040516100be9190600060a0820190508251825260208301516020830152604083015160408301526060830151606083015260808301511515608083015292915050565b60405180910390f35b6100da6100d53660046105e8565b610210565b6040516100be9190610684565b6100fa6100f53660046106b7565b61026a565b6040516100be91906107ba565b6100fa6101153660046106b7565b61036f565b6100fa6101283660046106b7565b610452565b61014061013b3660046106b7565b610541565b6040519081526020016100be565b6101826040518060a00160405280600081526020016000815260200160008152602001600081526020016000151581525090565b82606001518284602001516101979190610856565b10156101b3578183602001516101ad9190610856565b60208401525b82606001518284602001516101c89190610856565b1115610209576001836000018181516101e19190610856565b905250606083015160208401516101f9908490610856565b610203919061086e565b60208401525b5090919050565b6040805180820182526009815268697066732f6e66742f60b81b60208083019190915284518584015193516060946000936102519386938993919201610885565b60408051808303601f1901815291905295945050505050565b61029e6040518060a00160405280600081526020016000815260200160608152602001600081526020016000151581525090565b600060018460400151516102b2919061086e565b67ffffffffffffffff8111156102ca576102ca610563565b6040519080825280602002602001820160405280156102f3578160200160208202803683370190505b50905060005b8460400151518110156103625760008560400151828151811061031e5761031e6108c8565b6020026020010151905084811461034f5780838381518110610342576103426108c8565b6020026020010181815250505b508061035a816108de565b9150506102f9565b5060408401525090919050565b6103a36040518060a00160405280600081526020016000815260200160608152602001600081526020016000151581525090565b82516000906103b4906005906108f9565b84516103c09190610856565b6103cc906103e861091b565b9050808385602001516103df9190610856565b10156103fb578284602001516103f59190610856565b60208501525b8083856020015161040c9190610856565b111561044a576001846000018181516104259190610856565b9052506020840151819061043a908590610856565b610444919061086e565b60208501525b509192915050565b6104866040518060a00160405280600081526020016000815260200160608152602001600081526020016000151581525090565b600082116105005760405162461bcd60e51b815260206004820152603f60248201527f546f6b656e204944206d7573742062652067726561746572207468616e20302060448201527f696e206f7264657220746f20626520616e204e465420746f6b656e2069642e00606482015260840160405180910390fd5b6040830151805160609084908290610519906001610856565b81518110610529576105296108c8565b60209081029190910101526040850152509192915050565b815160009061055290600a906108f9565b61055c908361091b565b9392505050565b634e487b7160e01b600052604160045260246000fd5b60405160a0810167ffffffffffffffff8111828210171561059c5761059c610563565b60405290565b604051601f8201601f1916810167ffffffffffffffff811182821017156105cb576105cb610563565b604052919050565b803580151581146105e357600080fd5b919050565b60008082840360c08112156105fc57600080fd5b60a081121561060a57600080fd5b50610613610579565b83358152602084013560208201526040840135604082015260608401356060820152610641608085016105d3565b60808201529460a0939093013593505050565b60005b8381101561066f578181015183820152602001610657565b8381111561067e576000848401525b50505050565b60208152600082518060208401526106a3816040850160208701610654565b601f01601f19169190910160400192915050565b600080604083850312156106ca57600080fd5b823567ffffffffffffffff808211156106e257600080fd5b9084019060a082870312156106f657600080fd5b6106fe610579565b823581526020808401358183015260408401358381111561071e57600080fd5b8401601f8101891361072f57600080fd5b80358481111561074157610741610563565b8060051b94506107528386016105a2565b818152948201830194838101908b87111561076c57600080fd5b928401925b8684101561078a57833582529284019290840190610771565b6040860152505050606084810135908301526107a8608085016105d3565b60808301529097950135955050505050565b6000602080835260c08301845182850152818501516040850152604085015160a0606086015281815180845260e0870191508483019350600092505b8083101561081657835182529284019260019290920191908401906107f6565b50606087015160808701526080870151935061083660a087018515159052565b9695505050505050565b634e487b7160e01b600052601160045260246000fd5b6000821982111561086957610869610840565b500190565b60008282101561088057610880610840565b500390565b60008551610897818460208a01610654565b9190910193845250602d60f81b60208401819052602184019290925260418301919091526042820152606201919050565b634e487b7160e01b600052603260045260246000fd5b60006000198214156108f2576108f2610840565b5060010190565b60008261091657634e487b7160e01b600052601260045260246000fd5b500490565b600081600019048311821515161561093557610935610840565b50029056fea2646970667358221220a8902a6bb699162a4cbfe28b80109f92fc6e6e0ca897c9bb1b16bb6ccc066b3064736f6c63430008090033",
  "linkReferences": {},
  "deployedLinkReferences": {}
}