{
  "_format": "hh-sol-artifact-1",
  "contractName": "KojoUtils",
  "sourceName": "contracts/utils/KojoUtils.sol",
  "abi": [
    {
      "inputs": [
        {
          "internalType": "bytes",
          "name": "data",
          "type": "bytes"
        }
      ],
      "name": "bytesToAddress",
      "outputs": [
        {
          "internalType": "address",
          "name": "addr",
          "type": "address"
        }
      ],
      "stateMutability": "pure",
      "type": "function"
    },
    {
      "inputs": [
        {
          "internalType": "uint256",
          "name": "levelCost",
          "type": "uint256"
        },
        {
          "internalType": "uint256",
          "name": "level",
          "type": "uint256"
        }
      ],
      "name": "calculateParticipantLevelCost",
      "outputs": [
        {
          "internalType": "uint256",
          "name": "",
          "type": "uint256"
        }
      ],
      "stateMutability": "pure",
      "type": "function"
    },
    {
      "inputs": [
        {
          "internalType": "address[]",
          "name": "addresses",
          "type": "address[]"
        }
      ],
      "name": "encodeAddressArray",
      "outputs": [
        {
          "internalType": "bytes",
          "name": "",
          "type": "bytes"
        }
      ],
      "stateMutability": "pure",
      "type": "function"
    },
    {
      "inputs": [
        {
          "components": [
            {
              "internalType": "uint256",
              "name": "level",
              "type": "uint256"
            },
            {
              "internalType": "uint256",
              "name": "experiencePoints",
              "type": "uint256"
            },
            {
              "internalType": "uint256",
              "name": "timestamp",
              "type": "uint256"
            },
            {
              "internalType": "uint256[]",
              "name": "plantIds",
              "type": "uint256[]"
            },
            {
              "internalType": "uint256",
              "name": "allowedTokenBalance",
              "type": "uint256"
            },
            {
              "internalType": "bool",
              "name": "isPresent",
              "type": "bool"
            }
          ],
          "internalType": "struct Structs.Participant",
          "name": "participant",
          "type": "tuple"
        },
        {
          "internalType": "uint256",
          "name": "amount",
          "type": "uint256"
        },
        {
          "internalType": "uint256",
          "name": "levelCost",
          "type": "uint256"
        }
      ],
      "name": "handleAddXPToParticipant",
      "outputs": [
        {
          "components": [
            {
              "internalType": "uint256",
              "name": "level",
              "type": "uint256"
            },
            {
              "internalType": "uint256",
              "name": "experiencePoints",
              "type": "uint256"
            },
            {
              "internalType": "uint256",
              "name": "timestamp",
              "type": "uint256"
            },
            {
              "internalType": "uint256[]",
              "name": "plantIds",
              "type": "uint256[]"
            },
            {
              "internalType": "uint256",
              "name": "allowedTokenBalance",
              "type": "uint256"
            },
            {
              "internalType": "bool",
              "name": "isPresent",
              "type": "bool"
            }
          ],
          "internalType": "struct Structs.Participant",
          "name": "_participant",
          "type": "tuple"
        }
      ],
      "stateMutability": "pure",
      "type": "function"
    },
    {
      "inputs": [
        {
          "components": [
            {
              "internalType": "uint256",
              "name": "typeId",
              "type": "uint256"
            },
            {
              "internalType": "uint256",
              "name": "level",
              "type": "uint256"
            },
            {
              "internalType": "uint256",
              "name": "experiencePoints",
              "type": "uint256"
            },
            {
              "internalType": "uint256",
              "name": "lifes",
              "type": "uint256"
            },
            {
              "internalType": "uint256",
              "name": "levelCost",
              "type": "uint256"
            },
            {
              "internalType": "bool",
              "name": "isPresent",
              "type": "bool"
            }
          ],
          "internalType": "struct Structs.Plant",
          "name": "plant",
          "type": "tuple"
        },
        {
          "internalType": "uint256",
          "name": "amount",
          "type": "uint256"
        }
      ],
      "name": "handleAddXPToPlant",
      "outputs": [
        {
          "components": [
            {
              "internalType": "uint256",
              "name": "typeId",
              "type": "uint256"
            },
            {
              "internalType": "uint256",
              "name": "level",
              "type": "uint256"
            },
            {
              "internalType": "uint256",
              "name": "experiencePoints",
              "type": "uint256"
            },
            {
              "internalType": "uint256",
              "name": "lifes",
              "type": "uint256"
            },
            {
              "internalType": "uint256",
              "name": "levelCost",
              "type": "uint256"
            },
            {
              "internalType": "bool",
              "name": "isPresent",
              "type": "bool"
            }
          ],
          "internalType": "struct Structs.Plant",
          "name": "_plant",
          "type": "tuple"
        }
      ],
      "stateMutability": "pure",
      "type": "function"
    },
    {
      "inputs": [
        {
          "components": [
            {
              "internalType": "uint256",
              "name": "typeId",
              "type": "uint256"
            },
            {
              "internalType": "uint256",
              "name": "level",
              "type": "uint256"
            },
            {
              "internalType": "uint256",
              "name": "experiencePoints",
              "type": "uint256"
            },
            {
              "internalType": "uint256",
              "name": "lifes",
              "type": "uint256"
            },
            {
              "internalType": "uint256",
              "name": "levelCost",
              "type": "uint256"
            },
            {
              "internalType": "bool",
              "name": "isPresent",
              "type": "bool"
            }
          ],
          "internalType": "struct Structs.Plant",
          "name": "plant",
          "type": "tuple"
        }
      ],
      "name": "handleBuildURI",
      "outputs": [
        {
          "internalType": "string",
          "name": "_uri",
          "type": "string"
        }
      ],
      "stateMutability": "pure",
      "type": "function"
    },
    {
      "inputs": [
        {
          "components": [
            {
              "internalType": "uint256",
              "name": "level",
              "type": "uint256"
            },
            {
              "internalType": "uint256",
              "name": "experiencePoints",
              "type": "uint256"
            },
            {
              "internalType": "uint256",
              "name": "timestamp",
              "type": "uint256"
            },
            {
              "internalType": "uint256[]",
              "name": "plantIds",
              "type": "uint256[]"
            },
            {
              "internalType": "uint256",
              "name": "allowedTokenBalance",
              "type": "uint256"
            },
            {
              "internalType": "bool",
              "name": "isPresent",
              "type": "bool"
            }
          ],
          "internalType": "struct Structs.Participant",
          "name": "participant",
          "type": "tuple"
        },
        {
          "internalType": "uint256",
          "name": "amount",
          "type": "uint256"
        }
      ],
      "name": "handleCalculateAllowedTokenBalanceFromParticipantLevel",
      "outputs": [
        {
          "internalType": "uint256",
          "name": "_amount",
          "type": "uint256"
        }
      ],
      "stateMutability": "pure",
      "type": "function"
    },
    {
      "inputs": [
        {
          "components": [
            {
              "internalType": "uint256",
              "name": "level",
              "type": "uint256"
            },
            {
              "internalType": "uint256",
              "name": "experiencePoints",
              "type": "uint256"
            },
            {
              "internalType": "uint256",
              "name": "timestamp",
              "type": "uint256"
            },
            {
              "internalType": "uint256[]",
              "name": "plantIds",
              "type": "uint256[]"
            },
            {
              "internalType": "uint256",
              "name": "allowedTokenBalance",
              "type": "uint256"
            },
            {
              "internalType": "bool",
              "name": "isPresent",
              "type": "bool"
            }
          ],
          "internalType": "struct Structs.Participant",
          "name": "participant",
          "type": "tuple"
        },
        {
          "internalType": "uint256",
          "name": "tokenId",
          "type": "uint256"
        }
      ],
      "name": "handleRemoveTokenIdFromParticipant",
      "outputs": [
        {
          "components": [
            {
              "internalType": "uint256",
              "name": "level",
              "type": "uint256"
            },
            {
              "internalType": "uint256",
              "name": "experiencePoints",
              "type": "uint256"
            },
            {
              "internalType": "uint256",
              "name": "timestamp",
              "type": "uint256"
            },
            {
              "internalType": "uint256[]",
              "name": "plantIds",
              "type": "uint256[]"
            },
            {
              "internalType": "uint256",
              "name": "allowedTokenBalance",
              "type": "uint256"
            },
            {
              "internalType": "bool",
              "name": "isPresent",
              "type": "bool"
            }
          ],
          "internalType": "struct Structs.Participant",
          "name": "_participant",
          "type": "tuple"
        }
      ],
      "stateMutability": "pure",
      "type": "function"
    }
  ],
  "bytecode": "0x608060405234801561001057600080fd5b50610e5a806100206000396000f3fe608060405234801561001057600080fd5b50600436106100885760003560e01c80638da92a5d1161005b5780638da92a5d1461015f5780639199a30b14610172578063b13a4dce14610185578063ffa029dd146101a557600080fd5b80632424a0e91461008d57806342526e4e146100b3578063691fa646146100de5780637182817b1461013f575b600080fd5b6100a061009b3660046107b8565b6101b8565b6040519081526020015b60405180910390f35b6100c66100c13660046107da565b6101e3565b6040516001600160a01b0390911681526020016100aa565b6100f16100ec366004610930565b610228565b6040516100aa9190600060c082019050825182526020830151602083015260408301516040830152606083015160608301526080830151608083015260a0830151151560a083015292915050565b61015261014d36600461095b565b6102c5565b6040516100aa91906109d3565b61015261016d3660046109e6565b61047b565b6100a0610180366004610b27565b6104ee565b610198610193366004610b6c565b610528565b6040516100aa9190610bba565b6101986101b3366004610b27565b6105ae565b6000806101c6600184610c61565b6101d190600a610c78565b6101db9085610c97565b949350505050565b60008083838080601f01602080910402602001604051908101604052809392919081815260200183838082843760009201919091525050505060140151949350505050565b6102636040518060c0016040528060008152602001600081526020016000815260200160008152602001600081526020016000151581525090565b81836040018181516102759190610c97565b9052506080830151602084015161028c9190610c78565b83604001511180156102a2575060058360200151105b156102be576001836020018181516102ba9190610c97565b9052505b5090919050565b60608160a001516103155760405162461bcd60e51b8152602060048201526015602482015274283630b73a103237b2b9903737ba1032bc34b9ba1760591b60448201526064015b60405180910390fd5b81602001516001148061032c575081602001516002145b8061033b575081602001516003145b8061034a575081602001516004145b80610359575081602001516005145b6103a55760405162461bcd60e51b815260206004820152601b60248201527f506c616e74206c6576656c20646f6573206e6f742065786973742e0000000000604482015260640161030c565b8160600151600114806103bc575081606001516002145b806103cb575081606001516003145b6104175760405162461bcd60e51b815260206004820152601b60248201527f506c616e74206c6966657320646f6573206e6f742065786973742e0000000000604482015260640161030c565b6000604051806080016040528060448152602001610de160449139905060008161044485600001516106ba565b61045186602001516106ba565b60405160200161046393929190610caf565b60408051601f19818403018152919052949350505050565b60608060005b838110156104e6578185858381811061049c5761049c610d11565b90506020020160208101906104b19190610d27565b6040516020016104c2929190610d50565b604051602081830303815290604052915080806104de90610d87565b915050610481565b509392505050565b6000600a600184600001516105039190610c61565b61050d9084610c78565b6105179190610db8565b6105219083610c97565b9392505050565b6105636040518060c0016040528060008152602001600081526020016000815260200160608152602001600081526020016000151581525090565b82846020018181516105759190610c97565b90525083516105849083610c78565b846020015111156105a6576001846000018181516105a29190610c97565b9052505b509192915050565b6105e96040518060c0016040528060008152602001600081526020016000815260200160608152602001600081526020016000151581525090565b600060018460600151516105fd9190610c61565b67ffffffffffffffff8111156106155761061561084c565b60405190808252806020026020018201604052801561063e578160200160208202803683370190505b50905060005b8460600151518110156106ad5760008560600151828151811061066957610669610d11565b6020026020010151905084811461069a578083838151811061068d5761068d610d11565b6020026020010181815250505b50806106a581610d87565b915050610644565b5060608401525090919050565b6060816106de5750506040805180820190915260018152600360fc1b602082015290565b8160005b811561070857806106f281610d87565b91506107019050600a83610db8565b91506106e2565b60008167ffffffffffffffff8111156107235761072361084c565b6040519080825280601f01601f19166020018201604052801561074d576020820181803683370190505b5090505b84156101db57610762600183610c61565b915061076f600a86610dcc565b61077a906030610c97565b60f81b81838151811061078f5761078f610d11565b60200101906001600160f81b031916908160001a9053506107b1600a86610db8565b9450610751565b600080604083850312156107cb57600080fd5b50508035926020909101359150565b600080602083850312156107ed57600080fd5b823567ffffffffffffffff8082111561080557600080fd5b818501915085601f83011261081957600080fd5b81358181111561082857600080fd5b86602082850101111561083a57600080fd5b60209290920196919550909350505050565b634e487b7160e01b600052604160045260246000fd5b60405160c0810167ffffffffffffffff811182821017156108855761088561084c565b60405290565b604051601f8201601f1916810167ffffffffffffffff811182821017156108b4576108b461084c565b604052919050565b803580151581146108cc57600080fd5b919050565b600060c082840312156108e357600080fd5b6108eb610862565b9050813581526020820135602082015260408201356040820152606082013560608201526080820135608082015261092560a083016108bc565b60a082015292915050565b60008060e0838503121561094357600080fd5b61094d84846108d1565b9460c0939093013593505050565b600060c0828403121561096d57600080fd5b61052183836108d1565b60005b8381101561099257818101518382015260200161097a565b838111156109a1576000848401525b50505050565b600081518084526109bf816020860160208601610977565b601f01601f19169290920160200192915050565b60208152600061052160208301846109a7565b600080602083850312156109f957600080fd5b823567ffffffffffffffff80821115610a1157600080fd5b818501915085601f830112610a2557600080fd5b813581811115610a3457600080fd5b8660208260051b850101111561083a57600080fd5b600060c08284031215610a5b57600080fd5b610a63610862565b9050813581526020808301358183015260408301356040830152606083013567ffffffffffffffff80821115610a9857600080fd5b818501915085601f830112610aac57600080fd5b813581811115610abe57610abe61084c565b8060051b9150610acf84830161088b565b8181529183018401918481019088841115610ae957600080fd5b938501935b83851015610b0757843582529385019390850190610aee565b606087015250505050506080828101359082015261092560a083016108bc565b60008060408385031215610b3a57600080fd5b823567ffffffffffffffff811115610b5157600080fd5b610b5d85828601610a49565b95602094909401359450505050565b600080600060608486031215610b8157600080fd5b833567ffffffffffffffff811115610b9857600080fd5b610ba486828701610a49565b9660208601359650604090950135949350505050565b6000602080835260e0830184518285015281850151604085015260408501516060850152606085015160c06080860152818151808452610100870191508483019350600092505b80831015610c215783518252928401926001929092019190840190610c01565b50608087015160a087015260a08701519350610c4160c087018515159052565b9695505050505050565b634e487b7160e01b600052601160045260246000fd5b600082821015610c7357610c73610c4b565b500390565b6000816000190483118215151615610c9257610c92610c4b565b500290565b60008219821115610caa57610caa610c4b565b500190565b60008451610cc1818460208901610977565b845190830190610cd5818360208901610977565b602d60f81b91019081528351610cf2816001840160208801610977565b64173539b7b760d91b6001929091019182015260060195945050505050565b634e487b7160e01b600052603260045260246000fd5b600060208284031215610d3957600080fd5b81356001600160a01b038116811461052157600080fd5b60008351610d62818460208801610977565b60609390931b6bffffffffffffffffffffffff19169190920190815260140192915050565b6000600019821415610d9b57610d9b610c4b565b5060010190565b634e487b7160e01b600052601260045260246000fd5b600082610dc757610dc7610da2565b500490565b600082610ddb57610ddb610da2565b50069056fe68747470733a2f2f697066732e696f2f697066732f516d61796a32626f3234316f443258726b637064386737367573666e4b3673624c74395a7576554a346b3661586a2fa264697066735822122037cfda0dd84150fabcbafa890fe96f2b0d926334525223b2cf8c9febe2c103f964736f6c63430008090033",
  "linkReferences": {},
  "deployedLinkReferences": {}
}