{
  "_format": "hh-sol-artifact-1",
  "contractName": "KojoUtils",
  "sourceName": "contracts/utils/KojoUtils.sol",
  "abi": [
    {
      "inputs": [
        {
          "components": [
            {
              "internalType": "uint256",
              "name": "level",
              "type": "uint256"
            },
            {
              "internalType": "uint256",
              "name": "experiencePoints",
              "type": "uint256"
            },
            {
              "internalType": "uint256[]",
              "name": "plantIds",
              "type": "uint256[]"
            },
            {
              "internalType": "uint256",
              "name": "allowedTokenBalance",
              "type": "uint256"
            },
            {
              "internalType": "bool",
              "name": "isPresent",
              "type": "bool"
            }
          ],
          "internalType": "struct Structs.Participant",
          "name": "participant",
          "type": "tuple"
        },
        {
          "internalType": "uint256",
          "name": "amount",
          "type": "uint256"
        }
      ],
      "name": "handleAddXPToParticipant",
      "outputs": [
        {
          "components": [
            {
              "internalType": "uint256",
              "name": "level",
              "type": "uint256"
            },
            {
              "internalType": "uint256",
              "name": "experiencePoints",
              "type": "uint256"
            },
            {
              "internalType": "uint256[]",
              "name": "plantIds",
              "type": "uint256[]"
            },
            {
              "internalType": "uint256",
              "name": "allowedTokenBalance",
              "type": "uint256"
            },
            {
              "internalType": "bool",
              "name": "isPresent",
              "type": "bool"
            }
          ],
          "internalType": "struct Structs.Participant",
          "name": "_participant",
          "type": "tuple"
        }
      ],
      "stateMutability": "pure",
      "type": "function"
    },
    {
      "inputs": [
        {
          "components": [
            {
              "internalType": "uint256",
              "name": "level",
              "type": "uint256"
            },
            {
              "internalType": "uint256",
              "name": "experiencePoints",
              "type": "uint256"
            },
            {
              "internalType": "uint256",
              "name": "lifes",
              "type": "uint256"
            },
            {
              "internalType": "uint256",
              "name": "levelCost",
              "type": "uint256"
            },
            {
              "internalType": "bool",
              "name": "isPresent",
              "type": "bool"
            }
          ],
          "internalType": "struct Structs.Plant",
          "name": "plant",
          "type": "tuple"
        },
        {
          "internalType": "uint256",
          "name": "amount",
          "type": "uint256"
        }
      ],
      "name": "handleAddXPToPlant",
      "outputs": [
        {
          "components": [
            {
              "internalType": "uint256",
              "name": "level",
              "type": "uint256"
            },
            {
              "internalType": "uint256",
              "name": "experiencePoints",
              "type": "uint256"
            },
            {
              "internalType": "uint256",
              "name": "lifes",
              "type": "uint256"
            },
            {
              "internalType": "uint256",
              "name": "levelCost",
              "type": "uint256"
            },
            {
              "internalType": "bool",
              "name": "isPresent",
              "type": "bool"
            }
          ],
          "internalType": "struct Structs.Plant",
          "name": "_plant",
          "type": "tuple"
        }
      ],
      "stateMutability": "pure",
      "type": "function"
    },
    {
      "inputs": [
        {
          "components": [
            {
              "internalType": "uint256",
              "name": "level",
              "type": "uint256"
            },
            {
              "internalType": "uint256",
              "name": "experiencePoints",
              "type": "uint256"
            },
            {
              "internalType": "uint256",
              "name": "lifes",
              "type": "uint256"
            },
            {
              "internalType": "uint256",
              "name": "levelCost",
              "type": "uint256"
            },
            {
              "internalType": "bool",
              "name": "isPresent",
              "type": "bool"
            }
          ],
          "internalType": "struct Structs.Plant",
          "name": "plant",
          "type": "tuple"
        },
        {
          "internalType": "uint256",
          "name": "tokenId",
          "type": "uint256"
        }
      ],
      "name": "handleBuildURI",
      "outputs": [
        {
          "internalType": "string",
          "name": "_uri",
          "type": "string"
        }
      ],
      "stateMutability": "pure",
      "type": "function"
    },
    {
      "inputs": [
        {
          "components": [
            {
              "internalType": "uint256",
              "name": "level",
              "type": "uint256"
            },
            {
              "internalType": "uint256",
              "name": "experiencePoints",
              "type": "uint256"
            },
            {
              "internalType": "uint256[]",
              "name": "plantIds",
              "type": "uint256[]"
            },
            {
              "internalType": "uint256",
              "name": "allowedTokenBalance",
              "type": "uint256"
            },
            {
              "internalType": "bool",
              "name": "isPresent",
              "type": "bool"
            }
          ],
          "internalType": "struct Structs.Participant",
          "name": "participant",
          "type": "tuple"
        },
        {
          "internalType": "uint256",
          "name": "amount",
          "type": "uint256"
        }
      ],
      "name": "handleCalculateAllowedTokenBalanceFromParticipantLevel",
      "outputs": [
        {
          "internalType": "uint256",
          "name": "_amount",
          "type": "uint256"
        }
      ],
      "stateMutability": "pure",
      "type": "function"
    },
    {
      "inputs": [
        {
          "components": [
            {
              "internalType": "uint256",
              "name": "level",
              "type": "uint256"
            },
            {
              "internalType": "uint256",
              "name": "experiencePoints",
              "type": "uint256"
            },
            {
              "internalType": "uint256[]",
              "name": "plantIds",
              "type": "uint256[]"
            },
            {
              "internalType": "uint256",
              "name": "allowedTokenBalance",
              "type": "uint256"
            },
            {
              "internalType": "bool",
              "name": "isPresent",
              "type": "bool"
            }
          ],
          "internalType": "struct Structs.Participant",
          "name": "participant",
          "type": "tuple"
        },
        {
          "internalType": "uint256",
          "name": "tokenId",
          "type": "uint256"
        }
      ],
      "name": "handleRemoveTokenIdFromParticipant",
      "outputs": [
        {
          "components": [
            {
              "internalType": "uint256",
              "name": "level",
              "type": "uint256"
            },
            {
              "internalType": "uint256",
              "name": "experiencePoints",
              "type": "uint256"
            },
            {
              "internalType": "uint256[]",
              "name": "plantIds",
              "type": "uint256[]"
            },
            {
              "internalType": "uint256",
              "name": "allowedTokenBalance",
              "type": "uint256"
            },
            {
              "internalType": "bool",
              "name": "isPresent",
              "type": "bool"
            }
          ],
          "internalType": "struct Structs.Participant",
          "name": "_participant",
          "type": "tuple"
        }
      ],
      "stateMutability": "pure",
      "type": "function"
    }
  ],
  "bytecode": "0x608060405234801561001057600080fd5b50610863806100206000396000f3fe608060405234801561001057600080fd5b50600436106100575760003560e01c806358e5d9cf1461005c57806367a58d62146100bc5780636c6fa442146100dc57806385dc309a146100fc578063ddf62c141461010f575b600080fd5b61006f61006a3660046104db565b610130565b6040516100b39190600060a0820190508251825260208301516020830152604083015160408301526060830151606083015260808301511515608083015292915050565b60405180910390f35b6100cf6100ca3660046104db565b6101f2565b6040516100b39190610577565b6100ef6100ea3660046105aa565b61024c565b6040516100b391906106ad565b6100ef61010a3660046105aa565b610351565b61012261011d3660046105aa565b610434565b6040519081526020016100b3565b6101646040518060a00160405280600081526020016000815260200160008152602001600081526020016000151581525090565b82606001518284602001516101799190610749565b10156101955781836020015161018f9190610749565b60208401525b82606001518284602001516101aa9190610749565b11156101eb576001836000018181516101c39190610749565b905250606083015160208401516101db908490610749565b6101e59190610761565b60208401525b5090919050565b6040805180820182526009815268697066732f6e66742f60b81b60208083019190915284518584015193516060946000936102339386938993919201610778565b60408051808303601f1901815291905295945050505050565b6102806040518060a00160405280600081526020016000815260200160608152602001600081526020016000151581525090565b600060018460400151516102949190610761565b67ffffffffffffffff8111156102ac576102ac610456565b6040519080825280602002602001820160405280156102d5578160200160208202803683370190505b50905060005b84604001515181101561034457600085604001518281518110610300576103006107bb565b602002602001015190508481146103315780838381518110610324576103246107bb565b6020026020010181815250505b508061033c816107d1565b9150506102db565b5060408401525090919050565b6103856040518060a00160405280600081526020016000815260200160608152602001600081526020016000151581525090565b8251600090610396906005906107ec565b84516103a29190610749565b6103ae906103e861080e565b9050808385602001516103c19190610749565b10156103dd578284602001516103d79190610749565b60208501525b808385602001516103ee9190610749565b111561042c576001846000018181516104079190610749565b9052506020840151819061041c908590610749565b6104269190610761565b60208501525b509192915050565b815160009061044590600a906107ec565b61044f908361080e565b9392505050565b634e487b7160e01b600052604160045260246000fd5b60405160a0810167ffffffffffffffff8111828210171561048f5761048f610456565b60405290565b604051601f8201601f1916810167ffffffffffffffff811182821017156104be576104be610456565b604052919050565b803580151581146104d657600080fd5b919050565b60008082840360c08112156104ef57600080fd5b60a08112156104fd57600080fd5b5061050661046c565b83358152602084013560208201526040840135604082015260608401356060820152610534608085016104c6565b60808201529460a0939093013593505050565b60005b8381101561056257818101518382015260200161054a565b83811115610571576000848401525b50505050565b6020815260008251806020840152610596816040850160208701610547565b601f01601f19169190910160400192915050565b600080604083850312156105bd57600080fd5b823567ffffffffffffffff808211156105d557600080fd5b9084019060a082870312156105e957600080fd5b6105f161046c565b823581526020808401358183015260408401358381111561061157600080fd5b8401601f8101891361062257600080fd5b80358481111561063457610634610456565b8060051b9450610645838601610495565b818152948201830194838101908b87111561065f57600080fd5b928401925b8684101561067d57833582529284019290840190610664565b60408601525050506060848101359083015261069b608085016104c6565b60808301529097950135955050505050565b6000602080835260c08301845182850152818501516040850152604085015160a0606086015281815180845260e0870191508483019350600092505b8083101561070957835182529284019260019290920191908401906106e9565b50606087015160808701526080870151935061072960a087018515159052565b9695505050505050565b634e487b7160e01b600052601160045260246000fd5b6000821982111561075c5761075c610733565b500190565b60008282101561077357610773610733565b500390565b6000855161078a818460208a01610547565b9190910193845250602d60f81b60208401819052602184019290925260418301919091526042820152606201919050565b634e487b7160e01b600052603260045260246000fd5b60006000198214156107e5576107e5610733565b5060010190565b60008261080957634e487b7160e01b600052601260045260246000fd5b500490565b600081600019048311821515161561082857610828610733565b50029056fea264697066735822122069d7ae0712b159263af1d5c68cc95314e1f70af853b7c289e4f46c146a62842364736f6c63430008090033",
  "linkReferences": {},
  "deployedLinkReferences": {}
}