{
  "_format": "hh-sol-artifact-1",
  "contractName": "KojoUtils",
  "sourceName": "contracts/utils/KojoUtils.sol",
  "abi": [
    {
      "inputs": [
        {
          "internalType": "bytes",
          "name": "data",
          "type": "bytes"
        }
      ],
      "name": "bytesToAddress",
      "outputs": [
        {
          "internalType": "address",
          "name": "addr",
          "type": "address"
        }
      ],
      "stateMutability": "pure",
      "type": "function"
    },
    {
      "inputs": [
        {
          "internalType": "uint256",
          "name": "levelCost",
          "type": "uint256"
        },
        {
          "internalType": "uint256",
          "name": "level",
          "type": "uint256"
        }
      ],
      "name": "calculateParticipantLevelCost",
      "outputs": [
        {
          "internalType": "uint256",
          "name": "participantLevelCost",
          "type": "uint256"
        }
      ],
      "stateMutability": "pure",
      "type": "function"
    },
    {
      "inputs": [
        {
          "components": [
            {
              "internalType": "uint256",
              "name": "level",
              "type": "uint256"
            },
            {
              "internalType": "uint256",
              "name": "experiencePoints",
              "type": "uint256"
            },
            {
              "internalType": "uint256",
              "name": "timestamp",
              "type": "uint256"
            },
            {
              "internalType": "uint256[]",
              "name": "plantIds",
              "type": "uint256[]"
            },
            {
              "internalType": "uint256",
              "name": "allowedTokenBalance",
              "type": "uint256"
            },
            {
              "internalType": "bool",
              "name": "isPresent",
              "type": "bool"
            }
          ],
          "internalType": "struct Structs.Participant",
          "name": "participant",
          "type": "tuple"
        },
        {
          "internalType": "uint256",
          "name": "amount",
          "type": "uint256"
        },
        {
          "internalType": "uint256",
          "name": "levelCost",
          "type": "uint256"
        }
      ],
      "name": "handleAddXPToParticipant",
      "outputs": [
        {
          "components": [
            {
              "internalType": "uint256",
              "name": "level",
              "type": "uint256"
            },
            {
              "internalType": "uint256",
              "name": "experiencePoints",
              "type": "uint256"
            },
            {
              "internalType": "uint256",
              "name": "timestamp",
              "type": "uint256"
            },
            {
              "internalType": "uint256[]",
              "name": "plantIds",
              "type": "uint256[]"
            },
            {
              "internalType": "uint256",
              "name": "allowedTokenBalance",
              "type": "uint256"
            },
            {
              "internalType": "bool",
              "name": "isPresent",
              "type": "bool"
            }
          ],
          "internalType": "struct Structs.Participant",
          "name": "_participant",
          "type": "tuple"
        }
      ],
      "stateMutability": "pure",
      "type": "function"
    },
    {
      "inputs": [
        {
          "components": [
            {
              "internalType": "uint256",
              "name": "typeId",
              "type": "uint256"
            },
            {
              "internalType": "uint256",
              "name": "level",
              "type": "uint256"
            },
            {
              "internalType": "uint256",
              "name": "experiencePoints",
              "type": "uint256"
            },
            {
              "internalType": "uint256",
              "name": "lifes",
              "type": "uint256"
            },
            {
              "internalType": "uint256",
              "name": "levelCost",
              "type": "uint256"
            },
            {
              "internalType": "bool",
              "name": "isPresent",
              "type": "bool"
            }
          ],
          "internalType": "struct Structs.Plant",
          "name": "plant",
          "type": "tuple"
        },
        {
          "internalType": "uint256",
          "name": "amount",
          "type": "uint256"
        }
      ],
      "name": "handleAddXPToPlant",
      "outputs": [
        {
          "components": [
            {
              "internalType": "uint256",
              "name": "typeId",
              "type": "uint256"
            },
            {
              "internalType": "uint256",
              "name": "level",
              "type": "uint256"
            },
            {
              "internalType": "uint256",
              "name": "experiencePoints",
              "type": "uint256"
            },
            {
              "internalType": "uint256",
              "name": "lifes",
              "type": "uint256"
            },
            {
              "internalType": "uint256",
              "name": "levelCost",
              "type": "uint256"
            },
            {
              "internalType": "bool",
              "name": "isPresent",
              "type": "bool"
            }
          ],
          "internalType": "struct Structs.Plant",
          "name": "_plant",
          "type": "tuple"
        }
      ],
      "stateMutability": "pure",
      "type": "function"
    },
    {
      "inputs": [
        {
          "components": [
            {
              "internalType": "uint256",
              "name": "typeId",
              "type": "uint256"
            },
            {
              "internalType": "uint256",
              "name": "level",
              "type": "uint256"
            },
            {
              "internalType": "uint256",
              "name": "experiencePoints",
              "type": "uint256"
            },
            {
              "internalType": "uint256",
              "name": "lifes",
              "type": "uint256"
            },
            {
              "internalType": "uint256",
              "name": "levelCost",
              "type": "uint256"
            },
            {
              "internalType": "bool",
              "name": "isPresent",
              "type": "bool"
            }
          ],
          "internalType": "struct Structs.Plant",
          "name": "plant",
          "type": "tuple"
        }
      ],
      "name": "handleBuildURI",
      "outputs": [
        {
          "internalType": "string",
          "name": "_uri",
          "type": "string"
        }
      ],
      "stateMutability": "pure",
      "type": "function"
    },
    {
      "inputs": [
        {
          "components": [
            {
              "internalType": "uint256",
              "name": "level",
              "type": "uint256"
            },
            {
              "internalType": "uint256",
              "name": "experiencePoints",
              "type": "uint256"
            },
            {
              "internalType": "uint256",
              "name": "timestamp",
              "type": "uint256"
            },
            {
              "internalType": "uint256[]",
              "name": "plantIds",
              "type": "uint256[]"
            },
            {
              "internalType": "uint256",
              "name": "allowedTokenBalance",
              "type": "uint256"
            },
            {
              "internalType": "bool",
              "name": "isPresent",
              "type": "bool"
            }
          ],
          "internalType": "struct Structs.Participant",
          "name": "participant",
          "type": "tuple"
        },
        {
          "internalType": "uint256",
          "name": "amount",
          "type": "uint256"
        }
      ],
      "name": "handleCalculateAllowedTokenBalanceFromParticipantLevel",
      "outputs": [
        {
          "internalType": "uint256",
          "name": "_amount",
          "type": "uint256"
        }
      ],
      "stateMutability": "pure",
      "type": "function"
    },
    {
      "inputs": [
        {
          "components": [
            {
              "internalType": "uint256",
              "name": "level",
              "type": "uint256"
            },
            {
              "internalType": "uint256",
              "name": "experiencePoints",
              "type": "uint256"
            },
            {
              "internalType": "uint256",
              "name": "timestamp",
              "type": "uint256"
            },
            {
              "internalType": "uint256[]",
              "name": "plantIds",
              "type": "uint256[]"
            },
            {
              "internalType": "uint256",
              "name": "allowedTokenBalance",
              "type": "uint256"
            },
            {
              "internalType": "bool",
              "name": "isPresent",
              "type": "bool"
            }
          ],
          "internalType": "struct Structs.Participant",
          "name": "participant",
          "type": "tuple"
        },
        {
          "internalType": "uint256",
          "name": "tokenId",
          "type": "uint256"
        }
      ],
      "name": "handleRemoveTokenIdFromParticipant",
      "outputs": [
        {
          "components": [
            {
              "internalType": "uint256",
              "name": "level",
              "type": "uint256"
            },
            {
              "internalType": "uint256",
              "name": "experiencePoints",
              "type": "uint256"
            },
            {
              "internalType": "uint256",
              "name": "timestamp",
              "type": "uint256"
            },
            {
              "internalType": "uint256[]",
              "name": "plantIds",
              "type": "uint256[]"
            },
            {
              "internalType": "uint256",
              "name": "allowedTokenBalance",
              "type": "uint256"
            },
            {
              "internalType": "bool",
              "name": "isPresent",
              "type": "bool"
            }
          ],
          "internalType": "struct Structs.Participant",
          "name": "_participant",
          "type": "tuple"
        }
      ],
      "stateMutability": "pure",
      "type": "function"
    }
  ],
  "bytecode": "0x608060405234801561001057600080fd5b50610d07806100206000396000f3fe608060405234801561001057600080fd5b506004361061007d5760003560e01c80637182817b1161005b5780637182817b146101345780639199a30b14610154578063b13a4dce14610167578063ffa029dd1461018757600080fd5b80632424a0e91461008257806342526e4e146100a8578063691fa646146100d3575b600080fd5b610095610090366004610734565b61019a565b6040519081526020015b60405180910390f35b6100bb6100b6366004610756565b6101c5565b6040516001600160a01b03909116815260200161009f565b6100e66100e13660046108ac565b61020a565b60405161009f9190600060c082019050825182526020830151602083015260408301516040830152606083015160608301526080830151608083015260a0830151151560a083015292915050565b6101476101423660046108d7565b6102a7565b60405161009f9190610923565b610095610162366004610a34565b61045d565b61017a610175366004610a79565b610497565b60405161009f9190610ac7565b61017a610195366004610a34565b61052a565b6000806101a8600184610b6e565b6101b3906032610b85565b6101bd9085610ba4565b949350505050565b60008083838080601f01602080910402602001604051908101604052809392919081815260200183838082843760009201919091525050505060140151949350505050565b6102456040518060c0016040528060008152602001600081526020016000815260200160008152602001600081526020016000151581525090565b81836040018181516102579190610ba4565b9052506080830151602084015161026e9190610b85565b8360400151118015610284575060058360200151105b156102a05760018360200181815161029c9190610ba4565b9052505b5090919050565b60608160a001516102f75760405162461bcd60e51b8152602060048201526015602482015274283630b73a103237b2b9903737ba1032bc34b9ba1760591b60448201526064015b60405180910390fd5b81602001516001148061030e575081602001516002145b8061031d575081602001516003145b8061032c575081602001516004145b8061033b575081602001516005145b6103875760405162461bcd60e51b815260206004820152601b60248201527f506c616e74206c6576656c20646f6573206e6f742065786973742e000000000060448201526064016102ee565b81606001516001148061039e575081606001516002145b806103ad575081606001516003145b6103f95760405162461bcd60e51b815260206004820152601b60248201527f506c616e74206c6966657320646f6573206e6f742065786973742e000000000060448201526064016102ee565b6000604051806080016040528060448152602001610c8e6044913990506000816104268560000151610636565b6104338660200151610636565b60405160200161044593929190610bbc565b60408051601f19818403018152919052949350505050565b6000600a600184600001516104729190610b6e565b61047c9084610b85565b6104869190610c34565b6104909083610ba4565b9392505050565b6104d26040518060c0016040528060008152602001600081526020016000815260200160608152602001600081526020016000151581525090565b82846020018181516104e49190610ba4565b90525083516104f39083610b85565b8460200151118015610506575083516003115b156105225760018460000181815161051e9190610ba4565b9052505b509192915050565b6105656040518060c0016040528060008152602001600081526020016000815260200160608152602001600081526020016000151581525090565b600060018460600151516105799190610b6e565b67ffffffffffffffff811115610591576105916107c8565b6040519080825280602002602001820160405280156105ba578160200160208202803683370190505b50905060005b846060015151811015610629576000856060015182815181106105e5576105e5610c48565b60200260200101519050848114610616578083838151811061060957610609610c48565b6020026020010181815250505b508061062181610c5e565b9150506105c0565b5060608401525090919050565b60608161065a5750506040805180820190915260018152600360fc1b602082015290565b8160005b8115610684578061066e81610c5e565b915061067d9050600a83610c34565b915061065e565b60008167ffffffffffffffff81111561069f5761069f6107c8565b6040519080825280601f01601f1916602001820160405280156106c9576020820181803683370190505b5090505b84156101bd576106de600183610b6e565b91506106eb600a86610c79565b6106f6906030610ba4565b60f81b81838151811061070b5761070b610c48565b60200101906001600160f81b031916908160001a90535061072d600a86610c34565b94506106cd565b6000806040838503121561074757600080fd5b50508035926020909101359150565b6000806020838503121561076957600080fd5b823567ffffffffffffffff8082111561078157600080fd5b818501915085601f83011261079557600080fd5b8135818111156107a457600080fd5b8660208285010111156107b657600080fd5b60209290920196919550909350505050565b634e487b7160e01b600052604160045260246000fd5b60405160c0810167ffffffffffffffff81118282101715610801576108016107c8565b60405290565b604051601f8201601f1916810167ffffffffffffffff81118282101715610830576108306107c8565b604052919050565b8035801515811461084857600080fd5b919050565b600060c0828403121561085f57600080fd5b6108676107de565b905081358152602082013560208201526040820135604082015260608201356060820152608082013560808201526108a160a08301610838565b60a082015292915050565b60008060e083850312156108bf57600080fd5b6108c9848461084d565b9460c0939093013593505050565b600060c082840312156108e957600080fd5b610490838361084d565b60005b8381101561090e5781810151838201526020016108f6565b8381111561091d576000848401525b50505050565b60208152600082518060208401526109428160408501602087016108f3565b601f01601f19169190910160400192915050565b600060c0828403121561096857600080fd5b6109706107de565b9050813581526020808301358183015260408301356040830152606083013567ffffffffffffffff808211156109a557600080fd5b818501915085601f8301126109b957600080fd5b8135818111156109cb576109cb6107c8565b8060051b91506109dc848301610807565b81815291830184019184810190888411156109f657600080fd5b938501935b83851015610a14578435825293850193908501906109fb565b60608701525050505050608082810135908201526108a160a08301610838565b60008060408385031215610a4757600080fd5b823567ffffffffffffffff811115610a5e57600080fd5b610a6a85828601610956565b95602094909401359450505050565b600080600060608486031215610a8e57600080fd5b833567ffffffffffffffff811115610aa557600080fd5b610ab186828701610956565b9660208601359650604090950135949350505050565b6000602080835260e0830184518285015281850151604085015260408501516060850152606085015160c06080860152818151808452610100870191508483019350600092505b80831015610b2e5783518252928401926001929092019190840190610b0e565b50608087015160a087015260a08701519350610b4e60c087018515159052565b9695505050505050565b634e487b7160e01b600052601160045260246000fd5b600082821015610b8057610b80610b58565b500390565b6000816000190483118215151615610b9f57610b9f610b58565b500290565b60008219821115610bb757610bb7610b58565b500190565b60008451610bce8184602089016108f3565b845190830190610be28183602089016108f3565b602d60f81b91019081528351610bff8160018401602088016108f3565b64173539b7b760d91b6001929091019182015260060195945050505050565b634e487b7160e01b600052601260045260246000fd5b600082610c4357610c43610c1e565b500490565b634e487b7160e01b600052603260045260246000fd5b6000600019821415610c7257610c72610b58565b5060010190565b600082610c8857610c88610c1e565b50069056fe68747470733a2f2f697066732e696f2f697066732f516d61796a32626f3234316f443258726b637064386737367573666e4b3673624c74395a7576554a346b3661586a2fa2646970667358221220b0ceef8fbd7a2bea3131d625289f7851da168891f554be618634cf558f4f996a64736f6c63430008090033",
  "linkReferences": {},
  "deployedLinkReferences": {}
}