{
  "_format": "hh-sol-artifact-1",
  "contractName": "KojoAPIConsumer",
  "sourceName": "contracts/chainlink/KojoAPIConsumer.sol",
  "abi": [
    {
      "inputs": [],
      "stateMutability": "nonpayable",
      "type": "constructor"
    },
    {
      "anonymous": false,
      "inputs": [
        {
          "indexed": true,
          "internalType": "bytes32",
          "name": "id",
          "type": "bytes32"
        }
      ],
      "name": "ChainlinkCancelled",
      "type": "event"
    },
    {
      "anonymous": false,
      "inputs": [
        {
          "indexed": true,
          "internalType": "bytes32",
          "name": "id",
          "type": "bytes32"
        }
      ],
      "name": "ChainlinkFulfilled",
      "type": "event"
    },
    {
      "anonymous": false,
      "inputs": [
        {
          "indexed": true,
          "internalType": "bytes32",
          "name": "id",
          "type": "bytes32"
        }
      ],
      "name": "ChainlinkRequested",
      "type": "event"
    },
    {
      "anonymous": false,
      "inputs": [
        {
          "indexed": true,
          "internalType": "address",
          "name": "from",
          "type": "address"
        },
        {
          "indexed": true,
          "internalType": "address",
          "name": "to",
          "type": "address"
        }
      ],
      "name": "OwnershipTransferRequested",
      "type": "event"
    },
    {
      "anonymous": false,
      "inputs": [
        {
          "indexed": true,
          "internalType": "address",
          "name": "from",
          "type": "address"
        },
        {
          "indexed": true,
          "internalType": "address",
          "name": "to",
          "type": "address"
        }
      ],
      "name": "OwnershipTransferred",
      "type": "event"
    },
    {
      "anonymous": false,
      "inputs": [
        {
          "indexed": true,
          "internalType": "bytes32",
          "name": "requestId",
          "type": "bytes32"
        },
        {
          "indexed": false,
          "internalType": "uint256",
          "name": "allowance",
          "type": "uint256"
        }
      ],
      "name": "RequestFulfilled",
      "type": "event"
    },
    {
      "inputs": [],
      "name": "acceptOwnership",
      "outputs": [],
      "stateMutability": "nonpayable",
      "type": "function"
    },
    {
      "inputs": [],
      "name": "allowance",
      "outputs": [
        {
          "internalType": "uint256",
          "name": "",
          "type": "uint256"
        }
      ],
      "stateMutability": "view",
      "type": "function"
    },
    {
      "inputs": [
        {
          "internalType": "bytes32",
          "name": "_requestId",
          "type": "bytes32"
        },
        {
          "internalType": "uint256",
          "name": "_allowance",
          "type": "uint256"
        }
      ],
      "name": "fulfill",
      "outputs": [],
      "stateMutability": "nonpayable",
      "type": "function"
    },
    {
      "inputs": [],
      "name": "owner",
      "outputs": [
        {
          "internalType": "address",
          "name": "",
          "type": "address"
        }
      ],
      "stateMutability": "view",
      "type": "function"
    },
    {
      "inputs": [
        {
          "internalType": "string",
          "name": "account",
          "type": "string"
        }
      ],
      "name": "requestKojoAllowance",
      "outputs": [],
      "stateMutability": "nonpayable",
      "type": "function"
    },
    {
      "inputs": [
        {
          "internalType": "address",
          "name": "to",
          "type": "address"
        }
      ],
      "name": "transferOwnership",
      "outputs": [],
      "stateMutability": "nonpayable",
      "type": "function"
    },
    {
      "inputs": [],
      "name": "withdrawLink",
      "outputs": [],
      "stateMutability": "nonpayable",
      "type": "function"
    }
  ],
  "bytecode": "0x6080604052600160045534801561001557600080fd5b50338060008161006c5760405162461bcd60e51b815260206004820152601860248201527f43616e6e6f7420736574206f776e657220746f207a65726f000000000000000060448201526064015b60405180910390fd5b600680546001600160a01b0319166001600160a01b038481169190911790915581161561009c5761009c8161011c565b5050506100c273326c977e6efc84e512bb9c30f76e30c160ed06fb6101c760201b60201c565b600380546001600160a01b03191673e1edb1c19298a1522059cf9f542d2d6faff93d081790557f6330373938613035653238663432653062636465663336653232666134373032600955662386f26fc10000600a556101e9565b6001600160a01b0381163314156101755760405162461bcd60e51b815260206004820152601760248201527f43616e6e6f74207472616e7366657220746f2073656c660000000000000000006044820152606401610063565b600780546001600160a01b0319166001600160a01b03838116918217909255600654604051919216907fed8889f560326eb138920d842192f0eb3dd22b4f139c87a2c57538e05bae127890600090a350565b600280546001600160a01b0319166001600160a01b0392909216919091179055565b6110a7806101f86000396000f3fe608060405234801561001057600080fd5b506004361061007d5760003560e01c80638da5cb5b1161005b5780638da5cb5b146100b25780638dc654a2146100d2578063de242ff4146100da578063f2fde38b146100f157600080fd5b80634357855e1461008257806379ba50971461009757806388e26eea1461009f575b600080fd5b610095610090366004610cd3565b610104565b005b610095610206565b6100956100ad366004610cf5565b6102b4565b6006546040516001600160a01b0390911681526020015b60405180910390f35b610095610382565b6100e360085481565b6040519081526020016100c9565b6100956100ff366004610d67565b6104e4565b60008281526005602052604090205482906001600160a01b031633146101825760405162461bcd60e51b815260206004820152602860248201527f536f75726365206d75737420626520746865206f7261636c65206f6620746865604482015267081c995c5d595cdd60c21b60648201526084015b60405180910390fd5b60008181526005602052604080822080546001600160a01b03191690555182917f7cc135e0cebb02c3480ae5d74d377283180a2601f8f644edf7987b009316c63a91a2827f1ca8663227a7fe9919713a01d344afbb434e234f35a3e540a6ad924f88771f38836040516101f791815260200190565b60405180910390a25060085550565b6007546001600160a01b031633146102595760405162461bcd60e51b815260206004820152601660248201527526bab9ba10313290383937b837b9b2b21037bbb732b960511b6044820152606401610179565b600680546001600160a01b0319808216339081179093556007805490911690556040516001600160a01b03909116919082907f8be0079c531659141344cd1fd0a4f28419497f9722a3daafe3b4186f6b6457e090600090a350565b6102bc6104f5565b60006102d260095430634357855e60e01b61054a565b905061031e6040518060400160405280600381526020016219d95d60ea1b8152508484604051602001610306929190610d97565b60408051601f1981840301815291905283919061056f565b610370604051806040016040528060048152602001630e0c2e8d60e31b81525060405180604001604052806009815260200168616c6c6f77616e636560b81b8152508361056f9092919063ffffffff16565b61037c81600a54610592565b50505050565b61038a6104f5565b600061039e6002546001600160a01b031690565b6040516370a0823160e01b81523060048201529091506001600160a01b0382169063a9059cbb90339083906370a082319060240160206040518083038186803b1580156103ea57600080fd5b505afa1580156103fe573d6000803e3d6000fd5b505050506040513d601f19601f820116820180604052508101906104229190610de4565b6040516001600160e01b031960e085901b1681526001600160a01b0390921660048301526024820152604401602060405180830381600087803b15801561046857600080fd5b505af115801561047c573d6000803e3d6000fd5b505050506040513d601f19601f820116820180604052508101906104a09190610dfd565b6104e15760405162461bcd60e51b81526020600482015260126024820152712ab730b13632903a37903a3930b739b332b960711b6044820152606401610179565b50565b6104ec6104f5565b6104e1816105b5565b6006546001600160a01b031633146105485760405162461bcd60e51b815260206004820152601660248201527527b7363c9031b0b63630b1363290313c9037bbb732b960511b6044820152606401610179565b565b610552610c98565b61055a610c98565b61056681868686610660565b95945050505050565b608083015161057e90836106a6565b608083015161058d90826106a6565b505050565b6003546000906105ac906001600160a01b031684846106bd565b90505b92915050565b6001600160a01b03811633141561060e5760405162461bcd60e51b815260206004820152601760248201527f43616e6e6f74207472616e7366657220746f2073656c660000000000000000006044820152606401610179565b600780546001600160a01b0319166001600160a01b03838116918217909255600654604051919216907fed8889f560326eb138920d842192f0eb3dd22b4f139c87a2c57538e05bae127890600090a350565b610668610c98565b6106788560800151610100610750565b50508284526001600160a01b03821660208501526001600160e01b031981166040850152835b949350505050565b6106b382600383516107b5565b61058d82826108c4565b6004546000906106ce816001610e35565b600455835160408086015160808701515191516000936320214ca360e11b936107069386938493923092918a91600191602401610e9a565b60408051601f198184030181529190526020810180516001600160e01b03166001600160e01b0319909316929092179091529050610746868386846108eb565b9695505050505050565b604080518082019091526060815260006020820152610770602083610f02565b1561079857610780602083610f02565b61078b906020610f24565b6107959083610e35565b91505b506020828101829052604080518085526000815290920101905290565b60178167ffffffffffffffff16116107da5761037c8360e0600585901b168317610a58565b60ff8167ffffffffffffffff161161081857610801836018611fe0600586901b1617610a58565b5061037c8367ffffffffffffffff83166001610a7d565b61ffff8167ffffffffffffffff161161085757610840836019611fe0600586901b1617610a58565b5061037c8367ffffffffffffffff83166002610a7d565b63ffffffff8167ffffffffffffffff16116108985761088183601a611fe0600586901b1617610a58565b5061037c8367ffffffffffffffff83166004610a7d565b6108ad83601b611fe0600586901b1617610a58565b5061037c8367ffffffffffffffff83166008610a7d565b6040805180820190915260608152600060208201526105ac83846000015151848551610aa3565b6040516bffffffffffffffffffffffff193060601b1660208201526034810184905260009060540160408051808303601f1901815282825280516020918201206000818152600590925291812080546001600160a01b0319166001600160a01b038a1617905590925082917fb5e6e01e79f91267dc17b4e6314d5d4d03593d2ceee0fbb452b750bd70ea5af99190a2600254604051630200057560e51b81526001600160a01b0390911690634000aea0906109ae90889087908790600401610f3b565b602060405180830381600087803b1580156109c857600080fd5b505af11580156109dc573d6000803e3d6000fd5b505050506040513d601f19601f82011682018060405250810190610a009190610dfd565b61069e5760405162461bcd60e51b815260206004820152602360248201527f756e61626c6520746f207472616e73666572416e6443616c6c20746f206f7261604482015262636c6560e81b6064820152608401610179565b6040805180820190915260608152600060208201526105ac8384600001515184610b8d565b60408051808201909152606081526000602082015261069e848560000151518585610be9565b6040805180820190915260608152600060208201528251821115610ac657600080fd5b6020850151610ad58386610e35565b1115610b0857610b0885610af887602001518786610af39190610e35565b610c6a565b610b03906002610f62565b610c81565b600080865180518760208301019350808887011115610b275787860182525b505050602084015b60208410610b675780518252610b46602083610e35565b9150610b53602082610e35565b9050610b60602085610f24565b9350610b2f565b51815160001960208690036101000a019081169019919091161790525083949350505050565b60408051808201909152606081526000602082015283602001518310610bc257610bc28485602001516002610b039190610f62565b835180516020858301018481535080851415610bdf576001810182525b5093949350505050565b6040805180820190915260608152600060208201526020850151610c0d8584610e35565b1115610c2157610c2185610af88685610e35565b60006001610c3184610100611065565b610c3b9190610f24565b9050855183868201018583198251161781525080518487011115610c5f5783860181525b509495945050505050565b600081831115610c7b5750816105af565b50919050565b8151610c8d8383610750565b5061037c83826108c4565b6040805160a0810182526000808252602080830182905282840182905260608084018390528451808601909552845283015290608082015290565b60008060408385031215610ce657600080fd5b50508035926020909101359150565b60008060208385031215610d0857600080fd5b823567ffffffffffffffff80821115610d2057600080fd5b818501915085601f830112610d3457600080fd5b813581811115610d4357600080fd5b866020828501011115610d5557600080fd5b60209290920196919550909350505050565b600060208284031215610d7957600080fd5b81356001600160a01b0381168114610d9057600080fd5b9392505050565b7f68747470733a2f2f6170692e706c61792d6b6f6a6f2e78797a2f6170692f666181526a7279732f6c61746573742f60a81b60208201528183602b83013760009101602b01908152919050565b600060208284031215610df657600080fd5b5051919050565b600060208284031215610e0f57600080fd5b81518015158114610d9057600080fd5b634e487b7160e01b600052601160045260246000fd5b60008219821115610e4857610e48610e1f565b500190565b6000815180845260005b81811015610e7357602081850181015186830182015201610e57565b81811115610e85576000602083870101525b50601f01601f19169290920160200192915050565b6001600160a01b0389811682526020820189905260408201889052861660608201526001600160e01b03198516608082015260a0810184905260c0810183905261010060e08201819052600090610ef383820185610e4d565b9b9a5050505050505050505050565b600082610f1f57634e487b7160e01b600052601260045260246000fd5b500690565b600082821015610f3657610f36610e1f565b500390565b60018060a01b03841681528260208201526060604082015260006105666060830184610e4d565b6000816000190483118215151615610f7c57610f7c610e1f565b500290565b600181815b80851115610fbc578160001904821115610fa257610fa2610e1f565b80851615610faf57918102915b93841c9390800290610f86565b509250929050565b600082610fd3575060016105af565b81610fe0575060006105af565b8160018114610ff657600281146110005761101c565b60019150506105af565b60ff84111561101157611011610e1f565b50506001821b6105af565b5060208310610133831016604e8410600b841016171561103f575081810a6105af565b6110498383610f81565b806000190482111561105d5761105d610e1f565b029392505050565b60006105ac8383610fc456fea2646970667358221220de6515f62272442aaeaa945bbd0d741566c4e5939a1e66b0cb9428edc5049ad064736f6c63430008090033",
  "linkReferences": {},
  "deployedLinkReferences": {}
}