{
  "_format": "hh-sol-artifact-1",
  "contractName": "KojoAPIConsumer",
  "sourceName": "contracts/chainlink/KojoAPIConsumer.sol",
  "abi": [
    {
      "inputs": [],
      "stateMutability": "nonpayable",
      "type": "constructor"
    },
    {
      "anonymous": false,
      "inputs": [
        {
          "indexed": true,
          "internalType": "bytes32",
          "name": "id",
          "type": "bytes32"
        }
      ],
      "name": "ChainlinkCancelled",
      "type": "event"
    },
    {
      "anonymous": false,
      "inputs": [
        {
          "indexed": true,
          "internalType": "bytes32",
          "name": "id",
          "type": "bytes32"
        }
      ],
      "name": "ChainlinkFulfilled",
      "type": "event"
    },
    {
      "anonymous": false,
      "inputs": [
        {
          "indexed": true,
          "internalType": "bytes32",
          "name": "id",
          "type": "bytes32"
        }
      ],
      "name": "ChainlinkRequested",
      "type": "event"
    },
    {
      "anonymous": false,
      "inputs": [
        {
          "indexed": true,
          "internalType": "address",
          "name": "from",
          "type": "address"
        },
        {
          "indexed": true,
          "internalType": "address",
          "name": "to",
          "type": "address"
        }
      ],
      "name": "OwnershipTransferRequested",
      "type": "event"
    },
    {
      "anonymous": false,
      "inputs": [
        {
          "indexed": true,
          "internalType": "address",
          "name": "from",
          "type": "address"
        },
        {
          "indexed": true,
          "internalType": "address",
          "name": "to",
          "type": "address"
        }
      ],
      "name": "OwnershipTransferred",
      "type": "event"
    },
    {
      "anonymous": false,
      "inputs": [
        {
          "indexed": true,
          "internalType": "bytes32",
          "name": "requestId",
          "type": "bytes32"
        },
        {
          "indexed": false,
          "internalType": "uint256",
          "name": "allowance",
          "type": "uint256"
        }
      ],
      "name": "RequestFulfilled",
      "type": "event"
    },
    {
      "inputs": [],
      "name": "acceptOwnership",
      "outputs": [],
      "stateMutability": "nonpayable",
      "type": "function"
    },
    {
      "inputs": [
        {
          "internalType": "bytes32",
          "name": "requestId",
          "type": "bytes32"
        },
        {
          "internalType": "uint256",
          "name": "allowance",
          "type": "uint256"
        },
        {
          "internalType": "address",
          "name": "account",
          "type": "address"
        }
      ],
      "name": "fulfill",
      "outputs": [],
      "stateMutability": "nonpayable",
      "type": "function"
    },
    {
      "inputs": [],
      "name": "owner",
      "outputs": [
        {
          "internalType": "address",
          "name": "",
          "type": "address"
        }
      ],
      "stateMutability": "view",
      "type": "function"
    },
    {
      "inputs": [
        {
          "internalType": "string",
          "name": "account",
          "type": "string"
        }
      ],
      "name": "requestKojoAllowance",
      "outputs": [],
      "stateMutability": "nonpayable",
      "type": "function"
    },
    {
      "inputs": [
        {
          "internalType": "address",
          "name": "_store",
          "type": "address"
        }
      ],
      "name": "setStorageContract",
      "outputs": [],
      "stateMutability": "nonpayable",
      "type": "function"
    },
    {
      "inputs": [],
      "name": "store",
      "outputs": [
        {
          "internalType": "contract KojoStorage",
          "name": "",
          "type": "address"
        }
      ],
      "stateMutability": "view",
      "type": "function"
    },
    {
      "inputs": [
        {
          "internalType": "address",
          "name": "to",
          "type": "address"
        }
      ],
      "name": "transferOwnership",
      "outputs": [],
      "stateMutability": "nonpayable",
      "type": "function"
    },
    {
      "inputs": [],
      "name": "withdrawLink",
      "outputs": [],
      "stateMutability": "nonpayable",
      "type": "function"
    }
  ],
  "bytecode": "0x6080604052600160045534801561001557600080fd5b50338060008161006c5760405162461bcd60e51b815260206004820152601860248201527f43616e6e6f7420736574206f776e657220746f207a65726f000000000000000060448201526064015b60405180910390fd5b600680546001600160a01b0319166001600160a01b038481169190911790915581161561009c5761009c8161011c565b5050506100c273326c977e6efc84e512bb9c30f76e30c160ed06fb6101c760201b60201c565b600380546001600160a01b03191673a4500f0906a69ab42e3693fdad2ca5910858b7cf1790557f6661613266633933616539643439656162386364316334653239373862656362600855662386f26fc100006009556101e9565b6001600160a01b0381163314156101755760405162461bcd60e51b815260206004820152601760248201527f43616e6e6f74207472616e7366657220746f2073656c660000000000000000006044820152606401610063565b600780546001600160a01b0319166001600160a01b03838116918217909255600654604051919216907fed8889f560326eb138920d842192f0eb3dd22b4f139c87a2c57538e05bae127890600090a350565b600280546001600160a01b0319166001600160a01b0392909216919091179055565b6111ab806101f86000396000f3fe608060405234801561001057600080fd5b50600436106100885760003560e01c80638dc654a21161005b5780638dc654a2146100e6578063975057e7146100ee578063dc38b0a214610101578063f2fde38b1461011457600080fd5b80633c0d07381461008d57806379ba5097146100a257806388e26eea146100aa5780638da5cb5b146100bd575b600080fd5b6100a061009b366004610dd2565b610127565b005b6100a0610291565b6100a06100b8366004610e07565b61033f565b6006546001600160a01b03165b6040516001600160a01b03909116815260200160405180910390f35b6100a0610468565b600a546100ca906001600160a01b031681565b6100a061010f366004610e79565b6105ac565b6100a0610122366004610e79565b6105d6565b60008381526005602052604090205483906001600160a01b031633146101a55760405162461bcd60e51b815260206004820152602860248201527f536f75726365206d75737420626520746865206f7261636c65206f6620746865604482015267081c995c5d595cdd60c21b60648201526084015b60405180910390fd5b60008181526005602052604080822080546001600160a01b03191690555182917f7cc135e0cebb02c3480ae5d74d377283180a2601f8f644edf7987b009316c63a91a2837f1ca8663227a7fe9919713a01d344afbb434e234f35a3e540a6ad924f88771f388460405161021a91815260200190565b60405180910390a2600a54604051600162ac053960e01b03198152600481018590526001600160a01b0384811660248301529091169063ff53fac790604401600060405180830381600087803b15801561027357600080fd5b505af1158015610287573d6000803e3d6000fd5b5050505050505050565b6007546001600160a01b031633146102e45760405162461bcd60e51b815260206004820152601660248201527526bab9ba10313290383937b837b9b2b21037bbb732b960511b604482015260640161019c565b600680546001600160a01b0319808216339081179093556007805490911690556040516001600160a01b03909116919082907f8be0079c531659141344cd1fd0a4f28419497f9722a3daafe3b4186f6b6457e090600090a350565b600061035560085430633c0d073860e01b6105e7565b90506103a16040518060400160405280600381526020016219d95d60ea1b8152508484604051602001610389929190610e94565b60408051601f1981840301815291905283919061060c565b610404604051806040016040528060078152602001666164647265737360c81b81525084848080601f01602080910402602001604051908101604052809392919081815260200183838082843760009201919091525086949392505061060c9050565b610456604051806040016040528060048152602001630e0c2e8d60e31b81525060405180604001604052806009815260200168616c6c6f77616e636560b81b8152508361060c9092919063ffffffff16565b6104628160095461062f565b50505050565b610470610652565b60006104846002546001600160a01b031690565b6040516370a0823160e01b81523060048201529091506001600160a01b0382169063a9059cbb90339083906370a0823190602401602060405180830381865afa1580156104d5573d6000803e3d6000fd5b505050506040513d601f19601f820116820180604052508101906104f99190610ee1565b6040516001600160e01b031960e085901b1681526001600160a01b03909216600483015260248201526044016020604051808303816000875af1158015610544573d6000803e3d6000fd5b505050506040513d601f19601f820116820180604052508101906105689190610efa565b6105a95760405162461bcd60e51b81526020600482015260126024820152712ab730b13632903a37903a3930b739b332b960711b604482015260640161019c565b50565b6105b4610652565b600a80546001600160a01b0319166001600160a01b0392909216919091179055565b6105de610652565b6105a9816106a7565b6105ef610d7b565b6105f7610d7b565b61060381868686610752565b95945050505050565b608083015161061b9083610798565b608083015161062a9082610798565b505050565b600354600090610649906001600160a01b031684846107af565b90505b92915050565b6006546001600160a01b031633146106a55760405162461bcd60e51b815260206004820152601660248201527527b7363c9031b0b63630b1363290313c9037bbb732b960511b604482015260640161019c565b565b6001600160a01b0381163314156107005760405162461bcd60e51b815260206004820152601760248201527f43616e6e6f74207472616e7366657220746f2073656c66000000000000000000604482015260640161019c565b600780546001600160a01b0319166001600160a01b03838116918217909255600654604051919216907fed8889f560326eb138920d842192f0eb3dd22b4f139c87a2c57538e05bae127890600090a350565b61075a610d7b565b61076a8560800151610100610842565b50508284526001600160a01b03821660208501526001600160e01b031981166040850152835b949350505050565b6107a582600383516108a7565b61062a82826109b6565b6004546000906107c0816001610f39565b600455835160408086015160808701515191516000936320214ca360e11b936107f89386938493923092918a91600191602401610f9e565b60408051601f198184030181529190526020810180516001600160e01b03166001600160e01b0319909316929092179091529050610838868386846109dd565b9695505050505050565b604080518082019091526060815260006020820152610862602083611006565b1561088a57610872602083611006565b61087d906020611028565b6108879083610f39565b91505b506020828101829052604080518085526000815290920101905290565b60178167ffffffffffffffff16116108cc576104628360e0600585901b168317610b3b565b60ff8167ffffffffffffffff161161090a576108f3836018611fe0600586901b1617610b3b565b506104628367ffffffffffffffff83166001610b60565b61ffff8167ffffffffffffffff161161094957610932836019611fe0600586901b1617610b3b565b506104628367ffffffffffffffff83166002610b60565b63ffffffff8167ffffffffffffffff161161098a5761097383601a611fe0600586901b1617610b3b565b506104628367ffffffffffffffff83166004610b60565b61099f83601b611fe0600586901b1617610b3b565b506104628367ffffffffffffffff83166008610b60565b60408051808201909152606081526000602082015261064983846000015151848551610b86565b6040516bffffffffffffffffffffffff193060601b1660208201526034810184905260009060540160408051808303601f1901815282825280516020918201206000818152600590925291812080546001600160a01b0319166001600160a01b038a1617905590925082917fb5e6e01e79f91267dc17b4e6314d5d4d03593d2ceee0fbb452b750bd70ea5af99190a2600254604051630200057560e51b81526001600160a01b0390911690634000aea090610aa09088908790879060040161103f565b6020604051808303816000875af1158015610abf573d6000803e3d6000fd5b505050506040513d601f19601f82011682018060405250810190610ae39190610efa565b6107905760405162461bcd60e51b815260206004820152602360248201527f756e61626c6520746f207472616e73666572416e6443616c6c20746f206f7261604482015262636c6560e81b606482015260840161019c565b6040805180820190915260608152600060208201526106498384600001515184610c70565b604080518082019091526060815260006020820152610790848560000151518585610ccc565b6040805180820190915260608152600060208201528251821115610ba957600080fd5b6020850151610bb88386610f39565b1115610beb57610beb85610bdb87602001518786610bd69190610f39565b610d4d565b610be6906002611066565b610d64565b600080865180518760208301019350808887011115610c0a5787860182525b505050602084015b60208410610c4a5780518252610c29602083610f39565b9150610c36602082610f39565b9050610c43602085611028565b9350610c12565b51815160001960208690036101000a019081169019919091161790525083949350505050565b60408051808201909152606081526000602082015283602001518310610ca557610ca58485602001516002610be69190611066565b835180516020858301018481535080851415610cc2576001810182525b5093949350505050565b6040805180820190915260608152600060208201526020850151610cf08584610f39565b1115610d0457610d0485610bdb8685610f39565b60006001610d1484610100611169565b610d1e9190611028565b9050855183868201018583198251161781525080518487011115610d425783860181525b509495945050505050565b600081831115610d5e57508161064c565b50919050565b8151610d708383610842565b5061046283826109b6565b6040805160a0810182526000808252602080830182905282840182905260608084018390528451808601909552845283015290608082015290565b80356001600160a01b0381168114610dcd57600080fd5b919050565b600080600060608486031215610de757600080fd5b8335925060208401359150610dfe60408501610db6565b90509250925092565b60008060208385031215610e1a57600080fd5b823567ffffffffffffffff80821115610e3257600080fd5b818501915085601f830112610e4657600080fd5b813581811115610e5557600080fd5b866020828501011115610e6757600080fd5b60209290920196919550909350505050565b600060208284031215610e8b57600080fd5b61064982610db6565b7f68747470733a2f2f6170692e706c61792d6b6f6a6f2e78797a2f6170692f666181526a7279732f6c61746573742f60a81b60208201528183602b83013760009101602b01908152919050565b600060208284031215610ef357600080fd5b5051919050565b600060208284031215610f0c57600080fd5b81518015158114610f1c57600080fd5b9392505050565b634e487b7160e01b600052601160045260246000fd5b60008219821115610f4c57610f4c610f23565b500190565b6000815180845260005b81811015610f7757602081850181015186830182015201610f5b565b81811115610f89576000602083870101525b50601f01601f19169290920160200192915050565b6001600160a01b0389811682526020820189905260408201889052861660608201526001600160e01b03198516608082015260a0810184905260c0810183905261010060e08201819052600090610ff783820185610f51565b9b9a5050505050505050505050565b60008261102357634e487b7160e01b600052601260045260246000fd5b500690565b60008282101561103a5761103a610f23565b500390565b60018060a01b03841681528260208201526060604082015260006106036060830184610f51565b600081600019048311821515161561108057611080610f23565b500290565b600181815b808511156110c05781600019048211156110a6576110a6610f23565b808516156110b357918102915b93841c939080029061108a565b509250929050565b6000826110d75750600161064c565b816110e45750600061064c565b81600181146110fa576002811461110457611120565b600191505061064c565b60ff84111561111557611115610f23565b50506001821b61064c565b5060208310610133831016604e8410600b8410161715611143575081810a61064c565b61114d8383611085565b806000190482111561116157611161610f23565b029392505050565b600061064983836110c856fea26469706673582212204ddf68cb728c1b11c9943b525cab514d6b9add1258c83d67d94e2fbd44ffa9c764736f6c634300080c0033",
  "linkReferences": {},
  "deployedLinkReferences": {}
}