{
  "_format": "hh-sol-artifact-1",
  "contractName": "KojoAPIConsumer",
  "sourceName": "contracts/chainlink/KojoAPIConsumer.sol",
  "abi": [
    {
      "inputs": [],
      "stateMutability": "nonpayable",
      "type": "constructor"
    },
    {
      "anonymous": false,
      "inputs": [
        {
          "indexed": true,
          "internalType": "bytes32",
          "name": "id",
          "type": "bytes32"
        }
      ],
      "name": "ChainlinkCancelled",
      "type": "event"
    },
    {
      "anonymous": false,
      "inputs": [
        {
          "indexed": true,
          "internalType": "bytes32",
          "name": "id",
          "type": "bytes32"
        }
      ],
      "name": "ChainlinkFulfilled",
      "type": "event"
    },
    {
      "anonymous": false,
      "inputs": [
        {
          "indexed": true,
          "internalType": "bytes32",
          "name": "id",
          "type": "bytes32"
        }
      ],
      "name": "ChainlinkRequested",
      "type": "event"
    },
    {
      "anonymous": false,
      "inputs": [
        {
          "indexed": true,
          "internalType": "address",
          "name": "from",
          "type": "address"
        },
        {
          "indexed": true,
          "internalType": "address",
          "name": "to",
          "type": "address"
        }
      ],
      "name": "OwnershipTransferRequested",
      "type": "event"
    },
    {
      "anonymous": false,
      "inputs": [
        {
          "indexed": true,
          "internalType": "address",
          "name": "from",
          "type": "address"
        },
        {
          "indexed": true,
          "internalType": "address",
          "name": "to",
          "type": "address"
        }
      ],
      "name": "OwnershipTransferred",
      "type": "event"
    },
    {
      "anonymous": false,
      "inputs": [
        {
          "indexed": true,
          "internalType": "bytes32",
          "name": "requestId",
          "type": "bytes32"
        },
        {
          "indexed": false,
          "internalType": "uint256",
          "name": "allowance",
          "type": "uint256"
        }
      ],
      "name": "RequestFulfilled",
      "type": "event"
    },
    {
      "inputs": [],
      "name": "acceptOwnership",
      "outputs": [],
      "stateMutability": "nonpayable",
      "type": "function"
    },
    {
      "inputs": [
        {
          "internalType": "bytes32",
          "name": "_requestId",
          "type": "bytes32"
        },
        {
          "internalType": "uint256",
          "name": "_allowance",
          "type": "uint256"
        },
        {
          "internalType": "address",
          "name": "_account",
          "type": "address"
        }
      ],
      "name": "fulfill",
      "outputs": [],
      "stateMutability": "nonpayable",
      "type": "function"
    },
    {
      "inputs": [],
      "name": "owner",
      "outputs": [
        {
          "internalType": "address",
          "name": "",
          "type": "address"
        }
      ],
      "stateMutability": "view",
      "type": "function"
    },
    {
      "inputs": [
        {
          "internalType": "string",
          "name": "account",
          "type": "string"
        }
      ],
      "name": "requestKojoAllowance",
      "outputs": [],
      "stateMutability": "nonpayable",
      "type": "function"
    },
    {
      "inputs": [
        {
          "internalType": "address",
          "name": "_store",
          "type": "address"
        }
      ],
      "name": "setStorageContract",
      "outputs": [],
      "stateMutability": "nonpayable",
      "type": "function"
    },
    {
      "inputs": [],
      "name": "store",
      "outputs": [
        {
          "internalType": "contract KojoStorage",
          "name": "",
          "type": "address"
        }
      ],
      "stateMutability": "view",
      "type": "function"
    },
    {
      "inputs": [
        {
          "internalType": "address",
          "name": "to",
          "type": "address"
        }
      ],
      "name": "transferOwnership",
      "outputs": [],
      "stateMutability": "nonpayable",
      "type": "function"
    },
    {
      "inputs": [],
      "name": "withdrawLink",
      "outputs": [],
      "stateMutability": "nonpayable",
      "type": "function"
    }
  ],
  "bytecode": "0x6080604052600160045534801561001557600080fd5b50338060008161006c5760405162461bcd60e51b815260206004820152601860248201527f43616e6e6f7420736574206f776e657220746f207a65726f000000000000000060448201526064015b60405180910390fd5b600680546001600160a01b0319166001600160a01b038481169190911790915581161561009c5761009c8161011c565b5050506100c273326c977e6efc84e512bb9c30f76e30c160ed06fb6101c760201b60201c565b600380546001600160a01b03191673e1edb1c19298a1522059cf9f542d2d6faff93d081790557f3138393932323361373235623462653638613833343534643634336465623636600855662386f26fc100006009556101e9565b6001600160a01b0381163314156101755760405162461bcd60e51b815260206004820152601760248201527f43616e6e6f74207472616e7366657220746f2073656c660000000000000000006044820152606401610063565b600780546001600160a01b0319166001600160a01b03838116918217909255600654604051919216907fed8889f560326eb138920d842192f0eb3dd22b4f139c87a2c57538e05bae127890600090a350565b600280546001600160a01b0319166001600160a01b0392909216919091179055565b61117d806101f86000396000f3fe608060405234801561001057600080fd5b50600436106100885760003560e01c80638dc654a21161005b5780638dc654a2146100e6578063975057e7146100ee578063dc38b0a214610101578063f2fde38b1461011457600080fd5b80633c0d07381461008d57806379ba5097146100a257806388e26eea146100aa5780638da5cb5b146100bd575b600080fd5b6100a061009b366004610da4565b610127565b005b6100a0610291565b6100a06100b8366004610dd9565b61033f565b6006546001600160a01b03165b6040516001600160a01b03909116815260200160405180910390f35b6100a061040d565b600a546100ca906001600160a01b031681565b6100a061010f366004610e4b565b61056f565b6100a0610122366004610e4b565b610599565b60008381526005602052604090205483906001600160a01b031633146101a55760405162461bcd60e51b815260206004820152602860248201527f536f75726365206d75737420626520746865206f7261636c65206f6620746865604482015267081c995c5d595cdd60c21b60648201526084015b60405180910390fd5b60008181526005602052604080822080546001600160a01b03191690555182917f7cc135e0cebb02c3480ae5d74d377283180a2601f8f644edf7987b009316c63a91a2837f1ca8663227a7fe9919713a01d344afbb434e234f35a3e540a6ad924f88771f388460405161021a91815260200190565b60405180910390a2600a54604051600162ac053960e01b03198152600481018590526001600160a01b0384811660248301529091169063ff53fac790604401600060405180830381600087803b15801561027357600080fd5b505af1158015610287573d6000803e3d6000fd5b5050505050505050565b6007546001600160a01b031633146102e45760405162461bcd60e51b815260206004820152601660248201527526bab9ba10313290383937b837b9b2b21037bbb732b960511b604482015260640161019c565b600680546001600160a01b0319808216339081179093556007805490911690556040516001600160a01b03909116919082907f8be0079c531659141344cd1fd0a4f28419497f9722a3daafe3b4186f6b6457e090600090a350565b6103476105aa565b600061035d60085430633c0d073860e01b6105ff565b90506103a96040518060400160405280600381526020016219d95d60ea1b8152508484604051602001610391929190610e66565b60408051601f19818403018152919052839190610624565b6103fb604051806040016040528060048152602001630e0c2e8d60e31b81525060405180604001604052806009815260200168616c6c6f77616e636560b81b815250836106249092919063ffffffff16565b61040781600954610647565b50505050565b6104156105aa565b60006104296002546001600160a01b031690565b6040516370a0823160e01b81523060048201529091506001600160a01b0382169063a9059cbb90339083906370a082319060240160206040518083038186803b15801561047557600080fd5b505afa158015610489573d6000803e3d6000fd5b505050506040513d601f19601f820116820180604052508101906104ad9190610eb3565b6040516001600160e01b031960e085901b1681526001600160a01b0390921660048301526024820152604401602060405180830381600087803b1580156104f357600080fd5b505af1158015610507573d6000803e3d6000fd5b505050506040513d601f19601f8201168201806040525081019061052b9190610ecc565b61056c5760405162461bcd60e51b81526020600482015260126024820152712ab730b13632903a37903a3930b739b332b960711b604482015260640161019c565b50565b6105776105aa565b600a80546001600160a01b0319166001600160a01b0392909216919091179055565b6105a16105aa565b61056c8161066a565b6006546001600160a01b031633146105fd5760405162461bcd60e51b815260206004820152601660248201527527b7363c9031b0b63630b1363290313c9037bbb732b960511b604482015260640161019c565b565b610607610d4d565b61060f610d4d565b61061b81868686610715565b95945050505050565b6080830151610633908361075b565b6080830151610642908261075b565b505050565b600354600090610661906001600160a01b03168484610772565b90505b92915050565b6001600160a01b0381163314156106c35760405162461bcd60e51b815260206004820152601760248201527f43616e6e6f74207472616e7366657220746f2073656c66000000000000000000604482015260640161019c565b600780546001600160a01b0319166001600160a01b03838116918217909255600654604051919216907fed8889f560326eb138920d842192f0eb3dd22b4f139c87a2c57538e05bae127890600090a350565b61071d610d4d565b61072d8560800151610100610805565b50508284526001600160a01b03821660208501526001600160e01b031981166040850152835b949350505050565b610768826003835161086a565b6106428282610979565b600454600090610783816001610f0b565b600455835160408086015160808701515191516000936320214ca360e11b936107bb9386938493923092918a91600191602401610f70565b60408051601f198184030181529190526020810180516001600160e01b03166001600160e01b03199093169290921790915290506107fb868386846109a0565b9695505050505050565b604080518082019091526060815260006020820152610825602083610fd8565b1561084d57610835602083610fd8565b610840906020610ffa565b61084a9083610f0b565b91505b506020828101829052604080518085526000815290920101905290565b60178167ffffffffffffffff161161088f576104078360e0600585901b168317610b0d565b60ff8167ffffffffffffffff16116108cd576108b6836018611fe0600586901b1617610b0d565b506104078367ffffffffffffffff83166001610b32565b61ffff8167ffffffffffffffff161161090c576108f5836019611fe0600586901b1617610b0d565b506104078367ffffffffffffffff83166002610b32565b63ffffffff8167ffffffffffffffff161161094d5761093683601a611fe0600586901b1617610b0d565b506104078367ffffffffffffffff83166004610b32565b61096283601b611fe0600586901b1617610b0d565b506104078367ffffffffffffffff83166008610b32565b60408051808201909152606081526000602082015261066183846000015151848551610b58565b6040516bffffffffffffffffffffffff193060601b1660208201526034810184905260009060540160408051808303601f1901815282825280516020918201206000818152600590925291812080546001600160a01b0319166001600160a01b038a1617905590925082917fb5e6e01e79f91267dc17b4e6314d5d4d03593d2ceee0fbb452b750bd70ea5af99190a2600254604051630200057560e51b81526001600160a01b0390911690634000aea090610a6390889087908790600401611011565b602060405180830381600087803b158015610a7d57600080fd5b505af1158015610a91573d6000803e3d6000fd5b505050506040513d601f19601f82011682018060405250810190610ab59190610ecc565b6107535760405162461bcd60e51b815260206004820152602360248201527f756e61626c6520746f207472616e73666572416e6443616c6c20746f206f7261604482015262636c6560e81b606482015260840161019c565b6040805180820190915260608152600060208201526106618384600001515184610c42565b604080518082019091526060815260006020820152610753848560000151518585610c9e565b6040805180820190915260608152600060208201528251821115610b7b57600080fd5b6020850151610b8a8386610f0b565b1115610bbd57610bbd85610bad87602001518786610ba89190610f0b565b610d1f565b610bb8906002611038565b610d36565b600080865180518760208301019350808887011115610bdc5787860182525b505050602084015b60208410610c1c5780518252610bfb602083610f0b565b9150610c08602082610f0b565b9050610c15602085610ffa565b9350610be4565b51815160001960208690036101000a019081169019919091161790525083949350505050565b60408051808201909152606081526000602082015283602001518310610c7757610c778485602001516002610bb89190611038565b835180516020858301018481535080851415610c94576001810182525b5093949350505050565b6040805180820190915260608152600060208201526020850151610cc28584610f0b565b1115610cd657610cd685610bad8685610f0b565b60006001610ce68461010061113b565b610cf09190610ffa565b9050855183868201018583198251161781525080518487011115610d145783860181525b509495945050505050565b600081831115610d30575081610664565b50919050565b8151610d428383610805565b506104078382610979565b6040805160a0810182526000808252602080830182905282840182905260608084018390528451808601909552845283015290608082015290565b80356001600160a01b0381168114610d9f57600080fd5b919050565b600080600060608486031215610db957600080fd5b8335925060208401359150610dd060408501610d88565b90509250925092565b60008060208385031215610dec57600080fd5b823567ffffffffffffffff80821115610e0457600080fd5b818501915085601f830112610e1857600080fd5b813581811115610e2757600080fd5b866020828501011115610e3957600080fd5b60209290920196919550909350505050565b600060208284031215610e5d57600080fd5b61066182610d88565b7f68747470733a2f2f6170692e706c61792d6b6f6a6f2e78797a2f6170692f666181526a7279732f6c61746573742f60a81b60208201528183602b83013760009101602b01908152919050565b600060208284031215610ec557600080fd5b5051919050565b600060208284031215610ede57600080fd5b81518015158114610eee57600080fd5b9392505050565b634e487b7160e01b600052601160045260246000fd5b60008219821115610f1e57610f1e610ef5565b500190565b6000815180845260005b81811015610f4957602081850181015186830182015201610f2d565b81811115610f5b576000602083870101525b50601f01601f19169290920160200192915050565b6001600160a01b0389811682526020820189905260408201889052861660608201526001600160e01b03198516608082015260a0810184905260c0810183905261010060e08201819052600090610fc983820185610f23565b9b9a5050505050505050505050565b600082610ff557634e487b7160e01b600052601260045260246000fd5b500690565b60008282101561100c5761100c610ef5565b500390565b60018060a01b038416815282602082015260606040820152600061061b6060830184610f23565b600081600019048311821515161561105257611052610ef5565b500290565b600181815b8085111561109257816000190482111561107857611078610ef5565b8085161561108557918102915b93841c939080029061105c565b509250929050565b6000826110a957506001610664565b816110b657506000610664565b81600181146110cc57600281146110d6576110f2565b6001915050610664565b60ff8411156110e7576110e7610ef5565b50506001821b610664565b5060208310610133831016604e8410600b8410161715611115575081810a610664565b61111f8383611057565b806000190482111561113357611133610ef5565b029392505050565b6000610661838361109a56fea26469706673582212205b3ffc4854a9a9e1462d3ae455373b045f5eb50c0f7649844f22806936caa74164736f6c63430008090033",
  "linkReferences": {},
  "deployedLinkReferences": {}
}