{
  "_format": "hh-sol-artifact-1",
  "contractName": "KojoAPIConsumer",
  "sourceName": "contracts/utils/KojoAPIConsumer.sol",
  "abi": [
    {
      "inputs": [],
      "stateMutability": "nonpayable",
      "type": "constructor"
    },
    {
      "anonymous": false,
      "inputs": [
        {
          "indexed": true,
          "internalType": "bytes32",
          "name": "id",
          "type": "bytes32"
        }
      ],
      "name": "ChainlinkCancelled",
      "type": "event"
    },
    {
      "anonymous": false,
      "inputs": [
        {
          "indexed": true,
          "internalType": "bytes32",
          "name": "id",
          "type": "bytes32"
        }
      ],
      "name": "ChainlinkFulfilled",
      "type": "event"
    },
    {
      "anonymous": false,
      "inputs": [
        {
          "indexed": true,
          "internalType": "bytes32",
          "name": "id",
          "type": "bytes32"
        }
      ],
      "name": "ChainlinkRequested",
      "type": "event"
    },
    {
      "anonymous": false,
      "inputs": [
        {
          "indexed": true,
          "internalType": "address",
          "name": "from",
          "type": "address"
        },
        {
          "indexed": true,
          "internalType": "address",
          "name": "to",
          "type": "address"
        }
      ],
      "name": "OwnershipTransferRequested",
      "type": "event"
    },
    {
      "anonymous": false,
      "inputs": [
        {
          "indexed": true,
          "internalType": "address",
          "name": "from",
          "type": "address"
        },
        {
          "indexed": true,
          "internalType": "address",
          "name": "to",
          "type": "address"
        }
      ],
      "name": "OwnershipTransferred",
      "type": "event"
    },
    {
      "anonymous": false,
      "inputs": [
        {
          "indexed": true,
          "internalType": "bytes32",
          "name": "requestId",
          "type": "bytes32"
        },
        {
          "indexed": false,
          "internalType": "uint256",
          "name": "regionAverage",
          "type": "uint256"
        },
        {
          "indexed": false,
          "internalType": "uint256",
          "name": "usage",
          "type": "uint256"
        },
        {
          "indexed": false,
          "internalType": "uint256",
          "name": "familySize",
          "type": "uint256"
        }
      ],
      "name": "RequestFulfilled",
      "type": "event"
    },
    {
      "inputs": [],
      "name": "acceptOwnership",
      "outputs": [],
      "stateMutability": "nonpayable",
      "type": "function"
    },
    {
      "inputs": [],
      "name": "familySize",
      "outputs": [
        {
          "internalType": "uint256",
          "name": "",
          "type": "uint256"
        }
      ],
      "stateMutability": "view",
      "type": "function"
    },
    {
      "inputs": [
        {
          "internalType": "bytes32",
          "name": "_requestId",
          "type": "bytes32"
        },
        {
          "internalType": "uint256",
          "name": "_regionAverage",
          "type": "uint256"
        },
        {
          "internalType": "uint256",
          "name": "_usage",
          "type": "uint256"
        },
        {
          "internalType": "uint256",
          "name": "_familySize",
          "type": "uint256"
        }
      ],
      "name": "fulfill",
      "outputs": [],
      "stateMutability": "nonpayable",
      "type": "function"
    },
    {
      "inputs": [
        {
          "internalType": "bytes32",
          "name": "_jobId",
          "type": "bytes32"
        },
        {
          "internalType": "uint256",
          "name": "_fee",
          "type": "uint256"
        },
        {
          "internalType": "string",
          "name": "_endpoint",
          "type": "string"
        },
        {
          "internalType": "string",
          "name": "_path",
          "type": "string"
        },
        {
          "internalType": "address",
          "name": "_tokenAddress",
          "type": "address"
        },
        {
          "internalType": "address",
          "name": "_oracleAddress",
          "type": "address"
        }
      ],
      "name": "handleConfigureAPI",
      "outputs": [],
      "stateMutability": "nonpayable",
      "type": "function"
    },
    {
      "inputs": [],
      "name": "owner",
      "outputs": [
        {
          "internalType": "address",
          "name": "",
          "type": "address"
        }
      ],
      "stateMutability": "view",
      "type": "function"
    },
    {
      "inputs": [],
      "name": "regionAverage",
      "outputs": [
        {
          "internalType": "uint256",
          "name": "",
          "type": "uint256"
        }
      ],
      "stateMutability": "view",
      "type": "function"
    },
    {
      "inputs": [
        {
          "internalType": "address",
          "name": "account",
          "type": "address"
        }
      ],
      "name": "requestKojoAllowance",
      "outputs": [],
      "stateMutability": "nonpayable",
      "type": "function"
    },
    {
      "inputs": [
        {
          "internalType": "address",
          "name": "a",
          "type": "address"
        }
      ],
      "name": "toBytes",
      "outputs": [
        {
          "internalType": "bytes",
          "name": "b",
          "type": "bytes"
        }
      ],
      "stateMutability": "pure",
      "type": "function"
    },
    {
      "inputs": [
        {
          "internalType": "address",
          "name": "to",
          "type": "address"
        }
      ],
      "name": "transferOwnership",
      "outputs": [],
      "stateMutability": "nonpayable",
      "type": "function"
    },
    {
      "inputs": [],
      "name": "usage",
      "outputs": [
        {
          "internalType": "uint256",
          "name": "",
          "type": "uint256"
        }
      ],
      "stateMutability": "view",
      "type": "function"
    },
    {
      "inputs": [],
      "name": "withdrawLink",
      "outputs": [],
      "stateMutability": "nonpayable",
      "type": "function"
    }
  ],
  "bytecode": "0x6080604052600160045534801561001557600080fd5b50338060008161006c5760405162461bcd60e51b815260206004820152601860248201527f43616e6e6f7420736574206f776e657220746f207a65726f000000000000000060448201526064015b60405180910390fd5b600680546001600160a01b0319166001600160a01b038481169190911790915581161561009c5761009c8161011c565b5050506100c273326c977e6efc84e512bb9c30f76e30c160ed06fb6101c760201b60201c565b600380546001600160a01b03191673c8d925525ca8759812d0c299b90247917d4d4b7c1790557f6134666639383339376461333435363539363863663737356132393339343063600f55662386f26fc100006010556101e9565b6001600160a01b0381163314156101755760405162461bcd60e51b815260206004820152601760248201527f43616e6e6f74207472616e7366657220746f2073656c660000000000000000006044820152606401610063565b600780546001600160a01b0319166001600160a01b03838116918217909255600654604051919216907fed8889f560326eb138920d842192f0eb3dd22b4f139c87a2c57538e05bae127890600090a350565b600280546001600160a01b0319166001600160a01b0392909216919091179055565b61145c806101f86000396000f3fe608060405234801561001057600080fd5b50600436106100a95760003560e01c80638da5cb5b116100715780638da5cb5b1461013d5780638dc654a214610158578063c133ae9814610160578063c5cad3a114610169578063d83d170c1461017c578063f2fde38b1461018557600080fd5b806337db7fae146100ae578063593b79fe146100c35780636d811e711461010b578063709770b71461012257806379ba509714610135575b600080fd5b6100c16100bc366004610f90565b610198565b005b6100f56100d1366004610fde565b604080516001600160a01b0392909216600560a21b18601483015260348201905290565b6040516101029190611051565b60405180910390f35b61011460095481565b604051908152602001610102565b6100c1610130366004610fde565b6102ac565b6100c1610498565b6006546040516001600160a01b039091168152602001610102565b6100c1610546565b61011460085481565b6100c16101773660046110ad565b6106a8565b610114600a5481565b6100c1610193366004610fde565b610708565b60008481526005602052604090205484906001600160a01b031633146102165760405162461bcd60e51b815260206004820152602860248201527f536f75726365206d75737420626520746865206f7261636c65206f6620746865604482015267081c995c5d595cdd60c21b60648201526084015b60405180910390fd5b60008181526005602052604080822080546001600160a01b03191690555182917f7cc135e0cebb02c3480ae5d74d377283180a2601f8f644edf7987b009316c63a91a2604080518581526020810185905290810183905285907f1ed77f15bedb9f2e18446e63e8c9f73d9c3bb15fb83afc3c4ee9842050c6377e9060600160405180910390a250600892909255600955600a5550565b6102b4610719565b60006102ca600f54306337db7fae60e01b61076e565b604080516001600160a01b038516600560a21b1860148201526074810182526003603482019081526219d95d60ea1b605483015291519293509161032f9190610317908490602001611151565b60408051601f19818403018152919052849190610793565b610385604051806040016040528060048152602001630e0c2e8d60e31b8152506040518060400160405280600d81526020016c726567696f6e4176657261676560981b815250846107939092919063ffffffff16565b6103b56040518060400160405280600381526020016219d95d60ea1b815250826040516020016103179190611151565b610403604051806040016040528060048152602001630e0c2e8d60e31b81525060405180604001604052806005815260200164757361676560d81b815250846107939092919063ffffffff16565b6104336040518060400160405280600381526020016219d95d60ea1b815250826040516020016103179190611151565b610486604051806040016040528060048152602001630e0c2e8d60e31b8152506040518060400160405280600a81526020016966616d696c7953697a6560b01b815250846107939092919063ffffffff16565b610492826010546107b6565b50505050565b6007546001600160a01b031633146104eb5760405162461bcd60e51b815260206004820152601660248201527526bab9ba10313290383937b837b9b2b21037bbb732b960511b604482015260640161020d565b600680546001600160a01b0319808216339081179093556007805490911690556040516001600160a01b03909116919082907f8be0079c531659141344cd1fd0a4f28419497f9722a3daafe3b4186f6b6457e090600090a350565b61054e610719565b60006105626002546001600160a01b031690565b6040516370a0823160e01b81523060048201529091506001600160a01b0382169063a9059cbb90339083906370a082319060240160206040518083038186803b1580156105ae57600080fd5b505afa1580156105c2573d6000803e3d6000fd5b505050506040513d601f19601f820116820180604052508101906105e691906111aa565b6040516001600160e01b031960e085901b1681526001600160a01b0390921660048301526024820152604401602060405180830381600087803b15801561062c57600080fd5b505af1158015610640573d6000803e3d6000fd5b505050506040513d601f19601f8201168201806040525081019061066491906111c3565b6106a55760405162461bcd60e51b81526020600482015260126024820152712ab730b13632903a37903a3930b739b332b960711b604482015260640161020d565b50565b6106b0610719565b600f88905560108790556106c6600b8787610ebc565b506106d3600c8585610ebc565b50600d80546001600160a01b039384166001600160a01b031991821617909155600e8054929093169116179055505050505050565b610710610719565b6106a5816107d9565b6006546001600160a01b0316331461076c5760405162461bcd60e51b815260206004820152601660248201527527b7363c9031b0b63630b1363290313c9037bbb732b960511b604482015260640161020d565b565b610776610f40565b61077e610f40565b61078a81868686610884565b95945050505050565b60808301516107a290836108ca565b60808301516107b190826108ca565b505050565b6003546000906107d0906001600160a01b031684846108e1565b90505b92915050565b6001600160a01b0381163314156108325760405162461bcd60e51b815260206004820152601760248201527f43616e6e6f74207472616e7366657220746f2073656c66000000000000000000604482015260640161020d565b600780546001600160a01b0319166001600160a01b03838116918217909255600654604051919216907fed8889f560326eb138920d842192f0eb3dd22b4f139c87a2c57538e05bae127890600090a350565b61088c610f40565b61089c8560800151610100610974565b50508284526001600160a01b03821660208501526001600160e01b031981166040850152835b949350505050565b6108d782600383516109d9565b6107b18282610ae8565b6004546000906108f2816001611202565b600455835160408086015160808701515191516000936320214ca360e11b9361092a9386938493923092918a9160019160240161121a565b60408051601f198184030181529190526020810180516001600160e01b03166001600160e01b031990931692909217909152905061096a86838684610b0f565b9695505050505050565b604080518082019091526060815260006020820152610994602083611282565b156109bc576109a4602083611282565b6109af9060206112a4565b6109b99083611202565b91505b506020828101829052604080518085526000815290920101905290565b60178167ffffffffffffffff16116109fe576104928360e0600585901b168317610c7c565b60ff8167ffffffffffffffff1611610a3c57610a25836018611fe0600586901b1617610c7c565b506104928367ffffffffffffffff83166001610ca1565b61ffff8167ffffffffffffffff1611610a7b57610a64836019611fe0600586901b1617610c7c565b506104928367ffffffffffffffff83166002610ca1565b63ffffffff8167ffffffffffffffff1611610abc57610aa583601a611fe0600586901b1617610c7c565b506104928367ffffffffffffffff83166004610ca1565b610ad183601b611fe0600586901b1617610c7c565b506104928367ffffffffffffffff83166008610ca1565b6040805180820190915260608152600060208201526107d083846000015151848551610cc7565b6040516bffffffffffffffffffffffff193060601b1660208201526034810184905260009060540160408051808303601f1901815282825280516020918201206000818152600590925291812080546001600160a01b0319166001600160a01b038a1617905590925082917fb5e6e01e79f91267dc17b4e6314d5d4d03593d2ceee0fbb452b750bd70ea5af99190a2600254604051630200057560e51b81526001600160a01b0390911690634000aea090610bd2908890879087906004016112bb565b602060405180830381600087803b158015610bec57600080fd5b505af1158015610c00573d6000803e3d6000fd5b505050506040513d601f19601f82011682018060405250810190610c2491906111c3565b6108c25760405162461bcd60e51b815260206004820152602360248201527f756e61626c6520746f207472616e73666572416e6443616c6c20746f206f7261604482015262636c6560e81b606482015260840161020d565b6040805180820190915260608152600060208201526107d08384600001515184610db1565b6040805180820190915260608152600060208201526108c2848560000151518585610e0d565b6040805180820190915260608152600060208201528251821115610cea57600080fd5b6020850151610cf98386611202565b1115610d2c57610d2c85610d1c87602001518786610d179190611202565b610e8e565b610d279060026112e2565b610ea5565b600080865180518760208301019350808887011115610d4b5787860182525b505050602084015b60208410610d8b5780518252610d6a602083611202565b9150610d77602082611202565b9050610d846020856112a4565b9350610d53565b51815160001960208690036101000a019081169019919091161790525083949350505050565b60408051808201909152606081526000602082015283602001518310610de657610de68485602001516002610d2791906112e2565b835180516020858301018481535080851415610e03576001810182525b5093949350505050565b6040805180820190915260608152600060208201526020850151610e318584611202565b1115610e4557610e4585610d1c8685611202565b60006001610e55846101006113e5565b610e5f91906112a4565b9050855183868201018583198251161781525080518487011115610e835783860181525b509495945050505050565b600081831115610e9f5750816107d3565b50919050565b8151610eb18383610974565b506104928382610ae8565b828054610ec8906113f1565b90600052602060002090601f016020900481019282610eea5760008555610f30565b82601f10610f035782800160ff19823516178555610f30565b82800160010185558215610f30579182015b82811115610f30578235825591602001919060010190610f15565b50610f3c929150610f7b565b5090565b6040805160a0810182526000808252602080830182905282840182905260608084018390528451808601909552845283015290608082015290565b5b80821115610f3c5760008155600101610f7c565b60008060008060808587031215610fa657600080fd5b5050823594602084013594506040840135936060013592509050565b80356001600160a01b0381168114610fd957600080fd5b919050565b600060208284031215610ff057600080fd5b6107d082610fc2565b60005b83811015611014578181015183820152602001610ffc565b838111156104925750506000910152565b6000815180845261103d816020860160208601610ff9565b601f01601f19169290920160200192915050565b6020815260006107d06020830184611025565b60008083601f84011261107657600080fd5b50813567ffffffffffffffff81111561108e57600080fd5b6020830191508360208285010111156110a657600080fd5b9250929050565b60008060008060008060008060c0898b0312156110c957600080fd5b8835975060208901359650604089013567ffffffffffffffff808211156110ef57600080fd5b6110fb8c838d01611064565b909850965060608b013591508082111561111457600080fd5b506111218b828c01611064565b9095509350611134905060808a01610fc2565b915061114260a08a01610fc2565b90509295985092959890939650565b7f68747470733a2f2f6170692e706c61792d6b6f6a6f2e78797a2f6170692f666181526a7279732f6c61746573742f60a81b60208201526000825161119d81602b850160208701610ff9565b91909101602b0192915050565b6000602082840312156111bc57600080fd5b5051919050565b6000602082840312156111d557600080fd5b815180151581146111e557600080fd5b9392505050565b634e487b7160e01b600052601160045260246000fd5b60008219821115611215576112156111ec565b500190565b6001600160a01b0389811682526020820189905260408201889052861660608201526001600160e01b03198516608082015260a0810184905260c0810183905261010060e0820181905260009061127383820185611025565b9b9a5050505050505050505050565b60008261129f57634e487b7160e01b600052601260045260246000fd5b500690565b6000828210156112b6576112b66111ec565b500390565b60018060a01b038416815282602082015260606040820152600061078a6060830184611025565b60008160001904831182151516156112fc576112fc6111ec565b500290565b600181815b8085111561133c578160001904821115611322576113226111ec565b8085161561132f57918102915b93841c9390800290611306565b509250929050565b600082611353575060016107d3565b81611360575060006107d3565b816001811461137657600281146113805761139c565b60019150506107d3565b60ff841115611391576113916111ec565b50506001821b6107d3565b5060208310610133831016604e8410600b84101617156113bf575081810a6107d3565b6113c98383611301565b80600019048211156113dd576113dd6111ec565b029392505050565b60006107d08383611344565b600181811c9082168061140557607f821691505b60208210811415610e9f57634e487b7160e01b600052602260045260246000fdfea26469706673582212204f3aecf7b4709274bd64284d82d32d26fddbe657fdc8a7cb1325d4ba1b248c7464736f6c63430008090033",
  "linkReferences": {},
  "deployedLinkReferences": {}
}