{
  "_format": "hh-sol-artifact-1",
  "contractName": "KojoAPIConsumer",
  "sourceName": "contracts/utils/KojoAPIConsumer.sol",
  "abi": [
    {
      "inputs": [],
      "stateMutability": "nonpayable",
      "type": "constructor"
    },
    {
      "anonymous": false,
      "inputs": [
        {
          "indexed": true,
          "internalType": "bytes32",
          "name": "id",
          "type": "bytes32"
        }
      ],
      "name": "ChainlinkCancelled",
      "type": "event"
    },
    {
      "anonymous": false,
      "inputs": [
        {
          "indexed": true,
          "internalType": "bytes32",
          "name": "id",
          "type": "bytes32"
        }
      ],
      "name": "ChainlinkFulfilled",
      "type": "event"
    },
    {
      "anonymous": false,
      "inputs": [
        {
          "indexed": true,
          "internalType": "bytes32",
          "name": "id",
          "type": "bytes32"
        }
      ],
      "name": "ChainlinkRequested",
      "type": "event"
    },
    {
      "anonymous": false,
      "inputs": [
        {
          "indexed": true,
          "internalType": "address",
          "name": "from",
          "type": "address"
        },
        {
          "indexed": true,
          "internalType": "address",
          "name": "to",
          "type": "address"
        }
      ],
      "name": "OwnershipTransferRequested",
      "type": "event"
    },
    {
      "anonymous": false,
      "inputs": [
        {
          "indexed": true,
          "internalType": "address",
          "name": "from",
          "type": "address"
        },
        {
          "indexed": true,
          "internalType": "address",
          "name": "to",
          "type": "address"
        }
      ],
      "name": "OwnershipTransferred",
      "type": "event"
    },
    {
      "anonymous": false,
      "inputs": [
        {
          "indexed": true,
          "internalType": "bytes32",
          "name": "requestId",
          "type": "bytes32"
        },
        {
          "indexed": false,
          "internalType": "uint256",
          "name": "regionAverage",
          "type": "uint256"
        },
        {
          "indexed": false,
          "internalType": "uint256",
          "name": "usage",
          "type": "uint256"
        },
        {
          "indexed": false,
          "internalType": "uint256",
          "name": "familySize",
          "type": "uint256"
        }
      ],
      "name": "RequestFulfilled",
      "type": "event"
    },
    {
      "inputs": [],
      "name": "acceptOwnership",
      "outputs": [],
      "stateMutability": "nonpayable",
      "type": "function"
    },
    {
      "inputs": [],
      "name": "familySize",
      "outputs": [
        {
          "internalType": "uint256",
          "name": "",
          "type": "uint256"
        }
      ],
      "stateMutability": "view",
      "type": "function"
    },
    {
      "inputs": [
        {
          "internalType": "bytes32",
          "name": "_requestId",
          "type": "bytes32"
        },
        {
          "internalType": "uint256",
          "name": "_regionAverage",
          "type": "uint256"
        },
        {
          "internalType": "uint256",
          "name": "_usage",
          "type": "uint256"
        },
        {
          "internalType": "uint256",
          "name": "_familySize",
          "type": "uint256"
        }
      ],
      "name": "fulfill",
      "outputs": [],
      "stateMutability": "nonpayable",
      "type": "function"
    },
    {
      "inputs": [
        {
          "internalType": "bytes32",
          "name": "_jobId",
          "type": "bytes32"
        },
        {
          "internalType": "uint256",
          "name": "_fee",
          "type": "uint256"
        },
        {
          "internalType": "string",
          "name": "_endpoint",
          "type": "string"
        },
        {
          "internalType": "string",
          "name": "_path",
          "type": "string"
        },
        {
          "internalType": "address",
          "name": "_tokenAddress",
          "type": "address"
        },
        {
          "internalType": "address",
          "name": "_oracleAddress",
          "type": "address"
        }
      ],
      "name": "handleConfigureAPI",
      "outputs": [],
      "stateMutability": "nonpayable",
      "type": "function"
    },
    {
      "inputs": [],
      "name": "owner",
      "outputs": [
        {
          "internalType": "address",
          "name": "",
          "type": "address"
        }
      ],
      "stateMutability": "view",
      "type": "function"
    },
    {
      "inputs": [],
      "name": "regionAverage",
      "outputs": [
        {
          "internalType": "uint256",
          "name": "",
          "type": "uint256"
        }
      ],
      "stateMutability": "view",
      "type": "function"
    },
    {
      "inputs": [
        {
          "internalType": "address",
          "name": "account",
          "type": "address"
        }
      ],
      "name": "requestKojoAllowance",
      "outputs": [],
      "stateMutability": "nonpayable",
      "type": "function"
    },
    {
      "inputs": [
        {
          "internalType": "address",
          "name": "a",
          "type": "address"
        }
      ],
      "name": "toBytes",
      "outputs": [
        {
          "internalType": "bytes",
          "name": "b",
          "type": "bytes"
        }
      ],
      "stateMutability": "pure",
      "type": "function"
    },
    {
      "inputs": [
        {
          "internalType": "address",
          "name": "to",
          "type": "address"
        }
      ],
      "name": "transferOwnership",
      "outputs": [],
      "stateMutability": "nonpayable",
      "type": "function"
    },
    {
      "inputs": [],
      "name": "usage",
      "outputs": [
        {
          "internalType": "uint256",
          "name": "",
          "type": "uint256"
        }
      ],
      "stateMutability": "view",
      "type": "function"
    },
    {
      "inputs": [],
      "name": "withdrawLink",
      "outputs": [],
      "stateMutability": "nonpayable",
      "type": "function"
    }
  ],
  "bytecode": "0x608060405260016004553480156200001657600080fd5b50338060008073ffffffffffffffffffffffffffffffffffffffff168273ffffffffffffffffffffffffffffffffffffffff1614156200008d576040517f08c379a00000000000000000000000000000000000000000000000000000000081526004016200008490620003b8565b60405180910390fd5b81600660006101000a81548173ffffffffffffffffffffffffffffffffffffffff021916908373ffffffffffffffffffffffffffffffffffffffff160217905550600073ffffffffffffffffffffffffffffffffffffffff168173ffffffffffffffffffffffffffffffffffffffff1614620001155762000114816200019d60201b60201c565b5b5050506200013d73326c977e6efc84e512bb9c30f76e30c160ed06fb620002cf60201b60201c565b6200016273c8d925525ca8759812d0c299b90247917d4d4b7c6200031360201b60201c565b7f6134666639383339376461333435363539363863663737356132393339343063600f81905550662386f26fc100006010819055506200044c565b3373ffffffffffffffffffffffffffffffffffffffff168173ffffffffffffffffffffffffffffffffffffffff1614156200020f576040517f08c379a000000000000000000000000000000000000000000000000000000000815260040162000206906200042a565b60405180910390fd5b80600760006101000a81548173ffffffffffffffffffffffffffffffffffffffff021916908373ffffffffffffffffffffffffffffffffffffffff1602179055508073ffffffffffffffffffffffffffffffffffffffff16600660009054906101000a900473ffffffffffffffffffffffffffffffffffffffff1673ffffffffffffffffffffffffffffffffffffffff167fed8889f560326eb138920d842192f0eb3dd22b4f139c87a2c57538e05bae127860405160405180910390a350565b80600260006101000a81548173ffffffffffffffffffffffffffffffffffffffff021916908373ffffffffffffffffffffffffffffffffffffffff16021790555050565b80600360006101000a81548173ffffffffffffffffffffffffffffffffffffffff021916908373ffffffffffffffffffffffffffffffffffffffff16021790555050565b600082825260208201905092915050565b7f43616e6e6f7420736574206f776e657220746f207a65726f0000000000000000600082015250565b6000620003a060188362000357565b9150620003ad8262000368565b602082019050919050565b60006020820190508181036000830152620003d38162000391565b9050919050565b7f43616e6e6f74207472616e7366657220746f2073656c66000000000000000000600082015250565b60006200041260178362000357565b91506200041f82620003da565b602082019050919050565b60006020820190508181036000830152620004458162000403565b9050919050565b6123ce806200045c6000396000f3fe608060405234801561001057600080fd5b50600436106100a95760003560e01c80638da5cb5b116100715780638da5cb5b1461013e5780638dc654a21461015c578063c133ae9814610166578063c5cad3a114610184578063d83d170c146101a0578063f2fde38b146101be576100a9565b806337db7fae146100ae578063593b79fe146100ca5780636d811e71146100fa578063709770b71461011857806379ba509714610134575b600080fd5b6100c860048036038101906100c39190611663565b6101da565b005b6100e460048036038101906100df9190611728565b610337565b6040516100f191906117ee565b60405180910390f35b610102610382565b60405161010f919061181f565b60405180910390f35b610132600480360381019061012d9190611728565b610388565b005b61013c61067f565b005b610146610816565b6040516101539190611849565b60405180910390f35b610164610840565b005b61016e6109ab565b60405161017b919061181f565b60405180910390f35b61019e600480360381019061019991906118c9565b6109b1565b005b6101a8610a77565b6040516101b5919061181f565b60405180910390f35b6101d860048036038101906101d39190611728565b610a7d565b005b836005600082815260200190815260200160002060009054906101000a900473ffffffffffffffffffffffffffffffffffffffff1673ffffffffffffffffffffffffffffffffffffffff163373ffffffffffffffffffffffffffffffffffffffff161461027c576040517f08c379a000000000000000000000000000000000000000000000000000000000815260040161027390611a1b565b60405180910390fd5b6005600082815260200190815260200160002060006101000a81549073ffffffffffffffffffffffffffffffffffffffff0219169055807f7cc135e0cebb02c3480ae5d74d377283180a2601f8f644edf7987b009316c63a60405160405180910390a2847f1ed77f15bedb9f2e18446e63e8c9f73d9c3bb15fb83afc3c4ee9842050c6377e85858560405161031393929190611a3b565b60405180910390a2836008819055508260098190555081600a819055505050505050565b606060405173ffffffffffffffffffffffffffffffffffffffff8316925082741400000000000000000000000000000000000000001860148201526034810160405280915050919050565b60095481565b610390610a91565b60006103a6600f54306337db7fae60e01b610b23565b905060006103b383610337565b905061041e6040518060400160405280600381526020017f6765740000000000000000000000000000000000000000000000000000000000815250826040516020016103ff9190611b20565b60405160208183030381529060405284610b549092919063ffffffff16565b61049d6040518060400160405280600481526020017f70617468000000000000000000000000000000000000000000000000000000008152506040518060400160405280600d81526020017f726567696f6e417665726167650000000000000000000000000000000000000081525084610b549092919063ffffffff16565b6105066040518060400160405280600381526020017f6765740000000000000000000000000000000000000000000000000000000000815250826040516020016104e79190611b20565b60405160208183030381529060405284610b549092919063ffffffff16565b6105856040518060400160405280600481526020017f70617468000000000000000000000000000000000000000000000000000000008152506040518060400160405280600581526020017f757361676500000000000000000000000000000000000000000000000000000081525084610b549092919063ffffffff16565b6105ee6040518060400160405280600381526020017f6765740000000000000000000000000000000000000000000000000000000000815250826040516020016105cf9190611b20565b60405160208183030381529060405284610b549092919063ffffffff16565b61066d6040518060400160405280600481526020017f70617468000000000000000000000000000000000000000000000000000000008152506040518060400160405280600a81526020017f66616d696c7953697a650000000000000000000000000000000000000000000081525084610b549092919063ffffffff16565b61067982601054610b87565b50505050565b600760009054906101000a900473ffffffffffffffffffffffffffffffffffffffff1673ffffffffffffffffffffffffffffffffffffffff163373ffffffffffffffffffffffffffffffffffffffff161461070f576040517f08c379a000000000000000000000000000000000000000000000000000000000815260040161070690611b8e565b60405180910390fd5b6000600660009054906101000a900473ffffffffffffffffffffffffffffffffffffffff16905033600660006101000a81548173ffffffffffffffffffffffffffffffffffffffff021916908373ffffffffffffffffffffffffffffffffffffffff1602179055506000600760006101000a81548173ffffffffffffffffffffffffffffffffffffffff021916908373ffffffffffffffffffffffffffffffffffffffff1602179055503373ffffffffffffffffffffffffffffffffffffffff168173ffffffffffffffffffffffffffffffffffffffff167f8be0079c531659141344cd1fd0a4f28419497f9722a3daafe3b4186f6b6457e060405160405180910390a350565b6000600660009054906101000a900473ffffffffffffffffffffffffffffffffffffffff16905090565b610848610a91565b6000610852610bbe565b90508073ffffffffffffffffffffffffffffffffffffffff1663a9059cbb338373ffffffffffffffffffffffffffffffffffffffff166370a08231306040518263ffffffff1660e01b81526004016108aa9190611849565b60206040518083038186803b1580156108c257600080fd5b505afa1580156108d6573d6000803e3d6000fd5b505050506040513d601f19601f820116820180604052508101906108fa9190611bc3565b6040518363ffffffff1660e01b8152600401610917929190611bf0565b602060405180830381600087803b15801561093157600080fd5b505af1158015610945573d6000803e3d6000fd5b505050506040513d601f19601f820116820180604052508101906109699190611c51565b6109a8576040517f08c379a000000000000000000000000000000000000000000000000000000000815260040161099f90611cca565b60405180910390fd5b50565b60085481565b6109b9610a91565b87600f81905550866010819055508585600b91906109d89291906114c3565b508383600c91906109ea9291906114c3565b5081600d60006101000a81548173ffffffffffffffffffffffffffffffffffffffff021916908373ffffffffffffffffffffffffffffffffffffffff16021790555080600e60006101000a81548173ffffffffffffffffffffffffffffffffffffffff021916908373ffffffffffffffffffffffffffffffffffffffff1602179055505050505050505050565b600a5481565b610a85610a91565b610a8e81610be8565b50565b600660009054906101000a900473ffffffffffffffffffffffffffffffffffffffff1673ffffffffffffffffffffffffffffffffffffffff163373ffffffffffffffffffffffffffffffffffffffff1614610b21576040517f08c379a0000000000000000000000000000000000000000000000000000000008152600401610b1890611d36565b60405180910390fd5b565b610b2b611549565b610b33611549565b610b4a85858584610d17909392919063ffffffff16565b9150509392505050565b610b6b828460800151610dc790919063ffffffff16565b610b82818460800151610dc790919063ffffffff16565b505050565b6000610bb6600360009054906101000a900473ffffffffffffffffffffffffffffffffffffffff168484610dec565b905092915050565b6000600260009054906101000a900473ffffffffffffffffffffffffffffffffffffffff16905090565b3373ffffffffffffffffffffffffffffffffffffffff168173ffffffffffffffffffffffffffffffffffffffff161415610c57576040517f08c379a0000000000000000000000000000000000000000000000000000000008152600401610c4e90611da2565b60405180910390fd5b80600760006101000a81548173ffffffffffffffffffffffffffffffffffffffff021916908373ffffffffffffffffffffffffffffffffffffffff1602179055508073ffffffffffffffffffffffffffffffffffffffff16600660009054906101000a900473ffffffffffffffffffffffffffffffffffffffff1673ffffffffffffffffffffffffffffffffffffffff167fed8889f560326eb138920d842192f0eb3dd22b4f139c87a2c57538e05bae127860405160405180910390a350565b610d1f611549565b610d2f8560800151610100610eb8565b508385600001818152505082856020019073ffffffffffffffffffffffffffffffffffffffff16908173ffffffffffffffffffffffffffffffffffffffff16815250508185604001907bffffffffffffffffffffffffffffffffffffffffffffffffffffffff191690817bffffffffffffffffffffffffffffffffffffffffffffffffffffffff191681525050849050949350505050565b610dd48260038351610f22565b610de781836110a790919063ffffffff16565b505050565b6000806004549050600181610e019190611df1565b6004819055506000634042994660e01b60008087600001513089604001518760018c6080015160000151604051602401610e42989796959493929190611e91565b604051602081830303815290604052907bffffffffffffffffffffffffffffffffffffffffffffffffffffffff19166020820180517bffffffffffffffffffffffffffffffffffffffffffffffffffffffff83818316178352505050509050610ead868386846110c9565b925050509392505050565b610ec06115b6565b6000602083610ecf9190611f45565b14610efb57602082610ee19190611f45565b6020610eed9190611f76565b82610ef89190611df1565b91505b81836020018181525050604051808452600081528281016020016040525082905092915050565b60178167ffffffffffffffff1611610f5957610f538160058460ff16901b60ff16178461126d90919063ffffffff16565b506110a2565b60ff8167ffffffffffffffff1611610faf57610f88601860058460ff16901b178461126d90919063ffffffff16565b50610fa98167ffffffffffffffff1660018561128d9092919063ffffffff16565b506110a1565b61ffff8167ffffffffffffffff161161100657610fdf601960058460ff16901b178461126d90919063ffffffff16565b506110008167ffffffffffffffff1660028561128d9092919063ffffffff16565b506110a0565b63ffffffff8167ffffffffffffffff161161105f57611038601a60058460ff16901b178461126d90919063ffffffff16565b506110598167ffffffffffffffff1660048561128d9092919063ffffffff16565b5061109f565b61107c601b60058460ff16901b178461126d90919063ffffffff16565b5061109d8167ffffffffffffffff1660088561128d9092919063ffffffff16565b505b5b5b5b505050565b6110af6115b6565b6110c1838460000151518485516112af565b905092915050565b600030846040516020016110de929190612063565b604051602081830303815290604052805190602001209050846005600083815260200190815260200160002060006101000a81548173ffffffffffffffffffffffffffffffffffffffff021916908373ffffffffffffffffffffffffffffffffffffffff160217905550807fb5e6e01e79f91267dc17b4e6314d5d4d03593d2ceee0fbb452b750bd70ea5af960405160405180910390a2600260009054906101000a900473ffffffffffffffffffffffffffffffffffffffff1673ffffffffffffffffffffffffffffffffffffffff16634000aea08685856040518463ffffffff1660e01b81526004016111d49392919061208f565b602060405180830381600087803b1580156111ee57600080fd5b505af1158015611202573d6000803e3d6000fd5b505050506040513d601f19601f820116820180604052508101906112269190611c51565b611265576040517f08c379a000000000000000000000000000000000000000000000000000000000815260040161125c9061213f565b60405180910390fd5b949350505050565b6112756115b6565b611285838460000151518461139e565b905092915050565b6112956115b6565b6112a68485600001515185856113f5565b90509392505050565b6112b76115b6565b82518211156112c557600080fd5b846020015182856112d69190611df1565b111561130b5761130a8560026112fb886020015188876112f69190611df1565b611483565b611305919061215f565b61149f565b5b60008086518051876020830101935080888701111561132a5787860182525b60208701925050505b60208410611371578051825260208261134c9190611df1565b915060208161135b9190611df1565b905060208461136a9190611f76565b9350611333565b60006001856020036101000a03905080198251168184511681811785525050508692505050949350505050565b6113a66115b6565b836020015183106113cc576113cb84600286602001516113c6919061215f565b61149f565b5b83518051602085830101848153818614156113e8576001820183525b5050508390509392505050565b6113fd6115b6565b8460200151848361140e9190611df1565b11156114365761143585600286856114269190611df1565b611430919061215f565b61149f565b5b600060018361010061144891906122ec565b6114529190611f76565b905085518386820101858319825116178152815185880111156114755784870182525b505085915050949350505050565b60008183111561149557829050611499565b8190505b92915050565b6000826000015190506114b28383610eb8565b506114bd83826110a7565b50505050565b8280546114cf90612366565b90600052602060002090601f0160209004810192826114f15760008555611538565b82601f1061150a57803560ff1916838001178555611538565b82800160010185558215611538579182015b8281111561153757823582559160200191906001019061151c565b5b50905061154591906115d0565b5090565b6040518060a0016040528060008019168152602001600073ffffffffffffffffffffffffffffffffffffffff16815260200160007bffffffffffffffffffffffffffffffffffffffffffffffffffffffff19168152602001600081526020016115b06115b6565b81525090565b604051806040016040528060608152602001600081525090565b5b808211156115e95760008160009055506001016115d1565b5090565b600080fd5b600080fd5b6000819050919050565b61160a816115f7565b811461161557600080fd5b50565b60008135905061162781611601565b92915050565b6000819050919050565b6116408161162d565b811461164b57600080fd5b50565b60008135905061165d81611637565b92915050565b6000806000806080858703121561167d5761167c6115ed565b5b600061168b87828801611618565b945050602061169c8782880161164e565b93505060406116ad8782880161164e565b92505060606116be8782880161164e565b91505092959194509250565b600073ffffffffffffffffffffffffffffffffffffffff82169050919050565b60006116f5826116ca565b9050919050565b611705816116ea565b811461171057600080fd5b50565b600081359050611722816116fc565b92915050565b60006020828403121561173e5761173d6115ed565b5b600061174c84828501611713565b91505092915050565b600081519050919050565b600082825260208201905092915050565b60005b8381101561178f578082015181840152602081019050611774565b8381111561179e576000848401525b50505050565b6000601f19601f8301169050919050565b60006117c082611755565b6117ca8185611760565b93506117da818560208601611771565b6117e3816117a4565b840191505092915050565b6000602082019050818103600083015261180881846117b5565b905092915050565b6118198161162d565b82525050565b60006020820190506118346000830184611810565b92915050565b611843816116ea565b82525050565b600060208201905061185e600083018461183a565b92915050565b600080fd5b600080fd5b600080fd5b60008083601f84011261188957611888611864565b5b8235905067ffffffffffffffff8111156118a6576118a5611869565b5b6020830191508360018202830111156118c2576118c161186e565b5b9250929050565b60008060008060008060008060c0898b0312156118e9576118e86115ed565b5b60006118f78b828c01611618565b98505060206119088b828c0161164e565b975050604089013567ffffffffffffffff811115611929576119286115f2565b5b6119358b828c01611873565b9650965050606089013567ffffffffffffffff811115611958576119576115f2565b5b6119648b828c01611873565b945094505060806119778b828c01611713565b92505060a06119888b828c01611713565b9150509295985092959890939650565b600082825260208201905092915050565b7f536f75726365206d75737420626520746865206f7261636c65206f662074686560008201527f2072657175657374000000000000000000000000000000000000000000000000602082015250565b6000611a05602883611998565b9150611a10826119a9565b604082019050919050565b60006020820190508181036000830152611a34816119f8565b9050919050565b6000606082019050611a506000830186611810565b611a5d6020830185611810565b611a6a6040830184611810565b949350505050565b600081905092915050565b7f68747470733a2f2f6170692e706c61792d6b6f6a6f2e78797a2f6170692f666160008201527f7279732f6c61746573742f000000000000000000000000000000000000000000602082015250565b6000611ad9602b83611a72565b9150611ae482611a7d565b602b82019050919050565b6000611afa82611755565b611b048185611a72565b9350611b14818560208601611771565b80840191505092915050565b6000611b2b82611acc565b9150611b378284611aef565b915081905092915050565b7f4d7573742062652070726f706f736564206f776e657200000000000000000000600082015250565b6000611b78601683611998565b9150611b8382611b42565b602082019050919050565b60006020820190508181036000830152611ba781611b6b565b9050919050565b600081519050611bbd81611637565b92915050565b600060208284031215611bd957611bd86115ed565b5b6000611be784828501611bae565b91505092915050565b6000604082019050611c05600083018561183a565b611c126020830184611810565b9392505050565b60008115159050919050565b611c2e81611c19565b8114611c3957600080fd5b50565b600081519050611c4b81611c25565b92915050565b600060208284031215611c6757611c666115ed565b5b6000611c7584828501611c3c565b91505092915050565b7f556e61626c6520746f207472616e736665720000000000000000000000000000600082015250565b6000611cb4601283611998565b9150611cbf82611c7e565b602082019050919050565b60006020820190508181036000830152611ce381611ca7565b9050919050565b7f4f6e6c792063616c6c61626c65206279206f776e657200000000000000000000600082015250565b6000611d20601683611998565b9150611d2b82611cea565b602082019050919050565b60006020820190508181036000830152611d4f81611d13565b9050919050565b7f43616e6e6f74207472616e7366657220746f2073656c66000000000000000000600082015250565b6000611d8c601783611998565b9150611d9782611d56565b602082019050919050565b60006020820190508181036000830152611dbb81611d7f565b9050919050565b7f4e487b7100000000000000000000000000000000000000000000000000000000600052601160045260246000fd5b6000611dfc8261162d565b9150611e078361162d565b9250827fffffffffffffffffffffffffffffffffffffffffffffffffffffffffffffffff03821115611e3c57611e3b611dc2565b5b828201905092915050565b611e50816115f7565b82525050565b60007fffffffff0000000000000000000000000000000000000000000000000000000082169050919050565b611e8b81611e56565b82525050565b600061010082019050611ea7600083018b61183a565b611eb4602083018a611810565b611ec16040830189611e47565b611ece606083018861183a565b611edb6080830187611e82565b611ee860a0830186611810565b611ef560c0830185611810565b81810360e0830152611f0781846117b5565b90509998505050505050505050565b7f4e487b7100000000000000000000000000000000000000000000000000000000600052601260045260246000fd5b6000611f508261162d565b9150611f5b8361162d565b925082611f6b57611f6a611f16565b5b828206905092915050565b6000611f818261162d565b9150611f8c8361162d565b925082821015611f9f57611f9e611dc2565b5b828203905092915050565b6000819050919050565b6000611fcf611fca611fc5846116ca565b611faa565b6116ca565b9050919050565b6000611fe182611fb4565b9050919050565b6000611ff382611fd6565b9050919050565b60008160601b9050919050565b600061201282611ffa565b9050919050565b600061202482612007565b9050919050565b61203c61203782611fe8565b612019565b82525050565b6000819050919050565b61205d6120588261162d565b612042565b82525050565b600061206f828561202b565b60148201915061207f828461204c565b6020820191508190509392505050565b60006060820190506120a4600083018661183a565b6120b16020830185611810565b81810360408301526120c381846117b5565b9050949350505050565b7f756e61626c6520746f207472616e73666572416e6443616c6c20746f206f726160008201527f636c650000000000000000000000000000000000000000000000000000000000602082015250565b6000612129602383611998565b9150612134826120cd565b604082019050919050565b600060208201905081810360008301526121588161211c565b9050919050565b600061216a8261162d565b91506121758361162d565b9250817fffffffffffffffffffffffffffffffffffffffffffffffffffffffffffffffff04831182151516156121ae576121ad611dc2565b5b828202905092915050565b60008160011c9050919050565b6000808291508390505b6001851115612210578086048111156121ec576121eb611dc2565b5b60018516156121fb5780820291505b8081029050612209856121b9565b94506121d0565b94509492505050565b60008261222957600190506122e5565b8161223757600090506122e5565b816001811461224d576002811461225757612286565b60019150506122e5565b60ff84111561226957612268611dc2565b5b8360020a9150848211156122805761227f611dc2565b5b506122e5565b5060208310610133831016604e8410600b84101617156122bb5782820a9050838111156122b6576122b5611dc2565b5b6122e5565b6122c884848460016121c6565b925090508184048111156122df576122de611dc2565b5b81810290505b9392505050565b60006122f78261162d565b91506123028361162d565b925061232f7fffffffffffffffffffffffffffffffffffffffffffffffffffffffffffffffff8484612219565b905092915050565b7f4e487b7100000000000000000000000000000000000000000000000000000000600052602260045260246000fd5b6000600282049050600182168061237e57607f821691505b6020821081141561239257612391612337565b5b5091905056fea2646970667358221220bb66dd991ede175e213c07b9b6dd3992aa7d4ef865f4dbd87ab3af4f7e24b2e264736f6c63430008090033",
  "linkReferences": {},
  "deployedLinkReferences": {}
}