{
  "_format": "hh-sol-artifact-1",
  "contractName": "KojoProxy",
  "sourceName": "contracts/proxy/KojoProxy.sol",
  "abi": [
    {
      "anonymous": false,
      "inputs": [
        {
          "indexed": false,
          "internalType": "uint8",
          "name": "version",
          "type": "uint8"
        }
      ],
      "name": "Initialized",
      "type": "event"
    },
    {
      "anonymous": false,
      "inputs": [
        {
          "indexed": true,
          "internalType": "address",
          "name": "previousOwner",
          "type": "address"
        },
        {
          "indexed": true,
          "internalType": "address",
          "name": "newOwner",
          "type": "address"
        }
      ],
      "name": "OwnershipTransferred",
      "type": "event"
    },
    {
      "anonymous": false,
      "inputs": [
        {
          "indexed": false,
          "internalType": "bool",
          "name": "result",
          "type": "bool"
        },
        {
          "indexed": false,
          "internalType": "bytes",
          "name": "data",
          "type": "bytes"
        }
      ],
      "name": "Success",
      "type": "event"
    },
    {
      "stateMutability": "payable",
      "type": "fallback"
    },
    {
      "inputs": [],
      "name": "current",
      "outputs": [
        {
          "internalType": "address",
          "name": "",
          "type": "address"
        }
      ],
      "stateMutability": "view",
      "type": "function"
    },
    {
      "inputs": [
        {
          "internalType": "address",
          "name": "_address",
          "type": "address"
        }
      ],
      "name": "handleUpdateAddress",
      "outputs": [],
      "stateMutability": "nonpayable",
      "type": "function"
    },
    {
      "inputs": [],
      "name": "owner",
      "outputs": [
        {
          "internalType": "address",
          "name": "",
          "type": "address"
        }
      ],
      "stateMutability": "view",
      "type": "function"
    },
    {
      "inputs": [],
      "name": "renounceOwnership",
      "outputs": [],
      "stateMutability": "nonpayable",
      "type": "function"
    },
    {
      "inputs": [
        {
          "internalType": "address",
          "name": "newOwner",
          "type": "address"
        }
      ],
      "name": "transferOwnership",
      "outputs": [],
      "stateMutability": "nonpayable",
      "type": "function"
    },
    {
      "stateMutability": "payable",
      "type": "receive"
    }
  ],
  "bytecode": "0x608060405234801561001057600080fd5b5061050a806100206000396000f3fe60806040526004361061005e5760003560e01c80638da5cb5b116100435780638da5cb5b1461018f5780639fa6a6e3146101c5578063f2fde38b146101e5576100b0565b8063676a96fe14610158578063715018a61461017a576100b0565b366100b05760405162461bcd60e51b815260206004820152600c60248201527f4e6f7420616c6c6f7765642e000000000000000000000000000000000000000060448201526064015b60405180910390fd5b60655460405160009182916001600160a01b03909116906100d49083903690610435565b6000604051808303816000865af19150503d8060008114610111576040519150601f19603f3d011682016040523d82523d6000602084013e610116565b606091505b50915091507fc939de2540668c9bbcd5df58c1a1a88520e87daddfe8f47a40c9584513d3dc8b828260405161014c929190610445565b60405180910390a15050005b34801561016457600080fd5b506101786101733660046104a4565b610205565b005b34801561018657600080fd5b5061017861028e565b34801561019b57600080fd5b506033546001600160a01b03165b6040516001600160a01b03909116815260200160405180910390f35b3480156101d157600080fd5b506065546101a9906001600160a01b031681565b3480156101f157600080fd5b506101786102003660046104a4565b6102f4565b6033546001600160a01b0316331461025f5760405162461bcd60e51b815260206004820181905260248201527f4f776e61626c653a2063616c6c6572206973206e6f7420746865206f776e657260448201526064016100a7565b6065805473ffffffffffffffffffffffffffffffffffffffff19166001600160a01b0392909216919091179055565b6033546001600160a01b031633146102e85760405162461bcd60e51b815260206004820181905260248201527f4f776e61626c653a2063616c6c6572206973206e6f7420746865206f776e657260448201526064016100a7565b6102f260006103d6565b565b6033546001600160a01b0316331461034e5760405162461bcd60e51b815260206004820181905260248201527f4f776e61626c653a2063616c6c6572206973206e6f7420746865206f776e657260448201526064016100a7565b6001600160a01b0381166103ca5760405162461bcd60e51b815260206004820152602660248201527f4f776e61626c653a206e6577206f776e657220697320746865207a65726f206160448201527f646472657373000000000000000000000000000000000000000000000000000060648201526084016100a7565b6103d3816103d6565b50565b603380546001600160a01b0383811673ffffffffffffffffffffffffffffffffffffffff19831681179093556040519116919082907f8be0079c531659141344cd1fd0a4f28419497f9722a3daafe3b4186f6b6457e090600090a35050565b8183823760009101908152919050565b821515815260006020604081840152835180604085015260005b8181101561047b5785810183015185820160600152820161045f565b8181111561048d576000606083870101525b50601f01601f191692909201606001949350505050565b6000602082840312156104b657600080fd5b81356001600160a01b03811681146104cd57600080fd5b939250505056fea26469706673582212201494e513ba41e05c87de5a7b935bb7b9a24fd61e260d98890dbafce724967ea064736f6c63430008090033",
  "linkReferences": {},
  "deployedLinkReferences": {}
}