{
  "_format": "hh-sol-artifact-1",
  "contractName": "KojoProxy",
  "sourceName": "contracts/proxy/KojoProxy.sol",
  "abi": [
    {
      "anonymous": false,
      "inputs": [
        {
          "indexed": false,
          "internalType": "uint8",
          "name": "version",
          "type": "uint8"
        }
      ],
      "name": "Initialized",
      "type": "event"
    },
    {
      "anonymous": false,
      "inputs": [
        {
          "indexed": true,
          "internalType": "address",
          "name": "previousOwner",
          "type": "address"
        },
        {
          "indexed": true,
          "internalType": "address",
          "name": "newOwner",
          "type": "address"
        }
      ],
      "name": "OwnershipTransferred",
      "type": "event"
    },
    {
      "anonymous": false,
      "inputs": [
        {
          "indexed": false,
          "internalType": "bool",
          "name": "result",
          "type": "bool"
        },
        {
          "indexed": false,
          "internalType": "bytes",
          "name": "data",
          "type": "bytes"
        }
      ],
      "name": "Success",
      "type": "event"
    },
    {
      "stateMutability": "payable",
      "type": "fallback"
    },
    {
      "inputs": [],
      "name": "current",
      "outputs": [
        {
          "internalType": "address",
          "name": "",
          "type": "address"
        }
      ],
      "stateMutability": "view",
      "type": "function"
    },
    {
      "inputs": [
        {
          "internalType": "address",
          "name": "_address",
          "type": "address"
        }
      ],
      "name": "handleUpdateAddress",
      "outputs": [],
      "stateMutability": "nonpayable",
      "type": "function"
    },
    {
      "inputs": [],
      "name": "owner",
      "outputs": [
        {
          "internalType": "address",
          "name": "",
          "type": "address"
        }
      ],
      "stateMutability": "view",
      "type": "function"
    },
    {
      "inputs": [],
      "name": "renounceOwnership",
      "outputs": [],
      "stateMutability": "nonpayable",
      "type": "function"
    },
    {
      "inputs": [
        {
          "internalType": "address",
          "name": "newOwner",
          "type": "address"
        }
      ],
      "name": "transferOwnership",
      "outputs": [],
      "stateMutability": "nonpayable",
      "type": "function"
    },
    {
      "stateMutability": "payable",
      "type": "receive"
    }
  ],
  "bytecode": "0x608060405234801561001057600080fd5b5061045d806100206000396000f3fe60806040526004361061004e5760003560e01c8063676a96fe14610137578063715018a6146101595780638da5cb5b1461016e5780639fa6a6e3146101a4578063f2fde38b146101c45761008f565b3661008f5760405162461bcd60e51b815260206004820152600c60248201526b2737ba1030b63637bbb2b21760a11b60448201526064015b60405180910390fd5b60655460405160009182916001600160a01b03909116906100b39083903690610353565b6000604051808303816000865af19150503d80600081146100f0576040519150601f19603f3d011682016040523d82523d6000602084013e6100f5565b606091505b50915091507fc939de2540668c9bbcd5df58c1a1a88520e87daddfe8f47a40c9584513d3dc8b828260405161012b929190610363565b60405180910390a15050005b34801561014357600080fd5b506101576101523660046103c2565b6101e4565b005b34801561016557600080fd5b50610157610230565b34801561017a57600080fd5b506033546001600160a01b03165b6040516001600160a01b03909116815260200160405180910390f35b3480156101b057600080fd5b50606554610188906001600160a01b031681565b3480156101d057600080fd5b506101576101df3660046103c2565b610266565b6033546001600160a01b0316331461020e5760405162461bcd60e51b8152600401610086906103f2565b606580546001600160a01b0319166001600160a01b0392909216919091179055565b6033546001600160a01b0316331461025a5760405162461bcd60e51b8152600401610086906103f2565b6102646000610301565b565b6033546001600160a01b031633146102905760405162461bcd60e51b8152600401610086906103f2565b6001600160a01b0381166102f55760405162461bcd60e51b815260206004820152602660248201527f4f776e61626c653a206e6577206f776e657220697320746865207a65726f206160448201526564647265737360d01b6064820152608401610086565b6102fe81610301565b50565b603380546001600160a01b038381166001600160a01b0319831681179093556040519116919082907f8be0079c531659141344cd1fd0a4f28419497f9722a3daafe3b4186f6b6457e090600090a35050565b8183823760009101908152919050565b821515815260006020604081840152835180604085015260005b818110156103995785810183015185820160600152820161037d565b818111156103ab576000606083870101525b50601f01601f191692909201606001949350505050565b6000602082840312156103d457600080fd5b81356001600160a01b03811681146103eb57600080fd5b9392505050565b6020808252818101527f4f776e61626c653a2063616c6c6572206973206e6f7420746865206f776e657260408201526060019056fea26469706673582212203583881bb330d8faeb90a895115e16a7726da7961a72ed6f414a1e2b4215a00d64736f6c63430008090033",
  "linkReferences": {},
  "deployedLinkReferences": {}
}