{
  "_format": "hh-sol-artifact-1",
  "contractName": "KojoProxy",
  "sourceName": "contracts/proxy/KojoProxy.sol",
  "abi": [
    {
      "anonymous": false,
      "inputs": [
        {
          "indexed": false,
          "internalType": "address",
          "name": "owner",
          "type": "address"
        }
      ],
      "name": "CreateOwner",
      "type": "event"
    },
    {
      "anonymous": false,
      "inputs": [
        {
          "indexed": false,
          "internalType": "bool",
          "name": "result",
          "type": "bool"
        },
        {
          "indexed": false,
          "internalType": "bytes",
          "name": "data",
          "type": "bytes"
        }
      ],
      "name": "Success",
      "type": "event"
    },
    {
      "anonymous": false,
      "inputs": [
        {
          "indexed": false,
          "internalType": "address",
          "name": "owner",
          "type": "address"
        }
      ],
      "name": "UpdateOwner",
      "type": "event"
    },
    {
      "stateMutability": "payable",
      "type": "fallback"
    },
    {
      "inputs": [],
      "name": "current",
      "outputs": [
        {
          "internalType": "address",
          "name": "",
          "type": "address"
        }
      ],
      "stateMutability": "view",
      "type": "function"
    },
    {
      "inputs": [
        {
          "internalType": "address",
          "name": "_address",
          "type": "address"
        }
      ],
      "name": "handleUpdateAddress",
      "outputs": [],
      "stateMutability": "nonpayable",
      "type": "function"
    },
    {
      "inputs": [
        {
          "internalType": "address",
          "name": "_owner",
          "type": "address"
        }
      ],
      "name": "handleUpdateOwner",
      "outputs": [],
      "stateMutability": "nonpayable",
      "type": "function"
    },
    {
      "inputs": [],
      "name": "owner",
      "outputs": [
        {
          "internalType": "address",
          "name": "",
          "type": "address"
        }
      ],
      "stateMutability": "view",
      "type": "function"
    },
    {
      "stateMutability": "payable",
      "type": "receive"
    }
  ],
  "bytecode": "0x608060405234801561001057600080fd5b50336000806101000a81548173ffffffffffffffffffffffffffffffffffffffff021916908373ffffffffffffffffffffffffffffffffffffffff1602179055507f5226d0ff94acd2b48c7a972e1e2fda16d35c7927b3171f5fed7f44284c7eb41560008054906101000a900473ffffffffffffffffffffffffffffffffffffffff166040516100a091906100ee565b60405180910390a1610109565b600073ffffffffffffffffffffffffffffffffffffffff82169050919050565b60006100d8826100ad565b9050919050565b6100e8816100cd565b82525050565b600060208201905061010360008301846100df565b92915050565b610735806101186000396000f3fe6080604052600436106100435760003560e01c8063676a96fe14610154578063681e331d1461017d5780638da5cb5b146101a65780639fa6a6e3146101d157610083565b36610083576040517f08c379a000000000000000000000000000000000000000000000000000000000815260040161007a9061047d565b60405180910390fd5b600080600160009054906101000a900473ffffffffffffffffffffffffffffffffffffffff1673ffffffffffffffffffffffffffffffffffffffff166000366040516100d09291906104dc565b6000604051808303816000865af19150503d806000811461010d576040519150601f19603f3d011682016040523d82523d6000602084013e610112565b606091505b50915091507fc939de2540668c9bbcd5df58c1a1a88520e87daddfe8f47a40c9584513d3dc8b82826040516101489291906105a9565b60405180910390a15050005b34801561016057600080fd5b5061017b6004803603810190610176919061063c565b6101fc565b005b34801561018957600080fd5b506101a4600480360381019061019f919061063c565b6102ce565b005b3480156101b257600080fd5b506101bb6103d6565b6040516101c89190610678565b60405180910390f35b3480156101dd57600080fd5b506101e66103fa565b6040516101f39190610678565b60405180910390f35b3373ffffffffffffffffffffffffffffffffffffffff1660008054906101000a900473ffffffffffffffffffffffffffffffffffffffff1673ffffffffffffffffffffffffffffffffffffffff161461028a576040517f08c379a0000000000000000000000000000000000000000000000000000000008152600401610281906106df565b60405180910390fd5b80600160006101000a81548173ffffffffffffffffffffffffffffffffffffffff021916908373ffffffffffffffffffffffffffffffffffffffff16021790555050565b3373ffffffffffffffffffffffffffffffffffffffff1660008054906101000a900473ffffffffffffffffffffffffffffffffffffffff1673ffffffffffffffffffffffffffffffffffffffff161461035c576040517f08c379a0000000000000000000000000000000000000000000000000000000008152600401610353906106df565b60405180910390fd5b806000806101000a81548173ffffffffffffffffffffffffffffffffffffffff021916908373ffffffffffffffffffffffffffffffffffffffff1602179055507f84022644ce39de434e8f39c4398a3628815893104188274c37205d41c2d50967816040516103cb9190610678565b60405180910390a150565b60008054906101000a900473ffffffffffffffffffffffffffffffffffffffff1681565b600160009054906101000a900473ffffffffffffffffffffffffffffffffffffffff1681565b600082825260208201905092915050565b7f4e6f7420616c6c6f7765642e0000000000000000000000000000000000000000600082015250565b6000610467600c83610420565b915061047282610431565b602082019050919050565b600060208201905081810360008301526104968161045a565b9050919050565b600081905092915050565b82818337600083830152505050565b60006104c3838561049d565b93506104d08385846104a8565b82840190509392505050565b60006104e98284866104b7565b91508190509392505050565b60008115159050919050565b61050a816104f5565b82525050565b600081519050919050565b600082825260208201905092915050565b60005b8381101561054a57808201518184015260208101905061052f565b83811115610559576000848401525b50505050565b6000601f19601f8301169050919050565b600061057b82610510565b610585818561051b565b935061059581856020860161052c565b61059e8161055f565b840191505092915050565b60006040820190506105be6000830185610501565b81810360208301526105d08184610570565b90509392505050565b600080fd5b600073ffffffffffffffffffffffffffffffffffffffff82169050919050565b6000610609826105de565b9050919050565b610619816105fe565b811461062457600080fd5b50565b60008135905061063681610610565b92915050565b600060208284031215610652576106516105d9565b5b600061066084828501610627565b91505092915050565b610672816105fe565b82525050565b600060208201905061068d6000830184610669565b92915050565b7f416374696f6e206e6f7420616c6c6f7765642e00000000000000000000000000600082015250565b60006106c9601383610420565b91506106d482610693565b602082019050919050565b600060208201905081810360008301526106f8816106bc565b905091905056fea2646970667358221220f4ead027400a01a5d8103271e433d5fd72feb3ad56985c59afb38f8cd21026bd64736f6c63430008090033",
  "linkReferences": {},
  "deployedLinkReferences": {}
}