{
  "_format": "hh-sol-artifact-1",
  "contractName": "KojoERC1155",
  "sourceName": "contracts/token/KojoERC1155.sol",
  "abi": [
    {
      "anonymous": false,
      "inputs": [
        {
          "indexed": true,
          "internalType": "address",
          "name": "account",
          "type": "address"
        },
        {
          "indexed": true,
          "internalType": "address",
          "name": "operator",
          "type": "address"
        },
        {
          "indexed": false,
          "internalType": "bool",
          "name": "approved",
          "type": "bool"
        }
      ],
      "name": "ApprovalForAll",
      "type": "event"
    },
    {
      "anonymous": false,
      "inputs": [
        {
          "indexed": false,
          "internalType": "uint8",
          "name": "version",
          "type": "uint8"
        }
      ],
      "name": "Initialized",
      "type": "event"
    },
    {
      "anonymous": false,
      "inputs": [
        {
          "indexed": true,
          "internalType": "address",
          "name": "previousOwner",
          "type": "address"
        },
        {
          "indexed": true,
          "internalType": "address",
          "name": "newOwner",
          "type": "address"
        }
      ],
      "name": "OwnershipTransferred",
      "type": "event"
    },
    {
      "anonymous": false,
      "inputs": [
        {
          "indexed": true,
          "internalType": "address",
          "name": "operator",
          "type": "address"
        },
        {
          "indexed": true,
          "internalType": "address",
          "name": "from",
          "type": "address"
        },
        {
          "indexed": true,
          "internalType": "address",
          "name": "to",
          "type": "address"
        },
        {
          "indexed": false,
          "internalType": "uint256[]",
          "name": "ids",
          "type": "uint256[]"
        },
        {
          "indexed": false,
          "internalType": "uint256[]",
          "name": "values",
          "type": "uint256[]"
        }
      ],
      "name": "TransferBatch",
      "type": "event"
    },
    {
      "anonymous": false,
      "inputs": [
        {
          "indexed": true,
          "internalType": "address",
          "name": "operator",
          "type": "address"
        },
        {
          "indexed": true,
          "internalType": "address",
          "name": "from",
          "type": "address"
        },
        {
          "indexed": true,
          "internalType": "address",
          "name": "to",
          "type": "address"
        },
        {
          "indexed": false,
          "internalType": "uint256",
          "name": "id",
          "type": "uint256"
        },
        {
          "indexed": false,
          "internalType": "uint256",
          "name": "value",
          "type": "uint256"
        }
      ],
      "name": "TransferSingle",
      "type": "event"
    },
    {
      "anonymous": false,
      "inputs": [
        {
          "indexed": false,
          "internalType": "string",
          "name": "value",
          "type": "string"
        },
        {
          "indexed": true,
          "internalType": "uint256",
          "name": "id",
          "type": "uint256"
        }
      ],
      "name": "URI",
      "type": "event"
    },
    {
      "inputs": [
        {
          "internalType": "address",
          "name": "account",
          "type": "address"
        },
        {
          "internalType": "uint256",
          "name": "id",
          "type": "uint256"
        }
      ],
      "name": "balanceOf",
      "outputs": [
        {
          "internalType": "uint256",
          "name": "",
          "type": "uint256"
        }
      ],
      "stateMutability": "view",
      "type": "function"
    },
    {
      "inputs": [
        {
          "internalType": "address[]",
          "name": "accounts",
          "type": "address[]"
        },
        {
          "internalType": "uint256[]",
          "name": "ids",
          "type": "uint256[]"
        }
      ],
      "name": "balanceOfBatch",
      "outputs": [
        {
          "internalType": "uint256[]",
          "name": "",
          "type": "uint256[]"
        }
      ],
      "stateMutability": "view",
      "type": "function"
    },
    {
      "inputs": [
        {
          "internalType": "address",
          "name": "account",
          "type": "address"
        },
        {
          "internalType": "uint256",
          "name": "id",
          "type": "uint256"
        },
        {
          "internalType": "uint256",
          "name": "value",
          "type": "uint256"
        }
      ],
      "name": "burn",
      "outputs": [],
      "stateMutability": "nonpayable",
      "type": "function"
    },
    {
      "inputs": [
        {
          "internalType": "address",
          "name": "account",
          "type": "address"
        },
        {
          "internalType": "uint256[]",
          "name": "ids",
          "type": "uint256[]"
        },
        {
          "internalType": "uint256[]",
          "name": "values",
          "type": "uint256[]"
        }
      ],
      "name": "burnBatch",
      "outputs": [],
      "stateMutability": "nonpayable",
      "type": "function"
    },
    {
      "inputs": [
        {
          "internalType": "uint256",
          "name": "id",
          "type": "uint256"
        }
      ],
      "name": "exists",
      "outputs": [
        {
          "internalType": "bool",
          "name": "",
          "type": "bool"
        }
      ],
      "stateMutability": "view",
      "type": "function"
    },
    {
      "inputs": [],
      "name": "fungibleTokenId",
      "outputs": [
        {
          "internalType": "uint256",
          "name": "",
          "type": "uint256"
        }
      ],
      "stateMutability": "view",
      "type": "function"
    },
    {
      "inputs": [],
      "name": "handleIncrementTokenCount",
      "outputs": [],
      "stateMutability": "nonpayable",
      "type": "function"
    },
    {
      "inputs": [],
      "name": "initialize",
      "outputs": [],
      "stateMutability": "nonpayable",
      "type": "function"
    },
    {
      "inputs": [
        {
          "internalType": "address",
          "name": "account",
          "type": "address"
        },
        {
          "internalType": "address",
          "name": "operator",
          "type": "address"
        }
      ],
      "name": "isApprovedForAll",
      "outputs": [
        {
          "internalType": "bool",
          "name": "",
          "type": "bool"
        }
      ],
      "stateMutability": "view",
      "type": "function"
    },
    {
      "inputs": [
        {
          "internalType": "address",
          "name": "account",
          "type": "address"
        },
        {
          "internalType": "uint256",
          "name": "id",
          "type": "uint256"
        },
        {
          "internalType": "uint256",
          "name": "amount",
          "type": "uint256"
        },
        {
          "internalType": "bytes",
          "name": "data",
          "type": "bytes"
        }
      ],
      "name": "mint",
      "outputs": [],
      "stateMutability": "nonpayable",
      "type": "function"
    },
    {
      "inputs": [
        {
          "internalType": "address",
          "name": "to",
          "type": "address"
        },
        {
          "internalType": "uint256[]",
          "name": "ids",
          "type": "uint256[]"
        },
        {
          "internalType": "uint256[]",
          "name": "amounts",
          "type": "uint256[]"
        },
        {
          "internalType": "bytes",
          "name": "data",
          "type": "bytes"
        }
      ],
      "name": "mintBatch",
      "outputs": [],
      "stateMutability": "nonpayable",
      "type": "function"
    },
    {
      "inputs": [],
      "name": "nonFungibleTokenCount",
      "outputs": [
        {
          "internalType": "uint256",
          "name": "",
          "type": "uint256"
        }
      ],
      "stateMutability": "view",
      "type": "function"
    },
    {
      "inputs": [],
      "name": "owner",
      "outputs": [
        {
          "internalType": "address",
          "name": "",
          "type": "address"
        }
      ],
      "stateMutability": "view",
      "type": "function"
    },
    {
      "inputs": [],
      "name": "renounceOwnership",
      "outputs": [],
      "stateMutability": "nonpayable",
      "type": "function"
    },
    {
      "inputs": [
        {
          "internalType": "address",
          "name": "from",
          "type": "address"
        },
        {
          "internalType": "address",
          "name": "to",
          "type": "address"
        },
        {
          "internalType": "uint256[]",
          "name": "ids",
          "type": "uint256[]"
        },
        {
          "internalType": "uint256[]",
          "name": "amounts",
          "type": "uint256[]"
        },
        {
          "internalType": "bytes",
          "name": "data",
          "type": "bytes"
        }
      ],
      "name": "safeBatchTransferFrom",
      "outputs": [],
      "stateMutability": "nonpayable",
      "type": "function"
    },
    {
      "inputs": [
        {
          "internalType": "address",
          "name": "from",
          "type": "address"
        },
        {
          "internalType": "address",
          "name": "to",
          "type": "address"
        },
        {
          "internalType": "uint256",
          "name": "id",
          "type": "uint256"
        },
        {
          "internalType": "uint256",
          "name": "amount",
          "type": "uint256"
        },
        {
          "internalType": "bytes",
          "name": "data",
          "type": "bytes"
        }
      ],
      "name": "safeTransferFrom",
      "outputs": [],
      "stateMutability": "nonpayable",
      "type": "function"
    },
    {
      "inputs": [
        {
          "internalType": "address",
          "name": "operator",
          "type": "address"
        },
        {
          "internalType": "bool",
          "name": "approved",
          "type": "bool"
        }
      ],
      "name": "setApprovalForAll",
      "outputs": [],
      "stateMutability": "nonpayable",
      "type": "function"
    },
    {
      "inputs": [
        {
          "internalType": "uint256",
          "name": "tokenId",
          "type": "uint256"
        },
        {
          "internalType": "string",
          "name": "_uri",
          "type": "string"
        }
      ],
      "name": "setTokenUri",
      "outputs": [],
      "stateMutability": "nonpayable",
      "type": "function"
    },
    {
      "inputs": [
        {
          "internalType": "string",
          "name": "newuri",
          "type": "string"
        }
      ],
      "name": "setURI",
      "outputs": [],
      "stateMutability": "nonpayable",
      "type": "function"
    },
    {
      "inputs": [
        {
          "internalType": "bytes4",
          "name": "interfaceId",
          "type": "bytes4"
        }
      ],
      "name": "supportsInterface",
      "outputs": [
        {
          "internalType": "bool",
          "name": "",
          "type": "bool"
        }
      ],
      "stateMutability": "view",
      "type": "function"
    },
    {
      "inputs": [
        {
          "internalType": "uint256",
          "name": "id",
          "type": "uint256"
        }
      ],
      "name": "totalSupply",
      "outputs": [
        {
          "internalType": "uint256",
          "name": "",
          "type": "uint256"
        }
      ],
      "stateMutability": "view",
      "type": "function"
    },
    {
      "inputs": [
        {
          "internalType": "address",
          "name": "newOwner",
          "type": "address"
        }
      ],
      "name": "transferOwnership",
      "outputs": [],
      "stateMutability": "nonpayable",
      "type": "function"
    },
    {
      "inputs": [
        {
          "internalType": "uint256",
          "name": "tokenId",
          "type": "uint256"
        }
      ],
      "name": "uri",
      "outputs": [
        {
          "internalType": "string",
          "name": "",
          "type": "string"
        }
      ],
      "stateMutability": "view",
      "type": "function"
    }
  ],
  "bytecode": "0x608060405234801561001057600080fd5b506125ca806100206000396000f3fe608060405234801561001057600080fd5b506004361061014c5760003560e01c80636b20c454116100c3578063b4daaf551161007c578063b4daaf55146102c0578063bd85b039146102ca578063e985e9c5146102ea578063f242432a14610326578063f2fde38b14610339578063f5298aca1461034c57600080fd5b80636b20c4541461025c578063715018a61461026f578063731133e9146102775780638129fc1c1461028a5780638da5cb5b14610292578063a22cb465146102ad57600080fd5b80632eb2c2d6116101155780632eb2c2d6146101e257806345e8eca8146101f55780634e1273f4146101ff5780634f558e791461021f578063541f87fc1461024157806357f7789e1461024957600080fd5b8062fdd58e1461015157806301ffc9a71461017757806302fe53051461019a5780630e89341c146101af5780631f7fdffa146101cf575b600080fd5b61016461015f36600461198a565b61035f565b6040519081526020015b60405180910390f35b61018a6101853660046119ca565b6103f8565b604051901515815260200161016e565b6101ad6101a8366004611aa3565b61044a565b005b6101c26101bd366004611adf565b610480565b60405161016e9190611b45565b6101ad6101dd366004611bec565b610523565b6101ad6101f0366004611c84565b61055f565b61016461012f5481565b61021261020d366004611d2d565b6105f6565b60405161016e9190611e32565b61018a61022d366004611adf565b600090815260fb6020526040902054151590565b6101ad61071f565b6101ad610257366004611e45565b610764565b6101ad61026a366004611e81565b6107b3565b6101ad6107f6565b6101ad610285366004611ef4565b61082c565b6101ad610862565b6097546040516001600160a01b03909116815260200161016e565b6101ad6102bb366004611f48565b61090a565b61016461012e5481565b6101646102d8366004611adf565b600090815260fb602052604090205490565b61018a6102f8366004611f84565b6001600160a01b03918216600090815260666020908152604080832093909416825291909152205460ff1690565b6101ad610334366004611fb7565b610919565b6101ad61034736600461201b565b61095e565b6101ad61035a366004612036565b6109f6565b60006001600160a01b0383166103d05760405162461bcd60e51b815260206004820152602b60248201527f455243313135353a2062616c616e636520717565727920666f7220746865207a60448201526a65726f206164647265737360a81b60648201526084015b60405180910390fd5b5060009081526065602090815260408083206001600160a01b03949094168352929052205490565b60006001600160e01b03198216636cdb3d1360e11b148061042957506001600160e01b031982166303a24d0760e21b145b8061044457506301ffc9a760e01b6001600160e01b03198316145b92915050565b6097546001600160a01b031633146104745760405162461bcd60e51b81526004016103c790612069565b61047d81610a39565b50565b600081815261012d6020526040902080546060919061049e9061209e565b80601f01602080910402602001604051908101604052809291908181526020018280546104ca9061209e565b80156105175780601f106104ec57610100808354040283529160200191610517565b820191906000526020600020905b8154815290600101906020018083116104fa57829003601f168201915b50505050509050919050565b6097546001600160a01b0316331461054d5760405162461bcd60e51b81526004016103c790612069565b61055984848484610a4c565b50505050565b6001600160a01b03851633148061057b575061057b85336102f8565b6105e25760405162461bcd60e51b815260206004820152603260248201527f455243313135353a207472616e736665722063616c6c6572206973206e6f74206044820152711bdddb995c881b9bdc88185c1c1c9bdd995960721b60648201526084016103c7565b6105ef8585858585610ba7565b5050505050565b6060815183511461065b5760405162461bcd60e51b815260206004820152602960248201527f455243313135353a206163636f756e747320616e6420696473206c656e677468604482015268040dad2e6dac2e8c6d60bb1b60648201526084016103c7565b600083516001600160401b03811115610676576106766119ee565b60405190808252806020026020018201604052801561069f578160200160208202803683370190505b50905060005b8451811015610717576106ea8582815181106106c3576106c36120d9565b60200260200101518583815181106106dd576106dd6120d9565b602002602001015161035f565b8282815181106106fc576106fc6120d9565b602090810291909101015261071081612105565b90506106a5565b509392505050565b6097546001600160a01b031633146107495760405162461bcd60e51b81526004016103c790612069565b600161012f600082825461075d9190612120565b9091555050565b6097546001600160a01b0316331461078e5760405162461bcd60e51b81526004016103c790612069565b600082815261012d6020908152604090912082516107ae928401906118da565b505050565b6001600160a01b0383163314806107cf57506107cf83336102f8565b6107eb5760405162461bcd60e51b81526004016103c790612138565b6107ae838383610d54565b6097546001600160a01b031633146108205760405162461bcd60e51b81526004016103c790612069565b61082a6000610ef3565b565b6097546001600160a01b031633146108565760405162461bcd60e51b81526004016103c790612069565b61055984848484610f45565b600061086e6001611030565b90508015610886576000805461ff0019166101001790555b61089e604051806020016040528060008152506110bd565b6108a66110ed565b6108ae61111c565b6108b661111c565b600061012e55600161012f55801561047d576000805461ff0019169055604051600181527f7f26b83ff96e1f2b6a682f133852f6798a09c465da95921460cefb38474024989060200160405180910390a150565b610915338383611143565b5050565b6001600160a01b038516331480610935575061093585336102f8565b6109515760405162461bcd60e51b81526004016103c790612138565b6105ef8585858585611224565b6097546001600160a01b031633146109885760405162461bcd60e51b81526004016103c790612069565b6001600160a01b0381166109ed5760405162461bcd60e51b815260206004820152602660248201527f4f776e61626c653a206e6577206f776e657220697320746865207a65726f206160448201526564647265737360d01b60648201526084016103c7565b61047d81610ef3565b6001600160a01b038316331480610a125750610a1283336102f8565b610a2e5760405162461bcd60e51b81526004016103c790612138565b6107ae838383611360565b80516109159060679060208401906118da565b6001600160a01b038416610a725760405162461bcd60e51b81526004016103c790612181565b8151835114610a935760405162461bcd60e51b81526004016103c7906121c2565b33610aa38160008787878761147c565b60005b8451811015610b3f57838181518110610ac157610ac16120d9565b602002602001015160656000878481518110610adf57610adf6120d9565b602002602001015181526020019081526020016000206000886001600160a01b03166001600160a01b031681526020019081526020016000206000828254610b279190612120565b90915550819050610b3781612105565b915050610aa6565b50846001600160a01b031660006001600160a01b0316826001600160a01b03167f4a39dc06d4c0dbc64b70af90fd698a233a518aa5d07e595d983b8c0526c8f7fb8787604051610b9092919061220a565b60405180910390a46105ef8160008787878761148a565b8151835114610bc85760405162461bcd60e51b81526004016103c7906121c2565b6001600160a01b038416610bee5760405162461bcd60e51b81526004016103c790612238565b33610bfd81878787878761147c565b60005b8451811015610ce6576000858281518110610c1d57610c1d6120d9565b602002602001015190506000858381518110610c3b57610c3b6120d9565b60209081029190910181015160008481526065835260408082206001600160a01b038e168352909352919091205490915081811015610c8c5760405162461bcd60e51b81526004016103c79061227d565b60008381526065602090815260408083206001600160a01b038e8116855292528083208585039055908b16825281208054849290610ccb908490612120565b9250508190555050505080610cdf90612105565b9050610c00565b50846001600160a01b0316866001600160a01b0316826001600160a01b03167f4a39dc06d4c0dbc64b70af90fd698a233a518aa5d07e595d983b8c0526c8f7fb8787604051610d3692919061220a565b60405180910390a4610d4c81878787878761148a565b505050505050565b6001600160a01b038316610d7a5760405162461bcd60e51b81526004016103c7906122c7565b8051825114610d9b5760405162461bcd60e51b81526004016103c7906121c2565b6000339050610dbe8185600086866040518060200160405280600081525061147c565b60005b8351811015610e86576000848281518110610dde57610dde6120d9565b602002602001015190506000848381518110610dfc57610dfc6120d9565b60209081029190910181015160008481526065835260408082206001600160a01b038c168352909352919091205490915081811015610e4d5760405162461bcd60e51b81526004016103c79061230a565b60009283526065602090815260408085206001600160a01b038b1686529091529092209103905580610e7e81612105565b915050610dc1565b5060006001600160a01b0316846001600160a01b0316826001600160a01b03167f4a39dc06d4c0dbc64b70af90fd698a233a518aa5d07e595d983b8c0526c8f7fb8686604051610ed792919061220a565b60405180910390a4604080516020810190915260009052610559565b609780546001600160a01b038381166001600160a01b0319831681179093556040519116919082907f8be0079c531659141344cd1fd0a4f28419497f9722a3daafe3b4186f6b6457e090600090a35050565b6001600160a01b038416610f6b5760405162461bcd60e51b81526004016103c790612181565b336000610f77856115f5565b90506000610f84856115f5565b9050610f958360008985858961147c565b60008681526065602090815260408083206001600160a01b038b16845290915281208054879290610fc7908490612120565b909155505060408051878152602081018790526001600160a01b03808a1692600092918716917fc3d58168c5ae7397731d063d5bbf3d657854427343f4c083240f7aacaa2d0f62910160405180910390a461102783600089898989611640565b50505050505050565b60008054610100900460ff1615611077578160ff1660011480156110535750303b155b61106f5760405162461bcd60e51b81526004016103c79061234e565b506000919050565b60005460ff80841691161061109e5760405162461bcd60e51b81526004016103c79061234e565b506000805460ff191660ff92909216919091179055600190565b919050565b600054610100900460ff166110e45760405162461bcd60e51b81526004016103c79061239c565b61047d8161170a565b600054610100900460ff166111145760405162461bcd60e51b81526004016103c79061239c565b61082a611731565b600054610100900460ff1661082a5760405162461bcd60e51b81526004016103c79061239c565b816001600160a01b0316836001600160a01b031614156111b75760405162461bcd60e51b815260206004820152602960248201527f455243313135353a2073657474696e6720617070726f76616c20737461747573604482015268103337b91039b2b63360b91b60648201526084016103c7565b6001600160a01b03838116600081815260666020908152604080832094871680845294825291829020805460ff191686151590811790915591519182527f17307eab39ab6107e8899845ad3d59bd9653f200f220920489ca2b5937696c31910160405180910390a3505050565b6001600160a01b03841661124a5760405162461bcd60e51b81526004016103c790612238565b336000611256856115f5565b90506000611263856115f5565b905061127383898985858961147c565b60008681526065602090815260408083206001600160a01b038c168452909152902054858110156112b65760405162461bcd60e51b81526004016103c79061227d565b60008781526065602090815260408083206001600160a01b038d8116855292528083208985039055908a168252812080548892906112f5908490612120565b909155505060408051888152602081018890526001600160a01b03808b16928c821692918816917fc3d58168c5ae7397731d063d5bbf3d657854427343f4c083240f7aacaa2d0f62910160405180910390a4611355848a8a8a8a8a611640565b505050505050505050565b6001600160a01b0383166113865760405162461bcd60e51b81526004016103c7906122c7565b336000611392846115f5565b9050600061139f846115f5565b90506113bf8387600085856040518060200160405280600081525061147c565b60008581526065602090815260408083206001600160a01b038a168452909152902054848110156114025760405162461bcd60e51b81526004016103c79061230a565b60008681526065602090815260408083206001600160a01b038b81168086529184528285208a8703905582518b81529384018a90529092908816917fc3d58168c5ae7397731d063d5bbf3d657854427343f4c083240f7aacaa2d0f62910160405180910390a4604080516020810190915260009052611027565b610d4c868686868686611761565b6001600160a01b0384163b15610d4c5760405163bc197c8160e01b81526001600160a01b0385169063bc197c81906114ce90899089908890889088906004016123e7565b602060405180830381600087803b1580156114e857600080fd5b505af1925050508015611518575060408051601f3d908101601f1916820190925261151591810190612445565b60015b6115c557611524612462565b806308c379a0141561155e575061153961247e565b806115445750611560565b8060405162461bcd60e51b81526004016103c79190611b45565b505b60405162461bcd60e51b815260206004820152603460248201527f455243313135353a207472616e7366657220746f206e6f6e20455243313135356044820152732932b1b2b4bb32b91034b6b83632b6b2b73a32b960611b60648201526084016103c7565b6001600160e01b0319811663bc197c8160e01b146110275760405162461bcd60e51b81526004016103c790612507565b6040805160018082528183019092526060916000919060208083019080368337019050509050828160008151811061162f5761162f6120d9565b602090810291909101015292915050565b6001600160a01b0384163b15610d4c5760405163f23a6e6160e01b81526001600160a01b0385169063f23a6e6190611684908990899088908890889060040161254f565b602060405180830381600087803b15801561169e57600080fd5b505af19250505080156116ce575060408051601f3d908101601f191682019092526116cb91810190612445565b60015b6116da57611524612462565b6001600160e01b0319811663f23a6e6160e01b146110275760405162461bcd60e51b81526004016103c790612507565b600054610100900460ff166104745760405162461bcd60e51b81526004016103c79061239c565b600054610100900460ff166117585760405162461bcd60e51b81526004016103c79061239c565b61082a33610ef3565b6001600160a01b0385166117e85760005b83518110156117e65782818151811061178d5761178d6120d9565b602002602001015160fb60008684815181106117ab576117ab6120d9565b6020026020010151815260200190815260200160002060008282546117d09190612120565b909155506117df905081612105565b9050611772565b505b6001600160a01b038416610d4c5760005b8351811015611027576000848281518110611816576118166120d9565b602002602001015190506000848381518110611834576118346120d9565b60200260200101519050600060fb6000848152602001908152602001600020549050818110156118b75760405162461bcd60e51b815260206004820152602860248201527f455243313135353a206275726e20616d6f756e74206578636565647320746f74604482015267616c537570706c7960c01b60648201526084016103c7565b600092835260fb6020526040909220910390556118d381612105565b90506117f9565b8280546118e69061209e565b90600052602060002090601f016020900481019282611908576000855561194e565b82601f1061192157805160ff191683800117855561194e565b8280016001018555821561194e579182015b8281111561194e578251825591602001919060010190611933565b5061195a92915061195e565b5090565b5b8082111561195a576000815560010161195f565b80356001600160a01b03811681146110b857600080fd5b6000806040838503121561199d57600080fd5b6119a683611973565b946020939093013593505050565b6001600160e01b03198116811461047d57600080fd5b6000602082840312156119dc57600080fd5b81356119e7816119b4565b9392505050565b634e487b7160e01b600052604160045260246000fd5b601f8201601f191681016001600160401b0381118282101715611a2957611a296119ee565b6040525050565b600082601f830112611a4157600080fd5b81356001600160401b03811115611a5a57611a5a6119ee565b604051611a71601f8301601f191660200182611a04565b818152846020838601011115611a8657600080fd5b816020850160208301376000918101602001919091529392505050565b600060208284031215611ab557600080fd5b81356001600160401b03811115611acb57600080fd5b611ad784828501611a30565b949350505050565b600060208284031215611af157600080fd5b5035919050565b6000815180845260005b81811015611b1e57602081850181015186830182015201611b02565b81811115611b30576000602083870101525b50601f01601f19169290920160200192915050565b6020815260006119e76020830184611af8565b60006001600160401b03821115611b7157611b716119ee565b5060051b60200190565b600082601f830112611b8c57600080fd5b81356020611b9982611b58565b604051611ba68282611a04565b83815260059390931b8501820192828101915086841115611bc657600080fd5b8286015b84811015611be15780358352918301918301611bca565b509695505050505050565b60008060008060808587031215611c0257600080fd5b611c0b85611973565b935060208501356001600160401b0380821115611c2757600080fd5b611c3388838901611b7b565b94506040870135915080821115611c4957600080fd5b611c5588838901611b7b565b93506060870135915080821115611c6b57600080fd5b50611c7887828801611a30565b91505092959194509250565b600080600080600060a08688031215611c9c57600080fd5b611ca586611973565b9450611cb360208701611973565b935060408601356001600160401b0380821115611ccf57600080fd5b611cdb89838a01611b7b565b94506060880135915080821115611cf157600080fd5b611cfd89838a01611b7b565b93506080880135915080821115611d1357600080fd5b50611d2088828901611a30565b9150509295509295909350565b60008060408385031215611d4057600080fd5b82356001600160401b0380821115611d5757600080fd5b818501915085601f830112611d6b57600080fd5b81356020611d7882611b58565b604051611d858282611a04565b83815260059390931b8501820192828101915089841115611da557600080fd5b948201945b83861015611dca57611dbb86611973565b82529482019490820190611daa565b96505086013592505080821115611de057600080fd5b50611ded85828601611b7b565b9150509250929050565b600081518084526020808501945080840160005b83811015611e2757815187529582019590820190600101611e0b565b509495945050505050565b6020815260006119e76020830184611df7565b60008060408385031215611e5857600080fd5b8235915060208301356001600160401b03811115611e7557600080fd5b611ded85828601611a30565b600080600060608486031215611e9657600080fd5b611e9f84611973565b925060208401356001600160401b0380821115611ebb57600080fd5b611ec787838801611b7b565b93506040860135915080821115611edd57600080fd5b50611eea86828701611b7b565b9150509250925092565b60008060008060808587031215611f0a57600080fd5b611f1385611973565b9350602085013592506040850135915060608501356001600160401b03811115611f3c57600080fd5b611c7887828801611a30565b60008060408385031215611f5b57600080fd5b611f6483611973565b915060208301358015158114611f7957600080fd5b809150509250929050565b60008060408385031215611f9757600080fd5b611fa083611973565b9150611fae60208401611973565b90509250929050565b600080600080600060a08688031215611fcf57600080fd5b611fd886611973565b9450611fe660208701611973565b9350604086013592506060860135915060808601356001600160401b0381111561200f57600080fd5b611d2088828901611a30565b60006020828403121561202d57600080fd5b6119e782611973565b60008060006060848603121561204b57600080fd5b61205484611973565b95602085013595506040909401359392505050565b6020808252818101527f4f776e61626c653a2063616c6c6572206973206e6f7420746865206f776e6572604082015260600190565b600181811c908216806120b257607f821691505b602082108114156120d357634e487b7160e01b600052602260045260246000fd5b50919050565b634e487b7160e01b600052603260045260246000fd5b634e487b7160e01b600052601160045260246000fd5b6000600019821415612119576121196120ef565b5060010190565b60008219821115612133576121336120ef565b500190565b60208082526029908201527f455243313135353a2063616c6c6572206973206e6f74206f776e6572206e6f7260408201526808185c1c1c9bdd995960ba1b606082015260800190565b60208082526021908201527f455243313135353a206d696e7420746f20746865207a65726f206164647265736040820152607360f81b606082015260800190565b60208082526028908201527f455243313135353a2069647320616e6420616d6f756e7473206c656e677468206040820152670dad2e6dac2e8c6d60c31b606082015260800190565b60408152600061221d6040830185611df7565b828103602084015261222f8185611df7565b95945050505050565b60208082526025908201527f455243313135353a207472616e7366657220746f20746865207a65726f206164604082015264647265737360d81b606082015260800190565b6020808252602a908201527f455243313135353a20696e73756666696369656e742062616c616e636520666f60408201526939103a3930b739b332b960b11b606082015260800190565b60208082526023908201527f455243313135353a206275726e2066726f6d20746865207a65726f206164647260408201526265737360e81b606082015260800190565b60208082526024908201527f455243313135353a206275726e20616d6f756e7420657863656564732062616c604082015263616e636560e01b606082015260800190565b6020808252602e908201527f496e697469616c697a61626c653a20636f6e747261637420697320616c72656160408201526d191e481a5b9a5d1a585b1a5e995960921b606082015260800190565b6020808252602b908201527f496e697469616c697a61626c653a20636f6e7472616374206973206e6f74206960408201526a6e697469616c697a696e6760a81b606082015260800190565b6001600160a01b0386811682528516602082015260a06040820181905260009061241390830186611df7565b82810360608401526124258186611df7565b905082810360808401526124398185611af8565b98975050505050505050565b60006020828403121561245757600080fd5b81516119e7816119b4565b600060033d111561247b5760046000803e5060005160e01c5b90565b600060443d101561248c5790565b6040516003193d81016004833e81513d6001600160401b0381602484011181841117156124bb57505050505090565b82850191508151818111156124d35750505050505090565b843d87010160208285010111156124ed5750505050505090565b6124fc60208286010187611a04565b509095945050505050565b60208082526028908201527f455243313135353a204552433131353552656365697665722072656a656374656040820152676420746f6b656e7360c01b606082015260800190565b6001600160a01b03868116825285166020820152604081018490526060810183905260a06080820181905260009061258990830184611af8565b97965050505050505056fea2646970667358221220d41623be7f0f861dc93e848ec28295b8c0761c9ce1722c7091e291ff2a1af5ec64736f6c63430008090033",
  "linkReferences": {},
  "deployedLinkReferences": {}
}