{
  "_format": "hh-sol-artifact-1",
  "contractName": "KojoERC1155",
  "sourceName": "contracts/token/KojoERC1155.sol",
  "abi": [
    {
      "inputs": [],
      "stateMutability": "nonpayable",
      "type": "constructor"
    },
    {
      "anonymous": false,
      "inputs": [
        {
          "indexed": true,
          "internalType": "address",
          "name": "account",
          "type": "address"
        },
        {
          "indexed": true,
          "internalType": "address",
          "name": "operator",
          "type": "address"
        },
        {
          "indexed": false,
          "internalType": "bool",
          "name": "approved",
          "type": "bool"
        }
      ],
      "name": "ApprovalForAll",
      "type": "event"
    },
    {
      "anonymous": false,
      "inputs": [
        {
          "indexed": false,
          "internalType": "uint8",
          "name": "version",
          "type": "uint8"
        }
      ],
      "name": "Initialized",
      "type": "event"
    },
    {
      "anonymous": false,
      "inputs": [
        {
          "indexed": true,
          "internalType": "address",
          "name": "previousOwner",
          "type": "address"
        },
        {
          "indexed": true,
          "internalType": "address",
          "name": "newOwner",
          "type": "address"
        }
      ],
      "name": "OwnershipTransferred",
      "type": "event"
    },
    {
      "anonymous": false,
      "inputs": [
        {
          "indexed": true,
          "internalType": "address",
          "name": "operator",
          "type": "address"
        },
        {
          "indexed": true,
          "internalType": "address",
          "name": "from",
          "type": "address"
        },
        {
          "indexed": true,
          "internalType": "address",
          "name": "to",
          "type": "address"
        },
        {
          "indexed": false,
          "internalType": "uint256[]",
          "name": "ids",
          "type": "uint256[]"
        },
        {
          "indexed": false,
          "internalType": "uint256[]",
          "name": "values",
          "type": "uint256[]"
        }
      ],
      "name": "TransferBatch",
      "type": "event"
    },
    {
      "anonymous": false,
      "inputs": [
        {
          "indexed": true,
          "internalType": "address",
          "name": "operator",
          "type": "address"
        },
        {
          "indexed": true,
          "internalType": "address",
          "name": "from",
          "type": "address"
        },
        {
          "indexed": true,
          "internalType": "address",
          "name": "to",
          "type": "address"
        },
        {
          "indexed": false,
          "internalType": "uint256",
          "name": "id",
          "type": "uint256"
        },
        {
          "indexed": false,
          "internalType": "uint256",
          "name": "value",
          "type": "uint256"
        }
      ],
      "name": "TransferSingle",
      "type": "event"
    },
    {
      "anonymous": false,
      "inputs": [
        {
          "indexed": false,
          "internalType": "string",
          "name": "value",
          "type": "string"
        },
        {
          "indexed": true,
          "internalType": "uint256",
          "name": "id",
          "type": "uint256"
        }
      ],
      "name": "URI",
      "type": "event"
    },
    {
      "inputs": [
        {
          "internalType": "address",
          "name": "account",
          "type": "address"
        },
        {
          "internalType": "uint256",
          "name": "id",
          "type": "uint256"
        }
      ],
      "name": "balanceOf",
      "outputs": [
        {
          "internalType": "uint256",
          "name": "",
          "type": "uint256"
        }
      ],
      "stateMutability": "view",
      "type": "function"
    },
    {
      "inputs": [
        {
          "internalType": "address[]",
          "name": "accounts",
          "type": "address[]"
        },
        {
          "internalType": "uint256[]",
          "name": "ids",
          "type": "uint256[]"
        }
      ],
      "name": "balanceOfBatch",
      "outputs": [
        {
          "internalType": "uint256[]",
          "name": "",
          "type": "uint256[]"
        }
      ],
      "stateMutability": "view",
      "type": "function"
    },
    {
      "inputs": [
        {
          "internalType": "address",
          "name": "account",
          "type": "address"
        },
        {
          "internalType": "uint256",
          "name": "id",
          "type": "uint256"
        },
        {
          "internalType": "uint256",
          "name": "value",
          "type": "uint256"
        }
      ],
      "name": "burn",
      "outputs": [],
      "stateMutability": "nonpayable",
      "type": "function"
    },
    {
      "inputs": [
        {
          "internalType": "address",
          "name": "account",
          "type": "address"
        },
        {
          "internalType": "uint256[]",
          "name": "ids",
          "type": "uint256[]"
        },
        {
          "internalType": "uint256[]",
          "name": "values",
          "type": "uint256[]"
        }
      ],
      "name": "burnBatch",
      "outputs": [],
      "stateMutability": "nonpayable",
      "type": "function"
    },
    {
      "inputs": [
        {
          "internalType": "uint256",
          "name": "id",
          "type": "uint256"
        }
      ],
      "name": "exists",
      "outputs": [
        {
          "internalType": "bool",
          "name": "",
          "type": "bool"
        }
      ],
      "stateMutability": "view",
      "type": "function"
    },
    {
      "inputs": [],
      "name": "initialize",
      "outputs": [],
      "stateMutability": "nonpayable",
      "type": "function"
    },
    {
      "inputs": [
        {
          "internalType": "address",
          "name": "account",
          "type": "address"
        },
        {
          "internalType": "address",
          "name": "operator",
          "type": "address"
        }
      ],
      "name": "isApprovedForAll",
      "outputs": [
        {
          "internalType": "bool",
          "name": "",
          "type": "bool"
        }
      ],
      "stateMutability": "view",
      "type": "function"
    },
    {
      "inputs": [
        {
          "internalType": "address",
          "name": "account",
          "type": "address"
        },
        {
          "internalType": "uint256",
          "name": "id",
          "type": "uint256"
        },
        {
          "internalType": "uint256",
          "name": "amount",
          "type": "uint256"
        },
        {
          "internalType": "bytes",
          "name": "data",
          "type": "bytes"
        }
      ],
      "name": "mint",
      "outputs": [],
      "stateMutability": "nonpayable",
      "type": "function"
    },
    {
      "inputs": [
        {
          "internalType": "address",
          "name": "to",
          "type": "address"
        },
        {
          "internalType": "uint256[]",
          "name": "ids",
          "type": "uint256[]"
        },
        {
          "internalType": "uint256[]",
          "name": "amounts",
          "type": "uint256[]"
        },
        {
          "internalType": "bytes",
          "name": "data",
          "type": "bytes"
        }
      ],
      "name": "mintBatch",
      "outputs": [],
      "stateMutability": "nonpayable",
      "type": "function"
    },
    {
      "inputs": [],
      "name": "owner",
      "outputs": [
        {
          "internalType": "address",
          "name": "",
          "type": "address"
        }
      ],
      "stateMutability": "view",
      "type": "function"
    },
    {
      "inputs": [],
      "name": "renounceOwnership",
      "outputs": [],
      "stateMutability": "nonpayable",
      "type": "function"
    },
    {
      "inputs": [
        {
          "internalType": "address",
          "name": "from",
          "type": "address"
        },
        {
          "internalType": "address",
          "name": "to",
          "type": "address"
        },
        {
          "internalType": "uint256[]",
          "name": "ids",
          "type": "uint256[]"
        },
        {
          "internalType": "uint256[]",
          "name": "amounts",
          "type": "uint256[]"
        },
        {
          "internalType": "bytes",
          "name": "data",
          "type": "bytes"
        }
      ],
      "name": "safeBatchTransferFrom",
      "outputs": [],
      "stateMutability": "nonpayable",
      "type": "function"
    },
    {
      "inputs": [
        {
          "internalType": "address",
          "name": "from",
          "type": "address"
        },
        {
          "internalType": "address",
          "name": "to",
          "type": "address"
        },
        {
          "internalType": "uint256",
          "name": "id",
          "type": "uint256"
        },
        {
          "internalType": "uint256",
          "name": "amount",
          "type": "uint256"
        },
        {
          "internalType": "bytes",
          "name": "data",
          "type": "bytes"
        }
      ],
      "name": "safeTransferFrom",
      "outputs": [],
      "stateMutability": "nonpayable",
      "type": "function"
    },
    {
      "inputs": [
        {
          "internalType": "address",
          "name": "operator",
          "type": "address"
        },
        {
          "internalType": "bool",
          "name": "approved",
          "type": "bool"
        }
      ],
      "name": "setApprovalForAll",
      "outputs": [],
      "stateMutability": "nonpayable",
      "type": "function"
    },
    {
      "inputs": [
        {
          "internalType": "string",
          "name": "newuri",
          "type": "string"
        }
      ],
      "name": "setURI",
      "outputs": [],
      "stateMutability": "nonpayable",
      "type": "function"
    },
    {
      "inputs": [
        {
          "internalType": "bytes4",
          "name": "interfaceId",
          "type": "bytes4"
        }
      ],
      "name": "supportsInterface",
      "outputs": [
        {
          "internalType": "bool",
          "name": "",
          "type": "bool"
        }
      ],
      "stateMutability": "view",
      "type": "function"
    },
    {
      "inputs": [
        {
          "internalType": "uint256",
          "name": "id",
          "type": "uint256"
        }
      ],
      "name": "totalSupply",
      "outputs": [
        {
          "internalType": "uint256",
          "name": "",
          "type": "uint256"
        }
      ],
      "stateMutability": "view",
      "type": "function"
    },
    {
      "inputs": [
        {
          "internalType": "address",
          "name": "newOwner",
          "type": "address"
        }
      ],
      "name": "transferOwnership",
      "outputs": [],
      "stateMutability": "nonpayable",
      "type": "function"
    },
    {
      "inputs": [
        {
          "internalType": "uint256",
          "name": "",
          "type": "uint256"
        }
      ],
      "name": "uri",
      "outputs": [
        {
          "internalType": "string",
          "name": "",
          "type": "string"
        }
      ],
      "stateMutability": "view",
      "type": "function"
    }
  ],
  "bytecode": "0x60806040523480156200001157600080fd5b50620000226200002860201b60201c565b6200020f565b6200003a60ff6200003d60201b60201c565b50565b60008060019054906101000a900460ff1615620000c75760018260ff161480156200007b575062000079306200014360201b62000e5d1760201c565b155b620000bd576040517f08c379a0000000000000000000000000000000000000000000000000000000008152600401620000b490620001ed565b60405180910390fd5b600090506200013e565b8160ff1660008054906101000a900460ff1660ff16106200011f576040517f08c379a00000000000000000000000000000000000000000000000000000000081526004016200011690620001ed565b60405180910390fd5b816000806101000a81548160ff021916908360ff160217905550600190505b919050565b6000808273ffffffffffffffffffffffffffffffffffffffff163b119050919050565b600082825260208201905092915050565b7f496e697469616c697a61626c653a20636f6e747261637420697320616c72656160008201527f647920696e697469616c697a6564000000000000000000000000000000000000602082015250565b6000620001d5602e8362000166565b9150620001e28262000177565b604082019050919050565b600060208201905081810360008301526200020881620001c6565b9050919050565b6144bb806200021f6000396000f3fe608060405234801561001057600080fd5b50600436106101205760003560e01c8063715018a6116100ad578063bd85b03911610071578063bd85b039146102ef578063e985e9c51461031f578063f242432a1461034f578063f2fde38b1461036b578063f5298aca1461038757610120565b8063715018a614610285578063731133e91461028f5780638129fc1c146102ab5780638da5cb5b146102b5578063a22cb465146102d357610120565b80631f7fdffa116100f45780631f7fdffa146101d15780632eb2c2d6146101ed5780634e1273f4146102095780634f558e79146102395780636b20c4541461026957610120565b8062fdd58e1461012557806301ffc9a71461015557806302fe5305146101855780630e89341c146101a1575b600080fd5b61013f600480360381019061013a9190612a8a565b6103a3565b60405161014c9190612ad9565b60405180910390f35b61016f600480360381019061016a9190612b4c565b61046d565b60405161017c9190612b94565b60405180910390f35b61019f600480360381019061019a9190612cf5565b61054f565b005b6101bb60048036038101906101b69190612d3e565b6105d7565b6040516101c89190612df3565b60405180910390f35b6101eb60048036038101906101e69190612f7e565b61066b565b005b61020760048036038101906102029190613039565b6106f9565b005b610223600480360381019061021e91906131cb565b61079a565b6040516102309190613301565b60405180910390f35b610253600480360381019061024e9190612d3e565b6108b3565b6040516102609190612b94565b60405180910390f35b610283600480360381019061027e9190613323565b6108c7565b005b61028d610964565b005b6102a960048036038101906102a491906133ae565b6109ec565b005b6102b3610a7a565b005b6102bd610b36565b6040516102ca9190613440565b60405180910390f35b6102ed60048036038101906102e89190613487565b610b60565b005b61030960048036038101906103049190612d3e565b610b76565b6040516103169190612ad9565b60405180910390f35b610339600480360381019061033491906134c7565b610b93565b6040516103469190612b94565b60405180910390f35b61036960048036038101906103649190613507565b610c27565b005b6103856004803603810190610380919061359e565b610cc8565b005b6103a1600480360381019061039c91906135cb565b610dc0565b005b60008073ffffffffffffffffffffffffffffffffffffffff168373ffffffffffffffffffffffffffffffffffffffff161415610414576040517f08c379a000000000000000000000000000000000000000000000000000000000815260040161040b90613690565b60405180910390fd5b6065600083815260200190815260200160002060008473ffffffffffffffffffffffffffffffffffffffff1673ffffffffffffffffffffffffffffffffffffffff16815260200190815260200160002054905092915050565b60007fd9b67a26000000000000000000000000000000000000000000000000000000007bffffffffffffffffffffffffffffffffffffffffffffffffffffffff1916827bffffffffffffffffffffffffffffffffffffffffffffffffffffffff1916148061053857507f0e89341c000000000000000000000000000000000000000000000000000000007bffffffffffffffffffffffffffffffffffffffffffffffffffffffff1916827bffffffffffffffffffffffffffffffffffffffffffffffffffffffff1916145b80610548575061054782610e80565b5b9050919050565b610557610eea565b73ffffffffffffffffffffffffffffffffffffffff16610575610b36565b73ffffffffffffffffffffffffffffffffffffffff16146105cb576040517f08c379a00000000000000000000000000000000000000000000000000000000081526004016105c2906136fc565b60405180910390fd5b6105d481610ef2565b50565b6060606780546105e69061374b565b80601f01602080910402602001604051908101604052809291908181526020018280546106129061374b565b801561065f5780601f106106345761010080835404028352916020019161065f565b820191906000526020600020905b81548152906001019060200180831161064257829003601f168201915b50505050509050919050565b610673610eea565b73ffffffffffffffffffffffffffffffffffffffff16610691610b36565b73ffffffffffffffffffffffffffffffffffffffff16146106e7576040517f08c379a00000000000000000000000000000000000000000000000000000000081526004016106de906136fc565b60405180910390fd5b6106f384848484610f0c565b50505050565b610701610eea565b73ffffffffffffffffffffffffffffffffffffffff168573ffffffffffffffffffffffffffffffffffffffff161480610747575061074685610741610eea565b610b93565b5b610786576040517f08c379a000000000000000000000000000000000000000000000000000000000815260040161077d906137ef565b60405180910390fd5b610793858585858561113a565b5050505050565b606081518351146107e0576040517f08c379a00000000000000000000000000000000000000000000000000000000081526004016107d790613881565b60405180910390fd5b6000835167ffffffffffffffff8111156107fd576107fc612bca565b5b60405190808252806020026020018201604052801561082b5781602001602082028036833780820191505090505b50905060005b84518110156108a8576108788582815181106108505761084f6138a1565b5b602002602001015185838151811061086b5761086a6138a1565b5b60200260200101516103a3565b82828151811061088b5761088a6138a1565b5b602002602001018181525050806108a1906138ff565b9050610831565b508091505092915050565b6000806108bf83610b76565b119050919050565b6108cf610eea565b73ffffffffffffffffffffffffffffffffffffffff168373ffffffffffffffffffffffffffffffffffffffff16148061091557506109148361090f610eea565b610b93565b5b610954576040517f08c379a000000000000000000000000000000000000000000000000000000000815260040161094b906139ba565b60405180910390fd5b61095f83838361145f565b505050565b61096c610eea565b73ffffffffffffffffffffffffffffffffffffffff1661098a610b36565b73ffffffffffffffffffffffffffffffffffffffff16146109e0576040517f08c379a00000000000000000000000000000000000000000000000000000000081526004016109d7906136fc565b60405180910390fd5b6109ea6000611730565b565b6109f4610eea565b73ffffffffffffffffffffffffffffffffffffffff16610a12610b36565b73ffffffffffffffffffffffffffffffffffffffff1614610a68576040517f08c379a0000000000000000000000000000000000000000000000000000000008152600401610a5f906136fc565b60405180910390fd5b610a74848484846117f6565b50505050565b6000610a8660016119a8565b90508015610aaa576001600060016101000a81548160ff0219169083151502179055505b610ac260405180602001604052806000815250611a98565b610aca611af3565b610ad2611b4c565b610ada611b9d565b8015610b335760008060016101000a81548160ff0219169083151502179055507f7f26b83ff96e1f2b6a682f133852f6798a09c465da95921460cefb38474024986001604051610b2a9190613a2c565b60405180910390a15b50565b6000609760009054906101000a900473ffffffffffffffffffffffffffffffffffffffff16905090565b610b72610b6b610eea565b8383611bee565b5050565b600060fb6000838152602001908152602001600020549050919050565b6000606660008473ffffffffffffffffffffffffffffffffffffffff1673ffffffffffffffffffffffffffffffffffffffff16815260200190815260200160002060008373ffffffffffffffffffffffffffffffffffffffff1673ffffffffffffffffffffffffffffffffffffffff16815260200190815260200160002060009054906101000a900460ff16905092915050565b610c2f610eea565b73ffffffffffffffffffffffffffffffffffffffff168573ffffffffffffffffffffffffffffffffffffffff161480610c755750610c7485610c6f610eea565b610b93565b5b610cb4576040517f08c379a0000000000000000000000000000000000000000000000000000000008152600401610cab906139ba565b60405180910390fd5b610cc18585858585611d5b565b5050505050565b610cd0610eea565b73ffffffffffffffffffffffffffffffffffffffff16610cee610b36565b73ffffffffffffffffffffffffffffffffffffffff1614610d44576040517f08c379a0000000000000000000000000000000000000000000000000000000008152600401610d3b906136fc565b60405180910390fd5b600073ffffffffffffffffffffffffffffffffffffffff168173ffffffffffffffffffffffffffffffffffffffff161415610db4576040517f08c379a0000000000000000000000000000000000000000000000000000000008152600401610dab90613ab9565b60405180910390fd5b610dbd81611730565b50565b610dc8610eea565b73ffffffffffffffffffffffffffffffffffffffff168373ffffffffffffffffffffffffffffffffffffffff161480610e0e5750610e0d83610e08610eea565b610b93565b5b610e4d576040517f08c379a0000000000000000000000000000000000000000000000000000000008152600401610e44906139ba565b60405180910390fd5b610e58838383611ffa565b505050565b6000808273ffffffffffffffffffffffffffffffffffffffff163b119050919050565b60007f01ffc9a7000000000000000000000000000000000000000000000000000000007bffffffffffffffffffffffffffffffffffffffffffffffffffffffff1916827bffffffffffffffffffffffffffffffffffffffffffffffffffffffff1916149050919050565b600033905090565b8060679080519060200190610f0892919061293f565b5050565b600073ffffffffffffffffffffffffffffffffffffffff168473ffffffffffffffffffffffffffffffffffffffff161415610f7c576040517f08c379a0000000000000000000000000000000000000000000000000000000008152600401610f7390613b4b565b60405180910390fd5b8151835114610fc0576040517f08c379a0000000000000000000000000000000000000000000000000000000008152600401610fb790613bdd565b60405180910390fd5b6000610fca610eea565b9050610fdb81600087878787612243565b60005b845181101561109557838181518110610ffa57610ff96138a1565b5b602002602001015160656000878481518110611019576110186138a1565b5b6020026020010151815260200190815260200160002060008873ffffffffffffffffffffffffffffffffffffffff1673ffffffffffffffffffffffffffffffffffffffff168152602001908152602001600020600082825461107b9190613bfd565b92505081905550808061108d906138ff565b915050610fde565b508473ffffffffffffffffffffffffffffffffffffffff16600073ffffffffffffffffffffffffffffffffffffffff168273ffffffffffffffffffffffffffffffffffffffff167f4a39dc06d4c0dbc64b70af90fd698a233a518aa5d07e595d983b8c0526c8f7fb878760405161110d929190613c53565b60405180910390a461112481600087878787612259565b61113381600087878787612261565b5050505050565b815183511461117e576040517f08c379a000000000000000000000000000000000000000000000000000000000815260040161117590613bdd565b60405180910390fd5b600073ffffffffffffffffffffffffffffffffffffffff168473ffffffffffffffffffffffffffffffffffffffff1614156111ee576040517f08c379a00000000000000000000000000000000000000000000000000000000081526004016111e590613cfc565b60405180910390fd5b60006111f8610eea565b9050611208818787878787612243565b60005b84518110156113bc576000858281518110611229576112286138a1565b5b602002602001015190506000858381518110611248576112476138a1565b5b6020026020010151905060006065600084815260200190815260200160002060008b73ffffffffffffffffffffffffffffffffffffffff1673ffffffffffffffffffffffffffffffffffffffff168152602001908152602001600020549050818110156112ea576040517f08c379a00000000000000000000000000000000000000000000000000000000081526004016112e190613d8e565b60405180910390fd5b8181036065600085815260200190815260200160002060008c73ffffffffffffffffffffffffffffffffffffffff1673ffffffffffffffffffffffffffffffffffffffff16815260200190815260200160002081905550816065600085815260200190815260200160002060008b73ffffffffffffffffffffffffffffffffffffffff1673ffffffffffffffffffffffffffffffffffffffff16815260200190815260200160002060008282546113a19190613bfd565b92505081905550505050806113b5906138ff565b905061120b565b508473ffffffffffffffffffffffffffffffffffffffff168673ffffffffffffffffffffffffffffffffffffffff168273ffffffffffffffffffffffffffffffffffffffff167f4a39dc06d4c0dbc64b70af90fd698a233a518aa5d07e595d983b8c0526c8f7fb8787604051611433929190613c53565b60405180910390a4611449818787878787612259565b611457818787878787612261565b505050505050565b600073ffffffffffffffffffffffffffffffffffffffff168373ffffffffffffffffffffffffffffffffffffffff1614156114cf576040517f08c379a00000000000000000000000000000000000000000000000000000000081526004016114c690613e20565b60405180910390fd5b8051825114611513576040517f08c379a000000000000000000000000000000000000000000000000000000000815260040161150a90613bdd565b60405180910390fd5b600061151d610eea565b905061153d81856000868660405180602001604052806000815250612243565b60005b835181101561168c57600084828151811061155e5761155d6138a1565b5b60200260200101519050600084838151811061157d5761157c6138a1565b5b6020026020010151905060006065600084815260200190815260200160002060008973ffffffffffffffffffffffffffffffffffffffff1673ffffffffffffffffffffffffffffffffffffffff1681526020019081526020016000205490508181101561161f576040517f08c379a000000000000000000000000000000000000000000000000000000000815260040161161690613eb2565b60405180910390fd5b8181036065600085815260200190815260200160002060008a73ffffffffffffffffffffffffffffffffffffffff1673ffffffffffffffffffffffffffffffffffffffff168152602001908152602001600020819055505050508080611684906138ff565b915050611540565b50600073ffffffffffffffffffffffffffffffffffffffff168473ffffffffffffffffffffffffffffffffffffffff168273ffffffffffffffffffffffffffffffffffffffff167f4a39dc06d4c0dbc64b70af90fd698a233a518aa5d07e595d983b8c0526c8f7fb8686604051611704929190613c53565b60405180910390a461172a81856000868660405180602001604052806000815250612259565b50505050565b6000609760009054906101000a900473ffffffffffffffffffffffffffffffffffffffff16905081609760006101000a81548173ffffffffffffffffffffffffffffffffffffffff021916908373ffffffffffffffffffffffffffffffffffffffff1602179055508173ffffffffffffffffffffffffffffffffffffffff168173ffffffffffffffffffffffffffffffffffffffff167f8be0079c531659141344cd1fd0a4f28419497f9722a3daafe3b4186f6b6457e060405160405180910390a35050565b600073ffffffffffffffffffffffffffffffffffffffff168473ffffffffffffffffffffffffffffffffffffffff161415611866576040517f08c379a000000000000000000000000000000000000000000000000000000000815260040161185d90613b4b565b60405180910390fd5b6000611870610eea565b9050600061187d85612448565b9050600061188a85612448565b905061189b83600089858589612243565b846065600088815260200190815260200160002060008973ffffffffffffffffffffffffffffffffffffffff1673ffffffffffffffffffffffffffffffffffffffff16815260200190815260200160002060008282546118fb9190613bfd565b925050819055508673ffffffffffffffffffffffffffffffffffffffff16600073ffffffffffffffffffffffffffffffffffffffff168473ffffffffffffffffffffffffffffffffffffffff167fc3d58168c5ae7397731d063d5bbf3d657854427343f4c083240f7aacaa2d0f628989604051611979929190613ed2565b60405180910390a461199083600089858589612259565b61199f836000898989896124c2565b50505050505050565b60008060019054906101000a900460ff1615611a1f5760018260ff161480156119d757506119d530610e5d565b155b611a16576040517f08c379a0000000000000000000000000000000000000000000000000000000008152600401611a0d90613f6d565b60405180910390fd5b60009050611a93565b8160ff1660008054906101000a900460ff1660ff1610611a74576040517f08c379a0000000000000000000000000000000000000000000000000000000008152600401611a6b90613f6d565b60405180910390fd5b816000806101000a81548160ff021916908360ff160217905550600190505b919050565b600060019054906101000a900460ff16611ae7576040517f08c379a0000000000000000000000000000000000000000000000000000000008152600401611ade90613fff565b60405180910390fd5b611af0816126a9565b50565b600060019054906101000a900460ff16611b42576040517f08c379a0000000000000000000000000000000000000000000000000000000008152600401611b3990613fff565b60405180910390fd5b611b4a612704565b565b600060019054906101000a900460ff16611b9b576040517f08c379a0000000000000000000000000000000000000000000000000000000008152600401611b9290613fff565b60405180910390fd5b565b600060019054906101000a900460ff16611bec576040517f08c379a0000000000000000000000000000000000000000000000000000000008152600401611be390613fff565b60405180910390fd5b565b8173ffffffffffffffffffffffffffffffffffffffff168373ffffffffffffffffffffffffffffffffffffffff161415611c5d576040517f08c379a0000000000000000000000000000000000000000000000000000000008152600401611c5490614091565b60405180910390fd5b80606660008573ffffffffffffffffffffffffffffffffffffffff1673ffffffffffffffffffffffffffffffffffffffff16815260200190815260200160002060008473ffffffffffffffffffffffffffffffffffffffff1673ffffffffffffffffffffffffffffffffffffffff16815260200190815260200160002060006101000a81548160ff0219169083151502179055508173ffffffffffffffffffffffffffffffffffffffff168373ffffffffffffffffffffffffffffffffffffffff167f17307eab39ab6107e8899845ad3d59bd9653f200f220920489ca2b5937696c3183604051611d4e9190612b94565b60405180910390a3505050565b600073ffffffffffffffffffffffffffffffffffffffff168473ffffffffffffffffffffffffffffffffffffffff161415611dcb576040517f08c379a0000000000000000000000000000000000000000000000000000000008152600401611dc290613cfc565b60405180910390fd5b6000611dd5610eea565b90506000611de285612448565b90506000611def85612448565b9050611dff838989858589612243565b60006065600088815260200190815260200160002060008a73ffffffffffffffffffffffffffffffffffffffff1673ffffffffffffffffffffffffffffffffffffffff16815260200190815260200160002054905085811015611e97576040517f08c379a0000000000000000000000000000000000000000000000000000000008152600401611e8e90613d8e565b60405180910390fd5b8581036065600089815260200190815260200160002060008b73ffffffffffffffffffffffffffffffffffffffff1673ffffffffffffffffffffffffffffffffffffffff16815260200190815260200160002081905550856065600089815260200190815260200160002060008a73ffffffffffffffffffffffffffffffffffffffff1673ffffffffffffffffffffffffffffffffffffffff1681526020019081526020016000206000828254611f4e9190613bfd565b925050819055508773ffffffffffffffffffffffffffffffffffffffff168973ffffffffffffffffffffffffffffffffffffffff168573ffffffffffffffffffffffffffffffffffffffff167fc3d58168c5ae7397731d063d5bbf3d657854427343f4c083240f7aacaa2d0f628a8a604051611fcb929190613ed2565b60405180910390a4611fe1848a8a86868a612259565b611fef848a8a8a8a8a6124c2565b505050505050505050565b600073ffffffffffffffffffffffffffffffffffffffff168373ffffffffffffffffffffffffffffffffffffffff16141561206a576040517f08c379a000000000000000000000000000000000000000000000000000000000815260040161206190613e20565b60405180910390fd5b6000612074610eea565b9050600061208184612448565b9050600061208e84612448565b90506120ae83876000858560405180602001604052806000815250612243565b60006065600087815260200190815260200160002060008873ffffffffffffffffffffffffffffffffffffffff1673ffffffffffffffffffffffffffffffffffffffff16815260200190815260200160002054905084811015612146576040517f08c379a000000000000000000000000000000000000000000000000000000000815260040161213d90613eb2565b60405180910390fd5b8481036065600088815260200190815260200160002060008973ffffffffffffffffffffffffffffffffffffffff1673ffffffffffffffffffffffffffffffffffffffff16815260200190815260200160002081905550600073ffffffffffffffffffffffffffffffffffffffff168773ffffffffffffffffffffffffffffffffffffffff168573ffffffffffffffffffffffffffffffffffffffff167fc3d58168c5ae7397731d063d5bbf3d657854427343f4c083240f7aacaa2d0f628989604051612214929190613ed2565b60405180910390a461223a84886000868660405180602001604052806000815250612259565b50505050505050565b612251868686868686612765565b505050505050565b505050505050565b6122808473ffffffffffffffffffffffffffffffffffffffff16610e5d565b15612440578373ffffffffffffffffffffffffffffffffffffffff1663bc197c8187878686866040518663ffffffff1660e01b81526004016122c6959493929190614106565b602060405180830381600087803b1580156122e057600080fd5b505af192505050801561231157506040513d601f19601f8201168201806040525081019061230e9190614183565b60015b6123b75761231d6141bd565b806308c379a0141561237a57506123326141df565b8061233d575061237c565b806040517f08c379a00000000000000000000000000000000000000000000000000000000081526004016123719190612df3565b60405180910390fd5b505b6040517f08c379a00000000000000000000000000000000000000000000000000000000081526004016123ae906142e7565b60405180910390fd5b63bc197c8160e01b7bffffffffffffffffffffffffffffffffffffffffffffffffffffffff1916817bffffffffffffffffffffffffffffffffffffffffffffffffffffffff19161461243e576040517f08c379a000000000000000000000000000000000000000000000000000000000815260040161243590614379565b60405180910390fd5b505b505050505050565b60606000600167ffffffffffffffff81111561246757612466612bca565b5b6040519080825280602002602001820160405280156124955781602001602082028036833780820191505090505b50905082816000815181106124ad576124ac6138a1565b5b60200260200101818152505080915050919050565b6124e18473ffffffffffffffffffffffffffffffffffffffff16610e5d565b156126a1578373ffffffffffffffffffffffffffffffffffffffff1663f23a6e6187878686866040518663ffffffff1660e01b8152600401612527959493929190614399565b602060405180830381600087803b15801561254157600080fd5b505af192505050801561257257506040513d601f19601f8201168201806040525081019061256f9190614183565b60015b6126185761257e6141bd565b806308c379a014156125db57506125936141df565b8061259e57506125dd565b806040517f08c379a00000000000000000000000000000000000000000000000000000000081526004016125d29190612df3565b60405180910390fd5b505b6040517f08c379a000000000000000000000000000000000000000000000000000000000815260040161260f906142e7565b60405180910390fd5b63f23a6e6160e01b7bffffffffffffffffffffffffffffffffffffffffffffffffffffffff1916817bffffffffffffffffffffffffffffffffffffffffffffffffffffffff19161461269f576040517f08c379a000000000000000000000000000000000000000000000000000000000815260040161269690614379565b60405180910390fd5b505b505050505050565b600060019054906101000a900460ff166126f8576040517f08c379a00000000000000000000000000000000000000000000000000000000081526004016126ef90613fff565b60405180910390fd5b61270181610ef2565b50565b600060019054906101000a900460ff16612753576040517f08c379a000000000000000000000000000000000000000000000000000000000815260040161274a90613fff565b60405180910390fd5b61276361275e610eea565b611730565b565b612773868686868686612937565b600073ffffffffffffffffffffffffffffffffffffffff168573ffffffffffffffffffffffffffffffffffffffff1614156128255760005b8351811015612823578281815181106127c7576127c66138a1565b5b602002602001015160fb60008684815181106127e6576127e56138a1565b5b60200260200101518152602001908152602001600020600082825461280b9190613bfd565b925050819055508061281c906138ff565b90506127ab565b505b600073ffffffffffffffffffffffffffffffffffffffff168473ffffffffffffffffffffffffffffffffffffffff16141561292f5760005b835181101561292d57600084828151811061287b5761287a6138a1565b5b60200260200101519050600084838151811061289a576128996138a1565b5b60200260200101519050600060fb6000848152602001908152602001600020549050818110156128ff576040517f08c379a00000000000000000000000000000000000000000000000000000000081526004016128f690614465565b60405180910390fd5b81810360fb60008581526020019081526020016000208190555050505080612926906138ff565b905061285d565b505b505050505050565b505050505050565b82805461294b9061374b565b90600052602060002090601f01602090048101928261296d57600085556129b4565b82601f1061298657805160ff19168380011785556129b4565b828001600101855582156129b4579182015b828111156129b3578251825591602001919060010190612998565b5b5090506129c191906129c5565b5090565b5b808211156129de5760008160009055506001016129c6565b5090565b6000604051905090565b600080fd5b600080fd5b600073ffffffffffffffffffffffffffffffffffffffff82169050919050565b6000612a21826129f6565b9050919050565b612a3181612a16565b8114612a3c57600080fd5b50565b600081359050612a4e81612a28565b92915050565b6000819050919050565b612a6781612a54565b8114612a7257600080fd5b50565b600081359050612a8481612a5e565b92915050565b60008060408385031215612aa157612aa06129ec565b5b6000612aaf85828601612a3f565b9250506020612ac085828601612a75565b9150509250929050565b612ad381612a54565b82525050565b6000602082019050612aee6000830184612aca565b92915050565b60007fffffffff0000000000000000000000000000000000000000000000000000000082169050919050565b612b2981612af4565b8114612b3457600080fd5b50565b600081359050612b4681612b20565b92915050565b600060208284031215612b6257612b616129ec565b5b6000612b7084828501612b37565b91505092915050565b60008115159050919050565b612b8e81612b79565b82525050565b6000602082019050612ba96000830184612b85565b92915050565b600080fd5b600080fd5b6000601f19601f8301169050919050565b7f4e487b7100000000000000000000000000000000000000000000000000000000600052604160045260246000fd5b612c0282612bb9565b810181811067ffffffffffffffff82111715612c2157612c20612bca565b5b80604052505050565b6000612c346129e2565b9050612c408282612bf9565b919050565b600067ffffffffffffffff821115612c6057612c5f612bca565b5b612c6982612bb9565b9050602081019050919050565b82818337600083830152505050565b6000612c98612c9384612c45565b612c2a565b905082815260208101848484011115612cb457612cb3612bb4565b5b612cbf848285612c76565b509392505050565b600082601f830112612cdc57612cdb612baf565b5b8135612cec848260208601612c85565b91505092915050565b600060208284031215612d0b57612d0a6129ec565b5b600082013567ffffffffffffffff811115612d2957612d286129f1565b5b612d3584828501612cc7565b91505092915050565b600060208284031215612d5457612d536129ec565b5b6000612d6284828501612a75565b91505092915050565b600081519050919050565b600082825260208201905092915050565b60005b83811015612da5578082015181840152602081019050612d8a565b83811115612db4576000848401525b50505050565b6000612dc582612d6b565b612dcf8185612d76565b9350612ddf818560208601612d87565b612de881612bb9565b840191505092915050565b60006020820190508181036000830152612e0d8184612dba565b905092915050565b600067ffffffffffffffff821115612e3057612e2f612bca565b5b602082029050602081019050919050565b600080fd5b6000612e59612e5484612e15565b612c2a565b90508083825260208201905060208402830185811115612e7c57612e7b612e41565b5b835b81811015612ea55780612e918882612a75565b845260208401935050602081019050612e7e565b5050509392505050565b600082601f830112612ec457612ec3612baf565b5b8135612ed4848260208601612e46565b91505092915050565b600067ffffffffffffffff821115612ef857612ef7612bca565b5b612f0182612bb9565b9050602081019050919050565b6000612f21612f1c84612edd565b612c2a565b905082815260208101848484011115612f3d57612f3c612bb4565b5b612f48848285612c76565b509392505050565b600082601f830112612f6557612f64612baf565b5b8135612f75848260208601612f0e565b91505092915050565b60008060008060808587031215612f9857612f976129ec565b5b6000612fa687828801612a3f565b945050602085013567ffffffffffffffff811115612fc757612fc66129f1565b5b612fd387828801612eaf565b935050604085013567ffffffffffffffff811115612ff457612ff36129f1565b5b61300087828801612eaf565b925050606085013567ffffffffffffffff811115613021576130206129f1565b5b61302d87828801612f50565b91505092959194509250565b600080600080600060a08688031215613055576130546129ec565b5b600061306388828901612a3f565b955050602061307488828901612a3f565b945050604086013567ffffffffffffffff811115613095576130946129f1565b5b6130a188828901612eaf565b935050606086013567ffffffffffffffff8111156130c2576130c16129f1565b5b6130ce88828901612eaf565b925050608086013567ffffffffffffffff8111156130ef576130ee6129f1565b5b6130fb88828901612f50565b9150509295509295909350565b600067ffffffffffffffff82111561312357613122612bca565b5b602082029050602081019050919050565b600061314761314284613108565b612c2a565b9050808382526020820190506020840283018581111561316a57613169612e41565b5b835b81811015613193578061317f8882612a3f565b84526020840193505060208101905061316c565b5050509392505050565b600082601f8301126131b2576131b1612baf565b5b81356131c2848260208601613134565b91505092915050565b600080604083850312156131e2576131e16129ec565b5b600083013567ffffffffffffffff811115613200576131ff6129f1565b5b61320c8582860161319d565b925050602083013567ffffffffffffffff81111561322d5761322c6129f1565b5b61323985828601612eaf565b9150509250929050565b600081519050919050565b600082825260208201905092915050565b6000819050602082019050919050565b61327881612a54565b82525050565b600061328a838361326f565b60208301905092915050565b6000602082019050919050565b60006132ae82613243565b6132b8818561324e565b93506132c38361325f565b8060005b838110156132f45781516132db888261327e565b97506132e683613296565b9250506001810190506132c7565b5085935050505092915050565b6000602082019050818103600083015261331b81846132a3565b905092915050565b60008060006060848603121561333c5761333b6129ec565b5b600061334a86828701612a3f565b935050602084013567ffffffffffffffff81111561336b5761336a6129f1565b5b61337786828701612eaf565b925050604084013567ffffffffffffffff811115613398576133976129f1565b5b6133a486828701612eaf565b9150509250925092565b600080600080608085870312156133c8576133c76129ec565b5b60006133d687828801612a3f565b94505060206133e787828801612a75565b93505060406133f887828801612a75565b925050606085013567ffffffffffffffff811115613419576134186129f1565b5b61342587828801612f50565b91505092959194509250565b61343a81612a16565b82525050565b60006020820190506134556000830184613431565b92915050565b61346481612b79565b811461346f57600080fd5b50565b6000813590506134818161345b565b92915050565b6000806040838503121561349e5761349d6129ec565b5b60006134ac85828601612a3f565b92505060206134bd85828601613472565b9150509250929050565b600080604083850312156134de576134dd6129ec565b5b60006134ec85828601612a3f565b92505060206134fd85828601612a3f565b9150509250929050565b600080600080600060a08688031215613523576135226129ec565b5b600061353188828901612a3f565b955050602061354288828901612a3f565b945050604061355388828901612a75565b935050606061356488828901612a75565b925050608086013567ffffffffffffffff811115613585576135846129f1565b5b61359188828901612f50565b9150509295509295909350565b6000602082840312156135b4576135b36129ec565b5b60006135c284828501612a3f565b91505092915050565b6000806000606084860312156135e4576135e36129ec565b5b60006135f286828701612a3f565b935050602061360386828701612a75565b925050604061361486828701612a75565b9150509250925092565b7f455243313135353a2062616c616e636520717565727920666f7220746865207a60008201527f65726f2061646472657373000000000000000000000000000000000000000000602082015250565b600061367a602b83612d76565b91506136858261361e565b604082019050919050565b600060208201905081810360008301526136a98161366d565b9050919050565b7f4f776e61626c653a2063616c6c6572206973206e6f7420746865206f776e6572600082015250565b60006136e6602083612d76565b91506136f1826136b0565b602082019050919050565b60006020820190508181036000830152613715816136d9565b9050919050565b7f4e487b7100000000000000000000000000000000000000000000000000000000600052602260045260246000fd5b6000600282049050600182168061376357607f821691505b602082108114156137775761377661371c565b5b50919050565b7f455243313135353a207472616e736665722063616c6c6572206973206e6f742060008201527f6f776e6572206e6f7220617070726f7665640000000000000000000000000000602082015250565b60006137d9603283612d76565b91506137e48261377d565b604082019050919050565b60006020820190508181036000830152613808816137cc565b9050919050565b7f455243313135353a206163636f756e747320616e6420696473206c656e67746860008201527f206d69736d617463680000000000000000000000000000000000000000000000602082015250565b600061386b602983612d76565b91506138768261380f565b604082019050919050565b6000602082019050818103600083015261389a8161385e565b9050919050565b7f4e487b7100000000000000000000000000000000000000000000000000000000600052603260045260246000fd5b7f4e487b7100000000000000000000000000000000000000000000000000000000600052601160045260246000fd5b600061390a82612a54565b91507fffffffffffffffffffffffffffffffffffffffffffffffffffffffffffffffff82141561393d5761393c6138d0565b5b600182019050919050565b7f455243313135353a2063616c6c6572206973206e6f74206f776e6572206e6f7260008201527f20617070726f7665640000000000000000000000000000000000000000000000602082015250565b60006139a4602983612d76565b91506139af82613948565b604082019050919050565b600060208201905081810360008301526139d381613997565b9050919050565b6000819050919050565b600060ff82169050919050565b6000819050919050565b6000613a16613a11613a0c846139da565b6139f1565b6139e4565b9050919050565b613a26816139fb565b82525050565b6000602082019050613a416000830184613a1d565b92915050565b7f4f776e61626c653a206e6577206f776e657220697320746865207a65726f206160008201527f6464726573730000000000000000000000000000000000000000000000000000602082015250565b6000613aa3602683612d76565b9150613aae82613a47565b604082019050919050565b60006020820190508181036000830152613ad281613a96565b9050919050565b7f455243313135353a206d696e7420746f20746865207a65726f2061646472657360008201527f7300000000000000000000000000000000000000000000000000000000000000602082015250565b6000613b35602183612d76565b9150613b4082613ad9565b604082019050919050565b60006020820190508181036000830152613b6481613b28565b9050919050565b7f455243313135353a2069647320616e6420616d6f756e7473206c656e6774682060008201527f6d69736d61746368000000000000000000000000000000000000000000000000602082015250565b6000613bc7602883612d76565b9150613bd282613b6b565b604082019050919050565b60006020820190508181036000830152613bf681613bba565b9050919050565b6000613c0882612a54565b9150613c1383612a54565b9250827fffffffffffffffffffffffffffffffffffffffffffffffffffffffffffffffff03821115613c4857613c476138d0565b5b828201905092915050565b60006040820190508181036000830152613c6d81856132a3565b90508181036020830152613c8181846132a3565b90509392505050565b7f455243313135353a207472616e7366657220746f20746865207a65726f20616460008201527f6472657373000000000000000000000000000000000000000000000000000000602082015250565b6000613ce6602583612d76565b9150613cf182613c8a565b604082019050919050565b60006020820190508181036000830152613d1581613cd9565b9050919050565b7f455243313135353a20696e73756666696369656e742062616c616e636520666f60008201527f72207472616e7366657200000000000000000000000000000000000000000000602082015250565b6000613d78602a83612d76565b9150613d8382613d1c565b604082019050919050565b60006020820190508181036000830152613da781613d6b565b9050919050565b7f455243313135353a206275726e2066726f6d20746865207a65726f206164647260008201527f6573730000000000000000000000000000000000000000000000000000000000602082015250565b6000613e0a602383612d76565b9150613e1582613dae565b604082019050919050565b60006020820190508181036000830152613e3981613dfd565b9050919050565b7f455243313135353a206275726e20616d6f756e7420657863656564732062616c60008201527f616e636500000000000000000000000000000000000000000000000000000000602082015250565b6000613e9c602483612d76565b9150613ea782613e40565b604082019050919050565b60006020820190508181036000830152613ecb81613e8f565b9050919050565b6000604082019050613ee76000830185612aca565b613ef46020830184612aca565b9392505050565b7f496e697469616c697a61626c653a20636f6e747261637420697320616c72656160008201527f647920696e697469616c697a6564000000000000000000000000000000000000602082015250565b6000613f57602e83612d76565b9150613f6282613efb565b604082019050919050565b60006020820190508181036000830152613f8681613f4a565b9050919050565b7f496e697469616c697a61626c653a20636f6e7472616374206973206e6f74206960008201527f6e697469616c697a696e67000000000000000000000000000000000000000000602082015250565b6000613fe9602b83612d76565b9150613ff482613f8d565b604082019050919050565b6000602082019050818103600083015261401881613fdc565b9050919050565b7f455243313135353a2073657474696e6720617070726f76616c2073746174757360008201527f20666f722073656c660000000000000000000000000000000000000000000000602082015250565b600061407b602983612d76565b91506140868261401f565b604082019050919050565b600060208201905081810360008301526140aa8161406e565b9050919050565b600081519050919050565b600082825260208201905092915050565b60006140d8826140b1565b6140e281856140bc565b93506140f2818560208601612d87565b6140fb81612bb9565b840191505092915050565b600060a08201905061411b6000830188613431565b6141286020830187613431565b818103604083015261413a81866132a3565b9050818103606083015261414e81856132a3565b9050818103608083015261416281846140cd565b90509695505050505050565b60008151905061417d81612b20565b92915050565b600060208284031215614199576141986129ec565b5b60006141a78482850161416e565b91505092915050565b60008160e01c9050919050565b600060033d11156141dc5760046000803e6141d96000516141b0565b90505b90565b600060443d10156141ef57614272565b6141f76129e2565b60043d036004823e80513d602482011167ffffffffffffffff8211171561421f575050614272565b808201805167ffffffffffffffff81111561423d5750505050614272565b80602083010160043d03850181111561425a575050505050614272565b61426982602001850186612bf9565b82955050505050505b90565b7f455243313135353a207472616e7366657220746f206e6f6e204552433131353560008201527f526563656976657220696d706c656d656e746572000000000000000000000000602082015250565b60006142d1603483612d76565b91506142dc82614275565b604082019050919050565b60006020820190508181036000830152614300816142c4565b9050919050565b7f455243313135353a204552433131353552656365697665722072656a6563746560008201527f6420746f6b656e73000000000000000000000000000000000000000000000000602082015250565b6000614363602883612d76565b915061436e82614307565b604082019050919050565b6000602082019050818103600083015261439281614356565b9050919050565b600060a0820190506143ae6000830188613431565b6143bb6020830187613431565b6143c86040830186612aca565b6143d56060830185612aca565b81810360808301526143e781846140cd565b90509695505050505050565b7f455243313135353a206275726e20616d6f756e74206578636565647320746f7460008201527f616c537570706c79000000000000000000000000000000000000000000000000602082015250565b600061444f602883612d76565b915061445a826143f3565b604082019050919050565b6000602082019050818103600083015261447e81614442565b905091905056fea26469706673582212206f46bb8f5078fb521646fb64b22bf98a4125a6df1abdee84234d1f5aa2c9b78464736f6c63430008090033",
  "linkReferences": {},
  "deployedLinkReferences": {}
}