{
  "_format": "hh-sol-artifact-1",
  "contractName": "KojoERC1155",
  "sourceName": "contracts/token/KojoERC1155.sol",
  "abi": [
    {
      "inputs": [],
      "stateMutability": "nonpayable",
      "type": "constructor"
    },
    {
      "anonymous": false,
      "inputs": [
        {
          "indexed": true,
          "internalType": "address",
          "name": "account",
          "type": "address"
        },
        {
          "indexed": true,
          "internalType": "address",
          "name": "operator",
          "type": "address"
        },
        {
          "indexed": false,
          "internalType": "bool",
          "name": "approved",
          "type": "bool"
        }
      ],
      "name": "ApprovalForAll",
      "type": "event"
    },
    {
      "anonymous": false,
      "inputs": [
        {
          "indexed": false,
          "internalType": "uint8",
          "name": "version",
          "type": "uint8"
        }
      ],
      "name": "Initialized",
      "type": "event"
    },
    {
      "anonymous": false,
      "inputs": [
        {
          "indexed": true,
          "internalType": "address",
          "name": "previousOwner",
          "type": "address"
        },
        {
          "indexed": true,
          "internalType": "address",
          "name": "newOwner",
          "type": "address"
        }
      ],
      "name": "OwnershipTransferred",
      "type": "event"
    },
    {
      "anonymous": false,
      "inputs": [
        {
          "indexed": true,
          "internalType": "address",
          "name": "operator",
          "type": "address"
        },
        {
          "indexed": true,
          "internalType": "address",
          "name": "from",
          "type": "address"
        },
        {
          "indexed": true,
          "internalType": "address",
          "name": "to",
          "type": "address"
        },
        {
          "indexed": false,
          "internalType": "uint256[]",
          "name": "ids",
          "type": "uint256[]"
        },
        {
          "indexed": false,
          "internalType": "uint256[]",
          "name": "values",
          "type": "uint256[]"
        }
      ],
      "name": "TransferBatch",
      "type": "event"
    },
    {
      "anonymous": false,
      "inputs": [
        {
          "indexed": true,
          "internalType": "address",
          "name": "operator",
          "type": "address"
        },
        {
          "indexed": true,
          "internalType": "address",
          "name": "from",
          "type": "address"
        },
        {
          "indexed": true,
          "internalType": "address",
          "name": "to",
          "type": "address"
        },
        {
          "indexed": false,
          "internalType": "uint256",
          "name": "id",
          "type": "uint256"
        },
        {
          "indexed": false,
          "internalType": "uint256",
          "name": "value",
          "type": "uint256"
        }
      ],
      "name": "TransferSingle",
      "type": "event"
    },
    {
      "anonymous": false,
      "inputs": [
        {
          "indexed": false,
          "internalType": "string",
          "name": "value",
          "type": "string"
        },
        {
          "indexed": true,
          "internalType": "uint256",
          "name": "id",
          "type": "uint256"
        }
      ],
      "name": "URI",
      "type": "event"
    },
    {
      "inputs": [
        {
          "internalType": "address",
          "name": "account",
          "type": "address"
        },
        {
          "internalType": "uint256",
          "name": "id",
          "type": "uint256"
        }
      ],
      "name": "balanceOf",
      "outputs": [
        {
          "internalType": "uint256",
          "name": "",
          "type": "uint256"
        }
      ],
      "stateMutability": "view",
      "type": "function"
    },
    {
      "inputs": [
        {
          "internalType": "address[]",
          "name": "accounts",
          "type": "address[]"
        },
        {
          "internalType": "uint256[]",
          "name": "ids",
          "type": "uint256[]"
        }
      ],
      "name": "balanceOfBatch",
      "outputs": [
        {
          "internalType": "uint256[]",
          "name": "",
          "type": "uint256[]"
        }
      ],
      "stateMutability": "view",
      "type": "function"
    },
    {
      "inputs": [
        {
          "internalType": "address",
          "name": "account",
          "type": "address"
        },
        {
          "internalType": "uint256",
          "name": "id",
          "type": "uint256"
        },
        {
          "internalType": "uint256",
          "name": "value",
          "type": "uint256"
        }
      ],
      "name": "burn",
      "outputs": [],
      "stateMutability": "nonpayable",
      "type": "function"
    },
    {
      "inputs": [
        {
          "internalType": "address",
          "name": "account",
          "type": "address"
        },
        {
          "internalType": "uint256[]",
          "name": "ids",
          "type": "uint256[]"
        },
        {
          "internalType": "uint256[]",
          "name": "values",
          "type": "uint256[]"
        }
      ],
      "name": "burnBatch",
      "outputs": [],
      "stateMutability": "nonpayable",
      "type": "function"
    },
    {
      "inputs": [
        {
          "internalType": "uint256",
          "name": "id",
          "type": "uint256"
        }
      ],
      "name": "exists",
      "outputs": [
        {
          "internalType": "bool",
          "name": "",
          "type": "bool"
        }
      ],
      "stateMutability": "view",
      "type": "function"
    },
    {
      "inputs": [],
      "name": "initialize",
      "outputs": [],
      "stateMutability": "nonpayable",
      "type": "function"
    },
    {
      "inputs": [
        {
          "internalType": "address",
          "name": "account",
          "type": "address"
        },
        {
          "internalType": "address",
          "name": "operator",
          "type": "address"
        }
      ],
      "name": "isApprovedForAll",
      "outputs": [
        {
          "internalType": "bool",
          "name": "",
          "type": "bool"
        }
      ],
      "stateMutability": "view",
      "type": "function"
    },
    {
      "inputs": [
        {
          "internalType": "address",
          "name": "account",
          "type": "address"
        },
        {
          "internalType": "uint256",
          "name": "id",
          "type": "uint256"
        },
        {
          "internalType": "uint256",
          "name": "amount",
          "type": "uint256"
        },
        {
          "internalType": "bytes",
          "name": "data",
          "type": "bytes"
        }
      ],
      "name": "mint",
      "outputs": [],
      "stateMutability": "nonpayable",
      "type": "function"
    },
    {
      "inputs": [
        {
          "internalType": "address",
          "name": "to",
          "type": "address"
        },
        {
          "internalType": "uint256[]",
          "name": "ids",
          "type": "uint256[]"
        },
        {
          "internalType": "uint256[]",
          "name": "amounts",
          "type": "uint256[]"
        },
        {
          "internalType": "bytes",
          "name": "data",
          "type": "bytes"
        }
      ],
      "name": "mintBatch",
      "outputs": [],
      "stateMutability": "nonpayable",
      "type": "function"
    },
    {
      "inputs": [],
      "name": "owner",
      "outputs": [
        {
          "internalType": "address",
          "name": "",
          "type": "address"
        }
      ],
      "stateMutability": "view",
      "type": "function"
    },
    {
      "inputs": [],
      "name": "renounceOwnership",
      "outputs": [],
      "stateMutability": "nonpayable",
      "type": "function"
    },
    {
      "inputs": [
        {
          "internalType": "address",
          "name": "from",
          "type": "address"
        },
        {
          "internalType": "address",
          "name": "to",
          "type": "address"
        },
        {
          "internalType": "uint256[]",
          "name": "ids",
          "type": "uint256[]"
        },
        {
          "internalType": "uint256[]",
          "name": "amounts",
          "type": "uint256[]"
        },
        {
          "internalType": "bytes",
          "name": "data",
          "type": "bytes"
        }
      ],
      "name": "safeBatchTransferFrom",
      "outputs": [],
      "stateMutability": "nonpayable",
      "type": "function"
    },
    {
      "inputs": [
        {
          "internalType": "address",
          "name": "from",
          "type": "address"
        },
        {
          "internalType": "address",
          "name": "to",
          "type": "address"
        },
        {
          "internalType": "uint256",
          "name": "id",
          "type": "uint256"
        },
        {
          "internalType": "uint256",
          "name": "amount",
          "type": "uint256"
        },
        {
          "internalType": "bytes",
          "name": "data",
          "type": "bytes"
        }
      ],
      "name": "safeTransferFrom",
      "outputs": [],
      "stateMutability": "nonpayable",
      "type": "function"
    },
    {
      "inputs": [
        {
          "internalType": "address",
          "name": "operator",
          "type": "address"
        },
        {
          "internalType": "bool",
          "name": "approved",
          "type": "bool"
        }
      ],
      "name": "setApprovalForAll",
      "outputs": [],
      "stateMutability": "nonpayable",
      "type": "function"
    },
    {
      "inputs": [
        {
          "internalType": "uint256",
          "name": "tokenId",
          "type": "uint256"
        },
        {
          "internalType": "string",
          "name": "_uri",
          "type": "string"
        }
      ],
      "name": "setTokenUri",
      "outputs": [],
      "stateMutability": "nonpayable",
      "type": "function"
    },
    {
      "inputs": [
        {
          "internalType": "string",
          "name": "newuri",
          "type": "string"
        }
      ],
      "name": "setURI",
      "outputs": [],
      "stateMutability": "nonpayable",
      "type": "function"
    },
    {
      "inputs": [
        {
          "internalType": "bytes4",
          "name": "interfaceId",
          "type": "bytes4"
        }
      ],
      "name": "supportsInterface",
      "outputs": [
        {
          "internalType": "bool",
          "name": "",
          "type": "bool"
        }
      ],
      "stateMutability": "view",
      "type": "function"
    },
    {
      "inputs": [
        {
          "internalType": "uint256",
          "name": "id",
          "type": "uint256"
        }
      ],
      "name": "totalSupply",
      "outputs": [
        {
          "internalType": "uint256",
          "name": "",
          "type": "uint256"
        }
      ],
      "stateMutability": "view",
      "type": "function"
    },
    {
      "inputs": [
        {
          "internalType": "address",
          "name": "newOwner",
          "type": "address"
        }
      ],
      "name": "transferOwnership",
      "outputs": [],
      "stateMutability": "nonpayable",
      "type": "function"
    },
    {
      "inputs": [
        {
          "internalType": "uint256",
          "name": "tokenId",
          "type": "uint256"
        }
      ],
      "name": "uri",
      "outputs": [
        {
          "internalType": "string",
          "name": "",
          "type": "string"
        }
      ],
      "stateMutability": "view",
      "type": "function"
    }
  ],
  "bytecode": "0x60806040523480156200001157600080fd5b506200001c62000022565b62000152565b6200002e60ff62000031565b50565b60008054610100900460ff1615620000ca578160ff1660011480156200006a575062000068306200014360201b620009ab1760201c565b155b620000c25760405162461bcd60e51b815260206004820152602e6024820152600080516020620026ad83398151915260448201526d191e481a5b9a5d1a585b1a5e995960921b60648201526084015b60405180910390fd5b506000919050565b60005460ff808416911610620001295760405162461bcd60e51b815260206004820152602e6024820152600080516020620026ad83398151915260448201526d191e481a5b9a5d1a585b1a5e995960921b6064820152608401620000b9565b506000805460ff191660ff92909216919091179055600190565b6001600160a01b03163b151590565b61254b80620001626000396000f3fe608060405234801561001057600080fd5b506004361061012b5760003560e01c8063715018a6116100ad578063bd85b03911610071578063bd85b0391461028d578063e985e9c5146102ad578063f242432a146102e9578063f2fde38b146102fc578063f5298aca1461030f57600080fd5b8063715018a61461023c578063731133e9146102445780638129fc1c146102575780638da5cb5b1461025f578063a22cb4651461027a57600080fd5b80632eb2c2d6116100f45780632eb2c2d6146101c15780634e1273f4146101d45780634f558e79146101f457806357f7789e146102165780636b20c4541461022957600080fd5b8062fdd58e1461013057806301ffc9a71461015657806302fe5305146101795780630e89341c1461018e5780631f7fdffa146101ae575b600080fd5b61014361013e36600461190b565b610322565b6040519081526020015b60405180910390f35b61016961016436600461194b565b6103bb565b604051901515815260200161014d565b61018c610187366004611a24565b61040d565b005b6101a161019c366004611a60565b610443565b60405161014d9190611ac6565b61018c6101bc366004611b6d565b6104e6565b61018c6101cf366004611c05565b610522565b6101e76101e2366004611cae565b6105b9565b60405161014d9190611db3565b610169610202366004611a60565b600090815260fb6020526040902054151590565b61018c610224366004611dc6565b6106e2565b61018c610237366004611e02565b610731565b61018c610774565b61018c610252366004611e75565b6107aa565b61018c6107e0565b6097546040516001600160a01b03909116815260200161014d565b61018c610288366004611ec9565b61087c565b61014361029b366004611a60565b600090815260fb602052604090205490565b6101696102bb366004611f05565b6001600160a01b03918216600090815260666020908152604080832093909416825291909152205460ff1690565b61018c6102f7366004611f38565b61088b565b61018c61030a366004611f9c565b6108d0565b61018c61031d366004611fb7565b610968565b60006001600160a01b0383166103935760405162461bcd60e51b815260206004820152602b60248201527f455243313135353a2062616c616e636520717565727920666f7220746865207a60448201526a65726f206164647265737360a81b60648201526084015b60405180910390fd5b5060009081526065602090815260408083206001600160a01b03949094168352929052205490565b60006001600160e01b03198216636cdb3d1360e11b14806103ec57506001600160e01b031982166303a24d0760e21b145b8061040757506301ffc9a760e01b6001600160e01b03198316145b92915050565b6097546001600160a01b031633146104375760405162461bcd60e51b815260040161038a90611fea565b610440816109ba565b50565b600081815261012d602052604090208054606091906104619061201f565b80601f016020809104026020016040519081016040528092919081815260200182805461048d9061201f565b80156104da5780601f106104af576101008083540402835291602001916104da565b820191906000526020600020905b8154815290600101906020018083116104bd57829003601f168201915b50505050509050919050565b6097546001600160a01b031633146105105760405162461bcd60e51b815260040161038a90611fea565b61051c848484846109cd565b50505050565b6001600160a01b03851633148061053e575061053e85336102bb565b6105a55760405162461bcd60e51b815260206004820152603260248201527f455243313135353a207472616e736665722063616c6c6572206973206e6f74206044820152711bdddb995c881b9bdc88185c1c1c9bdd995960721b606482015260840161038a565b6105b28585858585610b28565b5050505050565b6060815183511461061e5760405162461bcd60e51b815260206004820152602960248201527f455243313135353a206163636f756e747320616e6420696473206c656e677468604482015268040dad2e6dac2e8c6d60bb1b606482015260840161038a565b600083516001600160401b038111156106395761063961196f565b604051908082528060200260200182016040528015610662578160200160208202803683370190505b50905060005b84518110156106da576106ad8582815181106106865761068661205a565b60200260200101518583815181106106a0576106a061205a565b6020026020010151610322565b8282815181106106bf576106bf61205a565b60209081029190910101526106d381612086565b9050610668565b509392505050565b6097546001600160a01b0316331461070c5760405162461bcd60e51b815260040161038a90611fea565b600082815261012d60209081526040909120825161072c9284019061185b565b505050565b6001600160a01b03831633148061074d575061074d83336102bb565b6107695760405162461bcd60e51b815260040161038a906120a1565b61072c838383610cd5565b6097546001600160a01b0316331461079e5760405162461bcd60e51b815260040161038a90611fea565b6107a86000610e74565b565b6097546001600160a01b031633146107d45760405162461bcd60e51b815260040161038a90611fea565b61051c84848484610ec6565b60006107ec6001610fb1565b90508015610804576000805461ff0019166101001790555b61081c6040518060200160405280600081525061103e565b61082461106e565b61082c61109d565b61083461109d565b8015610440576000805461ff0019169055604051600181527f7f26b83ff96e1f2b6a682f133852f6798a09c465da95921460cefb38474024989060200160405180910390a150565b6108873383836110c4565b5050565b6001600160a01b0385163314806108a757506108a785336102bb565b6108c35760405162461bcd60e51b815260040161038a906120a1565b6105b285858585856111a5565b6097546001600160a01b031633146108fa5760405162461bcd60e51b815260040161038a90611fea565b6001600160a01b03811661095f5760405162461bcd60e51b815260206004820152602660248201527f4f776e61626c653a206e6577206f776e657220697320746865207a65726f206160448201526564647265737360d01b606482015260840161038a565b61044081610e74565b6001600160a01b038316331480610984575061098483336102bb565b6109a05760405162461bcd60e51b815260040161038a906120a1565b61072c8383836112e1565b6001600160a01b03163b151590565b805161088790606790602084019061185b565b6001600160a01b0384166109f35760405162461bcd60e51b815260040161038a906120ea565b8151835114610a145760405162461bcd60e51b815260040161038a9061212b565b33610a24816000878787876113fd565b60005b8451811015610ac057838181518110610a4257610a4261205a565b602002602001015160656000878481518110610a6057610a6061205a565b602002602001015181526020019081526020016000206000886001600160a01b03166001600160a01b031681526020019081526020016000206000828254610aa89190612173565b90915550819050610ab881612086565b915050610a27565b50846001600160a01b031660006001600160a01b0316826001600160a01b03167f4a39dc06d4c0dbc64b70af90fd698a233a518aa5d07e595d983b8c0526c8f7fb8787604051610b1192919061218b565b60405180910390a46105b28160008787878761140b565b8151835114610b495760405162461bcd60e51b815260040161038a9061212b565b6001600160a01b038416610b6f5760405162461bcd60e51b815260040161038a906121b9565b33610b7e8187878787876113fd565b60005b8451811015610c67576000858281518110610b9e57610b9e61205a565b602002602001015190506000858381518110610bbc57610bbc61205a565b60209081029190910181015160008481526065835260408082206001600160a01b038e168352909352919091205490915081811015610c0d5760405162461bcd60e51b815260040161038a906121fe565b60008381526065602090815260408083206001600160a01b038e8116855292528083208585039055908b16825281208054849290610c4c908490612173565b9250508190555050505080610c6090612086565b9050610b81565b50846001600160a01b0316866001600160a01b0316826001600160a01b03167f4a39dc06d4c0dbc64b70af90fd698a233a518aa5d07e595d983b8c0526c8f7fb8787604051610cb792919061218b565b60405180910390a4610ccd81878787878761140b565b505050505050565b6001600160a01b038316610cfb5760405162461bcd60e51b815260040161038a90612248565b8051825114610d1c5760405162461bcd60e51b815260040161038a9061212b565b6000339050610d3f818560008686604051806020016040528060008152506113fd565b60005b8351811015610e07576000848281518110610d5f57610d5f61205a565b602002602001015190506000848381518110610d7d57610d7d61205a565b60209081029190910181015160008481526065835260408082206001600160a01b038c168352909352919091205490915081811015610dce5760405162461bcd60e51b815260040161038a9061228b565b60009283526065602090815260408085206001600160a01b038b1686529091529092209103905580610dff81612086565b915050610d42565b5060006001600160a01b0316846001600160a01b0316826001600160a01b03167f4a39dc06d4c0dbc64b70af90fd698a233a518aa5d07e595d983b8c0526c8f7fb8686604051610e5892919061218b565b60405180910390a460408051602081019091526000905261051c565b609780546001600160a01b038381166001600160a01b0319831681179093556040519116919082907f8be0079c531659141344cd1fd0a4f28419497f9722a3daafe3b4186f6b6457e090600090a35050565b6001600160a01b038416610eec5760405162461bcd60e51b815260040161038a906120ea565b336000610ef885611576565b90506000610f0585611576565b9050610f16836000898585896113fd565b60008681526065602090815260408083206001600160a01b038b16845290915281208054879290610f48908490612173565b909155505060408051878152602081018790526001600160a01b03808a1692600092918716917fc3d58168c5ae7397731d063d5bbf3d657854427343f4c083240f7aacaa2d0f62910160405180910390a4610fa8836000898989896115c1565b50505050505050565b60008054610100900460ff1615610ff8578160ff166001148015610fd45750303b155b610ff05760405162461bcd60e51b815260040161038a906122cf565b506000919050565b60005460ff80841691161061101f5760405162461bcd60e51b815260040161038a906122cf565b506000805460ff191660ff92909216919091179055600190565b919050565b600054610100900460ff166110655760405162461bcd60e51b815260040161038a9061231d565b6104408161168b565b600054610100900460ff166110955760405162461bcd60e51b815260040161038a9061231d565b6107a86116b2565b600054610100900460ff166107a85760405162461bcd60e51b815260040161038a9061231d565b816001600160a01b0316836001600160a01b031614156111385760405162461bcd60e51b815260206004820152602960248201527f455243313135353a2073657474696e6720617070726f76616c20737461747573604482015268103337b91039b2b63360b91b606482015260840161038a565b6001600160a01b03838116600081815260666020908152604080832094871680845294825291829020805460ff191686151590811790915591519182527f17307eab39ab6107e8899845ad3d59bd9653f200f220920489ca2b5937696c31910160405180910390a3505050565b6001600160a01b0384166111cb5760405162461bcd60e51b815260040161038a906121b9565b3360006111d785611576565b905060006111e485611576565b90506111f48389898585896113fd565b60008681526065602090815260408083206001600160a01b038c168452909152902054858110156112375760405162461bcd60e51b815260040161038a906121fe565b60008781526065602090815260408083206001600160a01b038d8116855292528083208985039055908a16825281208054889290611276908490612173565b909155505060408051888152602081018890526001600160a01b03808b16928c821692918816917fc3d58168c5ae7397731d063d5bbf3d657854427343f4c083240f7aacaa2d0f62910160405180910390a46112d6848a8a8a8a8a6115c1565b505050505050505050565b6001600160a01b0383166113075760405162461bcd60e51b815260040161038a90612248565b33600061131384611576565b9050600061132084611576565b9050611340838760008585604051806020016040528060008152506113fd565b60008581526065602090815260408083206001600160a01b038a168452909152902054848110156113835760405162461bcd60e51b815260040161038a9061228b565b60008681526065602090815260408083206001600160a01b038b81168086529184528285208a8703905582518b81529384018a90529092908816917fc3d58168c5ae7397731d063d5bbf3d657854427343f4c083240f7aacaa2d0f62910160405180910390a4604080516020810190915260009052610fa8565b610ccd8686868686866116e2565b6001600160a01b0384163b15610ccd5760405163bc197c8160e01b81526001600160a01b0385169063bc197c819061144f9089908990889088908890600401612368565b602060405180830381600087803b15801561146957600080fd5b505af1925050508015611499575060408051601f3d908101601f19168201909252611496918101906123c6565b60015b611546576114a56123e3565b806308c379a014156114df57506114ba6123ff565b806114c557506114e1565b8060405162461bcd60e51b815260040161038a9190611ac6565b505b60405162461bcd60e51b815260206004820152603460248201527f455243313135353a207472616e7366657220746f206e6f6e20455243313135356044820152732932b1b2b4bb32b91034b6b83632b6b2b73a32b960611b606482015260840161038a565b6001600160e01b0319811663bc197c8160e01b14610fa85760405162461bcd60e51b815260040161038a90612488565b604080516001808252818301909252606091600091906020808301908036833701905050905082816000815181106115b0576115b061205a565b602090810291909101015292915050565b6001600160a01b0384163b15610ccd5760405163f23a6e6160e01b81526001600160a01b0385169063f23a6e619061160590899089908890889088906004016124d0565b602060405180830381600087803b15801561161f57600080fd5b505af192505050801561164f575060408051601f3d908101601f1916820190925261164c918101906123c6565b60015b61165b576114a56123e3565b6001600160e01b0319811663f23a6e6160e01b14610fa85760405162461bcd60e51b815260040161038a90612488565b600054610100900460ff166104375760405162461bcd60e51b815260040161038a9061231d565b600054610100900460ff166116d95760405162461bcd60e51b815260040161038a9061231d565b6107a833610e74565b6001600160a01b0385166117695760005b83518110156117675782818151811061170e5761170e61205a565b602002602001015160fb600086848151811061172c5761172c61205a565b6020026020010151815260200190815260200160002060008282546117519190612173565b90915550611760905081612086565b90506116f3565b505b6001600160a01b038416610ccd5760005b8351811015610fa85760008482815181106117975761179761205a565b6020026020010151905060008483815181106117b5576117b561205a565b60200260200101519050600060fb6000848152602001908152602001600020549050818110156118385760405162461bcd60e51b815260206004820152602860248201527f455243313135353a206275726e20616d6f756e74206578636565647320746f74604482015267616c537570706c7960c01b606482015260840161038a565b600092835260fb60205260409092209103905561185481612086565b905061177a565b8280546118679061201f565b90600052602060002090601f01602090048101928261188957600085556118cf565b82601f106118a257805160ff19168380011785556118cf565b828001600101855582156118cf579182015b828111156118cf5782518255916020019190600101906118b4565b506118db9291506118df565b5090565b5b808211156118db57600081556001016118e0565b80356001600160a01b038116811461103957600080fd5b6000806040838503121561191e57600080fd5b611927836118f4565b946020939093013593505050565b6001600160e01b03198116811461044057600080fd5b60006020828403121561195d57600080fd5b813561196881611935565b9392505050565b634e487b7160e01b600052604160045260246000fd5b601f8201601f191681016001600160401b03811182821017156119aa576119aa61196f565b6040525050565b600082601f8301126119c257600080fd5b81356001600160401b038111156119db576119db61196f565b6040516119f2601f8301601f191660200182611985565b818152846020838601011115611a0757600080fd5b816020850160208301376000918101602001919091529392505050565b600060208284031215611a3657600080fd5b81356001600160401b03811115611a4c57600080fd5b611a58848285016119b1565b949350505050565b600060208284031215611a7257600080fd5b5035919050565b6000815180845260005b81811015611a9f57602081850181015186830182015201611a83565b81811115611ab1576000602083870101525b50601f01601f19169290920160200192915050565b6020815260006119686020830184611a79565b60006001600160401b03821115611af257611af261196f565b5060051b60200190565b600082601f830112611b0d57600080fd5b81356020611b1a82611ad9565b604051611b278282611985565b83815260059390931b8501820192828101915086841115611b4757600080fd5b8286015b84811015611b625780358352918301918301611b4b565b509695505050505050565b60008060008060808587031215611b8357600080fd5b611b8c856118f4565b935060208501356001600160401b0380821115611ba857600080fd5b611bb488838901611afc565b94506040870135915080821115611bca57600080fd5b611bd688838901611afc565b93506060870135915080821115611bec57600080fd5b50611bf9878288016119b1565b91505092959194509250565b600080600080600060a08688031215611c1d57600080fd5b611c26866118f4565b9450611c34602087016118f4565b935060408601356001600160401b0380821115611c5057600080fd5b611c5c89838a01611afc565b94506060880135915080821115611c7257600080fd5b611c7e89838a01611afc565b93506080880135915080821115611c9457600080fd5b50611ca1888289016119b1565b9150509295509295909350565b60008060408385031215611cc157600080fd5b82356001600160401b0380821115611cd857600080fd5b818501915085601f830112611cec57600080fd5b81356020611cf982611ad9565b604051611d068282611985565b83815260059390931b8501820192828101915089841115611d2657600080fd5b948201945b83861015611d4b57611d3c866118f4565b82529482019490820190611d2b565b96505086013592505080821115611d6157600080fd5b50611d6e85828601611afc565b9150509250929050565b600081518084526020808501945080840160005b83811015611da857815187529582019590820190600101611d8c565b509495945050505050565b6020815260006119686020830184611d78565b60008060408385031215611dd957600080fd5b8235915060208301356001600160401b03811115611df657600080fd5b611d6e858286016119b1565b600080600060608486031215611e1757600080fd5b611e20846118f4565b925060208401356001600160401b0380821115611e3c57600080fd5b611e4887838801611afc565b93506040860135915080821115611e5e57600080fd5b50611e6b86828701611afc565b9150509250925092565b60008060008060808587031215611e8b57600080fd5b611e94856118f4565b9350602085013592506040850135915060608501356001600160401b03811115611ebd57600080fd5b611bf9878288016119b1565b60008060408385031215611edc57600080fd5b611ee5836118f4565b915060208301358015158114611efa57600080fd5b809150509250929050565b60008060408385031215611f1857600080fd5b611f21836118f4565b9150611f2f602084016118f4565b90509250929050565b600080600080600060a08688031215611f5057600080fd5b611f59866118f4565b9450611f67602087016118f4565b9350604086013592506060860135915060808601356001600160401b03811115611f9057600080fd5b611ca1888289016119b1565b600060208284031215611fae57600080fd5b611968826118f4565b600080600060608486031215611fcc57600080fd5b611fd5846118f4565b95602085013595506040909401359392505050565b6020808252818101527f4f776e61626c653a2063616c6c6572206973206e6f7420746865206f776e6572604082015260600190565b600181811c9082168061203357607f821691505b6020821081141561205457634e487b7160e01b600052602260045260246000fd5b50919050565b634e487b7160e01b600052603260045260246000fd5b634e487b7160e01b600052601160045260246000fd5b600060001982141561209a5761209a612070565b5060010190565b60208082526029908201527f455243313135353a2063616c6c6572206973206e6f74206f776e6572206e6f7260408201526808185c1c1c9bdd995960ba1b606082015260800190565b60208082526021908201527f455243313135353a206d696e7420746f20746865207a65726f206164647265736040820152607360f81b606082015260800190565b60208082526028908201527f455243313135353a2069647320616e6420616d6f756e7473206c656e677468206040820152670dad2e6dac2e8c6d60c31b606082015260800190565b6000821982111561218657612186612070565b500190565b60408152600061219e6040830185611d78565b82810360208401526121b08185611d78565b95945050505050565b60208082526025908201527f455243313135353a207472616e7366657220746f20746865207a65726f206164604082015264647265737360d81b606082015260800190565b6020808252602a908201527f455243313135353a20696e73756666696369656e742062616c616e636520666f60408201526939103a3930b739b332b960b11b606082015260800190565b60208082526023908201527f455243313135353a206275726e2066726f6d20746865207a65726f206164647260408201526265737360e81b606082015260800190565b60208082526024908201527f455243313135353a206275726e20616d6f756e7420657863656564732062616c604082015263616e636560e01b606082015260800190565b6020808252602e908201527f496e697469616c697a61626c653a20636f6e747261637420697320616c72656160408201526d191e481a5b9a5d1a585b1a5e995960921b606082015260800190565b6020808252602b908201527f496e697469616c697a61626c653a20636f6e7472616374206973206e6f74206960408201526a6e697469616c697a696e6760a81b606082015260800190565b6001600160a01b0386811682528516602082015260a06040820181905260009061239490830186611d78565b82810360608401526123a68186611d78565b905082810360808401526123ba8185611a79565b98975050505050505050565b6000602082840312156123d857600080fd5b815161196881611935565b600060033d11156123fc5760046000803e5060005160e01c5b90565b600060443d101561240d5790565b6040516003193d81016004833e81513d6001600160401b03816024840111818411171561243c57505050505090565b82850191508151818111156124545750505050505090565b843d870101602082850101111561246e5750505050505090565b61247d60208286010187611985565b509095945050505050565b60208082526028908201527f455243313135353a204552433131353552656365697665722072656a656374656040820152676420746f6b656e7360c01b606082015260800190565b6001600160a01b03868116825285166020820152604081018490526060810183905260a06080820181905260009061250a90830184611a79565b97965050505050505056fea2646970667358221220042e56e4371f756efd50490b5e9af35bab50e64b221db96d53c991fa897a688464736f6c63430008090033496e697469616c697a61626c653a20636f6e747261637420697320616c726561",
  "linkReferences": {},
  "deployedLinkReferences": {}
}