{
  "_format": "hh-sol-artifact-1",
  "contractName": "KojoERC1155",
  "sourceName": "contracts/token/KojoERC1155.sol",
  "abi": [
    {
      "inputs": [],
      "stateMutability": "nonpayable",
      "type": "constructor"
    },
    {
      "anonymous": false,
      "inputs": [
        {
          "indexed": true,
          "internalType": "address",
          "name": "account",
          "type": "address"
        },
        {
          "indexed": true,
          "internalType": "address",
          "name": "operator",
          "type": "address"
        },
        {
          "indexed": false,
          "internalType": "bool",
          "name": "approved",
          "type": "bool"
        }
      ],
      "name": "ApprovalForAll",
      "type": "event"
    },
    {
      "anonymous": false,
      "inputs": [
        {
          "indexed": false,
          "internalType": "uint8",
          "name": "version",
          "type": "uint8"
        }
      ],
      "name": "Initialized",
      "type": "event"
    },
    {
      "anonymous": false,
      "inputs": [
        {
          "indexed": true,
          "internalType": "address",
          "name": "previousOwner",
          "type": "address"
        },
        {
          "indexed": true,
          "internalType": "address",
          "name": "newOwner",
          "type": "address"
        }
      ],
      "name": "OwnershipTransferred",
      "type": "event"
    },
    {
      "anonymous": false,
      "inputs": [
        {
          "indexed": true,
          "internalType": "address",
          "name": "operator",
          "type": "address"
        },
        {
          "indexed": true,
          "internalType": "address",
          "name": "from",
          "type": "address"
        },
        {
          "indexed": true,
          "internalType": "address",
          "name": "to",
          "type": "address"
        },
        {
          "indexed": false,
          "internalType": "uint256[]",
          "name": "ids",
          "type": "uint256[]"
        },
        {
          "indexed": false,
          "internalType": "uint256[]",
          "name": "values",
          "type": "uint256[]"
        }
      ],
      "name": "TransferBatch",
      "type": "event"
    },
    {
      "anonymous": false,
      "inputs": [
        {
          "indexed": true,
          "internalType": "address",
          "name": "operator",
          "type": "address"
        },
        {
          "indexed": true,
          "internalType": "address",
          "name": "from",
          "type": "address"
        },
        {
          "indexed": true,
          "internalType": "address",
          "name": "to",
          "type": "address"
        },
        {
          "indexed": false,
          "internalType": "uint256",
          "name": "id",
          "type": "uint256"
        },
        {
          "indexed": false,
          "internalType": "uint256",
          "name": "value",
          "type": "uint256"
        }
      ],
      "name": "TransferSingle",
      "type": "event"
    },
    {
      "anonymous": false,
      "inputs": [
        {
          "indexed": false,
          "internalType": "string",
          "name": "value",
          "type": "string"
        },
        {
          "indexed": true,
          "internalType": "uint256",
          "name": "id",
          "type": "uint256"
        }
      ],
      "name": "URI",
      "type": "event"
    },
    {
      "inputs": [
        {
          "internalType": "address",
          "name": "account",
          "type": "address"
        },
        {
          "internalType": "uint256",
          "name": "id",
          "type": "uint256"
        }
      ],
      "name": "balanceOf",
      "outputs": [
        {
          "internalType": "uint256",
          "name": "",
          "type": "uint256"
        }
      ],
      "stateMutability": "view",
      "type": "function"
    },
    {
      "inputs": [
        {
          "internalType": "address[]",
          "name": "accounts",
          "type": "address[]"
        },
        {
          "internalType": "uint256[]",
          "name": "ids",
          "type": "uint256[]"
        }
      ],
      "name": "balanceOfBatch",
      "outputs": [
        {
          "internalType": "uint256[]",
          "name": "",
          "type": "uint256[]"
        }
      ],
      "stateMutability": "view",
      "type": "function"
    },
    {
      "inputs": [
        {
          "internalType": "uint256",
          "name": "id",
          "type": "uint256"
        }
      ],
      "name": "exists",
      "outputs": [
        {
          "internalType": "bool",
          "name": "",
          "type": "bool"
        }
      ],
      "stateMutability": "view",
      "type": "function"
    },
    {
      "inputs": [],
      "name": "fungibleTokenId",
      "outputs": [
        {
          "internalType": "uint256",
          "name": "",
          "type": "uint256"
        }
      ],
      "stateMutability": "view",
      "type": "function"
    },
    {
      "inputs": [
        {
          "internalType": "address",
          "name": "account",
          "type": "address"
        },
        {
          "internalType": "address",
          "name": "operator",
          "type": "address"
        }
      ],
      "name": "isApprovedForAll",
      "outputs": [
        {
          "internalType": "bool",
          "name": "",
          "type": "bool"
        }
      ],
      "stateMutability": "view",
      "type": "function"
    },
    {
      "inputs": [
        {
          "internalType": "address",
          "name": "to",
          "type": "address"
        },
        {
          "internalType": "uint256[]",
          "name": "ids",
          "type": "uint256[]"
        },
        {
          "internalType": "uint256[]",
          "name": "amounts",
          "type": "uint256[]"
        },
        {
          "internalType": "bytes",
          "name": "data",
          "type": "bytes"
        }
      ],
      "name": "mintBatch",
      "outputs": [],
      "stateMutability": "nonpayable",
      "type": "function"
    },
    {
      "inputs": [],
      "name": "nonFungibleTokenCount",
      "outputs": [
        {
          "internalType": "uint256",
          "name": "",
          "type": "uint256"
        }
      ],
      "stateMutability": "view",
      "type": "function"
    },
    {
      "inputs": [
        {
          "internalType": "address",
          "name": "",
          "type": "address"
        },
        {
          "internalType": "address",
          "name": "",
          "type": "address"
        },
        {
          "internalType": "uint256[]",
          "name": "",
          "type": "uint256[]"
        },
        {
          "internalType": "uint256[]",
          "name": "",
          "type": "uint256[]"
        },
        {
          "internalType": "bytes",
          "name": "",
          "type": "bytes"
        }
      ],
      "name": "onERC1155BatchReceived",
      "outputs": [
        {
          "internalType": "bytes4",
          "name": "",
          "type": "bytes4"
        }
      ],
      "stateMutability": "nonpayable",
      "type": "function"
    },
    {
      "inputs": [
        {
          "internalType": "address",
          "name": "",
          "type": "address"
        },
        {
          "internalType": "address",
          "name": "",
          "type": "address"
        },
        {
          "internalType": "uint256",
          "name": "",
          "type": "uint256"
        },
        {
          "internalType": "uint256",
          "name": "",
          "type": "uint256"
        },
        {
          "internalType": "bytes",
          "name": "",
          "type": "bytes"
        }
      ],
      "name": "onERC1155Received",
      "outputs": [
        {
          "internalType": "bytes4",
          "name": "",
          "type": "bytes4"
        }
      ],
      "stateMutability": "nonpayable",
      "type": "function"
    },
    {
      "inputs": [],
      "name": "owner",
      "outputs": [
        {
          "internalType": "address",
          "name": "",
          "type": "address"
        }
      ],
      "stateMutability": "view",
      "type": "function"
    },
    {
      "inputs": [],
      "name": "renounceOwnership",
      "outputs": [],
      "stateMutability": "nonpayable",
      "type": "function"
    },
    {
      "inputs": [
        {
          "internalType": "address",
          "name": "from",
          "type": "address"
        },
        {
          "internalType": "address",
          "name": "to",
          "type": "address"
        },
        {
          "internalType": "uint256[]",
          "name": "ids",
          "type": "uint256[]"
        },
        {
          "internalType": "uint256[]",
          "name": "amounts",
          "type": "uint256[]"
        },
        {
          "internalType": "bytes",
          "name": "data",
          "type": "bytes"
        }
      ],
      "name": "safeBatchTransferFrom",
      "outputs": [],
      "stateMutability": "nonpayable",
      "type": "function"
    },
    {
      "inputs": [
        {
          "internalType": "address",
          "name": "from",
          "type": "address"
        },
        {
          "internalType": "address",
          "name": "to",
          "type": "address"
        },
        {
          "internalType": "uint256",
          "name": "id",
          "type": "uint256"
        },
        {
          "internalType": "uint256",
          "name": "amount",
          "type": "uint256"
        },
        {
          "internalType": "bytes",
          "name": "data",
          "type": "bytes"
        }
      ],
      "name": "safeTransferFrom",
      "outputs": [],
      "stateMutability": "nonpayable",
      "type": "function"
    },
    {
      "inputs": [
        {
          "internalType": "address",
          "name": "operator",
          "type": "address"
        },
        {
          "internalType": "bool",
          "name": "approved",
          "type": "bool"
        }
      ],
      "name": "setApprovalForAll",
      "outputs": [],
      "stateMutability": "nonpayable",
      "type": "function"
    },
    {
      "inputs": [
        {
          "internalType": "string",
          "name": "newuri",
          "type": "string"
        }
      ],
      "name": "setURI",
      "outputs": [],
      "stateMutability": "nonpayable",
      "type": "function"
    },
    {
      "inputs": [
        {
          "internalType": "bytes4",
          "name": "interfaceId",
          "type": "bytes4"
        }
      ],
      "name": "supportsInterface",
      "outputs": [
        {
          "internalType": "bool",
          "name": "",
          "type": "bool"
        }
      ],
      "stateMutability": "view",
      "type": "function"
    },
    {
      "inputs": [
        {
          "internalType": "uint256",
          "name": "id",
          "type": "uint256"
        }
      ],
      "name": "totalSupply",
      "outputs": [
        {
          "internalType": "uint256",
          "name": "",
          "type": "uint256"
        }
      ],
      "stateMutability": "view",
      "type": "function"
    },
    {
      "inputs": [
        {
          "internalType": "address",
          "name": "newOwner",
          "type": "address"
        }
      ],
      "name": "transferOwnership",
      "outputs": [],
      "stateMutability": "nonpayable",
      "type": "function"
    },
    {
      "inputs": [
        {
          "internalType": "uint256",
          "name": "tokenId",
          "type": "uint256"
        }
      ],
      "name": "uri",
      "outputs": [
        {
          "internalType": "string",
          "name": "",
          "type": "string"
        }
      ],
      "stateMutability": "view",
      "type": "function"
    }
  ],
  "bytecode": "0x60806040523480156200001157600080fd5b506200001c62000022565b62000152565b6200002e60ff62000031565b50565b60008054610100900460ff1615620000ca578160ff1660011480156200006a575062000068306200014360201b620008141760201c565b155b620000c25760405162461bcd60e51b815260206004820152602e602482015260008051602062001e0d83398151915260448201526d191e481a5b9a5d1a585b1a5e995960921b60648201526084015b60405180910390fd5b506000919050565b60005460ff808416911610620001295760405162461bcd60e51b815260206004820152602e602482015260008051602062001e0d83398151915260448201526d191e481a5b9a5d1a585b1a5e995960921b6064820152608401620000b9565b506000805460ff191660ff92909216919091179055600190565b6001600160a01b03163b151590565b611cab80620001626000396000f3fe608060405234801561001057600080fd5b50600436106101205760003560e01c8063715018a6116100ad578063bd85b03911610071578063bd85b0391461028e578063e985e9c5146102af578063f23a6e61146102eb578063f242432a1461030a578063f2fde38b1461031d57600080fd5b8063715018a6146102165780638da5cb5b1461021e578063a22cb46514610239578063b4daaf551461024c578063bc197c811461025657600080fd5b80631f7fdffa116100f45780631f7fdffa146101a35780632eb2c2d6146101b657806345e8eca8146101c95780634e1273f4146101d35780634f558e79146101f357600080fd5b8062fdd58e1461012557806301ffc9a71461014b57806302fe53051461016e5780630e89341c14610183575b600080fd5b610138610133366004611324565b610330565b6040519081526020015b60405180910390f35b61015e610159366004611364565b6103c9565b6040519015158152602001610142565b61018161017c366004611429565b6103da565b005b61019661019136600461147a565b610410565b60405161014291906114e0565b6101816101b13660046115a8565b6104b3565b6101816101c4366004611641565b6104ef565b6101386101615481565b6101e66101e13660046116eb565b610586565b60405161014291906117f1565b61015e61020136600461147a565b600090815261012d6020526040902054151590565b6101816106b0565b6097546040516001600160a01b039091168152602001610142565b610181610247366004611804565b6106e6565b6101386101605481565b610275610264366004611641565b63bc197c8160e01b95945050505050565b6040516001600160e01b03199091168152602001610142565b61013861029c36600461147a565b600090815261012d602052604090205490565b61015e6102bd366004611840565b6001600160a01b03918216600090815260666020908152604080832093909416825291909152205460ff1690565b6102756102f9366004611873565b63f23a6e6160e01b95945050505050565b610181610318366004611873565b6106f5565b61018161032b3660046118d8565b61077c565b60006001600160a01b0383166103a15760405162461bcd60e51b815260206004820152602b60248201527f455243313135353a2062616c616e636520717565727920666f7220746865207a60448201526a65726f206164647265737360a81b60648201526084015b60405180910390fd5b5060009081526065602090815260408083206001600160a01b03949094168352929052205490565b60006103d482610823565b92915050565b6097546001600160a01b031633146104045760405162461bcd60e51b8152600401610398906118f3565b61040d81610848565b50565b600081815261015f6020526040902080546060919061042e90611928565b80601f016020809104026020016040519081016040528092919081815260200182805461045a90611928565b80156104a75780601f1061047c576101008083540402835291602001916104a7565b820191906000526020600020905b81548152906001019060200180831161048a57829003601f168201915b50505050509050919050565b6097546001600160a01b031633146104dd5760405162461bcd60e51b8152600401610398906118f3565b6104e98484848461085b565b50505050565b6001600160a01b03851633148061050b575061050b85336102bd565b6105725760405162461bcd60e51b815260206004820152603260248201527f455243313135353a207472616e736665722063616c6c6572206973206e6f74206044820152711bdddb995c881b9bdc88185c1c1c9bdd995960721b6064820152608401610398565b61057f85858585856109f0565b5050505050565b606081518351146105eb5760405162461bcd60e51b815260206004820152602960248201527f455243313135353a206163636f756e747320616e6420696473206c656e677468604482015268040dad2e6dac2e8c6d60bb1b6064820152608401610398565b6000835167ffffffffffffffff81111561060757610607611388565b604051908082528060200260200182016040528015610630578160200160208202803683370190505b50905060005b84518110156106a85761067b85828151811061065457610654611963565b602002602001015185838151811061066e5761066e611963565b6020026020010151610330565b82828151811061068d5761068d611963565b60209081029190910101526106a18161198f565b9050610636565b509392505050565b6097546001600160a01b031633146106da5760405162461bcd60e51b8152600401610398906118f3565b6106e46000610b9d565b565b6106f1338383610bef565b5050565b6001600160a01b038516331480610711575061071185336102bd565b61076f5760405162461bcd60e51b815260206004820152602960248201527f455243313135353a2063616c6c6572206973206e6f74206f776e6572206e6f7260448201526808185c1c1c9bdd995960ba1b6064820152608401610398565b61057f8585858585610cd0565b6097546001600160a01b031633146107a65760405162461bcd60e51b8152600401610398906118f3565b6001600160a01b03811661080b5760405162461bcd60e51b815260206004820152602660248201527f4f776e61626c653a206e6577206f776e657220697320746865207a65726f206160448201526564647265737360d01b6064820152608401610398565b61040d81610b9d565b6001600160a01b03163b151590565b60006001600160e01b03198216630271189760e51b14806103d457506103d482610e0c565b80516106f190606790602084019061126f565b6001600160a01b0384166108bb5760405162461bcd60e51b815260206004820152602160248201527f455243313135353a206d696e7420746f20746865207a65726f206164647265736044820152607360f81b6064820152608401610398565b81518351146108dc5760405162461bcd60e51b8152600401610398906119aa565b336108ec81600087878787610e5c565b60005b84518110156109885783818151811061090a5761090a611963565b60200260200101516065600087848151811061092857610928611963565b602002602001015181526020019081526020016000206000886001600160a01b03166001600160a01b03168152602001908152602001600020600082825461097091906119f2565b909155508190506109808161198f565b9150506108ef565b50846001600160a01b031660006001600160a01b0316826001600160a01b03167f4a39dc06d4c0dbc64b70af90fd698a233a518aa5d07e595d983b8c0526c8f7fb87876040516109d9929190611a0a565b60405180910390a461057f81600087878787610e6a565b8151835114610a115760405162461bcd60e51b8152600401610398906119aa565b6001600160a01b038416610a375760405162461bcd60e51b815260040161039890611a38565b33610a46818787878787610e5c565b60005b8451811015610b2f576000858281518110610a6657610a66611963565b602002602001015190506000858381518110610a8457610a84611963565b60209081029190910181015160008481526065835260408082206001600160a01b038e168352909352919091205490915081811015610ad55760405162461bcd60e51b815260040161039890611a7d565b60008381526065602090815260408083206001600160a01b038e8116855292528083208585039055908b16825281208054849290610b149084906119f2565b9250508190555050505080610b289061198f565b9050610a49565b50846001600160a01b0316866001600160a01b0316826001600160a01b03167f4a39dc06d4c0dbc64b70af90fd698a233a518aa5d07e595d983b8c0526c8f7fb8787604051610b7f929190611a0a565b60405180910390a4610b95818787878787610e6a565b505050505050565b609780546001600160a01b038381166001600160a01b0319831681179093556040519116919082907f8be0079c531659141344cd1fd0a4f28419497f9722a3daafe3b4186f6b6457e090600090a35050565b816001600160a01b0316836001600160a01b03161415610c635760405162461bcd60e51b815260206004820152602960248201527f455243313135353a2073657474696e6720617070726f76616c20737461747573604482015268103337b91039b2b63360b91b6064820152608401610398565b6001600160a01b03838116600081815260666020908152604080832094871680845294825291829020805460ff191686151590811790915591519182527f17307eab39ab6107e8899845ad3d59bd9653f200f220920489ca2b5937696c31910160405180910390a3505050565b6001600160a01b038416610cf65760405162461bcd60e51b815260040161039890611a38565b336000610d0285610fde565b90506000610d0f85610fde565b9050610d1f838989858589610e5c565b60008681526065602090815260408083206001600160a01b038c16845290915290205485811015610d625760405162461bcd60e51b815260040161039890611a7d565b60008781526065602090815260408083206001600160a01b038d8116855292528083208985039055908a16825281208054889290610da19084906119f2565b909155505060408051888152602081018890526001600160a01b03808b16928c821692918816917fc3d58168c5ae7397731d063d5bbf3d657854427343f4c083240f7aacaa2d0f62910160405180910390a4610e01848a8a8a8a8a611029565b505050505050505050565b60006001600160e01b03198216636cdb3d1360e11b1480610e3d57506001600160e01b031982166303a24d0760e21b145b806103d457506301ffc9a760e01b6001600160e01b03198316146103d4565b610b958686868686866110f3565b6001600160a01b0384163b15610b955760405163bc197c8160e01b81526001600160a01b0385169063bc197c8190610eae9089908990889088908890600401611ac7565b602060405180830381600087803b158015610ec857600080fd5b505af1925050508015610ef8575060408051601f3d908101601f19168201909252610ef591810190611b25565b60015b610fa557610f04611b42565b806308c379a01415610f3e5750610f19611b5e565b80610f245750610f40565b8060405162461bcd60e51b815260040161039891906114e0565b505b60405162461bcd60e51b815260206004820152603460248201527f455243313135353a207472616e7366657220746f206e6f6e20455243313135356044820152732932b1b2b4bb32b91034b6b83632b6b2b73a32b960611b6064820152608401610398565b6001600160e01b0319811663bc197c8160e01b14610fd55760405162461bcd60e51b815260040161039890611be8565b50505050505050565b6040805160018082528183019092526060916000919060208083019080368337019050509050828160008151811061101857611018611963565b602090810291909101015292915050565b6001600160a01b0384163b15610b955760405163f23a6e6160e01b81526001600160a01b0385169063f23a6e619061106d9089908990889088908890600401611c30565b602060405180830381600087803b15801561108757600080fd5b505af19250505080156110b7575060408051601f3d908101601f191682019092526110b491810190611b25565b60015b6110c357610f04611b42565b6001600160e01b0319811663f23a6e6160e01b14610fd55760405162461bcd60e51b815260040161039890611be8565b6001600160a01b03851661117b5760005b83518110156111795782818151811061111f5761111f611963565b602002602001015161012d600086848151811061113e5761113e611963565b60200260200101518152602001908152602001600020600082825461116391906119f2565b9091555061117290508161198f565b9050611104565b505b6001600160a01b038416610b955760005b8351811015610fd55760008482815181106111a9576111a9611963565b6020026020010151905060008483815181106111c7576111c7611963565b60200260200101519050600061012d60008481526020019081526020016000205490508181101561124b5760405162461bcd60e51b815260206004820152602860248201527f455243313135353a206275726e20616d6f756e74206578636565647320746f74604482015267616c537570706c7960c01b6064820152608401610398565b600092835261012d6020526040909220910390556112688161198f565b905061118c565b82805461127b90611928565b90600052602060002090601f01602090048101928261129d57600085556112e3565b82601f106112b657805160ff19168380011785556112e3565b828001600101855582156112e3579182015b828111156112e35782518255916020019190600101906112c8565b506112ef9291506112f3565b5090565b5b808211156112ef57600081556001016112f4565b80356001600160a01b038116811461131f57600080fd5b919050565b6000806040838503121561133757600080fd5b61134083611308565b946020939093013593505050565b6001600160e01b03198116811461040d57600080fd5b60006020828403121561137657600080fd5b81356113818161134e565b9392505050565b634e487b7160e01b600052604160045260246000fd5b601f8201601f1916810167ffffffffffffffff811182821017156113c4576113c4611388565b6040525050565b600067ffffffffffffffff8311156113e5576113e5611388565b6040516113fc601f8501601f19166020018261139e565b80915083815284848401111561141157600080fd5b83836020830137600060208583010152509392505050565b60006020828403121561143b57600080fd5b813567ffffffffffffffff81111561145257600080fd5b8201601f8101841361146357600080fd5b611472848235602084016113cb565b949350505050565b60006020828403121561148c57600080fd5b5035919050565b6000815180845260005b818110156114b95760208185018101518683018201520161149d565b818111156114cb576000602083870101525b50601f01601f19169290920160200192915050565b6020815260006113816020830184611493565b600067ffffffffffffffff82111561150d5761150d611388565b5060051b60200190565b600082601f83011261152857600080fd5b81356020611535826114f3565b604051611542828261139e565b83815260059390931b850182019282810191508684111561156257600080fd5b8286015b8481101561157d5780358352918301918301611566565b509695505050505050565b600082601f83011261159957600080fd5b611381838335602085016113cb565b600080600080608085870312156115be57600080fd5b6115c785611308565b9350602085013567ffffffffffffffff808211156115e457600080fd5b6115f088838901611517565b9450604087013591508082111561160657600080fd5b61161288838901611517565b9350606087013591508082111561162857600080fd5b5061163587828801611588565b91505092959194509250565b600080600080600060a0868803121561165957600080fd5b61166286611308565b945061167060208701611308565b9350604086013567ffffffffffffffff8082111561168d57600080fd5b61169989838a01611517565b945060608801359150808211156116af57600080fd5b6116bb89838a01611517565b935060808801359150808211156116d157600080fd5b506116de88828901611588565b9150509295509295909350565b600080604083850312156116fe57600080fd5b823567ffffffffffffffff8082111561171657600080fd5b818501915085601f83011261172a57600080fd5b81356020611737826114f3565b604051611744828261139e565b83815260059390931b850182019282810191508984111561176457600080fd5b948201945b838610156117895761177a86611308565b82529482019490820190611769565b9650508601359250508082111561179f57600080fd5b506117ac85828601611517565b9150509250929050565b600081518084526020808501945080840160005b838110156117e6578151875295820195908201906001016117ca565b509495945050505050565b60208152600061138160208301846117b6565b6000806040838503121561181757600080fd5b61182083611308565b91506020830135801515811461183557600080fd5b809150509250929050565b6000806040838503121561185357600080fd5b61185c83611308565b915061186a60208401611308565b90509250929050565b600080600080600060a0868803121561188b57600080fd5b61189486611308565b94506118a260208701611308565b93506040860135925060608601359150608086013567ffffffffffffffff8111156118cc57600080fd5b6116de88828901611588565b6000602082840312156118ea57600080fd5b61138182611308565b6020808252818101527f4f776e61626c653a2063616c6c6572206973206e6f7420746865206f776e6572604082015260600190565b600181811c9082168061193c57607f821691505b6020821081141561195d57634e487b7160e01b600052602260045260246000fd5b50919050565b634e487b7160e01b600052603260045260246000fd5b634e487b7160e01b600052601160045260246000fd5b60006000198214156119a3576119a3611979565b5060010190565b60208082526028908201527f455243313135353a2069647320616e6420616d6f756e7473206c656e677468206040820152670dad2e6dac2e8c6d60c31b606082015260800190565b60008219821115611a0557611a05611979565b500190565b604081526000611a1d60408301856117b6565b8281036020840152611a2f81856117b6565b95945050505050565b60208082526025908201527f455243313135353a207472616e7366657220746f20746865207a65726f206164604082015264647265737360d81b606082015260800190565b6020808252602a908201527f455243313135353a20696e73756666696369656e742062616c616e636520666f60408201526939103a3930b739b332b960b11b606082015260800190565b6001600160a01b0386811682528516602082015260a060408201819052600090611af3908301866117b6565b8281036060840152611b0581866117b6565b90508281036080840152611b198185611493565b98975050505050505050565b600060208284031215611b3757600080fd5b81516113818161134e565b600060033d1115611b5b5760046000803e5060005160e01c5b90565b600060443d1015611b6c5790565b6040516003193d81016004833e81513d67ffffffffffffffff8160248401118184111715611b9c57505050505090565b8285019150815181811115611bb45750505050505090565b843d8701016020828501011115611bce5750505050505090565b611bdd6020828601018761139e565b509095945050505050565b60208082526028908201527f455243313135353a204552433131353552656365697665722072656a656374656040820152676420746f6b656e7360c01b606082015260800190565b6001600160a01b03868116825285166020820152604081018490526060810183905260a060808201819052600090611c6a90830184611493565b97965050505050505056fea26469706673582212207a933bcff288d1558a5fb5f8ca55e41cbbcd694a3476c29b960b3a70a1907ce864736f6c63430008090033496e697469616c697a61626c653a20636f6e747261637420697320616c726561",
  "linkReferences": {},
  "deployedLinkReferences": {}
}