{
  "_format": "hh-sol-artifact-1",
  "contractName": "KojoERC1155",
  "sourceName": "contracts/token/KojoERC1155.sol",
  "abi": [
    {
      "inputs": [],
      "stateMutability": "nonpayable",
      "type": "constructor"
    },
    {
      "anonymous": false,
      "inputs": [
        {
          "indexed": true,
          "internalType": "address",
          "name": "account",
          "type": "address"
        },
        {
          "indexed": true,
          "internalType": "address",
          "name": "operator",
          "type": "address"
        },
        {
          "indexed": false,
          "internalType": "bool",
          "name": "approved",
          "type": "bool"
        }
      ],
      "name": "ApprovalForAll",
      "type": "event"
    },
    {
      "anonymous": false,
      "inputs": [
        {
          "indexed": false,
          "internalType": "uint8",
          "name": "version",
          "type": "uint8"
        }
      ],
      "name": "Initialized",
      "type": "event"
    },
    {
      "anonymous": false,
      "inputs": [
        {
          "indexed": true,
          "internalType": "address",
          "name": "previousOwner",
          "type": "address"
        },
        {
          "indexed": true,
          "internalType": "address",
          "name": "newOwner",
          "type": "address"
        }
      ],
      "name": "OwnershipTransferred",
      "type": "event"
    },
    {
      "anonymous": false,
      "inputs": [
        {
          "indexed": true,
          "internalType": "address",
          "name": "operator",
          "type": "address"
        },
        {
          "indexed": true,
          "internalType": "address",
          "name": "from",
          "type": "address"
        },
        {
          "indexed": true,
          "internalType": "address",
          "name": "to",
          "type": "address"
        },
        {
          "indexed": false,
          "internalType": "uint256[]",
          "name": "ids",
          "type": "uint256[]"
        },
        {
          "indexed": false,
          "internalType": "uint256[]",
          "name": "values",
          "type": "uint256[]"
        }
      ],
      "name": "TransferBatch",
      "type": "event"
    },
    {
      "anonymous": false,
      "inputs": [
        {
          "indexed": true,
          "internalType": "address",
          "name": "operator",
          "type": "address"
        },
        {
          "indexed": true,
          "internalType": "address",
          "name": "from",
          "type": "address"
        },
        {
          "indexed": true,
          "internalType": "address",
          "name": "to",
          "type": "address"
        },
        {
          "indexed": false,
          "internalType": "uint256",
          "name": "id",
          "type": "uint256"
        },
        {
          "indexed": false,
          "internalType": "uint256",
          "name": "value",
          "type": "uint256"
        }
      ],
      "name": "TransferSingle",
      "type": "event"
    },
    {
      "anonymous": false,
      "inputs": [
        {
          "indexed": false,
          "internalType": "string",
          "name": "value",
          "type": "string"
        },
        {
          "indexed": true,
          "internalType": "uint256",
          "name": "id",
          "type": "uint256"
        }
      ],
      "name": "URI",
      "type": "event"
    },
    {
      "inputs": [
        {
          "internalType": "address",
          "name": "account",
          "type": "address"
        },
        {
          "internalType": "uint256",
          "name": "id",
          "type": "uint256"
        }
      ],
      "name": "balanceOf",
      "outputs": [
        {
          "internalType": "uint256",
          "name": "",
          "type": "uint256"
        }
      ],
      "stateMutability": "view",
      "type": "function"
    },
    {
      "inputs": [
        {
          "internalType": "address[]",
          "name": "accounts",
          "type": "address[]"
        },
        {
          "internalType": "uint256[]",
          "name": "ids",
          "type": "uint256[]"
        }
      ],
      "name": "balanceOfBatch",
      "outputs": [
        {
          "internalType": "uint256[]",
          "name": "",
          "type": "uint256[]"
        }
      ],
      "stateMutability": "view",
      "type": "function"
    },
    {
      "inputs": [
        {
          "internalType": "uint256",
          "name": "id",
          "type": "uint256"
        }
      ],
      "name": "exists",
      "outputs": [
        {
          "internalType": "bool",
          "name": "",
          "type": "bool"
        }
      ],
      "stateMutability": "view",
      "type": "function"
    },
    {
      "inputs": [],
      "name": "fungibleTokenId",
      "outputs": [
        {
          "internalType": "uint256",
          "name": "",
          "type": "uint256"
        }
      ],
      "stateMutability": "view",
      "type": "function"
    },
    {
      "inputs": [
        {
          "internalType": "address",
          "name": "_owner",
          "type": "address"
        },
        {
          "internalType": "address",
          "name": "_operator",
          "type": "address"
        }
      ],
      "name": "isApprovedForAll",
      "outputs": [
        {
          "internalType": "bool",
          "name": "isOperator",
          "type": "bool"
        }
      ],
      "stateMutability": "view",
      "type": "function"
    },
    {
      "inputs": [
        {
          "internalType": "address",
          "name": "to",
          "type": "address"
        },
        {
          "internalType": "uint256[]",
          "name": "ids",
          "type": "uint256[]"
        },
        {
          "internalType": "uint256[]",
          "name": "amounts",
          "type": "uint256[]"
        },
        {
          "internalType": "bytes",
          "name": "data",
          "type": "bytes"
        }
      ],
      "name": "mintBatch",
      "outputs": [],
      "stateMutability": "nonpayable",
      "type": "function"
    },
    {
      "inputs": [],
      "name": "nonFungibleTokenCount",
      "outputs": [
        {
          "internalType": "uint256",
          "name": "",
          "type": "uint256"
        }
      ],
      "stateMutability": "view",
      "type": "function"
    },
    {
      "inputs": [
        {
          "internalType": "address",
          "name": "",
          "type": "address"
        },
        {
          "internalType": "address",
          "name": "",
          "type": "address"
        },
        {
          "internalType": "uint256[]",
          "name": "",
          "type": "uint256[]"
        },
        {
          "internalType": "uint256[]",
          "name": "",
          "type": "uint256[]"
        },
        {
          "internalType": "bytes",
          "name": "",
          "type": "bytes"
        }
      ],
      "name": "onERC1155BatchReceived",
      "outputs": [
        {
          "internalType": "bytes4",
          "name": "",
          "type": "bytes4"
        }
      ],
      "stateMutability": "nonpayable",
      "type": "function"
    },
    {
      "inputs": [
        {
          "internalType": "address",
          "name": "",
          "type": "address"
        },
        {
          "internalType": "address",
          "name": "",
          "type": "address"
        },
        {
          "internalType": "uint256",
          "name": "",
          "type": "uint256"
        },
        {
          "internalType": "uint256",
          "name": "",
          "type": "uint256"
        },
        {
          "internalType": "bytes",
          "name": "",
          "type": "bytes"
        }
      ],
      "name": "onERC1155Received",
      "outputs": [
        {
          "internalType": "bytes4",
          "name": "",
          "type": "bytes4"
        }
      ],
      "stateMutability": "nonpayable",
      "type": "function"
    },
    {
      "inputs": [],
      "name": "owner",
      "outputs": [
        {
          "internalType": "address",
          "name": "",
          "type": "address"
        }
      ],
      "stateMutability": "view",
      "type": "function"
    },
    {
      "inputs": [],
      "name": "renounceOwnership",
      "outputs": [],
      "stateMutability": "nonpayable",
      "type": "function"
    },
    {
      "inputs": [
        {
          "internalType": "address",
          "name": "from",
          "type": "address"
        },
        {
          "internalType": "address",
          "name": "to",
          "type": "address"
        },
        {
          "internalType": "uint256[]",
          "name": "ids",
          "type": "uint256[]"
        },
        {
          "internalType": "uint256[]",
          "name": "amounts",
          "type": "uint256[]"
        },
        {
          "internalType": "bytes",
          "name": "data",
          "type": "bytes"
        }
      ],
      "name": "safeBatchTransferFrom",
      "outputs": [],
      "stateMutability": "nonpayable",
      "type": "function"
    },
    {
      "inputs": [
        {
          "internalType": "address",
          "name": "from",
          "type": "address"
        },
        {
          "internalType": "address",
          "name": "to",
          "type": "address"
        },
        {
          "internalType": "uint256",
          "name": "id",
          "type": "uint256"
        },
        {
          "internalType": "uint256",
          "name": "amount",
          "type": "uint256"
        },
        {
          "internalType": "bytes",
          "name": "data",
          "type": "bytes"
        }
      ],
      "name": "safeTransferFrom",
      "outputs": [],
      "stateMutability": "nonpayable",
      "type": "function"
    },
    {
      "inputs": [
        {
          "internalType": "address",
          "name": "operator",
          "type": "address"
        },
        {
          "internalType": "bool",
          "name": "approved",
          "type": "bool"
        }
      ],
      "name": "setApprovalForAll",
      "outputs": [],
      "stateMutability": "nonpayable",
      "type": "function"
    },
    {
      "inputs": [
        {
          "internalType": "string",
          "name": "newuri",
          "type": "string"
        }
      ],
      "name": "setURI",
      "outputs": [],
      "stateMutability": "nonpayable",
      "type": "function"
    },
    {
      "inputs": [
        {
          "internalType": "bytes4",
          "name": "interfaceId",
          "type": "bytes4"
        }
      ],
      "name": "supportsInterface",
      "outputs": [
        {
          "internalType": "bool",
          "name": "",
          "type": "bool"
        }
      ],
      "stateMutability": "view",
      "type": "function"
    },
    {
      "inputs": [
        {
          "internalType": "uint256",
          "name": "id",
          "type": "uint256"
        }
      ],
      "name": "totalSupply",
      "outputs": [
        {
          "internalType": "uint256",
          "name": "",
          "type": "uint256"
        }
      ],
      "stateMutability": "view",
      "type": "function"
    },
    {
      "inputs": [
        {
          "internalType": "address",
          "name": "newOwner",
          "type": "address"
        }
      ],
      "name": "transferOwnership",
      "outputs": [],
      "stateMutability": "nonpayable",
      "type": "function"
    },
    {
      "inputs": [
        {
          "internalType": "uint256",
          "name": "tokenId",
          "type": "uint256"
        }
      ],
      "name": "uri",
      "outputs": [
        {
          "internalType": "string",
          "name": "",
          "type": "string"
        }
      ],
      "stateMutability": "view",
      "type": "function"
    }
  ],
  "bytecode": "0x60806040523480156200001157600080fd5b506200001c62000022565b62000152565b6200002e60ff62000031565b50565b60008054610100900460ff1615620000ca578160ff1660011480156200006a575062000068306200014360201b620008481760201c565b155b620000c25760405162461bcd60e51b815260206004820152602e602482015260008051602062001e1c83398151915260448201526d191e481a5b9a5d1a585b1a5e995960921b60648201526084015b60405180910390fd5b506000919050565b60005460ff808416911610620001295760405162461bcd60e51b815260206004820152602e602482015260008051602062001e1c83398151915260448201526d191e481a5b9a5d1a585b1a5e995960921b6064820152608401620000b9565b506000805460ff191660ff92909216919091179055600190565b6001600160a01b03163b151590565b611cba80620001626000396000f3fe608060405234801561001057600080fd5b50600436106101205760003560e01c8063715018a6116100ad578063bd85b03911610071578063bd85b0391461028e578063e985e9c5146102af578063f23a6e61146102c2578063f242432a146102e1578063f2fde38b146102f457600080fd5b8063715018a6146102165780638da5cb5b1461021e578063a22cb46514610239578063b4daaf551461024c578063bc197c811461025657600080fd5b80631f7fdffa116100f45780631f7fdffa146101a35780632eb2c2d6146101b657806345e8eca8146101c95780634e1273f4146101d35780634f558e79146101f357600080fd5b8062fdd58e1461012557806301ffc9a71461014b57806302fe53051461016e5780630e89341c14610183575b600080fd5b61013861013336600461133a565b610307565b6040519081526020015b60405180910390f35b61015e61015936600461137a565b6103a3565b6040519015158152602001610142565b61018161017c366004611438565b6103ae565b005b610196610191366004611489565b6103e4565b60405161014291906114ef565b6101816101b13660046115b7565b610487565b6101816101c4366004611650565b6104c3565b6101386101615481565b6101e66101e13660046116fa565b61055a565b6040516101429190611800565b61015e610201366004611489565b600090815261012d6020526040902054151590565b610181610684565b6097546040516001600160a01b039091168152602001610142565b610181610247366004611813565b6106ba565b6101386101605481565b610275610264366004611650565b63bc197c8160e01b95945050505050565b6040516001600160e01b03199091168152602001610142565b61013861029c366004611489565b600090815261012d602052604090205490565b61015e6102bd36600461184f565b6106c9565b6102756102d0366004611882565b63f23a6e6160e01b95945050505050565b6101816102ef366004611882565b610729565b6101816103023660046118e7565b6107b0565b60006001600160a01b0383166103785760405162461bcd60e51b815260206004820152602b60248201527f455243313135353a2062616c616e636520717565727920666f7220746865207a60448201526a65726f206164647265737360a81b60648201526084015b60405180910390fd5b5060008181526065602090815260408083206001600160a01b03861684529091529020545b92915050565b600061039d82610857565b6097546001600160a01b031633146103d85760405162461bcd60e51b815260040161036f90611902565b6103e18161087c565b50565b600081815261015f6020526040902080546060919061040290611937565b80601f016020809104026020016040519081016040528092919081815260200182805461042e90611937565b801561047b5780601f106104505761010080835404028352916020019161047b565b820191906000526020600020905b81548152906001019060200180831161045e57829003601f168201915b50505050509050919050565b6097546001600160a01b031633146104b15760405162461bcd60e51b815260040161036f90611902565b6104bd8484848461088f565b50505050565b6001600160a01b0385163314806104df57506104df85336106c9565b6105465760405162461bcd60e51b815260206004820152603260248201527f455243313135353a207472616e736665722063616c6c6572206973206e6f74206044820152711bdddb995c881b9bdc88185c1c1c9bdd995960721b606482015260840161036f565b6105538585858585610a24565b5050505050565b606081518351146105bf5760405162461bcd60e51b815260206004820152602960248201527f455243313135353a206163636f756e747320616e6420696473206c656e677468604482015268040dad2e6dac2e8c6d60bb1b606482015260840161036f565b6000835167ffffffffffffffff8111156105db576105db611397565b604051908082528060200260200182016040528015610604578160200160208202803683370190505b50905060005b845181101561067c5761064f85828151811061062857610628611972565b602002602001015185838151811061064257610642611972565b6020026020010151610307565b82828151811061066157610661611972565b60209081029190910101526106758161199e565b905061060a565b509392505050565b6097546001600160a01b031633146106ae5760405162461bcd60e51b815260040161036f90611902565b6106b86000610bd1565b565b6106c5338383610c23565b5050565b60006001600160a01b03821673207fa8df3a17d96ca7ea4f2893fcdcb78a30410114156106f85750600161039d565b6001600160a01b0380841660009081526066602090815260408083209386168352929052205460ff165b9392505050565b6001600160a01b038516331480610745575061074585336106c9565b6107a35760405162461bcd60e51b815260206004820152602960248201527f455243313135353a2063616c6c6572206973206e6f74206f776e6572206e6f7260448201526808185c1c1c9bdd995960ba1b606482015260840161036f565b6105538585858585610d04565b6097546001600160a01b031633146107da5760405162461bcd60e51b815260040161036f90611902565b6001600160a01b03811661083f5760405162461bcd60e51b815260206004820152602660248201527f4f776e61626c653a206e6577206f776e657220697320746865207a65726f206160448201526564647265737360d01b606482015260840161036f565b6103e181610bd1565b6001600160a01b03163b151590565b60006001600160e01b03198216630271189760e51b148061039d575061039d82610e40565b80516106c5906067906020840190611285565b6001600160a01b0384166108ef5760405162461bcd60e51b815260206004820152602160248201527f455243313135353a206d696e7420746f20746865207a65726f206164647265736044820152607360f81b606482015260840161036f565b81518351146109105760405162461bcd60e51b815260040161036f906119b9565b3361092081600087878787610e90565b60005b84518110156109bc5783818151811061093e5761093e611972565b60200260200101516065600087848151811061095c5761095c611972565b602002602001015181526020019081526020016000206000886001600160a01b03166001600160a01b0316815260200190815260200160002060008282546109a49190611a01565b909155508190506109b48161199e565b915050610923565b50846001600160a01b031660006001600160a01b0316826001600160a01b03167f4a39dc06d4c0dbc64b70af90fd698a233a518aa5d07e595d983b8c0526c8f7fb8787604051610a0d929190611a19565b60405180910390a461055381600087878787610e9e565b8151835114610a455760405162461bcd60e51b815260040161036f906119b9565b6001600160a01b038416610a6b5760405162461bcd60e51b815260040161036f90611a47565b33610a7a818787878787610e90565b60005b8451811015610b63576000858281518110610a9a57610a9a611972565b602002602001015190506000858381518110610ab857610ab8611972565b60209081029190910181015160008481526065835260408082206001600160a01b038e168352909352919091205490915081811015610b095760405162461bcd60e51b815260040161036f90611a8c565b60008381526065602090815260408083206001600160a01b038e8116855292528083208585039055908b16825281208054849290610b48908490611a01565b9250508190555050505080610b5c9061199e565b9050610a7d565b50846001600160a01b0316866001600160a01b0316826001600160a01b03167f4a39dc06d4c0dbc64b70af90fd698a233a518aa5d07e595d983b8c0526c8f7fb8787604051610bb3929190611a19565b60405180910390a4610bc9818787878787610e9e565b505050505050565b609780546001600160a01b038381166001600160a01b0319831681179093556040519116919082907f8be0079c531659141344cd1fd0a4f28419497f9722a3daafe3b4186f6b6457e090600090a35050565b816001600160a01b0316836001600160a01b03161415610c975760405162461bcd60e51b815260206004820152602960248201527f455243313135353a2073657474696e6720617070726f76616c20737461747573604482015268103337b91039b2b63360b91b606482015260840161036f565b6001600160a01b03838116600081815260666020908152604080832094871680845294825291829020805460ff191686151590811790915591519182527f17307eab39ab6107e8899845ad3d59bd9653f200f220920489ca2b5937696c31910160405180910390a3505050565b6001600160a01b038416610d2a5760405162461bcd60e51b815260040161036f90611a47565b336000610d3685611003565b90506000610d4385611003565b9050610d53838989858589610e90565b60008681526065602090815260408083206001600160a01b038c16845290915290205485811015610d965760405162461bcd60e51b815260040161036f90611a8c565b60008781526065602090815260408083206001600160a01b038d8116855292528083208985039055908a16825281208054889290610dd5908490611a01565b909155505060408051888152602081018890526001600160a01b03808b16928c821692918816917fc3d58168c5ae7397731d063d5bbf3d657854427343f4c083240f7aacaa2d0f62910160405180910390a4610e35848a8a8a8a8a61104e565b505050505050505050565b60006001600160e01b03198216636cdb3d1360e11b1480610e7157506001600160e01b031982166303a24d0760e21b145b8061039d57506301ffc9a760e01b6001600160e01b031983161461039d565b610bc9868686868686611109565b6001600160a01b0384163b15610bc95760405163bc197c8160e01b81526001600160a01b0385169063bc197c8190610ee29089908990889088908890600401611ad6565b6020604051808303816000875af1925050508015610f1d575060408051601f3d908101601f19168201909252610f1a91810190611b34565b60015b610fca57610f29611b51565b806308c379a01415610f635750610f3e611b6d565b80610f495750610f65565b8060405162461bcd60e51b815260040161036f91906114ef565b505b60405162461bcd60e51b815260206004820152603460248201527f455243313135353a207472616e7366657220746f206e6f6e20455243313135356044820152732932b1b2b4bb32b91034b6b83632b6b2b73a32b960611b606482015260840161036f565b6001600160e01b0319811663bc197c8160e01b14610ffa5760405162461bcd60e51b815260040161036f90611bf7565b50505050505050565b6040805160018082528183019092526060916000919060208083019080368337019050509050828160008151811061103d5761103d611972565b602090810291909101015292915050565b6001600160a01b0384163b15610bc95760405163f23a6e6160e01b81526001600160a01b0385169063f23a6e61906110929089908990889088908890600401611c3f565b6020604051808303816000875af19250505080156110cd575060408051601f3d908101601f191682019092526110ca91810190611b34565b60015b6110d957610f29611b51565b6001600160e01b0319811663f23a6e6160e01b14610ffa5760405162461bcd60e51b815260040161036f90611bf7565b6001600160a01b0385166111915760005b835181101561118f5782818151811061113557611135611972565b602002602001015161012d600086848151811061115457611154611972565b6020026020010151815260200190815260200160002060008282546111799190611a01565b9091555061118890508161199e565b905061111a565b505b6001600160a01b038416610bc95760005b8351811015610ffa5760008482815181106111bf576111bf611972565b6020026020010151905060008483815181106111dd576111dd611972565b60200260200101519050600061012d6000848152602001908152602001600020549050818110156112615760405162461bcd60e51b815260206004820152602860248201527f455243313135353a206275726e20616d6f756e74206578636565647320746f74604482015267616c537570706c7960c01b606482015260840161036f565b600092835261012d60205260409092209103905561127e8161199e565b90506111a2565b82805461129190611937565b90600052602060002090601f0160209004810192826112b357600085556112f9565b82601f106112cc57805160ff19168380011785556112f9565b828001600101855582156112f9579182015b828111156112f95782518255916020019190600101906112de565b50611305929150611309565b5090565b5b80821115611305576000815560010161130a565b80356001600160a01b038116811461133557600080fd5b919050565b6000806040838503121561134d57600080fd5b6113568361131e565b946020939093013593505050565b6001600160e01b0319811681146103e157600080fd5b60006020828403121561138c57600080fd5b813561072281611364565b634e487b7160e01b600052604160045260246000fd5b601f8201601f1916810167ffffffffffffffff811182821017156113d3576113d3611397565b6040525050565b600067ffffffffffffffff8311156113f4576113f4611397565b60405161140b601f8501601f1916602001826113ad565b80915083815284848401111561142057600080fd5b83836020830137600060208583010152509392505050565b60006020828403121561144a57600080fd5b813567ffffffffffffffff81111561146157600080fd5b8201601f8101841361147257600080fd5b611481848235602084016113da565b949350505050565b60006020828403121561149b57600080fd5b5035919050565b6000815180845260005b818110156114c8576020818501810151868301820152016114ac565b818111156114da576000602083870101525b50601f01601f19169290920160200192915050565b60208152600061072260208301846114a2565b600067ffffffffffffffff82111561151c5761151c611397565b5060051b60200190565b600082601f83011261153757600080fd5b8135602061154482611502565b60405161155182826113ad565b83815260059390931b850182019282810191508684111561157157600080fd5b8286015b8481101561158c5780358352918301918301611575565b509695505050505050565b600082601f8301126115a857600080fd5b610722838335602085016113da565b600080600080608085870312156115cd57600080fd5b6115d68561131e565b9350602085013567ffffffffffffffff808211156115f357600080fd5b6115ff88838901611526565b9450604087013591508082111561161557600080fd5b61162188838901611526565b9350606087013591508082111561163757600080fd5b5061164487828801611597565b91505092959194509250565b600080600080600060a0868803121561166857600080fd5b6116718661131e565b945061167f6020870161131e565b9350604086013567ffffffffffffffff8082111561169c57600080fd5b6116a889838a01611526565b945060608801359150808211156116be57600080fd5b6116ca89838a01611526565b935060808801359150808211156116e057600080fd5b506116ed88828901611597565b9150509295509295909350565b6000806040838503121561170d57600080fd5b823567ffffffffffffffff8082111561172557600080fd5b818501915085601f83011261173957600080fd5b8135602061174682611502565b60405161175382826113ad565b83815260059390931b850182019282810191508984111561177357600080fd5b948201945b83861015611798576117898661131e565b82529482019490820190611778565b965050860135925050808211156117ae57600080fd5b506117bb85828601611526565b9150509250929050565b600081518084526020808501945080840160005b838110156117f5578151875295820195908201906001016117d9565b509495945050505050565b60208152600061072260208301846117c5565b6000806040838503121561182657600080fd5b61182f8361131e565b91506020830135801515811461184457600080fd5b809150509250929050565b6000806040838503121561186257600080fd5b61186b8361131e565b91506118796020840161131e565b90509250929050565b600080600080600060a0868803121561189a57600080fd5b6118a38661131e565b94506118b16020870161131e565b93506040860135925060608601359150608086013567ffffffffffffffff8111156118db57600080fd5b6116ed88828901611597565b6000602082840312156118f957600080fd5b6107228261131e565b6020808252818101527f4f776e61626c653a2063616c6c6572206973206e6f7420746865206f776e6572604082015260600190565b600181811c9082168061194b57607f821691505b6020821081141561196c57634e487b7160e01b600052602260045260246000fd5b50919050565b634e487b7160e01b600052603260045260246000fd5b634e487b7160e01b600052601160045260246000fd5b60006000198214156119b2576119b2611988565b5060010190565b60208082526028908201527f455243313135353a2069647320616e6420616d6f756e7473206c656e677468206040820152670dad2e6dac2e8c6d60c31b606082015260800190565b60008219821115611a1457611a14611988565b500190565b604081526000611a2c60408301856117c5565b8281036020840152611a3e81856117c5565b95945050505050565b60208082526025908201527f455243313135353a207472616e7366657220746f20746865207a65726f206164604082015264647265737360d81b606082015260800190565b6020808252602a908201527f455243313135353a20696e73756666696369656e742062616c616e636520666f60408201526939103a3930b739b332b960b11b606082015260800190565b6001600160a01b0386811682528516602082015260a060408201819052600090611b02908301866117c5565b8281036060840152611b1481866117c5565b90508281036080840152611b2881856114a2565b98975050505050505050565b600060208284031215611b4657600080fd5b815161072281611364565b600060033d1115611b6a5760046000803e5060005160e01c5b90565b600060443d1015611b7b5790565b6040516003193d81016004833e81513d67ffffffffffffffff8160248401118184111715611bab57505050505090565b8285019150815181811115611bc35750505050505090565b843d8701016020828501011115611bdd5750505050505090565b611bec602082860101876113ad565b509095945050505050565b60208082526028908201527f455243313135353a204552433131353552656365697665722072656a656374656040820152676420746f6b656e7360c01b606082015260800190565b6001600160a01b03868116825285166020820152604081018490526060810183905260a060808201819052600090611c79908301846114a2565b97965050505050505056fea2646970667358221220fe3ffe9a45cdee148e2612344c7ceb6116897a7ad41e0512cc5c7e707e2e953b64736f6c634300080c0033496e697469616c697a61626c653a20636f6e747261637420697320616c726561",
  "linkReferences": {},
  "deployedLinkReferences": {}
}