{
  "_format": "hh-sol-artifact-1",
  "contractName": "KojoERC1155",
  "sourceName": "contracts/token/KojoERC1155.sol",
  "abi": [
    {
      "anonymous": false,
      "inputs": [
        {
          "indexed": true,
          "internalType": "address",
          "name": "account",
          "type": "address"
        },
        {
          "indexed": true,
          "internalType": "address",
          "name": "operator",
          "type": "address"
        },
        {
          "indexed": false,
          "internalType": "bool",
          "name": "approved",
          "type": "bool"
        }
      ],
      "name": "ApprovalForAll",
      "type": "event"
    },
    {
      "anonymous": false,
      "inputs": [
        {
          "indexed": false,
          "internalType": "uint8",
          "name": "version",
          "type": "uint8"
        }
      ],
      "name": "Initialized",
      "type": "event"
    },
    {
      "anonymous": false,
      "inputs": [
        {
          "indexed": true,
          "internalType": "address",
          "name": "previousOwner",
          "type": "address"
        },
        {
          "indexed": true,
          "internalType": "address",
          "name": "newOwner",
          "type": "address"
        }
      ],
      "name": "OwnershipTransferred",
      "type": "event"
    },
    {
      "anonymous": false,
      "inputs": [
        {
          "indexed": true,
          "internalType": "address",
          "name": "operator",
          "type": "address"
        },
        {
          "indexed": true,
          "internalType": "address",
          "name": "from",
          "type": "address"
        },
        {
          "indexed": true,
          "internalType": "address",
          "name": "to",
          "type": "address"
        },
        {
          "indexed": false,
          "internalType": "uint256[]",
          "name": "ids",
          "type": "uint256[]"
        },
        {
          "indexed": false,
          "internalType": "uint256[]",
          "name": "values",
          "type": "uint256[]"
        }
      ],
      "name": "TransferBatch",
      "type": "event"
    },
    {
      "anonymous": false,
      "inputs": [
        {
          "indexed": true,
          "internalType": "address",
          "name": "operator",
          "type": "address"
        },
        {
          "indexed": true,
          "internalType": "address",
          "name": "from",
          "type": "address"
        },
        {
          "indexed": true,
          "internalType": "address",
          "name": "to",
          "type": "address"
        },
        {
          "indexed": false,
          "internalType": "uint256",
          "name": "id",
          "type": "uint256"
        },
        {
          "indexed": false,
          "internalType": "uint256",
          "name": "value",
          "type": "uint256"
        }
      ],
      "name": "TransferSingle",
      "type": "event"
    },
    {
      "anonymous": false,
      "inputs": [
        {
          "indexed": false,
          "internalType": "string",
          "name": "value",
          "type": "string"
        },
        {
          "indexed": true,
          "internalType": "uint256",
          "name": "id",
          "type": "uint256"
        }
      ],
      "name": "URI",
      "type": "event"
    },
    {
      "inputs": [
        {
          "internalType": "address",
          "name": "account",
          "type": "address"
        },
        {
          "internalType": "uint256",
          "name": "id",
          "type": "uint256"
        }
      ],
      "name": "balanceOf",
      "outputs": [
        {
          "internalType": "uint256",
          "name": "",
          "type": "uint256"
        }
      ],
      "stateMutability": "view",
      "type": "function"
    },
    {
      "inputs": [
        {
          "internalType": "address[]",
          "name": "accounts",
          "type": "address[]"
        },
        {
          "internalType": "uint256[]",
          "name": "ids",
          "type": "uint256[]"
        }
      ],
      "name": "balanceOfBatch",
      "outputs": [
        {
          "internalType": "uint256[]",
          "name": "",
          "type": "uint256[]"
        }
      ],
      "stateMutability": "view",
      "type": "function"
    },
    {
      "inputs": [
        {
          "internalType": "address",
          "name": "account",
          "type": "address"
        },
        {
          "internalType": "uint256",
          "name": "id",
          "type": "uint256"
        },
        {
          "internalType": "uint256",
          "name": "value",
          "type": "uint256"
        }
      ],
      "name": "burn",
      "outputs": [],
      "stateMutability": "nonpayable",
      "type": "function"
    },
    {
      "inputs": [
        {
          "internalType": "address",
          "name": "account",
          "type": "address"
        },
        {
          "internalType": "uint256[]",
          "name": "ids",
          "type": "uint256[]"
        },
        {
          "internalType": "uint256[]",
          "name": "values",
          "type": "uint256[]"
        }
      ],
      "name": "burnBatch",
      "outputs": [],
      "stateMutability": "nonpayable",
      "type": "function"
    },
    {
      "inputs": [
        {
          "internalType": "uint256",
          "name": "id",
          "type": "uint256"
        }
      ],
      "name": "exists",
      "outputs": [
        {
          "internalType": "bool",
          "name": "",
          "type": "bool"
        }
      ],
      "stateMutability": "view",
      "type": "function"
    },
    {
      "inputs": [],
      "name": "fungibleTokenId",
      "outputs": [
        {
          "internalType": "uint256",
          "name": "",
          "type": "uint256"
        }
      ],
      "stateMutability": "view",
      "type": "function"
    },
    {
      "inputs": [
        {
          "internalType": "address",
          "name": "account",
          "type": "address"
        },
        {
          "internalType": "address",
          "name": "operator",
          "type": "address"
        }
      ],
      "name": "isApprovedForAll",
      "outputs": [
        {
          "internalType": "bool",
          "name": "",
          "type": "bool"
        }
      ],
      "stateMutability": "view",
      "type": "function"
    },
    {
      "inputs": [
        {
          "internalType": "address",
          "name": "to",
          "type": "address"
        },
        {
          "internalType": "uint256[]",
          "name": "ids",
          "type": "uint256[]"
        },
        {
          "internalType": "uint256[]",
          "name": "amounts",
          "type": "uint256[]"
        },
        {
          "internalType": "bytes",
          "name": "data",
          "type": "bytes"
        }
      ],
      "name": "mintBatch",
      "outputs": [],
      "stateMutability": "nonpayable",
      "type": "function"
    },
    {
      "inputs": [],
      "name": "nonFungibleTokenCount",
      "outputs": [
        {
          "internalType": "uint256",
          "name": "",
          "type": "uint256"
        }
      ],
      "stateMutability": "view",
      "type": "function"
    },
    {
      "inputs": [],
      "name": "owner",
      "outputs": [
        {
          "internalType": "address",
          "name": "",
          "type": "address"
        }
      ],
      "stateMutability": "view",
      "type": "function"
    },
    {
      "inputs": [],
      "name": "renounceOwnership",
      "outputs": [],
      "stateMutability": "nonpayable",
      "type": "function"
    },
    {
      "inputs": [
        {
          "internalType": "address",
          "name": "from",
          "type": "address"
        },
        {
          "internalType": "address",
          "name": "to",
          "type": "address"
        },
        {
          "internalType": "uint256[]",
          "name": "ids",
          "type": "uint256[]"
        },
        {
          "internalType": "uint256[]",
          "name": "amounts",
          "type": "uint256[]"
        },
        {
          "internalType": "bytes",
          "name": "data",
          "type": "bytes"
        }
      ],
      "name": "safeBatchTransferFrom",
      "outputs": [],
      "stateMutability": "nonpayable",
      "type": "function"
    },
    {
      "inputs": [
        {
          "internalType": "address",
          "name": "from",
          "type": "address"
        },
        {
          "internalType": "address",
          "name": "to",
          "type": "address"
        },
        {
          "internalType": "uint256",
          "name": "id",
          "type": "uint256"
        },
        {
          "internalType": "uint256",
          "name": "amount",
          "type": "uint256"
        },
        {
          "internalType": "bytes",
          "name": "data",
          "type": "bytes"
        }
      ],
      "name": "safeTransferFrom",
      "outputs": [],
      "stateMutability": "nonpayable",
      "type": "function"
    },
    {
      "inputs": [
        {
          "internalType": "address",
          "name": "operator",
          "type": "address"
        },
        {
          "internalType": "bool",
          "name": "approved",
          "type": "bool"
        }
      ],
      "name": "setApprovalForAll",
      "outputs": [],
      "stateMutability": "nonpayable",
      "type": "function"
    },
    {
      "inputs": [
        {
          "internalType": "uint256",
          "name": "tokenId",
          "type": "uint256"
        },
        {
          "internalType": "string",
          "name": "_uri",
          "type": "string"
        }
      ],
      "name": "setTokenUri",
      "outputs": [],
      "stateMutability": "nonpayable",
      "type": "function"
    },
    {
      "inputs": [
        {
          "internalType": "string",
          "name": "newuri",
          "type": "string"
        }
      ],
      "name": "setURI",
      "outputs": [],
      "stateMutability": "nonpayable",
      "type": "function"
    },
    {
      "inputs": [
        {
          "internalType": "bytes4",
          "name": "interfaceId",
          "type": "bytes4"
        }
      ],
      "name": "supportsInterface",
      "outputs": [
        {
          "internalType": "bool",
          "name": "",
          "type": "bool"
        }
      ],
      "stateMutability": "view",
      "type": "function"
    },
    {
      "inputs": [
        {
          "internalType": "uint256",
          "name": "id",
          "type": "uint256"
        }
      ],
      "name": "totalSupply",
      "outputs": [
        {
          "internalType": "uint256",
          "name": "",
          "type": "uint256"
        }
      ],
      "stateMutability": "view",
      "type": "function"
    },
    {
      "inputs": [
        {
          "internalType": "address",
          "name": "newOwner",
          "type": "address"
        }
      ],
      "name": "transferOwnership",
      "outputs": [],
      "stateMutability": "nonpayable",
      "type": "function"
    },
    {
      "inputs": [
        {
          "internalType": "uint256",
          "name": "tokenId",
          "type": "uint256"
        }
      ],
      "name": "uri",
      "outputs": [
        {
          "internalType": "string",
          "name": "",
          "type": "string"
        }
      ],
      "stateMutability": "view",
      "type": "function"
    }
  ],
  "bytecode": "0x608060405234801561001057600080fd5b50612130806100206000396000f3fe608060405234801561001057600080fd5b506004361061012b5760003560e01c80636b20c454116100ad578063bd85b03911610071578063bd85b03914610286578063e985e9c5146102a6578063f242432a146102e2578063f2fde38b146102f5578063f5298aca1461030857600080fd5b80636b20c45414610233578063715018a6146102465780638da5cb5b1461024e578063a22cb46514610269578063b4daaf551461027c57600080fd5b80632eb2c2d6116100f45780632eb2c2d6146101c157806345e8eca8146101d45780634e1273f4146101de5780634f558e79146101fe57806357f7789e1461022057600080fd5b8062fdd58e1461013057806301ffc9a71461015657806302fe5305146101795780630e89341c1461018e5780631f7fdffa146101ae575b600080fd5b61014361013e366004611613565b61031b565b6040519081526020015b60405180910390f35b610169610164366004611653565b6103b4565b604051901515815260200161014d565b61018c61018736600461172e565b610406565b005b6101a161019c36600461176b565b61043c565b60405161014d91906117d1565b61018c6101bc366004611879565b6104df565b61018c6101cf366004611912565b61051b565b61014361012f5481565b6101f16101ec3660046119bc565b6105b2565b60405161014d9190611ac2565b61016961020c36600461176b565b600090815260fb6020526040902054151590565b61018c61022e366004611ad5565b6106dc565b61018c610241366004611b12565b61072b565b61018c61076e565b6097546040516001600160a01b03909116815260200161014d565b61018c610277366004611b86565b6107a4565b61014361012e5481565b61014361029436600461176b565b600090815260fb602052604090205490565b6101696102b4366004611bc2565b6001600160a01b03918216600090815260666020908152604080832093909416825291909152205460ff1690565b61018c6102f0366004611bf5565b6107b3565b61018c610303366004611c5a565b6107f8565b61018c610316366004611c75565b610890565b60006001600160a01b03831661038c5760405162461bcd60e51b815260206004820152602b60248201527f455243313135353a2062616c616e636520717565727920666f7220746865207a60448201526a65726f206164647265737360a81b60648201526084015b60405180910390fd5b5060009081526065602090815260408083206001600160a01b03949094168352929052205490565b60006001600160e01b03198216636cdb3d1360e11b14806103e557506001600160e01b031982166303a24d0760e21b145b8061040057506301ffc9a760e01b6001600160e01b03198316145b92915050565b6097546001600160a01b031633146104305760405162461bcd60e51b815260040161038390611ca8565b610439816108d3565b50565b600081815261012d6020526040902080546060919061045a90611cdd565b80601f016020809104026020016040519081016040528092919081815260200182805461048690611cdd565b80156104d35780601f106104a8576101008083540402835291602001916104d3565b820191906000526020600020905b8154815290600101906020018083116104b657829003601f168201915b50505050509050919050565b6097546001600160a01b031633146105095760405162461bcd60e51b815260040161038390611ca8565b610515848484846108e6565b50505050565b6001600160a01b038516331480610537575061053785336102b4565b61059e5760405162461bcd60e51b815260206004820152603260248201527f455243313135353a207472616e736665722063616c6c6572206973206e6f74206044820152711bdddb995c881b9bdc88185c1c1c9bdd995960721b6064820152608401610383565b6105ab8585858585610a7b565b5050505050565b606081518351146106175760405162461bcd60e51b815260206004820152602960248201527f455243313135353a206163636f756e747320616e6420696473206c656e677468604482015268040dad2e6dac2e8c6d60bb1b6064820152608401610383565b6000835167ffffffffffffffff81111561063357610633611677565b60405190808252806020026020018201604052801561065c578160200160208202803683370190505b50905060005b84518110156106d4576106a785828151811061068057610680611d18565b602002602001015185838151811061069a5761069a611d18565b602002602001015161031b565b8282815181106106b9576106b9611d18565b60209081029190910101526106cd81611d44565b9050610662565b509392505050565b6097546001600160a01b031633146107065760405162461bcd60e51b815260040161038390611ca8565b600082815261012d6020908152604090912082516107269284019061155e565b505050565b6001600160a01b038316331480610747575061074783336102b4565b6107635760405162461bcd60e51b815260040161038390611d5f565b610726838383610c28565b6097546001600160a01b031633146107985760405162461bcd60e51b815260040161038390611ca8565b6107a26000610dc7565b565b6107af338383610e19565b5050565b6001600160a01b0385163314806107cf57506107cf85336102b4565b6107eb5760405162461bcd60e51b815260040161038390611d5f565b6105ab8585858585610efa565b6097546001600160a01b031633146108225760405162461bcd60e51b815260040161038390611ca8565b6001600160a01b0381166108875760405162461bcd60e51b815260206004820152602660248201527f4f776e61626c653a206e6577206f776e657220697320746865207a65726f206160448201526564647265737360d01b6064820152608401610383565b61043981610dc7565b6001600160a01b0383163314806108ac57506108ac83336102b4565b6108c85760405162461bcd60e51b815260040161038390611d5f565b610726838383611036565b80516107af90606790602084019061155e565b6001600160a01b0384166109465760405162461bcd60e51b815260206004820152602160248201527f455243313135353a206d696e7420746f20746865207a65726f206164647265736044820152607360f81b6064820152608401610383565b81518351146109675760405162461bcd60e51b815260040161038390611da8565b3361097781600087878787611157565b60005b8451811015610a135783818151811061099557610995611d18565b6020026020010151606560008784815181106109b3576109b3611d18565b602002602001015181526020019081526020016000206000886001600160a01b03166001600160a01b0316815260200190815260200160002060008282546109fb9190611df0565b90915550819050610a0b81611d44565b91505061097a565b50846001600160a01b031660006001600160a01b0316826001600160a01b03167f4a39dc06d4c0dbc64b70af90fd698a233a518aa5d07e595d983b8c0526c8f7fb8787604051610a64929190611e08565b60405180910390a46105ab81600087878787611165565b8151835114610a9c5760405162461bcd60e51b815260040161038390611da8565b6001600160a01b038416610ac25760405162461bcd60e51b815260040161038390611e36565b33610ad1818787878787611157565b60005b8451811015610bba576000858281518110610af157610af1611d18565b602002602001015190506000858381518110610b0f57610b0f611d18565b60209081029190910181015160008481526065835260408082206001600160a01b038e168352909352919091205490915081811015610b605760405162461bcd60e51b815260040161038390611e7b565b60008381526065602090815260408083206001600160a01b038e8116855292528083208585039055908b16825281208054849290610b9f908490611df0565b9250508190555050505080610bb390611d44565b9050610ad4565b50846001600160a01b0316866001600160a01b0316826001600160a01b03167f4a39dc06d4c0dbc64b70af90fd698a233a518aa5d07e595d983b8c0526c8f7fb8787604051610c0a929190611e08565b60405180910390a4610c20818787878787611165565b505050505050565b6001600160a01b038316610c4e5760405162461bcd60e51b815260040161038390611ec5565b8051825114610c6f5760405162461bcd60e51b815260040161038390611da8565b6000339050610c9281856000868660405180602001604052806000815250611157565b60005b8351811015610d5a576000848281518110610cb257610cb2611d18565b602002602001015190506000848381518110610cd057610cd0611d18565b60209081029190910181015160008481526065835260408082206001600160a01b038c168352909352919091205490915081811015610d215760405162461bcd60e51b815260040161038390611f08565b60009283526065602090815260408085206001600160a01b038b1686529091529092209103905580610d5281611d44565b915050610c95565b5060006001600160a01b0316846001600160a01b0316826001600160a01b03167f4a39dc06d4c0dbc64b70af90fd698a233a518aa5d07e595d983b8c0526c8f7fb8686604051610dab929190611e08565b60405180910390a4604080516020810190915260009052610515565b609780546001600160a01b038381166001600160a01b0319831681179093556040519116919082907f8be0079c531659141344cd1fd0a4f28419497f9722a3daafe3b4186f6b6457e090600090a35050565b816001600160a01b0316836001600160a01b03161415610e8d5760405162461bcd60e51b815260206004820152602960248201527f455243313135353a2073657474696e6720617070726f76616c20737461747573604482015268103337b91039b2b63360b91b6064820152608401610383565b6001600160a01b03838116600081815260666020908152604080832094871680845294825291829020805460ff191686151590811790915591519182527f17307eab39ab6107e8899845ad3d59bd9653f200f220920489ca2b5937696c31910160405180910390a3505050565b6001600160a01b038416610f205760405162461bcd60e51b815260040161038390611e36565b336000610f2c856112d0565b90506000610f39856112d0565b9050610f49838989858589611157565b60008681526065602090815260408083206001600160a01b038c16845290915290205485811015610f8c5760405162461bcd60e51b815260040161038390611e7b565b60008781526065602090815260408083206001600160a01b038d8116855292528083208985039055908a16825281208054889290610fcb908490611df0565b909155505060408051888152602081018890526001600160a01b03808b16928c821692918816917fc3d58168c5ae7397731d063d5bbf3d657854427343f4c083240f7aacaa2d0f62910160405180910390a461102b848a8a8a8a8a61131b565b505050505050505050565b6001600160a01b03831661105c5760405162461bcd60e51b815260040161038390611ec5565b336000611068846112d0565b90506000611075846112d0565b905061109583876000858560405180602001604052806000815250611157565b60008581526065602090815260408083206001600160a01b038a168452909152902054848110156110d85760405162461bcd60e51b815260040161038390611f08565b60008681526065602090815260408083206001600160a01b038b81168086529184528285208a8703905582518b81529384018a90529092908816917fc3d58168c5ae7397731d063d5bbf3d657854427343f4c083240f7aacaa2d0f62910160405180910390a46040805160208101909152600090525b50505050505050565b610c208686868686866113e5565b6001600160a01b0384163b15610c205760405163bc197c8160e01b81526001600160a01b0385169063bc197c81906111a99089908990889088908890600401611f4c565b602060405180830381600087803b1580156111c357600080fd5b505af19250505080156111f3575060408051601f3d908101601f191682019092526111f091810190611faa565b60015b6112a0576111ff611fc7565b806308c379a014156112395750611214611fe3565b8061121f575061123b565b8060405162461bcd60e51b815260040161038391906117d1565b505b60405162461bcd60e51b815260206004820152603460248201527f455243313135353a207472616e7366657220746f206e6f6e20455243313135356044820152732932b1b2b4bb32b91034b6b83632b6b2b73a32b960611b6064820152608401610383565b6001600160e01b0319811663bc197c8160e01b1461114e5760405162461bcd60e51b81526004016103839061206d565b6040805160018082528183019092526060916000919060208083019080368337019050509050828160008151811061130a5761130a611d18565b602090810291909101015292915050565b6001600160a01b0384163b15610c205760405163f23a6e6160e01b81526001600160a01b0385169063f23a6e619061135f90899089908890889088906004016120b5565b602060405180830381600087803b15801561137957600080fd5b505af19250505080156113a9575060408051601f3d908101601f191682019092526113a691810190611faa565b60015b6113b5576111ff611fc7565b6001600160e01b0319811663f23a6e6160e01b1461114e5760405162461bcd60e51b81526004016103839061206d565b6001600160a01b03851661146c5760005b835181101561146a5782818151811061141157611411611d18565b602002602001015160fb600086848151811061142f5761142f611d18565b6020026020010151815260200190815260200160002060008282546114549190611df0565b90915550611463905081611d44565b90506113f6565b505b6001600160a01b038416610c205760005b835181101561114e57600084828151811061149a5761149a611d18565b6020026020010151905060008483815181106114b8576114b8611d18565b60200260200101519050600060fb60008481526020019081526020016000205490508181101561153b5760405162461bcd60e51b815260206004820152602860248201527f455243313135353a206275726e20616d6f756e74206578636565647320746f74604482015267616c537570706c7960c01b6064820152608401610383565b600092835260fb60205260409092209103905561155781611d44565b905061147d565b82805461156a90611cdd565b90600052602060002090601f01602090048101928261158c57600085556115d2565b82601f106115a557805160ff19168380011785556115d2565b828001600101855582156115d2579182015b828111156115d25782518255916020019190600101906115b7565b506115de9291506115e2565b5090565b5b808211156115de57600081556001016115e3565b80356001600160a01b038116811461160e57600080fd5b919050565b6000806040838503121561162657600080fd5b61162f836115f7565b946020939093013593505050565b6001600160e01b03198116811461043957600080fd5b60006020828403121561166557600080fd5b81356116708161163d565b9392505050565b634e487b7160e01b600052604160045260246000fd5b601f8201601f1916810167ffffffffffffffff811182821017156116b3576116b3611677565b6040525050565b600082601f8301126116cb57600080fd5b813567ffffffffffffffff8111156116e5576116e5611677565b6040516116fc601f8301601f19166020018261168d565b81815284602083860101111561171157600080fd5b816020850160208301376000918101602001919091529392505050565b60006020828403121561174057600080fd5b813567ffffffffffffffff81111561175757600080fd5b611763848285016116ba565b949350505050565b60006020828403121561177d57600080fd5b5035919050565b6000815180845260005b818110156117aa5760208185018101518683018201520161178e565b818111156117bc576000602083870101525b50601f01601f19169290920160200192915050565b6020815260006116706020830184611784565b600067ffffffffffffffff8211156117fe576117fe611677565b5060051b60200190565b600082601f83011261181957600080fd5b81356020611826826117e4565b604051611833828261168d565b83815260059390931b850182019282810191508684111561185357600080fd5b8286015b8481101561186e5780358352918301918301611857565b509695505050505050565b6000806000806080858703121561188f57600080fd5b611898856115f7565b9350602085013567ffffffffffffffff808211156118b557600080fd5b6118c188838901611808565b945060408701359150808211156118d757600080fd5b6118e388838901611808565b935060608701359150808211156118f957600080fd5b50611906878288016116ba565b91505092959194509250565b600080600080600060a0868803121561192a57600080fd5b611933866115f7565b9450611941602087016115f7565b9350604086013567ffffffffffffffff8082111561195e57600080fd5b61196a89838a01611808565b9450606088013591508082111561198057600080fd5b61198c89838a01611808565b935060808801359150808211156119a257600080fd5b506119af888289016116ba565b9150509295509295909350565b600080604083850312156119cf57600080fd5b823567ffffffffffffffff808211156119e757600080fd5b818501915085601f8301126119fb57600080fd5b81356020611a08826117e4565b604051611a15828261168d565b83815260059390931b8501820192828101915089841115611a3557600080fd5b948201945b83861015611a5a57611a4b866115f7565b82529482019490820190611a3a565b96505086013592505080821115611a7057600080fd5b50611a7d85828601611808565b9150509250929050565b600081518084526020808501945080840160005b83811015611ab757815187529582019590820190600101611a9b565b509495945050505050565b6020815260006116706020830184611a87565b60008060408385031215611ae857600080fd5b82359150602083013567ffffffffffffffff811115611b0657600080fd5b611a7d858286016116ba565b600080600060608486031215611b2757600080fd5b611b30846115f7565b9250602084013567ffffffffffffffff80821115611b4d57600080fd5b611b5987838801611808565b93506040860135915080821115611b6f57600080fd5b50611b7c86828701611808565b9150509250925092565b60008060408385031215611b9957600080fd5b611ba2836115f7565b915060208301358015158114611bb757600080fd5b809150509250929050565b60008060408385031215611bd557600080fd5b611bde836115f7565b9150611bec602084016115f7565b90509250929050565b600080600080600060a08688031215611c0d57600080fd5b611c16866115f7565b9450611c24602087016115f7565b93506040860135925060608601359150608086013567ffffffffffffffff811115611c4e57600080fd5b6119af888289016116ba565b600060208284031215611c6c57600080fd5b611670826115f7565b600080600060608486031215611c8a57600080fd5b611c93846115f7565b95602085013595506040909401359392505050565b6020808252818101527f4f776e61626c653a2063616c6c6572206973206e6f7420746865206f776e6572604082015260600190565b600181811c90821680611cf157607f821691505b60208210811415611d1257634e487b7160e01b600052602260045260246000fd5b50919050565b634e487b7160e01b600052603260045260246000fd5b634e487b7160e01b600052601160045260246000fd5b6000600019821415611d5857611d58611d2e565b5060010190565b60208082526029908201527f455243313135353a2063616c6c6572206973206e6f74206f776e6572206e6f7260408201526808185c1c1c9bdd995960ba1b606082015260800190565b60208082526028908201527f455243313135353a2069647320616e6420616d6f756e7473206c656e677468206040820152670dad2e6dac2e8c6d60c31b606082015260800190565b60008219821115611e0357611e03611d2e565b500190565b604081526000611e1b6040830185611a87565b8281036020840152611e2d8185611a87565b95945050505050565b60208082526025908201527f455243313135353a207472616e7366657220746f20746865207a65726f206164604082015264647265737360d81b606082015260800190565b6020808252602a908201527f455243313135353a20696e73756666696369656e742062616c616e636520666f60408201526939103a3930b739b332b960b11b606082015260800190565b60208082526023908201527f455243313135353a206275726e2066726f6d20746865207a65726f206164647260408201526265737360e81b606082015260800190565b60208082526024908201527f455243313135353a206275726e20616d6f756e7420657863656564732062616c604082015263616e636560e01b606082015260800190565b6001600160a01b0386811682528516602082015260a060408201819052600090611f7890830186611a87565b8281036060840152611f8a8186611a87565b90508281036080840152611f9e8185611784565b98975050505050505050565b600060208284031215611fbc57600080fd5b81516116708161163d565b600060033d1115611fe05760046000803e5060005160e01c5b90565b600060443d1015611ff15790565b6040516003193d81016004833e81513d67ffffffffffffffff816024840111818411171561202157505050505090565b82850191508151818111156120395750505050505090565b843d87010160208285010111156120535750505050505090565b6120626020828601018761168d565b509095945050505050565b60208082526028908201527f455243313135353a204552433131353552656365697665722072656a656374656040820152676420746f6b656e7360c01b606082015260800190565b6001600160a01b03868116825285166020820152604081018490526060810183905260a0608082018190526000906120ef90830184611784565b97965050505050505056fea264697066735822122046cc49192d5b2040297644b6664bd68e39aac1f5e7ce3cc0cc2af2b6e1cbe83f64736f6c63430008090033",
  "linkReferences": {},
  "deployedLinkReferences": {}
}