{
  "_format": "hh-sol-artifact-1",
  "contractName": "KojoERC1155",
  "sourceName": "contracts/token/KojoERC1155.sol",
  "abi": [
    {
      "inputs": [],
      "stateMutability": "nonpayable",
      "type": "constructor"
    },
    {
      "anonymous": false,
      "inputs": [
        {
          "indexed": true,
          "internalType": "address",
          "name": "account",
          "type": "address"
        },
        {
          "indexed": true,
          "internalType": "address",
          "name": "operator",
          "type": "address"
        },
        {
          "indexed": false,
          "internalType": "bool",
          "name": "approved",
          "type": "bool"
        }
      ],
      "name": "ApprovalForAll",
      "type": "event"
    },
    {
      "anonymous": false,
      "inputs": [
        {
          "indexed": false,
          "internalType": "uint8",
          "name": "version",
          "type": "uint8"
        }
      ],
      "name": "Initialized",
      "type": "event"
    },
    {
      "anonymous": false,
      "inputs": [
        {
          "indexed": true,
          "internalType": "address",
          "name": "previousOwner",
          "type": "address"
        },
        {
          "indexed": true,
          "internalType": "address",
          "name": "newOwner",
          "type": "address"
        }
      ],
      "name": "OwnershipTransferred",
      "type": "event"
    },
    {
      "anonymous": false,
      "inputs": [
        {
          "indexed": true,
          "internalType": "address",
          "name": "operator",
          "type": "address"
        },
        {
          "indexed": true,
          "internalType": "address",
          "name": "from",
          "type": "address"
        },
        {
          "indexed": true,
          "internalType": "address",
          "name": "to",
          "type": "address"
        },
        {
          "indexed": false,
          "internalType": "uint256[]",
          "name": "ids",
          "type": "uint256[]"
        },
        {
          "indexed": false,
          "internalType": "uint256[]",
          "name": "values",
          "type": "uint256[]"
        }
      ],
      "name": "TransferBatch",
      "type": "event"
    },
    {
      "anonymous": false,
      "inputs": [
        {
          "indexed": true,
          "internalType": "address",
          "name": "operator",
          "type": "address"
        },
        {
          "indexed": true,
          "internalType": "address",
          "name": "from",
          "type": "address"
        },
        {
          "indexed": true,
          "internalType": "address",
          "name": "to",
          "type": "address"
        },
        {
          "indexed": false,
          "internalType": "uint256",
          "name": "id",
          "type": "uint256"
        },
        {
          "indexed": false,
          "internalType": "uint256",
          "name": "value",
          "type": "uint256"
        }
      ],
      "name": "TransferSingle",
      "type": "event"
    },
    {
      "anonymous": false,
      "inputs": [
        {
          "indexed": false,
          "internalType": "string",
          "name": "value",
          "type": "string"
        },
        {
          "indexed": true,
          "internalType": "uint256",
          "name": "id",
          "type": "uint256"
        }
      ],
      "name": "URI",
      "type": "event"
    },
    {
      "inputs": [
        {
          "internalType": "address",
          "name": "account",
          "type": "address"
        },
        {
          "internalType": "uint256",
          "name": "id",
          "type": "uint256"
        }
      ],
      "name": "balanceOf",
      "outputs": [
        {
          "internalType": "uint256",
          "name": "",
          "type": "uint256"
        }
      ],
      "stateMutability": "view",
      "type": "function"
    },
    {
      "inputs": [
        {
          "internalType": "address[]",
          "name": "accounts",
          "type": "address[]"
        },
        {
          "internalType": "uint256[]",
          "name": "ids",
          "type": "uint256[]"
        }
      ],
      "name": "balanceOfBatch",
      "outputs": [
        {
          "internalType": "uint256[]",
          "name": "",
          "type": "uint256[]"
        }
      ],
      "stateMutability": "view",
      "type": "function"
    },
    {
      "inputs": [
        {
          "internalType": "uint256",
          "name": "id",
          "type": "uint256"
        }
      ],
      "name": "exists",
      "outputs": [
        {
          "internalType": "bool",
          "name": "",
          "type": "bool"
        }
      ],
      "stateMutability": "view",
      "type": "function"
    },
    {
      "inputs": [],
      "name": "fungibleTokenId",
      "outputs": [
        {
          "internalType": "uint256",
          "name": "",
          "type": "uint256"
        }
      ],
      "stateMutability": "view",
      "type": "function"
    },
    {
      "inputs": [
        {
          "internalType": "address",
          "name": "account",
          "type": "address"
        },
        {
          "internalType": "address",
          "name": "operator",
          "type": "address"
        }
      ],
      "name": "isApprovedForAll",
      "outputs": [
        {
          "internalType": "bool",
          "name": "",
          "type": "bool"
        }
      ],
      "stateMutability": "view",
      "type": "function"
    },
    {
      "inputs": [
        {
          "internalType": "address",
          "name": "to",
          "type": "address"
        },
        {
          "internalType": "uint256[]",
          "name": "ids",
          "type": "uint256[]"
        },
        {
          "internalType": "uint256[]",
          "name": "amounts",
          "type": "uint256[]"
        },
        {
          "internalType": "bytes",
          "name": "data",
          "type": "bytes"
        }
      ],
      "name": "mintBatch",
      "outputs": [],
      "stateMutability": "nonpayable",
      "type": "function"
    },
    {
      "inputs": [],
      "name": "nonFungibleTokenCount",
      "outputs": [
        {
          "internalType": "uint256",
          "name": "",
          "type": "uint256"
        }
      ],
      "stateMutability": "view",
      "type": "function"
    },
    {
      "inputs": [
        {
          "internalType": "address",
          "name": "",
          "type": "address"
        },
        {
          "internalType": "address",
          "name": "",
          "type": "address"
        },
        {
          "internalType": "uint256[]",
          "name": "",
          "type": "uint256[]"
        },
        {
          "internalType": "uint256[]",
          "name": "",
          "type": "uint256[]"
        },
        {
          "internalType": "bytes",
          "name": "",
          "type": "bytes"
        }
      ],
      "name": "onERC1155BatchReceived",
      "outputs": [
        {
          "internalType": "bytes4",
          "name": "",
          "type": "bytes4"
        }
      ],
      "stateMutability": "nonpayable",
      "type": "function"
    },
    {
      "inputs": [
        {
          "internalType": "address",
          "name": "",
          "type": "address"
        },
        {
          "internalType": "address",
          "name": "",
          "type": "address"
        },
        {
          "internalType": "uint256",
          "name": "",
          "type": "uint256"
        },
        {
          "internalType": "uint256",
          "name": "",
          "type": "uint256"
        },
        {
          "internalType": "bytes",
          "name": "",
          "type": "bytes"
        }
      ],
      "name": "onERC1155Received",
      "outputs": [
        {
          "internalType": "bytes4",
          "name": "",
          "type": "bytes4"
        }
      ],
      "stateMutability": "nonpayable",
      "type": "function"
    },
    {
      "inputs": [],
      "name": "owner",
      "outputs": [
        {
          "internalType": "address",
          "name": "",
          "type": "address"
        }
      ],
      "stateMutability": "view",
      "type": "function"
    },
    {
      "inputs": [],
      "name": "renounceOwnership",
      "outputs": [],
      "stateMutability": "nonpayable",
      "type": "function"
    },
    {
      "inputs": [
        {
          "internalType": "address",
          "name": "from",
          "type": "address"
        },
        {
          "internalType": "address",
          "name": "to",
          "type": "address"
        },
        {
          "internalType": "uint256[]",
          "name": "ids",
          "type": "uint256[]"
        },
        {
          "internalType": "uint256[]",
          "name": "amounts",
          "type": "uint256[]"
        },
        {
          "internalType": "bytes",
          "name": "data",
          "type": "bytes"
        }
      ],
      "name": "safeBatchTransferFrom",
      "outputs": [],
      "stateMutability": "nonpayable",
      "type": "function"
    },
    {
      "inputs": [
        {
          "internalType": "address",
          "name": "from",
          "type": "address"
        },
        {
          "internalType": "address",
          "name": "to",
          "type": "address"
        },
        {
          "internalType": "uint256",
          "name": "id",
          "type": "uint256"
        },
        {
          "internalType": "uint256",
          "name": "amount",
          "type": "uint256"
        },
        {
          "internalType": "bytes",
          "name": "data",
          "type": "bytes"
        }
      ],
      "name": "safeTransferFrom",
      "outputs": [],
      "stateMutability": "nonpayable",
      "type": "function"
    },
    {
      "inputs": [
        {
          "internalType": "address",
          "name": "operator",
          "type": "address"
        },
        {
          "internalType": "bool",
          "name": "approved",
          "type": "bool"
        }
      ],
      "name": "setApprovalForAll",
      "outputs": [],
      "stateMutability": "nonpayable",
      "type": "function"
    },
    {
      "inputs": [
        {
          "internalType": "uint256",
          "name": "tokenId",
          "type": "uint256"
        },
        {
          "internalType": "string",
          "name": "_uri",
          "type": "string"
        }
      ],
      "name": "setTokenUri",
      "outputs": [],
      "stateMutability": "nonpayable",
      "type": "function"
    },
    {
      "inputs": [
        {
          "internalType": "string",
          "name": "newuri",
          "type": "string"
        }
      ],
      "name": "setURI",
      "outputs": [],
      "stateMutability": "nonpayable",
      "type": "function"
    },
    {
      "inputs": [
        {
          "internalType": "bytes4",
          "name": "interfaceId",
          "type": "bytes4"
        }
      ],
      "name": "supportsInterface",
      "outputs": [
        {
          "internalType": "bool",
          "name": "",
          "type": "bool"
        }
      ],
      "stateMutability": "view",
      "type": "function"
    },
    {
      "inputs": [
        {
          "internalType": "uint256",
          "name": "id",
          "type": "uint256"
        }
      ],
      "name": "totalSupply",
      "outputs": [
        {
          "internalType": "uint256",
          "name": "",
          "type": "uint256"
        }
      ],
      "stateMutability": "view",
      "type": "function"
    },
    {
      "inputs": [
        {
          "internalType": "address",
          "name": "newOwner",
          "type": "address"
        }
      ],
      "name": "transferOwnership",
      "outputs": [],
      "stateMutability": "nonpayable",
      "type": "function"
    },
    {
      "inputs": [
        {
          "internalType": "uint256",
          "name": "tokenId",
          "type": "uint256"
        }
      ],
      "name": "uri",
      "outputs": [
        {
          "internalType": "string",
          "name": "",
          "type": "string"
        }
      ],
      "stateMutability": "view",
      "type": "function"
    }
  ],
  "bytecode": "0x60806040523480156200001157600080fd5b506200001c62000022565b62000152565b6200002e60ff62000031565b50565b60008054610100900460ff1615620000ca578160ff1660011480156200006a575062000068306200014360201b620008811760201c565b155b620000c25760405162461bcd60e51b815260206004820152602e602482015260008051602062001e9983398151915260448201526d191e481a5b9a5d1a585b1a5e995960921b60648201526084015b60405180910390fd5b506000919050565b60005460ff808416911610620001295760405162461bcd60e51b815260206004820152602e602482015260008051602062001e9983398151915260448201526d191e481a5b9a5d1a585b1a5e995960921b6064820152608401620000b9565b506000805460ff191660ff92909216919091179055600190565b6001600160a01b03163b151590565b611d3780620001626000396000f3fe608060405234801561001057600080fd5b506004361061012b5760003560e01c8063715018a6116100ad578063bd85b03911610071578063bd85b039146102ac578063e985e9c5146102cd578063f23a6e6114610309578063f242432a14610328578063f2fde38b1461033b57600080fd5b8063715018a6146102345780638da5cb5b1461023c578063a22cb46514610257578063b4daaf551461026a578063bc197c811461027457600080fd5b80632eb2c2d6116100f45780632eb2c2d6146101c157806345e8eca8146101d45780634e1273f4146101de5780634f558e79146101fe57806357f7789e1461022157600080fd5b8062fdd58e1461013057806301ffc9a71461015657806302fe5305146101795780630e89341c1461018e5780631f7fdffa146101ae575b600080fd5b61014361013e366004611391565b61034e565b6040519081526020015b60405180910390f35b6101696101643660046113d1565b6103e7565b604051901515815260200161014d565b61018c6101873660046114ac565b6103f8565b005b6101a161019c3660046114e9565b61042e565b60405161014d919061154f565b61018c6101bc3660046115f7565b6104d1565b61018c6101cf366004611690565b61050d565b6101436101615481565b6101f16101ec36600461173a565b6105a4565b60405161014d9190611840565b61016961020c3660046114e9565b600090815261012d6020526040902054151590565b61018c61022f366004611853565b6106ce565b61018c61071d565b6097546040516001600160a01b03909116815260200161014d565b61018c610265366004611890565b610753565b6101436101605481565b610293610282366004611690565b63bc197c8160e01b95945050505050565b6040516001600160e01b0319909116815260200161014d565b6101436102ba3660046114e9565b600090815261012d602052604090205490565b6101696102db3660046118cc565b6001600160a01b03918216600090815260666020908152604080832093909416825291909152205460ff1690565b6102936103173660046118ff565b63f23a6e6160e01b95945050505050565b61018c6103363660046118ff565b610762565b61018c610349366004611964565b6107e9565b60006001600160a01b0383166103bf5760405162461bcd60e51b815260206004820152602b60248201527f455243313135353a2062616c616e636520717565727920666f7220746865207a60448201526a65726f206164647265737360a81b60648201526084015b60405180910390fd5b5060009081526065602090815260408083206001600160a01b03949094168352929052205490565b60006103f282610890565b92915050565b6097546001600160a01b031633146104225760405162461bcd60e51b81526004016103b69061197f565b61042b816108b5565b50565b600081815261015f6020526040902080546060919061044c906119b4565b80601f0160208091040260200160405190810160405280929190818152602001828054610478906119b4565b80156104c55780601f1061049a576101008083540402835291602001916104c5565b820191906000526020600020905b8154815290600101906020018083116104a857829003601f168201915b50505050509050919050565b6097546001600160a01b031633146104fb5760405162461bcd60e51b81526004016103b69061197f565b610507848484846108c8565b50505050565b6001600160a01b038516331480610529575061052985336102db565b6105905760405162461bcd60e51b815260206004820152603260248201527f455243313135353a207472616e736665722063616c6c6572206973206e6f74206044820152711bdddb995c881b9bdc88185c1c1c9bdd995960721b60648201526084016103b6565b61059d8585858585610a5d565b5050505050565b606081518351146106095760405162461bcd60e51b815260206004820152602960248201527f455243313135353a206163636f756e747320616e6420696473206c656e677468604482015268040dad2e6dac2e8c6d60bb1b60648201526084016103b6565b6000835167ffffffffffffffff811115610625576106256113f5565b60405190808252806020026020018201604052801561064e578160200160208202803683370190505b50905060005b84518110156106c657610699858281518110610672576106726119ef565b602002602001015185838151811061068c5761068c6119ef565b602002602001015161034e565b8282815181106106ab576106ab6119ef565b60209081029190910101526106bf81611a1b565b9050610654565b509392505050565b6097546001600160a01b031633146106f85760405162461bcd60e51b81526004016103b69061197f565b600082815261015f602090815260409091208251610718928401906112dc565b505050565b6097546001600160a01b031633146107475760405162461bcd60e51b81526004016103b69061197f565b6107516000610c0a565b565b61075e338383610c5c565b5050565b6001600160a01b03851633148061077e575061077e85336102db565b6107dc5760405162461bcd60e51b815260206004820152602960248201527f455243313135353a2063616c6c6572206973206e6f74206f776e6572206e6f7260448201526808185c1c1c9bdd995960ba1b60648201526084016103b6565b61059d8585858585610d3d565b6097546001600160a01b031633146108135760405162461bcd60e51b81526004016103b69061197f565b6001600160a01b0381166108785760405162461bcd60e51b815260206004820152602660248201527f4f776e61626c653a206e6577206f776e657220697320746865207a65726f206160448201526564647265737360d01b60648201526084016103b6565b61042b81610c0a565b6001600160a01b03163b151590565b60006001600160e01b03198216630271189760e51b14806103f257506103f282610e79565b805161075e9060679060208401906112dc565b6001600160a01b0384166109285760405162461bcd60e51b815260206004820152602160248201527f455243313135353a206d696e7420746f20746865207a65726f206164647265736044820152607360f81b60648201526084016103b6565b81518351146109495760405162461bcd60e51b81526004016103b690611a36565b3361095981600087878787610ec9565b60005b84518110156109f557838181518110610977576109776119ef565b602002602001015160656000878481518110610995576109956119ef565b602002602001015181526020019081526020016000206000886001600160a01b03166001600160a01b0316815260200190815260200160002060008282546109dd9190611a7e565b909155508190506109ed81611a1b565b91505061095c565b50846001600160a01b031660006001600160a01b0316826001600160a01b03167f4a39dc06d4c0dbc64b70af90fd698a233a518aa5d07e595d983b8c0526c8f7fb8787604051610a46929190611a96565b60405180910390a461059d81600087878787610ed7565b8151835114610a7e5760405162461bcd60e51b81526004016103b690611a36565b6001600160a01b038416610aa45760405162461bcd60e51b81526004016103b690611ac4565b33610ab3818787878787610ec9565b60005b8451811015610b9c576000858281518110610ad357610ad36119ef565b602002602001015190506000858381518110610af157610af16119ef565b60209081029190910181015160008481526065835260408082206001600160a01b038e168352909352919091205490915081811015610b425760405162461bcd60e51b81526004016103b690611b09565b60008381526065602090815260408083206001600160a01b038e8116855292528083208585039055908b16825281208054849290610b81908490611a7e565b9250508190555050505080610b9590611a1b565b9050610ab6565b50846001600160a01b0316866001600160a01b0316826001600160a01b03167f4a39dc06d4c0dbc64b70af90fd698a233a518aa5d07e595d983b8c0526c8f7fb8787604051610bec929190611a96565b60405180910390a4610c02818787878787610ed7565b505050505050565b609780546001600160a01b038381166001600160a01b0319831681179093556040519116919082907f8be0079c531659141344cd1fd0a4f28419497f9722a3daafe3b4186f6b6457e090600090a35050565b816001600160a01b0316836001600160a01b03161415610cd05760405162461bcd60e51b815260206004820152602960248201527f455243313135353a2073657474696e6720617070726f76616c20737461747573604482015268103337b91039b2b63360b91b60648201526084016103b6565b6001600160a01b03838116600081815260666020908152604080832094871680845294825291829020805460ff191686151590811790915591519182527f17307eab39ab6107e8899845ad3d59bd9653f200f220920489ca2b5937696c31910160405180910390a3505050565b6001600160a01b038416610d635760405162461bcd60e51b81526004016103b690611ac4565b336000610d6f8561104b565b90506000610d7c8561104b565b9050610d8c838989858589610ec9565b60008681526065602090815260408083206001600160a01b038c16845290915290205485811015610dcf5760405162461bcd60e51b81526004016103b690611b09565b60008781526065602090815260408083206001600160a01b038d8116855292528083208985039055908a16825281208054889290610e0e908490611a7e565b909155505060408051888152602081018890526001600160a01b03808b16928c821692918816917fc3d58168c5ae7397731d063d5bbf3d657854427343f4c083240f7aacaa2d0f62910160405180910390a4610e6e848a8a8a8a8a611096565b505050505050505050565b60006001600160e01b03198216636cdb3d1360e11b1480610eaa57506001600160e01b031982166303a24d0760e21b145b806103f257506301ffc9a760e01b6001600160e01b03198316146103f2565b610c02868686868686611160565b6001600160a01b0384163b15610c025760405163bc197c8160e01b81526001600160a01b0385169063bc197c8190610f1b9089908990889088908890600401611b53565b602060405180830381600087803b158015610f3557600080fd5b505af1925050508015610f65575060408051601f3d908101601f19168201909252610f6291810190611bb1565b60015b61101257610f71611bce565b806308c379a01415610fab5750610f86611bea565b80610f915750610fad565b8060405162461bcd60e51b81526004016103b6919061154f565b505b60405162461bcd60e51b815260206004820152603460248201527f455243313135353a207472616e7366657220746f206e6f6e20455243313135356044820152732932b1b2b4bb32b91034b6b83632b6b2b73a32b960611b60648201526084016103b6565b6001600160e01b0319811663bc197c8160e01b146110425760405162461bcd60e51b81526004016103b690611c74565b50505050505050565b60408051600180825281830190925260609160009190602080830190803683370190505090508281600081518110611085576110856119ef565b602090810291909101015292915050565b6001600160a01b0384163b15610c025760405163f23a6e6160e01b81526001600160a01b0385169063f23a6e61906110da9089908990889088908890600401611cbc565b602060405180830381600087803b1580156110f457600080fd5b505af1925050508015611124575060408051601f3d908101601f1916820190925261112191810190611bb1565b60015b61113057610f71611bce565b6001600160e01b0319811663f23a6e6160e01b146110425760405162461bcd60e51b81526004016103b690611c74565b6001600160a01b0385166111e85760005b83518110156111e65782818151811061118c5761118c6119ef565b602002602001015161012d60008684815181106111ab576111ab6119ef565b6020026020010151815260200190815260200160002060008282546111d09190611a7e565b909155506111df905081611a1b565b9050611171565b505b6001600160a01b038416610c025760005b8351811015611042576000848281518110611216576112166119ef565b602002602001015190506000848381518110611234576112346119ef565b60200260200101519050600061012d6000848152602001908152602001600020549050818110156112b85760405162461bcd60e51b815260206004820152602860248201527f455243313135353a206275726e20616d6f756e74206578636565647320746f74604482015267616c537570706c7960c01b60648201526084016103b6565b600092835261012d6020526040909220910390556112d581611a1b565b90506111f9565b8280546112e8906119b4565b90600052602060002090601f01602090048101928261130a5760008555611350565b82601f1061132357805160ff1916838001178555611350565b82800160010185558215611350579182015b82811115611350578251825591602001919060010190611335565b5061135c929150611360565b5090565b5b8082111561135c5760008155600101611361565b80356001600160a01b038116811461138c57600080fd5b919050565b600080604083850312156113a457600080fd5b6113ad83611375565b946020939093013593505050565b6001600160e01b03198116811461042b57600080fd5b6000602082840312156113e357600080fd5b81356113ee816113bb565b9392505050565b634e487b7160e01b600052604160045260246000fd5b601f8201601f1916810167ffffffffffffffff81118282101715611431576114316113f5565b6040525050565b600082601f83011261144957600080fd5b813567ffffffffffffffff811115611463576114636113f5565b60405161147a601f8301601f19166020018261140b565b81815284602083860101111561148f57600080fd5b816020850160208301376000918101602001919091529392505050565b6000602082840312156114be57600080fd5b813567ffffffffffffffff8111156114d557600080fd5b6114e184828501611438565b949350505050565b6000602082840312156114fb57600080fd5b5035919050565b6000815180845260005b818110156115285760208185018101518683018201520161150c565b8181111561153a576000602083870101525b50601f01601f19169290920160200192915050565b6020815260006113ee6020830184611502565b600067ffffffffffffffff82111561157c5761157c6113f5565b5060051b60200190565b600082601f83011261159757600080fd5b813560206115a482611562565b6040516115b1828261140b565b83815260059390931b85018201928281019150868411156115d157600080fd5b8286015b848110156115ec57803583529183019183016115d5565b509695505050505050565b6000806000806080858703121561160d57600080fd5b61161685611375565b9350602085013567ffffffffffffffff8082111561163357600080fd5b61163f88838901611586565b9450604087013591508082111561165557600080fd5b61166188838901611586565b9350606087013591508082111561167757600080fd5b5061168487828801611438565b91505092959194509250565b600080600080600060a086880312156116a857600080fd5b6116b186611375565b94506116bf60208701611375565b9350604086013567ffffffffffffffff808211156116dc57600080fd5b6116e889838a01611586565b945060608801359150808211156116fe57600080fd5b61170a89838a01611586565b9350608088013591508082111561172057600080fd5b5061172d88828901611438565b9150509295509295909350565b6000806040838503121561174d57600080fd5b823567ffffffffffffffff8082111561176557600080fd5b818501915085601f83011261177957600080fd5b8135602061178682611562565b604051611793828261140b565b83815260059390931b85018201928281019150898411156117b357600080fd5b948201945b838610156117d8576117c986611375565b825294820194908201906117b8565b965050860135925050808211156117ee57600080fd5b506117fb85828601611586565b9150509250929050565b600081518084526020808501945080840160005b8381101561183557815187529582019590820190600101611819565b509495945050505050565b6020815260006113ee6020830184611805565b6000806040838503121561186657600080fd5b82359150602083013567ffffffffffffffff81111561188457600080fd5b6117fb85828601611438565b600080604083850312156118a357600080fd5b6118ac83611375565b9150602083013580151581146118c157600080fd5b809150509250929050565b600080604083850312156118df57600080fd5b6118e883611375565b91506118f660208401611375565b90509250929050565b600080600080600060a0868803121561191757600080fd5b61192086611375565b945061192e60208701611375565b93506040860135925060608601359150608086013567ffffffffffffffff81111561195857600080fd5b61172d88828901611438565b60006020828403121561197657600080fd5b6113ee82611375565b6020808252818101527f4f776e61626c653a2063616c6c6572206973206e6f7420746865206f776e6572604082015260600190565b600181811c908216806119c857607f821691505b602082108114156119e957634e487b7160e01b600052602260045260246000fd5b50919050565b634e487b7160e01b600052603260045260246000fd5b634e487b7160e01b600052601160045260246000fd5b6000600019821415611a2f57611a2f611a05565b5060010190565b60208082526028908201527f455243313135353a2069647320616e6420616d6f756e7473206c656e677468206040820152670dad2e6dac2e8c6d60c31b606082015260800190565b60008219821115611a9157611a91611a05565b500190565b604081526000611aa96040830185611805565b8281036020840152611abb8185611805565b95945050505050565b60208082526025908201527f455243313135353a207472616e7366657220746f20746865207a65726f206164604082015264647265737360d81b606082015260800190565b6020808252602a908201527f455243313135353a20696e73756666696369656e742062616c616e636520666f60408201526939103a3930b739b332b960b11b606082015260800190565b6001600160a01b0386811682528516602082015260a060408201819052600090611b7f90830186611805565b8281036060840152611b918186611805565b90508281036080840152611ba58185611502565b98975050505050505050565b600060208284031215611bc357600080fd5b81516113ee816113bb565b600060033d1115611be75760046000803e5060005160e01c5b90565b600060443d1015611bf85790565b6040516003193d81016004833e81513d67ffffffffffffffff8160248401118184111715611c2857505050505090565b8285019150815181811115611c405750505050505090565b843d8701016020828501011115611c5a5750505050505090565b611c696020828601018761140b565b509095945050505050565b60208082526028908201527f455243313135353a204552433131353552656365697665722072656a656374656040820152676420746f6b656e7360c01b606082015260800190565b6001600160a01b03868116825285166020820152604081018490526060810183905260a060808201819052600090611cf690830184611502565b97965050505050505056fea2646970667358221220212e9a650f0e5f5066b37a742265a2dc80145c831695e1d30fb6652dcbc5f5b964736f6c63430008090033496e697469616c697a61626c653a20636f6e747261637420697320616c726561",
  "linkReferences": {},
  "deployedLinkReferences": {}
}