{
  "_format": "hh-sol-artifact-1",
  "contractName": "KojoERC1155",
  "sourceName": "contracts/token/KojoERC1155.sol",
  "abi": [
    {
      "inputs": [],
      "stateMutability": "nonpayable",
      "type": "constructor"
    },
    {
      "anonymous": false,
      "inputs": [
        {
          "indexed": true,
          "internalType": "address",
          "name": "account",
          "type": "address"
        },
        {
          "indexed": true,
          "internalType": "address",
          "name": "operator",
          "type": "address"
        },
        {
          "indexed": false,
          "internalType": "bool",
          "name": "approved",
          "type": "bool"
        }
      ],
      "name": "ApprovalForAll",
      "type": "event"
    },
    {
      "anonymous": false,
      "inputs": [
        {
          "indexed": false,
          "internalType": "uint8",
          "name": "version",
          "type": "uint8"
        }
      ],
      "name": "Initialized",
      "type": "event"
    },
    {
      "anonymous": false,
      "inputs": [
        {
          "indexed": true,
          "internalType": "address",
          "name": "previousOwner",
          "type": "address"
        },
        {
          "indexed": true,
          "internalType": "address",
          "name": "newOwner",
          "type": "address"
        }
      ],
      "name": "OwnershipTransferred",
      "type": "event"
    },
    {
      "anonymous": false,
      "inputs": [
        {
          "indexed": true,
          "internalType": "address",
          "name": "operator",
          "type": "address"
        },
        {
          "indexed": true,
          "internalType": "address",
          "name": "from",
          "type": "address"
        },
        {
          "indexed": true,
          "internalType": "address",
          "name": "to",
          "type": "address"
        },
        {
          "indexed": false,
          "internalType": "uint256[]",
          "name": "ids",
          "type": "uint256[]"
        },
        {
          "indexed": false,
          "internalType": "uint256[]",
          "name": "values",
          "type": "uint256[]"
        }
      ],
      "name": "TransferBatch",
      "type": "event"
    },
    {
      "anonymous": false,
      "inputs": [
        {
          "indexed": true,
          "internalType": "address",
          "name": "operator",
          "type": "address"
        },
        {
          "indexed": true,
          "internalType": "address",
          "name": "from",
          "type": "address"
        },
        {
          "indexed": true,
          "internalType": "address",
          "name": "to",
          "type": "address"
        },
        {
          "indexed": false,
          "internalType": "uint256",
          "name": "id",
          "type": "uint256"
        },
        {
          "indexed": false,
          "internalType": "uint256",
          "name": "value",
          "type": "uint256"
        }
      ],
      "name": "TransferSingle",
      "type": "event"
    },
    {
      "anonymous": false,
      "inputs": [
        {
          "indexed": false,
          "internalType": "string",
          "name": "value",
          "type": "string"
        },
        {
          "indexed": true,
          "internalType": "uint256",
          "name": "id",
          "type": "uint256"
        }
      ],
      "name": "URI",
      "type": "event"
    },
    {
      "inputs": [
        {
          "internalType": "address",
          "name": "account",
          "type": "address"
        },
        {
          "internalType": "uint256",
          "name": "id",
          "type": "uint256"
        }
      ],
      "name": "balanceOf",
      "outputs": [
        {
          "internalType": "uint256",
          "name": "",
          "type": "uint256"
        }
      ],
      "stateMutability": "view",
      "type": "function"
    },
    {
      "inputs": [
        {
          "internalType": "address[]",
          "name": "accounts",
          "type": "address[]"
        },
        {
          "internalType": "uint256[]",
          "name": "ids",
          "type": "uint256[]"
        }
      ],
      "name": "balanceOfBatch",
      "outputs": [
        {
          "internalType": "uint256[]",
          "name": "",
          "type": "uint256[]"
        }
      ],
      "stateMutability": "view",
      "type": "function"
    },
    {
      "inputs": [
        {
          "internalType": "address",
          "name": "account",
          "type": "address"
        },
        {
          "internalType": "uint256",
          "name": "id",
          "type": "uint256"
        },
        {
          "internalType": "uint256",
          "name": "value",
          "type": "uint256"
        }
      ],
      "name": "burn",
      "outputs": [],
      "stateMutability": "nonpayable",
      "type": "function"
    },
    {
      "inputs": [
        {
          "internalType": "address",
          "name": "account",
          "type": "address"
        },
        {
          "internalType": "uint256[]",
          "name": "ids",
          "type": "uint256[]"
        },
        {
          "internalType": "uint256[]",
          "name": "values",
          "type": "uint256[]"
        }
      ],
      "name": "burnBatch",
      "outputs": [],
      "stateMutability": "nonpayable",
      "type": "function"
    },
    {
      "inputs": [
        {
          "internalType": "uint256",
          "name": "id",
          "type": "uint256"
        }
      ],
      "name": "exists",
      "outputs": [
        {
          "internalType": "bool",
          "name": "",
          "type": "bool"
        }
      ],
      "stateMutability": "view",
      "type": "function"
    },
    {
      "inputs": [],
      "name": "initialize",
      "outputs": [],
      "stateMutability": "nonpayable",
      "type": "function"
    },
    {
      "inputs": [
        {
          "internalType": "address",
          "name": "account",
          "type": "address"
        },
        {
          "internalType": "address",
          "name": "operator",
          "type": "address"
        }
      ],
      "name": "isApprovedForAll",
      "outputs": [
        {
          "internalType": "bool",
          "name": "",
          "type": "bool"
        }
      ],
      "stateMutability": "view",
      "type": "function"
    },
    {
      "inputs": [
        {
          "internalType": "address",
          "name": "account",
          "type": "address"
        },
        {
          "internalType": "uint256",
          "name": "id",
          "type": "uint256"
        },
        {
          "internalType": "uint256",
          "name": "amount",
          "type": "uint256"
        },
        {
          "internalType": "bytes",
          "name": "data",
          "type": "bytes"
        }
      ],
      "name": "mint",
      "outputs": [],
      "stateMutability": "nonpayable",
      "type": "function"
    },
    {
      "inputs": [
        {
          "internalType": "address",
          "name": "to",
          "type": "address"
        },
        {
          "internalType": "uint256[]",
          "name": "ids",
          "type": "uint256[]"
        },
        {
          "internalType": "uint256[]",
          "name": "amounts",
          "type": "uint256[]"
        },
        {
          "internalType": "bytes",
          "name": "data",
          "type": "bytes"
        }
      ],
      "name": "mintBatch",
      "outputs": [],
      "stateMutability": "nonpayable",
      "type": "function"
    },
    {
      "inputs": [],
      "name": "owner",
      "outputs": [
        {
          "internalType": "address",
          "name": "",
          "type": "address"
        }
      ],
      "stateMutability": "view",
      "type": "function"
    },
    {
      "inputs": [],
      "name": "renounceOwnership",
      "outputs": [],
      "stateMutability": "nonpayable",
      "type": "function"
    },
    {
      "inputs": [
        {
          "internalType": "address",
          "name": "from",
          "type": "address"
        },
        {
          "internalType": "address",
          "name": "to",
          "type": "address"
        },
        {
          "internalType": "uint256[]",
          "name": "ids",
          "type": "uint256[]"
        },
        {
          "internalType": "uint256[]",
          "name": "amounts",
          "type": "uint256[]"
        },
        {
          "internalType": "bytes",
          "name": "data",
          "type": "bytes"
        }
      ],
      "name": "safeBatchTransferFrom",
      "outputs": [],
      "stateMutability": "nonpayable",
      "type": "function"
    },
    {
      "inputs": [
        {
          "internalType": "address",
          "name": "from",
          "type": "address"
        },
        {
          "internalType": "address",
          "name": "to",
          "type": "address"
        },
        {
          "internalType": "uint256",
          "name": "id",
          "type": "uint256"
        },
        {
          "internalType": "uint256",
          "name": "amount",
          "type": "uint256"
        },
        {
          "internalType": "bytes",
          "name": "data",
          "type": "bytes"
        }
      ],
      "name": "safeTransferFrom",
      "outputs": [],
      "stateMutability": "nonpayable",
      "type": "function"
    },
    {
      "inputs": [
        {
          "internalType": "address",
          "name": "operator",
          "type": "address"
        },
        {
          "internalType": "bool",
          "name": "approved",
          "type": "bool"
        }
      ],
      "name": "setApprovalForAll",
      "outputs": [],
      "stateMutability": "nonpayable",
      "type": "function"
    },
    {
      "inputs": [
        {
          "internalType": "uint256",
          "name": "tokenId",
          "type": "uint256"
        },
        {
          "internalType": "string",
          "name": "_uri",
          "type": "string"
        }
      ],
      "name": "setTokenUri",
      "outputs": [],
      "stateMutability": "nonpayable",
      "type": "function"
    },
    {
      "inputs": [
        {
          "internalType": "string",
          "name": "newuri",
          "type": "string"
        }
      ],
      "name": "setURI",
      "outputs": [],
      "stateMutability": "nonpayable",
      "type": "function"
    },
    {
      "inputs": [
        {
          "internalType": "bytes4",
          "name": "interfaceId",
          "type": "bytes4"
        }
      ],
      "name": "supportsInterface",
      "outputs": [
        {
          "internalType": "bool",
          "name": "",
          "type": "bool"
        }
      ],
      "stateMutability": "view",
      "type": "function"
    },
    {
      "inputs": [
        {
          "internalType": "uint256",
          "name": "id",
          "type": "uint256"
        }
      ],
      "name": "totalSupply",
      "outputs": [
        {
          "internalType": "uint256",
          "name": "",
          "type": "uint256"
        }
      ],
      "stateMutability": "view",
      "type": "function"
    },
    {
      "inputs": [
        {
          "internalType": "address",
          "name": "newOwner",
          "type": "address"
        }
      ],
      "name": "transferOwnership",
      "outputs": [],
      "stateMutability": "nonpayable",
      "type": "function"
    },
    {
      "inputs": [
        {
          "internalType": "uint256",
          "name": "tokenId",
          "type": "uint256"
        }
      ],
      "name": "uri",
      "outputs": [
        {
          "internalType": "string",
          "name": "",
          "type": "string"
        }
      ],
      "stateMutability": "view",
      "type": "function"
    }
  ],
  "bytecode": "0x60806040523480156200001157600080fd5b506200001c62000022565b62000152565b6200002e60ff62000031565b50565b60008054610100900460ff1615620000ca578160ff1660011480156200006a575062000068306200014360201b62000c651760201c565b155b620000c25760405162461bcd60e51b815260206004820152602e602482015260008051602062002c6883398151915260448201526d191e481a5b9a5d1a585b1a5e995960921b60648201526084015b60405180910390fd5b506000919050565b60005460ff808416911610620001295760405162461bcd60e51b815260206004820152602e602482015260008051602062002c6883398151915260448201526d191e481a5b9a5d1a585b1a5e995960921b6064820152608401620000b9565b506000805460ff191660ff92909216919091179055600190565b6001600160a01b03163b151590565b612b0680620001626000396000f3fe608060405234801561001057600080fd5b506004361061016b5760003560e01c8063715018a6116100cd578063bd85b03911610081578063f242432a11610066578063f242432a14610329578063f2fde38b1461033c578063f5298aca1461034f57600080fd5b8063bd85b039146102cd578063e985e9c5146102ed57600080fd5b80638129fc1c116100b25780638129fc1c146102975780638da5cb5b1461029f578063a22cb465146102ba57600080fd5b8063715018a61461027c578063731133e91461028457600080fd5b80632eb2c2d6116101245780634f558e79116101095780634f558e791461023457806357f7789e146102565780636b20c4541461026957600080fd5b80632eb2c2d6146102015780634e1273f41461021457600080fd5b806302fe53051161015557806302fe5305146101b95780630e89341c146101ce5780631f7fdffa146101ee57600080fd5b8062fdd58e1461017057806301ffc9a714610196575b600080fd5b61018361017e3660046121ba565b610362565b6040519081526020015b60405180910390f35b6101a96101a43660046121fa565b61040d565b604051901515815260200161018d565b6101cc6101c73660046122d5565b6104aa565b005b6101e16101dc366004612312565b610510565b60405161018d9190612378565b6101cc6101fc366004612420565b6105b3565b6101cc61020f3660046124b9565b61061f565b610227610222366004612563565b6106c1565b60405161018d9190612669565b6101a9610242366004612312565b600090815260fb6020526040902054151590565b6101cc61026436600461267c565b6107ff565b6101cc6102773660046126b9565b61087e565b6101cc610903565b6101cc61029236600461272d565b610969565b6101cc6109cf565b6097546040516001600160a01b03909116815260200161018d565b6101cc6102c8366004612782565b610a6b565b6101836102db366004612312565b600090815260fb602052604090205490565b6101a96102fb3660046127be565b6001600160a01b03918216600090815260666020908152604080832093909416825291909152205460ff1690565b6101cc6103373660046127f1565b610a7a565b6101cc61034a366004612856565b610b01565b6101cc61035d366004612871565b610be0565b60006001600160a01b0383166103e55760405162461bcd60e51b815260206004820152602b60248201527f455243313135353a2062616c616e636520717565727920666f7220746865207a60448201527f65726f206164647265737300000000000000000000000000000000000000000060648201526084015b60405180910390fd5b5060009081526065602090815260408083206001600160a01b03949094168352929052205490565b60006001600160e01b031982167fd9b67a2600000000000000000000000000000000000000000000000000000000148061047057506001600160e01b031982167f0e89341c00000000000000000000000000000000000000000000000000000000145b806104a457507f01ffc9a7000000000000000000000000000000000000000000000000000000006001600160e01b03198316145b92915050565b6097546001600160a01b031633146105045760405162461bcd60e51b815260206004820181905260248201527f4f776e61626c653a2063616c6c6572206973206e6f7420746865206f776e657260448201526064016103dc565b61050d81610c74565b50565b600081815261012d6020526040902080546060919061052e906128a4565b80601f016020809104026020016040519081016040528092919081815260200182805461055a906128a4565b80156105a75780601f1061057c576101008083540402835291602001916105a7565b820191906000526020600020905b81548152906001019060200180831161058a57829003601f168201915b50505050509050919050565b6097546001600160a01b0316331461060d5760405162461bcd60e51b815260206004820181905260248201527f4f776e61626c653a2063616c6c6572206973206e6f7420746865206f776e657260448201526064016103dc565b61061984848484610c87565b50505050565b6001600160a01b03851633148061063b575061063b85336102fb565b6106ad5760405162461bcd60e51b815260206004820152603260248201527f455243313135353a207472616e736665722063616c6c6572206973206e6f742060448201527f6f776e6572206e6f7220617070726f766564000000000000000000000000000060648201526084016103dc565b6106ba8585858585610e5d565b5050505050565b6060815183511461073a5760405162461bcd60e51b815260206004820152602960248201527f455243313135353a206163636f756e747320616e6420696473206c656e67746860448201527f206d69736d61746368000000000000000000000000000000000000000000000060648201526084016103dc565b6000835167ffffffffffffffff8111156107565761075661221e565b60405190808252806020026020018201604052801561077f578160200160208202803683370190505b50905060005b84518110156107f7576107ca8582815181106107a3576107a36128df565b60200260200101518583815181106107bd576107bd6128df565b6020026020010151610362565b8282815181106107dc576107dc6128df565b60209081029190910101526107f08161290b565b9050610785565b509392505050565b6097546001600160a01b031633146108595760405162461bcd60e51b815260206004820181905260248201527f4f776e61626c653a2063616c6c6572206973206e6f7420746865206f776e657260448201526064016103dc565b600082815261012d6020908152604090912082516108799284019061210a565b505050565b6001600160a01b03831633148061089a575061089a83336102fb565b6108f85760405162461bcd60e51b815260206004820152602960248201527f455243313135353a2063616c6c6572206973206e6f74206f776e6572206e6f7260448201526808185c1c1c9bdd995960ba1b60648201526084016103dc565b6108798383836110cc565b6097546001600160a01b0316331461095d5760405162461bcd60e51b815260206004820181905260248201527f4f776e61626c653a2063616c6c6572206973206e6f7420746865206f776e657260448201526064016103dc565b6109676000611324565b565b6097546001600160a01b031633146109c35760405162461bcd60e51b815260206004820181905260248201527f4f776e61626c653a2063616c6c6572206973206e6f7420746865206f776e657260448201526064016103dc565b6106198484848461138e565b60006109db60016114b3565b905080156109f3576000805461ff0019166101001790555b610a0b604051806020016040528060008152506115ec565b610a13611660565b610a1b6116d3565b610a236116d3565b801561050d576000805461ff0019169055604051600181527f7f26b83ff96e1f2b6a682f133852f6798a09c465da95921460cefb38474024989060200160405180910390a150565b610a7633838361173e565b5050565b6001600160a01b038516331480610a965750610a9685336102fb565b610af45760405162461bcd60e51b815260206004820152602960248201527f455243313135353a2063616c6c6572206973206e6f74206f776e6572206e6f7260448201526808185c1c1c9bdd995960ba1b60648201526084016103dc565b6106ba8585858585611833565b6097546001600160a01b03163314610b5b5760405162461bcd60e51b815260206004820181905260248201527f4f776e61626c653a2063616c6c6572206973206e6f7420746865206f776e657260448201526064016103dc565b6001600160a01b038116610bd75760405162461bcd60e51b815260206004820152602660248201527f4f776e61626c653a206e6577206f776e657220697320746865207a65726f206160448201527f646472657373000000000000000000000000000000000000000000000000000060648201526084016103dc565b61050d81611324565b6001600160a01b038316331480610bfc5750610bfc83336102fb565b610c5a5760405162461bcd60e51b815260206004820152602960248201527f455243313135353a2063616c6c6572206973206e6f74206f776e6572206e6f7260448201526808185c1c1c9bdd995960ba1b60648201526084016103dc565b6108798383836119f0565b6001600160a01b03163b151590565b8051610a7690606790602084019061210a565b6001600160a01b038416610ce75760405162461bcd60e51b815260206004820152602160248201527f455243313135353a206d696e7420746f20746865207a65726f206164647265736044820152607360f81b60648201526084016103dc565b8151835114610d495760405162461bcd60e51b815260206004820152602860248201527f455243313135353a2069647320616e6420616d6f756e7473206c656e677468206044820152670dad2e6dac2e8c6d60c31b60648201526084016103dc565b33610d5981600087878787611b84565b60005b8451811015610df557838181518110610d7757610d776128df565b602002602001015160656000878481518110610d9557610d956128df565b602002602001015181526020019081526020016000206000886001600160a01b03166001600160a01b031681526020019081526020016000206000828254610ddd9190612926565b90915550819050610ded8161290b565b915050610d5c565b50846001600160a01b031660006001600160a01b0316826001600160a01b03167f4a39dc06d4c0dbc64b70af90fd698a233a518aa5d07e595d983b8c0526c8f7fb8787604051610e4692919061293e565b60405180910390a46106ba81600087878787611b92565b8151835114610ebf5760405162461bcd60e51b815260206004820152602860248201527f455243313135353a2069647320616e6420616d6f756e7473206c656e677468206044820152670dad2e6dac2e8c6d60c31b60648201526084016103dc565b6001600160a01b038416610f235760405162461bcd60e51b815260206004820152602560248201527f455243313135353a207472616e7366657220746f20746865207a65726f206164604482015264647265737360d81b60648201526084016103dc565b33610f32818787878787611b84565b60005b845181101561105e576000858281518110610f5257610f526128df565b602002602001015190506000858381518110610f7057610f706128df565b60209081029190910181015160008481526065835260408082206001600160a01b038e1683529093529190912054909150818110156110045760405162461bcd60e51b815260206004820152602a60248201527f455243313135353a20696e73756666696369656e742062616c616e636520666f60448201526939103a3930b739b332b960b11b60648201526084016103dc565b60008381526065602090815260408083206001600160a01b038e8116855292528083208585039055908b16825281208054849290611043908490612926565b92505081905550505050806110579061290b565b9050610f35565b50846001600160a01b0316866001600160a01b0316826001600160a01b03167f4a39dc06d4c0dbc64b70af90fd698a233a518aa5d07e595d983b8c0526c8f7fb87876040516110ae92919061293e565b60405180910390a46110c4818787878787611b92565b505050505050565b6001600160a01b03831661112e5760405162461bcd60e51b815260206004820152602360248201527f455243313135353a206275726e2066726f6d20746865207a65726f206164647260448201526265737360e81b60648201526084016103dc565b80518251146111905760405162461bcd60e51b815260206004820152602860248201527f455243313135353a2069647320616e6420616d6f756e7473206c656e677468206044820152670dad2e6dac2e8c6d60c31b60648201526084016103dc565b60003390506111b381856000868660405180602001604052806000815250611b84565b60005b83518110156112b75760008482815181106111d3576111d36128df565b6020026020010151905060008483815181106111f1576111f16128df565b60209081029190910181015160008481526065835260408082206001600160a01b038c16835290935291909120549091508181101561127e5760405162461bcd60e51b8152602060048201526024808201527f455243313135353a206275726e20616d6f756e7420657863656564732062616c604482015263616e636560e01b60648201526084016103dc565b60009283526065602090815260408085206001600160a01b038b16865290915290922091039055806112af8161290b565b9150506111b6565b5060006001600160a01b0316846001600160a01b0316826001600160a01b03167f4a39dc06d4c0dbc64b70af90fd698a233a518aa5d07e595d983b8c0526c8f7fb868660405161130892919061293e565b60405180910390a4604080516020810190915260009052610619565b609780546001600160a01b038381167fffffffffffffffffffffffff0000000000000000000000000000000000000000831681179093556040519116919082907f8be0079c531659141344cd1fd0a4f28419497f9722a3daafe3b4186f6b6457e090600090a35050565b6001600160a01b0384166113ee5760405162461bcd60e51b815260206004820152602160248201527f455243313135353a206d696e7420746f20746865207a65726f206164647265736044820152607360f81b60648201526084016103dc565b3360006113fa85611d47565b9050600061140785611d47565b905061141883600089858589611b84565b60008681526065602090815260408083206001600160a01b038b1684529091528120805487929061144a908490612926565b909155505060408051878152602081018790526001600160a01b03808a1692600092918716917fc3d58168c5ae7397731d063d5bbf3d657854427343f4c083240f7aacaa2d0f62910160405180910390a46114aa83600089898989611d92565b50505050505050565b60008054610100900460ff1615611550578160ff1660011480156114d65750303b155b6115485760405162461bcd60e51b815260206004820152602e60248201527f496e697469616c697a61626c653a20636f6e747261637420697320616c72656160448201527f647920696e697469616c697a656400000000000000000000000000000000000060648201526084016103dc565b506000919050565b60005460ff8084169116106115cd5760405162461bcd60e51b815260206004820152602e60248201527f496e697469616c697a61626c653a20636f6e747261637420697320616c72656160448201527f647920696e697469616c697a656400000000000000000000000000000000000060648201526084016103dc565b506000805460ff191660ff92909216919091179055600190565b919050565b600054610100900460ff166116575760405162461bcd60e51b815260206004820152602b60248201527f496e697469616c697a61626c653a20636f6e7472616374206973206e6f74206960448201526a6e697469616c697a696e6760a81b60648201526084016103dc565b61050d81611e9d565b600054610100900460ff166116cb5760405162461bcd60e51b815260206004820152602b60248201527f496e697469616c697a61626c653a20636f6e7472616374206973206e6f74206960448201526a6e697469616c697a696e6760a81b60648201526084016103dc565b610967611f08565b600054610100900460ff166109675760405162461bcd60e51b815260206004820152602b60248201527f496e697469616c697a61626c653a20636f6e7472616374206973206e6f74206960448201526a6e697469616c697a696e6760a81b60648201526084016103dc565b816001600160a01b0316836001600160a01b031614156117c65760405162461bcd60e51b815260206004820152602960248201527f455243313135353a2073657474696e6720617070726f76616c2073746174757360448201527f20666f722073656c66000000000000000000000000000000000000000000000060648201526084016103dc565b6001600160a01b03838116600081815260666020908152604080832094871680845294825291829020805460ff191686151590811790915591519182527f17307eab39ab6107e8899845ad3d59bd9653f200f220920489ca2b5937696c31910160405180910390a3505050565b6001600160a01b0384166118975760405162461bcd60e51b815260206004820152602560248201527f455243313135353a207472616e7366657220746f20746865207a65726f206164604482015264647265737360d81b60648201526084016103dc565b3360006118a385611d47565b905060006118b085611d47565b90506118c0838989858589611b84565b60008681526065602090815260408083206001600160a01b038c168452909152902054858110156119465760405162461bcd60e51b815260206004820152602a60248201527f455243313135353a20696e73756666696369656e742062616c616e636520666f60448201526939103a3930b739b332b960b11b60648201526084016103dc565b60008781526065602090815260408083206001600160a01b038d8116855292528083208985039055908a16825281208054889290611985908490612926565b909155505060408051888152602081018890526001600160a01b03808b16928c821692918816917fc3d58168c5ae7397731d063d5bbf3d657854427343f4c083240f7aacaa2d0f62910160405180910390a46119e5848a8a8a8a8a611d92565b505050505050505050565b6001600160a01b038316611a525760405162461bcd60e51b815260206004820152602360248201527f455243313135353a206275726e2066726f6d20746865207a65726f206164647260448201526265737360e81b60648201526084016103dc565b336000611a5e84611d47565b90506000611a6b84611d47565b9050611a8b83876000858560405180602001604052806000815250611b84565b60008581526065602090815260408083206001600160a01b038a16845290915290205484811015611b0a5760405162461bcd60e51b8152602060048201526024808201527f455243313135353a206275726e20616d6f756e7420657863656564732062616c604482015263616e636560e01b60648201526084016103dc565b60008681526065602090815260408083206001600160a01b038b81168086529184528285208a8703905582518b81529384018a90529092908816917fc3d58168c5ae7397731d063d5bbf3d657854427343f4c083240f7aacaa2d0f62910160405180910390a46040805160208101909152600090526114aa565b6110c4868686868686611f7c565b6001600160a01b0384163b156110c45760405163bc197c8160e01b81526001600160a01b0385169063bc197c8190611bd6908990899088908890889060040161296c565b602060405180830381600087803b158015611bf057600080fd5b505af1925050508015611c20575060408051601f3d908101601f19168201909252611c1d918101906129ca565b60015b611cd657611c2c6129e7565b806308c379a01415611c665750611c41612a03565b80611c4c5750611c68565b8060405162461bcd60e51b81526004016103dc9190612378565b505b60405162461bcd60e51b815260206004820152603460248201527f455243313135353a207472616e7366657220746f206e6f6e204552433131353560448201527f526563656976657220696d706c656d656e74657200000000000000000000000060648201526084016103dc565b6001600160e01b0319811663bc197c8160e01b146114aa5760405162461bcd60e51b815260206004820152602860248201527f455243313135353a204552433131353552656365697665722072656a656374656044820152676420746f6b656e7360c01b60648201526084016103dc565b60408051600180825281830190925260609160009190602080830190803683370190505090508281600081518110611d8157611d816128df565b602090810291909101015292915050565b6001600160a01b0384163b156110c45760405163f23a6e6160e01b81526001600160a01b0385169063f23a6e6190611dd69089908990889088908890600401612a8d565b602060405180830381600087803b158015611df057600080fd5b505af1925050508015611e20575060408051601f3d908101601f19168201909252611e1d918101906129ca565b60015b611e2c57611c2c6129e7565b6001600160e01b0319811663f23a6e6160e01b146114aa5760405162461bcd60e51b815260206004820152602860248201527f455243313135353a204552433131353552656365697665722072656a656374656044820152676420746f6b656e7360c01b60648201526084016103dc565b600054610100900460ff166105045760405162461bcd60e51b815260206004820152602b60248201527f496e697469616c697a61626c653a20636f6e7472616374206973206e6f74206960448201526a6e697469616c697a696e6760a81b60648201526084016103dc565b600054610100900460ff16611f735760405162461bcd60e51b815260206004820152602b60248201527f496e697469616c697a61626c653a20636f6e7472616374206973206e6f74206960448201526a6e697469616c697a696e6760a81b60648201526084016103dc565b61096733611324565b6001600160a01b0385166120035760005b835181101561200157828181518110611fa857611fa86128df565b602002602001015160fb6000868481518110611fc657611fc66128df565b602002602001015181526020019081526020016000206000828254611feb9190612926565b90915550611ffa90508161290b565b9050611f8d565b505b6001600160a01b0384166110c45760005b83518110156114aa576000848281518110612031576120316128df565b60200260200101519050600084838151811061204f5761204f6128df565b60200260200101519050600060fb6000848152602001908152602001600020549050818110156120e75760405162461bcd60e51b815260206004820152602860248201527f455243313135353a206275726e20616d6f756e74206578636565647320746f7460448201527f616c537570706c7900000000000000000000000000000000000000000000000060648201526084016103dc565b600092835260fb6020526040909220910390556121038161290b565b9050612014565b828054612116906128a4565b90600052602060002090601f016020900481019282612138576000855561217e565b82601f1061215157805160ff191683800117855561217e565b8280016001018555821561217e579182015b8281111561217e578251825591602001919060010190612163565b5061218a92915061218e565b5090565b5b8082111561218a576000815560010161218f565b80356001600160a01b03811681146115e757600080fd5b600080604083850312156121cd57600080fd5b6121d6836121a3565b946020939093013593505050565b6001600160e01b03198116811461050d57600080fd5b60006020828403121561220c57600080fd5b8135612217816121e4565b9392505050565b634e487b7160e01b600052604160045260246000fd5b601f8201601f1916810167ffffffffffffffff8111828210171561225a5761225a61221e565b6040525050565b600082601f83011261227257600080fd5b813567ffffffffffffffff81111561228c5761228c61221e565b6040516122a3601f8301601f191660200182612234565b8181528460208386010111156122b857600080fd5b816020850160208301376000918101602001919091529392505050565b6000602082840312156122e757600080fd5b813567ffffffffffffffff8111156122fe57600080fd5b61230a84828501612261565b949350505050565b60006020828403121561232457600080fd5b5035919050565b6000815180845260005b8181101561235157602081850181015186830182015201612335565b81811115612363576000602083870101525b50601f01601f19169290920160200192915050565b602081526000612217602083018461232b565b600067ffffffffffffffff8211156123a5576123a561221e565b5060051b60200190565b600082601f8301126123c057600080fd5b813560206123cd8261238b565b6040516123da8282612234565b83815260059390931b85018201928281019150868411156123fa57600080fd5b8286015b8481101561241557803583529183019183016123fe565b509695505050505050565b6000806000806080858703121561243657600080fd5b61243f856121a3565b9350602085013567ffffffffffffffff8082111561245c57600080fd5b612468888389016123af565b9450604087013591508082111561247e57600080fd5b61248a888389016123af565b935060608701359150808211156124a057600080fd5b506124ad87828801612261565b91505092959194509250565b600080600080600060a086880312156124d157600080fd5b6124da866121a3565b94506124e8602087016121a3565b9350604086013567ffffffffffffffff8082111561250557600080fd5b61251189838a016123af565b9450606088013591508082111561252757600080fd5b61253389838a016123af565b9350608088013591508082111561254957600080fd5b5061255688828901612261565b9150509295509295909350565b6000806040838503121561257657600080fd5b823567ffffffffffffffff8082111561258e57600080fd5b818501915085601f8301126125a257600080fd5b813560206125af8261238b565b6040516125bc8282612234565b83815260059390931b85018201928281019150898411156125dc57600080fd5b948201945b83861015612601576125f2866121a3565b825294820194908201906125e1565b9650508601359250508082111561261757600080fd5b50612624858286016123af565b9150509250929050565b600081518084526020808501945080840160005b8381101561265e57815187529582019590820190600101612642565b509495945050505050565b602081526000612217602083018461262e565b6000806040838503121561268f57600080fd5b82359150602083013567ffffffffffffffff8111156126ad57600080fd5b61262485828601612261565b6000806000606084860312156126ce57600080fd5b6126d7846121a3565b9250602084013567ffffffffffffffff808211156126f457600080fd5b612700878388016123af565b9350604086013591508082111561271657600080fd5b50612723868287016123af565b9150509250925092565b6000806000806080858703121561274357600080fd5b61274c856121a3565b93506020850135925060408501359150606085013567ffffffffffffffff81111561277657600080fd5b6124ad87828801612261565b6000806040838503121561279557600080fd5b61279e836121a3565b9150602083013580151581146127b357600080fd5b809150509250929050565b600080604083850312156127d157600080fd5b6127da836121a3565b91506127e8602084016121a3565b90509250929050565b600080600080600060a0868803121561280957600080fd5b612812866121a3565b9450612820602087016121a3565b93506040860135925060608601359150608086013567ffffffffffffffff81111561284a57600080fd5b61255688828901612261565b60006020828403121561286857600080fd5b612217826121a3565b60008060006060848603121561288657600080fd5b61288f846121a3565b95602085013595506040909401359392505050565b600181811c908216806128b857607f821691505b602082108114156128d957634e487b7160e01b600052602260045260246000fd5b50919050565b634e487b7160e01b600052603260045260246000fd5b634e487b7160e01b600052601160045260246000fd5b600060001982141561291f5761291f6128f5565b5060010190565b60008219821115612939576129396128f5565b500190565b604081526000612951604083018561262e565b8281036020840152612963818561262e565b95945050505050565b60006001600160a01b03808816835280871660208401525060a0604083015261299860a083018661262e565b82810360608401526129aa818661262e565b905082810360808401526129be818561232b565b98975050505050505050565b6000602082840312156129dc57600080fd5b8151612217816121e4565b600060033d1115612a005760046000803e5060005160e01c5b90565b600060443d1015612a115790565b6040516003193d81016004833e81513d67ffffffffffffffff8160248401118184111715612a4157505050505090565b8285019150815181811115612a595750505050505090565b843d8701016020828501011115612a735750505050505090565b612a8260208286010187612234565b509095945050505050565b60006001600160a01b03808816835280871660208401525084604083015283606083015260a06080830152612ac560a083018461232b565b97965050505050505056fea2646970667358221220def4e2aeca899c050e42e7743e326b5edb88b5cb01ea7189b00060d6dc91407064736f6c63430008090033496e697469616c697a61626c653a20636f6e747261637420697320616c726561",
  "linkReferences": {},
  "deployedLinkReferences": {}
}