{
  "_format": "hh-sol-artifact-1",
  "contractName": "KojoERC1155",
  "sourceName": "contracts/token/KojoERC1155.sol",
  "abi": [
    {
      "anonymous": false,
      "inputs": [
        {
          "indexed": true,
          "internalType": "address",
          "name": "account",
          "type": "address"
        },
        {
          "indexed": true,
          "internalType": "address",
          "name": "operator",
          "type": "address"
        },
        {
          "indexed": false,
          "internalType": "bool",
          "name": "approved",
          "type": "bool"
        }
      ],
      "name": "ApprovalForAll",
      "type": "event"
    },
    {
      "anonymous": false,
      "inputs": [
        {
          "indexed": false,
          "internalType": "uint8",
          "name": "version",
          "type": "uint8"
        }
      ],
      "name": "Initialized",
      "type": "event"
    },
    {
      "anonymous": false,
      "inputs": [
        {
          "indexed": true,
          "internalType": "address",
          "name": "previousOwner",
          "type": "address"
        },
        {
          "indexed": true,
          "internalType": "address",
          "name": "newOwner",
          "type": "address"
        }
      ],
      "name": "OwnershipTransferred",
      "type": "event"
    },
    {
      "anonymous": false,
      "inputs": [
        {
          "indexed": true,
          "internalType": "address",
          "name": "operator",
          "type": "address"
        },
        {
          "indexed": true,
          "internalType": "address",
          "name": "from",
          "type": "address"
        },
        {
          "indexed": true,
          "internalType": "address",
          "name": "to",
          "type": "address"
        },
        {
          "indexed": false,
          "internalType": "uint256[]",
          "name": "ids",
          "type": "uint256[]"
        },
        {
          "indexed": false,
          "internalType": "uint256[]",
          "name": "values",
          "type": "uint256[]"
        }
      ],
      "name": "TransferBatch",
      "type": "event"
    },
    {
      "anonymous": false,
      "inputs": [
        {
          "indexed": true,
          "internalType": "address",
          "name": "operator",
          "type": "address"
        },
        {
          "indexed": true,
          "internalType": "address",
          "name": "from",
          "type": "address"
        },
        {
          "indexed": true,
          "internalType": "address",
          "name": "to",
          "type": "address"
        },
        {
          "indexed": false,
          "internalType": "uint256",
          "name": "id",
          "type": "uint256"
        },
        {
          "indexed": false,
          "internalType": "uint256",
          "name": "value",
          "type": "uint256"
        }
      ],
      "name": "TransferSingle",
      "type": "event"
    },
    {
      "anonymous": false,
      "inputs": [
        {
          "indexed": false,
          "internalType": "string",
          "name": "value",
          "type": "string"
        },
        {
          "indexed": true,
          "internalType": "uint256",
          "name": "id",
          "type": "uint256"
        }
      ],
      "name": "URI",
      "type": "event"
    },
    {
      "inputs": [
        {
          "internalType": "address",
          "name": "account",
          "type": "address"
        },
        {
          "internalType": "uint256",
          "name": "id",
          "type": "uint256"
        }
      ],
      "name": "balanceOf",
      "outputs": [
        {
          "internalType": "uint256",
          "name": "",
          "type": "uint256"
        }
      ],
      "stateMutability": "view",
      "type": "function"
    },
    {
      "inputs": [
        {
          "internalType": "address[]",
          "name": "accounts",
          "type": "address[]"
        },
        {
          "internalType": "uint256[]",
          "name": "ids",
          "type": "uint256[]"
        }
      ],
      "name": "balanceOfBatch",
      "outputs": [
        {
          "internalType": "uint256[]",
          "name": "",
          "type": "uint256[]"
        }
      ],
      "stateMutability": "view",
      "type": "function"
    },
    {
      "inputs": [
        {
          "internalType": "address",
          "name": "account",
          "type": "address"
        },
        {
          "internalType": "uint256",
          "name": "id",
          "type": "uint256"
        },
        {
          "internalType": "uint256",
          "name": "value",
          "type": "uint256"
        }
      ],
      "name": "burn",
      "outputs": [],
      "stateMutability": "nonpayable",
      "type": "function"
    },
    {
      "inputs": [
        {
          "internalType": "address",
          "name": "account",
          "type": "address"
        },
        {
          "internalType": "uint256[]",
          "name": "ids",
          "type": "uint256[]"
        },
        {
          "internalType": "uint256[]",
          "name": "values",
          "type": "uint256[]"
        }
      ],
      "name": "burnBatch",
      "outputs": [],
      "stateMutability": "nonpayable",
      "type": "function"
    },
    {
      "inputs": [
        {
          "internalType": "uint256",
          "name": "id",
          "type": "uint256"
        }
      ],
      "name": "exists",
      "outputs": [
        {
          "internalType": "bool",
          "name": "",
          "type": "bool"
        }
      ],
      "stateMutability": "view",
      "type": "function"
    },
    {
      "inputs": [],
      "name": "fungibleTokenId",
      "outputs": [
        {
          "internalType": "uint256",
          "name": "",
          "type": "uint256"
        }
      ],
      "stateMutability": "view",
      "type": "function"
    },
    {
      "inputs": [],
      "name": "initialize",
      "outputs": [],
      "stateMutability": "nonpayable",
      "type": "function"
    },
    {
      "inputs": [
        {
          "internalType": "address",
          "name": "account",
          "type": "address"
        },
        {
          "internalType": "address",
          "name": "operator",
          "type": "address"
        }
      ],
      "name": "isApprovedForAll",
      "outputs": [
        {
          "internalType": "bool",
          "name": "",
          "type": "bool"
        }
      ],
      "stateMutability": "view",
      "type": "function"
    },
    {
      "inputs": [
        {
          "internalType": "address",
          "name": "account",
          "type": "address"
        },
        {
          "internalType": "uint256",
          "name": "id",
          "type": "uint256"
        },
        {
          "internalType": "uint256",
          "name": "amount",
          "type": "uint256"
        },
        {
          "internalType": "bytes",
          "name": "data",
          "type": "bytes"
        }
      ],
      "name": "mint",
      "outputs": [],
      "stateMutability": "nonpayable",
      "type": "function"
    },
    {
      "inputs": [
        {
          "internalType": "address",
          "name": "to",
          "type": "address"
        },
        {
          "internalType": "uint256[]",
          "name": "ids",
          "type": "uint256[]"
        },
        {
          "internalType": "uint256[]",
          "name": "amounts",
          "type": "uint256[]"
        },
        {
          "internalType": "bytes",
          "name": "data",
          "type": "bytes"
        }
      ],
      "name": "mintBatch",
      "outputs": [],
      "stateMutability": "nonpayable",
      "type": "function"
    },
    {
      "inputs": [],
      "name": "nonFungibleTokenCount",
      "outputs": [
        {
          "internalType": "uint256",
          "name": "",
          "type": "uint256"
        }
      ],
      "stateMutability": "view",
      "type": "function"
    },
    {
      "inputs": [],
      "name": "owner",
      "outputs": [
        {
          "internalType": "address",
          "name": "",
          "type": "address"
        }
      ],
      "stateMutability": "view",
      "type": "function"
    },
    {
      "inputs": [],
      "name": "renounceOwnership",
      "outputs": [],
      "stateMutability": "nonpayable",
      "type": "function"
    },
    {
      "inputs": [
        {
          "internalType": "address",
          "name": "from",
          "type": "address"
        },
        {
          "internalType": "address",
          "name": "to",
          "type": "address"
        },
        {
          "internalType": "uint256[]",
          "name": "ids",
          "type": "uint256[]"
        },
        {
          "internalType": "uint256[]",
          "name": "amounts",
          "type": "uint256[]"
        },
        {
          "internalType": "bytes",
          "name": "data",
          "type": "bytes"
        }
      ],
      "name": "safeBatchTransferFrom",
      "outputs": [],
      "stateMutability": "nonpayable",
      "type": "function"
    },
    {
      "inputs": [
        {
          "internalType": "address",
          "name": "from",
          "type": "address"
        },
        {
          "internalType": "address",
          "name": "to",
          "type": "address"
        },
        {
          "internalType": "uint256",
          "name": "id",
          "type": "uint256"
        },
        {
          "internalType": "uint256",
          "name": "amount",
          "type": "uint256"
        },
        {
          "internalType": "bytes",
          "name": "data",
          "type": "bytes"
        }
      ],
      "name": "safeTransferFrom",
      "outputs": [],
      "stateMutability": "nonpayable",
      "type": "function"
    },
    {
      "inputs": [
        {
          "internalType": "address",
          "name": "operator",
          "type": "address"
        },
        {
          "internalType": "bool",
          "name": "approved",
          "type": "bool"
        }
      ],
      "name": "setApprovalForAll",
      "outputs": [],
      "stateMutability": "nonpayable",
      "type": "function"
    },
    {
      "inputs": [
        {
          "internalType": "uint256",
          "name": "tokenId",
          "type": "uint256"
        },
        {
          "internalType": "string",
          "name": "_uri",
          "type": "string"
        }
      ],
      "name": "setTokenUri",
      "outputs": [],
      "stateMutability": "nonpayable",
      "type": "function"
    },
    {
      "inputs": [
        {
          "internalType": "string",
          "name": "newuri",
          "type": "string"
        }
      ],
      "name": "setURI",
      "outputs": [],
      "stateMutability": "nonpayable",
      "type": "function"
    },
    {
      "inputs": [
        {
          "internalType": "bytes4",
          "name": "interfaceId",
          "type": "bytes4"
        }
      ],
      "name": "supportsInterface",
      "outputs": [
        {
          "internalType": "bool",
          "name": "",
          "type": "bool"
        }
      ],
      "stateMutability": "view",
      "type": "function"
    },
    {
      "inputs": [
        {
          "internalType": "uint256",
          "name": "id",
          "type": "uint256"
        }
      ],
      "name": "totalSupply",
      "outputs": [
        {
          "internalType": "uint256",
          "name": "",
          "type": "uint256"
        }
      ],
      "stateMutability": "view",
      "type": "function"
    },
    {
      "inputs": [
        {
          "internalType": "address",
          "name": "newOwner",
          "type": "address"
        }
      ],
      "name": "transferOwnership",
      "outputs": [],
      "stateMutability": "nonpayable",
      "type": "function"
    },
    {
      "inputs": [
        {
          "internalType": "uint256",
          "name": "tokenId",
          "type": "uint256"
        }
      ],
      "name": "uri",
      "outputs": [
        {
          "internalType": "string",
          "name": "",
          "type": "string"
        }
      ],
      "stateMutability": "view",
      "type": "function"
    }
  ],
  "bytecode": "0x608060405234801561001057600080fd5b50612572806100206000396000f3fe608060405234801561001057600080fd5b50600436106101415760003560e01c8063715018a6116100b8578063b4daaf551161007c578063b4daaf55146102ad578063bd85b039146102b7578063e985e9c5146102d7578063f242432a14610313578063f2fde38b14610326578063f5298aca1461033957600080fd5b8063715018a61461025c578063731133e9146102645780638129fc1c146102775780638da5cb5b1461027f578063a22cb4651461029a57600080fd5b80632eb2c2d61161010a5780632eb2c2d6146101d757806345e8eca8146101ea5780634e1273f4146101f45780634f558e791461021457806357f7789e146102365780636b20c4541461024957600080fd5b8062fdd58e1461014657806301ffc9a71461016c57806302fe53051461018f5780630e89341c146101a45780631f7fdffa146101c4575b600080fd5b610159610154366004611932565b61034c565b6040519081526020015b60405180910390f35b61017f61017a366004611972565b6103e5565b6040519015158152602001610163565b6101a261019d366004611a4b565b610437565b005b6101b76101b2366004611a87565b61046d565b6040516101639190611aed565b6101a26101d2366004611b94565b610510565b6101a26101e5366004611c2c565b61054c565b61015961012f5481565b610207610202366004611cd5565b6105e3565b6040516101639190611dda565b61017f610222366004611a87565b600090815260fb6020526040902054151590565b6101a2610244366004611ded565b61070c565b6101a2610257366004611e29565b61075b565b6101a261079e565b6101a2610272366004611e9c565b6107d4565b6101a261080a565b6097546040516001600160a01b039091168152602001610163565b6101a26102a8366004611ef0565b6108b2565b61015961012e5481565b6101596102c5366004611a87565b600090815260fb602052604090205490565b61017f6102e5366004611f2c565b6001600160a01b03918216600090815260666020908152604080832093909416825291909152205460ff1690565b6101a2610321366004611f5f565b6108c1565b6101a2610334366004611fc3565b610906565b6101a2610347366004611fde565b61099e565b60006001600160a01b0383166103bd5760405162461bcd60e51b815260206004820152602b60248201527f455243313135353a2062616c616e636520717565727920666f7220746865207a60448201526a65726f206164647265737360a81b60648201526084015b60405180910390fd5b5060009081526065602090815260408083206001600160a01b03949094168352929052205490565b60006001600160e01b03198216636cdb3d1360e11b148061041657506001600160e01b031982166303a24d0760e21b145b8061043157506301ffc9a760e01b6001600160e01b03198316145b92915050565b6097546001600160a01b031633146104615760405162461bcd60e51b81526004016103b490612011565b61046a816109e1565b50565b600081815261012d6020526040902080546060919061048b90612046565b80601f01602080910402602001604051908101604052809291908181526020018280546104b790612046565b80156105045780601f106104d957610100808354040283529160200191610504565b820191906000526020600020905b8154815290600101906020018083116104e757829003601f168201915b50505050509050919050565b6097546001600160a01b0316331461053a5760405162461bcd60e51b81526004016103b490612011565b610546848484846109f4565b50505050565b6001600160a01b038516331480610568575061056885336102e5565b6105cf5760405162461bcd60e51b815260206004820152603260248201527f455243313135353a207472616e736665722063616c6c6572206973206e6f74206044820152711bdddb995c881b9bdc88185c1c1c9bdd995960721b60648201526084016103b4565b6105dc8585858585610b4f565b5050505050565b606081518351146106485760405162461bcd60e51b815260206004820152602960248201527f455243313135353a206163636f756e747320616e6420696473206c656e677468604482015268040dad2e6dac2e8c6d60bb1b60648201526084016103b4565b600083516001600160401b0381111561066357610663611996565b60405190808252806020026020018201604052801561068c578160200160208202803683370190505b50905060005b8451811015610704576106d78582815181106106b0576106b0612081565b60200260200101518583815181106106ca576106ca612081565b602002602001015161034c565b8282815181106106e9576106e9612081565b60209081029190910101526106fd816120ad565b9050610692565b509392505050565b6097546001600160a01b031633146107365760405162461bcd60e51b81526004016103b490612011565b600082815261012d60209081526040909120825161075692840190611882565b505050565b6001600160a01b038316331480610777575061077783336102e5565b6107935760405162461bcd60e51b81526004016103b4906120c8565b610756838383610cfc565b6097546001600160a01b031633146107c85760405162461bcd60e51b81526004016103b490612011565b6107d26000610e9b565b565b6097546001600160a01b031633146107fe5760405162461bcd60e51b81526004016103b490612011565b61054684848484610eed565b60006108166001610fd8565b9050801561082e576000805461ff0019166101001790555b61084660405180602001604052806000815250611065565b61084e611095565b6108566110c4565b61085e6110c4565b600061012e55600161012f55801561046a576000805461ff0019169055604051600181527f7f26b83ff96e1f2b6a682f133852f6798a09c465da95921460cefb38474024989060200160405180910390a150565b6108bd3383836110eb565b5050565b6001600160a01b0385163314806108dd57506108dd85336102e5565b6108f95760405162461bcd60e51b81526004016103b4906120c8565b6105dc85858585856111cc565b6097546001600160a01b031633146109305760405162461bcd60e51b81526004016103b490612011565b6001600160a01b0381166109955760405162461bcd60e51b815260206004820152602660248201527f4f776e61626c653a206e6577206f776e657220697320746865207a65726f206160448201526564647265737360d01b60648201526084016103b4565b61046a81610e9b565b6001600160a01b0383163314806109ba57506109ba83336102e5565b6109d65760405162461bcd60e51b81526004016103b4906120c8565b610756838383611308565b80516108bd906067906020840190611882565b6001600160a01b038416610a1a5760405162461bcd60e51b81526004016103b490612111565b8151835114610a3b5760405162461bcd60e51b81526004016103b490612152565b33610a4b81600087878787611424565b60005b8451811015610ae757838181518110610a6957610a69612081565b602002602001015160656000878481518110610a8757610a87612081565b602002602001015181526020019081526020016000206000886001600160a01b03166001600160a01b031681526020019081526020016000206000828254610acf919061219a565b90915550819050610adf816120ad565b915050610a4e565b50846001600160a01b031660006001600160a01b0316826001600160a01b03167f4a39dc06d4c0dbc64b70af90fd698a233a518aa5d07e595d983b8c0526c8f7fb8787604051610b389291906121b2565b60405180910390a46105dc81600087878787611432565b8151835114610b705760405162461bcd60e51b81526004016103b490612152565b6001600160a01b038416610b965760405162461bcd60e51b81526004016103b4906121e0565b33610ba5818787878787611424565b60005b8451811015610c8e576000858281518110610bc557610bc5612081565b602002602001015190506000858381518110610be357610be3612081565b60209081029190910181015160008481526065835260408082206001600160a01b038e168352909352919091205490915081811015610c345760405162461bcd60e51b81526004016103b490612225565b60008381526065602090815260408083206001600160a01b038e8116855292528083208585039055908b16825281208054849290610c7390849061219a565b9250508190555050505080610c87906120ad565b9050610ba8565b50846001600160a01b0316866001600160a01b0316826001600160a01b03167f4a39dc06d4c0dbc64b70af90fd698a233a518aa5d07e595d983b8c0526c8f7fb8787604051610cde9291906121b2565b60405180910390a4610cf4818787878787611432565b505050505050565b6001600160a01b038316610d225760405162461bcd60e51b81526004016103b49061226f565b8051825114610d435760405162461bcd60e51b81526004016103b490612152565b6000339050610d6681856000868660405180602001604052806000815250611424565b60005b8351811015610e2e576000848281518110610d8657610d86612081565b602002602001015190506000848381518110610da457610da4612081565b60209081029190910181015160008481526065835260408082206001600160a01b038c168352909352919091205490915081811015610df55760405162461bcd60e51b81526004016103b4906122b2565b60009283526065602090815260408085206001600160a01b038b1686529091529092209103905580610e26816120ad565b915050610d69565b5060006001600160a01b0316846001600160a01b0316826001600160a01b03167f4a39dc06d4c0dbc64b70af90fd698a233a518aa5d07e595d983b8c0526c8f7fb8686604051610e7f9291906121b2565b60405180910390a4604080516020810190915260009052610546565b609780546001600160a01b038381166001600160a01b0319831681179093556040519116919082907f8be0079c531659141344cd1fd0a4f28419497f9722a3daafe3b4186f6b6457e090600090a35050565b6001600160a01b038416610f135760405162461bcd60e51b81526004016103b490612111565b336000610f1f8561159d565b90506000610f2c8561159d565b9050610f3d83600089858589611424565b60008681526065602090815260408083206001600160a01b038b16845290915281208054879290610f6f90849061219a565b909155505060408051878152602081018790526001600160a01b03808a1692600092918716917fc3d58168c5ae7397731d063d5bbf3d657854427343f4c083240f7aacaa2d0f62910160405180910390a4610fcf836000898989896115e8565b50505050505050565b60008054610100900460ff161561101f578160ff166001148015610ffb5750303b155b6110175760405162461bcd60e51b81526004016103b4906122f6565b506000919050565b60005460ff8084169116106110465760405162461bcd60e51b81526004016103b4906122f6565b506000805460ff191660ff92909216919091179055600190565b919050565b600054610100900460ff1661108c5760405162461bcd60e51b81526004016103b490612344565b61046a816116b2565b600054610100900460ff166110bc5760405162461bcd60e51b81526004016103b490612344565b6107d26116d9565b600054610100900460ff166107d25760405162461bcd60e51b81526004016103b490612344565b816001600160a01b0316836001600160a01b0316141561115f5760405162461bcd60e51b815260206004820152602960248201527f455243313135353a2073657474696e6720617070726f76616c20737461747573604482015268103337b91039b2b63360b91b60648201526084016103b4565b6001600160a01b03838116600081815260666020908152604080832094871680845294825291829020805460ff191686151590811790915591519182527f17307eab39ab6107e8899845ad3d59bd9653f200f220920489ca2b5937696c31910160405180910390a3505050565b6001600160a01b0384166111f25760405162461bcd60e51b81526004016103b4906121e0565b3360006111fe8561159d565b9050600061120b8561159d565b905061121b838989858589611424565b60008681526065602090815260408083206001600160a01b038c1684529091529020548581101561125e5760405162461bcd60e51b81526004016103b490612225565b60008781526065602090815260408083206001600160a01b038d8116855292528083208985039055908a1682528120805488929061129d90849061219a565b909155505060408051888152602081018890526001600160a01b03808b16928c821692918816917fc3d58168c5ae7397731d063d5bbf3d657854427343f4c083240f7aacaa2d0f62910160405180910390a46112fd848a8a8a8a8a6115e8565b505050505050505050565b6001600160a01b03831661132e5760405162461bcd60e51b81526004016103b49061226f565b33600061133a8461159d565b905060006113478461159d565b905061136783876000858560405180602001604052806000815250611424565b60008581526065602090815260408083206001600160a01b038a168452909152902054848110156113aa5760405162461bcd60e51b81526004016103b4906122b2565b60008681526065602090815260408083206001600160a01b038b81168086529184528285208a8703905582518b81529384018a90529092908816917fc3d58168c5ae7397731d063d5bbf3d657854427343f4c083240f7aacaa2d0f62910160405180910390a4604080516020810190915260009052610fcf565b610cf4868686868686611709565b6001600160a01b0384163b15610cf45760405163bc197c8160e01b81526001600160a01b0385169063bc197c8190611476908990899088908890889060040161238f565b602060405180830381600087803b15801561149057600080fd5b505af19250505080156114c0575060408051601f3d908101601f191682019092526114bd918101906123ed565b60015b61156d576114cc61240a565b806308c379a0141561150657506114e1612426565b806114ec5750611508565b8060405162461bcd60e51b81526004016103b49190611aed565b505b60405162461bcd60e51b815260206004820152603460248201527f455243313135353a207472616e7366657220746f206e6f6e20455243313135356044820152732932b1b2b4bb32b91034b6b83632b6b2b73a32b960611b60648201526084016103b4565b6001600160e01b0319811663bc197c8160e01b14610fcf5760405162461bcd60e51b81526004016103b4906124af565b604080516001808252818301909252606091600091906020808301908036833701905050905082816000815181106115d7576115d7612081565b602090810291909101015292915050565b6001600160a01b0384163b15610cf45760405163f23a6e6160e01b81526001600160a01b0385169063f23a6e619061162c90899089908890889088906004016124f7565b602060405180830381600087803b15801561164657600080fd5b505af1925050508015611676575060408051601f3d908101601f19168201909252611673918101906123ed565b60015b611682576114cc61240a565b6001600160e01b0319811663f23a6e6160e01b14610fcf5760405162461bcd60e51b81526004016103b4906124af565b600054610100900460ff166104615760405162461bcd60e51b81526004016103b490612344565b600054610100900460ff166117005760405162461bcd60e51b81526004016103b490612344565b6107d233610e9b565b6001600160a01b0385166117905760005b835181101561178e5782818151811061173557611735612081565b602002602001015160fb600086848151811061175357611753612081565b602002602001015181526020019081526020016000206000828254611778919061219a565b909155506117879050816120ad565b905061171a565b505b6001600160a01b038416610cf45760005b8351811015610fcf5760008482815181106117be576117be612081565b6020026020010151905060008483815181106117dc576117dc612081565b60200260200101519050600060fb60008481526020019081526020016000205490508181101561185f5760405162461bcd60e51b815260206004820152602860248201527f455243313135353a206275726e20616d6f756e74206578636565647320746f74604482015267616c537570706c7960c01b60648201526084016103b4565b600092835260fb60205260409092209103905561187b816120ad565b90506117a1565b82805461188e90612046565b90600052602060002090601f0160209004810192826118b057600085556118f6565b82601f106118c957805160ff19168380011785556118f6565b828001600101855582156118f6579182015b828111156118f65782518255916020019190600101906118db565b50611902929150611906565b5090565b5b808211156119025760008155600101611907565b80356001600160a01b038116811461106057600080fd5b6000806040838503121561194557600080fd5b61194e8361191b565b946020939093013593505050565b6001600160e01b03198116811461046a57600080fd5b60006020828403121561198457600080fd5b813561198f8161195c565b9392505050565b634e487b7160e01b600052604160045260246000fd5b601f8201601f191681016001600160401b03811182821017156119d1576119d1611996565b6040525050565b600082601f8301126119e957600080fd5b81356001600160401b03811115611a0257611a02611996565b604051611a19601f8301601f1916602001826119ac565b818152846020838601011115611a2e57600080fd5b816020850160208301376000918101602001919091529392505050565b600060208284031215611a5d57600080fd5b81356001600160401b03811115611a7357600080fd5b611a7f848285016119d8565b949350505050565b600060208284031215611a9957600080fd5b5035919050565b6000815180845260005b81811015611ac657602081850181015186830182015201611aaa565b81811115611ad8576000602083870101525b50601f01601f19169290920160200192915050565b60208152600061198f6020830184611aa0565b60006001600160401b03821115611b1957611b19611996565b5060051b60200190565b600082601f830112611b3457600080fd5b81356020611b4182611b00565b604051611b4e82826119ac565b83815260059390931b8501820192828101915086841115611b6e57600080fd5b8286015b84811015611b895780358352918301918301611b72565b509695505050505050565b60008060008060808587031215611baa57600080fd5b611bb38561191b565b935060208501356001600160401b0380821115611bcf57600080fd5b611bdb88838901611b23565b94506040870135915080821115611bf157600080fd5b611bfd88838901611b23565b93506060870135915080821115611c1357600080fd5b50611c20878288016119d8565b91505092959194509250565b600080600080600060a08688031215611c4457600080fd5b611c4d8661191b565b9450611c5b6020870161191b565b935060408601356001600160401b0380821115611c7757600080fd5b611c8389838a01611b23565b94506060880135915080821115611c9957600080fd5b611ca589838a01611b23565b93506080880135915080821115611cbb57600080fd5b50611cc8888289016119d8565b9150509295509295909350565b60008060408385031215611ce857600080fd5b82356001600160401b0380821115611cff57600080fd5b818501915085601f830112611d1357600080fd5b81356020611d2082611b00565b604051611d2d82826119ac565b83815260059390931b8501820192828101915089841115611d4d57600080fd5b948201945b83861015611d7257611d638661191b565b82529482019490820190611d52565b96505086013592505080821115611d8857600080fd5b50611d9585828601611b23565b9150509250929050565b600081518084526020808501945080840160005b83811015611dcf57815187529582019590820190600101611db3565b509495945050505050565b60208152600061198f6020830184611d9f565b60008060408385031215611e0057600080fd5b8235915060208301356001600160401b03811115611e1d57600080fd5b611d95858286016119d8565b600080600060608486031215611e3e57600080fd5b611e478461191b565b925060208401356001600160401b0380821115611e6357600080fd5b611e6f87838801611b23565b93506040860135915080821115611e8557600080fd5b50611e9286828701611b23565b9150509250925092565b60008060008060808587031215611eb257600080fd5b611ebb8561191b565b9350602085013592506040850135915060608501356001600160401b03811115611ee457600080fd5b611c20878288016119d8565b60008060408385031215611f0357600080fd5b611f0c8361191b565b915060208301358015158114611f2157600080fd5b809150509250929050565b60008060408385031215611f3f57600080fd5b611f488361191b565b9150611f566020840161191b565b90509250929050565b600080600080600060a08688031215611f7757600080fd5b611f808661191b565b9450611f8e6020870161191b565b9350604086013592506060860135915060808601356001600160401b03811115611fb757600080fd5b611cc8888289016119d8565b600060208284031215611fd557600080fd5b61198f8261191b565b600080600060608486031215611ff357600080fd5b611ffc8461191b565b95602085013595506040909401359392505050565b6020808252818101527f4f776e61626c653a2063616c6c6572206973206e6f7420746865206f776e6572604082015260600190565b600181811c9082168061205a57607f821691505b6020821081141561207b57634e487b7160e01b600052602260045260246000fd5b50919050565b634e487b7160e01b600052603260045260246000fd5b634e487b7160e01b600052601160045260246000fd5b60006000198214156120c1576120c1612097565b5060010190565b60208082526029908201527f455243313135353a2063616c6c6572206973206e6f74206f776e6572206e6f7260408201526808185c1c1c9bdd995960ba1b606082015260800190565b60208082526021908201527f455243313135353a206d696e7420746f20746865207a65726f206164647265736040820152607360f81b606082015260800190565b60208082526028908201527f455243313135353a2069647320616e6420616d6f756e7473206c656e677468206040820152670dad2e6dac2e8c6d60c31b606082015260800190565b600082198211156121ad576121ad612097565b500190565b6040815260006121c56040830185611d9f565b82810360208401526121d78185611d9f565b95945050505050565b60208082526025908201527f455243313135353a207472616e7366657220746f20746865207a65726f206164604082015264647265737360d81b606082015260800190565b6020808252602a908201527f455243313135353a20696e73756666696369656e742062616c616e636520666f60408201526939103a3930b739b332b960b11b606082015260800190565b60208082526023908201527f455243313135353a206275726e2066726f6d20746865207a65726f206164647260408201526265737360e81b606082015260800190565b60208082526024908201527f455243313135353a206275726e20616d6f756e7420657863656564732062616c604082015263616e636560e01b606082015260800190565b6020808252602e908201527f496e697469616c697a61626c653a20636f6e747261637420697320616c72656160408201526d191e481a5b9a5d1a585b1a5e995960921b606082015260800190565b6020808252602b908201527f496e697469616c697a61626c653a20636f6e7472616374206973206e6f74206960408201526a6e697469616c697a696e6760a81b606082015260800190565b6001600160a01b0386811682528516602082015260a0604082018190526000906123bb90830186611d9f565b82810360608401526123cd8186611d9f565b905082810360808401526123e18185611aa0565b98975050505050505050565b6000602082840312156123ff57600080fd5b815161198f8161195c565b600060033d11156124235760046000803e5060005160e01c5b90565b600060443d10156124345790565b6040516003193d81016004833e81513d6001600160401b03816024840111818411171561246357505050505090565b828501915081518181111561247b5750505050505090565b843d87010160208285010111156124955750505050505090565b6124a4602082860101876119ac565b509095945050505050565b60208082526028908201527f455243313135353a204552433131353552656365697665722072656a656374656040820152676420746f6b656e7360c01b606082015260800190565b6001600160a01b03868116825285166020820152604081018490526060810183905260a06080820181905260009061253190830184611aa0565b97965050505050505056fea264697066735822122020127585b9b0e08aaad16ef58bb75a595691a395dbe9ded8ab662b04cf34280c64736f6c63430008090033",
  "linkReferences": {},
  "deployedLinkReferences": {}
}