{
  "_format": "hh-sol-artifact-1",
  "contractName": "KojoStorage",
  "sourceName": "contracts/utils/KojoStorage.sol",
  "abi": [
    {
      "anonymous": false,
      "inputs": [
        {
          "components": [
            {
              "internalType": "uint256",
              "name": "level",
              "type": "uint256"
            },
            {
              "internalType": "uint256",
              "name": "experiencePoints",
              "type": "uint256"
            },
            {
              "internalType": "uint256[]",
              "name": "plantIds",
              "type": "uint256[]"
            },
            {
              "internalType": "uint256",
              "name": "allowedTokenBalance",
              "type": "uint256"
            },
            {
              "internalType": "bool",
              "name": "isPresent",
              "type": "bool"
            }
          ],
          "indexed": false,
          "internalType": "struct Structs.Participant",
          "name": "participant",
          "type": "tuple"
        }
      ],
      "name": "DeleteParticipant",
      "type": "event"
    },
    {
      "anonymous": false,
      "inputs": [
        {
          "components": [
            {
              "internalType": "uint256",
              "name": "typeId",
              "type": "uint256"
            },
            {
              "internalType": "uint256",
              "name": "level",
              "type": "uint256"
            },
            {
              "internalType": "uint256",
              "name": "experiencePoints",
              "type": "uint256"
            },
            {
              "internalType": "uint256",
              "name": "lifes",
              "type": "uint256"
            },
            {
              "internalType": "uint256",
              "name": "levelCost",
              "type": "uint256"
            },
            {
              "internalType": "bool",
              "name": "isPresent",
              "type": "bool"
            }
          ],
          "indexed": false,
          "internalType": "struct Structs.Plant",
          "name": "plant",
          "type": "tuple"
        }
      ],
      "name": "DeletePlant",
      "type": "event"
    },
    {
      "anonymous": false,
      "inputs": [
        {
          "indexed": false,
          "internalType": "uint8",
          "name": "version",
          "type": "uint8"
        }
      ],
      "name": "Initialized",
      "type": "event"
    },
    {
      "anonymous": false,
      "inputs": [
        {
          "indexed": true,
          "internalType": "address",
          "name": "previousOwner",
          "type": "address"
        },
        {
          "indexed": true,
          "internalType": "address",
          "name": "newOwner",
          "type": "address"
        }
      ],
      "name": "OwnershipTransferred",
      "type": "event"
    },
    {
      "anonymous": false,
      "inputs": [
        {
          "components": [
            {
              "internalType": "uint256",
              "name": "level",
              "type": "uint256"
            },
            {
              "internalType": "uint256",
              "name": "experiencePoints",
              "type": "uint256"
            },
            {
              "internalType": "uint256[]",
              "name": "plantIds",
              "type": "uint256[]"
            },
            {
              "internalType": "uint256",
              "name": "allowedTokenBalance",
              "type": "uint256"
            },
            {
              "internalType": "bool",
              "name": "isPresent",
              "type": "bool"
            }
          ],
          "indexed": false,
          "internalType": "struct Structs.Participant",
          "name": "participant",
          "type": "tuple"
        }
      ],
      "name": "UpdateParticipant",
      "type": "event"
    },
    {
      "anonymous": false,
      "inputs": [
        {
          "components": [
            {
              "internalType": "uint256",
              "name": "typeId",
              "type": "uint256"
            },
            {
              "internalType": "uint256",
              "name": "level",
              "type": "uint256"
            },
            {
              "internalType": "uint256",
              "name": "experiencePoints",
              "type": "uint256"
            },
            {
              "internalType": "uint256",
              "name": "lifes",
              "type": "uint256"
            },
            {
              "internalType": "uint256",
              "name": "levelCost",
              "type": "uint256"
            },
            {
              "internalType": "bool",
              "name": "isPresent",
              "type": "bool"
            }
          ],
          "indexed": false,
          "internalType": "struct Structs.Plant",
          "name": "plant",
          "type": "tuple"
        }
      ],
      "name": "UpdatePlant",
      "type": "event"
    },
    {
      "inputs": [
        {
          "internalType": "address",
          "name": "account",
          "type": "address"
        },
        {
          "internalType": "uint256",
          "name": "tokenId",
          "type": "uint256"
        }
      ],
      "name": "handleAddTokenIdToParticipant",
      "outputs": [
        {
          "components": [
            {
              "internalType": "uint256",
              "name": "level",
              "type": "uint256"
            },
            {
              "internalType": "uint256",
              "name": "experiencePoints",
              "type": "uint256"
            },
            {
              "internalType": "uint256[]",
              "name": "plantIds",
              "type": "uint256[]"
            },
            {
              "internalType": "uint256",
              "name": "allowedTokenBalance",
              "type": "uint256"
            },
            {
              "internalType": "bool",
              "name": "isPresent",
              "type": "bool"
            }
          ],
          "internalType": "struct Structs.Participant",
          "name": "_participant",
          "type": "tuple"
        }
      ],
      "stateMutability": "nonpayable",
      "type": "function"
    },
    {
      "inputs": [
        {
          "internalType": "address",
          "name": "account",
          "type": "address"
        }
      ],
      "name": "handleCreateParticpant",
      "outputs": [
        {
          "components": [
            {
              "internalType": "uint256",
              "name": "level",
              "type": "uint256"
            },
            {
              "internalType": "uint256",
              "name": "experiencePoints",
              "type": "uint256"
            },
            {
              "internalType": "uint256[]",
              "name": "plantIds",
              "type": "uint256[]"
            },
            {
              "internalType": "uint256",
              "name": "allowedTokenBalance",
              "type": "uint256"
            },
            {
              "internalType": "bool",
              "name": "isPresent",
              "type": "bool"
            }
          ],
          "internalType": "struct Structs.Participant",
          "name": "value",
          "type": "tuple"
        }
      ],
      "stateMutability": "nonpayable",
      "type": "function"
    },
    {
      "inputs": [
        {
          "internalType": "uint256",
          "name": "tokenId",
          "type": "uint256"
        }
      ],
      "name": "handleCreatePlant",
      "outputs": [
        {
          "components": [
            {
              "internalType": "uint256",
              "name": "typeId",
              "type": "uint256"
            },
            {
              "internalType": "uint256",
              "name": "level",
              "type": "uint256"
            },
            {
              "internalType": "uint256",
              "name": "experiencePoints",
              "type": "uint256"
            },
            {
              "internalType": "uint256",
              "name": "lifes",
              "type": "uint256"
            },
            {
              "internalType": "uint256",
              "name": "levelCost",
              "type": "uint256"
            },
            {
              "internalType": "bool",
              "name": "isPresent",
              "type": "bool"
            }
          ],
          "internalType": "struct Structs.Plant",
          "name": "",
          "type": "tuple"
        }
      ],
      "stateMutability": "nonpayable",
      "type": "function"
    },
    {
      "inputs": [
        {
          "internalType": "address",
          "name": "account",
          "type": "address"
        }
      ],
      "name": "handleDeleteParticipant",
      "outputs": [
        {
          "components": [
            {
              "internalType": "uint256",
              "name": "level",
              "type": "uint256"
            },
            {
              "internalType": "uint256",
              "name": "experiencePoints",
              "type": "uint256"
            },
            {
              "internalType": "uint256[]",
              "name": "plantIds",
              "type": "uint256[]"
            },
            {
              "internalType": "uint256",
              "name": "allowedTokenBalance",
              "type": "uint256"
            },
            {
              "internalType": "bool",
              "name": "isPresent",
              "type": "bool"
            }
          ],
          "internalType": "struct Structs.Participant",
          "name": "value",
          "type": "tuple"
        }
      ],
      "stateMutability": "nonpayable",
      "type": "function"
    },
    {
      "inputs": [
        {
          "internalType": "uint256",
          "name": "tokenId",
          "type": "uint256"
        }
      ],
      "name": "handleDeletePlant",
      "outputs": [
        {
          "components": [
            {
              "internalType": "uint256",
              "name": "typeId",
              "type": "uint256"
            },
            {
              "internalType": "uint256",
              "name": "level",
              "type": "uint256"
            },
            {
              "internalType": "uint256",
              "name": "experiencePoints",
              "type": "uint256"
            },
            {
              "internalType": "uint256",
              "name": "lifes",
              "type": "uint256"
            },
            {
              "internalType": "uint256",
              "name": "levelCost",
              "type": "uint256"
            },
            {
              "internalType": "bool",
              "name": "isPresent",
              "type": "bool"
            }
          ],
          "internalType": "struct Structs.Plant",
          "name": "value",
          "type": "tuple"
        }
      ],
      "stateMutability": "nonpayable",
      "type": "function"
    },
    {
      "inputs": [
        {
          "internalType": "address",
          "name": "account",
          "type": "address"
        }
      ],
      "name": "handleReadParticipant",
      "outputs": [
        {
          "components": [
            {
              "internalType": "uint256",
              "name": "level",
              "type": "uint256"
            },
            {
              "internalType": "uint256",
              "name": "experiencePoints",
              "type": "uint256"
            },
            {
              "internalType": "uint256[]",
              "name": "plantIds",
              "type": "uint256[]"
            },
            {
              "internalType": "uint256",
              "name": "allowedTokenBalance",
              "type": "uint256"
            },
            {
              "internalType": "bool",
              "name": "isPresent",
              "type": "bool"
            }
          ],
          "internalType": "struct Structs.Participant",
          "name": "_participant",
          "type": "tuple"
        }
      ],
      "stateMutability": "view",
      "type": "function"
    },
    {
      "inputs": [],
      "name": "handleReadParticipantAddresses",
      "outputs": [
        {
          "internalType": "address[]",
          "name": "",
          "type": "address[]"
        }
      ],
      "stateMutability": "view",
      "type": "function"
    },
    {
      "inputs": [
        {
          "internalType": "uint256",
          "name": "tokenId",
          "type": "uint256"
        }
      ],
      "name": "handleReadPlant",
      "outputs": [
        {
          "components": [
            {
              "internalType": "uint256",
              "name": "typeId",
              "type": "uint256"
            },
            {
              "internalType": "uint256",
              "name": "level",
              "type": "uint256"
            },
            {
              "internalType": "uint256",
              "name": "experiencePoints",
              "type": "uint256"
            },
            {
              "internalType": "uint256",
              "name": "lifes",
              "type": "uint256"
            },
            {
              "internalType": "uint256",
              "name": "levelCost",
              "type": "uint256"
            },
            {
              "internalType": "bool",
              "name": "isPresent",
              "type": "bool"
            }
          ],
          "internalType": "struct Structs.Plant",
          "name": "_plant",
          "type": "tuple"
        }
      ],
      "stateMutability": "view",
      "type": "function"
    },
    {
      "inputs": [
        {
          "internalType": "address",
          "name": "account",
          "type": "address"
        },
        {
          "components": [
            {
              "internalType": "uint256",
              "name": "level",
              "type": "uint256"
            },
            {
              "internalType": "uint256",
              "name": "experiencePoints",
              "type": "uint256"
            },
            {
              "internalType": "uint256[]",
              "name": "plantIds",
              "type": "uint256[]"
            },
            {
              "internalType": "uint256",
              "name": "allowedTokenBalance",
              "type": "uint256"
            },
            {
              "internalType": "bool",
              "name": "isPresent",
              "type": "bool"
            }
          ],
          "internalType": "struct Structs.Participant",
          "name": "_participant",
          "type": "tuple"
        }
      ],
      "name": "handleUpdateParticipant",
      "outputs": [
        {
          "components": [
            {
              "internalType": "uint256",
              "name": "level",
              "type": "uint256"
            },
            {
              "internalType": "uint256",
              "name": "experiencePoints",
              "type": "uint256"
            },
            {
              "internalType": "uint256[]",
              "name": "plantIds",
              "type": "uint256[]"
            },
            {
              "internalType": "uint256",
              "name": "allowedTokenBalance",
              "type": "uint256"
            },
            {
              "internalType": "bool",
              "name": "isPresent",
              "type": "bool"
            }
          ],
          "internalType": "struct Structs.Participant",
          "name": "value",
          "type": "tuple"
        }
      ],
      "stateMutability": "nonpayable",
      "type": "function"
    },
    {
      "inputs": [
        {
          "internalType": "uint256",
          "name": "tokenId",
          "type": "uint256"
        },
        {
          "components": [
            {
              "internalType": "uint256",
              "name": "typeId",
              "type": "uint256"
            },
            {
              "internalType": "uint256",
              "name": "level",
              "type": "uint256"
            },
            {
              "internalType": "uint256",
              "name": "experiencePoints",
              "type": "uint256"
            },
            {
              "internalType": "uint256",
              "name": "lifes",
              "type": "uint256"
            },
            {
              "internalType": "uint256",
              "name": "levelCost",
              "type": "uint256"
            },
            {
              "internalType": "bool",
              "name": "isPresent",
              "type": "bool"
            }
          ],
          "internalType": "struct Structs.Plant",
          "name": "_plant",
          "type": "tuple"
        }
      ],
      "name": "handleUpdatePlant",
      "outputs": [
        {
          "components": [
            {
              "internalType": "uint256",
              "name": "typeId",
              "type": "uint256"
            },
            {
              "internalType": "uint256",
              "name": "level",
              "type": "uint256"
            },
            {
              "internalType": "uint256",
              "name": "experiencePoints",
              "type": "uint256"
            },
            {
              "internalType": "uint256",
              "name": "lifes",
              "type": "uint256"
            },
            {
              "internalType": "uint256",
              "name": "levelCost",
              "type": "uint256"
            },
            {
              "internalType": "bool",
              "name": "isPresent",
              "type": "bool"
            }
          ],
          "internalType": "struct Structs.Plant",
          "name": "value",
          "type": "tuple"
        }
      ],
      "stateMutability": "nonpayable",
      "type": "function"
    },
    {
      "inputs": [],
      "name": "handleUpdatePlantTypeId",
      "outputs": [],
      "stateMutability": "nonpayable",
      "type": "function"
    },
    {
      "inputs": [],
      "name": "initialTokenAllowance",
      "outputs": [
        {
          "internalType": "uint256",
          "name": "",
          "type": "uint256"
        }
      ],
      "stateMutability": "view",
      "type": "function"
    },
    {
      "inputs": [],
      "name": "initialize",
      "outputs": [],
      "stateMutability": "nonpayable",
      "type": "function"
    },
    {
      "inputs": [],
      "name": "owner",
      "outputs": [
        {
          "internalType": "address",
          "name": "",
          "type": "address"
        }
      ],
      "stateMutability": "view",
      "type": "function"
    },
    {
      "inputs": [
        {
          "internalType": "uint256",
          "name": "",
          "type": "uint256"
        }
      ],
      "name": "participantAddresses",
      "outputs": [
        {
          "internalType": "address",
          "name": "",
          "type": "address"
        }
      ],
      "stateMutability": "view",
      "type": "function"
    },
    {
      "inputs": [
        {
          "internalType": "address",
          "name": "",
          "type": "address"
        }
      ],
      "name": "participants",
      "outputs": [
        {
          "internalType": "uint256",
          "name": "level",
          "type": "uint256"
        },
        {
          "internalType": "uint256",
          "name": "experiencePoints",
          "type": "uint256"
        },
        {
          "internalType": "uint256",
          "name": "allowedTokenBalance",
          "type": "uint256"
        },
        {
          "internalType": "bool",
          "name": "isPresent",
          "type": "bool"
        }
      ],
      "stateMutability": "view",
      "type": "function"
    },
    {
      "inputs": [],
      "name": "plantPrice",
      "outputs": [
        {
          "internalType": "uint256",
          "name": "",
          "type": "uint256"
        }
      ],
      "stateMutability": "view",
      "type": "function"
    },
    {
      "inputs": [],
      "name": "plantTypeId",
      "outputs": [
        {
          "internalType": "uint256",
          "name": "",
          "type": "uint256"
        }
      ],
      "stateMutability": "view",
      "type": "function"
    },
    {
      "inputs": [
        {
          "internalType": "uint256",
          "name": "",
          "type": "uint256"
        }
      ],
      "name": "plants",
      "outputs": [
        {
          "internalType": "uint256",
          "name": "typeId",
          "type": "uint256"
        },
        {
          "internalType": "uint256",
          "name": "level",
          "type": "uint256"
        },
        {
          "internalType": "uint256",
          "name": "experiencePoints",
          "type": "uint256"
        },
        {
          "internalType": "uint256",
          "name": "lifes",
          "type": "uint256"
        },
        {
          "internalType": "uint256",
          "name": "levelCost",
          "type": "uint256"
        },
        {
          "internalType": "bool",
          "name": "isPresent",
          "type": "bool"
        }
      ],
      "stateMutability": "view",
      "type": "function"
    },
    {
      "inputs": [],
      "name": "renounceOwnership",
      "outputs": [],
      "stateMutability": "nonpayable",
      "type": "function"
    },
    {
      "inputs": [
        {
          "internalType": "address",
          "name": "newOwner",
          "type": "address"
        }
      ],
      "name": "transferOwnership",
      "outputs": [],
      "stateMutability": "nonpayable",
      "type": "function"
    }
  ],
  "bytecode": "0x608060405234801561001057600080fd5b506118b7806100206000396000f3fe608060405234801561001057600080fd5b50600436106101375760003560e01c8063715018a6116100b85780639778e0b31161007c5780639778e0b3146103145780639fd9491714610327578063d6a0cc291461033a578063e1d1ad1214610343578063e599913914610356578063f2fde38b1461036957600080fd5b8063715018a61461026b5780637b16869c146102735780638129fc1c146102865780638da5cb5b1461028e5780638dd2361c1461029f57600080fd5b80631fec8c02116100ff5780631fec8c02146101fc57806326fad7771461020f5780633fcd0c371461022457806354ffbddb1461023757806358ac00381461026257600080fd5b80630591f3621461013c57806309e69ede1461014657806311622ce5146101a557806315485de3146101c55780631bca55e5146101e5575b600080fd5b61014461037c565b005b61017e610154366004611391565b60686020526000908152604090208054600182015460038301546004909301549192909160ff1684565b60408051948552602085019390935291830152151560608201526080015b60405180910390f35b6101b86101b3366004611391565b6103dc565b60405161019c91906113b3565b6101d86101d3366004611439565b6105e7565b60405161019c9190611471565b6101ee60665481565b60405190815260200161019c565b6101d861020a3660046114b7565b610735565b61021761083e565b60405161019c91906114d0565b6101b861023236600461151d565b6108cb565b61024a6102453660046114b7565b610a14565b6040516001600160a01b03909116815260200161019c565b6101ee60655481565b610144610a3e565b6101d86102813660046114b7565b610a72565b610144610bca565b6033546001600160a01b031661024a565b6102e56102ad3660046114b7565b606a60205260009081526040902080546001820154600283015460038401546004850154600590950154939492939192909160ff1686565b6040805196875260208701959095529385019290925260608401526080830152151560a082015260c00161019c565b6101b8610322366004611391565b610c4e565b6101b8610335366004611572565b610d88565b6101ee60675481565b6101d86103513660046114b7565b610f16565b6101b8610364366004611391565b610ff9565b610144610377366004611391565b6110cf565b6033546001600160a01b031633146103af5760405162461bcd60e51b81526004016103a69061159c565b60405180910390fd5b606754600314156103c1576001606755565b6001606760008282546103d491906115d1565b90915550505b565b6103e46112b1565b6033546001600160a01b0316331461040e5760405162461bcd60e51b81526004016103a69061159c565b6001600160a01b0382166000908152606860209081526040808320815160a0810183528154815260018201548185015260028201805484518187028101870186528181529295939486019383018282801561048857602002820191906000526020600020905b815481526020019060010190808311610474575b50505091835250506003820154602082015260049091015460ff1615156040909101526080810151909150156105005760405162461bcd60e51b815260206004820152601b60248201527f5061727469636970616e7420616c7265616479206578697374732e000000000060448201526064016103a6565b6105086112b1565b60018082526000602080840182815260608501839052604080518481528084018252818701908152608087018690526001600160a01b038a168552606884529320855181559051938101939093559051805184939261056e9260028501929101906112e2565b50606082015160038201556080909101516004909101805460ff1916911515919091179055606980546001810182556000919091527f7fb4302e8e91f9110a6554c2c0a24601252c2a42c2220ca988efcfe3999143080180546001600160a01b0319166001600160a01b0386161790559150505b919050565b6105ef61132d565b6033546001600160a01b031633146106195760405162461bcd60e51b81526004016103a69061159c565b6000838152606a6020908152604091829020825160c08101845281548152600182015492810192909252600281015492820192909252600382015460608201526004820154608082015260059091015460ff16151560a082018190526106915760405162461bcd60e51b81526004016103a69061160d565b6106a03684900384018461164a565b6000858152606a602090815260409182902083518155908301516001820155828201516002820155606083015160038201556080830151600482015560a08301516005909101805460ff1916911515919091179055519091507f39f9113684b39569e27899e8e2e92db2c34a873f06ea8d31d0d2f42c4464a76b90610726908390611471565b60405180910390a19392505050565b61073d61132d565b6033546001600160a01b031633146107675760405162461bcd60e51b81526004016103a69061159c565b6000828152606a6020908152604091829020825160c08101845281548152600182015492810192909252600281015492820192909252600382015460608201526004820154608082015260059091015460ff16151560a082018190526107df5760405162461bcd60e51b81526004016103a69061160d565b50506000908152606a6020908152604091829020825160c08101845281548152600182015492810192909252600281015492820192909252600382015460608201526004820154608082015260059091015460ff16151560a082015290565b6033546060906001600160a01b0316331461086b5760405162461bcd60e51b81526004016103a69061159c565b60698054806020026020016040519081016040528092919081815260200182805480156108c157602002820191906000526020600020905b81546001600160a01b031681526001909101906020018083116108a3575b5050505050905090565b6108d36112b1565b6033546001600160a01b031633146108fd5760405162461bcd60e51b81526004016103a69061159c565b6001600160a01b0383166000908152606860209081526040808320815160a0810183528154815260018201548185015260028201805484518187028101870186528181529295939486019383018282801561097757602002820191906000526020600020905b815481526020019060010190808311610963575b50505091835250506003820154602082015260049091015460ff16151560409091015260808101519091506109be5760405162461bcd60e51b81526004016103a6906116ca565b6001600160a01b038416600090815260686020526040902083906109e28282611797565b9050507fbde0b5f6c349605083550b6ae7537d272caa80d602b2953848ce00156a594b2d8160405161072691906113b3565b60698181548110610a2457600080fd5b6000918252602090912001546001600160a01b0316905081565b6033546001600160a01b03163314610a685760405162461bcd60e51b81526004016103a69061159c565b6103da6000611163565b610a7a61132d565b6033546001600160a01b03163314610aa45760405162461bcd60e51b81526004016103a69061159c565b6000828152606a6020908152604091829020825160c08101845281548152600182015492810192909252600281015492820192909252600382015460608201526004820154608082015260059091015460ff1615801560a0830152610b435760405162461bcd60e51b8152602060048201526015602482015274283630b73a1030b63932b0b23c9032bc34b9ba399760591b60448201526064016103a6565b610b4b61132d565b60675481526001602080830182815260006040808601828152600360608801818152606460808a0190815260a08a018981529c8652606a90975292909320875181559351958401959095559351600283015592519281019290925551600482015593516005909401805460ff1916941515949094179093555090919050565b6000610bd660016111b5565b90508015610bee576000805461ff0019166101001790555b600160658190556064606655606755610c0561123d565b8015610c4b576000805461ff0019169055604051600181527f7f26b83ff96e1f2b6a682f133852f6798a09c465da95921460cefb38474024989060200160405180910390a15b50565b610c566112b1565b6033546001600160a01b03163314610c805760405162461bcd60e51b81526004016103a69061159c565b6001600160a01b0382166000908152606860209081526040808320815160a08101835281548152600182015481850152600282018054845181870281018701865281815292959394860193830182828015610cfa57602002820191906000526020600020905b815481526020019060010190808311610ce6575b50505091835250506003820154602082015260049091015460ff1615156040909101526080810151909150610d415760405162461bcd60e51b81526004016103a6906116ca565b610d496112b1565b90507fd0a3d2d8946fb042e4542a54d3647344add244d38811d62cad6f4398f56ab0c481604051610d7a91906113b3565b60405180910390a192915050565b610d906112b1565b6033546001600160a01b03163314610dba5760405162461bcd60e51b81526004016103a69061159c565b6001600160a01b0383166000908152606860205260409020600481015460ff16610df65760405162461bcd60e51b81526004016103a6906116ca565b60008311610e6c5760405162461bcd60e51b815260206004820152603f60248201527f546f6b656e204944206d7573742062652067726561746572207468616e20302060448201527f696e206f7264657220746f20626520616e204e465420746f6b656e2069642e0060648201526084016103a6565b6002810180546001818101835560008381526020908190209092018690556040805160a08101825285548152918501548284015283548151818502810185018352818152929486949286019392909190830182828015610eeb57602002820191906000526020600020905b815481526020019060010190808311610ed7575b50505091835250506003820154602082015260049091015460ff161515604090910152949350505050565b610f1e61132d565b6033546001600160a01b03163314610f485760405162461bcd60e51b81526004016103a69061159c565b6000828152606a6020908152604091829020825160c08101845281548152600182015492810192909252600281015492820192909252600382015460608201526004820154608082015260059091015460ff16151560a08201819052610fc05760405162461bcd60e51b81526004016103a69061160d565b610fc861132d565b90507fe7726af8a64d6e7b6c9817c6359ed54ed122385afe35d72ef156d7cca320b34e81604051610d7a9190611471565b6110016112b1565b6033546001600160a01b0316331461102b5760405162461bcd60e51b81526004016103a69061159c565b6001600160a01b0382166000908152606860209081526040808320815160a081018352815481526001820154818501526002820180548451818702810187018652818152929593948601938301828280156110a557602002820191906000526020600020905b815481526020019060010190808311611091575b50505091835250506003820154602082015260049091015460ff1615156040909101529392505050565b6033546001600160a01b031633146110f95760405162461bcd60e51b81526004016103a69061159c565b6001600160a01b03811661115e5760405162461bcd60e51b815260206004820152602660248201527f4f776e61626c653a206e6577206f776e657220697320746865207a65726f206160448201526564647265737360d01b60648201526084016103a6565b610c4b815b603380546001600160a01b038381166001600160a01b0319831681179093556040519116919082907f8be0079c531659141344cd1fd0a4f28419497f9722a3daafe3b4186f6b6457e090600090a35050565b60008054610100900460ff16156111fc578160ff1660011480156111d85750303b155b6111f45760405162461bcd60e51b81526004016103a690611833565b506000919050565b60005460ff8084169116106112235760405162461bcd60e51b81526004016103a690611833565b506000805460ff191660ff92909216919091179055600190565b600054610100900460ff166112a85760405162461bcd60e51b815260206004820152602b60248201527f496e697469616c697a61626c653a20636f6e7472616374206973206e6f74206960448201526a6e697469616c697a696e6760a81b60648201526084016103a6565b6103da33611163565b6040518060a00160405280600081526020016000815260200160608152602001600081526020016000151581525090565b82805482825590600052602060002090810192821561131d579160200282015b8281111561131d578251825591602001919060010190611302565b50611329929150611365565b5090565b6040518060c0016040528060008152602001600081526020016000815260200160008152602001600081526020016000151581525090565b5b808211156113295760008155600101611366565b80356001600160a01b03811681146105e257600080fd5b6000602082840312156113a357600080fd5b6113ac8261137a565b9392505050565b6000602080835260c08301845182850152818501516040850152604085015160a0606086015281815180845260e0870191508483019350600092505b8083101561140f57835182529284019260019290920191908401906113ef565b50606087015160808701526080870151935061142f60a087018515159052565b9695505050505050565b60008082840360e081121561144d57600080fd5b8335925060c0601f198201121561146357600080fd5b506020830190509250929050565b600060c082019050825182526020830151602083015260408301516040830152606083015160608301526080830151608083015260a0830151151560a083015292915050565b6000602082840312156114c957600080fd5b5035919050565b6020808252825182820181905260009190848201906040850190845b818110156115115783516001600160a01b0316835292840192918401916001016114ec565b50909695505050505050565b6000806040838503121561153057600080fd5b6115398361137a565b9150602083013567ffffffffffffffff81111561155557600080fd5b830160a0818603121561156757600080fd5b809150509250929050565b6000806040838503121561158557600080fd5b61158e8361137a565b946020939093013593505050565b6020808252818101527f4f776e61626c653a2063616c6c6572206973206e6f7420746865206f776e6572604082015260600190565b600082198211156115f257634e487b7160e01b600052601160045260246000fd5b500190565b634e487b7160e01b600052604160045260246000fd5b602080825260159082015274283630b73a103237b2b9903737ba1032bc34b9ba1760591b604082015260600190565b8015158114610c4b57600080fd5b600060c0828403121561165c57600080fd5b60405160c0810181811067ffffffffffffffff8211171561167f5761167f6115f7565b8060405250823581526020830135602082015260408301356040820152606083013560608201526080830135608082015260a08301356116be8161163c565b60a08201529392505050565b6020808252601b908201527f5061727469636970616e7420646f6573206e6f742065786973742e0000000000604082015260600190565b6801000000000000000083111561171a5761171a6115f7565b805483825580841015611751576000828152602081208581019083015b8082101561174d57828255600182019150611737565b5050505b5060008181526020812083915b8581101561177c57823582556020909201916001918201910161175e565b505050505050565b600081356117918161163c565b92915050565b81358155602082013560018201556040820135601e198336030181126117bc57600080fd5b8201803567ffffffffffffffff8111156117d557600080fd5b6020820191508060051b36038213156117ed57600080fd5b6117fb818360028601611701565b50506060820135600382015561182f61181660808401611784565b6004830160ff1981541660ff8315151681178255505050565b5050565b6020808252602e908201527f496e697469616c697a61626c653a20636f6e747261637420697320616c72656160408201526d191e481a5b9a5d1a585b1a5e995960921b60608201526080019056fea2646970667358221220d73c0a4821192074ab8c666f1c054f3dac06ebc2545bdcfcb148564dc15ce0da64736f6c63430008090033",
  "linkReferences": {},
  "deployedLinkReferences": {}
}