{
  "_format": "hh-sol-artifact-1",
  "contractName": "KojoStorage",
  "sourceName": "contracts/utils/KojoStorage.sol",
  "abi": [
    {
      "inputs": [],
      "stateMutability": "nonpayable",
      "type": "constructor"
    },
    {
      "anonymous": false,
      "inputs": [
        {
          "indexed": false,
          "internalType": "address",
          "name": "owner",
          "type": "address"
        }
      ],
      "name": "CreateOwner",
      "type": "event"
    },
    {
      "anonymous": false,
      "inputs": [
        {
          "indexed": false,
          "internalType": "address",
          "name": "owner",
          "type": "address"
        }
      ],
      "name": "UpdateOwner",
      "type": "event"
    },
    {
      "inputs": [
        {
          "internalType": "address",
          "name": "_owner",
          "type": "address"
        }
      ],
      "name": "handleUpdateOwner",
      "outputs": [],
      "stateMutability": "nonpayable",
      "type": "function"
    },
    {
      "inputs": [
        {
          "internalType": "uint256",
          "name": "_startCapital",
          "type": "uint256"
        }
      ],
      "name": "handleUpdateStartCapital",
      "outputs": [],
      "stateMutability": "nonpayable",
      "type": "function"
    },
    {
      "inputs": [
        {
          "internalType": "uint256",
          "name": "_tokenSensitivity",
          "type": "uint256"
        }
      ],
      "name": "handleUpdateTokenSensitivity",
      "outputs": [],
      "stateMutability": "nonpayable",
      "type": "function"
    },
    {
      "inputs": [
        {
          "internalType": "uint256",
          "name": "_wateringCost",
          "type": "uint256"
        }
      ],
      "name": "handleUpdateWateringCost",
      "outputs": [],
      "stateMutability": "nonpayable",
      "type": "function"
    },
    {
      "inputs": [],
      "name": "owner",
      "outputs": [
        {
          "internalType": "address",
          "name": "",
          "type": "address"
        }
      ],
      "stateMutability": "view",
      "type": "function"
    }
  ],
  "bytecode": "0x608060405234801561001057600080fd5b50336000806101000a81548173ffffffffffffffffffffffffffffffffffffffff021916908373ffffffffffffffffffffffffffffffffffffffff1602179055507f5226d0ff94acd2b48c7a972e1e2fda16d35c7927b3171f5fed7f44284c7eb41560008054906101000a900473ffffffffffffffffffffffffffffffffffffffff166040516100a09190610106565b60405180910390a1606460018190555060016002819055506001600381905550610121565b600073ffffffffffffffffffffffffffffffffffffffff82169050919050565b60006100f0826100c5565b9050919050565b610100816100e5565b82525050565b600060208201905061011b60008301846100f7565b92915050565b6105ae806101306000396000f3fe608060405234801561001057600080fd5b50600436106100575760003560e01c806302e413631461005c5780633024245414610078578063681e331d146100945780638da5cb5b146100b0578063bc8a2d54146100ce575b600080fd5b61007660048036038101906100719190610419565b6100ea565b005b610092600480360381019061008d9190610419565b610182565b005b6100ae60048036038101906100a991906104a4565b61021a565b005b6100b8610322565b6040516100c591906104e0565b60405180910390f35b6100e860048036038101906100e39190610419565b610346565b005b3373ffffffffffffffffffffffffffffffffffffffff1660008054906101000a900473ffffffffffffffffffffffffffffffffffffffff1673ffffffffffffffffffffffffffffffffffffffff1614610178576040517f08c379a000000000000000000000000000000000000000000000000000000000815260040161016f90610558565b60405180910390fd5b8060038190555050565b3373ffffffffffffffffffffffffffffffffffffffff1660008054906101000a900473ffffffffffffffffffffffffffffffffffffffff1673ffffffffffffffffffffffffffffffffffffffff1614610210576040517f08c379a000000000000000000000000000000000000000000000000000000000815260040161020790610558565b60405180910390fd5b8060028190555050565b3373ffffffffffffffffffffffffffffffffffffffff1660008054906101000a900473ffffffffffffffffffffffffffffffffffffffff1673ffffffffffffffffffffffffffffffffffffffff16146102a8576040517f08c379a000000000000000000000000000000000000000000000000000000000815260040161029f90610558565b60405180910390fd5b806000806101000a81548173ffffffffffffffffffffffffffffffffffffffff021916908373ffffffffffffffffffffffffffffffffffffffff1602179055507f84022644ce39de434e8f39c4398a3628815893104188274c37205d41c2d509678160405161031791906104e0565b60405180910390a150565b60008054906101000a900473ffffffffffffffffffffffffffffffffffffffff1681565b3373ffffffffffffffffffffffffffffffffffffffff1660008054906101000a900473ffffffffffffffffffffffffffffffffffffffff1673ffffffffffffffffffffffffffffffffffffffff16146103d4576040517f08c379a00000000000000000000000000000000000000000000000000000000081526004016103cb90610558565b60405180910390fd5b8060018190555050565b600080fd5b6000819050919050565b6103f6816103e3565b811461040157600080fd5b50565b600081359050610413816103ed565b92915050565b60006020828403121561042f5761042e6103de565b5b600061043d84828501610404565b91505092915050565b600073ffffffffffffffffffffffffffffffffffffffff82169050919050565b600061047182610446565b9050919050565b61048181610466565b811461048c57600080fd5b50565b60008135905061049e81610478565b92915050565b6000602082840312156104ba576104b96103de565b5b60006104c88482850161048f565b91505092915050565b6104da81610466565b82525050565b60006020820190506104f560008301846104d1565b92915050565b600082825260208201905092915050565b7f416374696f6e206e6f7420616c6c6f7765642e00000000000000000000000000600082015250565b60006105426013836104fb565b915061054d8261050c565b602082019050919050565b6000602082019050818103600083015261057181610535565b905091905056fea26469706673582212200ccfddf14dd0814bda018b4d6c07a9fe1f59c0faa64374ea9b5d1212bd03aae764736f6c63430008090033",
  "linkReferences": {},
  "deployedLinkReferences": {}
}