{
  "_format": "hh-sol-artifact-1",
  "contractName": "KojoStorage",
  "sourceName": "contracts/utils/KojoStorage.sol",
  "abi": [
    {
      "anonymous": false,
      "inputs": [
        {
          "components": [
            {
              "internalType": "uint256",
              "name": "level",
              "type": "uint256"
            },
            {
              "internalType": "uint256",
              "name": "experiencePoints",
              "type": "uint256"
            },
            {
              "internalType": "uint256[]",
              "name": "plantIds",
              "type": "uint256[]"
            },
            {
              "internalType": "uint256",
              "name": "allowedTokenBalance",
              "type": "uint256"
            },
            {
              "internalType": "bool",
              "name": "isPresent",
              "type": "bool"
            }
          ],
          "indexed": false,
          "internalType": "struct Structs.Participant",
          "name": "participant",
          "type": "tuple"
        }
      ],
      "name": "DeleteParticipant",
      "type": "event"
    },
    {
      "anonymous": false,
      "inputs": [
        {
          "components": [
            {
              "internalType": "uint256",
              "name": "typeId",
              "type": "uint256"
            },
            {
              "internalType": "uint256",
              "name": "level",
              "type": "uint256"
            },
            {
              "internalType": "uint256",
              "name": "experiencePoints",
              "type": "uint256"
            },
            {
              "internalType": "uint256",
              "name": "lifes",
              "type": "uint256"
            },
            {
              "internalType": "uint256",
              "name": "levelCost",
              "type": "uint256"
            },
            {
              "internalType": "bool",
              "name": "isPresent",
              "type": "bool"
            }
          ],
          "indexed": false,
          "internalType": "struct Structs.Plant",
          "name": "plant",
          "type": "tuple"
        }
      ],
      "name": "DeletePlant",
      "type": "event"
    },
    {
      "anonymous": false,
      "inputs": [
        {
          "indexed": false,
          "internalType": "uint8",
          "name": "version",
          "type": "uint8"
        }
      ],
      "name": "Initialized",
      "type": "event"
    },
    {
      "anonymous": false,
      "inputs": [
        {
          "indexed": true,
          "internalType": "address",
          "name": "previousOwner",
          "type": "address"
        },
        {
          "indexed": true,
          "internalType": "address",
          "name": "newOwner",
          "type": "address"
        }
      ],
      "name": "OwnershipTransferred",
      "type": "event"
    },
    {
      "anonymous": false,
      "inputs": [
        {
          "components": [
            {
              "internalType": "uint256",
              "name": "level",
              "type": "uint256"
            },
            {
              "internalType": "uint256",
              "name": "experiencePoints",
              "type": "uint256"
            },
            {
              "internalType": "uint256[]",
              "name": "plantIds",
              "type": "uint256[]"
            },
            {
              "internalType": "uint256",
              "name": "allowedTokenBalance",
              "type": "uint256"
            },
            {
              "internalType": "bool",
              "name": "isPresent",
              "type": "bool"
            }
          ],
          "indexed": false,
          "internalType": "struct Structs.Participant",
          "name": "participant",
          "type": "tuple"
        }
      ],
      "name": "UpdateParticipant",
      "type": "event"
    },
    {
      "anonymous": false,
      "inputs": [
        {
          "components": [
            {
              "internalType": "uint256",
              "name": "typeId",
              "type": "uint256"
            },
            {
              "internalType": "uint256",
              "name": "level",
              "type": "uint256"
            },
            {
              "internalType": "uint256",
              "name": "experiencePoints",
              "type": "uint256"
            },
            {
              "internalType": "uint256",
              "name": "lifes",
              "type": "uint256"
            },
            {
              "internalType": "uint256",
              "name": "levelCost",
              "type": "uint256"
            },
            {
              "internalType": "bool",
              "name": "isPresent",
              "type": "bool"
            }
          ],
          "indexed": false,
          "internalType": "struct Structs.Plant",
          "name": "plant",
          "type": "tuple"
        }
      ],
      "name": "UpdatePlant",
      "type": "event"
    },
    {
      "inputs": [
        {
          "internalType": "address",
          "name": "account",
          "type": "address"
        },
        {
          "internalType": "uint256",
          "name": "tokenId",
          "type": "uint256"
        }
      ],
      "name": "handleAddTokenIdToParticipant",
      "outputs": [
        {
          "components": [
            {
              "internalType": "uint256",
              "name": "level",
              "type": "uint256"
            },
            {
              "internalType": "uint256",
              "name": "experiencePoints",
              "type": "uint256"
            },
            {
              "internalType": "uint256[]",
              "name": "plantIds",
              "type": "uint256[]"
            },
            {
              "internalType": "uint256",
              "name": "allowedTokenBalance",
              "type": "uint256"
            },
            {
              "internalType": "bool",
              "name": "isPresent",
              "type": "bool"
            }
          ],
          "internalType": "struct Structs.Participant",
          "name": "_participant",
          "type": "tuple"
        }
      ],
      "stateMutability": "nonpayable",
      "type": "function"
    },
    {
      "inputs": [
        {
          "internalType": "address",
          "name": "account",
          "type": "address"
        }
      ],
      "name": "handleCreateParticpant",
      "outputs": [
        {
          "components": [
            {
              "internalType": "uint256",
              "name": "level",
              "type": "uint256"
            },
            {
              "internalType": "uint256",
              "name": "experiencePoints",
              "type": "uint256"
            },
            {
              "internalType": "uint256[]",
              "name": "plantIds",
              "type": "uint256[]"
            },
            {
              "internalType": "uint256",
              "name": "allowedTokenBalance",
              "type": "uint256"
            },
            {
              "internalType": "bool",
              "name": "isPresent",
              "type": "bool"
            }
          ],
          "internalType": "struct Structs.Participant",
          "name": "value",
          "type": "tuple"
        }
      ],
      "stateMutability": "nonpayable",
      "type": "function"
    },
    {
      "inputs": [
        {
          "internalType": "uint256",
          "name": "tokenId",
          "type": "uint256"
        }
      ],
      "name": "handleCreatePlant",
      "outputs": [
        {
          "components": [
            {
              "internalType": "uint256",
              "name": "typeId",
              "type": "uint256"
            },
            {
              "internalType": "uint256",
              "name": "level",
              "type": "uint256"
            },
            {
              "internalType": "uint256",
              "name": "experiencePoints",
              "type": "uint256"
            },
            {
              "internalType": "uint256",
              "name": "lifes",
              "type": "uint256"
            },
            {
              "internalType": "uint256",
              "name": "levelCost",
              "type": "uint256"
            },
            {
              "internalType": "bool",
              "name": "isPresent",
              "type": "bool"
            }
          ],
          "internalType": "struct Structs.Plant",
          "name": "",
          "type": "tuple"
        }
      ],
      "stateMutability": "nonpayable",
      "type": "function"
    },
    {
      "inputs": [
        {
          "internalType": "address",
          "name": "account",
          "type": "address"
        }
      ],
      "name": "handleDeleteParticipant",
      "outputs": [
        {
          "components": [
            {
              "internalType": "uint256",
              "name": "level",
              "type": "uint256"
            },
            {
              "internalType": "uint256",
              "name": "experiencePoints",
              "type": "uint256"
            },
            {
              "internalType": "uint256[]",
              "name": "plantIds",
              "type": "uint256[]"
            },
            {
              "internalType": "uint256",
              "name": "allowedTokenBalance",
              "type": "uint256"
            },
            {
              "internalType": "bool",
              "name": "isPresent",
              "type": "bool"
            }
          ],
          "internalType": "struct Structs.Participant",
          "name": "value",
          "type": "tuple"
        }
      ],
      "stateMutability": "nonpayable",
      "type": "function"
    },
    {
      "inputs": [
        {
          "internalType": "uint256",
          "name": "tokenId",
          "type": "uint256"
        }
      ],
      "name": "handleDeletePlant",
      "outputs": [
        {
          "components": [
            {
              "internalType": "uint256",
              "name": "typeId",
              "type": "uint256"
            },
            {
              "internalType": "uint256",
              "name": "level",
              "type": "uint256"
            },
            {
              "internalType": "uint256",
              "name": "experiencePoints",
              "type": "uint256"
            },
            {
              "internalType": "uint256",
              "name": "lifes",
              "type": "uint256"
            },
            {
              "internalType": "uint256",
              "name": "levelCost",
              "type": "uint256"
            },
            {
              "internalType": "bool",
              "name": "isPresent",
              "type": "bool"
            }
          ],
          "internalType": "struct Structs.Plant",
          "name": "value",
          "type": "tuple"
        }
      ],
      "stateMutability": "nonpayable",
      "type": "function"
    },
    {
      "inputs": [
        {
          "internalType": "address",
          "name": "account",
          "type": "address"
        }
      ],
      "name": "handleReadParticipant",
      "outputs": [
        {
          "components": [
            {
              "internalType": "uint256",
              "name": "level",
              "type": "uint256"
            },
            {
              "internalType": "uint256",
              "name": "experiencePoints",
              "type": "uint256"
            },
            {
              "internalType": "uint256[]",
              "name": "plantIds",
              "type": "uint256[]"
            },
            {
              "internalType": "uint256",
              "name": "allowedTokenBalance",
              "type": "uint256"
            },
            {
              "internalType": "bool",
              "name": "isPresent",
              "type": "bool"
            }
          ],
          "internalType": "struct Structs.Participant",
          "name": "_participant",
          "type": "tuple"
        }
      ],
      "stateMutability": "view",
      "type": "function"
    },
    {
      "inputs": [],
      "name": "handleReadParticipantAddresses",
      "outputs": [
        {
          "internalType": "address[]",
          "name": "",
          "type": "address[]"
        }
      ],
      "stateMutability": "view",
      "type": "function"
    },
    {
      "inputs": [
        {
          "internalType": "uint256",
          "name": "tokenId",
          "type": "uint256"
        }
      ],
      "name": "handleReadPlant",
      "outputs": [
        {
          "components": [
            {
              "internalType": "uint256",
              "name": "typeId",
              "type": "uint256"
            },
            {
              "internalType": "uint256",
              "name": "level",
              "type": "uint256"
            },
            {
              "internalType": "uint256",
              "name": "experiencePoints",
              "type": "uint256"
            },
            {
              "internalType": "uint256",
              "name": "lifes",
              "type": "uint256"
            },
            {
              "internalType": "uint256",
              "name": "levelCost",
              "type": "uint256"
            },
            {
              "internalType": "bool",
              "name": "isPresent",
              "type": "bool"
            }
          ],
          "internalType": "struct Structs.Plant",
          "name": "_plant",
          "type": "tuple"
        }
      ],
      "stateMutability": "view",
      "type": "function"
    },
    {
      "inputs": [
        {
          "internalType": "address",
          "name": "account",
          "type": "address"
        },
        {
          "components": [
            {
              "internalType": "uint256",
              "name": "level",
              "type": "uint256"
            },
            {
              "internalType": "uint256",
              "name": "experiencePoints",
              "type": "uint256"
            },
            {
              "internalType": "uint256[]",
              "name": "plantIds",
              "type": "uint256[]"
            },
            {
              "internalType": "uint256",
              "name": "allowedTokenBalance",
              "type": "uint256"
            },
            {
              "internalType": "bool",
              "name": "isPresent",
              "type": "bool"
            }
          ],
          "internalType": "struct Structs.Participant",
          "name": "_participant",
          "type": "tuple"
        }
      ],
      "name": "handleUpdateParticipant",
      "outputs": [
        {
          "components": [
            {
              "internalType": "uint256",
              "name": "level",
              "type": "uint256"
            },
            {
              "internalType": "uint256",
              "name": "experiencePoints",
              "type": "uint256"
            },
            {
              "internalType": "uint256[]",
              "name": "plantIds",
              "type": "uint256[]"
            },
            {
              "internalType": "uint256",
              "name": "allowedTokenBalance",
              "type": "uint256"
            },
            {
              "internalType": "bool",
              "name": "isPresent",
              "type": "bool"
            }
          ],
          "internalType": "struct Structs.Participant",
          "name": "value",
          "type": "tuple"
        }
      ],
      "stateMutability": "nonpayable",
      "type": "function"
    },
    {
      "inputs": [
        {
          "internalType": "uint256",
          "name": "tokenId",
          "type": "uint256"
        },
        {
          "components": [
            {
              "internalType": "uint256",
              "name": "typeId",
              "type": "uint256"
            },
            {
              "internalType": "uint256",
              "name": "level",
              "type": "uint256"
            },
            {
              "internalType": "uint256",
              "name": "experiencePoints",
              "type": "uint256"
            },
            {
              "internalType": "uint256",
              "name": "lifes",
              "type": "uint256"
            },
            {
              "internalType": "uint256",
              "name": "levelCost",
              "type": "uint256"
            },
            {
              "internalType": "bool",
              "name": "isPresent",
              "type": "bool"
            }
          ],
          "internalType": "struct Structs.Plant",
          "name": "_plant",
          "type": "tuple"
        }
      ],
      "name": "handleUpdatePlant",
      "outputs": [
        {
          "components": [
            {
              "internalType": "uint256",
              "name": "typeId",
              "type": "uint256"
            },
            {
              "internalType": "uint256",
              "name": "level",
              "type": "uint256"
            },
            {
              "internalType": "uint256",
              "name": "experiencePoints",
              "type": "uint256"
            },
            {
              "internalType": "uint256",
              "name": "lifes",
              "type": "uint256"
            },
            {
              "internalType": "uint256",
              "name": "levelCost",
              "type": "uint256"
            },
            {
              "internalType": "bool",
              "name": "isPresent",
              "type": "bool"
            }
          ],
          "internalType": "struct Structs.Plant",
          "name": "value",
          "type": "tuple"
        }
      ],
      "stateMutability": "nonpayable",
      "type": "function"
    },
    {
      "inputs": [],
      "name": "handleUpdatePlantTypeId",
      "outputs": [],
      "stateMutability": "nonpayable",
      "type": "function"
    },
    {
      "inputs": [],
      "name": "initialTokenAllowance",
      "outputs": [
        {
          "internalType": "uint256",
          "name": "",
          "type": "uint256"
        }
      ],
      "stateMutability": "view",
      "type": "function"
    },
    {
      "inputs": [],
      "name": "initialize",
      "outputs": [],
      "stateMutability": "nonpayable",
      "type": "function"
    },
    {
      "inputs": [],
      "name": "owner",
      "outputs": [
        {
          "internalType": "address",
          "name": "",
          "type": "address"
        }
      ],
      "stateMutability": "view",
      "type": "function"
    },
    {
      "inputs": [
        {
          "internalType": "uint256",
          "name": "",
          "type": "uint256"
        }
      ],
      "name": "participantAddresses",
      "outputs": [
        {
          "internalType": "address",
          "name": "",
          "type": "address"
        }
      ],
      "stateMutability": "view",
      "type": "function"
    },
    {
      "inputs": [
        {
          "internalType": "address",
          "name": "",
          "type": "address"
        }
      ],
      "name": "participants",
      "outputs": [
        {
          "internalType": "uint256",
          "name": "level",
          "type": "uint256"
        },
        {
          "internalType": "uint256",
          "name": "experiencePoints",
          "type": "uint256"
        },
        {
          "internalType": "uint256",
          "name": "allowedTokenBalance",
          "type": "uint256"
        },
        {
          "internalType": "bool",
          "name": "isPresent",
          "type": "bool"
        }
      ],
      "stateMutability": "view",
      "type": "function"
    },
    {
      "inputs": [],
      "name": "plantPrice",
      "outputs": [
        {
          "internalType": "uint256",
          "name": "",
          "type": "uint256"
        }
      ],
      "stateMutability": "view",
      "type": "function"
    },
    {
      "inputs": [],
      "name": "plantTypeId",
      "outputs": [
        {
          "internalType": "uint256",
          "name": "",
          "type": "uint256"
        }
      ],
      "stateMutability": "view",
      "type": "function"
    },
    {
      "inputs": [
        {
          "internalType": "uint256",
          "name": "",
          "type": "uint256"
        }
      ],
      "name": "plants",
      "outputs": [
        {
          "internalType": "uint256",
          "name": "typeId",
          "type": "uint256"
        },
        {
          "internalType": "uint256",
          "name": "level",
          "type": "uint256"
        },
        {
          "internalType": "uint256",
          "name": "experiencePoints",
          "type": "uint256"
        },
        {
          "internalType": "uint256",
          "name": "lifes",
          "type": "uint256"
        },
        {
          "internalType": "uint256",
          "name": "levelCost",
          "type": "uint256"
        },
        {
          "internalType": "bool",
          "name": "isPresent",
          "type": "bool"
        }
      ],
      "stateMutability": "view",
      "type": "function"
    },
    {
      "inputs": [],
      "name": "renounceOwnership",
      "outputs": [],
      "stateMutability": "nonpayable",
      "type": "function"
    },
    {
      "inputs": [
        {
          "internalType": "address",
          "name": "newOwner",
          "type": "address"
        }
      ],
      "name": "transferOwnership",
      "outputs": [],
      "stateMutability": "nonpayable",
      "type": "function"
    }
  ],
  "bytecode": "0x608060405234801561001057600080fd5b506118b6806100206000396000f3fe608060405234801561001057600080fd5b50600436106101375760003560e01c8063715018a6116100b85780639778e0b31161007c5780639778e0b3146103145780639fd9491714610327578063d6a0cc291461033a578063e1d1ad1214610343578063e599913914610356578063f2fde38b1461036957600080fd5b8063715018a61461026b5780637b16869c146102735780638129fc1c146102865780638da5cb5b1461028e5780638dd2361c1461029f57600080fd5b80631fec8c02116100ff5780631fec8c02146101fc57806326fad7771461020f5780633fcd0c371461022457806354ffbddb1461023757806358ac00381461026257600080fd5b80630591f3621461013c57806309e69ede1461014657806311622ce5146101a557806315485de3146101c55780631bca55e5146101e5575b600080fd5b61014461037c565b005b61017e610154366004611390565b60686020526000908152604090208054600182015460038301546004909301549192909160ff1684565b60408051948552602085019390935291830152151560608201526080015b60405180910390f35b6101b86101b3366004611390565b6103dc565b60405161019c91906113b2565b6101d86101d3366004611438565b6105e6565b60405161019c9190611470565b6101ee60665481565b60405190815260200161019c565b6101d861020a3660046114b6565b610734565b61021761083d565b60405161019c91906114cf565b6101b861023236600461151c565b6108ca565b61024a6102453660046114b6565b610a13565b6040516001600160a01b03909116815260200161019c565b6101ee60655481565b610144610a3d565b6101d86102813660046114b6565b610a71565b610144610bc9565b6033546001600160a01b031661024a565b6102e56102ad3660046114b6565b606a60205260009081526040902080546001820154600283015460038401546004850154600590950154939492939192909160ff1686565b6040805196875260208701959095529385019290925260608401526080830152151560a082015260c00161019c565b6101b8610322366004611390565b610c4d565b6101b8610335366004611571565b610d87565b6101ee60675481565b6101d86103513660046114b6565b610f15565b6101b8610364366004611390565b610ff8565b610144610377366004611390565b6110ce565b6033546001600160a01b031633146103af5760405162461bcd60e51b81526004016103a69061159b565b60405180910390fd5b606754600314156103c1576001606755565b6001606760008282546103d491906115d0565b90915550505b565b6103e46112b0565b6033546001600160a01b0316331461040e5760405162461bcd60e51b81526004016103a69061159b565b6001600160a01b0382166000908152606860209081526040808320815160a0810183528154815260018201548185015260028201805484518187028101870186528181529295939486019383018282801561048857602002820191906000526020600020905b815481526020019060010190808311610474575b50505091835250506003820154602082015260049091015460ff1615156040909101526080810151909150156105005760405162461bcd60e51b815260206004820152601b60248201527f5061727469636970616e7420616c7265616479206578697374732e000000000060448201526064016103a6565b6105086112b0565b60008082526020808301828152606084018390526040805184815280840182528186019081526001608087018190526001600160a01b038a1686526068855291909420855181559151908201559151805184939261056d9260028501929101906112e1565b50606082015160038201556080909101516004909101805460ff1916911515919091179055606980546001810182556000919091527f7fb4302e8e91f9110a6554c2c0a24601252c2a42c2220ca988efcfe3999143080180546001600160a01b0319166001600160a01b0386161790559150505b919050565b6105ee61132c565b6033546001600160a01b031633146106185760405162461bcd60e51b81526004016103a69061159b565b6000838152606a6020908152604091829020825160c08101845281548152600182015492810192909252600281015492820192909252600382015460608201526004820154608082015260059091015460ff16151560a082018190526106905760405162461bcd60e51b81526004016103a69061160c565b61069f36849003840184611649565b6000858152606a602090815260409182902083518155908301516001820155828201516002820155606083015160038201556080830151600482015560a08301516005909101805460ff1916911515919091179055519091507f39f9113684b39569e27899e8e2e92db2c34a873f06ea8d31d0d2f42c4464a76b90610725908390611470565b60405180910390a19392505050565b61073c61132c565b6033546001600160a01b031633146107665760405162461bcd60e51b81526004016103a69061159b565b6000828152606a6020908152604091829020825160c08101845281548152600182015492810192909252600281015492820192909252600382015460608201526004820154608082015260059091015460ff16151560a082018190526107de5760405162461bcd60e51b81526004016103a69061160c565b50506000908152606a6020908152604091829020825160c08101845281548152600182015492810192909252600281015492820192909252600382015460608201526004820154608082015260059091015460ff16151560a082015290565b6033546060906001600160a01b0316331461086a5760405162461bcd60e51b81526004016103a69061159b565b60698054806020026020016040519081016040528092919081815260200182805480156108c057602002820191906000526020600020905b81546001600160a01b031681526001909101906020018083116108a2575b5050505050905090565b6108d26112b0565b6033546001600160a01b031633146108fc5760405162461bcd60e51b81526004016103a69061159b565b6001600160a01b0383166000908152606860209081526040808320815160a0810183528154815260018201548185015260028201805484518187028101870186528181529295939486019383018282801561097657602002820191906000526020600020905b815481526020019060010190808311610962575b50505091835250506003820154602082015260049091015460ff16151560409091015260808101519091506109bd5760405162461bcd60e51b81526004016103a6906116c9565b6001600160a01b038416600090815260686020526040902083906109e18282611796565b9050507fbde0b5f6c349605083550b6ae7537d272caa80d602b2953848ce00156a594b2d8160405161072591906113b2565b60698181548110610a2357600080fd5b6000918252602090912001546001600160a01b0316905081565b6033546001600160a01b03163314610a675760405162461bcd60e51b81526004016103a69061159b565b6103da6000611162565b610a7961132c565b6033546001600160a01b03163314610aa35760405162461bcd60e51b81526004016103a69061159b565b6000828152606a6020908152604091829020825160c08101845281548152600182015492810192909252600281015492820192909252600382015460608201526004820154608082015260059091015460ff1615801560a0830152610b425760405162461bcd60e51b8152602060048201526015602482015274283630b73a1030b63932b0b23c9032bc34b9ba399760591b60448201526064016103a6565b610b4a61132c565b60675481526001602080830182815260006040808601828152600360608801818152606460808a0190815260a08a018981529c8652606a90975292909320875181559351958401959095559351600283015592519281019290925551600482015593516005909401805460ff1916941515949094179093555090919050565b6000610bd560016111b4565b90508015610bed576000805461ff0019166101001790555b600160658190556064606655606755610c0461123c565b8015610c4a576000805461ff0019169055604051600181527f7f26b83ff96e1f2b6a682f133852f6798a09c465da95921460cefb38474024989060200160405180910390a15b50565b610c556112b0565b6033546001600160a01b03163314610c7f5760405162461bcd60e51b81526004016103a69061159b565b6001600160a01b0382166000908152606860209081526040808320815160a08101835281548152600182015481850152600282018054845181870281018701865281815292959394860193830182828015610cf957602002820191906000526020600020905b815481526020019060010190808311610ce5575b50505091835250506003820154602082015260049091015460ff1615156040909101526080810151909150610d405760405162461bcd60e51b81526004016103a6906116c9565b610d486112b0565b90507fd0a3d2d8946fb042e4542a54d3647344add244d38811d62cad6f4398f56ab0c481604051610d7991906113b2565b60405180910390a192915050565b610d8f6112b0565b6033546001600160a01b03163314610db95760405162461bcd60e51b81526004016103a69061159b565b6001600160a01b0383166000908152606860205260409020600481015460ff16610df55760405162461bcd60e51b81526004016103a6906116c9565b60008311610e6b5760405162461bcd60e51b815260206004820152603f60248201527f546f6b656e204944206d7573742062652067726561746572207468616e20302060448201527f696e206f7264657220746f20626520616e204e465420746f6b656e2069642e0060648201526084016103a6565b6002810180546001818101835560008381526020908190209092018690556040805160a08101825285548152918501548284015283548151818502810185018352818152929486949286019392909190830182828015610eea57602002820191906000526020600020905b815481526020019060010190808311610ed6575b50505091835250506003820154602082015260049091015460ff161515604090910152949350505050565b610f1d61132c565b6033546001600160a01b03163314610f475760405162461bcd60e51b81526004016103a69061159b565b6000828152606a6020908152604091829020825160c08101845281548152600182015492810192909252600281015492820192909252600382015460608201526004820154608082015260059091015460ff16151560a08201819052610fbf5760405162461bcd60e51b81526004016103a69061160c565b610fc761132c565b90507fe7726af8a64d6e7b6c9817c6359ed54ed122385afe35d72ef156d7cca320b34e81604051610d799190611470565b6110006112b0565b6033546001600160a01b0316331461102a5760405162461bcd60e51b81526004016103a69061159b565b6001600160a01b0382166000908152606860209081526040808320815160a081018352815481526001820154818501526002820180548451818702810187018652818152929593948601938301828280156110a457602002820191906000526020600020905b815481526020019060010190808311611090575b50505091835250506003820154602082015260049091015460ff1615156040909101529392505050565b6033546001600160a01b031633146110f85760405162461bcd60e51b81526004016103a69061159b565b6001600160a01b03811661115d5760405162461bcd60e51b815260206004820152602660248201527f4f776e61626c653a206e6577206f776e657220697320746865207a65726f206160448201526564647265737360d01b60648201526084016103a6565b610c4a815b603380546001600160a01b038381166001600160a01b0319831681179093556040519116919082907f8be0079c531659141344cd1fd0a4f28419497f9722a3daafe3b4186f6b6457e090600090a35050565b60008054610100900460ff16156111fb578160ff1660011480156111d75750303b155b6111f35760405162461bcd60e51b81526004016103a690611832565b506000919050565b60005460ff8084169116106112225760405162461bcd60e51b81526004016103a690611832565b506000805460ff191660ff92909216919091179055600190565b600054610100900460ff166112a75760405162461bcd60e51b815260206004820152602b60248201527f496e697469616c697a61626c653a20636f6e7472616374206973206e6f74206960448201526a6e697469616c697a696e6760a81b60648201526084016103a6565b6103da33611162565b6040518060a00160405280600081526020016000815260200160608152602001600081526020016000151581525090565b82805482825590600052602060002090810192821561131c579160200282015b8281111561131c578251825591602001919060010190611301565b50611328929150611364565b5090565b6040518060c0016040528060008152602001600081526020016000815260200160008152602001600081526020016000151581525090565b5b808211156113285760008155600101611365565b80356001600160a01b03811681146105e157600080fd5b6000602082840312156113a257600080fd5b6113ab82611379565b9392505050565b6000602080835260c08301845182850152818501516040850152604085015160a0606086015281815180845260e0870191508483019350600092505b8083101561140e57835182529284019260019290920191908401906113ee565b50606087015160808701526080870151935061142e60a087018515159052565b9695505050505050565b60008082840360e081121561144c57600080fd5b8335925060c0601f198201121561146257600080fd5b506020830190509250929050565b600060c082019050825182526020830151602083015260408301516040830152606083015160608301526080830151608083015260a0830151151560a083015292915050565b6000602082840312156114c857600080fd5b5035919050565b6020808252825182820181905260009190848201906040850190845b818110156115105783516001600160a01b0316835292840192918401916001016114eb565b50909695505050505050565b6000806040838503121561152f57600080fd5b61153883611379565b9150602083013567ffffffffffffffff81111561155457600080fd5b830160a0818603121561156657600080fd5b809150509250929050565b6000806040838503121561158457600080fd5b61158d83611379565b946020939093013593505050565b6020808252818101527f4f776e61626c653a2063616c6c6572206973206e6f7420746865206f776e6572604082015260600190565b600082198211156115f157634e487b7160e01b600052601160045260246000fd5b500190565b634e487b7160e01b600052604160045260246000fd5b602080825260159082015274283630b73a103237b2b9903737ba1032bc34b9ba1760591b604082015260600190565b8015158114610c4a57600080fd5b600060c0828403121561165b57600080fd5b60405160c0810181811067ffffffffffffffff8211171561167e5761167e6115f6565b8060405250823581526020830135602082015260408301356040820152606083013560608201526080830135608082015260a08301356116bd8161163b565b60a08201529392505050565b6020808252601b908201527f5061727469636970616e7420646f6573206e6f742065786973742e0000000000604082015260600190565b68010000000000000000831115611719576117196115f6565b805483825580841015611750576000828152602081208581019083015b8082101561174c57828255600182019150611736565b5050505b5060008181526020812083915b8581101561177b57823582556020909201916001918201910161175d565b505050505050565b600081356117908161163b565b92915050565b81358155602082013560018201556040820135601e198336030181126117bb57600080fd5b8201803567ffffffffffffffff8111156117d457600080fd5b6020820191508060051b36038213156117ec57600080fd5b6117fa818360028601611700565b50506060820135600382015561182e61181560808401611783565b6004830160ff1981541660ff8315151681178255505050565b5050565b6020808252602e908201527f496e697469616c697a61626c653a20636f6e747261637420697320616c72656160408201526d191e481a5b9a5d1a585b1a5e995960921b60608201526080019056fea2646970667358221220579e2839a7412e97c617619fa3acf022ef27df68f32afe1b9336c4c23c2eddf064736f6c63430008090033",
  "linkReferences": {},
  "deployedLinkReferences": {}
}