{
  "_format": "hh-sol-artifact-1",
  "contractName": "KojoStorage",
  "sourceName": "contracts/utils/KojoStorage.sol",
  "abi": [
    {
      "inputs": [],
      "stateMutability": "nonpayable",
      "type": "constructor"
    },
    {
      "anonymous": false,
      "inputs": [
        {
          "components": [
            {
              "internalType": "uint256",
              "name": "level",
              "type": "uint256"
            },
            {
              "internalType": "uint256",
              "name": "experiencePoints",
              "type": "uint256"
            },
            {
              "internalType": "uint256[]",
              "name": "plantIds",
              "type": "uint256[]"
            },
            {
              "internalType": "uint256",
              "name": "allowedTokenBalance",
              "type": "uint256"
            },
            {
              "internalType": "bool",
              "name": "hasClaimedStartSeed",
              "type": "bool"
            },
            {
              "internalType": "bool",
              "name": "isPresent",
              "type": "bool"
            }
          ],
          "indexed": false,
          "internalType": "struct Structs.Participant",
          "name": "participant",
          "type": "tuple"
        }
      ],
      "name": "CreateParticipant",
      "type": "event"
    },
    {
      "anonymous": false,
      "inputs": [
        {
          "components": [
            {
              "internalType": "uint256",
              "name": "level",
              "type": "uint256"
            },
            {
              "internalType": "uint256",
              "name": "experiencePoints",
              "type": "uint256"
            },
            {
              "internalType": "uint256",
              "name": "lifes",
              "type": "uint256"
            },
            {
              "internalType": "uint256",
              "name": "levelCost",
              "type": "uint256"
            },
            {
              "internalType": "bool",
              "name": "isPresent",
              "type": "bool"
            }
          ],
          "indexed": false,
          "internalType": "struct Structs.Plant",
          "name": "plant",
          "type": "tuple"
        }
      ],
      "name": "CreatePlant",
      "type": "event"
    },
    {
      "anonymous": false,
      "inputs": [
        {
          "components": [
            {
              "internalType": "uint256",
              "name": "level",
              "type": "uint256"
            },
            {
              "internalType": "uint256",
              "name": "experiencePoints",
              "type": "uint256"
            },
            {
              "internalType": "uint256[]",
              "name": "plantIds",
              "type": "uint256[]"
            },
            {
              "internalType": "uint256",
              "name": "allowedTokenBalance",
              "type": "uint256"
            },
            {
              "internalType": "bool",
              "name": "hasClaimedStartSeed",
              "type": "bool"
            },
            {
              "internalType": "bool",
              "name": "isPresent",
              "type": "bool"
            }
          ],
          "indexed": false,
          "internalType": "struct Structs.Participant",
          "name": "participant",
          "type": "tuple"
        }
      ],
      "name": "DeleteParticipant",
      "type": "event"
    },
    {
      "anonymous": false,
      "inputs": [
        {
          "components": [
            {
              "internalType": "uint256",
              "name": "level",
              "type": "uint256"
            },
            {
              "internalType": "uint256",
              "name": "experiencePoints",
              "type": "uint256"
            },
            {
              "internalType": "uint256",
              "name": "lifes",
              "type": "uint256"
            },
            {
              "internalType": "uint256",
              "name": "levelCost",
              "type": "uint256"
            },
            {
              "internalType": "bool",
              "name": "isPresent",
              "type": "bool"
            }
          ],
          "indexed": false,
          "internalType": "struct Structs.Plant",
          "name": "plant",
          "type": "tuple"
        }
      ],
      "name": "DeletePlant",
      "type": "event"
    },
    {
      "anonymous": false,
      "inputs": [
        {
          "indexed": false,
          "internalType": "uint8",
          "name": "version",
          "type": "uint8"
        }
      ],
      "name": "Initialized",
      "type": "event"
    },
    {
      "anonymous": false,
      "inputs": [
        {
          "indexed": true,
          "internalType": "address",
          "name": "previousOwner",
          "type": "address"
        },
        {
          "indexed": true,
          "internalType": "address",
          "name": "newOwner",
          "type": "address"
        }
      ],
      "name": "OwnershipTransferred",
      "type": "event"
    },
    {
      "anonymous": false,
      "inputs": [
        {
          "components": [
            {
              "internalType": "uint256",
              "name": "level",
              "type": "uint256"
            },
            {
              "internalType": "uint256",
              "name": "experiencePoints",
              "type": "uint256"
            },
            {
              "internalType": "uint256[]",
              "name": "plantIds",
              "type": "uint256[]"
            },
            {
              "internalType": "uint256",
              "name": "allowedTokenBalance",
              "type": "uint256"
            },
            {
              "internalType": "bool",
              "name": "hasClaimedStartSeed",
              "type": "bool"
            },
            {
              "internalType": "bool",
              "name": "isPresent",
              "type": "bool"
            }
          ],
          "indexed": false,
          "internalType": "struct Structs.Participant",
          "name": "participant",
          "type": "tuple"
        }
      ],
      "name": "UpdateParticipant",
      "type": "event"
    },
    {
      "anonymous": false,
      "inputs": [
        {
          "components": [
            {
              "internalType": "uint256",
              "name": "level",
              "type": "uint256"
            },
            {
              "internalType": "uint256",
              "name": "experiencePoints",
              "type": "uint256"
            },
            {
              "internalType": "uint256",
              "name": "lifes",
              "type": "uint256"
            },
            {
              "internalType": "uint256",
              "name": "levelCost",
              "type": "uint256"
            },
            {
              "internalType": "bool",
              "name": "isPresent",
              "type": "bool"
            }
          ],
          "indexed": false,
          "internalType": "struct Structs.Plant",
          "name": "plant",
          "type": "tuple"
        }
      ],
      "name": "UpdatePlant",
      "type": "event"
    },
    {
      "inputs": [
        {
          "internalType": "address",
          "name": "account",
          "type": "address"
        }
      ],
      "name": "handleCreateParticpant",
      "outputs": [
        {
          "components": [
            {
              "internalType": "uint256",
              "name": "level",
              "type": "uint256"
            },
            {
              "internalType": "uint256",
              "name": "experiencePoints",
              "type": "uint256"
            },
            {
              "internalType": "uint256[]",
              "name": "plantIds",
              "type": "uint256[]"
            },
            {
              "internalType": "uint256",
              "name": "allowedTokenBalance",
              "type": "uint256"
            },
            {
              "internalType": "bool",
              "name": "hasClaimedStartSeed",
              "type": "bool"
            },
            {
              "internalType": "bool",
              "name": "isPresent",
              "type": "bool"
            }
          ],
          "internalType": "struct Structs.Participant",
          "name": "value",
          "type": "tuple"
        }
      ],
      "stateMutability": "nonpayable",
      "type": "function"
    },
    {
      "inputs": [
        {
          "internalType": "uint256",
          "name": "tokenId",
          "type": "uint256"
        }
      ],
      "name": "handleCreatePlant",
      "outputs": [
        {
          "components": [
            {
              "internalType": "uint256",
              "name": "level",
              "type": "uint256"
            },
            {
              "internalType": "uint256",
              "name": "experiencePoints",
              "type": "uint256"
            },
            {
              "internalType": "uint256",
              "name": "lifes",
              "type": "uint256"
            },
            {
              "internalType": "uint256",
              "name": "levelCost",
              "type": "uint256"
            },
            {
              "internalType": "bool",
              "name": "isPresent",
              "type": "bool"
            }
          ],
          "internalType": "struct Structs.Plant",
          "name": "value",
          "type": "tuple"
        }
      ],
      "stateMutability": "nonpayable",
      "type": "function"
    },
    {
      "inputs": [
        {
          "internalType": "address",
          "name": "account",
          "type": "address"
        }
      ],
      "name": "handleDeleteParticipant",
      "outputs": [
        {
          "components": [
            {
              "internalType": "uint256",
              "name": "level",
              "type": "uint256"
            },
            {
              "internalType": "uint256",
              "name": "experiencePoints",
              "type": "uint256"
            },
            {
              "internalType": "uint256[]",
              "name": "plantIds",
              "type": "uint256[]"
            },
            {
              "internalType": "uint256",
              "name": "allowedTokenBalance",
              "type": "uint256"
            },
            {
              "internalType": "bool",
              "name": "hasClaimedStartSeed",
              "type": "bool"
            },
            {
              "internalType": "bool",
              "name": "isPresent",
              "type": "bool"
            }
          ],
          "internalType": "struct Structs.Participant",
          "name": "value",
          "type": "tuple"
        }
      ],
      "stateMutability": "nonpayable",
      "type": "function"
    },
    {
      "inputs": [
        {
          "internalType": "uint256",
          "name": "tokenId",
          "type": "uint256"
        }
      ],
      "name": "handleDeletePlant",
      "outputs": [
        {
          "components": [
            {
              "internalType": "uint256",
              "name": "level",
              "type": "uint256"
            },
            {
              "internalType": "uint256",
              "name": "experiencePoints",
              "type": "uint256"
            },
            {
              "internalType": "uint256",
              "name": "lifes",
              "type": "uint256"
            },
            {
              "internalType": "uint256",
              "name": "levelCost",
              "type": "uint256"
            },
            {
              "internalType": "bool",
              "name": "isPresent",
              "type": "bool"
            }
          ],
          "internalType": "struct Structs.Plant",
          "name": "value",
          "type": "tuple"
        }
      ],
      "stateMutability": "nonpayable",
      "type": "function"
    },
    {
      "inputs": [
        {
          "internalType": "address",
          "name": "account",
          "type": "address"
        }
      ],
      "name": "handleReadParticipant",
      "outputs": [
        {
          "components": [
            {
              "internalType": "uint256",
              "name": "level",
              "type": "uint256"
            },
            {
              "internalType": "uint256",
              "name": "experiencePoints",
              "type": "uint256"
            },
            {
              "internalType": "uint256[]",
              "name": "plantIds",
              "type": "uint256[]"
            },
            {
              "internalType": "uint256",
              "name": "allowedTokenBalance",
              "type": "uint256"
            },
            {
              "internalType": "bool",
              "name": "hasClaimedStartSeed",
              "type": "bool"
            },
            {
              "internalType": "bool",
              "name": "isPresent",
              "type": "bool"
            }
          ],
          "internalType": "struct Structs.Participant",
          "name": "_participant",
          "type": "tuple"
        }
      ],
      "stateMutability": "view",
      "type": "function"
    },
    {
      "inputs": [
        {
          "internalType": "uint256",
          "name": "tokenId",
          "type": "uint256"
        }
      ],
      "name": "handleReadPlant",
      "outputs": [
        {
          "components": [
            {
              "internalType": "uint256",
              "name": "level",
              "type": "uint256"
            },
            {
              "internalType": "uint256",
              "name": "experiencePoints",
              "type": "uint256"
            },
            {
              "internalType": "uint256",
              "name": "lifes",
              "type": "uint256"
            },
            {
              "internalType": "uint256",
              "name": "levelCost",
              "type": "uint256"
            },
            {
              "internalType": "bool",
              "name": "isPresent",
              "type": "bool"
            }
          ],
          "internalType": "struct Structs.Plant",
          "name": "_plant",
          "type": "tuple"
        }
      ],
      "stateMutability": "view",
      "type": "function"
    },
    {
      "inputs": [
        {
          "internalType": "address",
          "name": "account",
          "type": "address"
        },
        {
          "components": [
            {
              "internalType": "uint256",
              "name": "level",
              "type": "uint256"
            },
            {
              "internalType": "uint256",
              "name": "experiencePoints",
              "type": "uint256"
            },
            {
              "internalType": "uint256[]",
              "name": "plantIds",
              "type": "uint256[]"
            },
            {
              "internalType": "uint256",
              "name": "allowedTokenBalance",
              "type": "uint256"
            },
            {
              "internalType": "bool",
              "name": "hasClaimedStartSeed",
              "type": "bool"
            },
            {
              "internalType": "bool",
              "name": "isPresent",
              "type": "bool"
            }
          ],
          "internalType": "struct Structs.Participant",
          "name": "_participant",
          "type": "tuple"
        }
      ],
      "name": "handleUpdateParticipant",
      "outputs": [
        {
          "components": [
            {
              "internalType": "uint256",
              "name": "level",
              "type": "uint256"
            },
            {
              "internalType": "uint256",
              "name": "experiencePoints",
              "type": "uint256"
            },
            {
              "internalType": "uint256[]",
              "name": "plantIds",
              "type": "uint256[]"
            },
            {
              "internalType": "uint256",
              "name": "allowedTokenBalance",
              "type": "uint256"
            },
            {
              "internalType": "bool",
              "name": "hasClaimedStartSeed",
              "type": "bool"
            },
            {
              "internalType": "bool",
              "name": "isPresent",
              "type": "bool"
            }
          ],
          "internalType": "struct Structs.Participant",
          "name": "value",
          "type": "tuple"
        }
      ],
      "stateMutability": "nonpayable",
      "type": "function"
    },
    {
      "inputs": [
        {
          "internalType": "uint256",
          "name": "tokenId",
          "type": "uint256"
        },
        {
          "components": [
            {
              "internalType": "uint256",
              "name": "level",
              "type": "uint256"
            },
            {
              "internalType": "uint256",
              "name": "experiencePoints",
              "type": "uint256"
            },
            {
              "internalType": "uint256",
              "name": "lifes",
              "type": "uint256"
            },
            {
              "internalType": "uint256",
              "name": "levelCost",
              "type": "uint256"
            },
            {
              "internalType": "bool",
              "name": "isPresent",
              "type": "bool"
            }
          ],
          "internalType": "struct Structs.Plant",
          "name": "_plant",
          "type": "tuple"
        }
      ],
      "name": "handleUpdatePlant",
      "outputs": [
        {
          "components": [
            {
              "internalType": "uint256",
              "name": "level",
              "type": "uint256"
            },
            {
              "internalType": "uint256",
              "name": "experiencePoints",
              "type": "uint256"
            },
            {
              "internalType": "uint256",
              "name": "lifes",
              "type": "uint256"
            },
            {
              "internalType": "uint256",
              "name": "levelCost",
              "type": "uint256"
            },
            {
              "internalType": "bool",
              "name": "isPresent",
              "type": "bool"
            }
          ],
          "internalType": "struct Structs.Plant",
          "name": "value",
          "type": "tuple"
        }
      ],
      "stateMutability": "nonpayable",
      "type": "function"
    },
    {
      "inputs": [
        {
          "internalType": "uint256",
          "name": "_tokenSensitivity",
          "type": "uint256"
        }
      ],
      "name": "handleUpdateTokenSensitivity",
      "outputs": [],
      "stateMutability": "nonpayable",
      "type": "function"
    },
    {
      "inputs": [],
      "name": "owner",
      "outputs": [
        {
          "internalType": "address",
          "name": "",
          "type": "address"
        }
      ],
      "stateMutability": "view",
      "type": "function"
    },
    {
      "inputs": [
        {
          "internalType": "address",
          "name": "",
          "type": "address"
        }
      ],
      "name": "participants",
      "outputs": [
        {
          "internalType": "uint256",
          "name": "level",
          "type": "uint256"
        },
        {
          "internalType": "uint256",
          "name": "experiencePoints",
          "type": "uint256"
        },
        {
          "internalType": "uint256",
          "name": "allowedTokenBalance",
          "type": "uint256"
        },
        {
          "internalType": "bool",
          "name": "hasClaimedStartSeed",
          "type": "bool"
        },
        {
          "internalType": "bool",
          "name": "isPresent",
          "type": "bool"
        }
      ],
      "stateMutability": "view",
      "type": "function"
    },
    {
      "inputs": [],
      "name": "plantPrice",
      "outputs": [
        {
          "internalType": "uint256",
          "name": "",
          "type": "uint256"
        }
      ],
      "stateMutability": "view",
      "type": "function"
    },
    {
      "inputs": [
        {
          "internalType": "uint256",
          "name": "",
          "type": "uint256"
        }
      ],
      "name": "plants",
      "outputs": [
        {
          "internalType": "uint256",
          "name": "level",
          "type": "uint256"
        },
        {
          "internalType": "uint256",
          "name": "experiencePoints",
          "type": "uint256"
        },
        {
          "internalType": "uint256",
          "name": "lifes",
          "type": "uint256"
        },
        {
          "internalType": "uint256",
          "name": "levelCost",
          "type": "uint256"
        },
        {
          "internalType": "bool",
          "name": "isPresent",
          "type": "bool"
        }
      ],
      "stateMutability": "view",
      "type": "function"
    },
    {
      "inputs": [],
      "name": "renounceOwnership",
      "outputs": [],
      "stateMutability": "nonpayable",
      "type": "function"
    },
    {
      "inputs": [],
      "name": "tokenSensitivity",
      "outputs": [
        {
          "internalType": "uint256",
          "name": "",
          "type": "uint256"
        }
      ],
      "stateMutability": "view",
      "type": "function"
    },
    {
      "inputs": [
        {
          "internalType": "address",
          "name": "newOwner",
          "type": "address"
        }
      ],
      "name": "transferOwnership",
      "outputs": [],
      "stateMutability": "nonpayable",
      "type": "function"
    }
  ],
  "bytecode": "0x60806040526065805460ff1916905534801561001a57600080fd5b50610023610028565b610099565b60655460ff161561007f5760405162461bcd60e51b815260206004820152601d60248201527f436f6e747261637420616c726561647920696e697469616c697a65642e000000604482015260640160405180910390fd5b6103e860668190556067556065805460ff19166001179055565b611892806100a86000396000f3fe608060405234801561001057600080fd5b50600436106101005760003560e01c8063715018a6116100975780639778e0b3116100665780639778e0b3146102e9578063e1d1ad12146102fc578063e59991391461030f578063f2fde38b1461032257600080fd5b8063715018a6146102495780637b16869c146102515780638da5cb5b146102645780638dd2361c1461027f57600080fd5b806330242454116100d35780633024245414610205578063571765151461021a57806358ac00381461022d5780635ea07a9d1461023657600080fd5b806309e69ede1461010557806311622ce5146101775780631fec8c0214610197578063229e04c8146101ee575b600080fd5b610146610113366004611504565b60686020526000908152604090208054600182015460038301546004909301549192909160ff8082169161010090041685565b60408051958652602086019490945292840191909152151560608301521515608082015260a0015b60405180910390f35b61018a610185366004611504565b610335565b60405161016e9190611526565b6101aa6101a53660046115bc565b6105eb565b60405161016e9190600060a0820190508251825260208301516020830152604083015160408301526060830151606083015260808301511515608083015292915050565b6101f760675481565b60405190815260200161016e565b6102186102133660046115bc565b610712565b005b6101aa6102283660046115d5565b610771565b6101f760665481565b61018a61024436600461160d565b61095e565b610218610baf565b6101aa61025f3660046115bc565b610c15565b6033546040516001600160a01b03909116815260200161016e565b6102bf61028d3660046115bc565b606960205260009081526040902080546001820154600283015460038401546004909401549293919290919060ff1685565b6040805195865260208601949094529284019190915260608301521515608082015260a00161016e565b61018a6102f7366004611504565b610e29565b6101aa61030a3660046115bc565b61103d565b61018a61031d366004611504565b6111fd565b610218610330366004611504565b611341565b6103726040518060c00160405280600081526020016000815260200160608152602001600081526020016000151581526020016000151581525090565b6033546001600160a01b031633146103d15760405162461bcd60e51b815260206004820181905260248201527f4f776e61626c653a2063616c6c6572206973206e6f7420746865206f776e657260448201526064015b60405180910390fd5b6001600160a01b0382166000908152606860209081526040808320815160c0810183528154815260018201548185015260028201805484518187028101870186528181529295939486019383018282801561044b57602002820191906000526020600020905b815481526020019060010190808311610437575b50505091835250506003820154602082015260049091015460ff8082161515604084015261010090910416151560609091015260a0810151909150156104d35760405162461bcd60e51b815260206004820152601b60248201527f5061727469636970616e7420616c7265616479206578697374732e000000000060448201526064016103c8565b6105106040518060c00160405280600081526020016000815260200160608152602001600081526020016000151581526020016000151581525090565b600080825260208083018281526064606085015260808401839052600160a085018190526001600160a01b0388168452606883526040938490208551815591519082015591830151805184939261056e92600285019291019061148d565b506060820151600382015560808201516004909101805460a09093015115156101000261ff00199215159290921661ffff19909316929092171790556040517fdbf9b828d4bc2cb5c9e4591d3e2e8448444681945bc639dc6cf96b9fbcd3ee2d906105da908390611526565b60405180910390a19150505b919050565b61061f6040518060a00160405280600081526020016000815260200160008152602001600081526020016000151581525090565b600082815260696020908152604091829020825160a081018452815481526001820154928101929092526002810154928201929092526003820154606082015260049091015460ff161515608082018190526106bd5760405162461bcd60e51b815260206004820152601560248201527f506c616e7420646f6573206e6f742065786973742e000000000000000000000060448201526064016103c8565b5050600090815260696020908152604091829020825160a081018452815481526001820154928101929092526002810154928201929092526003820154606082015260049091015460ff161515608082015290565b6033546001600160a01b0316331461076c5760405162461bcd60e51b815260206004820181905260248201527f4f776e61626c653a2063616c6c6572206973206e6f7420746865206f776e657260448201526064016103c8565b606755565b6107a56040518060a00160405280600081526020016000815260200160008152602001600081526020016000151581525090565b6033546001600160a01b031633146107ff5760405162461bcd60e51b815260206004820181905260248201527f4f776e61626c653a2063616c6c6572206973206e6f7420746865206f776e657260448201526064016103c8565b600083815260696020908152604091829020825160a081018452815481526001820154928101929092526002810154928201929092526003820154606082015260049091015460ff1615156080820181905261089d5760405162461bcd60e51b815260206004820152601560248201527f506c616e7420646f6573206e6f742065786973742e000000000000000000000060448201526064016103c8565b6108ac368490038401846116fb565b600085815260696020908152604091829020835180825584830180516001840155858501805160028501556060808801805160038701556080808a0180516004909801805460ff1916981515989098179097558851958652935196850196909652905195830195909552925193810193909352511515908201529091507f55bf2566c2dd3965de515a5b2fb036fd69ce0893ac5e8ad62121064c03887f3a9060a0015b60405180910390a19392505050565b61099b6040518060c00160405280600081526020016000815260200160608152602001600081526020016000151581526020016000151581525090565b6033546001600160a01b031633146109f55760405162461bcd60e51b815260206004820181905260248201527f4f776e61626c653a2063616c6c6572206973206e6f7420746865206f776e657260448201526064016103c8565b6001600160a01b0383166000908152606860209081526040808320815160c08101835281548152600182015481850152600282018054845181870281018701865281815292959394860193830182828015610a6f57602002820191906000526020600020905b815481526020019060010190808311610a5b575b50505091835250506003820154602082015260049091015460ff8082161515604084015261010090910416151560609091015260a0810151909150610af65760405162461bcd60e51b815260206004820152601b60248201527f5061727469636970616e7420646f6573206e6f742065786973742e000000000060448201526064016103c8565b610aff8361176f565b6001600160a01b038516600090815260686020908152604091829020835181558184015160018201559183015180519394508493610b43926002850192019061148d565b506060820151600382015560808201516004909101805460a09093015115156101000261ff00199215159290921661ffff19909316929092171790556040517fca61289913d9bf85282d602ab61aa9e8471225ca261f7d8aa34d474ac00d80ea9061094f908390611526565b6033546001600160a01b03163314610c095760405162461bcd60e51b815260206004820181905260248201527f4f776e61626c653a2063616c6c6572206973206e6f7420746865206f776e657260448201526064016103c8565b610c136000611423565b565b610c496040518060a00160405280600081526020016000815260200160008152602001600081526020016000151581525090565b6033546001600160a01b03163314610ca35760405162461bcd60e51b815260206004820181905260248201527f4f776e61626c653a2063616c6c6572206973206e6f7420746865206f776e657260448201526064016103c8565b600082815260696020908152604091829020825160a081018452815481526001820154928101929092526002810154928201929092526003820154606082015260049091015460ff161580156080830152610d405760405162461bcd60e51b815260206004820152601560248201527f506c616e7420616c7265616479206578697374732e000000000000000000000060448201526064016103c8565b610d746040518060a00160405280600081526020016000815260200160008152602001600081526020016000151581525090565b6000808252602080830182815260036040808601828152606460608089019182528b88526069875296839020885180825586516001830155835160028301558251958201959095556080808a0180516004909301805460ff1916931515939093179092558451958652955196850196909652905191830191909152519381019390935290511515908201527f68fc3804c4a15e9c4c95952cc9077b7368ac270150deb7da2920322d82f648049060a0016105da565b610e666040518060c00160405280600081526020016000815260200160608152602001600081526020016000151581526020016000151581525090565b6033546001600160a01b03163314610ec05760405162461bcd60e51b815260206004820181905260248201527f4f776e61626c653a2063616c6c6572206973206e6f7420746865206f776e657260448201526064016103c8565b6001600160a01b0382166000908152606860209081526040808320815160c08101835281548152600182015481850152600282018054845181870281018701865281815292959394860193830182828015610f3a57602002820191906000526020600020905b815481526020019060010190808311610f26575b50505091835250506003820154602082015260049091015460ff8082161515604084015261010090910416151560609091015260a0810151909150610fc15760405162461bcd60e51b815260206004820152601b60248201527f5061727469636970616e7420646f6573206e6f742065786973742e000000000060448201526064016103c8565b610ffe6040518060c00160405280600081526020016000815260200160608152602001600081526020016000151581526020016000151581525090565b90507f10b9fb861106e9968aad73a9730793843f62eabe1111298eb4baf11ed28e906d8160405161102f9190611526565b60405180910390a192915050565b6110716040518060a00160405280600081526020016000815260200160008152602001600081526020016000151581525090565b6033546001600160a01b031633146110cb5760405162461bcd60e51b815260206004820181905260248201527f4f776e61626c653a2063616c6c6572206973206e6f7420746865206f776e657260448201526064016103c8565b600082815260696020908152604091829020825160a081018452815481526001820154928101929092526002810154928201929092526003820154606082015260049091015460ff161515608082018190526111695760405162461bcd60e51b815260206004820152601560248201527f506c616e7420646f6573206e6f742065786973742e000000000000000000000060448201526064016103c8565b61119d6040518060a00160405280600081526020016000815260200160008152602001600081526020016000151581525090565b6040805182518152602080840151908201528183015191810191909152606080830151908201526080808301511515908201529091507f936baf471dcef319d10b9521f71ec0f4ce18632f2ea784d49f23a4ec8120c8069060a00161102f565b61123a6040518060c00160405280600081526020016000815260200160608152602001600081526020016000151581526020016000151581525090565b6001600160a01b0382166000908152606860209081526040808320815160c081018352815481526001820154818501526002820180548451818702810187018652818152929593948601938301828280156112b457602002820191906000526020600020905b8154815260200190600101908083116112a0575b50505091835250506003820154602082015260049091015460ff8082161515604084015261010090910416151560609091015260a081015190915061133b5760405162461bcd60e51b815260206004820152601b60248201527f5061727469636970616e7420646f6573206e6f742065786973742e000000000060448201526064016103c8565b92915050565b6033546001600160a01b0316331461139b5760405162461bcd60e51b815260206004820181905260248201527f4f776e61626c653a2063616c6c6572206973206e6f7420746865206f776e657260448201526064016103c8565b6001600160a01b0381166114175760405162461bcd60e51b815260206004820152602660248201527f4f776e61626c653a206e6577206f776e657220697320746865207a65726f206160448201527f646472657373000000000000000000000000000000000000000000000000000060648201526084016103c8565b61142081611423565b50565b603380546001600160a01b038381167fffffffffffffffffffffffff0000000000000000000000000000000000000000831681179093556040519116919082907f8be0079c531659141344cd1fd0a4f28419497f9722a3daafe3b4186f6b6457e090600090a35050565b8280548282559060005260206000209081019282156114c8579160200282015b828111156114c85782518255916020019190600101906114ad565b506114d49291506114d8565b5090565b5b808211156114d457600081556001016114d9565b80356001600160a01b03811681146105e657600080fd5b60006020828403121561151657600080fd5b61151f826114ed565b9392505050565b6000602080835260e08301845182850152818501516040850152604085015160c06060860152818151808452610100870191508483019350600092505b808310156115835783518252928401926001929092019190840190611563565b5060608701516080870152608087015193506115a360a087018515159052565b60a087015180151560c088015293509695505050505050565b6000602082840312156115ce57600080fd5b5035919050565b60008082840360c08112156115e957600080fd5b8335925060a0601f19820112156115ff57600080fd5b506020830190509250929050565b6000806040838503121561162057600080fd5b611629836114ed565b9150602083013567ffffffffffffffff81111561164557600080fd5b830160c0818603121561165757600080fd5b809150509250929050565b7f4e487b7100000000000000000000000000000000000000000000000000000000600052604160045260246000fd5b60405160c0810167ffffffffffffffff811182821017156116b4576116b4611662565b60405290565b604051601f8201601f1916810167ffffffffffffffff811182821017156116e3576116e3611662565b604052919050565b803580151581146105e657600080fd5b600060a0828403121561170d57600080fd5b60405160a0810181811067ffffffffffffffff8211171561173057611730611662565b806040525082358152602083013560208201526040830135604082015260608301356060820152611763608084016116eb565b60808201529392505050565b600060c0823603121561178157600080fd5b611789611691565b8235815260208084013581830152604084013567ffffffffffffffff808211156117b257600080fd5b9085019036601f8301126117c557600080fd5b8135818111156117d7576117d7611662565b8060051b91506117e88483016116ba565b818152918301840191848101903684111561180257600080fd5b938501935b8385101561182057843582529385019390850190611807565b6040870152505050505060608381013590820152611840608084016116eb565b608082015261185160a084016116eb565b60a08201529291505056fea264697066735822122054abdb865d03c95d23ecde7f5ccdcfaf58f009ac767b0d9818aa6fd55d9f5c3464736f6c63430008090033",
  "linkReferences": {},
  "deployedLinkReferences": {}
}