{
  "_format": "hh-sol-artifact-1",
  "contractName": "KojoStorage",
  "sourceName": "contracts/utils/KojoStorage.sol",
  "abi": [
    {
      "anonymous": false,
      "inputs": [
        {
          "components": [
            {
              "internalType": "uint256",
              "name": "level",
              "type": "uint256"
            },
            {
              "internalType": "uint256",
              "name": "experiencePoints",
              "type": "uint256"
            },
            {
              "internalType": "uint256",
              "name": "timestamp",
              "type": "uint256"
            },
            {
              "internalType": "uint256[]",
              "name": "plantIds",
              "type": "uint256[]"
            },
            {
              "internalType": "uint256",
              "name": "allowedTokenBalance",
              "type": "uint256"
            },
            {
              "internalType": "bool",
              "name": "isPresent",
              "type": "bool"
            }
          ],
          "indexed": false,
          "internalType": "struct Structs.Participant",
          "name": "participant",
          "type": "tuple"
        }
      ],
      "name": "DeleteParticipant",
      "type": "event"
    },
    {
      "anonymous": false,
      "inputs": [
        {
          "components": [
            {
              "internalType": "uint256",
              "name": "typeId",
              "type": "uint256"
            },
            {
              "internalType": "uint256",
              "name": "level",
              "type": "uint256"
            },
            {
              "internalType": "uint256",
              "name": "experiencePoints",
              "type": "uint256"
            },
            {
              "internalType": "uint256",
              "name": "lifes",
              "type": "uint256"
            },
            {
              "internalType": "uint256",
              "name": "levelCost",
              "type": "uint256"
            },
            {
              "internalType": "bool",
              "name": "isPresent",
              "type": "bool"
            }
          ],
          "indexed": false,
          "internalType": "struct Structs.Plant",
          "name": "plant",
          "type": "tuple"
        }
      ],
      "name": "DeletePlant",
      "type": "event"
    },
    {
      "anonymous": false,
      "inputs": [
        {
          "indexed": false,
          "internalType": "uint8",
          "name": "version",
          "type": "uint8"
        }
      ],
      "name": "Initialized",
      "type": "event"
    },
    {
      "anonymous": false,
      "inputs": [
        {
          "indexed": true,
          "internalType": "address",
          "name": "previousOwner",
          "type": "address"
        },
        {
          "indexed": true,
          "internalType": "address",
          "name": "newOwner",
          "type": "address"
        }
      ],
      "name": "OwnershipTransferred",
      "type": "event"
    },
    {
      "anonymous": false,
      "inputs": [
        {
          "components": [
            {
              "internalType": "uint256",
              "name": "level",
              "type": "uint256"
            },
            {
              "internalType": "uint256",
              "name": "experiencePoints",
              "type": "uint256"
            },
            {
              "internalType": "uint256",
              "name": "timestamp",
              "type": "uint256"
            },
            {
              "internalType": "uint256[]",
              "name": "plantIds",
              "type": "uint256[]"
            },
            {
              "internalType": "uint256",
              "name": "allowedTokenBalance",
              "type": "uint256"
            },
            {
              "internalType": "bool",
              "name": "isPresent",
              "type": "bool"
            }
          ],
          "indexed": false,
          "internalType": "struct Structs.Participant",
          "name": "participant",
          "type": "tuple"
        }
      ],
      "name": "UpdateParticipant",
      "type": "event"
    },
    {
      "anonymous": false,
      "inputs": [
        {
          "components": [
            {
              "internalType": "uint256",
              "name": "typeId",
              "type": "uint256"
            },
            {
              "internalType": "uint256",
              "name": "level",
              "type": "uint256"
            },
            {
              "internalType": "uint256",
              "name": "experiencePoints",
              "type": "uint256"
            },
            {
              "internalType": "uint256",
              "name": "lifes",
              "type": "uint256"
            },
            {
              "internalType": "uint256",
              "name": "levelCost",
              "type": "uint256"
            },
            {
              "internalType": "bool",
              "name": "isPresent",
              "type": "bool"
            }
          ],
          "indexed": false,
          "internalType": "struct Structs.Plant",
          "name": "plant",
          "type": "tuple"
        }
      ],
      "name": "UpdatePlant",
      "type": "event"
    },
    {
      "inputs": [
        {
          "internalType": "address",
          "name": "account",
          "type": "address"
        },
        {
          "internalType": "uint256",
          "name": "tokenId",
          "type": "uint256"
        }
      ],
      "name": "handleAddTokenIdToParticipant",
      "outputs": [
        {
          "components": [
            {
              "internalType": "uint256",
              "name": "level",
              "type": "uint256"
            },
            {
              "internalType": "uint256",
              "name": "experiencePoints",
              "type": "uint256"
            },
            {
              "internalType": "uint256",
              "name": "timestamp",
              "type": "uint256"
            },
            {
              "internalType": "uint256[]",
              "name": "plantIds",
              "type": "uint256[]"
            },
            {
              "internalType": "uint256",
              "name": "allowedTokenBalance",
              "type": "uint256"
            },
            {
              "internalType": "bool",
              "name": "isPresent",
              "type": "bool"
            }
          ],
          "internalType": "struct Structs.Participant",
          "name": "_participant",
          "type": "tuple"
        }
      ],
      "stateMutability": "nonpayable",
      "type": "function"
    },
    {
      "inputs": [
        {
          "internalType": "address",
          "name": "account",
          "type": "address"
        }
      ],
      "name": "handleCreateParticpant",
      "outputs": [
        {
          "components": [
            {
              "internalType": "uint256",
              "name": "level",
              "type": "uint256"
            },
            {
              "internalType": "uint256",
              "name": "experiencePoints",
              "type": "uint256"
            },
            {
              "internalType": "uint256",
              "name": "timestamp",
              "type": "uint256"
            },
            {
              "internalType": "uint256[]",
              "name": "plantIds",
              "type": "uint256[]"
            },
            {
              "internalType": "uint256",
              "name": "allowedTokenBalance",
              "type": "uint256"
            },
            {
              "internalType": "bool",
              "name": "isPresent",
              "type": "bool"
            }
          ],
          "internalType": "struct Structs.Participant",
          "name": "value",
          "type": "tuple"
        }
      ],
      "stateMutability": "nonpayable",
      "type": "function"
    },
    {
      "inputs": [
        {
          "internalType": "uint256",
          "name": "tokenId",
          "type": "uint256"
        }
      ],
      "name": "handleCreatePlant",
      "outputs": [
        {
          "components": [
            {
              "internalType": "uint256",
              "name": "typeId",
              "type": "uint256"
            },
            {
              "internalType": "uint256",
              "name": "level",
              "type": "uint256"
            },
            {
              "internalType": "uint256",
              "name": "experiencePoints",
              "type": "uint256"
            },
            {
              "internalType": "uint256",
              "name": "lifes",
              "type": "uint256"
            },
            {
              "internalType": "uint256",
              "name": "levelCost",
              "type": "uint256"
            },
            {
              "internalType": "bool",
              "name": "isPresent",
              "type": "bool"
            }
          ],
          "internalType": "struct Structs.Plant",
          "name": "",
          "type": "tuple"
        }
      ],
      "stateMutability": "nonpayable",
      "type": "function"
    },
    {
      "inputs": [
        {
          "internalType": "address",
          "name": "account",
          "type": "address"
        }
      ],
      "name": "handleDeleteParticipant",
      "outputs": [
        {
          "components": [
            {
              "internalType": "uint256",
              "name": "level",
              "type": "uint256"
            },
            {
              "internalType": "uint256",
              "name": "experiencePoints",
              "type": "uint256"
            },
            {
              "internalType": "uint256",
              "name": "timestamp",
              "type": "uint256"
            },
            {
              "internalType": "uint256[]",
              "name": "plantIds",
              "type": "uint256[]"
            },
            {
              "internalType": "uint256",
              "name": "allowedTokenBalance",
              "type": "uint256"
            },
            {
              "internalType": "bool",
              "name": "isPresent",
              "type": "bool"
            }
          ],
          "internalType": "struct Structs.Participant",
          "name": "value",
          "type": "tuple"
        }
      ],
      "stateMutability": "nonpayable",
      "type": "function"
    },
    {
      "inputs": [
        {
          "internalType": "uint256",
          "name": "tokenId",
          "type": "uint256"
        }
      ],
      "name": "handleDeletePlant",
      "outputs": [
        {
          "components": [
            {
              "internalType": "uint256",
              "name": "typeId",
              "type": "uint256"
            },
            {
              "internalType": "uint256",
              "name": "level",
              "type": "uint256"
            },
            {
              "internalType": "uint256",
              "name": "experiencePoints",
              "type": "uint256"
            },
            {
              "internalType": "uint256",
              "name": "lifes",
              "type": "uint256"
            },
            {
              "internalType": "uint256",
              "name": "levelCost",
              "type": "uint256"
            },
            {
              "internalType": "bool",
              "name": "isPresent",
              "type": "bool"
            }
          ],
          "internalType": "struct Structs.Plant",
          "name": "value",
          "type": "tuple"
        }
      ],
      "stateMutability": "nonpayable",
      "type": "function"
    },
    {
      "inputs": [
        {
          "internalType": "address",
          "name": "account",
          "type": "address"
        }
      ],
      "name": "handleReadParticipant",
      "outputs": [
        {
          "components": [
            {
              "internalType": "uint256",
              "name": "level",
              "type": "uint256"
            },
            {
              "internalType": "uint256",
              "name": "experiencePoints",
              "type": "uint256"
            },
            {
              "internalType": "uint256",
              "name": "timestamp",
              "type": "uint256"
            },
            {
              "internalType": "uint256[]",
              "name": "plantIds",
              "type": "uint256[]"
            },
            {
              "internalType": "uint256",
              "name": "allowedTokenBalance",
              "type": "uint256"
            },
            {
              "internalType": "bool",
              "name": "isPresent",
              "type": "bool"
            }
          ],
          "internalType": "struct Structs.Participant",
          "name": "_participant",
          "type": "tuple"
        }
      ],
      "stateMutability": "view",
      "type": "function"
    },
    {
      "inputs": [],
      "name": "handleReadParticipantAddresses",
      "outputs": [
        {
          "internalType": "address[]",
          "name": "",
          "type": "address[]"
        }
      ],
      "stateMutability": "view",
      "type": "function"
    },
    {
      "inputs": [
        {
          "internalType": "uint256",
          "name": "tokenId",
          "type": "uint256"
        }
      ],
      "name": "handleReadPlant",
      "outputs": [
        {
          "components": [
            {
              "internalType": "uint256",
              "name": "typeId",
              "type": "uint256"
            },
            {
              "internalType": "uint256",
              "name": "level",
              "type": "uint256"
            },
            {
              "internalType": "uint256",
              "name": "experiencePoints",
              "type": "uint256"
            },
            {
              "internalType": "uint256",
              "name": "lifes",
              "type": "uint256"
            },
            {
              "internalType": "uint256",
              "name": "levelCost",
              "type": "uint256"
            },
            {
              "internalType": "bool",
              "name": "isPresent",
              "type": "bool"
            }
          ],
          "internalType": "struct Structs.Plant",
          "name": "_plant",
          "type": "tuple"
        }
      ],
      "stateMutability": "view",
      "type": "function"
    },
    {
      "inputs": [
        {
          "internalType": "address",
          "name": "account",
          "type": "address"
        },
        {
          "components": [
            {
              "internalType": "uint256",
              "name": "level",
              "type": "uint256"
            },
            {
              "internalType": "uint256",
              "name": "experiencePoints",
              "type": "uint256"
            },
            {
              "internalType": "uint256",
              "name": "timestamp",
              "type": "uint256"
            },
            {
              "internalType": "uint256[]",
              "name": "plantIds",
              "type": "uint256[]"
            },
            {
              "internalType": "uint256",
              "name": "allowedTokenBalance",
              "type": "uint256"
            },
            {
              "internalType": "bool",
              "name": "isPresent",
              "type": "bool"
            }
          ],
          "internalType": "struct Structs.Participant",
          "name": "_participant",
          "type": "tuple"
        }
      ],
      "name": "handleUpdateParticipant",
      "outputs": [
        {
          "components": [
            {
              "internalType": "uint256",
              "name": "level",
              "type": "uint256"
            },
            {
              "internalType": "uint256",
              "name": "experiencePoints",
              "type": "uint256"
            },
            {
              "internalType": "uint256",
              "name": "timestamp",
              "type": "uint256"
            },
            {
              "internalType": "uint256[]",
              "name": "plantIds",
              "type": "uint256[]"
            },
            {
              "internalType": "uint256",
              "name": "allowedTokenBalance",
              "type": "uint256"
            },
            {
              "internalType": "bool",
              "name": "isPresent",
              "type": "bool"
            }
          ],
          "internalType": "struct Structs.Participant",
          "name": "value",
          "type": "tuple"
        }
      ],
      "stateMutability": "nonpayable",
      "type": "function"
    },
    {
      "inputs": [
        {
          "internalType": "uint256",
          "name": "tokenId",
          "type": "uint256"
        },
        {
          "components": [
            {
              "internalType": "uint256",
              "name": "typeId",
              "type": "uint256"
            },
            {
              "internalType": "uint256",
              "name": "level",
              "type": "uint256"
            },
            {
              "internalType": "uint256",
              "name": "experiencePoints",
              "type": "uint256"
            },
            {
              "internalType": "uint256",
              "name": "lifes",
              "type": "uint256"
            },
            {
              "internalType": "uint256",
              "name": "levelCost",
              "type": "uint256"
            },
            {
              "internalType": "bool",
              "name": "isPresent",
              "type": "bool"
            }
          ],
          "internalType": "struct Structs.Plant",
          "name": "_plant",
          "type": "tuple"
        }
      ],
      "name": "handleUpdatePlant",
      "outputs": [
        {
          "components": [
            {
              "internalType": "uint256",
              "name": "typeId",
              "type": "uint256"
            },
            {
              "internalType": "uint256",
              "name": "level",
              "type": "uint256"
            },
            {
              "internalType": "uint256",
              "name": "experiencePoints",
              "type": "uint256"
            },
            {
              "internalType": "uint256",
              "name": "lifes",
              "type": "uint256"
            },
            {
              "internalType": "uint256",
              "name": "levelCost",
              "type": "uint256"
            },
            {
              "internalType": "bool",
              "name": "isPresent",
              "type": "bool"
            }
          ],
          "internalType": "struct Structs.Plant",
          "name": "value",
          "type": "tuple"
        }
      ],
      "stateMutability": "nonpayable",
      "type": "function"
    },
    {
      "inputs": [],
      "name": "handleUpdatePlantTypeId",
      "outputs": [],
      "stateMutability": "nonpayable",
      "type": "function"
    },
    {
      "inputs": [],
      "name": "initialTokenAllowance",
      "outputs": [
        {
          "internalType": "uint256",
          "name": "",
          "type": "uint256"
        }
      ],
      "stateMutability": "view",
      "type": "function"
    },
    {
      "inputs": [
        {
          "internalType": "address",
          "name": "_oracle",
          "type": "address"
        }
      ],
      "name": "initialize",
      "outputs": [],
      "stateMutability": "nonpayable",
      "type": "function"
    },
    {
      "inputs": [],
      "name": "levelCost",
      "outputs": [
        {
          "internalType": "uint256",
          "name": "",
          "type": "uint256"
        }
      ],
      "stateMutability": "view",
      "type": "function"
    },
    {
      "inputs": [],
      "name": "owner",
      "outputs": [
        {
          "internalType": "address",
          "name": "",
          "type": "address"
        }
      ],
      "stateMutability": "view",
      "type": "function"
    },
    {
      "inputs": [
        {
          "internalType": "uint256",
          "name": "",
          "type": "uint256"
        }
      ],
      "name": "participantAddresses",
      "outputs": [
        {
          "internalType": "address",
          "name": "",
          "type": "address"
        }
      ],
      "stateMutability": "view",
      "type": "function"
    },
    {
      "inputs": [
        {
          "internalType": "address",
          "name": "",
          "type": "address"
        }
      ],
      "name": "participants",
      "outputs": [
        {
          "internalType": "uint256",
          "name": "level",
          "type": "uint256"
        },
        {
          "internalType": "uint256",
          "name": "experiencePoints",
          "type": "uint256"
        },
        {
          "internalType": "uint256",
          "name": "timestamp",
          "type": "uint256"
        },
        {
          "internalType": "uint256",
          "name": "allowedTokenBalance",
          "type": "uint256"
        },
        {
          "internalType": "bool",
          "name": "isPresent",
          "type": "bool"
        }
      ],
      "stateMutability": "view",
      "type": "function"
    },
    {
      "inputs": [],
      "name": "plantPrice",
      "outputs": [
        {
          "internalType": "uint256",
          "name": "",
          "type": "uint256"
        }
      ],
      "stateMutability": "view",
      "type": "function"
    },
    {
      "inputs": [],
      "name": "plantTypeId",
      "outputs": [
        {
          "internalType": "uint256",
          "name": "",
          "type": "uint256"
        }
      ],
      "stateMutability": "view",
      "type": "function"
    },
    {
      "inputs": [
        {
          "internalType": "uint256",
          "name": "",
          "type": "uint256"
        }
      ],
      "name": "plants",
      "outputs": [
        {
          "internalType": "uint256",
          "name": "typeId",
          "type": "uint256"
        },
        {
          "internalType": "uint256",
          "name": "level",
          "type": "uint256"
        },
        {
          "internalType": "uint256",
          "name": "experiencePoints",
          "type": "uint256"
        },
        {
          "internalType": "uint256",
          "name": "lifes",
          "type": "uint256"
        },
        {
          "internalType": "uint256",
          "name": "levelCost",
          "type": "uint256"
        },
        {
          "internalType": "bool",
          "name": "isPresent",
          "type": "bool"
        }
      ],
      "stateMutability": "view",
      "type": "function"
    },
    {
      "inputs": [],
      "name": "renounceOwnership",
      "outputs": [],
      "stateMutability": "nonpayable",
      "type": "function"
    },
    {
      "inputs": [],
      "name": "secondsBetweenAllowanceUpdates",
      "outputs": [
        {
          "internalType": "uint256",
          "name": "",
          "type": "uint256"
        }
      ],
      "stateMutability": "view",
      "type": "function"
    },
    {
      "inputs": [
        {
          "internalType": "uint256",
          "name": "_allowance",
          "type": "uint256"
        },
        {
          "internalType": "address",
          "name": "_account",
          "type": "address"
        }
      ],
      "name": "setAllowance",
      "outputs": [],
      "stateMutability": "nonpayable",
      "type": "function"
    },
    {
      "inputs": [
        {
          "internalType": "address",
          "name": "newOwner",
          "type": "address"
        }
      ],
      "name": "transferOwnership",
      "outputs": [],
      "stateMutability": "nonpayable",
      "type": "function"
    }
  ],
  "bytecode": "0x608060405234801561001057600080fd5b50611b9c806100206000396000f3fe608060405234801561001057600080fd5b50600436106101585760003560e01c806374589434116100c3578063c4d66de81161007c578063c4d66de814610372578063d6a0cc2914610385578063e1d1ad121461038e578063e5999139146103a1578063f2fde38b146103b4578063ff53fac7146103c757600080fd5b806374589434146102aa5780637b16869c146102b35780638da5cb5b146102c65780638dd2361c146102d75780639778e0b31461034c5780639fd949171461035f57600080fd5b80631fec8c02116101155780631fec8c021461023f578063245e41f41461025257806326fad7771461025a57806354ffbddb1461026f57806358ac00381461029a578063715018a6146102a257600080fd5b80630591f3621461015d57806309e69ede146101675780630aa31f06146101d657806311622ce5146101f657806315485de3146102095780631bca55e514610229575b600080fd5b6101656103da565b005b6101a761017536600461163c565b606560205260009081526040902080546001820154600283015460048401546005909401549293919290919060ff1685565b6040805195865260208601949094529284019190915260608301521515608082015260a0015b60405180910390f35b6101e96101e4366004611676565b61043a565b6040516101cd91906116c4565b6101e961020436600461163c565b6105a1565b61021c610217366004611755565b6107e2565b6040516101cd9190611782565b610231606481565b6040519081526020016101cd565b61021c61024d3660046117c8565b610921565b61023160b481565b610262610a2a565b6040516101cd91906117e1565b61028261027d3660046117c8565b610ab7565b6040516001600160a01b0390911681526020016101cd565b610231600181565b610165610ae1565b61023161012c81565b61021c6102c13660046117c8565b610b15565b6033546001600160a01b0316610282565b61031d6102e53660046117c8565b606660205260009081526040902080546001820154600283015460038401546004850154600590950154939492939192909160ff1686565b6040805196875260208701959095529385019290925260608401526080830152151560a082015260c0016101cd565b6101e961035a36600461163c565b610c6d565b6101e961036d36600461182e565b610db6565b61016561038036600461163c565b610f4c565b61023160675481565b61021c61039c3660046117c8565b610fe2565b6101e96103af36600461163c565b6110c5565b6101656103c236600461163c565b611180565b6101656103d5366004611858565b61121b565b6033546001600160a01b0316331461040d5760405162461bcd60e51b81526004016104049061187b565b60405180910390fd5b6067546004141561041f576001606755565b60016067600082825461043291906118b0565b90915550505b565b610442611555565b6033546001600160a01b0316331461046c5760405162461bcd60e51b81526004016104049061187b565b6001600160a01b0383166000908152606560209081526040808320815160c081018352815481526001820154818501526002820154818401526003820180548451818702810187019095528085529194929360608601939092908301828280156104f557602002820191906000526020600020905b8154815260200190600101908083116104e1575b50505091835250506004820154602082015260059091015460ff16151560409091015260a081015190915061053c5760405162461bcd60e51b8152600401610404906118d6565b6001600160a01b0384166000908152606560205260409020839061056082826119c7565b9050507f3392439d9827a4bb7981470ac0d263c32e95308595474f7316eb294f9994ac4f8160405161059291906116c4565b60405180910390a19392505050565b6105a9611555565b6033546001600160a01b031633146105d35760405162461bcd60e51b81526004016104049061187b565b6001600160a01b0382166000908152606560209081526040808320815160c0810183528154815260018201548185015260028201548184015260038201805484518187028101870190955280855291949293606086019390929083018282801561065c57602002820191906000526020600020905b815481526020019060010190808311610648575b50505091835250506004820154602082015260059091015460ff16151560409091015260a0810151909150156106d45760405162461bcd60e51b815260206004820152601b60248201527f5061727469636970616e7420616c7265616479206578697374732e00000000006044820152606401610404565b6106dc611555565b600181526000602080830182905260808301829052604080519283529082019052606082015261070e61012c426118b0565b6040808301918252600160a084018190526001600160a01b038716600090815260656020908152929020845181558285015191810191909155915160028301556060830151805184939261076992600385019291019061158d565b506080820151600482015560a0909101516005909101805460ff1916911515919091179055606980546001810182556000919091527f7fb4302e8e91f9110a6554c2c0a24601252c2a42c2220ca988efcfe3999143080180546001600160a01b0319166001600160a01b0386161790559150505b919050565b6107ea6115d8565b6033546001600160a01b031633146108145760405162461bcd60e51b81526004016104049061187b565b600083815260666020908152604091829020825160c08101845281548152600182015492810192909252600281015492820192909252600382015460608201526004820154608082015260059091015460ff16151560a0820181905261088c5760405162461bcd60e51b815260040161040490611a69565b61089b36849003840184611a98565b60008581526066602090815260409182902083518155908301516001820155828201516002820155606083015160038201556080830151600482015560a08301516005909101805460ff1916911515919091179055519091507f39f9113684b39569e27899e8e2e92db2c34a873f06ea8d31d0d2f42c4464a76b90610592908390611782565b6109296115d8565b6033546001600160a01b031633146109535760405162461bcd60e51b81526004016104049061187b565b600082815260666020908152604091829020825160c08101845281548152600182015492810192909252600281015492820192909252600382015460608201526004820154608082015260059091015460ff16151560a082018190526109cb5760405162461bcd60e51b815260040161040490611a69565b5050600090815260666020908152604091829020825160c08101845281548152600182015492810192909252600281015492820192909252600382015460608201526004820154608082015260059091015460ff16151560a082015290565b6033546060906001600160a01b03163314610a575760405162461bcd60e51b81526004016104049061187b565b6069805480602002602001604051908101604052809291908181526020018280548015610aad57602002820191906000526020600020905b81546001600160a01b03168152600190910190602001808311610a8f575b5050505050905090565b60698181548110610ac757600080fd5b6000918252602090912001546001600160a01b0316905081565b6033546001600160a01b03163314610b0b5760405162461bcd60e51b81526004016104049061187b565b6104386000611407565b610b1d6115d8565b6033546001600160a01b03163314610b475760405162461bcd60e51b81526004016104049061187b565b600082815260666020908152604091829020825160c08101845281548152600182015492810192909252600281015492820192909252600382015460608201526004820154608082015260059091015460ff1615801560a0830152610be65760405162461bcd60e51b8152602060048201526015602482015274283630b73a1030b63932b0b23c9032bc34b9ba399760591b6044820152606401610404565b610bee6115d8565b60675481526001602080830182815260006040808601828152600360608801818152601960808a0190815260a08a018981529c8652606690975292909320875181559351958401959095559351600283015592519281019290925551600482015593516005909401805460ff1916941515949094179093555090919050565b610c75611555565b6033546001600160a01b03163314610c9f5760405162461bcd60e51b81526004016104049061187b565b6001600160a01b0382166000908152606560209081526040808320815160c08101835281548152600182015481850152600282015481840152600382018054845181870281018701909552808552919492936060860193909290830182828015610d2857602002820191906000526020600020905b815481526020019060010190808311610d14575b50505091835250506004820154602082015260059091015460ff16151560409091015260a0810151909150610d6f5760405162461bcd60e51b8152600401610404906118d6565b610d77611555565b90507ffcaa6fb32171f34cca3c184b1642d81b5451556ad3ec8006fa56335c72b0879781604051610da891906116c4565b60405180910390a192915050565b610dbe611555565b6033546001600160a01b03163314610de85760405162461bcd60e51b81526004016104049061187b565b6001600160a01b0383166000908152606560205260409020600581015460ff16610e245760405162461bcd60e51b8152600401610404906118d6565b60008311610e9a5760405162461bcd60e51b815260206004820152603f60248201527f546f6b656e204944206d7573742062652067726561746572207468616e20302060448201527f696e206f7264657220746f20626520616e204e465420746f6b656e2069642e006064820152608401610404565b6003810180546001818101835560008381526020908190209092018690556040805160c081018252855481529185015482840152600285015482820152835481518185028101850190925280825291938593606086019390830182828015610f2157602002820191906000526020600020905b815481526020019060010190808311610f0d575b50505091835250506004820154602082015260059091015460ff161515604090910152949350505050565b6000610f586001611459565b90508015610f70576000805461ff0019166101001790555b610f786114e1565b6001606755606880546001600160a01b0319166001600160a01b0384161790558015610fde576000805461ff0019169055604051600181527f7f26b83ff96e1f2b6a682f133852f6798a09c465da95921460cefb38474024989060200160405180910390a15b5050565b610fea6115d8565b6033546001600160a01b031633146110145760405162461bcd60e51b81526004016104049061187b565b600082815260666020908152604091829020825160c08101845281548152600182015492810192909252600281015492820192909252600382015460608201526004820154608082015260059091015460ff16151560a0820181905261108c5760405162461bcd60e51b815260040161040490611a69565b6110946115d8565b90507fe7726af8a64d6e7b6c9817c6359ed54ed122385afe35d72ef156d7cca320b34e81604051610da89190611782565b6110cd611555565b6001600160a01b0382166000908152606560209081526040808320815160c0810183528154815260018201548185015260028201548184015260038201805484518187028101870190955280855291949293606086019390929083018282801561115657602002820191906000526020600020905b815481526020019060010190808311611142575b50505091835250506004820154602082015260059091015460ff1615156040909101529392505050565b6033546001600160a01b031633146111aa5760405162461bcd60e51b81526004016104049061187b565b6001600160a01b03811661120f5760405162461bcd60e51b815260206004820152602660248201527f4f776e61626c653a206e6577206f776e657220697320746865207a65726f206160448201526564647265737360d01b6064820152608401610404565b61121881611407565b50565b6068546001600160a01b031633146112645760405162461bcd60e51b815260206004820152600c60248201526b2737ba1030b63637bbb2b21760a11b6044820152606401610404565b6001600160a01b0381166000908152606560209081526040808320815160c081018352815481526001820154818501526002820154818401526003820180548451818702810187019095528085529194929360608601939092908301828280156112ed57602002820191906000526020600020905b8154815260200190600101908083116112d9575b50505091835250506004820154602082015260059091015460ff16151560409091015260a08101519091506113345760405162461bcd60e51b8152600401610404906118d6565b828160800181815161134691906118b0565b90525061135561012c426118b0565b60408083019182526001600160a01b0384166000908152606560209081529190208351815581840151600182015591516002830155606083015180518493926113a592600385019291019061158d565b506080820151600482015560a0909101516005909101805460ff19169115159190911790556040517f3392439d9827a4bb7981470ac0d263c32e95308595474f7316eb294f9994ac4f906113fa9083906116c4565b60405180910390a1505050565b603380546001600160a01b038381166001600160a01b0319831681179093556040519116919082907f8be0079c531659141344cd1fd0a4f28419497f9722a3daafe3b4186f6b6457e090600090a35050565b60008054610100900460ff16156114a0578160ff16600114801561147c5750303b155b6114985760405162461bcd60e51b815260040161040490611b18565b506000919050565b60005460ff8084169116106114c75760405162461bcd60e51b815260040161040490611b18565b506000805460ff191660ff92909216919091179055600190565b600054610100900460ff1661154c5760405162461bcd60e51b815260206004820152602b60248201527f496e697469616c697a61626c653a20636f6e7472616374206973206e6f74206960448201526a6e697469616c697a696e6760a81b6064820152608401610404565b61043833611407565b6040518060c0016040528060008152602001600081526020016000815260200160608152602001600081526020016000151581525090565b8280548282559060005260206000209081019282156115c8579160200282015b828111156115c85782518255916020019190600101906115ad565b506115d4929150611610565b5090565b6040518060c0016040528060008152602001600081526020016000815260200160008152602001600081526020016000151581525090565b5b808211156115d45760008155600101611611565b80356001600160a01b03811681146107dd57600080fd5b60006020828403121561164e57600080fd5b61165782611625565b9392505050565b600060c0828403121561167057600080fd5b50919050565b6000806040838503121561168957600080fd5b61169283611625565b9150602083013567ffffffffffffffff8111156116ae57600080fd5b6116ba8582860161165e565b9150509250929050565b6000602080835260e0830184518285015281850151604085015260408501516060850152606085015160c06080860152818151808452610100870191508483019350600092505b8083101561172b578351825292840192600192909201919084019061170b565b50608087015160a087015260a0870151935061174b60c087018515159052565b9695505050505050565b60008060e0838503121561176857600080fd5b82359150611779846020850161165e565b90509250929050565b600060c082019050825182526020830151602083015260408301516040830152606083015160608301526080830151608083015260a0830151151560a083015292915050565b6000602082840312156117da57600080fd5b5035919050565b6020808252825182820181905260009190848201906040850190845b818110156118225783516001600160a01b0316835292840192918401916001016117fd565b50909695505050505050565b6000806040838503121561184157600080fd5b61184a83611625565b946020939093013593505050565b6000806040838503121561186b57600080fd5b8235915061177960208401611625565b6020808252818101527f4f776e61626c653a2063616c6c6572206973206e6f7420746865206f776e6572604082015260600190565b600082198211156118d157634e487b7160e01b600052601160045260246000fd5b500190565b6020808252601b908201527f5061727469636970616e7420646f6573206e6f742065786973742e0000000000604082015260600190565b634e487b7160e01b600052604160045260246000fd5b6801000000000000000083111561193c5761193c61190d565b805483825580841015611973576000828152602081208581019083015b8082101561196f57828255600182019150611959565b5050505b5060008181526020812083915b8581101561199e578235825560209092019160019182019101611980565b505050505050565b801515811461121857600080fd5b600081356119c1816119a6565b92915050565b8135815560208201356001820155604082013560028201556060820135601e198336030181126119f657600080fd5b8201803567ffffffffffffffff811115611a0f57600080fd5b6020820191508060051b3603821315611a2757600080fd5b611a35818360038601611923565b505060808201356004820155610fde611a5060a084016119b4565b6005830160ff1981541660ff8315151681178255505050565b602080825260159082015274283630b73a103237b2b9903737ba1032bc34b9ba1760591b604082015260600190565b600060c08284031215611aaa57600080fd5b60405160c0810181811067ffffffffffffffff82111715611acd57611acd61190d565b8060405250823581526020830135602082015260408301356040820152606083013560608201526080830135608082015260a0830135611b0c816119a6565b60a08201529392505050565b6020808252602e908201527f496e697469616c697a61626c653a20636f6e747261637420697320616c72656160408201526d191e481a5b9a5d1a585b1a5e995960921b60608201526080019056fea264697066735822122069cd89ab4e16c334063cf1d73e8c47b6e5e5726afd37bc7e62b08f153ba5e55a64736f6c634300080c0033",
  "linkReferences": {},
  "deployedLinkReferences": {}
}