{
  "_format": "hh-sol-artifact-1",
  "contractName": "KojoStorage",
  "sourceName": "contracts/utils/KojoStorage.sol",
  "abi": [
    {
      "anonymous": false,
      "inputs": [
        {
          "components": [
            {
              "internalType": "uint256",
              "name": "level",
              "type": "uint256"
            },
            {
              "internalType": "uint256",
              "name": "experiencePoints",
              "type": "uint256"
            },
            {
              "internalType": "uint256",
              "name": "timestamp",
              "type": "uint256"
            },
            {
              "internalType": "uint256[]",
              "name": "plantIds",
              "type": "uint256[]"
            },
            {
              "internalType": "uint256",
              "name": "allowedTokenBalance",
              "type": "uint256"
            },
            {
              "internalType": "bool",
              "name": "isPresent",
              "type": "bool"
            }
          ],
          "indexed": false,
          "internalType": "struct Structs.Participant",
          "name": "participant",
          "type": "tuple"
        }
      ],
      "name": "DeleteParticipant",
      "type": "event"
    },
    {
      "anonymous": false,
      "inputs": [
        {
          "components": [
            {
              "internalType": "uint256",
              "name": "typeId",
              "type": "uint256"
            },
            {
              "internalType": "uint256",
              "name": "level",
              "type": "uint256"
            },
            {
              "internalType": "uint256",
              "name": "experiencePoints",
              "type": "uint256"
            },
            {
              "internalType": "uint256",
              "name": "lifes",
              "type": "uint256"
            },
            {
              "internalType": "uint256",
              "name": "levelCost",
              "type": "uint256"
            },
            {
              "internalType": "bool",
              "name": "isPresent",
              "type": "bool"
            }
          ],
          "indexed": false,
          "internalType": "struct Structs.Plant",
          "name": "plant",
          "type": "tuple"
        }
      ],
      "name": "DeletePlant",
      "type": "event"
    },
    {
      "anonymous": false,
      "inputs": [
        {
          "indexed": false,
          "internalType": "uint8",
          "name": "version",
          "type": "uint8"
        }
      ],
      "name": "Initialized",
      "type": "event"
    },
    {
      "anonymous": false,
      "inputs": [
        {
          "indexed": true,
          "internalType": "address",
          "name": "previousOwner",
          "type": "address"
        },
        {
          "indexed": true,
          "internalType": "address",
          "name": "newOwner",
          "type": "address"
        }
      ],
      "name": "OwnershipTransferred",
      "type": "event"
    },
    {
      "anonymous": false,
      "inputs": [
        {
          "components": [
            {
              "internalType": "uint256",
              "name": "level",
              "type": "uint256"
            },
            {
              "internalType": "uint256",
              "name": "experiencePoints",
              "type": "uint256"
            },
            {
              "internalType": "uint256",
              "name": "timestamp",
              "type": "uint256"
            },
            {
              "internalType": "uint256[]",
              "name": "plantIds",
              "type": "uint256[]"
            },
            {
              "internalType": "uint256",
              "name": "allowedTokenBalance",
              "type": "uint256"
            },
            {
              "internalType": "bool",
              "name": "isPresent",
              "type": "bool"
            }
          ],
          "indexed": false,
          "internalType": "struct Structs.Participant",
          "name": "participant",
          "type": "tuple"
        }
      ],
      "name": "UpdateParticipant",
      "type": "event"
    },
    {
      "anonymous": false,
      "inputs": [
        {
          "components": [
            {
              "internalType": "uint256",
              "name": "typeId",
              "type": "uint256"
            },
            {
              "internalType": "uint256",
              "name": "level",
              "type": "uint256"
            },
            {
              "internalType": "uint256",
              "name": "experiencePoints",
              "type": "uint256"
            },
            {
              "internalType": "uint256",
              "name": "lifes",
              "type": "uint256"
            },
            {
              "internalType": "uint256",
              "name": "levelCost",
              "type": "uint256"
            },
            {
              "internalType": "bool",
              "name": "isPresent",
              "type": "bool"
            }
          ],
          "indexed": false,
          "internalType": "struct Structs.Plant",
          "name": "plant",
          "type": "tuple"
        }
      ],
      "name": "UpdatePlant",
      "type": "event"
    },
    {
      "inputs": [
        {
          "internalType": "address",
          "name": "account",
          "type": "address"
        },
        {
          "internalType": "uint256",
          "name": "tokenId",
          "type": "uint256"
        }
      ],
      "name": "handleAddTokenIdToParticipant",
      "outputs": [
        {
          "components": [
            {
              "internalType": "uint256",
              "name": "level",
              "type": "uint256"
            },
            {
              "internalType": "uint256",
              "name": "experiencePoints",
              "type": "uint256"
            },
            {
              "internalType": "uint256",
              "name": "timestamp",
              "type": "uint256"
            },
            {
              "internalType": "uint256[]",
              "name": "plantIds",
              "type": "uint256[]"
            },
            {
              "internalType": "uint256",
              "name": "allowedTokenBalance",
              "type": "uint256"
            },
            {
              "internalType": "bool",
              "name": "isPresent",
              "type": "bool"
            }
          ],
          "internalType": "struct Structs.Participant",
          "name": "_participant",
          "type": "tuple"
        }
      ],
      "stateMutability": "nonpayable",
      "type": "function"
    },
    {
      "inputs": [
        {
          "internalType": "address",
          "name": "account",
          "type": "address"
        }
      ],
      "name": "handleCreateParticpant",
      "outputs": [
        {
          "components": [
            {
              "internalType": "uint256",
              "name": "level",
              "type": "uint256"
            },
            {
              "internalType": "uint256",
              "name": "experiencePoints",
              "type": "uint256"
            },
            {
              "internalType": "uint256",
              "name": "timestamp",
              "type": "uint256"
            },
            {
              "internalType": "uint256[]",
              "name": "plantIds",
              "type": "uint256[]"
            },
            {
              "internalType": "uint256",
              "name": "allowedTokenBalance",
              "type": "uint256"
            },
            {
              "internalType": "bool",
              "name": "isPresent",
              "type": "bool"
            }
          ],
          "internalType": "struct Structs.Participant",
          "name": "value",
          "type": "tuple"
        }
      ],
      "stateMutability": "nonpayable",
      "type": "function"
    },
    {
      "inputs": [
        {
          "internalType": "uint256",
          "name": "tokenId",
          "type": "uint256"
        }
      ],
      "name": "handleCreatePlant",
      "outputs": [
        {
          "components": [
            {
              "internalType": "uint256",
              "name": "typeId",
              "type": "uint256"
            },
            {
              "internalType": "uint256",
              "name": "level",
              "type": "uint256"
            },
            {
              "internalType": "uint256",
              "name": "experiencePoints",
              "type": "uint256"
            },
            {
              "internalType": "uint256",
              "name": "lifes",
              "type": "uint256"
            },
            {
              "internalType": "uint256",
              "name": "levelCost",
              "type": "uint256"
            },
            {
              "internalType": "bool",
              "name": "isPresent",
              "type": "bool"
            }
          ],
          "internalType": "struct Structs.Plant",
          "name": "",
          "type": "tuple"
        }
      ],
      "stateMutability": "nonpayable",
      "type": "function"
    },
    {
      "inputs": [
        {
          "internalType": "address",
          "name": "account",
          "type": "address"
        }
      ],
      "name": "handleDeleteParticipant",
      "outputs": [
        {
          "components": [
            {
              "internalType": "uint256",
              "name": "level",
              "type": "uint256"
            },
            {
              "internalType": "uint256",
              "name": "experiencePoints",
              "type": "uint256"
            },
            {
              "internalType": "uint256",
              "name": "timestamp",
              "type": "uint256"
            },
            {
              "internalType": "uint256[]",
              "name": "plantIds",
              "type": "uint256[]"
            },
            {
              "internalType": "uint256",
              "name": "allowedTokenBalance",
              "type": "uint256"
            },
            {
              "internalType": "bool",
              "name": "isPresent",
              "type": "bool"
            }
          ],
          "internalType": "struct Structs.Participant",
          "name": "value",
          "type": "tuple"
        }
      ],
      "stateMutability": "nonpayable",
      "type": "function"
    },
    {
      "inputs": [
        {
          "internalType": "uint256",
          "name": "tokenId",
          "type": "uint256"
        }
      ],
      "name": "handleDeletePlant",
      "outputs": [
        {
          "components": [
            {
              "internalType": "uint256",
              "name": "typeId",
              "type": "uint256"
            },
            {
              "internalType": "uint256",
              "name": "level",
              "type": "uint256"
            },
            {
              "internalType": "uint256",
              "name": "experiencePoints",
              "type": "uint256"
            },
            {
              "internalType": "uint256",
              "name": "lifes",
              "type": "uint256"
            },
            {
              "internalType": "uint256",
              "name": "levelCost",
              "type": "uint256"
            },
            {
              "internalType": "bool",
              "name": "isPresent",
              "type": "bool"
            }
          ],
          "internalType": "struct Structs.Plant",
          "name": "value",
          "type": "tuple"
        }
      ],
      "stateMutability": "nonpayable",
      "type": "function"
    },
    {
      "inputs": [
        {
          "internalType": "address",
          "name": "account",
          "type": "address"
        }
      ],
      "name": "handleReadParticipant",
      "outputs": [
        {
          "components": [
            {
              "internalType": "uint256",
              "name": "level",
              "type": "uint256"
            },
            {
              "internalType": "uint256",
              "name": "experiencePoints",
              "type": "uint256"
            },
            {
              "internalType": "uint256",
              "name": "timestamp",
              "type": "uint256"
            },
            {
              "internalType": "uint256[]",
              "name": "plantIds",
              "type": "uint256[]"
            },
            {
              "internalType": "uint256",
              "name": "allowedTokenBalance",
              "type": "uint256"
            },
            {
              "internalType": "bool",
              "name": "isPresent",
              "type": "bool"
            }
          ],
          "internalType": "struct Structs.Participant",
          "name": "_participant",
          "type": "tuple"
        }
      ],
      "stateMutability": "view",
      "type": "function"
    },
    {
      "inputs": [],
      "name": "handleReadParticipantAddresses",
      "outputs": [
        {
          "internalType": "address[]",
          "name": "",
          "type": "address[]"
        }
      ],
      "stateMutability": "view",
      "type": "function"
    },
    {
      "inputs": [
        {
          "internalType": "uint256",
          "name": "tokenId",
          "type": "uint256"
        }
      ],
      "name": "handleReadPlant",
      "outputs": [
        {
          "components": [
            {
              "internalType": "uint256",
              "name": "typeId",
              "type": "uint256"
            },
            {
              "internalType": "uint256",
              "name": "level",
              "type": "uint256"
            },
            {
              "internalType": "uint256",
              "name": "experiencePoints",
              "type": "uint256"
            },
            {
              "internalType": "uint256",
              "name": "lifes",
              "type": "uint256"
            },
            {
              "internalType": "uint256",
              "name": "levelCost",
              "type": "uint256"
            },
            {
              "internalType": "bool",
              "name": "isPresent",
              "type": "bool"
            }
          ],
          "internalType": "struct Structs.Plant",
          "name": "_plant",
          "type": "tuple"
        }
      ],
      "stateMutability": "view",
      "type": "function"
    },
    {
      "inputs": [
        {
          "internalType": "address",
          "name": "account",
          "type": "address"
        },
        {
          "components": [
            {
              "internalType": "uint256",
              "name": "level",
              "type": "uint256"
            },
            {
              "internalType": "uint256",
              "name": "experiencePoints",
              "type": "uint256"
            },
            {
              "internalType": "uint256",
              "name": "timestamp",
              "type": "uint256"
            },
            {
              "internalType": "uint256[]",
              "name": "plantIds",
              "type": "uint256[]"
            },
            {
              "internalType": "uint256",
              "name": "allowedTokenBalance",
              "type": "uint256"
            },
            {
              "internalType": "bool",
              "name": "isPresent",
              "type": "bool"
            }
          ],
          "internalType": "struct Structs.Participant",
          "name": "_participant",
          "type": "tuple"
        }
      ],
      "name": "handleUpdateParticipant",
      "outputs": [
        {
          "components": [
            {
              "internalType": "uint256",
              "name": "level",
              "type": "uint256"
            },
            {
              "internalType": "uint256",
              "name": "experiencePoints",
              "type": "uint256"
            },
            {
              "internalType": "uint256",
              "name": "timestamp",
              "type": "uint256"
            },
            {
              "internalType": "uint256[]",
              "name": "plantIds",
              "type": "uint256[]"
            },
            {
              "internalType": "uint256",
              "name": "allowedTokenBalance",
              "type": "uint256"
            },
            {
              "internalType": "bool",
              "name": "isPresent",
              "type": "bool"
            }
          ],
          "internalType": "struct Structs.Participant",
          "name": "value",
          "type": "tuple"
        }
      ],
      "stateMutability": "nonpayable",
      "type": "function"
    },
    {
      "inputs": [
        {
          "internalType": "uint256",
          "name": "tokenId",
          "type": "uint256"
        },
        {
          "components": [
            {
              "internalType": "uint256",
              "name": "typeId",
              "type": "uint256"
            },
            {
              "internalType": "uint256",
              "name": "level",
              "type": "uint256"
            },
            {
              "internalType": "uint256",
              "name": "experiencePoints",
              "type": "uint256"
            },
            {
              "internalType": "uint256",
              "name": "lifes",
              "type": "uint256"
            },
            {
              "internalType": "uint256",
              "name": "levelCost",
              "type": "uint256"
            },
            {
              "internalType": "bool",
              "name": "isPresent",
              "type": "bool"
            }
          ],
          "internalType": "struct Structs.Plant",
          "name": "_plant",
          "type": "tuple"
        }
      ],
      "name": "handleUpdatePlant",
      "outputs": [
        {
          "components": [
            {
              "internalType": "uint256",
              "name": "typeId",
              "type": "uint256"
            },
            {
              "internalType": "uint256",
              "name": "level",
              "type": "uint256"
            },
            {
              "internalType": "uint256",
              "name": "experiencePoints",
              "type": "uint256"
            },
            {
              "internalType": "uint256",
              "name": "lifes",
              "type": "uint256"
            },
            {
              "internalType": "uint256",
              "name": "levelCost",
              "type": "uint256"
            },
            {
              "internalType": "bool",
              "name": "isPresent",
              "type": "bool"
            }
          ],
          "internalType": "struct Structs.Plant",
          "name": "value",
          "type": "tuple"
        }
      ],
      "stateMutability": "nonpayable",
      "type": "function"
    },
    {
      "inputs": [],
      "name": "handleUpdatePlantTypeId",
      "outputs": [],
      "stateMutability": "nonpayable",
      "type": "function"
    },
    {
      "inputs": [],
      "name": "initialTokenAllowance",
      "outputs": [
        {
          "internalType": "uint256",
          "name": "",
          "type": "uint256"
        }
      ],
      "stateMutability": "view",
      "type": "function"
    },
    {
      "inputs": [
        {
          "internalType": "address",
          "name": "_oracle",
          "type": "address"
        }
      ],
      "name": "initialize",
      "outputs": [],
      "stateMutability": "nonpayable",
      "type": "function"
    },
    {
      "inputs": [],
      "name": "levelCost",
      "outputs": [
        {
          "internalType": "uint256",
          "name": "",
          "type": "uint256"
        }
      ],
      "stateMutability": "view",
      "type": "function"
    },
    {
      "inputs": [],
      "name": "owner",
      "outputs": [
        {
          "internalType": "address",
          "name": "",
          "type": "address"
        }
      ],
      "stateMutability": "view",
      "type": "function"
    },
    {
      "inputs": [
        {
          "internalType": "uint256",
          "name": "",
          "type": "uint256"
        }
      ],
      "name": "participantAddresses",
      "outputs": [
        {
          "internalType": "address",
          "name": "",
          "type": "address"
        }
      ],
      "stateMutability": "view",
      "type": "function"
    },
    {
      "inputs": [
        {
          "internalType": "address",
          "name": "",
          "type": "address"
        }
      ],
      "name": "participants",
      "outputs": [
        {
          "internalType": "uint256",
          "name": "level",
          "type": "uint256"
        },
        {
          "internalType": "uint256",
          "name": "experiencePoints",
          "type": "uint256"
        },
        {
          "internalType": "uint256",
          "name": "timestamp",
          "type": "uint256"
        },
        {
          "internalType": "uint256",
          "name": "allowedTokenBalance",
          "type": "uint256"
        },
        {
          "internalType": "bool",
          "name": "isPresent",
          "type": "bool"
        }
      ],
      "stateMutability": "view",
      "type": "function"
    },
    {
      "inputs": [],
      "name": "plantPrice",
      "outputs": [
        {
          "internalType": "uint256",
          "name": "",
          "type": "uint256"
        }
      ],
      "stateMutability": "view",
      "type": "function"
    },
    {
      "inputs": [],
      "name": "plantTypeId",
      "outputs": [
        {
          "internalType": "uint256",
          "name": "",
          "type": "uint256"
        }
      ],
      "stateMutability": "view",
      "type": "function"
    },
    {
      "inputs": [
        {
          "internalType": "uint256",
          "name": "",
          "type": "uint256"
        }
      ],
      "name": "plants",
      "outputs": [
        {
          "internalType": "uint256",
          "name": "typeId",
          "type": "uint256"
        },
        {
          "internalType": "uint256",
          "name": "level",
          "type": "uint256"
        },
        {
          "internalType": "uint256",
          "name": "experiencePoints",
          "type": "uint256"
        },
        {
          "internalType": "uint256",
          "name": "lifes",
          "type": "uint256"
        },
        {
          "internalType": "uint256",
          "name": "levelCost",
          "type": "uint256"
        },
        {
          "internalType": "bool",
          "name": "isPresent",
          "type": "bool"
        }
      ],
      "stateMutability": "view",
      "type": "function"
    },
    {
      "inputs": [],
      "name": "renounceOwnership",
      "outputs": [],
      "stateMutability": "nonpayable",
      "type": "function"
    },
    {
      "inputs": [],
      "name": "secondsBetweenAllowanceUpdates",
      "outputs": [
        {
          "internalType": "uint256",
          "name": "",
          "type": "uint256"
        }
      ],
      "stateMutability": "view",
      "type": "function"
    },
    {
      "inputs": [
        {
          "internalType": "uint256",
          "name": "_allowance",
          "type": "uint256"
        },
        {
          "internalType": "address",
          "name": "_account",
          "type": "address"
        }
      ],
      "name": "setAllowance",
      "outputs": [],
      "stateMutability": "nonpayable",
      "type": "function"
    },
    {
      "inputs": [
        {
          "internalType": "address",
          "name": "newOwner",
          "type": "address"
        }
      ],
      "name": "transferOwnership",
      "outputs": [],
      "stateMutability": "nonpayable",
      "type": "function"
    }
  ],
  "bytecode": "0x608060405234801561001057600080fd5b50611b83806100206000396000f3fe608060405234801561001057600080fd5b50600436106101585760003560e01c806374589434116100c3578063c4d66de81161007c578063c4d66de814610371578063d6a0cc2914610384578063e1d1ad121461038d578063e5999139146103a0578063f2fde38b146103b3578063ff53fac7146103c657600080fd5b806374589434146102aa5780637b16869c146102b25780638da5cb5b146102c55780638dd2361c146102d65780639778e0b31461034b5780639fd949171461035e57600080fd5b80631fec8c02116101155780631fec8c021461023f578063245e41f41461025257806326fad7771461025a57806354ffbddb1461026f57806358ac00381461029a578063715018a6146102a257600080fd5b80630591f3621461015d57806309e69ede146101675780630aa31f06146101d657806311622ce5146101f657806315485de3146102095780631bca55e514610229575b600080fd5b6101656103d9565b005b6101a7610175366004611623565b606760205260009081526040902080546001820154600283015460048401546005909401549293919290919060ff1685565b6040805195865260208601949094529284019190915260608301521515608082015260a0015b60405180910390f35b6101e96101e436600461165d565b610439565b6040516101cd91906116ab565b6101e9610204366004611623565b6105a0565b61021c61021736600461173c565b6107e0565b6040516101cd9190611769565b610231606481565b6040519081526020016101cd565b61021c61024d3660046117af565b61091f565b61023160b481565b610262610a28565b6040516101cd91906117c8565b61028261027d3660046117af565b610ab5565b6040516001600160a01b0390911681526020016101cd565b610231600181565b610165610adf565b61023160f081565b61021c6102c03660046117af565b610b13565b6033546001600160a01b0316610282565b61031c6102e43660046117af565b606860205260009081526040902080546001820154600283015460038401546004850154600590950154939492939192909160ff1686565b6040805196875260208701959095529385019290925260608401526080830152151560a082015260c0016101cd565b6101e9610359366004611623565b610c6b565b6101e961036c366004611815565b610db4565b61016561037f366004611623565b610f4a565b61023160655481565b61021c61039b3660046117af565b610fe0565b6101e96103ae366004611623565b6110c3565b6101656103c1366004611623565b6111a8565b6101656103d436600461183f565b611243565b6033546001600160a01b0316331461040c5760405162461bcd60e51b815260040161040390611862565b60405180910390fd5b6065546004141561041e576001606555565b6001606560008282546104319190611897565b90915550505b565b61044161153c565b6033546001600160a01b0316331461046b5760405162461bcd60e51b815260040161040390611862565b6001600160a01b0383166000908152606760209081526040808320815160c081018352815481526001820154818501526002820154818401526003820180548451818702810187019095528085529194929360608601939092908301828280156104f457602002820191906000526020600020905b8154815260200190600101908083116104e0575b50505091835250506004820154602082015260059091015460ff16151560409091015260a081015190915061053b5760405162461bcd60e51b8152600401610403906118bd565b6001600160a01b0384166000908152606760205260409020839061055f82826119ae565b9050507f3392439d9827a4bb7981470ac0d263c32e95308595474f7316eb294f9994ac4f8160405161059191906116ab565b60405180910390a19392505050565b6105a861153c565b6033546001600160a01b031633146105d25760405162461bcd60e51b815260040161040390611862565b6001600160a01b0382166000908152606760209081526040808320815160c0810183528154815260018201548185015260028201548184015260038201805484518187028101870190955280855291949293606086019390929083018282801561065b57602002820191906000526020600020905b815481526020019060010190808311610647575b50505091835250506004820154602082015260059091015460ff16151560409091015260a0810151909150156106d35760405162461bcd60e51b815260206004820152601b60248201527f5061727469636970616e7420616c7265616479206578697374732e00000000006044820152606401610403565b6106db61153c565b600181526000602080830182905260808301829052604080519283529082019052606082015261070c60f042611897565b6040808301918252600160a084018190526001600160a01b0387166000908152606760209081529290208451815582850151918101919091559151600283015560608301518051849392610767926003850192910190611574565b506080820151600482015560a0909101516005909101805460ff1916911515919091179055606980546001810182556000919091527f7fb4302e8e91f9110a6554c2c0a24601252c2a42c2220ca988efcfe3999143080180546001600160a01b0319166001600160a01b0386161790559150505b919050565b6107e86115bf565b6033546001600160a01b031633146108125760405162461bcd60e51b815260040161040390611862565b600083815260686020908152604091829020825160c08101845281548152600182015492810192909252600281015492820192909252600382015460608201526004820154608082015260059091015460ff16151560a0820181905261088a5760405162461bcd60e51b815260040161040390611a50565b61089936849003840184611a7f565b60008581526068602090815260409182902083518155908301516001820155828201516002820155606083015160038201556080830151600482015560a08301516005909101805460ff1916911515919091179055519091507f39f9113684b39569e27899e8e2e92db2c34a873f06ea8d31d0d2f42c4464a76b90610591908390611769565b6109276115bf565b6033546001600160a01b031633146109515760405162461bcd60e51b815260040161040390611862565b600082815260686020908152604091829020825160c08101845281548152600182015492810192909252600281015492820192909252600382015460608201526004820154608082015260059091015460ff16151560a082018190526109c95760405162461bcd60e51b815260040161040390611a50565b5050600090815260686020908152604091829020825160c08101845281548152600182015492810192909252600281015492820192909252600382015460608201526004820154608082015260059091015460ff16151560a082015290565b6033546060906001600160a01b03163314610a555760405162461bcd60e51b815260040161040390611862565b6069805480602002602001604051908101604052809291908181526020018280548015610aab57602002820191906000526020600020905b81546001600160a01b03168152600190910190602001808311610a8d575b5050505050905090565b60698181548110610ac557600080fd5b6000918252602090912001546001600160a01b0316905081565b6033546001600160a01b03163314610b095760405162461bcd60e51b815260040161040390611862565b61043760006113ee565b610b1b6115bf565b6033546001600160a01b03163314610b455760405162461bcd60e51b815260040161040390611862565b600082815260686020908152604091829020825160c08101845281548152600182015492810192909252600281015492820192909252600382015460608201526004820154608082015260059091015460ff1615801560a0830152610be45760405162461bcd60e51b8152602060048201526015602482015274283630b73a1030b63932b0b23c9032bc34b9ba399760591b6044820152606401610403565b610bec6115bf565b60655481526001602080830182815260006040808601828152600360608801818152601460808a0190815260a08a018981529c8652606890975292909320875181559351958401959095559351600283015592519281019290925551600482015593516005909401805460ff1916941515949094179093555090919050565b610c7361153c565b6033546001600160a01b03163314610c9d5760405162461bcd60e51b815260040161040390611862565b6001600160a01b0382166000908152606760209081526040808320815160c08101835281548152600182015481850152600282015481840152600382018054845181870281018701909552808552919492936060860193909290830182828015610d2657602002820191906000526020600020905b815481526020019060010190808311610d12575b50505091835250506004820154602082015260059091015460ff16151560409091015260a0810151909150610d6d5760405162461bcd60e51b8152600401610403906118bd565b610d7561153c565b90507ffcaa6fb32171f34cca3c184b1642d81b5451556ad3ec8006fa56335c72b0879781604051610da691906116ab565b60405180910390a192915050565b610dbc61153c565b6033546001600160a01b03163314610de65760405162461bcd60e51b815260040161040390611862565b6001600160a01b0383166000908152606760205260409020600581015460ff16610e225760405162461bcd60e51b8152600401610403906118bd565b60008311610e985760405162461bcd60e51b815260206004820152603f60248201527f546f6b656e204944206d7573742062652067726561746572207468616e20302060448201527f696e206f7264657220746f20626520616e204e465420746f6b656e2069642e006064820152608401610403565b6003810180546001818101835560008381526020908190209092018690556040805160c081018252855481529185015482840152600285015482820152835481518185028101850190925280825291938593606086019390830182828015610f1f57602002820191906000526020600020905b815481526020019060010190808311610f0b575b50505091835250506004820154602082015260059091015460ff161515604090910152949350505050565b6000610f566001611440565b90508015610f6e576000805461ff0019166101001790555b610f766114c8565b6001606555606680546001600160a01b0319166001600160a01b0384161790558015610fdc576000805461ff0019169055604051600181527f7f26b83ff96e1f2b6a682f133852f6798a09c465da95921460cefb38474024989060200160405180910390a15b5050565b610fe86115bf565b6033546001600160a01b031633146110125760405162461bcd60e51b815260040161040390611862565b600082815260686020908152604091829020825160c08101845281548152600182015492810192909252600281015492820192909252600382015460608201526004820154608082015260059091015460ff16151560a0820181905261108a5760405162461bcd60e51b815260040161040390611a50565b6110926115bf565b90507fe7726af8a64d6e7b6c9817c6359ed54ed122385afe35d72ef156d7cca320b34e81604051610da69190611769565b6110cb61153c565b6033546001600160a01b031633146110f55760405162461bcd60e51b815260040161040390611862565b6001600160a01b0382166000908152606760209081526040808320815160c0810183528154815260018201548185015260028201548184015260038201805484518187028101870190955280855291949293606086019390929083018282801561117e57602002820191906000526020600020905b81548152602001906001019080831161116a575b50505091835250506004820154602082015260059091015460ff1615156040909101529392505050565b6033546001600160a01b031633146111d25760405162461bcd60e51b815260040161040390611862565b6001600160a01b0381166112375760405162461bcd60e51b815260206004820152602660248201527f4f776e61626c653a206e6577206f776e657220697320746865207a65726f206160448201526564647265737360d01b6064820152608401610403565b611240816113ee565b50565b6066546001600160a01b0316331461125a57600080fd5b6001600160a01b0381166000908152606760209081526040808320815160c081018352815481526001820154818501526002820154818401526003820180548451818702810187019095528085529194929360608601939092908301828280156112e357602002820191906000526020600020905b8154815260200190600101908083116112cf575b50505091835250506004820154602082015260059091015460ff16151560409091015260a081015190915061132a5760405162461bcd60e51b8152600401610403906118bd565b6080810183905261133c60f042611897565b60408083019182526001600160a01b03841660009081526067602090815291902083518155818401516001820155915160028301556060830151805184939261138c926003850192910190611574565b506080820151600482015560a0909101516005909101805460ff19169115159190911790556040517f3392439d9827a4bb7981470ac0d263c32e95308595474f7316eb294f9994ac4f906113e19083906116ab565b60405180910390a1505050565b603380546001600160a01b038381166001600160a01b0319831681179093556040519116919082907f8be0079c531659141344cd1fd0a4f28419497f9722a3daafe3b4186f6b6457e090600090a35050565b60008054610100900460ff1615611487578160ff1660011480156114635750303b155b61147f5760405162461bcd60e51b815260040161040390611aff565b506000919050565b60005460ff8084169116106114ae5760405162461bcd60e51b815260040161040390611aff565b506000805460ff191660ff92909216919091179055600190565b600054610100900460ff166115335760405162461bcd60e51b815260206004820152602b60248201527f496e697469616c697a61626c653a20636f6e7472616374206973206e6f74206960448201526a6e697469616c697a696e6760a81b6064820152608401610403565b610437336113ee565b6040518060c0016040528060008152602001600081526020016000815260200160608152602001600081526020016000151581525090565b8280548282559060005260206000209081019282156115af579160200282015b828111156115af578251825591602001919060010190611594565b506115bb9291506115f7565b5090565b6040518060c0016040528060008152602001600081526020016000815260200160008152602001600081526020016000151581525090565b5b808211156115bb57600081556001016115f8565b80356001600160a01b03811681146107db57600080fd5b60006020828403121561163557600080fd5b61163e8261160c565b9392505050565b600060c0828403121561165757600080fd5b50919050565b6000806040838503121561167057600080fd5b6116798361160c565b9150602083013567ffffffffffffffff81111561169557600080fd5b6116a185828601611645565b9150509250929050565b6000602080835260e0830184518285015281850151604085015260408501516060850152606085015160c06080860152818151808452610100870191508483019350600092505b8083101561171257835182529284019260019290920191908401906116f2565b50608087015160a087015260a0870151935061173260c087018515159052565b9695505050505050565b60008060e0838503121561174f57600080fd5b823591506117608460208501611645565b90509250929050565b600060c082019050825182526020830151602083015260408301516040830152606083015160608301526080830151608083015260a0830151151560a083015292915050565b6000602082840312156117c157600080fd5b5035919050565b6020808252825182820181905260009190848201906040850190845b818110156118095783516001600160a01b0316835292840192918401916001016117e4565b50909695505050505050565b6000806040838503121561182857600080fd5b6118318361160c565b946020939093013593505050565b6000806040838503121561185257600080fd5b823591506117606020840161160c565b6020808252818101527f4f776e61626c653a2063616c6c6572206973206e6f7420746865206f776e6572604082015260600190565b600082198211156118b857634e487b7160e01b600052601160045260246000fd5b500190565b6020808252601b908201527f5061727469636970616e7420646f6573206e6f742065786973742e0000000000604082015260600190565b634e487b7160e01b600052604160045260246000fd5b68010000000000000000831115611923576119236118f4565b80548382558084101561195a576000828152602081208581019083015b8082101561195657828255600182019150611940565b5050505b5060008181526020812083915b85811015611985578235825560209092019160019182019101611967565b505050505050565b801515811461124057600080fd5b600081356119a88161198d565b92915050565b8135815560208201356001820155604082013560028201556060820135601e198336030181126119dd57600080fd5b8201803567ffffffffffffffff8111156119f657600080fd5b6020820191508060051b3603821315611a0e57600080fd5b611a1c81836003860161190a565b505060808201356004820155610fdc611a3760a0840161199b565b6005830160ff1981541660ff8315151681178255505050565b602080825260159082015274283630b73a103237b2b9903737ba1032bc34b9ba1760591b604082015260600190565b600060c08284031215611a9157600080fd5b60405160c0810181811067ffffffffffffffff82111715611ab457611ab46118f4565b8060405250823581526020830135602082015260408301356040820152606083013560608201526080830135608082015260a0830135611af38161198d565b60a08201529392505050565b6020808252602e908201527f496e697469616c697a61626c653a20636f6e747261637420697320616c72656160408201526d191e481a5b9a5d1a585b1a5e995960921b60608201526080019056fea26469706673582212208156fc0213ca623636a15680a39e94bd7b7d5b87aab17cf1bc869005977cd3ee64736f6c63430008090033",
  "linkReferences": {},
  "deployedLinkReferences": {}
}