{
  "_format": "hh-sol-artifact-1",
  "contractName": "KojoStorage",
  "sourceName": "contracts/utils/KojoStorage.sol",
  "abi": [
    {
      "anonymous": false,
      "inputs": [
        {
          "components": [
            {
              "internalType": "uint256",
              "name": "level",
              "type": "uint256"
            },
            {
              "internalType": "uint256",
              "name": "experiencePoints",
              "type": "uint256"
            },
            {
              "internalType": "uint256[]",
              "name": "plantIds",
              "type": "uint256[]"
            },
            {
              "internalType": "uint256",
              "name": "allowedTokenBalance",
              "type": "uint256"
            },
            {
              "internalType": "bool",
              "name": "isPresent",
              "type": "bool"
            }
          ],
          "indexed": false,
          "internalType": "struct Structs.Participant",
          "name": "participant",
          "type": "tuple"
        }
      ],
      "name": "CreateParticipant",
      "type": "event"
    },
    {
      "anonymous": false,
      "inputs": [
        {
          "components": [
            {
              "internalType": "uint256",
              "name": "level",
              "type": "uint256"
            },
            {
              "internalType": "uint256",
              "name": "experiencePoints",
              "type": "uint256"
            },
            {
              "internalType": "uint256",
              "name": "lifes",
              "type": "uint256"
            },
            {
              "internalType": "uint256",
              "name": "levelCost",
              "type": "uint256"
            },
            {
              "internalType": "bool",
              "name": "isPresent",
              "type": "bool"
            }
          ],
          "indexed": false,
          "internalType": "struct Structs.Plant",
          "name": "plant",
          "type": "tuple"
        }
      ],
      "name": "CreatePlant",
      "type": "event"
    },
    {
      "anonymous": false,
      "inputs": [
        {
          "components": [
            {
              "internalType": "uint256",
              "name": "level",
              "type": "uint256"
            },
            {
              "internalType": "uint256",
              "name": "experiencePoints",
              "type": "uint256"
            },
            {
              "internalType": "uint256[]",
              "name": "plantIds",
              "type": "uint256[]"
            },
            {
              "internalType": "uint256",
              "name": "allowedTokenBalance",
              "type": "uint256"
            },
            {
              "internalType": "bool",
              "name": "isPresent",
              "type": "bool"
            }
          ],
          "indexed": false,
          "internalType": "struct Structs.Participant",
          "name": "participant",
          "type": "tuple"
        }
      ],
      "name": "DeleteParticipant",
      "type": "event"
    },
    {
      "anonymous": false,
      "inputs": [
        {
          "components": [
            {
              "internalType": "uint256",
              "name": "level",
              "type": "uint256"
            },
            {
              "internalType": "uint256",
              "name": "experiencePoints",
              "type": "uint256"
            },
            {
              "internalType": "uint256",
              "name": "lifes",
              "type": "uint256"
            },
            {
              "internalType": "uint256",
              "name": "levelCost",
              "type": "uint256"
            },
            {
              "internalType": "bool",
              "name": "isPresent",
              "type": "bool"
            }
          ],
          "indexed": false,
          "internalType": "struct Structs.Plant",
          "name": "plant",
          "type": "tuple"
        }
      ],
      "name": "DeletePlant",
      "type": "event"
    },
    {
      "anonymous": false,
      "inputs": [
        {
          "indexed": false,
          "internalType": "uint8",
          "name": "version",
          "type": "uint8"
        }
      ],
      "name": "Initialized",
      "type": "event"
    },
    {
      "anonymous": false,
      "inputs": [
        {
          "indexed": true,
          "internalType": "address",
          "name": "previousOwner",
          "type": "address"
        },
        {
          "indexed": true,
          "internalType": "address",
          "name": "newOwner",
          "type": "address"
        }
      ],
      "name": "OwnershipTransferred",
      "type": "event"
    },
    {
      "anonymous": false,
      "inputs": [
        {
          "components": [
            {
              "internalType": "uint256",
              "name": "level",
              "type": "uint256"
            },
            {
              "internalType": "uint256",
              "name": "experiencePoints",
              "type": "uint256"
            },
            {
              "internalType": "uint256[]",
              "name": "plantIds",
              "type": "uint256[]"
            },
            {
              "internalType": "uint256",
              "name": "allowedTokenBalance",
              "type": "uint256"
            },
            {
              "internalType": "bool",
              "name": "isPresent",
              "type": "bool"
            }
          ],
          "indexed": false,
          "internalType": "struct Structs.Participant",
          "name": "participant",
          "type": "tuple"
        }
      ],
      "name": "UpdateParticipant",
      "type": "event"
    },
    {
      "anonymous": false,
      "inputs": [
        {
          "components": [
            {
              "internalType": "uint256",
              "name": "level",
              "type": "uint256"
            },
            {
              "internalType": "uint256",
              "name": "experiencePoints",
              "type": "uint256"
            },
            {
              "internalType": "uint256",
              "name": "lifes",
              "type": "uint256"
            },
            {
              "internalType": "uint256",
              "name": "levelCost",
              "type": "uint256"
            },
            {
              "internalType": "bool",
              "name": "isPresent",
              "type": "bool"
            }
          ],
          "indexed": false,
          "internalType": "struct Structs.Plant",
          "name": "plant",
          "type": "tuple"
        }
      ],
      "name": "UpdatePlant",
      "type": "event"
    },
    {
      "inputs": [
        {
          "internalType": "address",
          "name": "account",
          "type": "address"
        }
      ],
      "name": "handleCreateParticpant",
      "outputs": [
        {
          "components": [
            {
              "internalType": "uint256",
              "name": "level",
              "type": "uint256"
            },
            {
              "internalType": "uint256",
              "name": "experiencePoints",
              "type": "uint256"
            },
            {
              "internalType": "uint256[]",
              "name": "plantIds",
              "type": "uint256[]"
            },
            {
              "internalType": "uint256",
              "name": "allowedTokenBalance",
              "type": "uint256"
            },
            {
              "internalType": "bool",
              "name": "isPresent",
              "type": "bool"
            }
          ],
          "internalType": "struct Structs.Participant",
          "name": "value",
          "type": "tuple"
        }
      ],
      "stateMutability": "nonpayable",
      "type": "function"
    },
    {
      "inputs": [
        {
          "internalType": "uint256",
          "name": "tokenId",
          "type": "uint256"
        }
      ],
      "name": "handleCreatePlant",
      "outputs": [
        {
          "components": [
            {
              "internalType": "uint256",
              "name": "level",
              "type": "uint256"
            },
            {
              "internalType": "uint256",
              "name": "experiencePoints",
              "type": "uint256"
            },
            {
              "internalType": "uint256",
              "name": "lifes",
              "type": "uint256"
            },
            {
              "internalType": "uint256",
              "name": "levelCost",
              "type": "uint256"
            },
            {
              "internalType": "bool",
              "name": "isPresent",
              "type": "bool"
            }
          ],
          "internalType": "struct Structs.Plant",
          "name": "value",
          "type": "tuple"
        }
      ],
      "stateMutability": "nonpayable",
      "type": "function"
    },
    {
      "inputs": [
        {
          "internalType": "address",
          "name": "account",
          "type": "address"
        }
      ],
      "name": "handleDeleteParticipant",
      "outputs": [
        {
          "components": [
            {
              "internalType": "uint256",
              "name": "level",
              "type": "uint256"
            },
            {
              "internalType": "uint256",
              "name": "experiencePoints",
              "type": "uint256"
            },
            {
              "internalType": "uint256[]",
              "name": "plantIds",
              "type": "uint256[]"
            },
            {
              "internalType": "uint256",
              "name": "allowedTokenBalance",
              "type": "uint256"
            },
            {
              "internalType": "bool",
              "name": "isPresent",
              "type": "bool"
            }
          ],
          "internalType": "struct Structs.Participant",
          "name": "value",
          "type": "tuple"
        }
      ],
      "stateMutability": "nonpayable",
      "type": "function"
    },
    {
      "inputs": [
        {
          "internalType": "uint256",
          "name": "tokenId",
          "type": "uint256"
        }
      ],
      "name": "handleDeletePlant",
      "outputs": [
        {
          "components": [
            {
              "internalType": "uint256",
              "name": "level",
              "type": "uint256"
            },
            {
              "internalType": "uint256",
              "name": "experiencePoints",
              "type": "uint256"
            },
            {
              "internalType": "uint256",
              "name": "lifes",
              "type": "uint256"
            },
            {
              "internalType": "uint256",
              "name": "levelCost",
              "type": "uint256"
            },
            {
              "internalType": "bool",
              "name": "isPresent",
              "type": "bool"
            }
          ],
          "internalType": "struct Structs.Plant",
          "name": "value",
          "type": "tuple"
        }
      ],
      "stateMutability": "nonpayable",
      "type": "function"
    },
    {
      "inputs": [
        {
          "internalType": "address",
          "name": "account",
          "type": "address"
        }
      ],
      "name": "handleReadParticipant",
      "outputs": [
        {
          "components": [
            {
              "internalType": "uint256",
              "name": "level",
              "type": "uint256"
            },
            {
              "internalType": "uint256",
              "name": "experiencePoints",
              "type": "uint256"
            },
            {
              "internalType": "uint256[]",
              "name": "plantIds",
              "type": "uint256[]"
            },
            {
              "internalType": "uint256",
              "name": "allowedTokenBalance",
              "type": "uint256"
            },
            {
              "internalType": "bool",
              "name": "isPresent",
              "type": "bool"
            }
          ],
          "internalType": "struct Structs.Participant",
          "name": "_participant",
          "type": "tuple"
        }
      ],
      "stateMutability": "view",
      "type": "function"
    },
    {
      "inputs": [
        {
          "internalType": "uint256",
          "name": "tokenId",
          "type": "uint256"
        }
      ],
      "name": "handleReadPlant",
      "outputs": [
        {
          "components": [
            {
              "internalType": "uint256",
              "name": "level",
              "type": "uint256"
            },
            {
              "internalType": "uint256",
              "name": "experiencePoints",
              "type": "uint256"
            },
            {
              "internalType": "uint256",
              "name": "lifes",
              "type": "uint256"
            },
            {
              "internalType": "uint256",
              "name": "levelCost",
              "type": "uint256"
            },
            {
              "internalType": "bool",
              "name": "isPresent",
              "type": "bool"
            }
          ],
          "internalType": "struct Structs.Plant",
          "name": "_plant",
          "type": "tuple"
        }
      ],
      "stateMutability": "view",
      "type": "function"
    },
    {
      "inputs": [
        {
          "internalType": "address",
          "name": "account",
          "type": "address"
        },
        {
          "components": [
            {
              "internalType": "uint256",
              "name": "level",
              "type": "uint256"
            },
            {
              "internalType": "uint256",
              "name": "experiencePoints",
              "type": "uint256"
            },
            {
              "internalType": "uint256[]",
              "name": "plantIds",
              "type": "uint256[]"
            },
            {
              "internalType": "uint256",
              "name": "allowedTokenBalance",
              "type": "uint256"
            },
            {
              "internalType": "bool",
              "name": "isPresent",
              "type": "bool"
            }
          ],
          "internalType": "struct Structs.Participant",
          "name": "_participant",
          "type": "tuple"
        }
      ],
      "name": "handleUpdateParticipant",
      "outputs": [
        {
          "components": [
            {
              "internalType": "uint256",
              "name": "level",
              "type": "uint256"
            },
            {
              "internalType": "uint256",
              "name": "experiencePoints",
              "type": "uint256"
            },
            {
              "internalType": "uint256[]",
              "name": "plantIds",
              "type": "uint256[]"
            },
            {
              "internalType": "uint256",
              "name": "allowedTokenBalance",
              "type": "uint256"
            },
            {
              "internalType": "bool",
              "name": "isPresent",
              "type": "bool"
            }
          ],
          "internalType": "struct Structs.Participant",
          "name": "value",
          "type": "tuple"
        }
      ],
      "stateMutability": "nonpayable",
      "type": "function"
    },
    {
      "inputs": [
        {
          "internalType": "uint256",
          "name": "tokenId",
          "type": "uint256"
        },
        {
          "components": [
            {
              "internalType": "uint256",
              "name": "level",
              "type": "uint256"
            },
            {
              "internalType": "uint256",
              "name": "experiencePoints",
              "type": "uint256"
            },
            {
              "internalType": "uint256",
              "name": "lifes",
              "type": "uint256"
            },
            {
              "internalType": "uint256",
              "name": "levelCost",
              "type": "uint256"
            },
            {
              "internalType": "bool",
              "name": "isPresent",
              "type": "bool"
            }
          ],
          "internalType": "struct Structs.Plant",
          "name": "_plant",
          "type": "tuple"
        }
      ],
      "name": "handleUpdatePlant",
      "outputs": [
        {
          "components": [
            {
              "internalType": "uint256",
              "name": "level",
              "type": "uint256"
            },
            {
              "internalType": "uint256",
              "name": "experiencePoints",
              "type": "uint256"
            },
            {
              "internalType": "uint256",
              "name": "lifes",
              "type": "uint256"
            },
            {
              "internalType": "uint256",
              "name": "levelCost",
              "type": "uint256"
            },
            {
              "internalType": "bool",
              "name": "isPresent",
              "type": "bool"
            }
          ],
          "internalType": "struct Structs.Plant",
          "name": "value",
          "type": "tuple"
        }
      ],
      "stateMutability": "nonpayable",
      "type": "function"
    },
    {
      "inputs": [
        {
          "internalType": "uint256",
          "name": "_tokenSensitivity",
          "type": "uint256"
        }
      ],
      "name": "handleUpdateTokenSensitivity",
      "outputs": [],
      "stateMutability": "nonpayable",
      "type": "function"
    },
    {
      "inputs": [],
      "name": "initialTokenAllowance",
      "outputs": [
        {
          "internalType": "uint256",
          "name": "",
          "type": "uint256"
        }
      ],
      "stateMutability": "view",
      "type": "function"
    },
    {
      "inputs": [],
      "name": "initialize",
      "outputs": [],
      "stateMutability": "nonpayable",
      "type": "function"
    },
    {
      "inputs": [],
      "name": "owner",
      "outputs": [
        {
          "internalType": "address",
          "name": "",
          "type": "address"
        }
      ],
      "stateMutability": "view",
      "type": "function"
    },
    {
      "inputs": [
        {
          "internalType": "address",
          "name": "",
          "type": "address"
        }
      ],
      "name": "participants",
      "outputs": [
        {
          "internalType": "uint256",
          "name": "level",
          "type": "uint256"
        },
        {
          "internalType": "uint256",
          "name": "experiencePoints",
          "type": "uint256"
        },
        {
          "internalType": "uint256",
          "name": "allowedTokenBalance",
          "type": "uint256"
        },
        {
          "internalType": "bool",
          "name": "isPresent",
          "type": "bool"
        }
      ],
      "stateMutability": "view",
      "type": "function"
    },
    {
      "inputs": [],
      "name": "plantPrice",
      "outputs": [
        {
          "internalType": "uint256",
          "name": "",
          "type": "uint256"
        }
      ],
      "stateMutability": "view",
      "type": "function"
    },
    {
      "inputs": [
        {
          "internalType": "uint256",
          "name": "",
          "type": "uint256"
        }
      ],
      "name": "plants",
      "outputs": [
        {
          "internalType": "uint256",
          "name": "level",
          "type": "uint256"
        },
        {
          "internalType": "uint256",
          "name": "experiencePoints",
          "type": "uint256"
        },
        {
          "internalType": "uint256",
          "name": "lifes",
          "type": "uint256"
        },
        {
          "internalType": "uint256",
          "name": "levelCost",
          "type": "uint256"
        },
        {
          "internalType": "bool",
          "name": "isPresent",
          "type": "bool"
        }
      ],
      "stateMutability": "view",
      "type": "function"
    },
    {
      "inputs": [],
      "name": "renounceOwnership",
      "outputs": [],
      "stateMutability": "nonpayable",
      "type": "function"
    },
    {
      "inputs": [],
      "name": "tokenSensitivity",
      "outputs": [
        {
          "internalType": "uint256",
          "name": "",
          "type": "uint256"
        }
      ],
      "stateMutability": "view",
      "type": "function"
    },
    {
      "inputs": [
        {
          "internalType": "address",
          "name": "newOwner",
          "type": "address"
        }
      ],
      "name": "transferOwnership",
      "outputs": [],
      "stateMutability": "nonpayable",
      "type": "function"
    }
  ],
  "bytecode": "0x608060405234801561001057600080fd5b5061150c806100206000396000f3fe608060405234801561001057600080fd5b50600436106101165760003560e01c8063715018a6116100a25780638dd2361c116100715780638dd2361c1461025c5780639778e0b3146102c6578063e1d1ad12146102d9578063e5999139146102ec578063f2fde38b146102ff57600080fd5b8063715018a61461021e5780637b16869c146102265780638129fc1c146102395780638da5cb5b1461024157600080fd5b8063229e04c8116100e9578063229e04c8146101d157806330242454146101da5780633fcd0c37146101ef578063571765151461020257806358ac00381461021557600080fd5b806309e69ede1461011b57806311622ce51461017a5780631bca55e51461019a5780631fec8c02146101b1575b600080fd5b6101536101293660046110c4565b60686020526000908152604090208054600182015460038301546004909301549192909160ff1684565b60408051948552602085019390935291830152151560608201526080015b60405180910390f35b61018d6101883660046110c4565b610312565b60405161017191906110e6565b6101a360675481565b604051908152602001610171565b6101c46101bf36600461116c565b610504565b6040516101719190611185565b6101a360665481565b6101ed6101e836600461116c565b6105cf565b005b61018d6101fd3660046111d9565b6105fe565b6101c4610210366004611227565b6107d2565b6101a360655481565b6101ed6108fd565b6101c461023436600461116c565b610933565b6101ed610a90565b6033546040516001600160a01b039091168152602001610171565b61029c61026a36600461116c565b606960205260009081526040902080546001820154600283015460038401546004909401549293919290919060ff1685565b6040805195865260208601949094529284019190915260608301521515608082015260a001610171565b61018d6102d43660046110c4565b610b1a565b6101c46102e736600461116c565b610c84565b61018d6102fa3660046110c4565b610d5d565b6101ed61030d3660046110c4565b610e09565b61031a610feb565b6033546001600160a01b0316331461034d5760405162461bcd60e51b815260040161034490611254565b60405180910390fd5b6001600160a01b0382166000908152606860209081526040808320815160a081018352815481526001820154818501526002820180548451818702810187018652818152929593948601938301828280156103c757602002820191906000526020600020905b8154815260200190600101908083116103b3575b50505091835250506003820154602082015260049091015460ff16151560409091015260808101519091501561043f5760405162461bcd60e51b815260206004820152601b60248201527f5061727469636970616e7420616c7265616479206578697374732e00000000006044820152606401610344565b610447610feb565b60008082526020808301828152606084018390526001608085018190526001600160a01b0388168452606883526040938490208551815591519082015591830151805184939261049e92600285019291019061101c565b50606082015160038201556080909101516004909101805460ff19169115159190911790556040517fa264353b4d8dc876f7a9e4030a7dbc206124e120101dd032f4ef2bcabb15ec4b906104f39083906110e6565b60405180910390a19150505b919050565b61050c611067565b600082815260696020908152604091829020825160a081018452815481526001820154928101929092526002810154928201929092526003820154606082015260049091015460ff1615156080820181905261057a5760405162461bcd60e51b815260040161034490611289565b5050600090815260696020908152604091829020825160a081018452815481526001820154928101929092526002810154928201929092526003820154606082015260049091015460ff161515608082015290565b6033546001600160a01b031633146105f95760405162461bcd60e51b815260040161034490611254565b606655565b610606610feb565b6033546001600160a01b031633146106305760405162461bcd60e51b815260040161034490611254565b6001600160a01b0383166000908152606860209081526040808320815160a081018352815481526001820154818501526002820180548451818702810187018652818152929593948601938301828280156106aa57602002820191906000526020600020905b815481526020019060010190808311610696575b50505091835250506003820154602082015260049091015460ff16151560409091015260808101519091506107215760405162461bcd60e51b815260206004820152601b60248201527f5061727469636970616e7420646f6573206e6f742065786973742e00000000006044820152606401610344565b61072a83611338565b6001600160a01b03851660009081526068602090815260409182902083518155818401516001820155918301518051939450849361076e926002850192019061101c565b50606082015160038201556080909101516004909101805460ff19169115159190911790556040517fbde0b5f6c349605083550b6ae7537d272caa80d602b2953848ce00156a594b2d906107c39083906110e6565b60405180910390a19392505050565b6107da611067565b6033546001600160a01b031633146108045760405162461bcd60e51b815260040161034490611254565b600083815260696020908152604091829020825160a081018452815481526001820154928101929092526002810154928201929092526003820154606082015260049091015460ff161515608082018190526108725760405162461bcd60e51b815260040161034490611289565b61088136849003840184611414565b600085815260696020908152604091829020835181559083015160018201558282015160028201556060830151600382015560808301516004909101805460ff1916911515919091179055519091507f55bf2566c2dd3965de515a5b2fb036fd69ce0893ac5e8ad62121064c03887f3a906107c3908390611185565b6033546001600160a01b031633146109275760405162461bcd60e51b815260040161034490611254565b6109316000610e9d565b565b61093b611067565b6033546001600160a01b031633146109655760405162461bcd60e51b815260040161034490611254565b600082815260696020908152604091829020825160a081018452815481526001820154928101929092526002810154928201929092526003820154606082015260049091015460ff1615801560808301526109fa5760405162461bcd60e51b8152602060048201526015602482015274283630b73a1030b63932b0b23c9032bc34b9ba399760591b6044820152606401610344565b610a02611067565b60008082526020808301828152600360408086018281526064606088019081528a875260699095529481902086518155925160018401559351600283015591519181019190915560808301516004909101805460ff1916911515919091179055517f68fc3804c4a15e9c4c95952cc9077b7368ac270150deb7da2920322d82f64804906104f3908390611185565b6000610a9c6001610eef565b90508015610ab4576000805461ff0019166101001790555b610ac96103e860658190556066556064606755565b610ad1610f77565b8015610b17576000805461ff0019169055604051600181527f7f26b83ff96e1f2b6a682f133852f6798a09c465da95921460cefb38474024989060200160405180910390a15b50565b610b22610feb565b6033546001600160a01b03163314610b4c5760405162461bcd60e51b815260040161034490611254565b6001600160a01b0382166000908152606860209081526040808320815160a08101835281548152600182015481850152600282018054845181870281018701865281815292959394860193830182828015610bc657602002820191906000526020600020905b815481526020019060010190808311610bb2575b50505091835250506003820154602082015260049091015460ff1615156040909101526080810151909150610c3d5760405162461bcd60e51b815260206004820152601b60248201527f5061727469636970616e7420646f6573206e6f742065786973742e00000000006044820152606401610344565b610c45610feb565b90507fd0a3d2d8946fb042e4542a54d3647344add244d38811d62cad6f4398f56ab0c481604051610c7691906110e6565b60405180910390a192915050565b610c8c611067565b6033546001600160a01b03163314610cb65760405162461bcd60e51b815260040161034490611254565b600082815260696020908152604091829020825160a081018452815481526001820154928101929092526002810154928201929092526003820154606082015260049091015460ff16151560808201819052610d245760405162461bcd60e51b815260040161034490611289565b610d2c611067565b90507f936baf471dcef319d10b9521f71ec0f4ce18632f2ea784d49f23a4ec8120c80681604051610c769190611185565b610d65610feb565b6001600160a01b0382166000908152606860209081526040808320815160a08101835281548152600182015481850152600282018054845181870281018701865281815292959394860193830182828015610ddf57602002820191906000526020600020905b815481526020019060010190808311610dcb575b50505091835250506003820154602082015260049091015460ff1615156040909101529392505050565b6033546001600160a01b03163314610e335760405162461bcd60e51b815260040161034490611254565b6001600160a01b038116610e985760405162461bcd60e51b815260206004820152602660248201527f4f776e61626c653a206e6577206f776e657220697320746865207a65726f206160448201526564647265737360d01b6064820152608401610344565b610b17815b603380546001600160a01b038381166001600160a01b0319831681179093556040519116919082907f8be0079c531659141344cd1fd0a4f28419497f9722a3daafe3b4186f6b6457e090600090a35050565b60008054610100900460ff1615610f36578160ff166001148015610f125750303b155b610f2e5760405162461bcd60e51b815260040161034490611488565b506000919050565b60005460ff808416911610610f5d5760405162461bcd60e51b815260040161034490611488565b506000805460ff191660ff92909216919091179055600190565b600054610100900460ff16610fe25760405162461bcd60e51b815260206004820152602b60248201527f496e697469616c697a61626c653a20636f6e7472616374206973206e6f74206960448201526a6e697469616c697a696e6760a81b6064820152608401610344565b61093133610e9d565b6040518060a00160405280600081526020016000815260200160608152602001600081526020016000151581525090565b828054828255906000526020600020908101928215611057579160200282015b8281111561105757825182559160200191906001019061103c565b50611063929150611098565b5090565b6040518060a00160405280600081526020016000815260200160008152602001600081526020016000151581525090565b5b808211156110635760008155600101611099565b80356001600160a01b03811681146104ff57600080fd5b6000602082840312156110d657600080fd5b6110df826110ad565b9392505050565b6000602080835260c08301845182850152818501516040850152604085015160a0606086015281815180845260e0870191508483019350600092505b808310156111425783518252928401926001929092019190840190611122565b50606087015160808701526080870151935061116260a087018515159052565b9695505050505050565b60006020828403121561117e57600080fd5b5035919050565b600060a0820190508251825260208301516020830152604083015160408301526060830151606083015260808301511515608083015292915050565b600060a082840312156111d357600080fd5b50919050565b600080604083850312156111ec57600080fd5b6111f5836110ad565b9150602083013567ffffffffffffffff81111561121157600080fd5b61121d858286016111c1565b9150509250929050565b60008060c0838503121561123a57600080fd5b8235915061124b84602085016111c1565b90509250929050565b6020808252818101527f4f776e61626c653a2063616c6c6572206973206e6f7420746865206f776e6572604082015260600190565b602080825260159082015274283630b73a103237b2b9903737ba1032bc34b9ba1760591b604082015260600190565b634e487b7160e01b600052604160045260246000fd5b60405160a0810167ffffffffffffffff811182821017156112f1576112f16112b8565b60405290565b604051601f8201601f1916810167ffffffffffffffff81118282101715611320576113206112b8565b604052919050565b803580151581146104ff57600080fd5b600060a0823603121561134a57600080fd5b6113526112ce565b8235815260208084013581830152604084013567ffffffffffffffff8082111561137b57600080fd5b9085019036601f83011261138e57600080fd5b8135818111156113a0576113a06112b8565b8060051b91506113b18483016112f7565b81815291830184019184810190368411156113cb57600080fd5b938501935b838510156113e9578435825293850193908501906113d0565b604087015250505050506060838101359082015261140960808401611328565b608082015292915050565b600060a0828403121561142657600080fd5b60405160a0810181811067ffffffffffffffff82111715611449576114496112b8565b80604052508235815260208301356020820152604083013560408201526060830135606082015261147c60808401611328565b60808201529392505050565b6020808252602e908201527f496e697469616c697a61626c653a20636f6e747261637420697320616c72656160408201526d191e481a5b9a5d1a585b1a5e995960921b60608201526080019056fea264697066735822122047af4b09bd684ef4e4e519f1cb6ddc5de910d8ef1c568617106d0d627403ad8464736f6c63430008090033",
  "linkReferences": {},
  "deployedLinkReferences": {}
}