{
  "_format": "hh-sol-artifact-1",
  "contractName": "KojoV1",
  "sourceName": "contracts/KojoV1.sol",
  "abi": [
    {
      "anonymous": false,
      "inputs": [
        {
          "indexed": false,
          "internalType": "uint8",
          "name": "version",
          "type": "uint8"
        }
      ],
      "name": "Initialized",
      "type": "event"
    },
    {
      "anonymous": false,
      "inputs": [
        {
          "indexed": true,
          "internalType": "address",
          "name": "previousOwner",
          "type": "address"
        },
        {
          "indexed": true,
          "internalType": "address",
          "name": "newOwner",
          "type": "address"
        }
      ],
      "name": "OwnershipTransferred",
      "type": "event"
    },
    {
      "anonymous": false,
      "inputs": [
        {
          "components": [
            {
              "internalType": "uint256",
              "name": "level",
              "type": "uint256"
            },
            {
              "internalType": "uint256",
              "name": "experiencePoints",
              "type": "uint256"
            },
            {
              "internalType": "uint256[]",
              "name": "plantIds",
              "type": "uint256[]"
            },
            {
              "internalType": "uint256",
              "name": "allowedTokenBalance",
              "type": "uint256"
            },
            {
              "internalType": "bool",
              "name": "isPresent",
              "type": "bool"
            }
          ],
          "indexed": false,
          "internalType": "struct Structs.Participant",
          "name": "participant",
          "type": "tuple"
        },
        {
          "components": [
            {
              "internalType": "uint256",
              "name": "level",
              "type": "uint256"
            },
            {
              "internalType": "uint256",
              "name": "experiencePoints",
              "type": "uint256"
            },
            {
              "internalType": "uint256",
              "name": "lifes",
              "type": "uint256"
            },
            {
              "internalType": "uint256",
              "name": "levelCost",
              "type": "uint256"
            },
            {
              "internalType": "bool",
              "name": "isPresent",
              "type": "bool"
            }
          ],
          "indexed": false,
          "internalType": "struct Structs.Plant",
          "name": "plant",
          "type": "tuple"
        }
      ],
      "name": "PlantMinted",
      "type": "event"
    },
    {
      "anonymous": false,
      "inputs": [
        {
          "indexed": false,
          "internalType": "address",
          "name": "account",
          "type": "address"
        },
        {
          "components": [
            {
              "internalType": "uint256",
              "name": "level",
              "type": "uint256"
            },
            {
              "internalType": "uint256",
              "name": "experiencePoints",
              "type": "uint256"
            },
            {
              "internalType": "uint256[]",
              "name": "plantIds",
              "type": "uint256[]"
            },
            {
              "internalType": "uint256",
              "name": "allowedTokenBalance",
              "type": "uint256"
            },
            {
              "internalType": "bool",
              "name": "isPresent",
              "type": "bool"
            }
          ],
          "indexed": false,
          "internalType": "struct Structs.Participant",
          "name": "participant",
          "type": "tuple"
        },
        {
          "components": [
            {
              "internalType": "uint256",
              "name": "level",
              "type": "uint256"
            },
            {
              "internalType": "uint256",
              "name": "experiencePoints",
              "type": "uint256"
            },
            {
              "internalType": "uint256",
              "name": "lifes",
              "type": "uint256"
            },
            {
              "internalType": "uint256",
              "name": "levelCost",
              "type": "uint256"
            },
            {
              "internalType": "bool",
              "name": "isPresent",
              "type": "bool"
            }
          ],
          "indexed": false,
          "internalType": "struct Structs.Plant",
          "name": "plant",
          "type": "tuple"
        },
        {
          "indexed": false,
          "internalType": "uint256",
          "name": "amount",
          "type": "uint256"
        }
      ],
      "name": "PlantWatered",
      "type": "event"
    },
    {
      "anonymous": false,
      "inputs": [
        {
          "components": [
            {
              "internalType": "uint256",
              "name": "level",
              "type": "uint256"
            },
            {
              "internalType": "uint256",
              "name": "experiencePoints",
              "type": "uint256"
            },
            {
              "internalType": "uint256[]",
              "name": "plantIds",
              "type": "uint256[]"
            },
            {
              "internalType": "uint256",
              "name": "allowedTokenBalance",
              "type": "uint256"
            },
            {
              "internalType": "bool",
              "name": "isPresent",
              "type": "bool"
            }
          ],
          "indexed": false,
          "internalType": "struct Structs.Participant",
          "name": "participant",
          "type": "tuple"
        },
        {
          "indexed": false,
          "internalType": "uint256",
          "name": "amount",
          "type": "uint256"
        }
      ],
      "name": "TokensClaimed",
      "type": "event"
    },
    {
      "inputs": [],
      "name": "checkUpkeep",
      "outputs": [],
      "stateMutability": "view",
      "type": "function"
    },
    {
      "inputs": [],
      "name": "handleBuyPlant",
      "outputs": [],
      "stateMutability": "payable",
      "type": "function"
    },
    {
      "inputs": [],
      "name": "handleClaimMonthlyReward",
      "outputs": [],
      "stateMutability": "nonpayable",
      "type": "function"
    },
    {
      "inputs": [],
      "name": "handleClaimStartTokens",
      "outputs": [
        {
          "components": [
            {
              "internalType": "uint256",
              "name": "level",
              "type": "uint256"
            },
            {
              "internalType": "uint256",
              "name": "experiencePoints",
              "type": "uint256"
            },
            {
              "internalType": "uint256[]",
              "name": "plantIds",
              "type": "uint256[]"
            },
            {
              "internalType": "uint256",
              "name": "allowedTokenBalance",
              "type": "uint256"
            },
            {
              "internalType": "bool",
              "name": "isPresent",
              "type": "bool"
            }
          ],
          "internalType": "struct Structs.Participant",
          "name": "value",
          "type": "tuple"
        }
      ],
      "stateMutability": "payable",
      "type": "function"
    },
    {
      "inputs": [],
      "name": "handleReadInititalAllowance",
      "outputs": [
        {
          "internalType": "uint256",
          "name": "",
          "type": "uint256"
        }
      ],
      "stateMutability": "view",
      "type": "function"
    },
    {
      "inputs": [
        {
          "internalType": "address",
          "name": "account",
          "type": "address"
        }
      ],
      "name": "handleReadParticipant",
      "outputs": [
        {
          "components": [
            {
              "internalType": "uint256",
              "name": "level",
              "type": "uint256"
            },
            {
              "internalType": "uint256",
              "name": "experiencePoints",
              "type": "uint256"
            },
            {
              "internalType": "uint256[]",
              "name": "plantIds",
              "type": "uint256[]"
            },
            {
              "internalType": "uint256",
              "name": "allowedTokenBalance",
              "type": "uint256"
            },
            {
              "internalType": "bool",
              "name": "isPresent",
              "type": "bool"
            }
          ],
          "internalType": "struct Structs.Participant",
          "name": "_participant",
          "type": "tuple"
        }
      ],
      "stateMutability": "view",
      "type": "function"
    },
    {
      "inputs": [
        {
          "internalType": "address",
          "name": "_store",
          "type": "address"
        },
        {
          "internalType": "address",
          "name": "_utils",
          "type": "address"
        },
        {
          "internalType": "address",
          "name": "_api",
          "type": "address"
        },
        {
          "internalType": "address",
          "name": "_token",
          "type": "address"
        }
      ],
      "name": "handleUpdateContracts",
      "outputs": [],
      "stateMutability": "nonpayable",
      "type": "function"
    },
    {
      "inputs": [
        {
          "internalType": "uint256",
          "name": "tokenSensitivity",
          "type": "uint256"
        }
      ],
      "name": "handleUpdateTokenSensitivity",
      "outputs": [],
      "stateMutability": "nonpayable",
      "type": "function"
    },
    {
      "inputs": [
        {
          "internalType": "uint256",
          "name": "tokenId",
          "type": "uint256"
        }
      ],
      "name": "handleWaterPlant",
      "outputs": [],
      "stateMutability": "payable",
      "type": "function"
    },
    {
      "inputs": [
        {
          "internalType": "address",
          "name": "_store",
          "type": "address"
        },
        {
          "internalType": "address",
          "name": "_utils",
          "type": "address"
        },
        {
          "internalType": "address",
          "name": "_api",
          "type": "address"
        },
        {
          "internalType": "address",
          "name": "_token",
          "type": "address"
        }
      ],
      "name": "initialize",
      "outputs": [],
      "stateMutability": "nonpayable",
      "type": "function"
    },
    {
      "inputs": [],
      "name": "owner",
      "outputs": [
        {
          "internalType": "address",
          "name": "",
          "type": "address"
        }
      ],
      "stateMutability": "view",
      "type": "function"
    },
    {
      "inputs": [],
      "name": "performUpkeep",
      "outputs": [],
      "stateMutability": "view",
      "type": "function"
    },
    {
      "inputs": [],
      "name": "renounceOwnership",
      "outputs": [],
      "stateMutability": "nonpayable",
      "type": "function"
    },
    {
      "inputs": [],
      "name": "tokenAddress",
      "outputs": [
        {
          "internalType": "address",
          "name": "",
          "type": "address"
        }
      ],
      "stateMutability": "view",
      "type": "function"
    },
    {
      "inputs": [
        {
          "internalType": "address",
          "name": "newOwner",
          "type": "address"
        }
      ],
      "name": "transferOwnership",
      "outputs": [],
      "stateMutability": "nonpayable",
      "type": "function"
    }
  ],
  "bytecode": "0x608060405234801561001057600080fd5b50612424806100206000396000f3fe6080604052600436106100e85760003560e01c80639d76ea581161008a578063f2fde38b11610059578063f2fde38b14610210578063f8c8765e14610230578063fabe6b3c14610250578063fc57ca291461025857600080fd5b80639d76ea58146101b0578063a13abdad1461014c578063de349ae7146101d0578063e5999139146101e357600080fd5b80636e4d243a116100c65780636e4d243a1461014c578063715018a6146101615780638da5cb5b146101765780639c3423b1146101a857600080fd5b806330242454146100ed578063584c7b371461010f5780636c7ff22e14610137575b600080fd5b3480156100f957600080fd5b5061010d610108366004611d39565b610278565b005b34801561011b57600080fd5b5061012461030c565b6040519081526020015b60405180910390f35b34801561014357600080fd5b5061010d61038e565b34801561015857600080fd5b5061010d61064d565b34801561016d57600080fd5b5061010d610667565b34801561018257600080fd5b506033546001600160a01b03165b6040516001600160a01b03909116815260200161012e565b61010d61069b565b3480156101bc57600080fd5b50606954610190906001600160a01b031681565b61010d6101de366004611d39565b610a08565b3480156101ef57600080fd5b506102036101fe366004611d69565b610f29565b60405161012e9190611e05565b34801561021c57600080fd5b5061010d61022b366004611d69565b610fe4565b34801561023c57600080fd5b5061010d61024b366004611e18565b61107f565b61020361114a565b34801561026457600080fd5b5061010d610273366004611e18565b61154b565b6033546001600160a01b031633146102ab5760405162461bcd60e51b81526004016102a290611e6c565b60405180910390fd5b606654604051630c09091560e21b8152600481018390526001600160a01b0390911690633024245490602401600060405180830381600087803b1580156102f157600080fd5b505af1158015610305573d6000803e3d6000fd5b5050505050565b60665460408051631bca55e560e01b815290516000926001600160a01b031691631bca55e5916004808301926020929190829003018186803b15801561035157600080fd5b505afa158015610365573d6000803e3d6000fd5b505050506040513d601f19601f820116820180604052508101906103899190611ea1565b905090565b3233146103ad5760405162461bcd60e51b81526004016102a290611eba565b60665460405163e599913960e01b81523360048201526000916001600160a01b03169063e59991399060240160006040518083038186803b1580156103f157600080fd5b505afa158015610405573d6000803e3d6000fd5b505050506040513d6000823e601f3d908101601f1916820160405261042d9190810190611f5f565b905080608001516104505760405162461bcd60e51b81526004016102a29061205d565b60608101516104a15760405162461bcd60e51b815260206004820152601b60248201527f5061727469636970616e74206973206e6f7420616c6c6f7765642e000000000060448201526064016102a2565b6065546040805163b4daaf5560e01b815290516001600160a01b039092169163731133e9913391849163b4daaf55916004808301926020929190829003018186803b1580156104ef57600080fd5b505afa158015610503573d6000803e3d6000fd5b505050506040513d601f19601f820116820180604052508101906105279190611ea1565b84606001516040518463ffffffff1660e01b815260040161054a93929190612094565b600060405180830381600087803b15801561056457600080fd5b505af1158015610578573d6000803e3d6000fd5b5050600060608401525050606654604051633fcd0c3760e01b815282916001600160a01b031690633fcd0c37906105b590339085906004016120c4565b600060405180830381600087803b1580156105cf57600080fd5b505af11580156105e3573d6000803e3d6000fd5b505050506040513d6000823e601f3d908101601f1916820160405261060b9190810190611f5f565b507f1800ac493c2559610df079ad63033e4a99ae93f599a3df7ef426015113ff02788283606001516040516106419291906120f0565b60405180910390a15050565b610665604051806020016040528060008152506115d2565b565b6033546001600160a01b031633146106915760405162461bcd60e51b81526004016102a290611e6c565b6106656000611615565b3233146106ba5760405162461bcd60e51b81526004016102a290611eba565b60665460405163e599913960e01b81523360048201526000916001600160a01b03169063e59991399060240160006040518083038186803b1580156106fe57600080fd5b505afa158015610712573d6000803e3d6000fd5b505050506040513d6000823e601f3d908101601f1916820160405261073a9190810190611f5f565b9050806080015161075d5760405162461bcd60e51b81526004016102a29061205d565b6065546040805163b4daaf5560e01b815290516000926001600160a01b03169162fdd58e913391849163b4daaf5591600480820192602092909190829003018186803b1580156107ac57600080fd5b505afa1580156107c0573d6000803e3d6000fd5b505050506040513d601f19601f820116820180604052508101906107e49190611ea1565b6040516001600160e01b031960e085901b1681526001600160a01b039092166004830152602482015260440160206040518083038186803b15801561082857600080fd5b505afa15801561083c573d6000803e3d6000fd5b505050506040513d601f19601f820116820180604052508101906108609190611ea1565b90506108a16040518060400160405280601b81526020017f53656e6465722062616c616e636520697320257320746f6b656e73000000000081525082611667565b606660009054906101000a90046001600160a01b03166001600160a01b03166358ac00386040518163ffffffff1660e01b815260040160206040518083038186803b1580156108ef57600080fd5b505afa158015610903573d6000803e3d6000fd5b505050506040513d601f19601f820116820180604052508101906109279190611ea1565b8110156109875760405162461bcd60e51b815260206004820152602860248201527f4e6f7420656e6f756768206b6f6a6f732e204f6e6520706c616e7420636f7374604482015267732031206b6f6a6f60c01b60648201526084016102a2565b600080610993846116b0565b915091506109c96040518060400160405280600c81526020016b706c616e747365656520257360a01b8152508260800151611bd2565b7fd3c27ff71e4143519cb0a887c47b332099ba4f226bf05e73f471a71a987691cc82826040516109fa929190612144565b60405180910390a150505050565b323314610a275760405162461bcd60e51b81526004016102a290611eba565b60665460405163e599913960e01b81523360048201526000916001600160a01b03169063e59991399060240160006040518083038186803b158015610a6b57600080fd5b505afa158015610a7f573d6000803e3d6000fd5b505050506040513d6000823e601f3d908101601f19168201604052610aa79190810190611f5f565b606654604051630ff6460160e11b8152600481018590529192506000916001600160a01b0390911690631fec8c029060240160a06040518083038186803b158015610af157600080fd5b505afa158015610b05573d6000803e3d6000fd5b505050506040513d601f19601f82011682018060405250810190610b299190612166565b90508160800151610b4c5760405162461bcd60e51b81526004016102a29061205d565b8060800151610b955760405162461bcd60e51b8152602060048201526015602482015274283630b73a103237b2b9903737ba1032bc34b9ba1760591b60448201526064016102a2565b60003411610bda5760405162461bcd60e51b815260206004820152601260248201527127379026a0aa24a190383937bb34b232b21760711b60448201526064016102a2565b6067546040516342ee184d60e11b81526000916001600160a01b0316906385dc309a90610c0d90869034906004016120f0565b60006040518083038186803b158015610c2557600080fd5b505afa158015610c39573d6000803e3d6000fd5b505050506040513d6000823e601f3d908101601f19168201604052610c619190810190611f5f565b6067546040516358e5d9cf60e01b81529192506000916001600160a01b03909116906358e5d9cf90610c9990869034906004016121da565b60a06040518083038186803b158015610cb157600080fd5b505afa158015610cc5573d6000803e3d6000fd5b505050506040513d601f19601f82011682018060405250810190610ce99190612166565b606654604051633fcd0c3760e01b81529192506001600160a01b031690633fcd0c3790610d1c90339086906004016120c4565b600060405180830381600087803b158015610d3657600080fd5b505af1158015610d4a573d6000803e3d6000fd5b505050506040513d6000823e601f3d908101601f19168201604052610d729190810190611f5f565b50606654604051635717651560e01b81526001600160a01b0390911690635717651590610da590889085906004016121f5565b60a060405180830381600087803b158015610dbf57600080fd5b505af1158015610dd3573d6000803e3d6000fd5b505050506040513d601f19601f82011682018060405250810190610df79190612166565b506067546040516333d2c6b160e11b81526000916001600160a01b0316906367a58d6290610e2b9085908a906004016121da565b60006040518083038186803b158015610e4357600080fd5b505afa158015610e57573d6000803e3d6000fd5b505050506040513d6000823e601f3d908101601f19168201604052610e7f9190810190612239565b606554604051632bfbbc4f60e11b81529192506001600160a01b0316906357f7789e90610eb290899085906004016122f9565b600060405180830381600087803b158015610ecc57600080fd5b505af1158015610ee0573d6000803e3d6000fd5b505050507f3ed1cc965f2aba30207367f92d9c957caa3365fea3b717c6721108aaf9b43a4533848434604051610f199493929190612312565b60405180910390a1505050505050565b610f5d6040518060a00160405280600081526020016000815260200160608152602001600081526020016000151581525090565b60665460405163e599913960e01b81526001600160a01b0384811660048301529091169063e59991399060240160006040518083038186803b158015610fa257600080fd5b505afa158015610fb6573d6000803e3d6000fd5b505050506040513d6000823e601f3d908101601f19168201604052610fde9190810190611f5f565b92915050565b6033546001600160a01b0316331461100e5760405162461bcd60e51b81526004016102a290611e6c565b6001600160a01b0381166110735760405162461bcd60e51b815260206004820152602660248201527f4f776e61626c653a206e6577206f776e657220697320746865207a65726f206160448201526564647265737360d01b60648201526084016102a2565b61107c81611615565b50565b600061108b6001611c17565b905080156110a3576000805461ff0019166101001790555b606680546001600160a01b038088166001600160a01b031992831617909255606780548784169083161790556068805486841690831617905560658054928516928216831790556069805490911690911790556110fe611ca4565b8015610305576000805461ff0019169055604051600181527f7f26b83ff96e1f2b6a682f133852f6798a09c465da95921460cefb38474024989060200160405180910390a15050505050565b61117e6040518060a00160405280600081526020016000815260200160608152602001600081526020016000151581525090565b32331461119d5760405162461bcd60e51b81526004016102a290611eba565b60665460405163e599913960e01b81523360048201526000916001600160a01b03169063e59991399060240160006040518083038186803b1580156111e157600080fd5b505afa1580156111f5573d6000803e3d6000fd5b505050506040513d6000823e601f3d908101601f1916820160405261121d9190810190611f5f565b90508060800151156112a65760405162461bcd60e51b815260206004820152604660248201527f5061727469636970616e7420616c7265616479206578697374732e20596f752060448201527f63616e206f6e6c7920636c61696d20796f757220696e7469616c206b6f6a6f736064820152651037b731b29760d11b608482015260a4016102a2565b6066546040516311622ce560e01b81523360048201526000916001600160a01b0316906311622ce590602401600060405180830381600087803b1580156112ec57600080fd5b505af1158015611300573d6000803e3d6000fd5b505050506040513d6000823e601f3d908101601f191682016040526113289190810190611f5f565b6065546040805163b4daaf5560e01b815290519293506001600160a01b039091169163731133e9913391849163b4daaf55916004808301926020929190829003018186803b15801561137957600080fd5b505afa15801561138d573d6000803e3d6000fd5b505050506040513d601f19601f820116820180604052508101906113b19190611ea1565b606660009054906101000a90046001600160a01b03166001600160a01b0316631bca55e56040518163ffffffff1660e01b815260040160206040518083038186803b1580156113ff57600080fd5b505afa158015611413573d6000803e3d6000fd5b505050506040513d601f19601f820116820180604052508101906114379190611ea1565b6040518463ffffffff1660e01b815260040161145593929190612094565b600060405180830381600087803b15801561146f57600080fd5b505af1158015611483573d6000803e3d6000fd5b505050507f1800ac493c2559610df079ad63033e4a99ae93f599a3df7ef426015113ff027881606660009054906101000a90046001600160a01b03166001600160a01b0316631bca55e56040518163ffffffff1660e01b815260040160206040518083038186803b1580156114f757600080fd5b505afa15801561150b573d6000803e3d6000fd5b505050506040513d601f19601f8201168201806040525081019061152f9190611ea1565b60405161153d9291906120f0565b60405180910390a191505090565b6033546001600160a01b031633146115755760405162461bcd60e51b81526004016102a290611e6c565b606680546001600160a01b03199081166001600160a01b0396871617909155606780548216948616949094179093556068805484169285169290921790915560658054831691909316908117909255606980549091169091179055565b61107c816040516024016115e69190612356565b60408051601f198184030181529190526020810180516001600160e01b031663104c13eb60e21b179052611d18565b603380546001600160a01b038381166001600160a01b0319831681179093556040519116919082907f8be0079c531659141344cd1fd0a4f28419497f9722a3daafe3b4186f6b6457e090600090a35050565b6116ac828260405160240161167d929190612369565b60408051601f198184030181529190526020810180516001600160e01b03166309710a9d60e41b179052611d18565b5050565b6116e46040518060a00160405280600081526020016000815260200160608152602001600081526020016000151581525090565b6117186040518060a00160405280600081526020016000815260200160008152602001600081526020016000151581525090565b606554604080516308bd1d9560e31b815290516001600160a01b039092169163731133e991339184916345e8eca8916004808301926020929190829003018186803b15801561176657600080fd5b505afa15801561177a573d6000803e3d6000fd5b505050506040513d601f19601f8201168201806040525081019061179e9190611ea1565b60016040518463ffffffff1660e01b81526004016117be93929190612094565b600060405180830381600087803b1580156117d857600080fd5b505af11580156117ec573d6000803e3d6000fd5b50506065546040805163b4daaf5560e01b815290516001600160a01b03909216935063f5298aca92503391849163b4daaf55916004808301926020929190829003018186803b15801561183e57600080fd5b505afa158015611852573d6000803e3d6000fd5b505050506040513d601f19601f820116820180604052508101906118769190611ea1565b6040516001600160e01b031960e085901b1681526001600160a01b039092166004830152602482015260016044820152606401600060405180830381600087803b1580156118c357600080fd5b505af11580156118d7573d6000803e3d6000fd5b5050606754606554604080516308bd1d9560e31b81529051600095506001600160a01b03938416945063a3dac62993899316916345e8eca8916004808301926020929190829003018186803b15801561192f57600080fd5b505afa158015611943573d6000803e3d6000fd5b505050506040513d601f19601f820116820180604052508101906119679190611ea1565b6040518363ffffffff1660e01b81526004016119849291906120f0565b60006040518083038186803b15801561199c57600080fd5b505afa1580156119b0573d6000803e3d6000fd5b505050506040513d6000823e601f3d908101601f191682016040526119d89190810190611f5f565b606654606554604080516308bd1d9560e31b815290519394506000936001600160a01b0393841693637b16869c9316916345e8eca8916004808301926020929190829003018186803b158015611a2d57600080fd5b505afa158015611a41573d6000803e3d6000fd5b505050506040513d601f19601f82011682018060405250810190611a659190611ea1565b6040518263ffffffff1660e01b8152600401611a8391815260200190565b60a060405180830381600087803b158015611a9d57600080fd5b505af1158015611ab1573d6000803e3d6000fd5b505050506040513d601f19601f82011682018060405250810190611ad59190612166565b606654604051633fcd0c3760e01b81529192506001600160a01b031690633fcd0c3790611b0890339086906004016120c4565b600060405180830381600087803b158015611b2257600080fd5b505af1158015611b36573d6000803e3d6000fd5b505050506040513d6000823e601f3d908101601f19168201604052611b5e9190810190611f5f565b50606560009054906101000a90046001600160a01b03166001600160a01b031663541f87fc6040518163ffffffff1660e01b8152600401600060405180830381600087803b158015611baf57600080fd5b505af1158015611bc3573d6000803e3d6000fd5b50939792965091945050505050565b6116ac8282604051602401611be892919061237c565b60408051601f198184030181529190526020810180516001600160e01b031663c3b5563560e01b179052611d18565b60008054610100900460ff1615611c5e578160ff166001148015611c3a5750303b155b611c565760405162461bcd60e51b81526004016102a2906123a0565b506000919050565b60005460ff808416911610611c855760405162461bcd60e51b81526004016102a2906123a0565b506000805460ff191660ff92909216919091179055600190565b919050565b600054610100900460ff16611d0f5760405162461bcd60e51b815260206004820152602b60248201527f496e697469616c697a61626c653a20636f6e7472616374206973206e6f74206960448201526a6e697469616c697a696e6760a81b60648201526084016102a2565b61066533611615565b80516a636f6e736f6c652e6c6f67602083016000808483855afa5050505050565b600060208284031215611d4b57600080fd5b5035919050565b80356001600160a01b0381168114611c9f57600080fd5b600060208284031215611d7b57600080fd5b611d8482611d52565b9392505050565b600060a083018251845260208084015181860152604084015160a0604087015282815180855260c0880191508383019450600092505b80831015611de15784518252938301936001929092019190830190611dc1565b50606086015160608801526080860151151560808801528094505050505092915050565b602081526000611d846020830184611d8b565b60008060008060808587031215611e2e57600080fd5b611e3785611d52565b9350611e4560208601611d52565b9250611e5360408601611d52565b9150611e6160608601611d52565b905092959194509250565b6020808252818101527f4f776e61626c653a2063616c6c6572206973206e6f7420746865206f776e6572604082015260600190565b600060208284031215611eb357600080fd5b5051919050565b6020808252600b908201526a2737ba1030b71022a7a09760a91b604082015260600190565b634e487b7160e01b600052604160045260246000fd5b60405160a0810167ffffffffffffffff81118282101715611f1857611f18611edf565b60405290565b604051601f8201601f1916810167ffffffffffffffff81118282101715611f4757611f47611edf565b604052919050565b80518015158114611c9f57600080fd5b60006020808385031215611f7257600080fd5b825167ffffffffffffffff80821115611f8a57600080fd5b9084019060a08287031215611f9e57600080fd5b611fa6611ef5565b825181528383015184820152604083015182811115611fc457600080fd5b8301601f81018813611fd557600080fd5b805183811115611fe757611fe7611edf565b8060051b9350611ff8868501611f1e565b818152938201860193868101908a86111561201257600080fd5b928701925b8584101561203057835182529287019290870190612017565b60408501525050506060838101519082015261204e60808401611f4f565b60808201529695505050505050565b6020808252601b908201527f5061727469636970616e7420646f6573206e6f742065786973742e0000000000604082015260600190565b6001600160a01b039390931683526020830191909152604082015260806060820181905260009082015260a00190565b6001600160a01b03831681526040602082018190526000906120e890830184611d8b565b949350505050565b6040815260006121036040830185611d8b565b90508260208301529392505050565b805182526020810151602083015260408101516040830152606081015160608301526080810151151560808301525050565b60c08152600061215760c0830185611d8b565b9050611d846020830184612112565b600060a0828403121561217857600080fd5b60405160a0810181811067ffffffffffffffff8211171561219b5761219b611edf565b8060405250825181526020830151602082015260408301516040820152606083015160608201526121ce60808401611f4f565b60808201529392505050565b60c081016121e88285612112565b8260a08301529392505050565b82815260c08101611d846020830184612112565b60005b8381101561222457818101518382015260200161220c565b83811115612233576000848401525b50505050565b60006020828403121561224b57600080fd5b815167ffffffffffffffff8082111561226357600080fd5b818401915084601f83011261227757600080fd5b81518181111561228957612289611edf565b61229c601f8201601f1916602001611f1e565b91508082528560208285010111156122b357600080fd5b6122c4816020840160208601612209565b50949350505050565b600081518084526122e5816020860160208601612209565b601f01601f19169290920160200192915050565b8281526040602082015260006120e860408301846122cd565b6001600160a01b03851681526101006020820181905260009061233783820187611d8b565b9150506123476040830185612112565b8260e083015295945050505050565b602081526000611d8460208301846122cd565b60408152600061210360408301856122cd565b60408152600061238f60408301856122cd565b905082151560208301529392505050565b6020808252602e908201527f496e697469616c697a61626c653a20636f6e747261637420697320616c72656160408201526d191e481a5b9a5d1a585b1a5e995960921b60608201526080019056fea26469706673582212206e75754f22216b6ca9255b00096b564417db4a251d97305baad15fa2c467719f64736f6c63430008090033",
  "linkReferences": {},
  "deployedLinkReferences": {}
}