{
  "_format": "hh-sol-artifact-1",
  "contractName": "KojoV1",
  "sourceName": "contracts/KojoV1.sol",
  "abi": [
    {
      "anonymous": false,
      "inputs": [
        {
          "indexed": true,
          "internalType": "address",
          "name": "account",
          "type": "address"
        },
        {
          "indexed": true,
          "internalType": "address",
          "name": "operator",
          "type": "address"
        },
        {
          "indexed": false,
          "internalType": "bool",
          "name": "approved",
          "type": "bool"
        }
      ],
      "name": "ApprovalForAll",
      "type": "event"
    },
    {
      "anonymous": false,
      "inputs": [
        {
          "indexed": false,
          "internalType": "uint8",
          "name": "version",
          "type": "uint8"
        }
      ],
      "name": "Initialized",
      "type": "event"
    },
    {
      "anonymous": false,
      "inputs": [
        {
          "indexed": true,
          "internalType": "address",
          "name": "previousOwner",
          "type": "address"
        },
        {
          "indexed": true,
          "internalType": "address",
          "name": "newOwner",
          "type": "address"
        }
      ],
      "name": "OwnershipTransferred",
      "type": "event"
    },
    {
      "anonymous": false,
      "inputs": [
        {
          "components": [
            {
              "internalType": "uint256",
              "name": "level",
              "type": "uint256"
            },
            {
              "internalType": "uint256",
              "name": "experiencePoints",
              "type": "uint256"
            },
            {
              "internalType": "uint256[]",
              "name": "plantIds",
              "type": "uint256[]"
            },
            {
              "internalType": "uint256",
              "name": "allowedTokenBalance",
              "type": "uint256"
            },
            {
              "internalType": "bool",
              "name": "isPresent",
              "type": "bool"
            }
          ],
          "indexed": false,
          "internalType": "struct Structs.Participant",
          "name": "participant",
          "type": "tuple"
        },
        {
          "components": [
            {
              "internalType": "uint256",
              "name": "level",
              "type": "uint256"
            },
            {
              "internalType": "uint256",
              "name": "experiencePoints",
              "type": "uint256"
            },
            {
              "internalType": "uint256",
              "name": "lifes",
              "type": "uint256"
            },
            {
              "internalType": "uint256",
              "name": "levelCost",
              "type": "uint256"
            },
            {
              "internalType": "bool",
              "name": "isPresent",
              "type": "bool"
            }
          ],
          "indexed": false,
          "internalType": "struct Structs.Plant",
          "name": "plant",
          "type": "tuple"
        }
      ],
      "name": "PlantMinted",
      "type": "event"
    },
    {
      "anonymous": false,
      "inputs": [
        {
          "indexed": false,
          "internalType": "address",
          "name": "account",
          "type": "address"
        },
        {
          "components": [
            {
              "internalType": "uint256",
              "name": "level",
              "type": "uint256"
            },
            {
              "internalType": "uint256",
              "name": "experiencePoints",
              "type": "uint256"
            },
            {
              "internalType": "uint256[]",
              "name": "plantIds",
              "type": "uint256[]"
            },
            {
              "internalType": "uint256",
              "name": "allowedTokenBalance",
              "type": "uint256"
            },
            {
              "internalType": "bool",
              "name": "isPresent",
              "type": "bool"
            }
          ],
          "indexed": false,
          "internalType": "struct Structs.Participant",
          "name": "participant",
          "type": "tuple"
        },
        {
          "components": [
            {
              "internalType": "uint256",
              "name": "level",
              "type": "uint256"
            },
            {
              "internalType": "uint256",
              "name": "experiencePoints",
              "type": "uint256"
            },
            {
              "internalType": "uint256",
              "name": "lifes",
              "type": "uint256"
            },
            {
              "internalType": "uint256",
              "name": "levelCost",
              "type": "uint256"
            },
            {
              "internalType": "bool",
              "name": "isPresent",
              "type": "bool"
            }
          ],
          "indexed": false,
          "internalType": "struct Structs.Plant",
          "name": "plant",
          "type": "tuple"
        },
        {
          "indexed": false,
          "internalType": "uint256",
          "name": "amount",
          "type": "uint256"
        }
      ],
      "name": "PlantWatered",
      "type": "event"
    },
    {
      "anonymous": false,
      "inputs": [
        {
          "components": [
            {
              "internalType": "uint256",
              "name": "level",
              "type": "uint256"
            },
            {
              "internalType": "uint256",
              "name": "experiencePoints",
              "type": "uint256"
            },
            {
              "internalType": "uint256[]",
              "name": "plantIds",
              "type": "uint256[]"
            },
            {
              "internalType": "uint256",
              "name": "allowedTokenBalance",
              "type": "uint256"
            },
            {
              "internalType": "bool",
              "name": "isPresent",
              "type": "bool"
            }
          ],
          "indexed": false,
          "internalType": "struct Structs.Participant",
          "name": "participant",
          "type": "tuple"
        },
        {
          "indexed": false,
          "internalType": "uint256",
          "name": "amount",
          "type": "uint256"
        }
      ],
      "name": "TokensClaimed",
      "type": "event"
    },
    {
      "anonymous": false,
      "inputs": [
        {
          "indexed": true,
          "internalType": "address",
          "name": "operator",
          "type": "address"
        },
        {
          "indexed": true,
          "internalType": "address",
          "name": "from",
          "type": "address"
        },
        {
          "indexed": true,
          "internalType": "address",
          "name": "to",
          "type": "address"
        },
        {
          "indexed": false,
          "internalType": "uint256[]",
          "name": "ids",
          "type": "uint256[]"
        },
        {
          "indexed": false,
          "internalType": "uint256[]",
          "name": "values",
          "type": "uint256[]"
        }
      ],
      "name": "TransferBatch",
      "type": "event"
    },
    {
      "anonymous": false,
      "inputs": [
        {
          "indexed": true,
          "internalType": "address",
          "name": "operator",
          "type": "address"
        },
        {
          "indexed": true,
          "internalType": "address",
          "name": "from",
          "type": "address"
        },
        {
          "indexed": true,
          "internalType": "address",
          "name": "to",
          "type": "address"
        },
        {
          "indexed": false,
          "internalType": "uint256",
          "name": "id",
          "type": "uint256"
        },
        {
          "indexed": false,
          "internalType": "uint256",
          "name": "value",
          "type": "uint256"
        }
      ],
      "name": "TransferSingle",
      "type": "event"
    },
    {
      "anonymous": false,
      "inputs": [
        {
          "indexed": false,
          "internalType": "string",
          "name": "value",
          "type": "string"
        },
        {
          "indexed": true,
          "internalType": "uint256",
          "name": "id",
          "type": "uint256"
        }
      ],
      "name": "URI",
      "type": "event"
    },
    {
      "inputs": [
        {
          "internalType": "address",
          "name": "account",
          "type": "address"
        },
        {
          "internalType": "uint256",
          "name": "id",
          "type": "uint256"
        }
      ],
      "name": "balanceOf",
      "outputs": [
        {
          "internalType": "uint256",
          "name": "",
          "type": "uint256"
        }
      ],
      "stateMutability": "view",
      "type": "function"
    },
    {
      "inputs": [
        {
          "internalType": "address[]",
          "name": "accounts",
          "type": "address[]"
        },
        {
          "internalType": "uint256[]",
          "name": "ids",
          "type": "uint256[]"
        }
      ],
      "name": "balanceOfBatch",
      "outputs": [
        {
          "internalType": "uint256[]",
          "name": "",
          "type": "uint256[]"
        }
      ],
      "stateMutability": "view",
      "type": "function"
    },
    {
      "inputs": [
        {
          "internalType": "address",
          "name": "account",
          "type": "address"
        },
        {
          "internalType": "uint256",
          "name": "id",
          "type": "uint256"
        },
        {
          "internalType": "uint256",
          "name": "value",
          "type": "uint256"
        }
      ],
      "name": "burn",
      "outputs": [],
      "stateMutability": "nonpayable",
      "type": "function"
    },
    {
      "inputs": [
        {
          "internalType": "address",
          "name": "account",
          "type": "address"
        },
        {
          "internalType": "uint256[]",
          "name": "ids",
          "type": "uint256[]"
        },
        {
          "internalType": "uint256[]",
          "name": "values",
          "type": "uint256[]"
        }
      ],
      "name": "burnBatch",
      "outputs": [],
      "stateMutability": "nonpayable",
      "type": "function"
    },
    {
      "inputs": [],
      "name": "checkUpkeep",
      "outputs": [],
      "stateMutability": "view",
      "type": "function"
    },
    {
      "inputs": [
        {
          "internalType": "uint256",
          "name": "id",
          "type": "uint256"
        }
      ],
      "name": "exists",
      "outputs": [
        {
          "internalType": "bool",
          "name": "",
          "type": "bool"
        }
      ],
      "stateMutability": "view",
      "type": "function"
    },
    {
      "inputs": [],
      "name": "fungibleTokenId",
      "outputs": [
        {
          "internalType": "uint256",
          "name": "",
          "type": "uint256"
        }
      ],
      "stateMutability": "view",
      "type": "function"
    },
    {
      "inputs": [],
      "name": "handleBuyPlant",
      "outputs": [],
      "stateMutability": "payable",
      "type": "function"
    },
    {
      "inputs": [],
      "name": "handleClaimMonthlyReward",
      "outputs": [],
      "stateMutability": "nonpayable",
      "type": "function"
    },
    {
      "inputs": [],
      "name": "handleClaimStartTokens",
      "outputs": [
        {
          "components": [
            {
              "internalType": "uint256",
              "name": "level",
              "type": "uint256"
            },
            {
              "internalType": "uint256",
              "name": "experiencePoints",
              "type": "uint256"
            },
            {
              "internalType": "uint256[]",
              "name": "plantIds",
              "type": "uint256[]"
            },
            {
              "internalType": "uint256",
              "name": "allowedTokenBalance",
              "type": "uint256"
            },
            {
              "internalType": "bool",
              "name": "isPresent",
              "type": "bool"
            }
          ],
          "internalType": "struct Structs.Participant",
          "name": "value",
          "type": "tuple"
        }
      ],
      "stateMutability": "payable",
      "type": "function"
    },
    {
      "inputs": [],
      "name": "handleReadInititalAllowance",
      "outputs": [
        {
          "internalType": "uint256",
          "name": "",
          "type": "uint256"
        }
      ],
      "stateMutability": "view",
      "type": "function"
    },
    {
      "inputs": [
        {
          "internalType": "address",
          "name": "account",
          "type": "address"
        }
      ],
      "name": "handleReadParticipant",
      "outputs": [
        {
          "components": [
            {
              "internalType": "uint256",
              "name": "level",
              "type": "uint256"
            },
            {
              "internalType": "uint256",
              "name": "experiencePoints",
              "type": "uint256"
            },
            {
              "internalType": "uint256[]",
              "name": "plantIds",
              "type": "uint256[]"
            },
            {
              "internalType": "uint256",
              "name": "allowedTokenBalance",
              "type": "uint256"
            },
            {
              "internalType": "bool",
              "name": "isPresent",
              "type": "bool"
            }
          ],
          "internalType": "struct Structs.Participant",
          "name": "_participant",
          "type": "tuple"
        }
      ],
      "stateMutability": "view",
      "type": "function"
    },
    {
      "inputs": [
        {
          "internalType": "address",
          "name": "_store",
          "type": "address"
        },
        {
          "internalType": "address",
          "name": "_utils",
          "type": "address"
        },
        {
          "internalType": "address",
          "name": "_api",
          "type": "address"
        }
      ],
      "name": "handleUpdateContracts",
      "outputs": [],
      "stateMutability": "nonpayable",
      "type": "function"
    },
    {
      "inputs": [
        {
          "internalType": "uint256",
          "name": "tokenSensitivity",
          "type": "uint256"
        }
      ],
      "name": "handleUpdateTokenSensitivity",
      "outputs": [],
      "stateMutability": "nonpayable",
      "type": "function"
    },
    {
      "inputs": [
        {
          "internalType": "uint256",
          "name": "tokenId",
          "type": "uint256"
        }
      ],
      "name": "handleWaterPlant",
      "outputs": [],
      "stateMutability": "payable",
      "type": "function"
    },
    {
      "inputs": [
        {
          "internalType": "address",
          "name": "_store",
          "type": "address"
        },
        {
          "internalType": "address",
          "name": "_utils",
          "type": "address"
        },
        {
          "internalType": "address",
          "name": "_api",
          "type": "address"
        }
      ],
      "name": "initialize",
      "outputs": [],
      "stateMutability": "nonpayable",
      "type": "function"
    },
    {
      "inputs": [
        {
          "internalType": "address",
          "name": "account",
          "type": "address"
        },
        {
          "internalType": "address",
          "name": "operator",
          "type": "address"
        }
      ],
      "name": "isApprovedForAll",
      "outputs": [
        {
          "internalType": "bool",
          "name": "",
          "type": "bool"
        }
      ],
      "stateMutability": "view",
      "type": "function"
    },
    {
      "inputs": [
        {
          "internalType": "address",
          "name": "to",
          "type": "address"
        },
        {
          "internalType": "uint256[]",
          "name": "ids",
          "type": "uint256[]"
        },
        {
          "internalType": "uint256[]",
          "name": "amounts",
          "type": "uint256[]"
        },
        {
          "internalType": "bytes",
          "name": "data",
          "type": "bytes"
        }
      ],
      "name": "mintBatch",
      "outputs": [],
      "stateMutability": "nonpayable",
      "type": "function"
    },
    {
      "inputs": [],
      "name": "nonFungibleTokenCount",
      "outputs": [
        {
          "internalType": "uint256",
          "name": "",
          "type": "uint256"
        }
      ],
      "stateMutability": "view",
      "type": "function"
    },
    {
      "inputs": [],
      "name": "owner",
      "outputs": [
        {
          "internalType": "address",
          "name": "",
          "type": "address"
        }
      ],
      "stateMutability": "view",
      "type": "function"
    },
    {
      "inputs": [],
      "name": "performUpkeep",
      "outputs": [],
      "stateMutability": "view",
      "type": "function"
    },
    {
      "inputs": [],
      "name": "renounceOwnership",
      "outputs": [],
      "stateMutability": "nonpayable",
      "type": "function"
    },
    {
      "inputs": [
        {
          "internalType": "address",
          "name": "from",
          "type": "address"
        },
        {
          "internalType": "address",
          "name": "to",
          "type": "address"
        },
        {
          "internalType": "uint256[]",
          "name": "ids",
          "type": "uint256[]"
        },
        {
          "internalType": "uint256[]",
          "name": "amounts",
          "type": "uint256[]"
        },
        {
          "internalType": "bytes",
          "name": "data",
          "type": "bytes"
        }
      ],
      "name": "safeBatchTransferFrom",
      "outputs": [],
      "stateMutability": "nonpayable",
      "type": "function"
    },
    {
      "inputs": [
        {
          "internalType": "address",
          "name": "from",
          "type": "address"
        },
        {
          "internalType": "address",
          "name": "to",
          "type": "address"
        },
        {
          "internalType": "uint256",
          "name": "id",
          "type": "uint256"
        },
        {
          "internalType": "uint256",
          "name": "amount",
          "type": "uint256"
        },
        {
          "internalType": "bytes",
          "name": "data",
          "type": "bytes"
        }
      ],
      "name": "safeTransferFrom",
      "outputs": [],
      "stateMutability": "nonpayable",
      "type": "function"
    },
    {
      "inputs": [
        {
          "internalType": "address",
          "name": "operator",
          "type": "address"
        },
        {
          "internalType": "bool",
          "name": "approved",
          "type": "bool"
        }
      ],
      "name": "setApprovalForAll",
      "outputs": [],
      "stateMutability": "nonpayable",
      "type": "function"
    },
    {
      "inputs": [
        {
          "internalType": "uint256",
          "name": "tokenId",
          "type": "uint256"
        },
        {
          "internalType": "string",
          "name": "_uri",
          "type": "string"
        }
      ],
      "name": "setTokenUri",
      "outputs": [],
      "stateMutability": "nonpayable",
      "type": "function"
    },
    {
      "inputs": [
        {
          "internalType": "string",
          "name": "newuri",
          "type": "string"
        }
      ],
      "name": "setURI",
      "outputs": [],
      "stateMutability": "nonpayable",
      "type": "function"
    },
    {
      "inputs": [
        {
          "internalType": "bytes4",
          "name": "interfaceId",
          "type": "bytes4"
        }
      ],
      "name": "supportsInterface",
      "outputs": [
        {
          "internalType": "bool",
          "name": "",
          "type": "bool"
        }
      ],
      "stateMutability": "view",
      "type": "function"
    },
    {
      "inputs": [
        {
          "internalType": "uint256",
          "name": "id",
          "type": "uint256"
        }
      ],
      "name": "totalSupply",
      "outputs": [
        {
          "internalType": "uint256",
          "name": "",
          "type": "uint256"
        }
      ],
      "stateMutability": "view",
      "type": "function"
    },
    {
      "inputs": [
        {
          "internalType": "address",
          "name": "newOwner",
          "type": "address"
        }
      ],
      "name": "transferOwnership",
      "outputs": [],
      "stateMutability": "nonpayable",
      "type": "function"
    },
    {
      "inputs": [
        {
          "internalType": "uint256",
          "name": "tokenId",
          "type": "uint256"
        }
      ],
      "name": "uri",
      "outputs": [
        {
          "internalType": "string",
          "name": "",
          "type": "string"
        }
      ],
      "stateMutability": "view",
      "type": "function"
    }
  ],
  "bytecode": "0x608060405234801561001057600080fd5b50613e5e806100206000396000f3fe6080604052600436106101d75760003560e01c80636e4d243a11610102578063c0c53b8b11610095578063f242432a11610064578063f242432a14610552578063f2fde38b14610572578063f5298aca14610592578063fabe6b3c146105b257600080fd5b8063c0c53b8b146104a9578063de349ae7146104c9578063e5999139146104dc578063e985e9c51461050957600080fd5b8063a13abdad116100d1578063a13abdad146103eb578063a22cb46514610445578063b4daaf5514610465578063bd85b0391461047c57600080fd5b80636e4d243a146103eb578063715018a6146104005780638da5cb5b146104155780639c3423b11461043d57600080fd5b8063302424541161017a57806357f7789e1161014957806357f7789e14610381578063584c7b37146103a15780636b20c454146103b65780636c7ff22e146103d657600080fd5b806330242454146102ee57806345e8eca81461030e5780634e1273f4146103255780634f558e791461035257600080fd5b80630e89341c116101b65780630e89341c146102615780631f7fdffa1461028e5780632540fe91146102ae5780632eb2c2d6146102ce57600080fd5b8062fdd58e146101dc57806301ffc9a71461020f57806302fe53051461023f575b600080fd5b3480156101e857600080fd5b506101fc6101f7366004612dd2565b6105ba565b6040519081526020015b60405180910390f35b34801561021b57600080fd5b5061022f61022a366004612e12565b610653565b6040519015158152602001610206565b34801561024b57600080fd5b5061025f61025a366004612f20565b6106a5565b005b34801561026d57600080fd5b5061028161027c366004612f5c565b6106db565b6040516102069190612fcd565b34801561029a57600080fd5b5061025f6102a9366004613074565b61077e565b3480156102ba57600080fd5b5061025f6102c936600461310c565b6107ba565b3480156102da57600080fd5b5061025f6102e936600461314f565b610826565b3480156102fa57600080fd5b5061025f610309366004612f5c565b6108bd565b34801561031a57600080fd5b506101fc61012f5481565b34801561033157600080fd5b506103456103403660046131f8565b610942565b60405161020691906132fd565b34801561035e57600080fd5b5061022f61036d366004612f5c565b600090815260fb6020526040902054151590565b34801561038d57600080fd5b5061025f61039c366004613310565b610a6b565b3480156103ad57600080fd5b506101fc610aba565b3480156103c257600080fd5b5061025f6103d136600461334c565b610b3d565b3480156103e257600080fd5b5061025f610b80565b3480156103f757600080fd5b5061025f610d88565b34801561040c57600080fd5b5061025f610da2565b34801561042157600080fd5b506097546040516001600160a01b039091168152602001610206565b61025f610dd6565b34801561045157600080fd5b5061025f6104603660046133cd565b611050565b34801561047157600080fd5b506101fc61012e5481565b34801561048857600080fd5b506101fc610497366004612f5c565b600090815260fb602052604090205490565b3480156104b557600080fd5b5061025f6104c436600461310c565b61105f565b61025f6104d7366004612f5c565b611141565b3480156104e857600080fd5b506104fc6104f7366004613404565b611610565b604051610206919061346a565b34801561051557600080fd5b5061022f61052436600461347d565b6001600160a01b03918216600090815260666020908152604080832093909416825291909152205460ff1690565b34801561055e57600080fd5b5061025f61056d3660046134b0565b6116c6565b34801561057e57600080fd5b5061025f61058d366004613404565b61170b565b34801561059e57600080fd5b5061025f6105ad366004613514565b6117a3565b6104fc6117e6565b60006001600160a01b03831661062b5760405162461bcd60e51b815260206004820152602b60248201527f455243313135353a2062616c616e636520717565727920666f7220746865207a60448201526a65726f206164647265737360a81b60648201526084015b60405180910390fd5b5060009081526065602090815260408083206001600160a01b03949094168352929052205490565b60006001600160e01b03198216636cdb3d1360e11b148061068457506001600160e01b031982166303a24d0760e21b145b8061069f57506301ffc9a760e01b6001600160e01b03198316145b92915050565b6097546001600160a01b031633146106cf5760405162461bcd60e51b815260040161062290613547565b6106d881611b32565b50565b600081815261012d602052604090208054606091906106f99061357c565b80601f01602080910402602001604051908101604052809291908181526020018280546107259061357c565b80156107725780601f1061074757610100808354040283529160200191610772565b820191906000526020600020905b81548152906001019060200180831161075557829003601f168201915b50505050509050919050565b6097546001600160a01b031633146107a85760405162461bcd60e51b815260040161062290613547565b6107b484848484611b45565b50505050565b6097546001600160a01b031633146107e45760405162461bcd60e51b815260040161062290613547565b61013080546001600160a01b039485166001600160a01b0319918216179091556101318054938516938216939093179092556101328054919093169116179055565b6001600160a01b03851633148061084257506108428533610524565b6108a95760405162461bcd60e51b815260206004820152603260248201527f455243313135353a207472616e736665722063616c6c6572206973206e6f74206044820152711bdddb995c881b9bdc88185c1c1c9bdd995960721b6064820152608401610622565b6108b68585858585611ca0565b5050505050565b6097546001600160a01b031633146108e75760405162461bcd60e51b815260040161062290613547565b61013054604051630c09091560e21b8152600481018390526001600160a01b0390911690633024245490602401600060405180830381600087803b15801561092e57600080fd5b505af11580156108b6573d6000803e3d6000fd5b606081518351146109a75760405162461bcd60e51b815260206004820152602960248201527f455243313135353a206163636f756e747320616e6420696473206c656e677468604482015268040dad2e6dac2e8c6d60bb1b6064820152608401610622565b600083516001600160401b038111156109c2576109c2612e36565b6040519080825280602002602001820160405280156109eb578160200160208202803683370190505b50905060005b8451811015610a6357610a36858281518110610a0f57610a0f6135b7565b6020026020010151858381518110610a2957610a296135b7565b60200260200101516105ba565b828281518110610a4857610a486135b7565b6020908102919091010152610a5c816135e3565b90506109f1565b509392505050565b6097546001600160a01b03163314610a955760405162461bcd60e51b815260040161062290613547565b600082815261012d602090815260409091208251610ab592840190612d22565b505050565b6101305460408051631bca55e560e01b815290516000926001600160a01b031691631bca55e5916004808301926020929190829003018186803b158015610b0057600080fd5b505afa158015610b14573d6000803e3d6000fd5b505050506040513d601f19601f82011682018060405250810190610b3891906135fe565b905090565b6001600160a01b038316331480610b595750610b598333610524565b610b755760405162461bcd60e51b815260040161062290613617565b610ab5838383611e4d565b323314610b9f5760405162461bcd60e51b815260040161062290613660565b6101305460405163e599913960e01b81523360048201526000916001600160a01b03169063e59991399060240160006040518083038186803b158015610be457600080fd5b505afa158015610bf8573d6000803e3d6000fd5b505050506040513d6000823e601f3d908101601f19168201604052610c209190810190613690565b90508060800151610c435760405162461bcd60e51b81526004016106229061378d565b6060810151610c945760405162461bcd60e51b815260206004820152601b60248201527f5061727469636970616e74206973206e6f7420616c6c6f7765642e00000000006044820152606401610622565b610cb63361012e54836060015160405180602001604052806000815250611fec565b6000606082015261013054604051633fcd0c3760e01b815282916001600160a01b031690633fcd0c3790610cf090339085906004016137c4565b600060405180830381600087803b158015610d0a57600080fd5b505af1158015610d1e573d6000803e3d6000fd5b505050506040513d6000823e601f3d908101601f19168201604052610d469190810190613690565b507f1800ac493c2559610df079ad63033e4a99ae93f599a3df7ef426015113ff0278828360600151604051610d7c9291906137e8565b60405180910390a15050565b610da0604051806020016040528060008152506120d7565b565b6097546001600160a01b03163314610dcc5760405162461bcd60e51b815260040161062290613547565b610da0600061211a565b323314610df55760405162461bcd60e51b815260040161062290613660565b6101305460405163e599913960e01b81523360048201526000916001600160a01b03169063e59991399060240160006040518083038186803b158015610e3a57600080fd5b505afa158015610e4e573d6000803e3d6000fd5b505050506040513d6000823e601f3d908101601f19168201604052610e769190810190613690565b90508060800151610e995760405162461bcd60e51b81526004016106229061378d565b6000610ea83361012e546105ba565b9050610ee96040518060400160405280601b81526020017f53656e6465722062616c616e636520697320257320746f6b656e7300000000008152508261216c565b61013060009054906101000a90046001600160a01b03166001600160a01b03166358ac00386040518163ffffffff1660e01b815260040160206040518083038186803b158015610f3857600080fd5b505afa158015610f4c573d6000803e3d6000fd5b505050506040513d601f19601f82011682018060405250810190610f7091906135fe565b811015610fd05760405162461bcd60e51b815260206004820152602860248201527f4e6f7420656e6f756768206b6f6a6f732e204f6e6520706c616e7420636f7374604482015267732031206b6f6a6f60c01b6064820152608401610622565b600080610fdb6121b1565b915091506110116040518060400160405280600c81526020016b706c616e747365656520257360a01b81525082608001516123f7565b7fd3c27ff71e4143519cb0a887c47b332099ba4f226bf05e73f471a71a987691cc828260405161104292919061383c565b60405180910390a150505050565b61105b33838361243c565b5050565b600061106b600161251d565b90508015611083576000805461ff0019166101001790555b61109b604051806020016040528060008152506125aa565b6110a36125da565b6110ab612609565b6110b3612609565b600061012e55600161012f5561013080546001600160a01b038087166001600160a01b031992831617909255610131805486841690831617905561013280549285169290911691909117905580156107b4576000805461ff0019169055604051600181527f7f26b83ff96e1f2b6a682f133852f6798a09c465da95921460cefb384740249890602001611042565b3233146111605760405162461bcd60e51b815260040161062290613660565b6101305460405163e599913960e01b81523360048201526000916001600160a01b03169063e59991399060240160006040518083038186803b1580156111a557600080fd5b505afa1580156111b9573d6000803e3d6000fd5b505050506040513d6000823e601f3d908101601f191682016040526111e19190810190613690565b61013054604051630ff6460160e11b8152600481018590529192506000916001600160a01b0390911690631fec8c029060240160a06040518083038186803b15801561122c57600080fd5b505afa158015611240573d6000803e3d6000fd5b505050506040513d601f19601f82011682018060405250810190611264919061385e565b905081608001516112875760405162461bcd60e51b81526004016106229061378d565b80608001516112d05760405162461bcd60e51b8152602060048201526015602482015274283630b73a103237b2b9903737ba1032bc34b9ba1760591b6044820152606401610622565b600034116113155760405162461bcd60e51b815260206004820152601260248201527127379026a0aa24a190383937bb34b232b21760711b6044820152606401610622565b610131546040516342ee184d60e11b81526000916001600160a01b0316906385dc309a9061134990869034906004016137e8565b60006040518083038186803b15801561136157600080fd5b505afa158015611375573d6000803e3d6000fd5b505050506040513d6000823e601f3d908101601f1916820160405261139d9190810190613690565b610131546040516358e5d9cf60e01b81529192506000916001600160a01b03909116906358e5d9cf906113d690869034906004016138d3565b60a06040518083038186803b1580156113ee57600080fd5b505afa158015611402573d6000803e3d6000fd5b505050506040513d601f19601f82011682018060405250810190611426919061385e565b61013054604051633fcd0c3760e01b81529192506001600160a01b031690633fcd0c379061145a90339086906004016137c4565b600060405180830381600087803b15801561147457600080fd5b505af1158015611488573d6000803e3d6000fd5b505050506040513d6000823e601f3d908101601f191682016040526114b09190810190613690565b5061013054604051635717651560e01b81526001600160a01b03909116906357176515906114e490889085906004016138ee565b60a060405180830381600087803b1580156114fe57600080fd5b505af1158015611512573d6000803e3d6000fd5b505050506040513d601f19601f82011682018060405250810190611536919061385e565b50610131546040516333d2c6b160e11b81526000916001600160a01b0316906367a58d629061156b9085908a906004016138d3565b60006040518083038186803b15801561158357600080fd5b505afa158015611597573d6000803e3d6000fd5b505050506040513d6000823e601f3d908101601f191682016040526115bf9190810190613902565b90506115cb8682610a6b565b7f3ed1cc965f2aba30207367f92d9c957caa3365fea3b717c6721108aaf9b43a45338484346040516116009493929190613983565b60405180910390a1505050505050565b6116446040518060a00160405280600081526020016000815260200160608152602001600081526020016000151581525090565b6101305460405163e599913960e01b81526001600160a01b0384811660048301529091169063e59991399060240160006040518083038186803b15801561168a57600080fd5b505afa15801561169e573d6000803e3d6000fd5b505050506040513d6000823e601f3d908101601f1916820160405261069f9190810190613690565b6001600160a01b0385163314806116e257506116e28533610524565b6116fe5760405162461bcd60e51b815260040161062290613617565b6108b68585858585612630565b6097546001600160a01b031633146117355760405162461bcd60e51b815260040161062290613547565b6001600160a01b03811661179a5760405162461bcd60e51b815260206004820152602660248201527f4f776e61626c653a206e6577206f776e657220697320746865207a65726f206160448201526564647265737360d01b6064820152608401610622565b6106d88161211a565b6001600160a01b0383163314806117bf57506117bf8333610524565b6117db5760405162461bcd60e51b815260040161062290613617565b610ab583838361276c565b61181a6040518060a00160405280600081526020016000815260200160608152602001600081526020016000151581525090565b3233146118395760405162461bcd60e51b815260040161062290613660565b6101305460405163e599913960e01b81523360048201526000916001600160a01b03169063e59991399060240160006040518083038186803b15801561187e57600080fd5b505afa158015611892573d6000803e3d6000fd5b505050506040513d6000823e601f3d908101601f191682016040526118ba9190810190613690565b90508060800151156119435760405162461bcd60e51b815260206004820152604660248201527f5061727469636970616e7420616c7265616479206578697374732e20596f752060448201527f63616e206f6e6c7920636c61696d20796f757220696e7469616c206b6f6a6f736064820152651037b731b29760d11b608482015260a401610622565b610130546040516311622ce560e01b81523360048201526000916001600160a01b0316906311622ce590602401600060405180830381600087803b15801561198a57600080fd5b505af115801561199e573d6000803e3d6000fd5b505050506040513d6000823e601f3d908101601f191682016040526119c69190810190613690565b9050611a6c3361012e5461013060009054906101000a90046001600160a01b03166001600160a01b0316631bca55e56040518163ffffffff1660e01b815260040160206040518083038186803b158015611a1f57600080fd5b505afa158015611a33573d6000803e3d6000fd5b505050506040513d601f19601f82011682018060405250810190611a5791906135fe565b60405180602001604052806000815250611fec565b7f1800ac493c2559610df079ad63033e4a99ae93f599a3df7ef426015113ff02788161013060009054906101000a90046001600160a01b03166001600160a01b0316631bca55e56040518163ffffffff1660e01b815260040160206040518083038186803b158015611add57600080fd5b505afa158015611af1573d6000803e3d6000fd5b505050506040513d601f19601f82011682018060405250810190611b1591906135fe565b604051611b239291906137e8565b60405180910390a19150505b90565b805161105b906067906020840190612d22565b6001600160a01b038416611b6b5760405162461bcd60e51b8152600401610622906139c7565b8151835114611b8c5760405162461bcd60e51b815260040161062290613a08565b33611b9c81600087878787612888565b60005b8451811015611c3857838181518110611bba57611bba6135b7565b602002602001015160656000878481518110611bd857611bd86135b7565b602002602001015181526020019081526020016000206000886001600160a01b03166001600160a01b031681526020019081526020016000206000828254611c209190613a50565b90915550819050611c30816135e3565b915050611b9f565b50846001600160a01b031660006001600160a01b0316826001600160a01b03167f4a39dc06d4c0dbc64b70af90fd698a233a518aa5d07e595d983b8c0526c8f7fb8787604051611c89929190613a68565b60405180910390a46108b681600087878787612896565b8151835114611cc15760405162461bcd60e51b815260040161062290613a08565b6001600160a01b038416611ce75760405162461bcd60e51b815260040161062290613a96565b33611cf6818787878787612888565b60005b8451811015611ddf576000858281518110611d1657611d166135b7565b602002602001015190506000858381518110611d3457611d346135b7565b60209081029190910181015160008481526065835260408082206001600160a01b038e168352909352919091205490915081811015611d855760405162461bcd60e51b815260040161062290613adb565b60008381526065602090815260408083206001600160a01b038e8116855292528083208585039055908b16825281208054849290611dc4908490613a50565b9250508190555050505080611dd8906135e3565b9050611cf9565b50846001600160a01b0316866001600160a01b0316826001600160a01b03167f4a39dc06d4c0dbc64b70af90fd698a233a518aa5d07e595d983b8c0526c8f7fb8787604051611e2f929190613a68565b60405180910390a4611e45818787878787612896565b505050505050565b6001600160a01b038316611e735760405162461bcd60e51b815260040161062290613b25565b8051825114611e945760405162461bcd60e51b815260040161062290613a08565b6000339050611eb781856000868660405180602001604052806000815250612888565b60005b8351811015611f7f576000848281518110611ed757611ed76135b7565b602002602001015190506000848381518110611ef557611ef56135b7565b60209081029190910181015160008481526065835260408082206001600160a01b038c168352909352919091205490915081811015611f465760405162461bcd60e51b815260040161062290613b68565b60009283526065602090815260408085206001600160a01b038b1686529091529092209103905580611f77816135e3565b915050611eba565b5060006001600160a01b0316846001600160a01b0316826001600160a01b03167f4a39dc06d4c0dbc64b70af90fd698a233a518aa5d07e595d983b8c0526c8f7fb8686604051611fd0929190613a68565b60405180910390a46040805160208101909152600090526107b4565b6001600160a01b0384166120125760405162461bcd60e51b8152600401610622906139c7565b33600061201e85612a01565b9050600061202b85612a01565b905061203c83600089858589612888565b60008681526065602090815260408083206001600160a01b038b1684529091528120805487929061206e908490613a50565b909155505060408051878152602081018790526001600160a01b03808a1692600092918716917fc3d58168c5ae7397731d063d5bbf3d657854427343f4c083240f7aacaa2d0f62910160405180910390a46120ce83600089898989612a4c565b50505050505050565b6106d8816040516024016120eb9190612fcd565b60408051601f198184030181529190526020810180516001600160e01b031663104c13eb60e21b179052612b16565b609780546001600160a01b038381166001600160a01b0319831681179093556040519116919082907f8be0079c531659141344cd1fd0a4f28419497f9722a3daafe3b4186f6b6457e090600090a35050565b61105b8282604051602401612182929190613bac565b60408051601f198184030181529190526020810180516001600160e01b03166309710a9d60e41b179052612b16565b6121e56040518060a00160405280600081526020016000815260200160608152602001600081526020016000151581525090565b6122196040518060a00160405280600081526020016000815260200160008152602001600081526020016000151581525090565b6122383361012f54600160405180602001604052806000815250611fec565b6122473361012e5460016117a3565b6122746040518060400160405280600c81526020016b746c6f6f7074206d6973203160a01b8152506120d7565b6101305461012f54604051639fd9491760e01b815233600482015260248101919091526000916001600160a01b031690639fd9491790604401600060405180830381600087803b1580156122c757600080fd5b505af11580156122db573d6000803e3d6000fd5b505050506040513d6000823e601f3d908101601f191682016040526123039190810190613690565b90506123326040518060400160405280600c81526020016b3a3637b7b83a1036b4b9901960a11b8152506120d7565b6101305461012f54604051631ec5a1a760e21b815260048101919091526000916001600160a01b031690637b16869c9060240160a060405180830381600087803b15801561237f57600080fd5b505af1158015612393573d6000803e3d6000fd5b505050506040513d601f19601f820116820180604052508101906123b7919061385e565b90506123e66040518060400160405280600c81526020016b746c6f6f7074206d6973203360a01b8152506120d7565b6123ee612b37565b90939092509050565b61105b828260405160240161240d929190613bbf565b60408051601f198184030181529190526020810180516001600160e01b031663c3b5563560e01b179052612b16565b816001600160a01b0316836001600160a01b031614156124b05760405162461bcd60e51b815260206004820152602960248201527f455243313135353a2073657474696e6720617070726f76616c20737461747573604482015268103337b91039b2b63360b91b6064820152608401610622565b6001600160a01b03838116600081815260666020908152604080832094871680845294825291829020805460ff191686151590811790915591519182527f17307eab39ab6107e8899845ad3d59bd9653f200f220920489ca2b5937696c31910160405180910390a3505050565b60008054610100900460ff1615612564578160ff1660011480156125405750303b155b61255c5760405162461bcd60e51b815260040161062290613be3565b506000919050565b60005460ff80841691161061258b5760405162461bcd60e51b815260040161062290613be3565b506000805460ff191660ff92909216919091179055600190565b919050565b600054610100900460ff166125d15760405162461bcd60e51b815260040161062290613c31565b6106d881612b52565b600054610100900460ff166126015760405162461bcd60e51b815260040161062290613c31565b610da0612b79565b600054610100900460ff16610da05760405162461bcd60e51b815260040161062290613c31565b6001600160a01b0384166126565760405162461bcd60e51b815260040161062290613a96565b33600061266285612a01565b9050600061266f85612a01565b905061267f838989858589612888565b60008681526065602090815260408083206001600160a01b038c168452909152902054858110156126c25760405162461bcd60e51b815260040161062290613adb565b60008781526065602090815260408083206001600160a01b038d8116855292528083208985039055908a16825281208054889290612701908490613a50565b909155505060408051888152602081018890526001600160a01b03808b16928c821692918816917fc3d58168c5ae7397731d063d5bbf3d657854427343f4c083240f7aacaa2d0f62910160405180910390a4612761848a8a8a8a8a612a4c565b505050505050505050565b6001600160a01b0383166127925760405162461bcd60e51b815260040161062290613b25565b33600061279e84612a01565b905060006127ab84612a01565b90506127cb83876000858560405180602001604052806000815250612888565b60008581526065602090815260408083206001600160a01b038a1684529091529020548481101561280e5760405162461bcd60e51b815260040161062290613b68565b60008681526065602090815260408083206001600160a01b038b81168086529184528285208a8703905582518b81529384018a90529092908816917fc3d58168c5ae7397731d063d5bbf3d657854427343f4c083240f7aacaa2d0f62910160405180910390a46040805160208101909152600090526120ce565b611e45868686868686612ba9565b6001600160a01b0384163b15611e455760405163bc197c8160e01b81526001600160a01b0385169063bc197c81906128da9089908990889088908890600401613c7c565b602060405180830381600087803b1580156128f457600080fd5b505af1925050508015612924575060408051601f3d908101601f1916820190925261292191810190613cda565b60015b6129d157612930613cf7565b806308c379a0141561296a5750612945613d12565b80612950575061296c565b8060405162461bcd60e51b81526004016106229190612fcd565b505b60405162461bcd60e51b815260206004820152603460248201527f455243313135353a207472616e7366657220746f206e6f6e20455243313135356044820152732932b1b2b4bb32b91034b6b83632b6b2b73a32b960611b6064820152608401610622565b6001600160e01b0319811663bc197c8160e01b146120ce5760405162461bcd60e51b815260040161062290613d9b565b60408051600180825281830190925260609160009190602080830190803683370190505090508281600081518110612a3b57612a3b6135b7565b602090810291909101015292915050565b6001600160a01b0384163b15611e455760405163f23a6e6160e01b81526001600160a01b0385169063f23a6e6190612a909089908990889088908890600401613de3565b602060405180830381600087803b158015612aaa57600080fd5b505af1925050508015612ada575060408051601f3d908101601f19168201909252612ad791810190613cda565b60015b612ae657612930613cf7565b6001600160e01b0319811663f23a6e6160e01b146120ce5760405162461bcd60e51b815260040161062290613d9b565b80516a636f6e736f6c652e6c6f67602083016000808483855afa5050505050565b600161012f6000828254612b4b9190613a50565b9091555050565b600054610100900460ff166106cf5760405162461bcd60e51b815260040161062290613c31565b600054610100900460ff16612ba05760405162461bcd60e51b815260040161062290613c31565b610da03361211a565b6001600160a01b038516612c305760005b8351811015612c2e57828181518110612bd557612bd56135b7565b602002602001015160fb6000868481518110612bf357612bf36135b7565b602002602001015181526020019081526020016000206000828254612c189190613a50565b90915550612c279050816135e3565b9050612bba565b505b6001600160a01b038416611e455760005b83518110156120ce576000848281518110612c5e57612c5e6135b7565b602002602001015190506000848381518110612c7c57612c7c6135b7565b60200260200101519050600060fb600084815260200190815260200160002054905081811015612cff5760405162461bcd60e51b815260206004820152602860248201527f455243313135353a206275726e20616d6f756e74206578636565647320746f74604482015267616c537570706c7960c01b6064820152608401610622565b600092835260fb602052604090922091039055612d1b816135e3565b9050612c41565b828054612d2e9061357c565b90600052602060002090601f016020900481019282612d505760008555612d96565b82601f10612d6957805160ff1916838001178555612d96565b82800160010185558215612d96579182015b82811115612d96578251825591602001919060010190612d7b565b50612da2929150612da6565b5090565b5b80821115612da25760008155600101612da7565b80356001600160a01b03811681146125a557600080fd5b60008060408385031215612de557600080fd5b612dee83612dbb565b946020939093013593505050565b6001600160e01b0319811681146106d857600080fd5b600060208284031215612e2457600080fd5b8135612e2f81612dfc565b9392505050565b634e487b7160e01b600052604160045260246000fd5b60a081018181106001600160401b0382111715612e6b57612e6b612e36565b60405250565b601f8201601f191681016001600160401b0381118282101715612e9657612e96612e36565b6040525050565b60006001600160401b03821115612eb657612eb6612e36565b50601f01601f191660200190565b600082601f830112612ed557600080fd5b8135612ee081612e9d565b604051612eed8282612e71565b828152856020848701011115612f0257600080fd5b82602086016020830137600092810160200192909252509392505050565b600060208284031215612f3257600080fd5b81356001600160401b03811115612f4857600080fd5b612f5484828501612ec4565b949350505050565b600060208284031215612f6e57600080fd5b5035919050565b60005b83811015612f90578181015183820152602001612f78565b838111156107b45750506000910152565b60008151808452612fb9816020860160208601612f75565b601f01601f19169290920160200192915050565b602081526000612e2f6020830184612fa1565b60006001600160401b03821115612ff957612ff9612e36565b5060051b60200190565b600082601f83011261301457600080fd5b8135602061302182612fe0565b60405161302e8282612e71565b83815260059390931b850182019282810191508684111561304e57600080fd5b8286015b848110156130695780358352918301918301613052565b509695505050505050565b6000806000806080858703121561308a57600080fd5b61309385612dbb565b935060208501356001600160401b03808211156130af57600080fd5b6130bb88838901613003565b945060408701359150808211156130d157600080fd5b6130dd88838901613003565b935060608701359150808211156130f357600080fd5b5061310087828801612ec4565b91505092959194509250565b60008060006060848603121561312157600080fd5b61312a84612dbb565b925061313860208501612dbb565b915061314660408501612dbb565b90509250925092565b600080600080600060a0868803121561316757600080fd5b61317086612dbb565b945061317e60208701612dbb565b935060408601356001600160401b038082111561319a57600080fd5b6131a689838a01613003565b945060608801359150808211156131bc57600080fd5b6131c889838a01613003565b935060808801359150808211156131de57600080fd5b506131eb88828901612ec4565b9150509295509295909350565b6000806040838503121561320b57600080fd5b82356001600160401b038082111561322257600080fd5b818501915085601f83011261323657600080fd5b8135602061324382612fe0565b6040516132508282612e71565b83815260059390931b850182019282810191508984111561327057600080fd5b948201945b838610156132955761328686612dbb565b82529482019490820190613275565b965050860135925050808211156132ab57600080fd5b506132b885828601613003565b9150509250929050565b600081518084526020808501945080840160005b838110156132f2578151875295820195908201906001016132d6565b509495945050505050565b602081526000612e2f60208301846132c2565b6000806040838503121561332357600080fd5b8235915060208301356001600160401b0381111561334057600080fd5b6132b885828601612ec4565b60008060006060848603121561336157600080fd5b61336a84612dbb565b925060208401356001600160401b038082111561338657600080fd5b61339287838801613003565b935060408601359150808211156133a857600080fd5b506133b586828701613003565b9150509250925092565b80151581146106d857600080fd5b600080604083850312156133e057600080fd5b6133e983612dbb565b915060208301356133f9816133bf565b809150509250929050565b60006020828403121561341657600080fd5b612e2f82612dbb565b80518252602081015160208301526000604082015160a0604085015261344860a08501826132c2565b9050606083015160608501526080830151151560808501528091505092915050565b602081526000612e2f602083018461341f565b6000806040838503121561349057600080fd5b61349983612dbb565b91506134a760208401612dbb565b90509250929050565b600080600080600060a086880312156134c857600080fd5b6134d186612dbb565b94506134df60208701612dbb565b9350604086013592506060860135915060808601356001600160401b0381111561350857600080fd5b6131eb88828901612ec4565b60008060006060848603121561352957600080fd5b61353284612dbb565b95602085013595506040909401359392505050565b6020808252818101527f4f776e61626c653a2063616c6c6572206973206e6f7420746865206f776e6572604082015260600190565b600181811c9082168061359057607f821691505b602082108114156135b157634e487b7160e01b600052602260045260246000fd5b50919050565b634e487b7160e01b600052603260045260246000fd5b634e487b7160e01b600052601160045260246000fd5b60006000198214156135f7576135f76135cd565b5060010190565b60006020828403121561361057600080fd5b5051919050565b60208082526029908201527f455243313135353a2063616c6c6572206973206e6f74206f776e6572206e6f7260408201526808185c1c1c9bdd995960ba1b606082015260800190565b6020808252600b908201526a2737ba1030b71022a7a09760a91b604082015260600190565b80516125a5816133bf565b600060208083850312156136a357600080fd5b82516001600160401b03808211156136ba57600080fd5b9084019060a082870312156136ce57600080fd5b6040516136da81612e4c565b8251815283830151848201526040830151828111156136f857600080fd5b83019150601f8201871361370b57600080fd5b815161371681612fe0565b6040516137238282612e71565b82815260059290921b840186019186810191508983111561374357600080fd5b938601935b8285101561376157845182529386019390860190613748565b604084015250506060838101519082015261377e60808401613685565b60808201529695505050505050565b6020808252601b908201527f5061727469636970616e7420646f6573206e6f742065786973742e0000000000604082015260600190565b6001600160a01b0383168152604060208201819052600090612f549083018461341f565b6040815260006137fb604083018561341f565b90508260208301529392505050565b805182526020810151602083015260408101516040830152606081015160608301526080810151151560808301525050565b60c08152600061384f60c083018561341f565b9050612e2f602083018461380a565b600060a0828403121561387057600080fd5b60405160a081018181106001600160401b038211171561389257613892612e36565b80604052508251815260208301516020820152604083015160408201526060830151606082015260808301516138c7816133bf565b60808201529392505050565b60c081016138e1828561380a565b8260a08301529392505050565b82815260c08101612e2f602083018461380a565b60006020828403121561391457600080fd5b81516001600160401b0381111561392a57600080fd5b8201601f8101841361393b57600080fd5b805161394681612e9d565b6040516139538282612e71565b82815286602084860101111561396857600080fd5b613979836020830160208701612f75565b9695505050505050565b6001600160a01b0385168152610100602082018190526000906139a88382018761341f565b9150506139b8604083018561380a565b8260e083015295945050505050565b60208082526021908201527f455243313135353a206d696e7420746f20746865207a65726f206164647265736040820152607360f81b606082015260800190565b60208082526028908201527f455243313135353a2069647320616e6420616d6f756e7473206c656e677468206040820152670dad2e6dac2e8c6d60c31b606082015260800190565b60008219821115613a6357613a636135cd565b500190565b604081526000613a7b60408301856132c2565b8281036020840152613a8d81856132c2565b95945050505050565b60208082526025908201527f455243313135353a207472616e7366657220746f20746865207a65726f206164604082015264647265737360d81b606082015260800190565b6020808252602a908201527f455243313135353a20696e73756666696369656e742062616c616e636520666f60408201526939103a3930b739b332b960b11b606082015260800190565b60208082526023908201527f455243313135353a206275726e2066726f6d20746865207a65726f206164647260408201526265737360e81b606082015260800190565b60208082526024908201527f455243313135353a206275726e20616d6f756e7420657863656564732062616c604082015263616e636560e01b606082015260800190565b6040815260006137fb6040830185612fa1565b604081526000613bd26040830185612fa1565b905082151560208301529392505050565b6020808252602e908201527f496e697469616c697a61626c653a20636f6e747261637420697320616c72656160408201526d191e481a5b9a5d1a585b1a5e995960921b606082015260800190565b6020808252602b908201527f496e697469616c697a61626c653a20636f6e7472616374206973206e6f74206960408201526a6e697469616c697a696e6760a81b606082015260800190565b6001600160a01b0386811682528516602082015260a060408201819052600090613ca8908301866132c2565b8281036060840152613cba81866132c2565b90508281036080840152613cce8185612fa1565b98975050505050505050565b600060208284031215613cec57600080fd5b8151612e2f81612dfc565b600060033d1115611b2f5760046000803e5060005160e01c90565b600060443d1015613d205790565b6040516003193d81016004833e81513d6001600160401b038160248401118184111715613d4f57505050505090565b8285019150815181811115613d675750505050505090565b843d8701016020828501011115613d815750505050505090565b613d9060208286010187612e71565b509095945050505050565b60208082526028908201527f455243313135353a204552433131353552656365697665722072656a656374656040820152676420746f6b656e7360c01b606082015260800190565b6001600160a01b03868116825285166020820152604081018490526060810183905260a060808201819052600090613e1d90830184612fa1565b97965050505050505056fea26469706673582212201c133ac073aed67b22fa4637dca3ef4ecb70ea40e406e14f0844faebf9a678d864736f6c63430008090033",
  "linkReferences": {},
  "deployedLinkReferences": {}
}