{
  "_format": "hh-sol-artifact-1",
  "contractName": "KojoV1",
  "sourceName": "contracts/KojoV1.sol",
  "abi": [
    {
      "inputs": [],
      "stateMutability": "nonpayable",
      "type": "constructor"
    },
    {
      "anonymous": false,
      "inputs": [
        {
          "indexed": true,
          "internalType": "address",
          "name": "account",
          "type": "address"
        },
        {
          "indexed": true,
          "internalType": "address",
          "name": "operator",
          "type": "address"
        },
        {
          "indexed": false,
          "internalType": "bool",
          "name": "approved",
          "type": "bool"
        }
      ],
      "name": "ApprovalForAll",
      "type": "event"
    },
    {
      "anonymous": false,
      "inputs": [
        {
          "indexed": false,
          "internalType": "uint8",
          "name": "version",
          "type": "uint8"
        }
      ],
      "name": "Initialized",
      "type": "event"
    },
    {
      "anonymous": false,
      "inputs": [
        {
          "indexed": true,
          "internalType": "address",
          "name": "previousOwner",
          "type": "address"
        },
        {
          "indexed": true,
          "internalType": "address",
          "name": "newOwner",
          "type": "address"
        }
      ],
      "name": "OwnershipTransferred",
      "type": "event"
    },
    {
      "anonymous": false,
      "inputs": [
        {
          "indexed": false,
          "internalType": "address",
          "name": "account",
          "type": "address"
        },
        {
          "components": [
            {
              "internalType": "uint256",
              "name": "level",
              "type": "uint256"
            },
            {
              "internalType": "uint256",
              "name": "experiencePoints",
              "type": "uint256"
            },
            {
              "internalType": "uint256[]",
              "name": "plantIds",
              "type": "uint256[]"
            },
            {
              "internalType": "uint256",
              "name": "allowedTokenBalance",
              "type": "uint256"
            },
            {
              "internalType": "bool",
              "name": "hasClaimedStartSeed",
              "type": "bool"
            },
            {
              "internalType": "bool",
              "name": "isPresent",
              "type": "bool"
            }
          ],
          "indexed": false,
          "internalType": "struct Structs.Participant",
          "name": "participant",
          "type": "tuple"
        },
        {
          "components": [
            {
              "internalType": "uint256",
              "name": "level",
              "type": "uint256"
            },
            {
              "internalType": "uint256",
              "name": "experiencePoints",
              "type": "uint256"
            },
            {
              "internalType": "uint256",
              "name": "lifes",
              "type": "uint256"
            },
            {
              "internalType": "uint256",
              "name": "levelCost",
              "type": "uint256"
            },
            {
              "internalType": "bool",
              "name": "isPresent",
              "type": "bool"
            }
          ],
          "indexed": false,
          "internalType": "struct Structs.Plant",
          "name": "plant",
          "type": "tuple"
        }
      ],
      "name": "PlantBought",
      "type": "event"
    },
    {
      "anonymous": false,
      "inputs": [
        {
          "indexed": false,
          "internalType": "address",
          "name": "account",
          "type": "address"
        },
        {
          "components": [
            {
              "internalType": "uint256",
              "name": "level",
              "type": "uint256"
            },
            {
              "internalType": "uint256",
              "name": "experiencePoints",
              "type": "uint256"
            },
            {
              "internalType": "uint256[]",
              "name": "plantIds",
              "type": "uint256[]"
            },
            {
              "internalType": "uint256",
              "name": "allowedTokenBalance",
              "type": "uint256"
            },
            {
              "internalType": "bool",
              "name": "hasClaimedStartSeed",
              "type": "bool"
            },
            {
              "internalType": "bool",
              "name": "isPresent",
              "type": "bool"
            }
          ],
          "indexed": false,
          "internalType": "struct Structs.Participant",
          "name": "participant",
          "type": "tuple"
        },
        {
          "components": [
            {
              "internalType": "uint256",
              "name": "level",
              "type": "uint256"
            },
            {
              "internalType": "uint256",
              "name": "experiencePoints",
              "type": "uint256"
            },
            {
              "internalType": "uint256",
              "name": "lifes",
              "type": "uint256"
            },
            {
              "internalType": "uint256",
              "name": "levelCost",
              "type": "uint256"
            },
            {
              "internalType": "bool",
              "name": "isPresent",
              "type": "bool"
            }
          ],
          "indexed": false,
          "internalType": "struct Structs.Plant",
          "name": "plant",
          "type": "tuple"
        }
      ],
      "name": "PlantClaimed",
      "type": "event"
    },
    {
      "anonymous": false,
      "inputs": [
        {
          "indexed": false,
          "internalType": "address",
          "name": "account",
          "type": "address"
        },
        {
          "components": [
            {
              "internalType": "uint256",
              "name": "level",
              "type": "uint256"
            },
            {
              "internalType": "uint256",
              "name": "experiencePoints",
              "type": "uint256"
            },
            {
              "internalType": "uint256[]",
              "name": "plantIds",
              "type": "uint256[]"
            },
            {
              "internalType": "uint256",
              "name": "allowedTokenBalance",
              "type": "uint256"
            },
            {
              "internalType": "bool",
              "name": "hasClaimedStartSeed",
              "type": "bool"
            },
            {
              "internalType": "bool",
              "name": "isPresent",
              "type": "bool"
            }
          ],
          "indexed": false,
          "internalType": "struct Structs.Participant",
          "name": "participant",
          "type": "tuple"
        },
        {
          "components": [
            {
              "internalType": "uint256",
              "name": "level",
              "type": "uint256"
            },
            {
              "internalType": "uint256",
              "name": "experiencePoints",
              "type": "uint256"
            },
            {
              "internalType": "uint256",
              "name": "lifes",
              "type": "uint256"
            },
            {
              "internalType": "uint256",
              "name": "levelCost",
              "type": "uint256"
            },
            {
              "internalType": "bool",
              "name": "isPresent",
              "type": "bool"
            }
          ],
          "indexed": false,
          "internalType": "struct Structs.Plant",
          "name": "plant",
          "type": "tuple"
        },
        {
          "indexed": false,
          "internalType": "uint256",
          "name": "amount",
          "type": "uint256"
        }
      ],
      "name": "PlantWatered",
      "type": "event"
    },
    {
      "anonymous": false,
      "inputs": [
        {
          "indexed": false,
          "internalType": "address",
          "name": "account",
          "type": "address"
        },
        {
          "components": [
            {
              "internalType": "uint256",
              "name": "level",
              "type": "uint256"
            },
            {
              "internalType": "uint256",
              "name": "experiencePoints",
              "type": "uint256"
            },
            {
              "internalType": "uint256[]",
              "name": "plantIds",
              "type": "uint256[]"
            },
            {
              "internalType": "uint256",
              "name": "allowedTokenBalance",
              "type": "uint256"
            },
            {
              "internalType": "bool",
              "name": "hasClaimedStartSeed",
              "type": "bool"
            },
            {
              "internalType": "bool",
              "name": "isPresent",
              "type": "bool"
            }
          ],
          "indexed": false,
          "internalType": "struct Structs.Participant",
          "name": "participant",
          "type": "tuple"
        },
        {
          "indexed": false,
          "internalType": "uint256",
          "name": "amount",
          "type": "uint256"
        }
      ],
      "name": "TokensClaimed",
      "type": "event"
    },
    {
      "anonymous": false,
      "inputs": [
        {
          "indexed": true,
          "internalType": "address",
          "name": "operator",
          "type": "address"
        },
        {
          "indexed": true,
          "internalType": "address",
          "name": "from",
          "type": "address"
        },
        {
          "indexed": true,
          "internalType": "address",
          "name": "to",
          "type": "address"
        },
        {
          "indexed": false,
          "internalType": "uint256[]",
          "name": "ids",
          "type": "uint256[]"
        },
        {
          "indexed": false,
          "internalType": "uint256[]",
          "name": "values",
          "type": "uint256[]"
        }
      ],
      "name": "TransferBatch",
      "type": "event"
    },
    {
      "anonymous": false,
      "inputs": [
        {
          "indexed": true,
          "internalType": "address",
          "name": "operator",
          "type": "address"
        },
        {
          "indexed": true,
          "internalType": "address",
          "name": "from",
          "type": "address"
        },
        {
          "indexed": true,
          "internalType": "address",
          "name": "to",
          "type": "address"
        },
        {
          "indexed": false,
          "internalType": "uint256",
          "name": "id",
          "type": "uint256"
        },
        {
          "indexed": false,
          "internalType": "uint256",
          "name": "value",
          "type": "uint256"
        }
      ],
      "name": "TransferSingle",
      "type": "event"
    },
    {
      "anonymous": false,
      "inputs": [
        {
          "indexed": false,
          "internalType": "string",
          "name": "value",
          "type": "string"
        },
        {
          "indexed": true,
          "internalType": "uint256",
          "name": "id",
          "type": "uint256"
        }
      ],
      "name": "URI",
      "type": "event"
    },
    {
      "inputs": [],
      "name": "FUNGIBLE_TOKEN",
      "outputs": [
        {
          "internalType": "uint256",
          "name": "",
          "type": "uint256"
        }
      ],
      "stateMutability": "view",
      "type": "function"
    },
    {
      "inputs": [
        {
          "internalType": "address",
          "name": "account",
          "type": "address"
        },
        {
          "internalType": "uint256",
          "name": "id",
          "type": "uint256"
        }
      ],
      "name": "balanceOf",
      "outputs": [
        {
          "internalType": "uint256",
          "name": "",
          "type": "uint256"
        }
      ],
      "stateMutability": "view",
      "type": "function"
    },
    {
      "inputs": [
        {
          "internalType": "address[]",
          "name": "accounts",
          "type": "address[]"
        },
        {
          "internalType": "uint256[]",
          "name": "ids",
          "type": "uint256[]"
        }
      ],
      "name": "balanceOfBatch",
      "outputs": [
        {
          "internalType": "uint256[]",
          "name": "",
          "type": "uint256[]"
        }
      ],
      "stateMutability": "view",
      "type": "function"
    },
    {
      "inputs": [
        {
          "internalType": "address",
          "name": "account",
          "type": "address"
        },
        {
          "internalType": "uint256",
          "name": "id",
          "type": "uint256"
        },
        {
          "internalType": "uint256",
          "name": "value",
          "type": "uint256"
        }
      ],
      "name": "burn",
      "outputs": [],
      "stateMutability": "nonpayable",
      "type": "function"
    },
    {
      "inputs": [
        {
          "internalType": "address",
          "name": "account",
          "type": "address"
        },
        {
          "internalType": "uint256[]",
          "name": "ids",
          "type": "uint256[]"
        },
        {
          "internalType": "uint256[]",
          "name": "values",
          "type": "uint256[]"
        }
      ],
      "name": "burnBatch",
      "outputs": [],
      "stateMutability": "nonpayable",
      "type": "function"
    },
    {
      "inputs": [],
      "name": "checkUpkeep",
      "outputs": [],
      "stateMutability": "view",
      "type": "function"
    },
    {
      "inputs": [
        {
          "internalType": "uint256",
          "name": "id",
          "type": "uint256"
        }
      ],
      "name": "exists",
      "outputs": [
        {
          "internalType": "bool",
          "name": "",
          "type": "bool"
        }
      ],
      "stateMutability": "view",
      "type": "function"
    },
    {
      "inputs": [],
      "name": "handleBuyPlant",
      "outputs": [],
      "stateMutability": "payable",
      "type": "function"
    },
    {
      "inputs": [],
      "name": "handleClaimMonthlyReward",
      "outputs": [],
      "stateMutability": "nonpayable",
      "type": "function"
    },
    {
      "inputs": [],
      "name": "handleClaimStartSeed",
      "outputs": [],
      "stateMutability": "nonpayable",
      "type": "function"
    },
    {
      "inputs": [
        {
          "internalType": "bytes32",
          "name": "_jobId",
          "type": "bytes32"
        },
        {
          "internalType": "uint256",
          "name": "_fee",
          "type": "uint256"
        },
        {
          "internalType": "string",
          "name": "_endpoint",
          "type": "string"
        },
        {
          "internalType": "string",
          "name": "_path",
          "type": "string"
        },
        {
          "internalType": "address",
          "name": "_tokenAddress",
          "type": "address"
        },
        {
          "internalType": "address",
          "name": "_oracleAddress",
          "type": "address"
        }
      ],
      "name": "handleConfigureAPIConsumer",
      "outputs": [],
      "stateMutability": "nonpayable",
      "type": "function"
    },
    {
      "inputs": [],
      "name": "handleCreateParticipant",
      "outputs": [],
      "stateMutability": "nonpayable",
      "type": "function"
    },
    {
      "inputs": [
        {
          "internalType": "address",
          "name": "location",
          "type": "address"
        }
      ],
      "name": "handleUpdateAPIConsumerAddress",
      "outputs": [],
      "stateMutability": "nonpayable",
      "type": "function"
    },
    {
      "inputs": [
        {
          "internalType": "address",
          "name": "location",
          "type": "address"
        }
      ],
      "name": "handleUpdateStoreAddress",
      "outputs": [],
      "stateMutability": "nonpayable",
      "type": "function"
    },
    {
      "inputs": [
        {
          "internalType": "uint256",
          "name": "tokenSensitivity",
          "type": "uint256"
        }
      ],
      "name": "handleUpdateTokenSensitivity",
      "outputs": [],
      "stateMutability": "nonpayable",
      "type": "function"
    },
    {
      "inputs": [
        {
          "internalType": "address",
          "name": "location",
          "type": "address"
        }
      ],
      "name": "handleUpdateUtilsAddress",
      "outputs": [],
      "stateMutability": "nonpayable",
      "type": "function"
    },
    {
      "inputs": [
        {
          "internalType": "uint256",
          "name": "tokenId",
          "type": "uint256"
        }
      ],
      "name": "handleWaterPlant",
      "outputs": [],
      "stateMutability": "payable",
      "type": "function"
    },
    {
      "inputs": [],
      "name": "initialize",
      "outputs": [],
      "stateMutability": "nonpayable",
      "type": "function"
    },
    {
      "inputs": [
        {
          "internalType": "address",
          "name": "account",
          "type": "address"
        },
        {
          "internalType": "address",
          "name": "operator",
          "type": "address"
        }
      ],
      "name": "isApprovedForAll",
      "outputs": [
        {
          "internalType": "bool",
          "name": "",
          "type": "bool"
        }
      ],
      "stateMutability": "view",
      "type": "function"
    },
    {
      "inputs": [
        {
          "internalType": "address",
          "name": "account",
          "type": "address"
        },
        {
          "internalType": "uint256",
          "name": "id",
          "type": "uint256"
        },
        {
          "internalType": "uint256",
          "name": "amount",
          "type": "uint256"
        },
        {
          "internalType": "bytes",
          "name": "data",
          "type": "bytes"
        }
      ],
      "name": "mint",
      "outputs": [],
      "stateMutability": "nonpayable",
      "type": "function"
    },
    {
      "inputs": [
        {
          "internalType": "address",
          "name": "to",
          "type": "address"
        },
        {
          "internalType": "uint256[]",
          "name": "ids",
          "type": "uint256[]"
        },
        {
          "internalType": "uint256[]",
          "name": "amounts",
          "type": "uint256[]"
        },
        {
          "internalType": "bytes",
          "name": "data",
          "type": "bytes"
        }
      ],
      "name": "mintBatch",
      "outputs": [],
      "stateMutability": "nonpayable",
      "type": "function"
    },
    {
      "inputs": [],
      "name": "nonFungibleTokenCount",
      "outputs": [
        {
          "internalType": "uint256",
          "name": "",
          "type": "uint256"
        }
      ],
      "stateMutability": "view",
      "type": "function"
    },
    {
      "inputs": [],
      "name": "owner",
      "outputs": [
        {
          "internalType": "address",
          "name": "",
          "type": "address"
        }
      ],
      "stateMutability": "view",
      "type": "function"
    },
    {
      "inputs": [],
      "name": "performUpkeep",
      "outputs": [],
      "stateMutability": "view",
      "type": "function"
    },
    {
      "inputs": [],
      "name": "renounceOwnership",
      "outputs": [],
      "stateMutability": "nonpayable",
      "type": "function"
    },
    {
      "inputs": [
        {
          "internalType": "address",
          "name": "from",
          "type": "address"
        },
        {
          "internalType": "address",
          "name": "to",
          "type": "address"
        },
        {
          "internalType": "uint256[]",
          "name": "ids",
          "type": "uint256[]"
        },
        {
          "internalType": "uint256[]",
          "name": "amounts",
          "type": "uint256[]"
        },
        {
          "internalType": "bytes",
          "name": "data",
          "type": "bytes"
        }
      ],
      "name": "safeBatchTransferFrom",
      "outputs": [],
      "stateMutability": "nonpayable",
      "type": "function"
    },
    {
      "inputs": [
        {
          "internalType": "address",
          "name": "from",
          "type": "address"
        },
        {
          "internalType": "address",
          "name": "to",
          "type": "address"
        },
        {
          "internalType": "uint256",
          "name": "id",
          "type": "uint256"
        },
        {
          "internalType": "uint256",
          "name": "amount",
          "type": "uint256"
        },
        {
          "internalType": "bytes",
          "name": "data",
          "type": "bytes"
        }
      ],
      "name": "safeTransferFrom",
      "outputs": [],
      "stateMutability": "nonpayable",
      "type": "function"
    },
    {
      "inputs": [
        {
          "internalType": "address",
          "name": "operator",
          "type": "address"
        },
        {
          "internalType": "bool",
          "name": "approved",
          "type": "bool"
        }
      ],
      "name": "setApprovalForAll",
      "outputs": [],
      "stateMutability": "nonpayable",
      "type": "function"
    },
    {
      "inputs": [
        {
          "internalType": "uint256",
          "name": "tokenId",
          "type": "uint256"
        },
        {
          "internalType": "string",
          "name": "_uri",
          "type": "string"
        }
      ],
      "name": "setTokenUri",
      "outputs": [],
      "stateMutability": "nonpayable",
      "type": "function"
    },
    {
      "inputs": [
        {
          "internalType": "string",
          "name": "newuri",
          "type": "string"
        }
      ],
      "name": "setURI",
      "outputs": [],
      "stateMutability": "nonpayable",
      "type": "function"
    },
    {
      "inputs": [
        {
          "internalType": "bytes4",
          "name": "interfaceId",
          "type": "bytes4"
        }
      ],
      "name": "supportsInterface",
      "outputs": [
        {
          "internalType": "bool",
          "name": "",
          "type": "bool"
        }
      ],
      "stateMutability": "view",
      "type": "function"
    },
    {
      "inputs": [
        {
          "internalType": "uint256",
          "name": "id",
          "type": "uint256"
        }
      ],
      "name": "totalSupply",
      "outputs": [
        {
          "internalType": "uint256",
          "name": "",
          "type": "uint256"
        }
      ],
      "stateMutability": "view",
      "type": "function"
    },
    {
      "inputs": [
        {
          "internalType": "address",
          "name": "newOwner",
          "type": "address"
        }
      ],
      "name": "transferOwnership",
      "outputs": [],
      "stateMutability": "nonpayable",
      "type": "function"
    },
    {
      "inputs": [
        {
          "internalType": "uint256",
          "name": "tokenId",
          "type": "uint256"
        }
      ],
      "name": "uri",
      "outputs": [
        {
          "internalType": "string",
          "name": "",
          "type": "string"
        }
      ],
      "stateMutability": "view",
      "type": "function"
    }
  ],
  "bytecode": "0x608060405261012e805460ff191690556001610131553480156200002257600080fd5b506200002d6200012a565b6040516200003b90620002c0565b604051809103906000f08015801562000058573d6000803e3d6000fd5b5061012e60016101000a8154816001600160a01b0302191690836001600160a01b031602179055506040516200008e90620002ce565b604051809103906000f080158015620000ab573d6000803e3d6000fd5b5061012f80546001600160a01b0319166001600160a01b0392909216919091179055604051620000db90620002dc565b604051809103906000f080158015620000f8573d6000803e3d6000fd5b5061013080546001600160a01b0319166001600160a01b03929092169190911790556200012462000139565b620002ea565b6200013660ff620001a3565b50565b61012e5460ff1615620001935760405162461bcd60e51b815260206004820152601d60248201527f436f6e747261637420616c726561647920696e697469616c697a65642e00000060448201526064015b60405180910390fd5b61012e805460ff19166001179055565b60008054610100900460ff161562000238578160ff166001148015620001dc5750620001da30620002b160201b62001fd01760201c565b155b620002305760405162461bcd60e51b815260206004820152602e6024820152600080516020620089f983398151915260448201526d191e481a5b9a5d1a585b1a5e995960921b60648201526084016200018a565b506000919050565b60005460ff808416911610620002975760405162461bcd60e51b815260206004820152602e6024820152600080516020620089f983398151915260448201526d191e481a5b9a5d1a585b1a5e995960921b60648201526084016200018a565b506000805460ff191660ff92909216919091179055600190565b6001600160a01b03163b151590565b61193a8062004e8d83390190565b610a6480620067c783390190565b6117ce806200722b83390190565b614b9380620002fa6000396000f3fe6080604052600436106102185760003560e01c8063715018a61161011d578063ad31dbbf116100b0578063e985e9c51161007f578063f2fde38b11610064578063f2fde38b146105ee578063f5298aca1461060e578063f769aba71461062e57600080fd5b8063e985e9c514610585578063f242432a146105ce57600080fd5b8063ad31dbbf1461051b578063bd85b03914610530578063de349ae71461055d578063de8bb6851461057057600080fd5b80639c3423b1116100ec5780639c3423b1146104d3578063a13abdad1461044c578063a22cb465146104db578063a305bb22146104fb57600080fd5b8063715018a614610461578063731133e9146104765780638129fc1c146104965780638da5cb5b146104ab57600080fd5b806330242454116101b057806357f7789e1161017f5780636b20c454116101645780636b20c454146104175780636c7ff22e146104375780636e4d243a1461044c57600080fd5b806357f7789e146103e257806359be06f81461040257600080fd5b8063302424541461034f57806345e8eca81461036f5780634e1273f4146103865780634f558e79146103b357600080fd5b80630e89341c116101ec5780630e89341c146102c25780631f7fdffa146102ef57806323192a8f1461030f5780632eb2c2d61461032f57600080fd5b8062fdd58e1461021d57806301ffc9a71461025057806302fe5305146102805780630da575dc146102a2575b600080fd5b34801561022957600080fd5b5061023d610238366004613c24565b61064e565b6040519081526020015b60405180910390f35b34801561025c57600080fd5b5061027061026b366004613c64565b6106f9565b6040519015158152602001610247565b34801561028c57600080fd5b506102a061029b366004613d75565b610796565b005b3480156102ae57600080fd5b506102a06102bd366004613db2565b6107ea565b3480156102ce57600080fd5b506102e26102dd366004613dcd565b610872565b6040516102479190613e3e565b3480156102fb57600080fd5b506102a061030a366004613ee6565b610915565b34801561031b57600080fd5b506102a061032a366004613db2565b61096f565b34801561033b57600080fd5b506102a061034a366004613f7f565b6109e7565b34801561035b57600080fd5b506102a061036a366004613dcd565b610a89565b34801561037b57600080fd5b5061023d6101315481565b34801561039257600080fd5b506103a66103a1366004614029565b610b49565b604051610247919061412f565b3480156103bf57600080fd5b506102706103ce366004613dcd565b600090815260fb6020526040902054151590565b3480156103ee57600080fd5b506102a06103fd366004614142565b610c87565b34801561040e57600080fd5b506102a0610cf4565b34801561042357600080fd5b506102a061043236600461417f565b610eae565b34801561044357600080fd5b506102a0610f33565b34801561045857600080fd5b506102a0611193565b34801561046d57600080fd5b506102a06111ad565b34801561048257600080fd5b506102a06104913660046141f3565b6111ff565b3480156104a257600080fd5b506102a0611253565b3480156104b757600080fd5b506097546040516001600160a01b039091168152602001610247565b6102a06112ef565b3480156104e757600080fd5b506102a06104f6366004614256565b61152c565b34801561050757600080fd5b506102a0610516366004613db2565b611537565b34801561052757600080fd5b506102a06115af565b34801561053c57600080fd5b5061023d61054b366004613dcd565b600090815260fb602052604090205490565b6102a061056b366004613dcd565b61175c565b34801561057c57600080fd5b5061023d600081565b34801561059157600080fd5b506102706105a036600461428d565b6001600160a01b03918216600090815260666020908152604080832093909416825291909152205460ff1690565b3480156105da57600080fd5b506102a06105e93660046142c0565b611d1b565b3480156105fa57600080fd5b506102a0610609366004613db2565b611da2565b34801561061a57600080fd5b506102a0610629366004614325565b611e6f565b34801561063a57600080fd5b506102a061064936600461439a565b611ef4565b60006001600160a01b0383166106d15760405162461bcd60e51b815260206004820152602b60248201527f455243313135353a2062616c616e636520717565727920666f7220746865207a60448201527f65726f206164647265737300000000000000000000000000000000000000000060648201526084015b60405180910390fd5b5060009081526065602090815260408083206001600160a01b03949094168352929052205490565b60006001600160e01b031982167fd9b67a2600000000000000000000000000000000000000000000000000000000148061075c57506001600160e01b031982167f0e89341c00000000000000000000000000000000000000000000000000000000145b8061079057507f01ffc9a7000000000000000000000000000000000000000000000000000000006001600160e01b03198316145b92915050565b6097546001600160a01b031633146107de5760405162461bcd60e51b81526020600482018190526024820152600080516020614b3e83398151915260448201526064016106c8565b6107e781611fdf565b50565b6097546001600160a01b031633146108325760405162461bcd60e51b81526020600482018190526024820152600080516020614b3e83398151915260448201526064016106c8565b61012e80546001600160a01b03909216610100027fffffffffffffffffffffff0000000000000000000000000000000000000000ff909216919091179055565b600081815261012d602052604090208054606091906108909061443e565b80601f01602080910402602001604051908101604052809291908181526020018280546108bc9061443e565b80156109095780601f106108de57610100808354040283529160200191610909565b820191906000526020600020905b8154815290600101906020018083116108ec57829003601f168201915b50505050509050919050565b6097546001600160a01b0316331461095d5760405162461bcd60e51b81526020600482018190526024820152600080516020614b3e83398151915260448201526064016106c8565b61096984848484611ff2565b50505050565b6097546001600160a01b031633146109b75760405162461bcd60e51b81526020600482018190526024820152600080516020614b3e83398151915260448201526064016106c8565b61012f805473ffffffffffffffffffffffffffffffffffffffff19166001600160a01b0392909216919091179055565b6001600160a01b038516331480610a035750610a0385336105a0565b610a755760405162461bcd60e51b815260206004820152603260248201527f455243313135353a207472616e736665722063616c6c6572206973206e6f742060448201527f6f776e6572206e6f7220617070726f766564000000000000000000000000000060648201526084016106c8565b610a8285858585856121d7565b5050505050565b6097546001600160a01b03163314610ad15760405162461bcd60e51b81526020600482018190526024820152600080516020614b3e83398151915260448201526064016106c8565b61012e546040517f30242454000000000000000000000000000000000000000000000000000000008152600481018390526101009091046001600160a01b031690633024245490602401600060405180830381600087803b158015610b3557600080fd5b505af1158015610a82573d6000803e3d6000fd5b60608151835114610bc25760405162461bcd60e51b815260206004820152602960248201527f455243313135353a206163636f756e747320616e6420696473206c656e67746860448201527f206d69736d61746368000000000000000000000000000000000000000000000060648201526084016106c8565b6000835167ffffffffffffffff811115610bde57610bde613c88565b604051908082528060200260200182016040528015610c07578160200160208202803683370190505b50905060005b8451811015610c7f57610c52858281518110610c2b57610c2b614479565b6020026020010151858381518110610c4557610c45614479565b602002602001015161064e565b828281518110610c6457610c64614479565b6020908102919091010152610c78816144a5565b9050610c0d565b509392505050565b6097546001600160a01b03163314610ccf5760405162461bcd60e51b81526020600482018190526024820152600080516020614b3e83398151915260448201526064016106c8565b600082815261012d602090815260409091208251610cef92840190613b74565b505050565b323314610d315760405162461bcd60e51b815260206004820152600b60248201526a2737ba1030b71022a7a09760a91b60448201526064016106c8565b61012e5460405163e599913960e01b815233600482015260009161010090046001600160a01b03169063e59991399060240160006040518083038186803b158015610d7b57600080fd5b505afa158015610d8f573d6000803e3d6000fd5b505050506040513d6000823e601f3d908101601f19168201604052610db791908101906144cb565b90508060a0015115610e0b5760405162461bcd60e51b815260206004820152601b60248201527f5061727469636970616e7420616c7265616479206578697374732e000000000060448201526064016106c8565b61012e546040517f11622ce50000000000000000000000000000000000000000000000000000000081523360048201526101009091046001600160a01b0316906311622ce590602401600060405180830381600087803b158015610e6e57600080fd5b505af1158015610e82573d6000803e3d6000fd5b505050506040513d6000823e601f3d908101601f19168201604052610eaa91908101906144cb565b5050565b6001600160a01b038316331480610eca5750610eca83336105a0565b610f285760405162461bcd60e51b815260206004820152602960248201527f455243313135353a2063616c6c6572206973206e6f74206f776e6572206e6f7260448201526808185c1c1c9bdd995960ba1b60648201526084016106c8565b610cef838383612454565b323314610f705760405162461bcd60e51b815260206004820152600b60248201526a2737ba1030b71022a7a09760a91b60448201526064016106c8565b61012e5460405163e599913960e01b815233600482015260009161010090046001600160a01b03169063e59991399060240160006040518083038186803b158015610fba57600080fd5b505afa158015610fce573d6000803e3d6000fd5b505050506040513d6000823e601f3d908101601f19168201604052610ff691908101906144cb565b90508060a001516110495760405162461bcd60e51b815260206004820152601b60248201527f5061727469636970616e7420646f6573206e6f742065786973742e000000000060448201526064016106c8565b606081015161109a5760405162461bcd60e51b815260206004820152601b60248201527f5061727469636970616e74206973206e6f7420616c6c6f7765642e000000000060448201526064016106c8565b6110ba3360008360600151604051806020016040528060008152506126b6565b6000606082015261012e54604051635ea07a9d60e01b8152829161010090046001600160a01b031690635ea07a9d906110f99033908590600401614631565b600060405180830381600087803b15801561111357600080fd5b505af1158015611127573d6000803e3d6000fd5b505050506040513d6000823e601f3d908101601f1916820160405261114f91908101906144cb565b507f1bac81f88f9ca615dc5c79dbc320db7358ebd6014f3e34b44e797ad6dc65b2783383846060015160405161118793929190614653565b60405180910390a15050565b6111ab604051806020016040528060008152506127ea565b565b6097546001600160a01b031633146111f55760405162461bcd60e51b81526020600482018190526024820152600080516020614b3e83398151915260448201526064016106c8565b6111ab600061285b565b6097546001600160a01b031633146112475760405162461bcd60e51b81526020600482018190526024820152600080516020614b3e83398151915260448201526064016106c8565b610969848484846126b6565b600061125f60016128ba565b90508015611277576000805461ff0019166101001790555b61128f604051806020016040528060008152506129f3565b611297612a67565b61129f612ada565b6112a7612ada565b80156107e7576000805461ff0019169055604051600181527f7f26b83ff96e1f2b6a682f133852f6798a09c465da95921460cefb38474024989060200160405180910390a150565b32331461132c5760405162461bcd60e51b815260206004820152600b60248201526a2737ba1030b71022a7a09760a91b60448201526064016106c8565b61012e5460405163e599913960e01b815233600482015260009161010090046001600160a01b03169063e59991399060240160006040518083038186803b15801561137657600080fd5b505afa15801561138a573d6000803e3d6000fd5b505050506040513d6000823e601f3d908101601f191682016040526113b291908101906144cb565b90508060a001516114055760405162461bcd60e51b815260206004820152601b60248201527f5061727469636970616e7420646f6573206e6f742065786973742e000000000060448201526064016106c8565b61012e60019054906101000a90046001600160a01b03166001600160a01b03166358ac00386040518163ffffffff1660e01b815260040160206040518083038186803b15801561145457600080fd5b505afa158015611468573d6000803e3d6000fd5b505050506040513d601f19601f8201168201806040525081019061148c9190614685565b34116114da5760405162461bcd60e51b815260206004820152601160248201527f4e6f7420656e6f756768204d415449432e00000000000000000000000000000060448201526064016106c8565b6000806114e8836000612b45565b915091507fdd040218afc461152ef6a647ee981636d03661fa33fd816e85b27e4068d4b9ce33838360405161151f9392919061469e565b60405180910390a1505050565b610eaa338383612dca565b6097546001600160a01b0316331461157f5760405162461bcd60e51b81526020600482018190526024820152600080516020614b3e83398151915260448201526064016106c8565b610130805473ffffffffffffffffffffffffffffffffffffffff19166001600160a01b0392909216919091179055565b3233146115ec5760405162461bcd60e51b815260206004820152600b60248201526a2737ba1030b71022a7a09760a91b60448201526064016106c8565b61012e5460405163e599913960e01b815233600482015260009161010090046001600160a01b03169063e59991399060240160006040518083038186803b15801561163657600080fd5b505afa15801561164a573d6000803e3d6000fd5b505050506040513d6000823e601f3d908101601f1916820160405261167291908101906144cb565b90508060a001516116c55760405162461bcd60e51b815260206004820152601b60248201527f5061727469636970616e7420646f6573206e6f742065786973742e000000000060448201526064016106c8565b8060800151156117175760405162461bcd60e51b815260206004820152601060248201527f416c726561647920636c61696d65642e0000000000000000000000000000000060448201526064016106c8565b600080611725836001612b45565b915091507f5fb17b7e1423ed16c79a44cb8e20769fbf98ca32ff3b09126d340e724861283433838360405161151f9392919061469e565b3233146117995760405162461bcd60e51b815260206004820152600b60248201526a2737ba1030b71022a7a09760a91b60448201526064016106c8565b61012e5460405163e599913960e01b815233600482015260009161010090046001600160a01b03169063e59991399060240160006040518083038186803b1580156117e357600080fd5b505afa1580156117f7573d6000803e3d6000fd5b505050506040513d6000823e601f3d908101601f1916820160405261181f91908101906144cb565b61012e546040517f1fec8c02000000000000000000000000000000000000000000000000000000008152600481018590529192506000916101009091046001600160a01b031690631fec8c029060240160a06040518083038186803b15801561188757600080fd5b505afa15801561189b573d6000803e3d6000fd5b505050506040513d601f19601f820116820180604052508101906118bf91906146fc565b90508160a001516119125760405162461bcd60e51b815260206004820152601b60248201527f5061727469636970616e7420646f6573206e6f742065786973742e000000000060448201526064016106c8565b80608001516119635760405162461bcd60e51b815260206004820152601560248201527f506c616e7420646f6573206e6f742065786973742e000000000000000000000060448201526064016106c8565b600034116119b35760405162461bcd60e51b815260206004820152601260248201527f4e6f204d415449432070726f76696465642e000000000000000000000000000060448201526064016106c8565b61012f546040517fb458e0c30000000000000000000000000000000000000000000000000000000081526000916001600160a01b03169063b458e0c390611a009086903490600401614772565b60006040518083038186803b158015611a1857600080fd5b505afa158015611a2c573d6000803e3d6000fd5b505050506040513d6000823e601f3d908101601f19168201604052611a5491908101906144cb565b61012f546040517f58e5d9cf0000000000000000000000000000000000000000000000000000000081529192506000916001600160a01b03909116906358e5d9cf90611aa69086903490600401614794565b60a06040518083038186803b158015611abe57600080fd5b505afa158015611ad2573d6000803e3d6000fd5b505050506040513d601f19601f82011682018060405250810190611af691906146fc565b61012e54604051635ea07a9d60e01b815291925061010090046001600160a01b031690635ea07a9d90611b2f9033908690600401614631565b600060405180830381600087803b158015611b4957600080fd5b505af1158015611b5d573d6000803e3d6000fd5b505050506040513d6000823e601f3d908101601f19168201604052611b8591908101906144cb565b5061012e546040517f571765150000000000000000000000000000000000000000000000000000000081526101009091046001600160a01b031690635717651590611bd690889085906004016147dc565b60a060405180830381600087803b158015611bf057600080fd5b505af1158015611c04573d6000803e3d6000fd5b505050506040513d601f19601f82011682018060405250810190611c2891906146fc565b5061012f546040517f67a58d620000000000000000000000000000000000000000000000000000000081526000916001600160a01b0316906367a58d6290611c769085908a90600401614794565b60006040518083038186803b158015611c8e57600080fd5b505afa158015611ca2573d6000803e3d6000fd5b505050506040513d6000823e601f3d908101601f19168201604052611cca919081019061481d565b9050611cd68682610c87565b7fc964b73a645f31a2737035255e3447cc7fb39403417c698e7be09a3a2256e18433848434604051611d0b949392919061489f565b60405180910390a1505050505050565b6001600160a01b038516331480611d375750611d3785336105a0565b611d955760405162461bcd60e51b815260206004820152602960248201527f455243313135353a2063616c6c6572206973206e6f74206f776e6572206e6f7260448201526808185c1c1c9bdd995960ba1b60648201526084016106c8565b610a828585858585612ebf565b6097546001600160a01b03163314611dea5760405162461bcd60e51b81526020600482018190526024820152600080516020614b3e83398151915260448201526064016106c8565b6001600160a01b038116611e665760405162461bcd60e51b815260206004820152602660248201527f4f776e61626c653a206e6577206f776e657220697320746865207a65726f206160448201527f646472657373000000000000000000000000000000000000000000000000000060648201526084016106c8565b6107e78161285b565b6001600160a01b038316331480611e8b5750611e8b83336105a0565b611ee95760405162461bcd60e51b815260206004820152602960248201527f455243313135353a2063616c6c6572206973206e6f74206f776e6572206e6f7260448201526808185c1c1c9bdd995960ba1b60648201526084016106c8565b610cef83838361308a565b6097546001600160a01b03163314611f3c5760405162461bcd60e51b81526020600482018190526024820152600080516020614b3e83398151915260448201526064016106c8565b610130546040517fc5cad3a10000000000000000000000000000000000000000000000000000000081526001600160a01b039091169063c5cad3a190611f94908b908b908b908b908b908b908b908b90600401614937565b600060405180830381600087803b158015611fae57600080fd5b505af1158015611fc2573d6000803e3d6000fd5b505050505050505050505050565b6001600160a01b03163b151590565b8051610eaa906067906020840190613b74565b6001600160a01b0384166120525760405162461bcd60e51b815260206004820152602160248201527f455243313135353a206d696e7420746f20746865207a65726f206164647265736044820152607360f81b60648201526084016106c8565b81518351146120b45760405162461bcd60e51b815260206004820152602860248201527f455243313135353a2069647320616e6420616d6f756e7473206c656e677468206044820152670dad2e6dac2e8c6d60c31b60648201526084016106c8565b336120c481600087878787613228565b60005b8451811015612160578381815181106120e2576120e2614479565b60200260200101516065600087848151811061210057612100614479565b602002602001015181526020019081526020016000206000886001600160a01b03166001600160a01b0316815260200190815260200160002060008282546121489190614993565b90915550819050612158816144a5565b9150506120c7565b50846001600160a01b031660006001600160a01b0316826001600160a01b03167f4a39dc06d4c0dbc64b70af90fd698a233a518aa5d07e595d983b8c0526c8f7fb87876040516121b19291906149ab565b60405180910390a46121c881600087878787613236565b610a82816000878787876135db565b81518351146122395760405162461bcd60e51b815260206004820152602860248201527f455243313135353a2069647320616e6420616d6f756e7473206c656e677468206044820152670dad2e6dac2e8c6d60c31b60648201526084016106c8565b6001600160a01b03841661229d5760405162461bcd60e51b815260206004820152602560248201527f455243313135353a207472616e7366657220746f20746865207a65726f206164604482015264647265737360d81b60648201526084016106c8565b336122ac818787878787613228565b60005b84518110156123d85760008582815181106122cc576122cc614479565b6020026020010151905060008583815181106122ea576122ea614479565b60209081029190910181015160008481526065835260408082206001600160a01b038e16835290935291909120549091508181101561237e5760405162461bcd60e51b815260206004820152602a60248201527f455243313135353a20696e73756666696369656e742062616c616e636520666f60448201526939103a3930b739b332b960b11b60648201526084016106c8565b60008381526065602090815260408083206001600160a01b038e8116855292528083208585039055908b168252812080548492906123bd908490614993565b92505081905550505050806123d1906144a5565b90506122af565b50846001600160a01b0316866001600160a01b0316826001600160a01b03167f4a39dc06d4c0dbc64b70af90fd698a233a518aa5d07e595d983b8c0526c8f7fb87876040516124289291906149ab565b60405180910390a461243e818787878787613236565b61244c8187878787876135db565b505050505050565b6001600160a01b0383166124b65760405162461bcd60e51b815260206004820152602360248201527f455243313135353a206275726e2066726f6d20746865207a65726f206164647260448201526265737360e81b60648201526084016106c8565b80518251146125185760405162461bcd60e51b815260206004820152602860248201527f455243313135353a2069647320616e6420616d6f756e7473206c656e677468206044820152670dad2e6dac2e8c6d60c31b60648201526084016106c8565b600033905061253b81856000868660405180602001604052806000815250613228565b60005b835181101561263f57600084828151811061255b5761255b614479565b60200260200101519050600084838151811061257957612579614479565b60209081029190910181015160008481526065835260408082206001600160a01b038c1683529093529190912054909150818110156126065760405162461bcd60e51b8152602060048201526024808201527f455243313135353a206275726e20616d6f756e7420657863656564732062616c604482015263616e636560e01b60648201526084016106c8565b60009283526065602090815260408085206001600160a01b038b1686529091529092209103905580612637816144a5565b91505061253e565b5060006001600160a01b0316846001600160a01b0316826001600160a01b03167f4a39dc06d4c0dbc64b70af90fd698a233a518aa5d07e595d983b8c0526c8f7fb86866040516126909291906149ab565b60405180910390a461096981856000868660405180602001604052806000815250613236565b6001600160a01b0384166127165760405162461bcd60e51b815260206004820152602160248201527f455243313135353a206d696e7420746f20746865207a65726f206164647265736044820152607360f81b60648201526084016106c8565b33600061272285613790565b9050600061272f85613790565b905061274083600089858589613228565b60008681526065602090815260408083206001600160a01b038b16845290915281208054879290612772908490614993565b909155505060408051878152602081018790526001600160a01b03808a1692600092918716917fc3d58168c5ae7397731d063d5bbf3d657854427343f4c083240f7aacaa2d0f62910160405180910390a46127d283600089858589613236565b6127e1836000898989896137db565b50505050505050565b6107e7816040516024016127fe9190613e3e565b60408051601f198184030181529190526020810180517bffffffffffffffffffffffffffffffffffffffffffffffffffffffff167f41304fac000000000000000000000000000000000000000000000000000000001790526138e6565b609780546001600160a01b0383811673ffffffffffffffffffffffffffffffffffffffff19831681179093556040519116919082907f8be0079c531659141344cd1fd0a4f28419497f9722a3daafe3b4186f6b6457e090600090a35050565b60008054610100900460ff1615612957578160ff1660011480156128dd5750303b155b61294f5760405162461bcd60e51b815260206004820152602e60248201527f496e697469616c697a61626c653a20636f6e747261637420697320616c72656160448201527f647920696e697469616c697a656400000000000000000000000000000000000060648201526084016106c8565b506000919050565b60005460ff8084169116106129d45760405162461bcd60e51b815260206004820152602e60248201527f496e697469616c697a61626c653a20636f6e747261637420697320616c72656160448201527f647920696e697469616c697a656400000000000000000000000000000000000060648201526084016106c8565b506000805460ff191660ff92909216919091179055600190565b919050565b600054610100900460ff16612a5e5760405162461bcd60e51b815260206004820152602b60248201527f496e697469616c697a61626c653a20636f6e7472616374206973206e6f74206960448201526a6e697469616c697a696e6760a81b60648201526084016106c8565b6107e781613907565b600054610100900460ff16612ad25760405162461bcd60e51b815260206004820152602b60248201527f496e697469616c697a61626c653a20636f6e7472616374206973206e6f74206960448201526a6e697469616c697a696e6760a81b60648201526084016106c8565b6111ab613972565b600054610100900460ff166111ab5760405162461bcd60e51b815260206004820152602b60248201527f496e697469616c697a61626c653a20636f6e7472616374206973206e6f74206960448201526a6e697469616c697a696e6760a81b60648201526084016106c8565b612b826040518060c00160405280600081526020016000815260200160608152602001600081526020016000151581526020016000151581525090565b612bb66040518060a00160405280600081526020016000815260200160008152602001600081526020016000151581525090565b612bd533610131546001604051806020016040528060008152506126b6565b61012f546101315460405163cfc3990560e01b81526000926001600160a01b03169163cfc3990591612c0b918991600401614772565b60006040518083038186803b158015612c2357600080fd5b505afa158015612c37573d6000803e3d6000fd5b505050506040513d6000823e601f3d908101601f19168201604052612c5f91908101906144cb565b61012e54610131546040517f7b16869c00000000000000000000000000000000000000000000000000000000815260048101919091529192506000916101009091046001600160a01b031690637b16869c9060240160a060405180830381600087803b158015612cce57600080fd5b505af1158015612ce2573d6000803e3d6000fd5b505050506040513d601f19601f82011682018060405250810190612d0691906146fc565b90508415612d1657600160808301525b61012e54604051635ea07a9d60e01b81526101009091046001600160a01b031690635ea07a9d90612d4d9033908690600401614631565b600060405180830381600087803b158015612d6757600080fd5b505af1158015612d7b573d6000803e3d6000fd5b505050506040513d6000823e601f3d908101601f19168201604052612da391908101906144cb565b5060016101316000828254612db89190614993565b909155509193509150505b9250929050565b816001600160a01b0316836001600160a01b03161415612e525760405162461bcd60e51b815260206004820152602960248201527f455243313135353a2073657474696e6720617070726f76616c2073746174757360448201527f20666f722073656c66000000000000000000000000000000000000000000000060648201526084016106c8565b6001600160a01b03838116600081815260666020908152604080832094871680845294825291829020805460ff191686151590811790915591519182527f17307eab39ab6107e8899845ad3d59bd9653f200f220920489ca2b5937696c31910160405180910390a3505050565b6001600160a01b038416612f235760405162461bcd60e51b815260206004820152602560248201527f455243313135353a207472616e7366657220746f20746865207a65726f206164604482015264647265737360d81b60648201526084016106c8565b336000612f2f85613790565b90506000612f3c85613790565b9050612f4c838989858589613228565b60008681526065602090815260408083206001600160a01b038c16845290915290205485811015612fd25760405162461bcd60e51b815260206004820152602a60248201527f455243313135353a20696e73756666696369656e742062616c616e636520666f60448201526939103a3930b739b332b960b11b60648201526084016106c8565b60008781526065602090815260408083206001600160a01b038d8116855292528083208985039055908a16825281208054889290613011908490614993565b909155505060408051888152602081018890526001600160a01b03808b16928c821692918816917fc3d58168c5ae7397731d063d5bbf3d657854427343f4c083240f7aacaa2d0f62910160405180910390a4613071848a8a86868a613236565b61307f848a8a8a8a8a6137db565b505050505050505050565b6001600160a01b0383166130ec5760405162461bcd60e51b815260206004820152602360248201527f455243313135353a206275726e2066726f6d20746865207a65726f206164647260448201526265737360e81b60648201526084016106c8565b3360006130f884613790565b9050600061310584613790565b905061312583876000858560405180602001604052806000815250613228565b60008581526065602090815260408083206001600160a01b038a168452909152902054848110156131a45760405162461bcd60e51b8152602060048201526024808201527f455243313135353a206275726e20616d6f756e7420657863656564732062616c604482015263616e636560e01b60648201526084016106c8565b60008681526065602090815260408083206001600160a01b038b81168086529184528285208a8703905582518b81529384018a90529092908816917fc3d58168c5ae7397731d063d5bbf3d657854427343f4c083240f7aacaa2d0f62910160405180910390a46127e184886000868660405180602001604052806000815250613236565b61244c8686868686866139e6565b61012e5460405163e599913960e01b81526001600160a01b0387811660048301526000926101009004169063e59991399060240160006040518083038186803b15801561328257600080fd5b505afa158015613296573d6000803e3d6000fd5b505050506040513d6000823e601f3d908101601f191682016040526132be91908101906144cb565b61012e5460405163e599913960e01b81526001600160a01b0388811660048301529293506000926101009092049091169063e59991399060240160006040518083038186803b15801561331057600080fd5b505afa158015613324573d6000803e3d6000fd5b505050506040513d6000823e601f3d908101601f1916820160405261334c91908101906144cb565b905060008560008151811061336357613363614479565b60200260200101519050600081146135d6578260a00151156134b25761012f546040517f8db0979a0000000000000000000000000000000000000000000000000000000081526000916001600160a01b031690638db0979a906133cc9087908690600401614772565b60006040518083038186803b1580156133e457600080fd5b505afa1580156133f8573d6000803e3d6000fd5b505050506040513d6000823e601f3d908101601f1916820160405261342091908101906144cb565b61012e54604051635ea07a9d60e01b815291925061010090046001600160a01b031690635ea07a9d90613459908c908590600401614631565b600060405180830381600087803b15801561347357600080fd5b505af1158015613487573d6000803e3d6000fd5b505050506040513d6000823e601f3d908101601f191682016040526134af91908101906144cb565b50505b8160a00151156135d65761012f5460405163cfc3990560e01b81526000916001600160a01b03169063cfc39905906134f09086908690600401614772565b60006040518083038186803b15801561350857600080fd5b505afa15801561351c573d6000803e3d6000fd5b505050506040513d6000823e601f3d908101601f1916820160405261354491908101906144cb565b61012e54604051635ea07a9d60e01b815291925061010090046001600160a01b031690635ea07a9d9061357d908b908590600401614631565b600060405180830381600087803b15801561359757600080fd5b505af11580156135ab573d6000803e3d6000fd5b505050506040513d6000823e601f3d908101601f191682016040526135d391908101906144cb565b50505b61307f565b6001600160a01b0384163b1561244c5760405163bc197c8160e01b81526001600160a01b0385169063bc197c819061361f90899089908890889088906004016149d9565b602060405180830381600087803b15801561363957600080fd5b505af1925050508015613669575060408051601f3d908101601f1916820190925261366691810190614a37565b60015b61371f57613675614a54565b806308c379a014156136af575061368a614a70565b8061369557506136b1565b8060405162461bcd60e51b81526004016106c89190613e3e565b505b60405162461bcd60e51b815260206004820152603460248201527f455243313135353a207472616e7366657220746f206e6f6e204552433131353560448201527f526563656976657220696d706c656d656e74657200000000000000000000000060648201526084016106c8565b6001600160e01b0319811663bc197c8160e01b146127e15760405162461bcd60e51b815260206004820152602860248201527f455243313135353a204552433131353552656365697665722072656a656374656044820152676420746f6b656e7360c01b60648201526084016106c8565b604080516001808252818301909252606091600091906020808301908036833701905050905082816000815181106137ca576137ca614479565b602090810291909101015292915050565b6001600160a01b0384163b1561244c5760405163f23a6e6160e01b81526001600160a01b0385169063f23a6e619061381f9089908990889088908890600401614afa565b602060405180830381600087803b15801561383957600080fd5b505af1925050508015613869575060408051601f3d908101601f1916820190925261386691810190614a37565b60015b61387557613675614a54565b6001600160e01b0319811663f23a6e6160e01b146127e15760405162461bcd60e51b815260206004820152602860248201527f455243313135353a204552433131353552656365697665722072656a656374656044820152676420746f6b656e7360c01b60648201526084016106c8565b80516a636f6e736f6c652e6c6f67602083016000808483855afa5050505050565b600054610100900460ff166107de5760405162461bcd60e51b815260206004820152602b60248201527f496e697469616c697a61626c653a20636f6e7472616374206973206e6f74206960448201526a6e697469616c697a696e6760a81b60648201526084016106c8565b600054610100900460ff166139dd5760405162461bcd60e51b815260206004820152602b60248201527f496e697469616c697a61626c653a20636f6e7472616374206973206e6f74206960448201526a6e697469616c697a696e6760a81b60648201526084016106c8565b6111ab3361285b565b6001600160a01b038516613a6d5760005b8351811015613a6b57828181518110613a1257613a12614479565b602002602001015160fb6000868481518110613a3057613a30614479565b602002602001015181526020019081526020016000206000828254613a559190614993565b90915550613a649050816144a5565b90506139f7565b505b6001600160a01b03841661244c5760005b83518110156127e1576000848281518110613a9b57613a9b614479565b602002602001015190506000848381518110613ab957613ab9614479565b60200260200101519050600060fb600084815260200190815260200160002054905081811015613b515760405162461bcd60e51b815260206004820152602860248201527f455243313135353a206275726e20616d6f756e74206578636565647320746f7460448201527f616c537570706c7900000000000000000000000000000000000000000000000060648201526084016106c8565b600092835260fb602052604090922091039055613b6d816144a5565b9050613a7e565b828054613b809061443e565b90600052602060002090601f016020900481019282613ba25760008555613be8565b82601f10613bbb57805160ff1916838001178555613be8565b82800160010185558215613be8579182015b82811115613be8578251825591602001919060010190613bcd565b50613bf4929150613bf8565b5090565b5b80821115613bf45760008155600101613bf9565b80356001600160a01b03811681146129ee57600080fd5b60008060408385031215613c3757600080fd5b613c4083613c0d565b946020939093013593505050565b6001600160e01b0319811681146107e757600080fd5b600060208284031215613c7657600080fd5b8135613c8181613c4e565b9392505050565b634e487b7160e01b600052604160045260246000fd5b60c0810181811067ffffffffffffffff82111715613cbe57613cbe613c88565b60405250565b601f8201601f1916810167ffffffffffffffff81118282101715613cea57613cea613c88565b6040525050565b600067ffffffffffffffff821115613d0b57613d0b613c88565b50601f01601f191660200190565b600082601f830112613d2a57600080fd5b8135613d3581613cf1565b604051613d428282613cc4565b828152856020848701011115613d5757600080fd5b82602086016020830137600092810160200192909252509392505050565b600060208284031215613d8757600080fd5b813567ffffffffffffffff811115613d9e57600080fd5b613daa84828501613d19565b949350505050565b600060208284031215613dc457600080fd5b613c8182613c0d565b600060208284031215613ddf57600080fd5b5035919050565b60005b83811015613e01578181015183820152602001613de9565b838111156109695750506000910152565b60008151808452613e2a816020860160208601613de6565b601f01601f19169290920160200192915050565b602081526000613c816020830184613e12565b600067ffffffffffffffff821115613e6b57613e6b613c88565b5060051b60200190565b600082601f830112613e8657600080fd5b81356020613e9382613e51565b604051613ea08282613cc4565b83815260059390931b8501820192828101915086841115613ec057600080fd5b8286015b84811015613edb5780358352918301918301613ec4565b509695505050505050565b60008060008060808587031215613efc57600080fd5b613f0585613c0d565b9350602085013567ffffffffffffffff80821115613f2257600080fd5b613f2e88838901613e75565b94506040870135915080821115613f4457600080fd5b613f5088838901613e75565b93506060870135915080821115613f6657600080fd5b50613f7387828801613d19565b91505092959194509250565b600080600080600060a08688031215613f9757600080fd5b613fa086613c0d565b9450613fae60208701613c0d565b9350604086013567ffffffffffffffff80821115613fcb57600080fd5b613fd789838a01613e75565b94506060880135915080821115613fed57600080fd5b613ff989838a01613e75565b9350608088013591508082111561400f57600080fd5b5061401c88828901613d19565b9150509295509295909350565b6000806040838503121561403c57600080fd5b823567ffffffffffffffff8082111561405457600080fd5b818501915085601f83011261406857600080fd5b8135602061407582613e51565b6040516140828282613cc4565b83815260059390931b85018201928281019150898411156140a257600080fd5b948201945b838610156140c7576140b886613c0d565b825294820194908201906140a7565b965050860135925050808211156140dd57600080fd5b506140ea85828601613e75565b9150509250929050565b600081518084526020808501945080840160005b8381101561412457815187529582019590820190600101614108565b509495945050505050565b602081526000613c8160208301846140f4565b6000806040838503121561415557600080fd5b82359150602083013567ffffffffffffffff81111561417357600080fd5b6140ea85828601613d19565b60008060006060848603121561419457600080fd5b61419d84613c0d565b9250602084013567ffffffffffffffff808211156141ba57600080fd5b6141c687838801613e75565b935060408601359150808211156141dc57600080fd5b506141e986828701613e75565b9150509250925092565b6000806000806080858703121561420957600080fd5b61421285613c0d565b93506020850135925060408501359150606085013567ffffffffffffffff81111561423c57600080fd5b613f7387828801613d19565b80151581146107e757600080fd5b6000806040838503121561426957600080fd5b61427283613c0d565b9150602083013561428281614248565b809150509250929050565b600080604083850312156142a057600080fd5b6142a983613c0d565b91506142b760208401613c0d565b90509250929050565b600080600080600060a086880312156142d857600080fd5b6142e186613c0d565b94506142ef60208701613c0d565b93506040860135925060608601359150608086013567ffffffffffffffff81111561431957600080fd5b61401c88828901613d19565b60008060006060848603121561433a57600080fd5b61434384613c0d565b95602085013595506040909401359392505050565b60008083601f84011261436a57600080fd5b50813567ffffffffffffffff81111561438257600080fd5b602083019150836020828501011115612dc357600080fd5b60008060008060008060008060c0898b0312156143b657600080fd5b8835975060208901359650604089013567ffffffffffffffff808211156143dc57600080fd5b6143e88c838d01614358565b909850965060608b013591508082111561440157600080fd5b5061440e8b828c01614358565b9095509350614421905060808a01613c0d565b915061442f60a08a01613c0d565b90509295985092959890939650565b600181811c9082168061445257607f821691505b6020821081141561447357634e487b7160e01b600052602260045260246000fd5b50919050565b634e487b7160e01b600052603260045260246000fd5b634e487b7160e01b600052601160045260246000fd5b60006000198214156144b9576144b961448f565b5060010190565b80516129ee81614248565b600060208083850312156144de57600080fd5b825167ffffffffffffffff808211156144f657600080fd5b9084019060c0828703121561450a57600080fd5b60405161451681613c9e565b82518152838301518482015260408301518281111561453457600080fd5b83019150601f8201871361454757600080fd5b815161455281613e51565b60405161455f8282613cc4565b82815260059290921b840186019186810191508983111561457f57600080fd5b938601935b8285101561459d57845182529386019390860190614584565b60408401525050606083810151908201526145ba608084016144c0565b60808201526145cb60a084016144c0565b60a08201529695505050505050565b80518252602081015160208301526000604082015160c0604085015261460360c08501826140f4565b90506060830151606085015260808301511515608085015260a0830151151560a08501528091505092915050565b6001600160a01b0383168152604060208201526000613daa60408301846145da565b6001600160a01b038416815260606020820152600061467560608301856145da565b9050826040830152949350505050565b60006020828403121561469757600080fd5b5051919050565b6001600160a01b038416815260e0602082015260006146c060e08301856145da565b9050613daa6040830184805182526020810151602083015260408101516040830152606081015160608301526080810151151560808301525050565b600060a0828403121561470e57600080fd5b60405160a0810181811067ffffffffffffffff8211171561473157614731613c88565b806040525082518152602083015160208201526040830151604082015260608301516060820152608083015161476681614248565b60808201529392505050565b60408152600061478560408301856145da565b90508260208301529392505050565b60c081016147cf8285805182526020810151602083015260408101516040830152606081015160608301526080810151151560808301525050565b8260a08301529392505050565b82815260c08101613c816020830184805182526020810151602083015260408101516040830152606081015160608301526080810151151560808301525050565b60006020828403121561482f57600080fd5b815167ffffffffffffffff81111561484657600080fd5b8201601f8101841361485757600080fd5b805161486281613cf1565b60405161486f8282613cc4565b82815286602084860101111561488457600080fd5b614895836020830160208701613de6565b9695505050505050565b60006101006001600160a01b03871683528060208401526148c2818401876145da565b9150506148ff6040830185805182526020810151602083015260408101516040830152606081015160608301526080810151151560808301525050565b8260e083015295945050505050565b81835281816020850137506000828201602090810191909152601f909101601f19169091010190565b88815287602082015260c06040820152600061495760c08301888a61490e565b828103606084015261496a81878961490e565b9150506001600160a01b03808516608084015280841660a0840152509998505050505050505050565b600082198211156149a6576149a661448f565b500190565b6040815260006149be60408301856140f4565b82810360208401526149d081856140f4565b95945050505050565b60006001600160a01b03808816835280871660208401525060a06040830152614a0560a08301866140f4565b8281036060840152614a1781866140f4565b90508281036080840152614a2b8185613e12565b98975050505050505050565b600060208284031215614a4957600080fd5b8151613c8181613c4e565b600060033d1115614a6d5760046000803e5060005160e01c5b90565b600060443d1015614a7e5790565b6040516003193d81016004833e81513d67ffffffffffffffff8160248401118184111715614aae57505050505090565b8285019150815181811115614ac65750505050505090565b843d8701016020828501011115614ae05750505050505090565b614aef60208286010187613cc4565b509095945050505050565b60006001600160a01b03808816835280871660208401525084604083015283606083015260a06080830152614b3260a0830184613e12565b97965050505050505056fe4f776e61626c653a2063616c6c6572206973206e6f7420746865206f776e6572a2646970667358221220205a88e3f57bf279806332cedb1a23a99305110e9faff25a8008edaee2b1be6d64736f6c6343000809003360806040526065805460ff1916905534801561001a57600080fd5b50610023610028565b610099565b60655460ff161561007f5760405162461bcd60e51b815260206004820152601d60248201527f436f6e747261637420616c726561647920696e697469616c697a65642e000000604482015260640160405180910390fd5b6103e860668190556067556065805460ff19166001179055565b611892806100a86000396000f3fe608060405234801561001057600080fd5b50600436106101005760003560e01c8063715018a6116100975780639778e0b3116100665780639778e0b3146102e9578063e1d1ad12146102fc578063e59991391461030f578063f2fde38b1461032257600080fd5b8063715018a6146102495780637b16869c146102515780638da5cb5b146102645780638dd2361c1461027f57600080fd5b806330242454116100d35780633024245414610205578063571765151461021a57806358ac00381461022d5780635ea07a9d1461023657600080fd5b806309e69ede1461010557806311622ce5146101775780631fec8c0214610197578063229e04c8146101ee575b600080fd5b610146610113366004611504565b60686020526000908152604090208054600182015460038301546004909301549192909160ff8082169161010090041685565b60408051958652602086019490945292840191909152151560608301521515608082015260a0015b60405180910390f35b61018a610185366004611504565b610335565b60405161016e9190611526565b6101aa6101a53660046115bc565b6105eb565b60405161016e9190600060a0820190508251825260208301516020830152604083015160408301526060830151606083015260808301511515608083015292915050565b6101f760675481565b60405190815260200161016e565b6102186102133660046115bc565b610712565b005b6101aa6102283660046115d5565b610771565b6101f760665481565b61018a61024436600461160d565b61095e565b610218610baf565b6101aa61025f3660046115bc565b610c15565b6033546040516001600160a01b03909116815260200161016e565b6102bf61028d3660046115bc565b606960205260009081526040902080546001820154600283015460038401546004909401549293919290919060ff1685565b6040805195865260208601949094529284019190915260608301521515608082015260a00161016e565b61018a6102f7366004611504565b610e29565b6101aa61030a3660046115bc565b61103d565b61018a61031d366004611504565b6111fd565b610218610330366004611504565b611341565b6103726040518060c00160405280600081526020016000815260200160608152602001600081526020016000151581526020016000151581525090565b6033546001600160a01b031633146103d15760405162461bcd60e51b815260206004820181905260248201527f4f776e61626c653a2063616c6c6572206973206e6f7420746865206f776e657260448201526064015b60405180910390fd5b6001600160a01b0382166000908152606860209081526040808320815160c0810183528154815260018201548185015260028201805484518187028101870186528181529295939486019383018282801561044b57602002820191906000526020600020905b815481526020019060010190808311610437575b50505091835250506003820154602082015260049091015460ff8082161515604084015261010090910416151560609091015260a0810151909150156104d35760405162461bcd60e51b815260206004820152601b60248201527f5061727469636970616e7420616c7265616479206578697374732e000000000060448201526064016103c8565b6105106040518060c00160405280600081526020016000815260200160608152602001600081526020016000151581526020016000151581525090565b600080825260208083018281526064606085015260808401839052600160a085018190526001600160a01b0388168452606883526040938490208551815591519082015591830151805184939261056e92600285019291019061148d565b506060820151600382015560808201516004909101805460a09093015115156101000261ff00199215159290921661ffff19909316929092171790556040517fdbf9b828d4bc2cb5c9e4591d3e2e8448444681945bc639dc6cf96b9fbcd3ee2d906105da908390611526565b60405180910390a19150505b919050565b61061f6040518060a00160405280600081526020016000815260200160008152602001600081526020016000151581525090565b600082815260696020908152604091829020825160a081018452815481526001820154928101929092526002810154928201929092526003820154606082015260049091015460ff161515608082018190526106bd5760405162461bcd60e51b815260206004820152601560248201527f506c616e7420646f6573206e6f742065786973742e000000000000000000000060448201526064016103c8565b5050600090815260696020908152604091829020825160a081018452815481526001820154928101929092526002810154928201929092526003820154606082015260049091015460ff161515608082015290565b6033546001600160a01b0316331461076c5760405162461bcd60e51b815260206004820181905260248201527f4f776e61626c653a2063616c6c6572206973206e6f7420746865206f776e657260448201526064016103c8565b606755565b6107a56040518060a00160405280600081526020016000815260200160008152602001600081526020016000151581525090565b6033546001600160a01b031633146107ff5760405162461bcd60e51b815260206004820181905260248201527f4f776e61626c653a2063616c6c6572206973206e6f7420746865206f776e657260448201526064016103c8565b600083815260696020908152604091829020825160a081018452815481526001820154928101929092526002810154928201929092526003820154606082015260049091015460ff1615156080820181905261089d5760405162461bcd60e51b815260206004820152601560248201527f506c616e7420646f6573206e6f742065786973742e000000000000000000000060448201526064016103c8565b6108ac368490038401846116fb565b600085815260696020908152604091829020835180825584830180516001840155858501805160028501556060808801805160038701556080808a0180516004909801805460ff1916981515989098179097558851958652935196850196909652905195830195909552925193810193909352511515908201529091507f55bf2566c2dd3965de515a5b2fb036fd69ce0893ac5e8ad62121064c03887f3a9060a0015b60405180910390a19392505050565b61099b6040518060c00160405280600081526020016000815260200160608152602001600081526020016000151581526020016000151581525090565b6033546001600160a01b031633146109f55760405162461bcd60e51b815260206004820181905260248201527f4f776e61626c653a2063616c6c6572206973206e6f7420746865206f776e657260448201526064016103c8565b6001600160a01b0383166000908152606860209081526040808320815160c08101835281548152600182015481850152600282018054845181870281018701865281815292959394860193830182828015610a6f57602002820191906000526020600020905b815481526020019060010190808311610a5b575b50505091835250506003820154602082015260049091015460ff8082161515604084015261010090910416151560609091015260a0810151909150610af65760405162461bcd60e51b815260206004820152601b60248201527f5061727469636970616e7420646f6573206e6f742065786973742e000000000060448201526064016103c8565b610aff8361176f565b6001600160a01b038516600090815260686020908152604091829020835181558184015160018201559183015180519394508493610b43926002850192019061148d565b506060820151600382015560808201516004909101805460a09093015115156101000261ff00199215159290921661ffff19909316929092171790556040517fca61289913d9bf85282d602ab61aa9e8471225ca261f7d8aa34d474ac00d80ea9061094f908390611526565b6033546001600160a01b03163314610c095760405162461bcd60e51b815260206004820181905260248201527f4f776e61626c653a2063616c6c6572206973206e6f7420746865206f776e657260448201526064016103c8565b610c136000611423565b565b610c496040518060a00160405280600081526020016000815260200160008152602001600081526020016000151581525090565b6033546001600160a01b03163314610ca35760405162461bcd60e51b815260206004820181905260248201527f4f776e61626c653a2063616c6c6572206973206e6f7420746865206f776e657260448201526064016103c8565b600082815260696020908152604091829020825160a081018452815481526001820154928101929092526002810154928201929092526003820154606082015260049091015460ff161580156080830152610d405760405162461bcd60e51b815260206004820152601560248201527f506c616e7420616c7265616479206578697374732e000000000000000000000060448201526064016103c8565b610d746040518060a00160405280600081526020016000815260200160008152602001600081526020016000151581525090565b6000808252602080830182815260036040808601828152606460608089019182528b88526069875296839020885180825586516001830155835160028301558251958201959095556080808a0180516004909301805460ff1916931515939093179092558451958652955196850196909652905191830191909152519381019390935290511515908201527f68fc3804c4a15e9c4c95952cc9077b7368ac270150deb7da2920322d82f648049060a0016105da565b610e666040518060c00160405280600081526020016000815260200160608152602001600081526020016000151581526020016000151581525090565b6033546001600160a01b03163314610ec05760405162461bcd60e51b815260206004820181905260248201527f4f776e61626c653a2063616c6c6572206973206e6f7420746865206f776e657260448201526064016103c8565b6001600160a01b0382166000908152606860209081526040808320815160c08101835281548152600182015481850152600282018054845181870281018701865281815292959394860193830182828015610f3a57602002820191906000526020600020905b815481526020019060010190808311610f26575b50505091835250506003820154602082015260049091015460ff8082161515604084015261010090910416151560609091015260a0810151909150610fc15760405162461bcd60e51b815260206004820152601b60248201527f5061727469636970616e7420646f6573206e6f742065786973742e000000000060448201526064016103c8565b610ffe6040518060c00160405280600081526020016000815260200160608152602001600081526020016000151581526020016000151581525090565b90507f10b9fb861106e9968aad73a9730793843f62eabe1111298eb4baf11ed28e906d8160405161102f9190611526565b60405180910390a192915050565b6110716040518060a00160405280600081526020016000815260200160008152602001600081526020016000151581525090565b6033546001600160a01b031633146110cb5760405162461bcd60e51b815260206004820181905260248201527f4f776e61626c653a2063616c6c6572206973206e6f7420746865206f776e657260448201526064016103c8565b600082815260696020908152604091829020825160a081018452815481526001820154928101929092526002810154928201929092526003820154606082015260049091015460ff161515608082018190526111695760405162461bcd60e51b815260206004820152601560248201527f506c616e7420646f6573206e6f742065786973742e000000000000000000000060448201526064016103c8565b61119d6040518060a00160405280600081526020016000815260200160008152602001600081526020016000151581525090565b6040805182518152602080840151908201528183015191810191909152606080830151908201526080808301511515908201529091507f936baf471dcef319d10b9521f71ec0f4ce18632f2ea784d49f23a4ec8120c8069060a00161102f565b61123a6040518060c00160405280600081526020016000815260200160608152602001600081526020016000151581526020016000151581525090565b6001600160a01b0382166000908152606860209081526040808320815160c081018352815481526001820154818501526002820180548451818702810187018652818152929593948601938301828280156112b457602002820191906000526020600020905b8154815260200190600101908083116112a0575b50505091835250506003820154602082015260049091015460ff8082161515604084015261010090910416151560609091015260a081015190915061133b5760405162461bcd60e51b815260206004820152601b60248201527f5061727469636970616e7420646f6573206e6f742065786973742e000000000060448201526064016103c8565b92915050565b6033546001600160a01b0316331461139b5760405162461bcd60e51b815260206004820181905260248201527f4f776e61626c653a2063616c6c6572206973206e6f7420746865206f776e657260448201526064016103c8565b6001600160a01b0381166114175760405162461bcd60e51b815260206004820152602660248201527f4f776e61626c653a206e6577206f776e657220697320746865207a65726f206160448201527f646472657373000000000000000000000000000000000000000000000000000060648201526084016103c8565b61142081611423565b50565b603380546001600160a01b038381167fffffffffffffffffffffffff0000000000000000000000000000000000000000831681179093556040519116919082907f8be0079c531659141344cd1fd0a4f28419497f9722a3daafe3b4186f6b6457e090600090a35050565b8280548282559060005260206000209081019282156114c8579160200282015b828111156114c85782518255916020019190600101906114ad565b506114d49291506114d8565b5090565b5b808211156114d457600081556001016114d9565b80356001600160a01b03811681146105e657600080fd5b60006020828403121561151657600080fd5b61151f826114ed565b9392505050565b6000602080835260e08301845182850152818501516040850152604085015160c06060860152818151808452610100870191508483019350600092505b808310156115835783518252928401926001929092019190840190611563565b5060608701516080870152608087015193506115a360a087018515159052565b60a087015180151560c088015293509695505050505050565b6000602082840312156115ce57600080fd5b5035919050565b60008082840360c08112156115e957600080fd5b8335925060a0601f19820112156115ff57600080fd5b506020830190509250929050565b6000806040838503121561162057600080fd5b611629836114ed565b9150602083013567ffffffffffffffff81111561164557600080fd5b830160c0818603121561165757600080fd5b809150509250929050565b7f4e487b7100000000000000000000000000000000000000000000000000000000600052604160045260246000fd5b60405160c0810167ffffffffffffffff811182821017156116b4576116b4611662565b60405290565b604051601f8201601f1916810167ffffffffffffffff811182821017156116e3576116e3611662565b604052919050565b803580151581146105e657600080fd5b600060a0828403121561170d57600080fd5b60405160a0810181811067ffffffffffffffff8211171561173057611730611662565b806040525082358152602083013560208201526040830135604082015260608301356060820152611763608084016116eb565b60808201529392505050565b600060c0823603121561178157600080fd5b611789611691565b8235815260208084013581830152604084013567ffffffffffffffff808211156117b257600080fd5b9085019036601f8301126117c557600080fd5b8135818111156117d7576117d7611662565b8060051b91506117e88483016116ba565b818152918301840191848101903684111561180257600080fd5b938501935b8385101561182057843582529385019390850190611807565b6040870152505050505060608381013590820152611840608084016116eb565b608082015261185160a084016116eb565b60a08201529291505056fea264697066735822122054abdb865d03c95d23ecde7f5ccdcfaf58f009ac767b0d9818aa6fd55d9f5c3464736f6c63430008090033608060405234801561001057600080fd5b50610a44806100206000396000f3fe608060405234801561001057600080fd5b50600436106100725760003560e01c8063aac8795f11610050578063aac8795f14610117578063b458e0c314610138578063cfc399051461014b57600080fd5b806358e5d9cf1461007757806367a58d62146100d75780638db0979a146100f7575b600080fd5b61008a61008536600461065f565b61015e565b6040516100ce9190600060a0820190508251825260208301516020830152604083015160408301526060830151606083015260808301511515608083015292915050565b60405180910390f35b6100ea6100e536600461065f565b610220565b6040516100ce919061071b565b61010a61010536600461074e565b61028e565b6040516100ce9190610862565b61012a61012536600461074e565b61039c565b6040519081526020016100ce565b61010a61014636600461074e565b6103be565b61010a61015936600461074e565b6104aa565b6101926040518060a00160405280600081526020016000815260200160008152602001600081526020016000151581525090565b82606001518284602001516101a7919061090e565b10156101c3578183602001516101bd919061090e565b60208401525b82606001518284602001516101d8919061090e565b1115610219576001836000018181516101f1919061090e565b9052506060830151602084015161020990849061090e565b6102139190610926565b60208401525b5090919050565b604080518082018252600981527f697066732f6e66742f00000000000000000000000000000000000000000000006020808301919091528451858401519351606094600093610275938693899391920161093d565b60408051808303601f1901815291905295945050505050565b6102cb6040518060c00160405280600081526020016000815260200160608152602001600081526020016000151581526020016000151581525090565b600060018460400151516102df9190610926565b67ffffffffffffffff8111156102f7576102f76105da565b604051908082528060200260200182016040528015610320578160200160208202803683370190505b50905060005b84604001515181101561038f5760008560400151828151811061034b5761034b61099c565b6020026020010151905084811461037c578083838151811061036f5761036f61099c565b6020026020010181815250505b5080610387816109b2565b915050610326565b5060408401525090919050565b81516000906103ad90600a906109cd565b6103b790836109ef565b9392505050565b6103fb6040518060c00160405280600081526020016000815260200160608152602001600081526020016000151581526020016000151581525090565b825160009061040c906005906109cd565b8451610418919061090e565b610424906103e86109ef565b905080838560200151610437919061090e565b10156104535782846020015161044d919061090e565b60208501525b80838560200151610464919061090e565b11156104a25760018460000181815161047d919061090e565b9052506020840151819061049290859061090e565b61049c9190610926565b60208501525b509192915050565b6104e76040518060c00160405280600081526020016000815260200160608152602001600081526020016000151581526020016000151581525090565b600083604001515160016104fb919061090e565b67ffffffffffffffff811115610513576105136105da565b60405190808252806020026020018201604052801561053c578160200160208202803683370190505b50905060005b8460400151518110156105a2576000856040015182815181106105675761056761099c565b60200260200101519050808383815181106105845761058461099c565b6020908102919091010152508061059a816109b2565b915050610542565b508281825160016105b3919061090e565b815181106105c3576105c361099c565b602090810291909101015260408401525090919050565b634e487b7160e01b600052604160045260246000fd5b60405160c0810167ffffffffffffffff81118282101715610613576106136105da565b60405290565b604051601f8201601f1916810167ffffffffffffffff81118282101715610642576106426105da565b604052919050565b8035801515811461065a57600080fd5b919050565b60008082840360c081121561067357600080fd5b60a081121561068157600080fd5b5060405160a0810181811067ffffffffffffffff821117156106a5576106a56105da565b8060405250833581526020840135602082015260408401356040820152606084013560608201526106d86080850161064a565b60808201529460a0939093013593505050565b60005b838110156107065781810151838201526020016106ee565b83811115610715576000848401525b50505050565b602081526000825180602084015261073a8160408501602087016106eb565b601f01601f19169190910160400192915050565b6000806040838503121561076157600080fd5b823567ffffffffffffffff8082111561077957600080fd5b9084019060c0828703121561078d57600080fd5b6107956105f0565b82358152602080840135818301526040840135838111156107b557600080fd5b8401601f810189136107c657600080fd5b8035848111156107d8576107d86105da565b8060051b94506107e9838601610619565b818152948201830194838101908b87111561080357600080fd5b928401925b8684101561082157833582529284019290840190610808565b60408601525050506060848101359083015261083f6080850161064a565b608083015261085060a0850161064a565b60a08301529097950135955050505050565b6000602080835260e08301845182850152818501516040850152604085015160c06060860152818151808452610100870191508483019350600092505b808310156108bf578351825292840192600192909201919084019061089f565b5060608701516080870152608087015193506108df60a087018515159052565b60a087015180151560c088015293509695505050505050565b634e487b7160e01b600052601160045260246000fd5b60008219821115610921576109216108f8565b500190565b600082821015610938576109386108f8565b500390565b6000855161094f818460208a016106eb565b91909101938452507f2d0000000000000000000000000000000000000000000000000000000000000060208401819052602184019290925260418301919091526042820152606201919050565b634e487b7160e01b600052603260045260246000fd5b60006000198214156109c6576109c66108f8565b5060010190565b6000826109ea57634e487b7160e01b600052601260045260246000fd5b500490565b6000816000190483118215151615610a0957610a096108f8565b50029056fea26469706673582212200b9e8459ef5fe0a25147f8ede9c161a9cc564c6b3703583278504a1fe0ce5e7a64736f6c634300080900336080604052600160045534801561001557600080fd5b50338060008161006c5760405162461bcd60e51b815260206004820152601860248201527f43616e6e6f7420736574206f776e657220746f207a65726f000000000000000060448201526064015b60405180910390fd5b600680546001600160a01b0319166001600160a01b038481169190911790915581161561009c5761009c8161011c565b5050506100c273326c977e6efc84e512bb9c30f76e30c160ed06fb6101c760201b60201c565b600380546001600160a01b03191673c8d925525ca8759812d0c299b90247917d4d4b7c1790557f6134666639383339376461333435363539363863663737356132393339343063600f55662386f26fc100006010556101e9565b6001600160a01b0381163314156101755760405162461bcd60e51b815260206004820152601760248201527f43616e6e6f74207472616e7366657220746f2073656c660000000000000000006044820152606401610063565b600780546001600160a01b0319166001600160a01b03838116918217909255600654604051919216907fed8889f560326eb138920d842192f0eb3dd22b4f139c87a2c57538e05bae127890600090a350565b600280546001600160a01b0319166001600160a01b0392909216919091179055565b6115d580620001f96000396000f3fe608060405234801561001057600080fd5b50600436106100c95760003560e01c80638da5cb5b11610081578063c5cad3a11161005b578063c5cad3a114610189578063d83d170c1461019c578063f2fde38b146101a557600080fd5b80638da5cb5b1461015d5780638dc654a214610178578063c133ae981461018057600080fd5b80636d811e71116100b25780636d811e711461012b578063709770b71461014257806379ba50971461015557600080fd5b806337db7fae146100ce578063593b79fe146100e3575b600080fd5b6100e16100dc3660046110fa565b6101b8565b005b6101156100f1366004611148565b604080516001600160a01b0392909216600560a21b18601483015260348201905290565b60405161012291906111bb565b60405180910390f35b61013460095481565b604051908152602001610122565b6100e1610150366004611148565b6102e1565b6100e1610508565b6006546040516001600160a01b039091168152602001610122565b6100e16105bd565b61013460085481565b6100e1610197366004611217565b610743565b610134600a5481565b6100e16101b3366004611148565b6107a3565b60008481526005602052604090205484906001600160a01b0316331461024b5760405162461bcd60e51b815260206004820152602860248201527f536f75726365206d75737420626520746865206f7261636c65206f662074686560448201527f207265717565737400000000000000000000000000000000000000000000000060648201526084015b60405180910390fd5b60008181526005602052604080822080546001600160a01b03191690555182917f7cc135e0cebb02c3480ae5d74d377283180a2601f8f644edf7987b009316c63a91a2604080518581526020810185905290810183905285907f1ed77f15bedb9f2e18446e63e8c9f73d9c3bb15fb83afc3c4ee9842050c6377e9060600160405180910390a250600892909255600955600a5550565b6102e96107b4565b60006102ff600f54306337db7fae60e01b610810565b60408051600560a21b6001600160a01b0386161860148201526074810182526003603482019081526219d95d60ea1b6054830152915192935091610364919061034c9084906020016112bb565b60408051601f198184030181529190528491906108a1565b6103ca604051806040016040528060048152602001630e0c2e8d60e31b8152506040518060400160405280600d81526020017f726567696f6e4176657261676500000000000000000000000000000000000000815250846108a19092919063ffffffff16565b6103fa6040518060400160405280600381526020016219d95d60ea1b8152508260405160200161034c91906112bb565b610460604051806040016040528060048152602001630e0c2e8d60e31b8152506040518060400160405280600581526020017f7573616765000000000000000000000000000000000000000000000000000000815250846108a19092919063ffffffff16565b6104906040518060400160405280600381526020016219d95d60ea1b8152508260405160200161034c91906112bb565b6104f6604051806040016040528060048152602001630e0c2e8d60e31b8152506040518060400160405280600a81526020017f66616d696c7953697a6500000000000000000000000000000000000000000000815250846108a19092919063ffffffff16565b610502826010546108c4565b50505050565b6007546001600160a01b031633146105625760405162461bcd60e51b815260206004820152601660248201527f4d7573742062652070726f706f736564206f776e6572000000000000000000006044820152606401610242565b600680546001600160a01b0319808216339081179093556007805490911690556040516001600160a01b03909116919082907f8be0079c531659141344cd1fd0a4f28419497f9722a3daafe3b4186f6b6457e090600090a350565b6105c56107b4565b60006105d96002546001600160a01b031690565b6040517f70a082310000000000000000000000000000000000000000000000000000000081523060048201529091506001600160a01b0382169063a9059cbb90339083906370a082319060240160206040518083038186803b15801561063e57600080fd5b505afa158015610652573d6000803e3d6000fd5b505050506040513d601f19601f820116820180604052508101906106769190611326565b6040516001600160e01b031960e085901b1681526001600160a01b0390921660048301526024820152604401602060405180830381600087803b1580156106bc57600080fd5b505af11580156106d0573d6000803e3d6000fd5b505050506040513d601f19601f820116820180604052508101906106f4919061133f565b6107405760405162461bcd60e51b815260206004820152601260248201527f556e61626c6520746f207472616e7366657200000000000000000000000000006044820152606401610242565b50565b61074b6107b4565b600f8890556010879055610761600b8787611061565b5061076e600c8585611061565b50600d80546001600160a01b039384166001600160a01b031991821617909155600e8054929093169116179055505050505050565b6107ab6107b4565b610740816108e7565b6006546001600160a01b0316331461080e5760405162461bcd60e51b815260206004820152601660248201527f4f6e6c792063616c6c61626c65206279206f776e6572000000000000000000006044820152606401610242565b565b61084e6040805160a0810182526000808252602080830182905282840182905260608084018390528451808601909552845283015290608082015290565b61088c6040805160a0810182526000808252602080830182905282840182905260608084018390528451808601909552845283015290608082015290565b61089881868686610992565b95945050505050565b60808301516108b09083610a0e565b60808301516108bf9082610a0e565b505050565b6003546000906108de906001600160a01b03168484610a25565b90505b92915050565b6001600160a01b0381163314156109405760405162461bcd60e51b815260206004820152601760248201527f43616e6e6f74207472616e7366657220746f2073656c660000000000000000006044820152606401610242565b600780546001600160a01b0319166001600160a01b03838116918217909255600654604051919216907fed8889f560326eb138920d842192f0eb3dd22b4f139c87a2c57538e05bae127890600090a350565b6109d06040805160a0810182526000808252602080830182905282840182905260608084018390528451808601909552845283015290608082015290565b6109e08560800151610100610ae6565b50508284526001600160a01b03821660208501526001600160e01b031981166040850152835b949350505050565b610a1b8260038351610b4b565b6108bf8282610c5a565b600454600090610a3681600161137e565b600455835160408086015160808701515191516000937f404299460000000000000000000000000000000000000000000000000000000093610a879386938493923092918a91600191602401611396565b60408051601f198184030181529190526020810180517bffffffffffffffffffffffffffffffffffffffffffffffffffffffff166001600160e01b0319909316929092179091529050610adc86838684610c81565b9695505050505050565b604080518082019091526060815260006020820152610b066020836113fa565b15610b2e57610b166020836113fa565b610b2190602061141c565b610b2b908361137e565b91505b506020828101829052604080518085526000815290920101905290565b60178167ffffffffffffffff1611610b70576105028360e0600585901b168317610e21565b60ff8167ffffffffffffffff1611610bae57610b97836018611fe0600586901b1617610e21565b506105028367ffffffffffffffff83166001610e46565b61ffff8167ffffffffffffffff1611610bed57610bd6836019611fe0600586901b1617610e21565b506105028367ffffffffffffffff83166002610e46565b63ffffffff8167ffffffffffffffff1611610c2e57610c1783601a611fe0600586901b1617610e21565b506105028367ffffffffffffffff83166004610e46565b610c4383601b611fe0600586901b1617610e21565b506105028367ffffffffffffffff83166008610e46565b6040805180820190915260608152600060208201526108de83846000015151848551610e6c565b6040516bffffffffffffffffffffffff193060601b1660208201526034810184905260009060540160408051808303601f1901815282825280516020918201206000818152600590925291812080546001600160a01b0319166001600160a01b038a1617905590925082917fb5e6e01e79f91267dc17b4e6314d5d4d03593d2ceee0fbb452b750bd70ea5af99190a26002546040517f4000aea00000000000000000000000000000000000000000000000000000000081526001600160a01b0390911690634000aea090610d5d90889087908790600401611433565b602060405180830381600087803b158015610d7757600080fd5b505af1158015610d8b573d6000803e3d6000fd5b505050506040513d601f19601f82011682018060405250810190610daf919061133f565b610a065760405162461bcd60e51b815260206004820152602360248201527f756e61626c6520746f207472616e73666572416e6443616c6c20746f206f726160448201527f636c6500000000000000000000000000000000000000000000000000000000006064820152608401610242565b6040805180820190915260608152600060208201526108de8384600001515184610f56565b604080518082019091526060815260006020820152610a06848560000151518585610fb2565b6040805180820190915260608152600060208201528251821115610e8f57600080fd5b6020850151610e9e838661137e565b1115610ed157610ed185610ec187602001518786610ebc919061137e565b611033565b610ecc90600261145b565b61104a565b600080865180518760208301019350808887011115610ef05787860182525b505050602084015b60208410610f305780518252610f0f60208361137e565b9150610f1c60208261137e565b9050610f2960208561141c565b9350610ef8565b51815160001960208690036101000a019081169019919091161790525083949350505050565b60408051808201909152606081526000602082015283602001518310610f8b57610f8b8485602001516002610ecc919061145b565b835180516020858301018481535080851415610fa8576001810182525b5093949350505050565b6040805180820190915260608152600060208201526020850151610fd6858461137e565b1115610fea57610fea85610ec1868561137e565b60006001610ffa8461010061155e565b611004919061141c565b90508551838682010185831982511617815250805184870111156110285783860181525b509495945050505050565b6000818311156110445750816108e1565b50919050565b81516110568383610ae6565b506105028382610c5a565b82805461106d9061156a565b90600052602060002090601f01602090048101928261108f57600085556110d5565b82601f106110a85782800160ff198235161785556110d5565b828001600101855582156110d5579182015b828111156110d55782358255916020019190600101906110ba565b506110e19291506110e5565b5090565b5b808211156110e157600081556001016110e6565b6000806000806080858703121561111057600080fd5b5050823594602084013594506040840135936060013592509050565b80356001600160a01b038116811461114357600080fd5b919050565b60006020828403121561115a57600080fd5b6108de8261112c565b60005b8381101561117e578181015183820152602001611166565b838111156105025750506000910152565b600081518084526111a7816020860160208601611163565b601f01601f19169290920160200192915050565b6020815260006108de602083018461118f565b60008083601f8401126111e057600080fd5b50813567ffffffffffffffff8111156111f857600080fd5b60208301915083602082850101111561121057600080fd5b9250929050565b60008060008060008060008060c0898b03121561123357600080fd5b8835975060208901359650604089013567ffffffffffffffff8082111561125957600080fd5b6112658c838d016111ce565b909850965060608b013591508082111561127e57600080fd5b5061128b8b828c016111ce565b909550935061129e905060808a0161112c565b91506112ac60a08a0161112c565b90509295985092959890939650565b7f68747470733a2f2f6170692e706c61792d6b6f6a6f2e78797a2f6170692f666181527f7279732f6c61746573742f00000000000000000000000000000000000000000060208201526000825161131981602b850160208701611163565b91909101602b0192915050565b60006020828403121561133857600080fd5b5051919050565b60006020828403121561135157600080fd5b8151801515811461136157600080fd5b9392505050565b634e487b7160e01b600052601160045260246000fd5b6000821982111561139157611391611368565b500190565b60006101006001600160a01b03808c1684528a60208501528960408501528089166060850152506001600160e01b0319871660808401528560a08401528460c08401528060e08401526113eb8184018561118f565b9b9a5050505050505050505050565b60008261141757634e487b7160e01b600052601260045260246000fd5b500690565b60008282101561142e5761142e611368565b500390565b6001600160a01b0384168152826020820152606060408201526000610898606083018461118f565b600081600019048311821515161561147557611475611368565b500290565b600181815b808511156114b557816000190482111561149b5761149b611368565b808516156114a857918102915b93841c939080029061147f565b509250929050565b6000826114cc575060016108e1565b816114d9575060006108e1565b81600181146114ef57600281146114f957611515565b60019150506108e1565b60ff84111561150a5761150a611368565b50506001821b6108e1565b5060208310610133831016604e8410600b8410161715611538575081810a6108e1565b611542838361147a565b806000190482111561155657611556611368565b029392505050565b60006108de83836114bd565b600181811c9082168061157e57607f821691505b6020821081141561104457634e487b7160e01b600052602260045260246000fdfea2646970667358221220226c814bc65d9b7269bce6608105bd7fc7aecfc9eba6d89ccd0df75dc780499d64736f6c63430008090033496e697469616c697a61626c653a20636f6e747261637420697320616c726561",
  "linkReferences": {},
  "deployedLinkReferences": {}
}