{
  "_format": "hh-sol-artifact-1",
  "contractName": "KojoV1",
  "sourceName": "contracts/KojoV1.sol",
  "abi": [
    {
      "inputs": [],
      "name": "OnlySimulatedBackend",
      "type": "error"
    },
    {
      "anonymous": false,
      "inputs": [
        {
          "indexed": true,
          "internalType": "address",
          "name": "account",
          "type": "address"
        },
        {
          "indexed": true,
          "internalType": "address",
          "name": "operator",
          "type": "address"
        },
        {
          "indexed": false,
          "internalType": "bool",
          "name": "approved",
          "type": "bool"
        }
      ],
      "name": "ApprovalForAll",
      "type": "event"
    },
    {
      "anonymous": false,
      "inputs": [
        {
          "indexed": false,
          "internalType": "uint8",
          "name": "version",
          "type": "uint8"
        }
      ],
      "name": "Initialized",
      "type": "event"
    },
    {
      "anonymous": false,
      "inputs": [
        {
          "indexed": true,
          "internalType": "address",
          "name": "previousOwner",
          "type": "address"
        },
        {
          "indexed": true,
          "internalType": "address",
          "name": "newOwner",
          "type": "address"
        }
      ],
      "name": "OwnershipTransferred",
      "type": "event"
    },
    {
      "anonymous": false,
      "inputs": [
        {
          "components": [
            {
              "internalType": "uint256",
              "name": "level",
              "type": "uint256"
            },
            {
              "internalType": "uint256",
              "name": "experiencePoints",
              "type": "uint256"
            },
            {
              "internalType": "uint256",
              "name": "timestamp",
              "type": "uint256"
            },
            {
              "internalType": "uint256[]",
              "name": "plantIds",
              "type": "uint256[]"
            },
            {
              "internalType": "uint256",
              "name": "allowedTokenBalance",
              "type": "uint256"
            },
            {
              "internalType": "bool",
              "name": "isPresent",
              "type": "bool"
            }
          ],
          "indexed": false,
          "internalType": "struct Structs.Participant",
          "name": "participant",
          "type": "tuple"
        },
        {
          "components": [
            {
              "internalType": "uint256",
              "name": "typeId",
              "type": "uint256"
            },
            {
              "internalType": "uint256",
              "name": "level",
              "type": "uint256"
            },
            {
              "internalType": "uint256",
              "name": "experiencePoints",
              "type": "uint256"
            },
            {
              "internalType": "uint256",
              "name": "lifes",
              "type": "uint256"
            },
            {
              "internalType": "uint256",
              "name": "levelCost",
              "type": "uint256"
            },
            {
              "internalType": "bool",
              "name": "isPresent",
              "type": "bool"
            }
          ],
          "indexed": false,
          "internalType": "struct Structs.Plant",
          "name": "plant",
          "type": "tuple"
        }
      ],
      "name": "PlantMinted",
      "type": "event"
    },
    {
      "anonymous": false,
      "inputs": [
        {
          "components": [
            {
              "internalType": "uint256",
              "name": "level",
              "type": "uint256"
            },
            {
              "internalType": "uint256",
              "name": "experiencePoints",
              "type": "uint256"
            },
            {
              "internalType": "uint256",
              "name": "timestamp",
              "type": "uint256"
            },
            {
              "internalType": "uint256[]",
              "name": "plantIds",
              "type": "uint256[]"
            },
            {
              "internalType": "uint256",
              "name": "allowedTokenBalance",
              "type": "uint256"
            },
            {
              "internalType": "bool",
              "name": "isPresent",
              "type": "bool"
            }
          ],
          "indexed": false,
          "internalType": "struct Structs.Participant",
          "name": "participant",
          "type": "tuple"
        },
        {
          "components": [
            {
              "internalType": "uint256",
              "name": "typeId",
              "type": "uint256"
            },
            {
              "internalType": "uint256",
              "name": "level",
              "type": "uint256"
            },
            {
              "internalType": "uint256",
              "name": "experiencePoints",
              "type": "uint256"
            },
            {
              "internalType": "uint256",
              "name": "lifes",
              "type": "uint256"
            },
            {
              "internalType": "uint256",
              "name": "levelCost",
              "type": "uint256"
            },
            {
              "internalType": "bool",
              "name": "isPresent",
              "type": "bool"
            }
          ],
          "indexed": false,
          "internalType": "struct Structs.Plant",
          "name": "plant",
          "type": "tuple"
        }
      ],
      "name": "PlantWatered",
      "type": "event"
    },
    {
      "anonymous": false,
      "inputs": [
        {
          "components": [
            {
              "internalType": "uint256",
              "name": "level",
              "type": "uint256"
            },
            {
              "internalType": "uint256",
              "name": "experiencePoints",
              "type": "uint256"
            },
            {
              "internalType": "uint256",
              "name": "timestamp",
              "type": "uint256"
            },
            {
              "internalType": "uint256[]",
              "name": "plantIds",
              "type": "uint256[]"
            },
            {
              "internalType": "uint256",
              "name": "allowedTokenBalance",
              "type": "uint256"
            },
            {
              "internalType": "bool",
              "name": "isPresent",
              "type": "bool"
            }
          ],
          "indexed": false,
          "internalType": "struct Structs.Participant",
          "name": "participant",
          "type": "tuple"
        },
        {
          "indexed": false,
          "internalType": "uint256",
          "name": "amount",
          "type": "uint256"
        }
      ],
      "name": "TokensClaimed",
      "type": "event"
    },
    {
      "anonymous": false,
      "inputs": [
        {
          "indexed": true,
          "internalType": "address",
          "name": "operator",
          "type": "address"
        },
        {
          "indexed": true,
          "internalType": "address",
          "name": "from",
          "type": "address"
        },
        {
          "indexed": true,
          "internalType": "address",
          "name": "to",
          "type": "address"
        },
        {
          "indexed": false,
          "internalType": "uint256[]",
          "name": "ids",
          "type": "uint256[]"
        },
        {
          "indexed": false,
          "internalType": "uint256[]",
          "name": "values",
          "type": "uint256[]"
        }
      ],
      "name": "TransferBatch",
      "type": "event"
    },
    {
      "anonymous": false,
      "inputs": [
        {
          "indexed": true,
          "internalType": "address",
          "name": "operator",
          "type": "address"
        },
        {
          "indexed": true,
          "internalType": "address",
          "name": "from",
          "type": "address"
        },
        {
          "indexed": true,
          "internalType": "address",
          "name": "to",
          "type": "address"
        },
        {
          "indexed": false,
          "internalType": "uint256",
          "name": "id",
          "type": "uint256"
        },
        {
          "indexed": false,
          "internalType": "uint256",
          "name": "value",
          "type": "uint256"
        }
      ],
      "name": "TransferSingle",
      "type": "event"
    },
    {
      "anonymous": false,
      "inputs": [
        {
          "indexed": false,
          "internalType": "string",
          "name": "value",
          "type": "string"
        },
        {
          "indexed": true,
          "internalType": "uint256",
          "name": "id",
          "type": "uint256"
        }
      ],
      "name": "URI",
      "type": "event"
    },
    {
      "inputs": [
        {
          "internalType": "address",
          "name": "account",
          "type": "address"
        },
        {
          "internalType": "uint256",
          "name": "id",
          "type": "uint256"
        }
      ],
      "name": "balanceOf",
      "outputs": [
        {
          "internalType": "uint256",
          "name": "",
          "type": "uint256"
        }
      ],
      "stateMutability": "view",
      "type": "function"
    },
    {
      "inputs": [
        {
          "internalType": "address[]",
          "name": "accounts",
          "type": "address[]"
        },
        {
          "internalType": "uint256[]",
          "name": "ids",
          "type": "uint256[]"
        }
      ],
      "name": "balanceOfBatch",
      "outputs": [
        {
          "internalType": "uint256[]",
          "name": "",
          "type": "uint256[]"
        }
      ],
      "stateMutability": "view",
      "type": "function"
    },
    {
      "inputs": [],
      "name": "burnAddress",
      "outputs": [
        {
          "internalType": "address",
          "name": "",
          "type": "address"
        }
      ],
      "stateMutability": "view",
      "type": "function"
    },
    {
      "inputs": [
        {
          "internalType": "bytes",
          "name": "checkData",
          "type": "bytes"
        }
      ],
      "name": "checkUpkeep",
      "outputs": [
        {
          "internalType": "bool",
          "name": "upkeepNeeded",
          "type": "bool"
        },
        {
          "internalType": "bytes",
          "name": "performData",
          "type": "bytes"
        }
      ],
      "stateMutability": "view",
      "type": "function"
    },
    {
      "inputs": [],
      "name": "contractURI",
      "outputs": [
        {
          "internalType": "string",
          "name": "",
          "type": "string"
        }
      ],
      "stateMutability": "pure",
      "type": "function"
    },
    {
      "inputs": [
        {
          "internalType": "uint256",
          "name": "id",
          "type": "uint256"
        }
      ],
      "name": "exists",
      "outputs": [
        {
          "internalType": "bool",
          "name": "",
          "type": "bool"
        }
      ],
      "stateMutability": "view",
      "type": "function"
    },
    {
      "inputs": [],
      "name": "fungibleTokenId",
      "outputs": [
        {
          "internalType": "uint256",
          "name": "",
          "type": "uint256"
        }
      ],
      "stateMutability": "view",
      "type": "function"
    },
    {
      "inputs": [],
      "name": "handleBuyPlant",
      "outputs": [],
      "stateMutability": "payable",
      "type": "function"
    },
    {
      "inputs": [],
      "name": "handleClaimMonthlyReward",
      "outputs": [],
      "stateMutability": "nonpayable",
      "type": "function"
    },
    {
      "inputs": [],
      "name": "handleClaimStartTokens",
      "outputs": [],
      "stateMutability": "payable",
      "type": "function"
    },
    {
      "inputs": [],
      "name": "handleReadInititalAllowance",
      "outputs": [
        {
          "internalType": "uint256",
          "name": "",
          "type": "uint256"
        }
      ],
      "stateMutability": "view",
      "type": "function"
    },
    {
      "inputs": [
        {
          "internalType": "address",
          "name": "account",
          "type": "address"
        }
      ],
      "name": "handleReadParticipant",
      "outputs": [
        {
          "components": [
            {
              "internalType": "uint256",
              "name": "level",
              "type": "uint256"
            },
            {
              "internalType": "uint256",
              "name": "experiencePoints",
              "type": "uint256"
            },
            {
              "internalType": "uint256",
              "name": "timestamp",
              "type": "uint256"
            },
            {
              "internalType": "uint256[]",
              "name": "plantIds",
              "type": "uint256[]"
            },
            {
              "internalType": "uint256",
              "name": "allowedTokenBalance",
              "type": "uint256"
            },
            {
              "internalType": "bool",
              "name": "isPresent",
              "type": "bool"
            }
          ],
          "internalType": "struct Structs.Participant",
          "name": "",
          "type": "tuple"
        }
      ],
      "stateMutability": "view",
      "type": "function"
    },
    {
      "inputs": [],
      "name": "handleReadParticipantAddresses",
      "outputs": [
        {
          "internalType": "address[]",
          "name": "",
          "type": "address[]"
        }
      ],
      "stateMutability": "view",
      "type": "function"
    },
    {
      "inputs": [],
      "name": "handleReadParticipantLevelCost",
      "outputs": [
        {
          "internalType": "uint256",
          "name": "",
          "type": "uint256"
        }
      ],
      "stateMutability": "view",
      "type": "function"
    },
    {
      "inputs": [
        {
          "internalType": "uint256",
          "name": "tokenId",
          "type": "uint256"
        }
      ],
      "name": "handleReadPlant",
      "outputs": [
        {
          "components": [
            {
              "internalType": "uint256",
              "name": "typeId",
              "type": "uint256"
            },
            {
              "internalType": "uint256",
              "name": "level",
              "type": "uint256"
            },
            {
              "internalType": "uint256",
              "name": "experiencePoints",
              "type": "uint256"
            },
            {
              "internalType": "uint256",
              "name": "lifes",
              "type": "uint256"
            },
            {
              "internalType": "uint256",
              "name": "levelCost",
              "type": "uint256"
            },
            {
              "internalType": "bool",
              "name": "isPresent",
              "type": "bool"
            }
          ],
          "internalType": "struct Structs.Plant",
          "name": "",
          "type": "tuple"
        }
      ],
      "stateMutability": "view",
      "type": "function"
    },
    {
      "inputs": [
        {
          "internalType": "address",
          "name": "_store",
          "type": "address"
        },
        {
          "internalType": "address",
          "name": "_utils",
          "type": "address"
        },
        {
          "internalType": "address",
          "name": "_api",
          "type": "address"
        },
        {
          "internalType": "address",
          "name": "_burn",
          "type": "address"
        }
      ],
      "name": "handleUpdateContracts",
      "outputs": [],
      "stateMutability": "nonpayable",
      "type": "function"
    },
    {
      "inputs": [
        {
          "internalType": "uint256",
          "name": "tokenId",
          "type": "uint256"
        },
        {
          "internalType": "uint256",
          "name": "amount",
          "type": "uint256"
        }
      ],
      "name": "handleWaterPlant",
      "outputs": [],
      "stateMutability": "payable",
      "type": "function"
    },
    {
      "inputs": [
        {
          "internalType": "address",
          "name": "_store",
          "type": "address"
        },
        {
          "internalType": "address",
          "name": "_utils",
          "type": "address"
        },
        {
          "internalType": "address",
          "name": "_api",
          "type": "address"
        },
        {
          "internalType": "address",
          "name": "_burn",
          "type": "address"
        }
      ],
      "name": "initialize",
      "outputs": [],
      "stateMutability": "nonpayable",
      "type": "function"
    },
    {
      "inputs": [
        {
          "internalType": "address",
          "name": "_owner",
          "type": "address"
        },
        {
          "internalType": "address",
          "name": "_operator",
          "type": "address"
        }
      ],
      "name": "isApprovedForAll",
      "outputs": [
        {
          "internalType": "bool",
          "name": "isOperator",
          "type": "bool"
        }
      ],
      "stateMutability": "view",
      "type": "function"
    },
    {
      "inputs": [
        {
          "internalType": "address",
          "name": "to",
          "type": "address"
        },
        {
          "internalType": "uint256[]",
          "name": "ids",
          "type": "uint256[]"
        },
        {
          "internalType": "uint256[]",
          "name": "amounts",
          "type": "uint256[]"
        },
        {
          "internalType": "bytes",
          "name": "data",
          "type": "bytes"
        }
      ],
      "name": "mintBatch",
      "outputs": [],
      "stateMutability": "nonpayable",
      "type": "function"
    },
    {
      "inputs": [],
      "name": "nonFungibleTokenCount",
      "outputs": [
        {
          "internalType": "uint256",
          "name": "",
          "type": "uint256"
        }
      ],
      "stateMutability": "view",
      "type": "function"
    },
    {
      "inputs": [
        {
          "internalType": "address",
          "name": "",
          "type": "address"
        },
        {
          "internalType": "address",
          "name": "",
          "type": "address"
        },
        {
          "internalType": "uint256[]",
          "name": "",
          "type": "uint256[]"
        },
        {
          "internalType": "uint256[]",
          "name": "",
          "type": "uint256[]"
        },
        {
          "internalType": "bytes",
          "name": "",
          "type": "bytes"
        }
      ],
      "name": "onERC1155BatchReceived",
      "outputs": [
        {
          "internalType": "bytes4",
          "name": "",
          "type": "bytes4"
        }
      ],
      "stateMutability": "nonpayable",
      "type": "function"
    },
    {
      "inputs": [
        {
          "internalType": "address",
          "name": "",
          "type": "address"
        },
        {
          "internalType": "address",
          "name": "",
          "type": "address"
        },
        {
          "internalType": "uint256",
          "name": "",
          "type": "uint256"
        },
        {
          "internalType": "uint256",
          "name": "",
          "type": "uint256"
        },
        {
          "internalType": "bytes",
          "name": "",
          "type": "bytes"
        }
      ],
      "name": "onERC1155Received",
      "outputs": [
        {
          "internalType": "bytes4",
          "name": "",
          "type": "bytes4"
        }
      ],
      "stateMutability": "nonpayable",
      "type": "function"
    },
    {
      "inputs": [],
      "name": "owner",
      "outputs": [
        {
          "internalType": "address",
          "name": "",
          "type": "address"
        }
      ],
      "stateMutability": "view",
      "type": "function"
    },
    {
      "inputs": [
        {
          "internalType": "bytes",
          "name": "performData",
          "type": "bytes"
        }
      ],
      "name": "performUpkeep",
      "outputs": [],
      "stateMutability": "nonpayable",
      "type": "function"
    },
    {
      "inputs": [],
      "name": "renounceOwnership",
      "outputs": [],
      "stateMutability": "nonpayable",
      "type": "function"
    },
    {
      "inputs": [
        {
          "internalType": "address",
          "name": "from",
          "type": "address"
        },
        {
          "internalType": "address",
          "name": "to",
          "type": "address"
        },
        {
          "internalType": "uint256[]",
          "name": "ids",
          "type": "uint256[]"
        },
        {
          "internalType": "uint256[]",
          "name": "amounts",
          "type": "uint256[]"
        },
        {
          "internalType": "bytes",
          "name": "data",
          "type": "bytes"
        }
      ],
      "name": "safeBatchTransferFrom",
      "outputs": [],
      "stateMutability": "nonpayable",
      "type": "function"
    },
    {
      "inputs": [
        {
          "internalType": "address",
          "name": "from",
          "type": "address"
        },
        {
          "internalType": "address",
          "name": "to",
          "type": "address"
        },
        {
          "internalType": "uint256",
          "name": "id",
          "type": "uint256"
        },
        {
          "internalType": "uint256",
          "name": "amount",
          "type": "uint256"
        },
        {
          "internalType": "bytes",
          "name": "data",
          "type": "bytes"
        }
      ],
      "name": "safeTransferFrom",
      "outputs": [],
      "stateMutability": "nonpayable",
      "type": "function"
    },
    {
      "inputs": [
        {
          "internalType": "address",
          "name": "operator",
          "type": "address"
        },
        {
          "internalType": "bool",
          "name": "approved",
          "type": "bool"
        }
      ],
      "name": "setApprovalForAll",
      "outputs": [],
      "stateMutability": "nonpayable",
      "type": "function"
    },
    {
      "inputs": [
        {
          "internalType": "string",
          "name": "newuri",
          "type": "string"
        }
      ],
      "name": "setURI",
      "outputs": [],
      "stateMutability": "nonpayable",
      "type": "function"
    },
    {
      "inputs": [
        {
          "internalType": "bytes4",
          "name": "interfaceId",
          "type": "bytes4"
        }
      ],
      "name": "supportsInterface",
      "outputs": [
        {
          "internalType": "bool",
          "name": "",
          "type": "bool"
        }
      ],
      "stateMutability": "view",
      "type": "function"
    },
    {
      "inputs": [
        {
          "internalType": "uint256",
          "name": "id",
          "type": "uint256"
        }
      ],
      "name": "totalSupply",
      "outputs": [
        {
          "internalType": "uint256",
          "name": "",
          "type": "uint256"
        }
      ],
      "stateMutability": "view",
      "type": "function"
    },
    {
      "inputs": [
        {
          "internalType": "address",
          "name": "newOwner",
          "type": "address"
        }
      ],
      "name": "transferOwnership",
      "outputs": [],
      "stateMutability": "nonpayable",
      "type": "function"
    },
    {
      "inputs": [
        {
          "internalType": "uint256",
          "name": "tokenId",
          "type": "uint256"
        }
      ],
      "name": "uri",
      "outputs": [
        {
          "internalType": "string",
          "name": "",
          "type": "string"
        }
      ],
      "stateMutability": "view",
      "type": "function"
    },
    {
      "inputs": [],
      "name": "withdrawKojos",
      "outputs": [],
      "stateMutability": "payable",
      "type": "function"
    }
  ],
  "bytecode": "0x60806040523480156200001157600080fd5b506200001c62000022565b62000152565b6200002e60ff62000031565b50565b60008054610100900460ff1615620000ca578160ff1660011480156200006a575062000068306200014360201b620022c31760201c565b155b620000c25760405162461bcd60e51b815260206004820152602e60248201526000805160206200468c83398151915260448201526d191e481a5b9a5d1a585b1a5e995960921b60648201526084015b60405180910390fd5b506000919050565b60005460ff808416911610620001295760405162461bcd60e51b815260206004820152602e60248201526000805160206200468c83398151915260448201526d191e481a5b9a5d1a585b1a5e995960921b6064820152608401620000b9565b506000805460ff191660ff92909216919091179055600190565b6001600160a01b03163b151590565b61452a80620001626000396000f3fe6080604052600436106102035760003560e01c806370d5ae0511610118578063e5999139116100a0578063f242432a1161006f578063f242432a14610611578063f2fde38b14610631578063f8c8765e14610651578063fabe6b3c14610671578063fc57ca291461067957600080fd5b8063e599913914610583578063e8a3d485146105b0578063e985e9c5146105c5578063f23a6e61146105e557600080fd5b8063a22cb465116100e7578063a22cb465146104d1578063b4daaf55146104f1578063bacb7dc014610508578063bc197c8114610510578063bd85b0391461055557600080fd5b806370d5ae051461045d578063715018a6146104965780638da5cb5b146104ab5780639c3423b1146104c957600080fd5b806326fad7771161019b5780634e1273f41161016a5780634e1273f4146103a85780634f558e79146103d5578063584c7b37146104055780636c7ff22e1461041a5780636e04ff0d1461042f57600080fd5b806326fad7771461032f5780632eb2c2d6146103515780634585e33b1461037157806345e8eca81461039157600080fd5b8063121a80bf116101d7578063121a80bf146102ba5780631f79087b146102cf5780631f7fdffa146102e25780631fec8c021461030257600080fd5b8062fdd58e1461020857806301ffc9a71461023b57806302fe53051461026b5780630e89341c1461028d575b600080fd5b34801561021457600080fd5b506102286102233660046133d8565b610699565b6040519081526020015b60405180910390f35b34801561024757600080fd5b5061025b61025636600461341a565b610735565b6040519015158152602001610232565b34801561027757600080fd5b5061028b61028636600461350b565b610740565b005b34801561029957600080fd5b506102ad6102a836600461355b565b610795565b60405161023291906135cc565b3480156102c657600080fd5b50610228610838565b61028b6102dd3660046135df565b6109aa565b3480156102ee57600080fd5b5061028b6102fd3660046136b5565b610ecf565b34801561030e57600080fd5b5061032261031d36600461355b565b610f2a565b604051610232919061378b565b34801561033b57600080fd5b50610344610fd3565b6040516102329190613799565b34801561035d57600080fd5b5061028b61036c3660046137e6565b61104b565b34801561037d57600080fd5b5061028b61038c366004613893565b6110f4565b34801561039d57600080fd5b506102286101615481565b3480156103b457600080fd5b506103c86103c3366004613904565b61141c565b6040516102329190613a0b565b3480156103e157600080fd5b5061025b6103f036600461355b565b600090815261012d6020526040902054151590565b34801561041157600080fd5b50610228611545565b34801561042657600080fd5b5061028b6115b4565b34801561043b57600080fd5b5061044f61044a366004613893565b6117bc565b604051610232929190613a1e565b34801561046957600080fd5b506101655461047e906001600160a01b031681565b6040516001600160a01b039091168152602001610232565b3480156104a257600080fd5b5061028b611934565b3480156104b757600080fd5b506097546001600160a01b031661047e565b61028b611989565b3480156104dd57600080fd5b5061028b6104ec366004613a47565b611b75565b3480156104fd57600080fd5b506102286101605481565b61028b611b87565b34801561051c57600080fd5b5061053c61052b3660046137e6565b63bc197c8160e01b95945050505050565b6040516001600160e01b03199091168152602001610232565b34801561056157600080fd5b5061022861057036600461355b565b600090815261012d602052604090205490565b34801561058f57600080fd5b506105a361059e366004613a80565b611c09565b6040516102329190613af2565b3480156105bc57600080fd5b506102ad611cb7565b3480156105d157600080fd5b5061025b6105e0366004613b05565b611cd7565b3480156105f157600080fd5b5061053c610600366004613b33565b63f23a6e6160e01b95945050505050565b34801561061d57600080fd5b5061028b61062c366004613b33565b611d37565b34801561063d57600080fd5b5061028b61064c366004613a80565b611dd0565b34801561065d57600080fd5b5061028b61066c366004613b9b565b611e87565b61028b611f4d565b34801561068557600080fd5b5061028b610694366004613b9b565b612226565b60006001600160a01b03831661070a5760405162461bcd60e51b815260206004820152602b60248201527f455243313135353a2062616c616e636520717565727920666f7220746865207a60448201526a65726f206164647265737360a81b60648201526084015b60405180910390fd5b5060008181526065602090815260408083206001600160a01b03861684529091529020545b92915050565b600061072f826122d2565b6107486122f7565b6001600160a01b03166107636097546001600160a01b031690565b6001600160a01b0316146107895760405162461bcd60e51b815260040161070190613bf7565b61079281612301565b50565b600081815261015f602052604090208054606091906107b390613c2c565b80601f01602080910402602001604051908101604052809291908181526020018280546107df90613c2c565b801561082c5780601f106108015761010080835404028352916020019161082c565b820191906000526020600020905b81548152906001019060200180831161080f57829003601f168201915b50505050509050919050565b60008061016260009054906101000a90046001600160a01b03166001600160a01b031663245e41f46040518163ffffffff1660e01b8152600401602060405180830381865afa15801561088f573d6000803e3d6000fd5b505050506040513d601f19601f820116820180604052508101906108b39190613c67565b6101625460405163e599913960e01b81523360048201529192506000916001600160a01b039091169063e599913990602401600060405180830381865afa158015610902573d6000803e3d6000fd5b505050506040513d6000823e601f3d908101601f1916820160405261092a9190810190613c8b565b610163548151604051632424a0e960e01b81526004810186905260248101919091529192506001600160a01b031690632424a0e990604401602060405180830381865afa15801561097f573d6000803e3d6000fd5b505050506040513d601f19601f820116820180604052508101906109a39190613c67565b9250505090565b3233146109c95760405162461bcd60e51b815260040161070190613d92565b6101625460405163e599913960e01b81523360048201526000916001600160a01b03169063e599913990602401600060405180830381865afa158015610a13573d6000803e3d6000fd5b505050506040513d6000823e601f3d908101601f19168201604052610a3b9190810190613c8b565b61016254604051630ff6460160e11b8152600481018690529192506000916001600160a01b0390911690631fec8c029060240160c060405180830381865afa158015610a8b573d6000803e3d6000fd5b505050506040513d601f19601f82011682018060405250810190610aaf9190613db7565b90508160a00151610ad25760405162461bcd60e51b815260040161070190613e36565b8060a00151610b1b5760405162461bcd60e51b8152602060048201526015602482015274283630b73a103237b2b9903737ba1032bc34b9ba1760591b6044820152606401610701565b6000610b2a3361016054610699565b905083811015610b8a5760405162461bcd60e51b815260206004820152602560248201527f4e6f7420656e6f756768206b6f6a6f7320746f20776174657220796f757220706044820152643630b73a1760d91b6064820152608401610701565b6000610b94610838565b6101635460405163589d26e760e11b81529192506000916001600160a01b039091169063b13a4dce90610bcf9088908a908790600401613e6d565b600060405180830381865afa158015610bec573d6000803e3d6000fd5b505050506040513d6000823e601f3d908101601f19168201604052610c149190810190613c8b565b6101635460405163348fd32360e11b81529192506000916001600160a01b039091169063691fa64690610c4d9088908b90600401613e92565b60c060405180830381865afa158015610c6a573d6000803e3d6000fd5b505050506040513d601f19601f82011682018060405250810190610c8e9190613db7565b610162546040516305518f8360e11b81529192506001600160a01b031690630aa31f0690610cc29033908690600401613ead565b6000604051808303816000875af1158015610ce1573d6000803e3d6000fd5b505050506040513d6000823e601f3d908101601f19168201604052610d099190810190613c8b565b50610162546040516315485de360e01b81526001600160a01b03909116906315485de390610d3d908b908590600401613ed1565b60c0604051808303816000875af1158015610d5c573d6000803e3d6000fd5b505050506040513d601f19601f82011682018060405250810190610d809190613db7565b5061016354604051637182817b60e01b81526000916001600160a01b031690637182817b90610db390859060040161378b565b600060405180830381865afa158015610dd0573d6000803e3d6000fd5b505050506040513d6000823e601f3d908101601f19168201604052610df89190810190613ee5565b9050610e048982612314565b60006064610e138a6002613f7c565b610e1d9190613f9b565b905060006064610e2e8b6062613f7c565b610e389190613f9b565b9050610e593330610160548560405180602001604052806000815250611d37565b6101655461016054604080516020810190915260008152610e899233926001600160a01b03909116918590611d37565b7f7a47fe3cbe372ae400eb6e38c14ba1be808444d1bc51ac622185fd55b08b1a788585604051610eba929190613fbd565b60405180910390a15050505050505050505050565b610ed76122f7565b6001600160a01b0316610ef26097546001600160a01b031690565b6001600160a01b031614610f185760405162461bcd60e51b815260040161070190613bf7565b610f2484848484612339565b50505050565b610f656040518060c0016040528060008152602001600081526020016000815260200160008152602001600081526020016000151581525090565b61016254604051630ff6460160e11b8152600481018490526001600160a01b0390911690631fec8c029060240160c060405180830381865afa158015610faf573d6000803e3d6000fd5b505050506040513d601f19601f8201168201806040525081019061072f9190613db7565b61016254604080516326fad77760e01b815290516060926001600160a01b0316916326fad7779160048083019260009291908290030181865afa15801561101e573d6000803e3d6000fd5b505050506040513d6000823e601f3d908101601f191682016040526110469190810190613fdf565b905090565b6110536122f7565b6001600160a01b0316856001600160a01b031614806110795750611079856105e06122f7565b6110e05760405162461bcd60e51b815260206004820152603260248201527f455243313135353a207472616e736665722063616c6c6572206973206e6f74206044820152711bdddb995c881b9bdc88185c1c1c9bdd995960721b6064820152608401610701565b6110ed858585858561249f565b5050505050565b61016254604080516326fad77760e01b815290516000926001600160a01b0316916326fad77791600480830192869291908290030181865afa15801561113e573d6000803e3d6000fd5b505050506040513d6000823e601f3d908101601f191682016040526111669190810190613fdf565b905060005b8151811015610f2457600082828151811061118857611188614083565b60209081029190910101516101625460405163e599913960e01b81526001600160a01b0380841660048301529293506000929091169063e599913990602401600060405180830381865afa1580156111e4573d6000803e3d6000fd5b505050506040513d6000823e601f3d908101601f1916820160405261120c9190810190613c8b565b90508060a001518015611223575080604001514210155b156114075761016354604051632b65311f60e11b81526001600160a01b03848116600483015260009216906356ca623e90602401600060405180830381865afa158015611274573d6000803e3d6000fd5b505050506040513d6000823e601f3d908101601f1916820160405261129c9190810190613ee5565b61016454604051634471377560e11b81529192506001600160a01b0316906388e26eea906112ce9084906004016135cc565b600060405180830381600087803b1580156112e857600080fd5b505af11580156112fc573d6000803e3d6000fd5b5050505061016260009054906101000a90046001600160a01b03166001600160a01b031663745894346040518163ffffffff1660e01b8152600401602060405180830381865afa158015611354573d6000803e3d6000fd5b505050506040513d601f19601f820116820180604052508101906113789190613c67565b6113829042614099565b6040808401919091526101625490516305518f8360e11b81526001600160a01b0390911690630aa31f06906113bd9086908690600401613ead565b6000604051808303816000875af11580156113dc573d6000803e3d6000fd5b505050506040513d6000823e601f3d908101601f191682016040526114049190810190613c8b565b50505b50508080611414906140b1565b91505061116b565b606081518351146114815760405162461bcd60e51b815260206004820152602960248201527f455243313135353a206163636f756e747320616e6420696473206c656e677468604482015268040dad2e6dac2e8c6d60bb1b6064820152608401610701565b600083516001600160401b0381111561149c5761149c613437565b6040519080825280602002602001820160405280156114c5578160200160208202803683370190505b50905060005b845181101561153d576115108582815181106114e9576114e9614083565b602002602001015185838151811061150357611503614083565b6020026020010151610699565b82828151811061152257611522614083565b6020908102919091010152611536816140b1565b90506114cb565b509392505050565b6101625460408051631bca55e560e01b815290516000926001600160a01b031691631bca55e59160048083019260209291908290030181865afa158015611590573d6000803e3d6000fd5b505050506040513d601f19601f820116820180604052508101906110469190613c67565b3233146115d35760405162461bcd60e51b815260040161070190613d92565b6101625460405163e599913960e01b81523360048201526000916001600160a01b03169063e599913990602401600060405180830381865afa15801561161d573d6000803e3d6000fd5b505050506040513d6000823e601f3d908101601f191682016040526116459190810190613c8b565b90508060a001516116685760405162461bcd60e51b815260040161070190613e36565b60008160800151116116d85760405162461bcd60e51b815260206004820152603360248201527f5061727469636970616e7420646f65736e2774206861766520616c6c6f77616e60448201527231b2903a379031b630b4b6903a37b5b2b7399760691b6064820152608401610701565b6116fa3361016054836080015160405180602001604052806000815250612657565b7f9014d2efd8c9aeeb2f911acca5d3df29a9f7b10b6566664cd0367c9cbd4c41d181826080015160405161172f9291906140cc565b60405180910390a160006080820152610162546040516305518f8360e11b81526001600160a01b0390911690630aa31f06906117719033908590600401613ead565b6000604051808303816000875af1158015611790573d6000803e3d6000fd5b505050506040513d6000823e601f3d908101601f191682016040526117b89190810190613c8b565b5050565b60006060600061016260009054906101000a90046001600160a01b03166001600160a01b03166326fad7776040518163ffffffff1660e01b8152600401600060405180830381865afa158015611816573d6000803e3d6000fd5b505050506040513d6000823e601f3d908101601f1916820160405261183e9190810190613fdf565b905060005b815181101561191a57600082828151811061186057611860614083565b60209081029190910101516101625460405163e599913960e01b81526001600160a01b0380841660048301529293506000929091169063e599913990602401600060405180830381865afa1580156118bc573d6000803e3d6000fd5b505050506040513d6000823e601f3d908101601f191682016040526118e49190810190613c8b565b90508060a0015180156118fb575080604001514210155b1561190557600195505b50508080611912906140b1565b915050611843565b505060408051602081019091526000815290509250929050565b61193c6122f7565b6001600160a01b03166119576097546001600160a01b031690565b6001600160a01b03161461197d5760405162461bcd60e51b815260040161070190613bf7565b611987600061274d565b565b3233146119a85760405162461bcd60e51b815260040161070190613d92565b6101625460405163e599913960e01b81523360048201526000916001600160a01b03169063e599913990602401600060405180830381865afa1580156119f2573d6000803e3d6000fd5b505050506040513d6000823e601f3d908101601f19168201604052611a1a9190810190613c8b565b90508060a00151611a3d5760405162461bcd60e51b815260040161070190613e36565b6000611a4c3361016054610699565b905061016260009054906101000a90046001600160a01b03166001600160a01b03166358ac00386040518163ffffffff1660e01b8152600401602060405180830381865afa158015611aa2573d6000803e3d6000fd5b505050506040513d601f19601f82011682018060405250810190611ac69190613c67565b811015611b275760405162461bcd60e51b815260206004820152602960248201527f4e6f7420656e6f756768206b6f6a6f732e204f6e6520706c616e7420636f73746044820152683990189035b7b5379760b91b6064820152608401610701565b600080611b3261279f565b915091507f1d433c6c2abd3bf2a6cfd16acdabe4e34bbd292e7d77e2eb09493bd781e2f4ae8282604051611b67929190613fbd565b60405180910390a150505050565b6117b8611b806122f7565b8383612abc565b611b8f6122f7565b6001600160a01b0316611baa6097546001600160a01b031690565b6001600160a01b031614611bd05760405162461bcd60e51b815260040161070190613bf7565b61198730611be66097546001600160a01b031690565b61016054611bf43082610699565b60405180602001604052806000815250611d37565b611c446040518060c0016040528060008152602001600081526020016000815260200160608152602001600081526020016000151581525090565b6101625460405163e599913960e01b81526001600160a01b0384811660048301529091169063e599913990602401600060405180830381865afa158015611c8f573d6000803e3d6000fd5b505050506040513d6000823e601f3d908101601f1916820160405261072f9190810190613c8b565b60606040518060800160405280604381526020016144b260439139905090565b60006001600160a01b03821673207fa8df3a17d96ca7ea4f2893fcdcb78a3041011415611d065750600161072f565b6001600160a01b0380841660009081526066602090815260408083209386168352929052205460ff165b9392505050565b611d3f6122f7565b6001600160a01b0316856001600160a01b03161480611d655750611d65856105e06122f7565b611dc35760405162461bcd60e51b815260206004820152602960248201527f455243313135353a2063616c6c6572206973206e6f74206f776e6572206e6f7260448201526808185c1c1c9bdd995960ba1b6064820152608401610701565b6110ed8585858585612b9d565b611dd86122f7565b6001600160a01b0316611df36097546001600160a01b031690565b6001600160a01b031614611e195760405162461bcd60e51b815260040161070190613bf7565b6001600160a01b038116611e7e5760405162461bcd60e51b815260206004820152602660248201527f4f776e61626c653a206e6577206f776e657220697320746865207a65726f206160448201526564647265737360d01b6064820152608401610701565b6107928161274d565b6000611e936001612ce4565b90508015611eab576000805461ff0019166101001790555b611eb3612d71565b61016280546001600160a01b038088166001600160a01b0319928316179092556101638054878416908316179055610164805486841690831617905561016580549285169290911691909117905580156110ed576000805461ff0019169055604051600181527f7f26b83ff96e1f2b6a682f133852f6798a09c465da95921460cefb38474024989060200160405180910390a15050505050565b323314611f6c5760405162461bcd60e51b815260040161070190613d92565b6101625460405163e599913960e01b81523360048201526000916001600160a01b03169063e599913990602401600060405180830381865afa158015611fb6573d6000803e3d6000fd5b505050506040513d6000823e601f3d908101601f19168201604052611fde9190810190613c8b565b90508060a00151156120675760405162461bcd60e51b815260206004820152604660248201527f5061727469636970616e7420616c7265616479206578697374732e20596f752060448201527f63616e206f6e6c7920636c61696d20796f757220696e7469616c206b6f6a6f736064820152651037b731b29760d11b608482015260a401610701565b610162546040516311622ce560e01b81523360048201526000916001600160a01b0316906311622ce5906024016000604051808303816000875af11580156120b3573d6000803e3d6000fd5b505050506040513d6000823e601f3d908101601f191682016040526120db9190810190613c8b565b9050612172336101605461016260009054906101000a90046001600160a01b03166001600160a01b0316631bca55e56040518163ffffffff1660e01b8152600401602060405180830381865afa158015612139573d6000803e3d6000fd5b505050506040513d601f19601f8201168201806040525081019061215d9190613c67565b60405180602001604052806000815250612657565b7f9014d2efd8c9aeeb2f911acca5d3df29a9f7b10b6566664cd0367c9cbd4c41d18161016260009054906101000a90046001600160a01b03166001600160a01b0316631bca55e56040518163ffffffff1660e01b8152600401602060405180830381865afa1580156121e8573d6000803e3d6000fd5b505050506040513d601f19601f8201168201806040525081019061220c9190613c67565b60405161221a9291906140cc565b60405180910390a15050565b61222e6122f7565b6001600160a01b03166122496097546001600160a01b031690565b6001600160a01b03161461226f5760405162461bcd60e51b815260040161070190613bf7565b61016280546001600160a01b039586166001600160a01b0319918216179091556101638054948616948216949094179093556101648054928516928416929092179091556101658054919093169116179055565b6001600160a01b03163b151590565b60006001600160e01b03198216630271189760e51b148061072f575061072f82612df1565b6000611046612e41565b80516117b890606790602084019061332a565b600082815261015f6020908152604090912082516123349284019061332a565b505050565b6001600160a01b03841661235f5760405162461bcd60e51b8152600401610701906140ee565b81518351146123805760405162461bcd60e51b81526004016107019061412f565b600061238a6122f7565b905061239b81600087878787612e9e565b60005b8451811015612437578381815181106123b9576123b9614083565b6020026020010151606560008784815181106123d7576123d7614083565b602002602001015181526020019081526020016000206000886001600160a01b03166001600160a01b03168152602001908152602001600020600082825461241f9190614099565b9091555081905061242f816140b1565b91505061239e565b50846001600160a01b031660006001600160a01b0316826001600160a01b03167f4a39dc06d4c0dbc64b70af90fd698a233a518aa5d07e595d983b8c0526c8f7fb8787604051612488929190614177565b60405180910390a46110ed81600087878787612eac565b81518351146124c05760405162461bcd60e51b81526004016107019061412f565b6001600160a01b0384166124e65760405162461bcd60e51b8152600401610701906141a5565b60006124f06122f7565b9050612500818787878787612e9e565b60005b84518110156125e957600085828151811061252057612520614083565b60200260200101519050600085838151811061253e5761253e614083565b60209081029190910181015160008481526065835260408082206001600160a01b038e16835290935291909120549091508181101561258f5760405162461bcd60e51b8152600401610701906141ea565b60008381526065602090815260408083206001600160a01b038e8116855292528083208585039055908b168252812080548492906125ce908490614099565b92505081905550505050806125e2906140b1565b9050612503565b50846001600160a01b0316866001600160a01b0316826001600160a01b03167f4a39dc06d4c0dbc64b70af90fd698a233a518aa5d07e595d983b8c0526c8f7fb8787604051612639929190614177565b60405180910390a461264f818787878787612eac565b505050505050565b6001600160a01b03841661267d5760405162461bcd60e51b8152600401610701906140ee565b60006126876122f7565b9050600061269485613008565b905060006126a185613008565b90506126b283600089858589612e9e565b60008681526065602090815260408083206001600160a01b038b168452909152812080548792906126e4908490614099565b909155505060408051878152602081018790526001600160a01b03808a1692600092918716917fc3d58168c5ae7397731d063d5bbf3d657854427343f4c083240f7aacaa2d0f62910160405180910390a461274483600089898989613053565b50505050505050565b609780546001600160a01b038381166001600160a01b0319831681179093556040519116919082907f8be0079c531659141344cd1fd0a4f28419497f9722a3daafe3b4186f6b6457e090600090a35050565b6127da6040518060c0016040528060008152602001600081526020016000815260200160608152602001600081526020016000151581525090565b6128156040518060c0016040528060008152602001600081526020016000815260200160008152602001600081526020016000151581525090565b6128343361016154600160405180602001604052806000815250612657565b6128b533306101605461016260009054906101000a90046001600160a01b03166001600160a01b03166358ac00386040518163ffffffff1660e01b8152600401602060405180830381865afa158015612891573d6000803e3d6000fd5b505050506040513d601f19601f82011682018060405250810190611bf49190613c67565b6101625461016154604051639fd9491760e01b815233600482015260248101919091526000916001600160a01b031690639fd94917906044016000604051808303816000875af115801561290d573d6000803e3d6000fd5b505050506040513d6000823e601f3d908101601f191682016040526129359190810190613c8b565b6101625461016154604051631ec5a1a760e21b81529293506000926001600160a01b0390921691637b16869c916129729160040190815260200190565b60c0604051808303816000875af1158015612991573d6000803e3d6000fd5b505050506040513d601f19601f820116820180604052508101906129b59190613db7565b61016354604051637182817b60e01b81529192506000916001600160a01b0390911690637182817b906129ec90859060040161378b565b600060405180830381865afa158015612a09573d6000803e3d6000fd5b505050506040513d6000823e601f3d908101601f19168201604052612a319190810190613ee5565b9050612a406101615482612314565b612a4861310e565b61016260009054906101000a90046001600160a01b03166001600160a01b0316630591f3626040518163ffffffff1660e01b8152600401600060405180830381600087803b158015612a9957600080fd5b505af1158015612aad573d6000803e3d6000fd5b50949793965092945050505050565b816001600160a01b0316836001600160a01b03161415612b305760405162461bcd60e51b815260206004820152602960248201527f455243313135353a2073657474696e6720617070726f76616c20737461747573604482015268103337b91039b2b63360b91b6064820152608401610701565b6001600160a01b03838116600081815260666020908152604080832094871680845294825291829020805460ff191686151590811790915591519182527f17307eab39ab6107e8899845ad3d59bd9653f200f220920489ca2b5937696c31910160405180910390a3505050565b6001600160a01b038416612bc35760405162461bcd60e51b8152600401610701906141a5565b6000612bcd6122f7565b90506000612bda85613008565b90506000612be785613008565b9050612bf7838989858589612e9e565b60008681526065602090815260408083206001600160a01b038c16845290915290205485811015612c3a5760405162461bcd60e51b8152600401610701906141ea565b60008781526065602090815260408083206001600160a01b038d8116855292528083208985039055908a16825281208054889290612c79908490614099565b909155505060408051888152602081018890526001600160a01b03808b16928c821692918816917fc3d58168c5ae7397731d063d5bbf3d657854427343f4c083240f7aacaa2d0f62910160405180910390a4612cd9848a8a8a8a8a613053565b505050505050505050565b60008054610100900460ff1615612d2b578160ff166001148015612d075750303b155b612d235760405162461bcd60e51b815260040161070190614234565b506000919050565b60005460ff808416911610612d525760405162461bcd60e51b815260040161070190614234565b506000805460ff191660ff92909216919091179055600190565b919050565b600054610100900460ff16612d985760405162461bcd60e51b815260040161070190614282565b612db060405180602001604052806000815250613129565b612db8613150565b612dc0613187565b60006101608190556001610161556040805160808101909152604380825261198792919061446f6020830139612314565b60006001600160e01b03198216636cdb3d1360e11b1480612e2257506001600160e01b031982166303a24d0760e21b145b8061072f57506301ffc9a760e01b6001600160e01b031983161461072f565b600033301415612e9857600080368080601f0160208091040260200160405190810160405280939291908181526020018383808284376000920191909152505050503601516001600160a01b03169150612e9b9050565b50335b90565b61264f8686868686866131ae565b6001600160a01b0384163b1561264f5760405163bc197c8160e01b81526001600160a01b0385169063bc197c8190612ef090899089908890889088906004016142cd565b6020604051808303816000875af1925050508015612f2b575060408051601f3d908101601f19168201909252612f289181019061432b565b60015b612fd857612f37614348565b806308c379a01415612f715750612f4c614363565b80612f575750612f73565b8060405162461bcd60e51b815260040161070191906135cc565b505b60405162461bcd60e51b815260206004820152603460248201527f455243313135353a207472616e7366657220746f206e6f6e20455243313135356044820152732932b1b2b4bb32b91034b6b83632b6b2b73a32b960611b6064820152608401610701565b6001600160e01b0319811663bc197c8160e01b146127445760405162461bcd60e51b8152600401610701906143ec565b6040805160018082528183019092526060916000919060208083019080368337019050509050828160008151811061304257613042614083565b602090810291909101015292915050565b6001600160a01b0384163b1561264f5760405163f23a6e6160e01b81526001600160a01b0385169063f23a6e61906130979089908990889088908890600401614434565b6020604051808303816000875af19250505080156130d2575060408051601f3d908101601f191682019092526130cf9181019061432b565b60015b6130de57612f37614348565b6001600160e01b0319811663f23a6e6160e01b146127445760405162461bcd60e51b8152600401610701906143ec565b600161016160008282546131229190614099565b9091555050565b600054610100900460ff166107895760405162461bcd60e51b815260040161070190614282565b600054610100900460ff166131775760405162461bcd60e51b815260040161070190614282565b6119876131826122f7565b61274d565b600054610100900460ff166119875760405162461bcd60e51b815260040161070190614282565b6001600160a01b0385166132365760005b8351811015613234578281815181106131da576131da614083565b602002602001015161012d60008684815181106131f9576131f9614083565b60200260200101518152602001908152602001600020600082825461321e9190614099565b9091555061322d9050816140b1565b90506131bf565b505b6001600160a01b03841661264f5760005b835181101561274457600084828151811061326457613264614083565b60200260200101519050600084838151811061328257613282614083565b60200260200101519050600061012d6000848152602001908152602001600020549050818110156133065760405162461bcd60e51b815260206004820152602860248201527f455243313135353a206275726e20616d6f756e74206578636565647320746f74604482015267616c537570706c7960c01b6064820152608401610701565b600092835261012d602052604090922091039055613323816140b1565b9050613247565b82805461333690613c2c565b90600052602060002090601f016020900481019282613358576000855561339e565b82601f1061337157805160ff191683800117855561339e565b8280016001018555821561339e579182015b8281111561339e578251825591602001919060010190613383565b506133aa9291506133ae565b5090565b5b808211156133aa57600081556001016133af565b6001600160a01b038116811461079257600080fd5b600080604083850312156133eb57600080fd5b82356133f6816133c3565b946020939093013593505050565b6001600160e01b03198116811461079257600080fd5b60006020828403121561342c57600080fd5b8135611d3081613404565b634e487b7160e01b600052604160045260246000fd5b60c081018181106001600160401b038211171561346c5761346c613437565b60405250565b601f8201601f191681016001600160401b038111828210171561349757613497613437565b6040525050565b60006001600160401b038211156134b7576134b7613437565b50601f01601f191660200190565b60006134d08361349e565b6040516134dd8282613472565b8092508481528585850111156134f257600080fd5b8484602083013760006020868301015250509392505050565b60006020828403121561351d57600080fd5b81356001600160401b0381111561353357600080fd5b8201601f8101841361354457600080fd5b613553848235602084016134c5565b949350505050565b60006020828403121561356d57600080fd5b5035919050565b60005b8381101561358f578181015183820152602001613577565b83811115610f245750506000910152565b600081518084526135b8816020860160208601613574565b601f01601f19169290920160200192915050565b602081526000611d3060208301846135a0565b600080604083850312156135f257600080fd5b50508035926020909101359150565b60006001600160401b0382111561361a5761361a613437565b5060051b60200190565b600082601f83011261363557600080fd5b8135602061364282613601565b60405161364f8282613472565b83815260059390931b850182019282810191508684111561366f57600080fd5b8286015b8481101561368a5780358352918301918301613673565b509695505050505050565b600082601f8301126136a657600080fd5b611d30838335602085016134c5565b600080600080608085870312156136cb57600080fd5b84356136d6816133c3565b935060208501356001600160401b03808211156136f257600080fd5b6136fe88838901613624565b9450604087013591508082111561371457600080fd5b61372088838901613624565b9350606087013591508082111561373657600080fd5b5061374387828801613695565b91505092959194509250565b805182526020810151602083015260408101516040830152606081015160608301526080810151608083015260a0810151151560a08301525050565b60c0810161072f828461374f565b6020808252825182820181905260009190848201906040850190845b818110156137da5783516001600160a01b0316835292840192918401916001016137b5565b50909695505050505050565b600080600080600060a086880312156137fe57600080fd5b8535613809816133c3565b94506020860135613819816133c3565b935060408601356001600160401b038082111561383557600080fd5b61384189838a01613624565b9450606088013591508082111561385757600080fd5b61386389838a01613624565b9350608088013591508082111561387957600080fd5b5061388688828901613695565b9150509295509295909350565b600080602083850312156138a657600080fd5b82356001600160401b03808211156138bd57600080fd5b818501915085601f8301126138d157600080fd5b8135818111156138e057600080fd5b8660208285010111156138f257600080fd5b60209290920196919550909350505050565b6000806040838503121561391757600080fd5b82356001600160401b038082111561392e57600080fd5b818501915085601f83011261394257600080fd5b8135602061394f82613601565b60405161395c8282613472565b83815260059390931b850182019282810191508984111561397c57600080fd5b948201945b838610156139a3578535613994816133c3565b82529482019490820190613981565b965050860135925050808211156139b957600080fd5b506139c685828601613624565b9150509250929050565b600081518084526020808501945080840160005b83811015613a00578151875295820195908201906001016139e4565b509495945050505050565b602081526000611d3060208301846139d0565b821515815260406020820152600061355360408301846135a0565b801515811461079257600080fd5b60008060408385031215613a5a57600080fd5b8235613a65816133c3565b91506020830135613a7581613a39565b809150509250929050565b600060208284031215613a9257600080fd5b8135611d30816133c3565b8051825260208101516020830152604081015160408301526000606082015160c06060850152613ad060c08501826139d0565b90506080830151608085015260a0830151151560a08501528091505092915050565b602081526000611d306020830184613a9d565b60008060408385031215613b1857600080fd5b8235613b23816133c3565b91506020830135613a75816133c3565b600080600080600060a08688031215613b4b57600080fd5b8535613b56816133c3565b94506020860135613b66816133c3565b9350604086013592506060860135915060808601356001600160401b03811115613b8f57600080fd5b61388688828901613695565b60008060008060808587031215613bb157600080fd5b8435613bbc816133c3565b93506020850135613bcc816133c3565b92506040850135613bdc816133c3565b91506060850135613bec816133c3565b939692955090935050565b6020808252818101527f4f776e61626c653a2063616c6c6572206973206e6f7420746865206f776e6572604082015260600190565b600181811c90821680613c4057607f821691505b60208210811415613c6157634e487b7160e01b600052602260045260246000fd5b50919050565b600060208284031215613c7957600080fd5b5051919050565b8051612d6c81613a39565b60006020808385031215613c9e57600080fd5b82516001600160401b0380821115613cb557600080fd5b9084019060c08287031215613cc957600080fd5b604051613cd58161344d565b82518152838301518482015260408301516040820152606083015182811115613cfd57600080fd5b83019150601f82018713613d1057600080fd5b8151613d1b81613601565b604051613d288282613472565b82815260059290921b8401860191868101915089831115613d4857600080fd5b938601935b82851015613d6657845182529386019390860190613d4d565b6060840152505060808381015190820152613d8360a08401613c80565b60a08201529695505050505050565b6020808252600b908201526a2737ba1030b71022a7a09760a91b604082015260600190565b600060c08284031215613dc957600080fd5b60405160c081018181106001600160401b0382111715613deb57613deb613437565b8060405250825181526020830151602082015260408301516040820152606083015160608201526080830151608082015260a0830151613e2a81613a39565b60a08201529392505050565b6020808252601b908201527f5061727469636970616e7420646f6573206e6f742065786973742e0000000000604082015260600190565b606081526000613e806060830186613a9d565b60208301949094525060400152919050565b60e08101613ea0828561374f565b8260c08301529392505050565b6001600160a01b038316815260406020820181905260009061355390830184613a9d565b82815260e08101611d30602083018461374f565b600060208284031215613ef757600080fd5b81516001600160401b03811115613f0d57600080fd5b8201601f81018413613f1e57600080fd5b8051613f298161349e565b604051613f368282613472565b828152866020848601011115613f4b57600080fd5b613f5c836020830160208701613574565b9695505050505050565b634e487b7160e01b600052601160045260246000fd5b6000816000190483118215151615613f9657613f96613f66565b500290565b600082613fb857634e487b7160e01b600052601260045260246000fd5b500490565b60e081526000613fd060e0830185613a9d565b9050611d30602083018461374f565b60006020808385031215613ff257600080fd5b82516001600160401b0381111561400857600080fd5b8301601f8101851361401957600080fd5b805161402481613601565b6040516140318282613472565b82815260059290921b830184019184810191508783111561405157600080fd5b928401925b82841015614078578351614069816133c3565b82529284019290840190614056565b979650505050505050565b634e487b7160e01b600052603260045260246000fd5b600082198211156140ac576140ac613f66565b500190565b60006000198214156140c5576140c5613f66565b5060010190565b6040815260006140df6040830185613a9d565b90508260208301529392505050565b60208082526021908201527f455243313135353a206d696e7420746f20746865207a65726f206164647265736040820152607360f81b606082015260800190565b60208082526028908201527f455243313135353a2069647320616e6420616d6f756e7473206c656e677468206040820152670dad2e6dac2e8c6d60c31b606082015260800190565b60408152600061418a60408301856139d0565b828103602084015261419c81856139d0565b95945050505050565b60208082526025908201527f455243313135353a207472616e7366657220746f20746865207a65726f206164604082015264647265737360d81b606082015260800190565b6020808252602a908201527f455243313135353a20696e73756666696369656e742062616c616e636520666f60408201526939103a3930b739b332b960b11b606082015260800190565b6020808252602e908201527f496e697469616c697a61626c653a20636f6e747261637420697320616c72656160408201526d191e481a5b9a5d1a585b1a5e995960921b606082015260800190565b6020808252602b908201527f496e697469616c697a61626c653a20636f6e7472616374206973206e6f74206960408201526a6e697469616c697a696e6760a81b606082015260800190565b6001600160a01b0386811682528516602082015260a0604082018190526000906142f9908301866139d0565b828103606084015261430b81866139d0565b9050828103608084015261431f81856135a0565b98975050505050505050565b60006020828403121561433d57600080fd5b8151611d3081613404565b600060033d1115612e9b5760046000803e5060005160e01c90565b600060443d10156143715790565b6040516003193d81016004833e81513d6001600160401b0381602484011181841117156143a057505050505090565b82850191508151818111156143b85750505050505090565b843d87010160208285010111156143d25750505050505090565b6143e160208286010187613472565b509095945050505050565b60208082526028908201527f455243313135353a204552433131353552656365697665722072656a656374656040820152676420746f6b656e7360c01b606082015260800190565b6001600160a01b03868116825285166020820152604081018490526060810183905260a060808201819052600090614078908301846135a056fe68747470733a2f2f697066732e696f2f697066732f516d567265616b5361564b624d6e5333623865666d4273756b70486f7255617a5378415970747a52436767594c4268747470733a2f2f697066732e696f2f697066732f516d4e647142395a464a387466726537704b65537955667562546d6158646f5663434d4c7a716161354d4c76416ba2646970667358221220083f7fd63ef519f775fd33a0408a76575a9dcba4fb6894667d24029726a2c3d764736f6c634300080c0033496e697469616c697a61626c653a20636f6e747261637420697320616c726561",
  "linkReferences": {},
  "deployedLinkReferences": {}
}