{
  "_format": "hh-sol-artifact-1",
  "contractName": "KojoV1",
  "sourceName": "contracts/KojoV1.sol",
  "abi": [
    {
      "anonymous": false,
      "inputs": [
        {
          "indexed": false,
          "internalType": "uint8",
          "name": "version",
          "type": "uint8"
        }
      ],
      "name": "Initialized",
      "type": "event"
    },
    {
      "anonymous": false,
      "inputs": [
        {
          "indexed": true,
          "internalType": "address",
          "name": "previousOwner",
          "type": "address"
        },
        {
          "indexed": true,
          "internalType": "address",
          "name": "newOwner",
          "type": "address"
        }
      ],
      "name": "OwnershipTransferred",
      "type": "event"
    },
    {
      "anonymous": false,
      "inputs": [
        {
          "components": [
            {
              "internalType": "uint256",
              "name": "level",
              "type": "uint256"
            },
            {
              "internalType": "uint256",
              "name": "experiencePoints",
              "type": "uint256"
            },
            {
              "internalType": "uint256[]",
              "name": "plantIds",
              "type": "uint256[]"
            },
            {
              "internalType": "uint256",
              "name": "allowedTokenBalance",
              "type": "uint256"
            },
            {
              "internalType": "bool",
              "name": "isPresent",
              "type": "bool"
            }
          ],
          "indexed": false,
          "internalType": "struct Structs.Participant",
          "name": "participant",
          "type": "tuple"
        },
        {
          "components": [
            {
              "internalType": "uint256",
              "name": "level",
              "type": "uint256"
            },
            {
              "internalType": "uint256",
              "name": "experiencePoints",
              "type": "uint256"
            },
            {
              "internalType": "uint256",
              "name": "lifes",
              "type": "uint256"
            },
            {
              "internalType": "uint256",
              "name": "levelCost",
              "type": "uint256"
            },
            {
              "internalType": "bool",
              "name": "isPresent",
              "type": "bool"
            }
          ],
          "indexed": false,
          "internalType": "struct Structs.Plant",
          "name": "plant",
          "type": "tuple"
        }
      ],
      "name": "PlantMinted",
      "type": "event"
    },
    {
      "anonymous": false,
      "inputs": [
        {
          "indexed": false,
          "internalType": "address",
          "name": "account",
          "type": "address"
        },
        {
          "components": [
            {
              "internalType": "uint256",
              "name": "level",
              "type": "uint256"
            },
            {
              "internalType": "uint256",
              "name": "experiencePoints",
              "type": "uint256"
            },
            {
              "internalType": "uint256[]",
              "name": "plantIds",
              "type": "uint256[]"
            },
            {
              "internalType": "uint256",
              "name": "allowedTokenBalance",
              "type": "uint256"
            },
            {
              "internalType": "bool",
              "name": "isPresent",
              "type": "bool"
            }
          ],
          "indexed": false,
          "internalType": "struct Structs.Participant",
          "name": "participant",
          "type": "tuple"
        },
        {
          "components": [
            {
              "internalType": "uint256",
              "name": "level",
              "type": "uint256"
            },
            {
              "internalType": "uint256",
              "name": "experiencePoints",
              "type": "uint256"
            },
            {
              "internalType": "uint256",
              "name": "lifes",
              "type": "uint256"
            },
            {
              "internalType": "uint256",
              "name": "levelCost",
              "type": "uint256"
            },
            {
              "internalType": "bool",
              "name": "isPresent",
              "type": "bool"
            }
          ],
          "indexed": false,
          "internalType": "struct Structs.Plant",
          "name": "plant",
          "type": "tuple"
        },
        {
          "indexed": false,
          "internalType": "uint256",
          "name": "amount",
          "type": "uint256"
        }
      ],
      "name": "PlantWatered",
      "type": "event"
    },
    {
      "anonymous": false,
      "inputs": [
        {
          "components": [
            {
              "internalType": "uint256",
              "name": "level",
              "type": "uint256"
            },
            {
              "internalType": "uint256",
              "name": "experiencePoints",
              "type": "uint256"
            },
            {
              "internalType": "uint256[]",
              "name": "plantIds",
              "type": "uint256[]"
            },
            {
              "internalType": "uint256",
              "name": "allowedTokenBalance",
              "type": "uint256"
            },
            {
              "internalType": "bool",
              "name": "isPresent",
              "type": "bool"
            }
          ],
          "indexed": false,
          "internalType": "struct Structs.Participant",
          "name": "participant",
          "type": "tuple"
        },
        {
          "indexed": false,
          "internalType": "uint256",
          "name": "amount",
          "type": "uint256"
        }
      ],
      "name": "TokensClaimed",
      "type": "event"
    },
    {
      "inputs": [],
      "name": "checkUpkeep",
      "outputs": [],
      "stateMutability": "view",
      "type": "function"
    },
    {
      "inputs": [],
      "name": "handleBuyPlant",
      "outputs": [],
      "stateMutability": "payable",
      "type": "function"
    },
    {
      "inputs": [],
      "name": "handleClaimMonthlyReward",
      "outputs": [],
      "stateMutability": "nonpayable",
      "type": "function"
    },
    {
      "inputs": [],
      "name": "handleClaimStartTokens",
      "outputs": [
        {
          "components": [
            {
              "internalType": "uint256",
              "name": "level",
              "type": "uint256"
            },
            {
              "internalType": "uint256",
              "name": "experiencePoints",
              "type": "uint256"
            },
            {
              "internalType": "uint256[]",
              "name": "plantIds",
              "type": "uint256[]"
            },
            {
              "internalType": "uint256",
              "name": "allowedTokenBalance",
              "type": "uint256"
            },
            {
              "internalType": "bool",
              "name": "isPresent",
              "type": "bool"
            }
          ],
          "internalType": "struct Structs.Participant",
          "name": "value",
          "type": "tuple"
        }
      ],
      "stateMutability": "payable",
      "type": "function"
    },
    {
      "inputs": [],
      "name": "handleReadInititalAllowance",
      "outputs": [
        {
          "internalType": "uint256",
          "name": "",
          "type": "uint256"
        }
      ],
      "stateMutability": "view",
      "type": "function"
    },
    {
      "inputs": [
        {
          "internalType": "address",
          "name": "account",
          "type": "address"
        }
      ],
      "name": "handleReadParticipant",
      "outputs": [
        {
          "components": [
            {
              "internalType": "uint256",
              "name": "level",
              "type": "uint256"
            },
            {
              "internalType": "uint256",
              "name": "experiencePoints",
              "type": "uint256"
            },
            {
              "internalType": "uint256[]",
              "name": "plantIds",
              "type": "uint256[]"
            },
            {
              "internalType": "uint256",
              "name": "allowedTokenBalance",
              "type": "uint256"
            },
            {
              "internalType": "bool",
              "name": "isPresent",
              "type": "bool"
            }
          ],
          "internalType": "struct Structs.Participant",
          "name": "_participant",
          "type": "tuple"
        }
      ],
      "stateMutability": "view",
      "type": "function"
    },
    {
      "inputs": [
        {
          "internalType": "address",
          "name": "_store",
          "type": "address"
        },
        {
          "internalType": "address",
          "name": "_utils",
          "type": "address"
        },
        {
          "internalType": "address",
          "name": "_api",
          "type": "address"
        },
        {
          "internalType": "address",
          "name": "_token",
          "type": "address"
        }
      ],
      "name": "handleUpdateContracts",
      "outputs": [],
      "stateMutability": "nonpayable",
      "type": "function"
    },
    {
      "inputs": [
        {
          "internalType": "uint256",
          "name": "tokenSensitivity",
          "type": "uint256"
        }
      ],
      "name": "handleUpdateTokenSensitivity",
      "outputs": [],
      "stateMutability": "nonpayable",
      "type": "function"
    },
    {
      "inputs": [
        {
          "internalType": "uint256",
          "name": "tokenId",
          "type": "uint256"
        }
      ],
      "name": "handleWaterPlant",
      "outputs": [],
      "stateMutability": "payable",
      "type": "function"
    },
    {
      "inputs": [
        {
          "internalType": "address",
          "name": "_store",
          "type": "address"
        },
        {
          "internalType": "address",
          "name": "_utils",
          "type": "address"
        },
        {
          "internalType": "address",
          "name": "_api",
          "type": "address"
        },
        {
          "internalType": "address",
          "name": "_token",
          "type": "address"
        }
      ],
      "name": "initialize",
      "outputs": [],
      "stateMutability": "nonpayable",
      "type": "function"
    },
    {
      "inputs": [],
      "name": "owner",
      "outputs": [
        {
          "internalType": "address",
          "name": "",
          "type": "address"
        }
      ],
      "stateMutability": "view",
      "type": "function"
    },
    {
      "inputs": [],
      "name": "performUpkeep",
      "outputs": [],
      "stateMutability": "view",
      "type": "function"
    },
    {
      "inputs": [],
      "name": "renounceOwnership",
      "outputs": [],
      "stateMutability": "nonpayable",
      "type": "function"
    },
    {
      "inputs": [],
      "name": "tokenAddress",
      "outputs": [
        {
          "internalType": "address",
          "name": "",
          "type": "address"
        }
      ],
      "stateMutability": "view",
      "type": "function"
    },
    {
      "inputs": [
        {
          "internalType": "address",
          "name": "newOwner",
          "type": "address"
        }
      ],
      "name": "transferOwnership",
      "outputs": [],
      "stateMutability": "nonpayable",
      "type": "function"
    }
  ],
  "bytecode": "0x608060405234801561001057600080fd5b506120fd806100206000396000f3fe6080604052600436106100e85760003560e01c80639d76ea581161008a578063f2fde38b11610059578063f2fde38b14610210578063f8c8765e14610230578063fabe6b3c14610250578063fc57ca291461025857600080fd5b80639d76ea58146101b0578063a13abdad1461014c578063de349ae7146101d0578063e5999139146101e357600080fd5b80636e4d243a116100c65780636e4d243a1461014c578063715018a6146101615780638da5cb5b146101765780639c3423b1146101a857600080fd5b806330242454146100ed578063584c7b371461010f5780636c7ff22e14610137575b600080fd5b3480156100f957600080fd5b5061010d610108366004611a49565b610278565b005b34801561011b57600080fd5b5061012461030c565b6040519081526020015b60405180910390f35b34801561014357600080fd5b5061010d61038e565b34801561015857600080fd5b5061010d61064d565b34801561016d57600080fd5b5061010d610667565b34801561018257600080fd5b506033546001600160a01b03165b6040516001600160a01b03909116815260200161012e565b61010d61069b565b3480156101bc57600080fd5b50606954610190906001600160a01b031681565b61010d6101de366004611a49565b610891565b3480156101ef57600080fd5b506102036101fe366004611a79565b610db2565b60405161012e9190611b15565b34801561021c57600080fd5b5061010d61022b366004611a79565b610e6d565b34801561023c57600080fd5b5061010d61024b366004611b28565b610f08565b610203610fd3565b34801561026457600080fd5b5061010d610273366004611b28565b6113d4565b6033546001600160a01b031633146102ab5760405162461bcd60e51b81526004016102a290611b7c565b60405180910390fd5b606654604051630c09091560e21b8152600481018390526001600160a01b0390911690633024245490602401600060405180830381600087803b1580156102f157600080fd5b505af1158015610305573d6000803e3d6000fd5b5050505050565b60665460408051631bca55e560e01b815290516000926001600160a01b031691631bca55e5916004808301926020929190829003018186803b15801561035157600080fd5b505afa158015610365573d6000803e3d6000fd5b505050506040513d601f19601f820116820180604052508101906103899190611bb1565b905090565b3233146103ad5760405162461bcd60e51b81526004016102a290611bca565b60665460405163e599913960e01b81523360048201526000916001600160a01b03169063e59991399060240160006040518083038186803b1580156103f157600080fd5b505afa158015610405573d6000803e3d6000fd5b505050506040513d6000823e601f3d908101601f1916820160405261042d9190810190611c6f565b905080608001516104505760405162461bcd60e51b81526004016102a290611d6d565b60608101516104a15760405162461bcd60e51b815260206004820152601b60248201527f5061727469636970616e74206973206e6f7420616c6c6f7765642e000000000060448201526064016102a2565b6065546040805163b4daaf5560e01b815290516001600160a01b039092169163731133e9913391849163b4daaf55916004808301926020929190829003018186803b1580156104ef57600080fd5b505afa158015610503573d6000803e3d6000fd5b505050506040513d601f19601f820116820180604052508101906105279190611bb1565b84606001516040518463ffffffff1660e01b815260040161054a93929190611da4565b600060405180830381600087803b15801561056457600080fd5b505af1158015610578573d6000803e3d6000fd5b5050600060608401525050606654604051633fcd0c3760e01b815282916001600160a01b031690633fcd0c37906105b59033908590600401611dd4565b600060405180830381600087803b1580156105cf57600080fd5b505af11580156105e3573d6000803e3d6000fd5b505050506040513d6000823e601f3d908101601f1916820160405261060b9190810190611c6f565b507f1800ac493c2559610df079ad63033e4a99ae93f599a3df7ef426015113ff0278828360600151604051610641929190611e00565b60405180910390a15050565b6106656040518060200160405280600081525061145b565b565b6033546001600160a01b031633146106915760405162461bcd60e51b81526004016102a290611b7c565b610665600061149e565b3233146106ba5760405162461bcd60e51b81526004016102a290611bca565b60665460405163e599913960e01b81523360048201526000916001600160a01b03169063e59991399060240160006040518083038186803b1580156106fe57600080fd5b505afa158015610712573d6000803e3d6000fd5b505050506040513d6000823e601f3d908101601f1916820160405261073a9190810190611c6f565b9050806080015161075d5760405162461bcd60e51b81526004016102a290611d6d565b606660009054906101000a90046001600160a01b03166001600160a01b03166358ac00386040518163ffffffff1660e01b815260040160206040518083038186803b1580156107ab57600080fd5b505afa1580156107bf573d6000803e3d6000fd5b505050506040513d601f19601f820116820180604052508101906107e39190611bb1565b3410156108435760405162461bcd60e51b815260206004820152602860248201527f4e6f7420656e6f756768206b6f6a6f732e204f6e6520706c616e7420636f7374604482015267732031206b6f6a6f60c01b60648201526084016102a2565b60008061084f836114f0565b915091507fd3c27ff71e4143519cb0a887c47b332099ba4f226bf05e73f471a71a987691cc8282604051610884929190611e54565b60405180910390a1505050565b3233146108b05760405162461bcd60e51b81526004016102a290611bca565b60665460405163e599913960e01b81523360048201526000916001600160a01b03169063e59991399060240160006040518083038186803b1580156108f457600080fd5b505afa158015610908573d6000803e3d6000fd5b505050506040513d6000823e601f3d908101601f191682016040526109309190810190611c6f565b606654604051630ff6460160e11b8152600481018590529192506000916001600160a01b0390911690631fec8c029060240160a06040518083038186803b15801561097a57600080fd5b505afa15801561098e573d6000803e3d6000fd5b505050506040513d601f19601f820116820180604052508101906109b29190611e76565b905081608001516109d55760405162461bcd60e51b81526004016102a290611d6d565b8060800151610a1e5760405162461bcd60e51b8152602060048201526015602482015274283630b73a103237b2b9903737ba1032bc34b9ba1760591b60448201526064016102a2565b60003411610a635760405162461bcd60e51b815260206004820152601260248201527127379026a0aa24a190383937bb34b232b21760711b60448201526064016102a2565b6067546040516342ee184d60e11b81526000916001600160a01b0316906385dc309a90610a969086903490600401611e00565b60006040518083038186803b158015610aae57600080fd5b505afa158015610ac2573d6000803e3d6000fd5b505050506040513d6000823e601f3d908101601f19168201604052610aea9190810190611c6f565b6067546040516358e5d9cf60e01b81529192506000916001600160a01b03909116906358e5d9cf90610b229086903490600401611eea565b60a06040518083038186803b158015610b3a57600080fd5b505afa158015610b4e573d6000803e3d6000fd5b505050506040513d601f19601f82011682018060405250810190610b729190611e76565b606654604051633fcd0c3760e01b81529192506001600160a01b031690633fcd0c3790610ba59033908690600401611dd4565b600060405180830381600087803b158015610bbf57600080fd5b505af1158015610bd3573d6000803e3d6000fd5b505050506040513d6000823e601f3d908101601f19168201604052610bfb9190810190611c6f565b50606654604051635717651560e01b81526001600160a01b0390911690635717651590610c2e9088908590600401611f05565b60a060405180830381600087803b158015610c4857600080fd5b505af1158015610c5c573d6000803e3d6000fd5b505050506040513d601f19601f82011682018060405250810190610c809190611e76565b506067546040516333d2c6b160e11b81526000916001600160a01b0316906367a58d6290610cb49085908a90600401611eea565b60006040518083038186803b158015610ccc57600080fd5b505afa158015610ce0573d6000803e3d6000fd5b505050506040513d6000823e601f3d908101601f19168201604052610d089190810190611f49565b606554604051632bfbbc4f60e11b81529192506001600160a01b0316906357f7789e90610d3b9089908590600401612009565b600060405180830381600087803b158015610d5557600080fd5b505af1158015610d69573d6000803e3d6000fd5b505050507f3ed1cc965f2aba30207367f92d9c957caa3365fea3b717c6721108aaf9b43a4533848434604051610da29493929190612022565b60405180910390a1505050505050565b610de66040518060a00160405280600081526020016000815260200160608152602001600081526020016000151581525090565b60665460405163e599913960e01b81526001600160a01b0384811660048301529091169063e59991399060240160006040518083038186803b158015610e2b57600080fd5b505afa158015610e3f573d6000803e3d6000fd5b505050506040513d6000823e601f3d908101601f19168201604052610e679190810190611c6f565b92915050565b6033546001600160a01b03163314610e975760405162461bcd60e51b81526004016102a290611b7c565b6001600160a01b038116610efc5760405162461bcd60e51b815260206004820152602660248201527f4f776e61626c653a206e6577206f776e657220697320746865207a65726f206160448201526564647265737360d01b60648201526084016102a2565b610f058161149e565b50565b6000610f146001611927565b90508015610f2c576000805461ff0019166101001790555b606680546001600160a01b038088166001600160a01b03199283161790925560678054878416908316179055606880548684169083161790556065805492851692821683179055606980549091169091179055610f876119b4565b8015610305576000805461ff0019169055604051600181527f7f26b83ff96e1f2b6a682f133852f6798a09c465da95921460cefb38474024989060200160405180910390a15050505050565b6110076040518060a00160405280600081526020016000815260200160608152602001600081526020016000151581525090565b3233146110265760405162461bcd60e51b81526004016102a290611bca565b60665460405163e599913960e01b81523360048201526000916001600160a01b03169063e59991399060240160006040518083038186803b15801561106a57600080fd5b505afa15801561107e573d6000803e3d6000fd5b505050506040513d6000823e601f3d908101601f191682016040526110a69190810190611c6f565b905080608001511561112f5760405162461bcd60e51b815260206004820152604660248201527f5061727469636970616e7420616c7265616479206578697374732e20596f752060448201527f63616e206f6e6c7920636c61696d20796f757220696e7469616c206b6f6a6f736064820152651037b731b29760d11b608482015260a4016102a2565b6066546040516311622ce560e01b81523360048201526000916001600160a01b0316906311622ce590602401600060405180830381600087803b15801561117557600080fd5b505af1158015611189573d6000803e3d6000fd5b505050506040513d6000823e601f3d908101601f191682016040526111b19190810190611c6f565b6065546040805163b4daaf5560e01b815290519293506001600160a01b039091169163731133e9913391849163b4daaf55916004808301926020929190829003018186803b15801561120257600080fd5b505afa158015611216573d6000803e3d6000fd5b505050506040513d601f19601f8201168201806040525081019061123a9190611bb1565b606660009054906101000a90046001600160a01b03166001600160a01b0316631bca55e56040518163ffffffff1660e01b815260040160206040518083038186803b15801561128857600080fd5b505afa15801561129c573d6000803e3d6000fd5b505050506040513d601f19601f820116820180604052508101906112c09190611bb1565b6040518463ffffffff1660e01b81526004016112de93929190611da4565b600060405180830381600087803b1580156112f857600080fd5b505af115801561130c573d6000803e3d6000fd5b505050507f1800ac493c2559610df079ad63033e4a99ae93f599a3df7ef426015113ff027881606660009054906101000a90046001600160a01b03166001600160a01b0316631bca55e56040518163ffffffff1660e01b815260040160206040518083038186803b15801561138057600080fd5b505afa158015611394573d6000803e3d6000fd5b505050506040513d601f19601f820116820180604052508101906113b89190611bb1565b6040516113c6929190611e00565b60405180910390a191505090565b6033546001600160a01b031633146113fe5760405162461bcd60e51b81526004016102a290611b7c565b606680546001600160a01b03199081166001600160a01b0396871617909155606780548216948616949094179093556068805484169285169290921790915560658054831691909316908117909255606980549091169091179055565b610f058160405160240161146f9190612066565b60408051601f198184030181529190526020810180516001600160e01b031663104c13eb60e21b179052611a28565b603380546001600160a01b038381166001600160a01b0319831681179093556040519116919082907f8be0079c531659141344cd1fd0a4f28419497f9722a3daafe3b4186f6b6457e090600090a35050565b6115246040518060a00160405280600081526020016000815260200160608152602001600081526020016000151581525090565b6115586040518060a00160405280600081526020016000815260200160008152602001600081526020016000151581525090565b606554604080516308bd1d9560e31b815290516001600160a01b039092169163731133e991339184916345e8eca8916004808301926020929190829003018186803b1580156115a657600080fd5b505afa1580156115ba573d6000803e3d6000fd5b505050506040513d601f19601f820116820180604052508101906115de9190611bb1565b60016040518463ffffffff1660e01b81526004016115fe93929190611da4565b600060405180830381600087803b15801561161857600080fd5b505af115801561162c573d6000803e3d6000fd5b5050606754606554604080516308bd1d9560e31b81529051600095506001600160a01b03938416945063a3dac62993899316916345e8eca8916004808301926020929190829003018186803b15801561168457600080fd5b505afa158015611698573d6000803e3d6000fd5b505050506040513d601f19601f820116820180604052508101906116bc9190611bb1565b6040518363ffffffff1660e01b81526004016116d9929190611e00565b60006040518083038186803b1580156116f157600080fd5b505afa158015611705573d6000803e3d6000fd5b505050506040513d6000823e601f3d908101601f1916820160405261172d9190810190611c6f565b606654606554604080516308bd1d9560e31b815290519394506000936001600160a01b0393841693637b16869c9316916345e8eca8916004808301926020929190829003018186803b15801561178257600080fd5b505afa158015611796573d6000803e3d6000fd5b505050506040513d601f19601f820116820180604052508101906117ba9190611bb1565b6040518263ffffffff1660e01b81526004016117d891815260200190565b60a060405180830381600087803b1580156117f257600080fd5b505af1158015611806573d6000803e3d6000fd5b505050506040513d601f19601f8201168201806040525081019061182a9190611e76565b606654604051633fcd0c3760e01b81529192506001600160a01b031690633fcd0c379061185d9033908690600401611dd4565b600060405180830381600087803b15801561187757600080fd5b505af115801561188b573d6000803e3d6000fd5b505050506040513d6000823e601f3d908101601f191682016040526118b39190810190611c6f565b50606560009054906101000a90046001600160a01b03166001600160a01b031663541f87fc6040518163ffffffff1660e01b8152600401600060405180830381600087803b15801561190457600080fd5b505af1158015611918573d6000803e3d6000fd5b50939792965091945050505050565b60008054610100900460ff161561196e578160ff16600114801561194a5750303b155b6119665760405162461bcd60e51b81526004016102a290612079565b506000919050565b60005460ff8084169116106119955760405162461bcd60e51b81526004016102a290612079565b506000805460ff191660ff92909216919091179055600190565b919050565b600054610100900460ff16611a1f5760405162461bcd60e51b815260206004820152602b60248201527f496e697469616c697a61626c653a20636f6e7472616374206973206e6f74206960448201526a6e697469616c697a696e6760a81b60648201526084016102a2565b6106653361149e565b80516a636f6e736f6c652e6c6f67602083016000808483855afa5050505050565b600060208284031215611a5b57600080fd5b5035919050565b80356001600160a01b03811681146119af57600080fd5b600060208284031215611a8b57600080fd5b611a9482611a62565b9392505050565b600060a083018251845260208084015181860152604084015160a0604087015282815180855260c0880191508383019450600092505b80831015611af15784518252938301936001929092019190830190611ad1565b50606086015160608801526080860151151560808801528094505050505092915050565b602081526000611a946020830184611a9b565b60008060008060808587031215611b3e57600080fd5b611b4785611a62565b9350611b5560208601611a62565b9250611b6360408601611a62565b9150611b7160608601611a62565b905092959194509250565b6020808252818101527f4f776e61626c653a2063616c6c6572206973206e6f7420746865206f776e6572604082015260600190565b600060208284031215611bc357600080fd5b5051919050565b6020808252600b908201526a2737ba1030b71022a7a09760a91b604082015260600190565b634e487b7160e01b600052604160045260246000fd5b60405160a0810167ffffffffffffffff81118282101715611c2857611c28611bef565b60405290565b604051601f8201601f1916810167ffffffffffffffff81118282101715611c5757611c57611bef565b604052919050565b805180151581146119af57600080fd5b60006020808385031215611c8257600080fd5b825167ffffffffffffffff80821115611c9a57600080fd5b9084019060a08287031215611cae57600080fd5b611cb6611c05565b825181528383015184820152604083015182811115611cd457600080fd5b8301601f81018813611ce557600080fd5b805183811115611cf757611cf7611bef565b8060051b9350611d08868501611c2e565b818152938201860193868101908a861115611d2257600080fd5b928701925b85841015611d4057835182529287019290870190611d27565b604085015250505060608381015190820152611d5e60808401611c5f565b60808201529695505050505050565b6020808252601b908201527f5061727469636970616e7420646f6573206e6f742065786973742e0000000000604082015260600190565b6001600160a01b039390931683526020830191909152604082015260806060820181905260009082015260a00190565b6001600160a01b0383168152604060208201819052600090611df890830184611a9b565b949350505050565b604081526000611e136040830185611a9b565b90508260208301529392505050565b805182526020810151602083015260408101516040830152606081015160608301526080810151151560808301525050565b60c081526000611e6760c0830185611a9b565b9050611a946020830184611e22565b600060a08284031215611e8857600080fd5b60405160a0810181811067ffffffffffffffff82111715611eab57611eab611bef565b806040525082518152602083015160208201526040830151604082015260608301516060820152611ede60808401611c5f565b60808201529392505050565b60c08101611ef88285611e22565b8260a08301529392505050565b82815260c08101611a946020830184611e22565b60005b83811015611f34578181015183820152602001611f1c565b83811115611f43576000848401525b50505050565b600060208284031215611f5b57600080fd5b815167ffffffffffffffff80821115611f7357600080fd5b818401915084601f830112611f8757600080fd5b815181811115611f9957611f99611bef565b611fac601f8201601f1916602001611c2e565b9150808252856020828501011115611fc357600080fd5b611fd4816020840160208601611f19565b50949350505050565b60008151808452611ff5816020860160208601611f19565b601f01601f19169290920160200192915050565b828152604060208201526000611df86040830184611fdd565b6001600160a01b03851681526101006020820181905260009061204783820187611a9b565b9150506120576040830185611e22565b8260e083015295945050505050565b602081526000611a946020830184611fdd565b6020808252602e908201527f496e697469616c697a61626c653a20636f6e747261637420697320616c72656160408201526d191e481a5b9a5d1a585b1a5e995960921b60608201526080019056fea26469706673582212201ac5436367a056616de5603e49ee38064df6ae7b04c5d5bb17aedc83650995fc64736f6c63430008090033",
  "linkReferences": {},
  "deployedLinkReferences": {}
}