{
  "_format": "hh-sol-artifact-1",
  "contractName": "KojoV1",
  "sourceName": "contracts/KojoV1.sol",
  "abi": [
    {
      "inputs": [],
      "name": "OnlySimulatedBackend",
      "type": "error"
    },
    {
      "anonymous": false,
      "inputs": [
        {
          "indexed": true,
          "internalType": "address",
          "name": "account",
          "type": "address"
        },
        {
          "indexed": true,
          "internalType": "address",
          "name": "operator",
          "type": "address"
        },
        {
          "indexed": false,
          "internalType": "bool",
          "name": "approved",
          "type": "bool"
        }
      ],
      "name": "ApprovalForAll",
      "type": "event"
    },
    {
      "anonymous": false,
      "inputs": [
        {
          "indexed": false,
          "internalType": "uint8",
          "name": "version",
          "type": "uint8"
        }
      ],
      "name": "Initialized",
      "type": "event"
    },
    {
      "anonymous": false,
      "inputs": [
        {
          "indexed": true,
          "internalType": "address",
          "name": "previousOwner",
          "type": "address"
        },
        {
          "indexed": true,
          "internalType": "address",
          "name": "newOwner",
          "type": "address"
        }
      ],
      "name": "OwnershipTransferred",
      "type": "event"
    },
    {
      "anonymous": false,
      "inputs": [
        {
          "components": [
            {
              "internalType": "uint256",
              "name": "level",
              "type": "uint256"
            },
            {
              "internalType": "uint256",
              "name": "experiencePoints",
              "type": "uint256"
            },
            {
              "internalType": "uint256",
              "name": "timestamp",
              "type": "uint256"
            },
            {
              "internalType": "uint256[]",
              "name": "plantIds",
              "type": "uint256[]"
            },
            {
              "internalType": "uint256",
              "name": "allowedTokenBalance",
              "type": "uint256"
            },
            {
              "internalType": "bool",
              "name": "isPresent",
              "type": "bool"
            }
          ],
          "indexed": false,
          "internalType": "struct Structs.Participant",
          "name": "participant",
          "type": "tuple"
        },
        {
          "components": [
            {
              "internalType": "uint256",
              "name": "typeId",
              "type": "uint256"
            },
            {
              "internalType": "uint256",
              "name": "level",
              "type": "uint256"
            },
            {
              "internalType": "uint256",
              "name": "experiencePoints",
              "type": "uint256"
            },
            {
              "internalType": "uint256",
              "name": "lifes",
              "type": "uint256"
            },
            {
              "internalType": "uint256",
              "name": "levelCost",
              "type": "uint256"
            },
            {
              "internalType": "bool",
              "name": "isPresent",
              "type": "bool"
            }
          ],
          "indexed": false,
          "internalType": "struct Structs.Plant",
          "name": "plant",
          "type": "tuple"
        }
      ],
      "name": "PlantMinted",
      "type": "event"
    },
    {
      "anonymous": false,
      "inputs": [
        {
          "components": [
            {
              "internalType": "uint256",
              "name": "level",
              "type": "uint256"
            },
            {
              "internalType": "uint256",
              "name": "experiencePoints",
              "type": "uint256"
            },
            {
              "internalType": "uint256",
              "name": "timestamp",
              "type": "uint256"
            },
            {
              "internalType": "uint256[]",
              "name": "plantIds",
              "type": "uint256[]"
            },
            {
              "internalType": "uint256",
              "name": "allowedTokenBalance",
              "type": "uint256"
            },
            {
              "internalType": "bool",
              "name": "isPresent",
              "type": "bool"
            }
          ],
          "indexed": false,
          "internalType": "struct Structs.Participant",
          "name": "participant",
          "type": "tuple"
        },
        {
          "components": [
            {
              "internalType": "uint256",
              "name": "typeId",
              "type": "uint256"
            },
            {
              "internalType": "uint256",
              "name": "level",
              "type": "uint256"
            },
            {
              "internalType": "uint256",
              "name": "experiencePoints",
              "type": "uint256"
            },
            {
              "internalType": "uint256",
              "name": "lifes",
              "type": "uint256"
            },
            {
              "internalType": "uint256",
              "name": "levelCost",
              "type": "uint256"
            },
            {
              "internalType": "bool",
              "name": "isPresent",
              "type": "bool"
            }
          ],
          "indexed": false,
          "internalType": "struct Structs.Plant",
          "name": "plant",
          "type": "tuple"
        }
      ],
      "name": "PlantWatered",
      "type": "event"
    },
    {
      "anonymous": false,
      "inputs": [
        {
          "components": [
            {
              "internalType": "uint256",
              "name": "level",
              "type": "uint256"
            },
            {
              "internalType": "uint256",
              "name": "experiencePoints",
              "type": "uint256"
            },
            {
              "internalType": "uint256",
              "name": "timestamp",
              "type": "uint256"
            },
            {
              "internalType": "uint256[]",
              "name": "plantIds",
              "type": "uint256[]"
            },
            {
              "internalType": "uint256",
              "name": "allowedTokenBalance",
              "type": "uint256"
            },
            {
              "internalType": "bool",
              "name": "isPresent",
              "type": "bool"
            }
          ],
          "indexed": false,
          "internalType": "struct Structs.Participant",
          "name": "participant",
          "type": "tuple"
        },
        {
          "indexed": false,
          "internalType": "uint256",
          "name": "amount",
          "type": "uint256"
        }
      ],
      "name": "TokensClaimed",
      "type": "event"
    },
    {
      "anonymous": false,
      "inputs": [
        {
          "indexed": true,
          "internalType": "address",
          "name": "operator",
          "type": "address"
        },
        {
          "indexed": true,
          "internalType": "address",
          "name": "from",
          "type": "address"
        },
        {
          "indexed": true,
          "internalType": "address",
          "name": "to",
          "type": "address"
        },
        {
          "indexed": false,
          "internalType": "uint256[]",
          "name": "ids",
          "type": "uint256[]"
        },
        {
          "indexed": false,
          "internalType": "uint256[]",
          "name": "values",
          "type": "uint256[]"
        }
      ],
      "name": "TransferBatch",
      "type": "event"
    },
    {
      "anonymous": false,
      "inputs": [
        {
          "indexed": true,
          "internalType": "address",
          "name": "operator",
          "type": "address"
        },
        {
          "indexed": true,
          "internalType": "address",
          "name": "from",
          "type": "address"
        },
        {
          "indexed": true,
          "internalType": "address",
          "name": "to",
          "type": "address"
        },
        {
          "indexed": false,
          "internalType": "uint256",
          "name": "id",
          "type": "uint256"
        },
        {
          "indexed": false,
          "internalType": "uint256",
          "name": "value",
          "type": "uint256"
        }
      ],
      "name": "TransferSingle",
      "type": "event"
    },
    {
      "anonymous": false,
      "inputs": [
        {
          "indexed": false,
          "internalType": "string",
          "name": "value",
          "type": "string"
        },
        {
          "indexed": true,
          "internalType": "uint256",
          "name": "id",
          "type": "uint256"
        }
      ],
      "name": "URI",
      "type": "event"
    },
    {
      "inputs": [
        {
          "internalType": "address",
          "name": "account",
          "type": "address"
        },
        {
          "internalType": "uint256",
          "name": "id",
          "type": "uint256"
        }
      ],
      "name": "balanceOf",
      "outputs": [
        {
          "internalType": "uint256",
          "name": "",
          "type": "uint256"
        }
      ],
      "stateMutability": "view",
      "type": "function"
    },
    {
      "inputs": [
        {
          "internalType": "address[]",
          "name": "accounts",
          "type": "address[]"
        },
        {
          "internalType": "uint256[]",
          "name": "ids",
          "type": "uint256[]"
        }
      ],
      "name": "balanceOfBatch",
      "outputs": [
        {
          "internalType": "uint256[]",
          "name": "",
          "type": "uint256[]"
        }
      ],
      "stateMutability": "view",
      "type": "function"
    },
    {
      "inputs": [],
      "name": "burnAddress",
      "outputs": [
        {
          "internalType": "address",
          "name": "",
          "type": "address"
        }
      ],
      "stateMutability": "view",
      "type": "function"
    },
    {
      "inputs": [
        {
          "internalType": "bytes",
          "name": "_checkData",
          "type": "bytes"
        }
      ],
      "name": "checkUpkeep",
      "outputs": [
        {
          "internalType": "bool",
          "name": "upkeepNeeded",
          "type": "bool"
        },
        {
          "internalType": "bytes",
          "name": "performData",
          "type": "bytes"
        }
      ],
      "stateMutability": "view",
      "type": "function"
    },
    {
      "inputs": [],
      "name": "contractURI",
      "outputs": [
        {
          "internalType": "string",
          "name": "",
          "type": "string"
        }
      ],
      "stateMutability": "view",
      "type": "function"
    },
    {
      "inputs": [
        {
          "internalType": "uint256",
          "name": "id",
          "type": "uint256"
        }
      ],
      "name": "exists",
      "outputs": [
        {
          "internalType": "bool",
          "name": "",
          "type": "bool"
        }
      ],
      "stateMutability": "view",
      "type": "function"
    },
    {
      "inputs": [],
      "name": "fungibleTokenId",
      "outputs": [
        {
          "internalType": "uint256",
          "name": "",
          "type": "uint256"
        }
      ],
      "stateMutability": "view",
      "type": "function"
    },
    {
      "inputs": [],
      "name": "handleBuyPlant",
      "outputs": [],
      "stateMutability": "payable",
      "type": "function"
    },
    {
      "inputs": [],
      "name": "handleClaimMonthlyReward",
      "outputs": [],
      "stateMutability": "nonpayable",
      "type": "function"
    },
    {
      "inputs": [],
      "name": "handleClaimStartTokens",
      "outputs": [],
      "stateMutability": "payable",
      "type": "function"
    },
    {
      "inputs": [],
      "name": "handleReadInititalAllowance",
      "outputs": [
        {
          "internalType": "uint256",
          "name": "",
          "type": "uint256"
        }
      ],
      "stateMutability": "view",
      "type": "function"
    },
    {
      "inputs": [
        {
          "internalType": "address",
          "name": "account",
          "type": "address"
        }
      ],
      "name": "handleReadParticipant",
      "outputs": [
        {
          "components": [
            {
              "internalType": "uint256",
              "name": "level",
              "type": "uint256"
            },
            {
              "internalType": "uint256",
              "name": "experiencePoints",
              "type": "uint256"
            },
            {
              "internalType": "uint256",
              "name": "timestamp",
              "type": "uint256"
            },
            {
              "internalType": "uint256[]",
              "name": "plantIds",
              "type": "uint256[]"
            },
            {
              "internalType": "uint256",
              "name": "allowedTokenBalance",
              "type": "uint256"
            },
            {
              "internalType": "bool",
              "name": "isPresent",
              "type": "bool"
            }
          ],
          "internalType": "struct Structs.Participant",
          "name": "",
          "type": "tuple"
        }
      ],
      "stateMutability": "view",
      "type": "function"
    },
    {
      "inputs": [],
      "name": "handleReadParticipantAddresses",
      "outputs": [
        {
          "internalType": "address[]",
          "name": "",
          "type": "address[]"
        }
      ],
      "stateMutability": "view",
      "type": "function"
    },
    {
      "inputs": [],
      "name": "handleReadParticipantLevelCost",
      "outputs": [
        {
          "internalType": "uint256",
          "name": "",
          "type": "uint256"
        }
      ],
      "stateMutability": "view",
      "type": "function"
    },
    {
      "inputs": [
        {
          "internalType": "uint256",
          "name": "tokenId",
          "type": "uint256"
        }
      ],
      "name": "handleReadPlant",
      "outputs": [
        {
          "components": [
            {
              "internalType": "uint256",
              "name": "typeId",
              "type": "uint256"
            },
            {
              "internalType": "uint256",
              "name": "level",
              "type": "uint256"
            },
            {
              "internalType": "uint256",
              "name": "experiencePoints",
              "type": "uint256"
            },
            {
              "internalType": "uint256",
              "name": "lifes",
              "type": "uint256"
            },
            {
              "internalType": "uint256",
              "name": "levelCost",
              "type": "uint256"
            },
            {
              "internalType": "bool",
              "name": "isPresent",
              "type": "bool"
            }
          ],
          "internalType": "struct Structs.Plant",
          "name": "",
          "type": "tuple"
        }
      ],
      "stateMutability": "view",
      "type": "function"
    },
    {
      "inputs": [
        {
          "internalType": "address",
          "name": "_store",
          "type": "address"
        },
        {
          "internalType": "address",
          "name": "_utils",
          "type": "address"
        },
        {
          "internalType": "address",
          "name": "_api",
          "type": "address"
        },
        {
          "internalType": "address",
          "name": "_burn",
          "type": "address"
        }
      ],
      "name": "handleUpdateContracts",
      "outputs": [],
      "stateMutability": "nonpayable",
      "type": "function"
    },
    {
      "inputs": [
        {
          "internalType": "uint256",
          "name": "tokenId",
          "type": "uint256"
        },
        {
          "internalType": "uint256",
          "name": "amount",
          "type": "uint256"
        }
      ],
      "name": "handleWaterPlant",
      "outputs": [],
      "stateMutability": "payable",
      "type": "function"
    },
    {
      "inputs": [
        {
          "internalType": "address",
          "name": "_store",
          "type": "address"
        },
        {
          "internalType": "address",
          "name": "_utils",
          "type": "address"
        },
        {
          "internalType": "address",
          "name": "_api",
          "type": "address"
        },
        {
          "internalType": "address",
          "name": "_burn",
          "type": "address"
        }
      ],
      "name": "initialize",
      "outputs": [],
      "stateMutability": "nonpayable",
      "type": "function"
    },
    {
      "inputs": [
        {
          "internalType": "address",
          "name": "_owner",
          "type": "address"
        },
        {
          "internalType": "address",
          "name": "_operator",
          "type": "address"
        }
      ],
      "name": "isApprovedForAll",
      "outputs": [
        {
          "internalType": "bool",
          "name": "isOperator",
          "type": "bool"
        }
      ],
      "stateMutability": "view",
      "type": "function"
    },
    {
      "inputs": [
        {
          "internalType": "address",
          "name": "to",
          "type": "address"
        },
        {
          "internalType": "uint256[]",
          "name": "ids",
          "type": "uint256[]"
        },
        {
          "internalType": "uint256[]",
          "name": "amounts",
          "type": "uint256[]"
        },
        {
          "internalType": "bytes",
          "name": "data",
          "type": "bytes"
        }
      ],
      "name": "mintBatch",
      "outputs": [],
      "stateMutability": "nonpayable",
      "type": "function"
    },
    {
      "inputs": [],
      "name": "nonFungibleTokenCount",
      "outputs": [
        {
          "internalType": "uint256",
          "name": "",
          "type": "uint256"
        }
      ],
      "stateMutability": "view",
      "type": "function"
    },
    {
      "inputs": [
        {
          "internalType": "address",
          "name": "",
          "type": "address"
        },
        {
          "internalType": "address",
          "name": "",
          "type": "address"
        },
        {
          "internalType": "uint256[]",
          "name": "",
          "type": "uint256[]"
        },
        {
          "internalType": "uint256[]",
          "name": "",
          "type": "uint256[]"
        },
        {
          "internalType": "bytes",
          "name": "",
          "type": "bytes"
        }
      ],
      "name": "onERC1155BatchReceived",
      "outputs": [
        {
          "internalType": "bytes4",
          "name": "",
          "type": "bytes4"
        }
      ],
      "stateMutability": "nonpayable",
      "type": "function"
    },
    {
      "inputs": [
        {
          "internalType": "address",
          "name": "",
          "type": "address"
        },
        {
          "internalType": "address",
          "name": "",
          "type": "address"
        },
        {
          "internalType": "uint256",
          "name": "",
          "type": "uint256"
        },
        {
          "internalType": "uint256",
          "name": "",
          "type": "uint256"
        },
        {
          "internalType": "bytes",
          "name": "",
          "type": "bytes"
        }
      ],
      "name": "onERC1155Received",
      "outputs": [
        {
          "internalType": "bytes4",
          "name": "",
          "type": "bytes4"
        }
      ],
      "stateMutability": "nonpayable",
      "type": "function"
    },
    {
      "inputs": [],
      "name": "owner",
      "outputs": [
        {
          "internalType": "address",
          "name": "",
          "type": "address"
        }
      ],
      "stateMutability": "view",
      "type": "function"
    },
    {
      "inputs": [
        {
          "internalType": "bytes",
          "name": "_performData",
          "type": "bytes"
        }
      ],
      "name": "performUpkeep",
      "outputs": [],
      "stateMutability": "nonpayable",
      "type": "function"
    },
    {
      "inputs": [],
      "name": "renounceOwnership",
      "outputs": [],
      "stateMutability": "nonpayable",
      "type": "function"
    },
    {
      "inputs": [
        {
          "internalType": "address",
          "name": "from",
          "type": "address"
        },
        {
          "internalType": "address",
          "name": "to",
          "type": "address"
        },
        {
          "internalType": "uint256[]",
          "name": "ids",
          "type": "uint256[]"
        },
        {
          "internalType": "uint256[]",
          "name": "amounts",
          "type": "uint256[]"
        },
        {
          "internalType": "bytes",
          "name": "data",
          "type": "bytes"
        }
      ],
      "name": "safeBatchTransferFrom",
      "outputs": [],
      "stateMutability": "nonpayable",
      "type": "function"
    },
    {
      "inputs": [
        {
          "internalType": "address",
          "name": "from",
          "type": "address"
        },
        {
          "internalType": "address",
          "name": "to",
          "type": "address"
        },
        {
          "internalType": "uint256",
          "name": "id",
          "type": "uint256"
        },
        {
          "internalType": "uint256",
          "name": "amount",
          "type": "uint256"
        },
        {
          "internalType": "bytes",
          "name": "data",
          "type": "bytes"
        }
      ],
      "name": "safeTransferFrom",
      "outputs": [],
      "stateMutability": "nonpayable",
      "type": "function"
    },
    {
      "inputs": [
        {
          "internalType": "address",
          "name": "operator",
          "type": "address"
        },
        {
          "internalType": "bool",
          "name": "approved",
          "type": "bool"
        }
      ],
      "name": "setApprovalForAll",
      "outputs": [],
      "stateMutability": "nonpayable",
      "type": "function"
    },
    {
      "inputs": [
        {
          "internalType": "string",
          "name": "newuri",
          "type": "string"
        }
      ],
      "name": "setURI",
      "outputs": [],
      "stateMutability": "nonpayable",
      "type": "function"
    },
    {
      "inputs": [
        {
          "internalType": "bytes4",
          "name": "interfaceId",
          "type": "bytes4"
        }
      ],
      "name": "supportsInterface",
      "outputs": [
        {
          "internalType": "bool",
          "name": "",
          "type": "bool"
        }
      ],
      "stateMutability": "view",
      "type": "function"
    },
    {
      "inputs": [
        {
          "internalType": "uint256",
          "name": "id",
          "type": "uint256"
        }
      ],
      "name": "totalSupply",
      "outputs": [
        {
          "internalType": "uint256",
          "name": "",
          "type": "uint256"
        }
      ],
      "stateMutability": "view",
      "type": "function"
    },
    {
      "inputs": [
        {
          "internalType": "address",
          "name": "newOwner",
          "type": "address"
        }
      ],
      "name": "transferOwnership",
      "outputs": [],
      "stateMutability": "nonpayable",
      "type": "function"
    },
    {
      "inputs": [
        {
          "internalType": "uint256",
          "name": "tokenId",
          "type": "uint256"
        }
      ],
      "name": "uri",
      "outputs": [
        {
          "internalType": "string",
          "name": "",
          "type": "string"
        }
      ],
      "stateMutability": "view",
      "type": "function"
    },
    {
      "inputs": [],
      "name": "withdrawKojos",
      "outputs": [],
      "stateMutability": "payable",
      "type": "function"
    }
  ],
  "bytecode": "0x60806040523480156200001157600080fd5b506200001c62000022565b62000152565b6200002e60ff62000031565b50565b60008054610100900460ff1615620000ca578160ff1660011480156200006a575062000068306200014360201b620022eb1760201c565b155b620000c25760405162461bcd60e51b815260206004820152602e60248201526000805160206200469583398151915260448201526d191e481a5b9a5d1a585b1a5e995960921b60648201526084015b60405180910390fd5b506000919050565b60005460ff808416911610620001295760405162461bcd60e51b815260206004820152602e60248201526000805160206200469583398151915260448201526d191e481a5b9a5d1a585b1a5e995960921b6064820152608401620000b9565b506000805460ff191660ff92909216919091179055600190565b6001600160a01b03163b151590565b61453380620001626000396000f3fe6080604052600436106102035760003560e01c806370d5ae0511610118578063e5999139116100a0578063f242432a1161006f578063f242432a14610611578063f2fde38b14610631578063f8c8765e14610651578063fabe6b3c14610671578063fc57ca291461067957600080fd5b8063e599913914610583578063e8a3d485146105b0578063e985e9c5146105c5578063f23a6e61146105e557600080fd5b8063a22cb465116100e7578063a22cb465146104d1578063b4daaf55146104f1578063bacb7dc014610508578063bc197c8114610510578063bd85b0391461055557600080fd5b806370d5ae051461045d578063715018a6146104965780638da5cb5b146104ab5780639c3423b1146104c957600080fd5b806326fad7771161019b5780634e1273f41161016a5780634e1273f4146103a85780634f558e79146103d5578063584c7b37146104055780636c7ff22e1461041a5780636e04ff0d1461042f57600080fd5b806326fad7771461032f5780632eb2c2d6146103515780634585e33b1461037157806345e8eca81461039157600080fd5b8063121a80bf116101d7578063121a80bf146102ba5780631f79087b146102cf5780631f7fdffa146102e25780631fec8c021461030257600080fd5b8062fdd58e1461020857806301ffc9a71461023b57806302fe53051461026b5780630e89341c1461028d575b600080fd5b34801561021457600080fd5b50610228610223366004613400565b610699565b6040519081526020015b60405180910390f35b34801561024757600080fd5b5061025b610256366004613442565b610735565b6040519015158152602001610232565b34801561027757600080fd5b5061028b610286366004613533565b610740565b005b34801561029957600080fd5b506102ad6102a8366004613583565b610795565b60405161023291906135f4565b3480156102c657600080fd5b50610228610838565b61028b6102dd366004613607565b6109aa565b3480156102ee57600080fd5b5061028b6102fd3660046136dd565b610ecf565b34801561030e57600080fd5b5061032261031d366004613583565b610f2a565b60405161023291906137b3565b34801561033b57600080fd5b50610344610fd3565b60405161023291906137c1565b34801561035d57600080fd5b5061028b61036c36600461380e565b61104b565b34801561037d57600080fd5b5061028b61038c3660046138bb565b6110f4565b34801561039d57600080fd5b506102286101615481565b3480156103b457600080fd5b506103c86103c336600461392c565b61144b565b6040516102329190613a33565b3480156103e157600080fd5b5061025b6103f0366004613583565b600090815261012d6020526040902054151590565b34801561041157600080fd5b50610228611574565b34801561042657600080fd5b5061028b6115e3565b34801561043b57600080fd5b5061044f61044a3660046138bb565b6117ec565b604051610232929190613a46565b34801561046957600080fd5b506101655461047e906001600160a01b031681565b6040516001600160a01b039091168152602001610232565b3480156104a257600080fd5b5061028b611964565b3480156104b757600080fd5b506097546001600160a01b031661047e565b61028b6119b9565b3480156104dd57600080fd5b5061028b6104ec366004613a6f565b611ba5565b3480156104fd57600080fd5b506102286101605481565b61028b611bbb565b34801561051c57600080fd5b5061053c61052b36600461380e565b63bc197c8160e01b95945050505050565b6040516001600160e01b03199091168152602001610232565b34801561056157600080fd5b50610228610570366004613583565b600090815261012d602052604090205490565b34801561058f57600080fd5b506105a361059e366004613aa8565b611c3d565b6040516102329190613b1a565b3480156105bc57600080fd5b506102ad611ceb565b3480156105d157600080fd5b5061025b6105e0366004613b2d565b611d0b565b3480156105f157600080fd5b5061053c610600366004613b5b565b63f23a6e6160e01b95945050505050565b34801561061d57600080fd5b5061028b61062c366004613b5b565b611d6b565b34801561063d57600080fd5b5061028b61064c366004613aa8565b611e04565b34801561065d57600080fd5b5061028b61066c366004613bc3565b611ebb565b61028b611f81565b34801561068557600080fd5b5061028b610694366004613bc3565b61224e565b60006001600160a01b03831661070a5760405162461bcd60e51b815260206004820152602b60248201527f455243313135353a2062616c616e636520717565727920666f7220746865207a60448201526a65726f206164647265737360a81b60648201526084015b60405180910390fd5b5060008181526065602090815260408083206001600160a01b03861684529091529020545b92915050565b600061072f826122fa565b61074861231f565b6001600160a01b03166107636097546001600160a01b031690565b6001600160a01b0316146107895760405162461bcd60e51b815260040161070190613c1f565b61079281612329565b50565b600081815261015f602052604090208054606091906107b390613c54565b80601f01602080910402602001604051908101604052809291908181526020018280546107df90613c54565b801561082c5780601f106108015761010080835404028352916020019161082c565b820191906000526020600020905b81548152906001019060200180831161080f57829003601f168201915b50505050509050919050565b60008061016260009054906101000a90046001600160a01b03166001600160a01b031663245e41f46040518163ffffffff1660e01b8152600401602060405180830381865afa15801561088f573d6000803e3d6000fd5b505050506040513d601f19601f820116820180604052508101906108b39190613c8f565b6101625460405163e599913960e01b81523360048201529192506000916001600160a01b039091169063e599913990602401600060405180830381865afa158015610902573d6000803e3d6000fd5b505050506040513d6000823e601f3d908101601f1916820160405261092a9190810190613cb3565b610163548151604051632424a0e960e01b81526004810186905260248101919091529192506001600160a01b031690632424a0e990604401602060405180830381865afa15801561097f573d6000803e3d6000fd5b505050506040513d601f19601f820116820180604052508101906109a39190613c8f565b9250505090565b3233146109c95760405162461bcd60e51b815260040161070190613dba565b6101625460405163e599913960e01b81523360048201526000916001600160a01b03169063e599913990602401600060405180830381865afa158015610a13573d6000803e3d6000fd5b505050506040513d6000823e601f3d908101601f19168201604052610a3b9190810190613cb3565b61016254604051630ff6460160e11b8152600481018690529192506000916001600160a01b0390911690631fec8c029060240160c060405180830381865afa158015610a8b573d6000803e3d6000fd5b505050506040513d601f19601f82011682018060405250810190610aaf9190613ddf565b90508160a00151610ad25760405162461bcd60e51b815260040161070190613e5e565b8060a00151610b1b5760405162461bcd60e51b8152602060048201526015602482015274283630b73a103237b2b9903737ba1032bc34b9ba1760591b6044820152606401610701565b6000610b2a3361016054610699565b905083811015610b8a5760405162461bcd60e51b815260206004820152602560248201527f4e6f7420656e6f756768206b6f6a6f7320746f20776174657220796f757220706044820152643630b73a1760d91b6064820152608401610701565b6000610b94610838565b6101635460405163589d26e760e11b81529192506000916001600160a01b039091169063b13a4dce90610bcf9088908a908790600401613e95565b600060405180830381865afa158015610bec573d6000803e3d6000fd5b505050506040513d6000823e601f3d908101601f19168201604052610c149190810190613cb3565b6101635460405163348fd32360e11b81529192506000916001600160a01b039091169063691fa64690610c4d9088908b90600401613eba565b60c060405180830381865afa158015610c6a573d6000803e3d6000fd5b505050506040513d601f19601f82011682018060405250810190610c8e9190613ddf565b610162546040516305518f8360e11b81529192506001600160a01b031690630aa31f0690610cc29033908690600401613ed5565b6000604051808303816000875af1158015610ce1573d6000803e3d6000fd5b505050506040513d6000823e601f3d908101601f19168201604052610d099190810190613cb3565b50610162546040516315485de360e01b81526001600160a01b03909116906315485de390610d3d908b908590600401613ef9565b60c0604051808303816000875af1158015610d5c573d6000803e3d6000fd5b505050506040513d601f19601f82011682018060405250810190610d809190613ddf565b5061016354604051637182817b60e01b81526000916001600160a01b031690637182817b90610db39085906004016137b3565b600060405180830381865afa158015610dd0573d6000803e3d6000fd5b505050506040513d6000823e601f3d908101601f19168201604052610df89190810190613f0d565b9050610e04898261233c565b60006064610e138a6002613fa4565b610e1d9190613fc3565b905060006064610e2e8b6062613fa4565b610e389190613fc3565b9050610e593330610160548560405180602001604052806000815250611d6b565b6101655461016054604080516020810190915260008152610e899233926001600160a01b03909116918590611d6b565b7f7a47fe3cbe372ae400eb6e38c14ba1be808444d1bc51ac622185fd55b08b1a788585604051610eba929190613fe5565b60405180910390a15050505050505050505050565b610ed761231f565b6001600160a01b0316610ef26097546001600160a01b031690565b6001600160a01b031614610f185760405162461bcd60e51b815260040161070190613c1f565b610f2484848484612361565b50505050565b610f656040518060c0016040528060008152602001600081526020016000815260200160008152602001600081526020016000151581525090565b61016254604051630ff6460160e11b8152600481018490526001600160a01b0390911690631fec8c029060240160c060405180830381865afa158015610faf573d6000803e3d6000fd5b505050506040513d601f19601f8201168201806040525081019061072f9190613ddf565b61016254604080516326fad77760e01b815290516060926001600160a01b0316916326fad7779160048083019260009291908290030181865afa15801561101e573d6000803e3d6000fd5b505050506040513d6000823e601f3d908101601f191682016040526110469190810190614007565b905090565b61105361231f565b6001600160a01b0316856001600160a01b031614806110795750611079856105e061231f565b6110e05760405162461bcd60e51b815260206004820152603260248201527f455243313135353a207472616e736665722063616c6c6572206973206e6f74206044820152711bdddb995c881b9bdc88185c1c1c9bdd995960721b6064820152608401610701565b6110ed85858585856124c7565b5050505050565b61016254604080516326fad77760e01b815290516000926001600160a01b0316916326fad77791600480830192869291908290030181865afa15801561113e573d6000803e3d6000fd5b505050506040513d6000823e601f3d908101601f191682016040526111669190810190614007565b905060005b8151811015610f24576000828281518110611188576111886140ab565b60209081029190910101516101625460405163e599913960e01b81526001600160a01b0380841660048301529293506000929091169063e599913990602401600060405180830381865afa1580156111e4573d6000803e3d6000fd5b505050506040513d6000823e601f3d908101601f1916820160405261120c9190810190613cb3565b90508060a001518015611223575080604001514210155b15611436576101635460408051606085901b6bffffffffffffffffffffffff191660208201528151601481830301815260348201928390526371aad10d60e01b9092526000926001600160a01b0316916371aad10d9161128691906038016135f4565b600060405180830381865afa1580156112a3573d6000803e3d6000fd5b505050506040513d6000823e601f3d908101601f191682016040526112cb9190810190613f0d565b61016454604051634471377560e11b81529192506001600160a01b0316906388e26eea906112fd9084906004016135f4565b600060405180830381600087803b15801561131757600080fd5b505af115801561132b573d6000803e3d6000fd5b5050505061016260009054906101000a90046001600160a01b03166001600160a01b031663745894346040518163ffffffff1660e01b8152600401602060405180830381865afa158015611383573d6000803e3d6000fd5b505050506040513d601f19601f820116820180604052508101906113a79190613c8f565b6113b190426140c1565b6040808401919091526101625490516305518f8360e11b81526001600160a01b0390911690630aa31f06906113ec9086908690600401613ed5565b6000604051808303816000875af115801561140b573d6000803e3d6000fd5b505050506040513d6000823e601f3d908101601f191682016040526114339190810190613cb3565b50505b50508080611443906140d9565b91505061116b565b606081518351146114b05760405162461bcd60e51b815260206004820152602960248201527f455243313135353a206163636f756e747320616e6420696473206c656e677468604482015268040dad2e6dac2e8c6d60bb1b6064820152608401610701565b600083516001600160401b038111156114cb576114cb61345f565b6040519080825280602002602001820160405280156114f4578160200160208202803683370190505b50905060005b845181101561156c5761153f858281518110611518576115186140ab565b6020026020010151858381518110611532576115326140ab565b6020026020010151610699565b828281518110611551576115516140ab565b6020908102919091010152611565816140d9565b90506114fa565b509392505050565b6101625460408051631bca55e560e01b815290516000926001600160a01b031691631bca55e59160048083019260209291908290030181865afa1580156115bf573d6000803e3d6000fd5b505050506040513d601f19601f820116820180604052508101906110469190613c8f565b3233146116025760405162461bcd60e51b815260040161070190613dba565b6101625460405163e599913960e01b81523360048201526000916001600160a01b03169063e599913990602401600060405180830381865afa15801561164c573d6000803e3d6000fd5b505050506040513d6000823e601f3d908101601f191682016040526116749190810190613cb3565b90508060a001516116975760405162461bcd60e51b815260040161070190613e5e565b60008160800151116117075760405162461bcd60e51b815260206004820152603360248201527f5061727469636970616e7420646f65736e2774206861766520616c6c6f77616e60448201527231b2903a379031b630b4b6903a37b5b2b7399760691b6064820152608401610701565b611729336101605483608001516040518060200160405280600081525061267f565b60006080820152610162546040516305518f8360e11b815282916001600160a01b031690630aa31f06906117639033908590600401613ed5565b6000604051808303816000875af1158015611782573d6000803e3d6000fd5b505050506040513d6000823e601f3d908101601f191682016040526117aa9190810190613cb3565b507f9014d2efd8c9aeeb2f911acca5d3df29a9f7b10b6566664cd0367c9cbd4c41d18283608001516040516117e09291906140f4565b60405180910390a15050565b60006060600061016260009054906101000a90046001600160a01b03166001600160a01b03166326fad7776040518163ffffffff1660e01b8152600401600060405180830381865afa158015611846573d6000803e3d6000fd5b505050506040513d6000823e601f3d908101601f1916820160405261186e9190810190614007565b905060005b815181101561194a576000828281518110611890576118906140ab565b60209081029190910101516101625460405163e599913960e01b81526001600160a01b0380841660048301529293506000929091169063e599913990602401600060405180830381865afa1580156118ec573d6000803e3d6000fd5b505050506040513d6000823e601f3d908101601f191682016040526119149190810190613cb3565b90508060a00151801561192b575080604001514210155b1561193557600195505b50508080611942906140d9565b915050611873565b505060408051602081019091526000815290509250929050565b61196c61231f565b6001600160a01b03166119876097546001600160a01b031690565b6001600160a01b0316146119ad5760405162461bcd60e51b815260040161070190613c1f565b6119b76000612775565b565b3233146119d85760405162461bcd60e51b815260040161070190613dba565b6101625460405163e599913960e01b81523360048201526000916001600160a01b03169063e599913990602401600060405180830381865afa158015611a22573d6000803e3d6000fd5b505050506040513d6000823e601f3d908101601f19168201604052611a4a9190810190613cb3565b90508060a00151611a6d5760405162461bcd60e51b815260040161070190613e5e565b6000611a7c3361016054610699565b905061016260009054906101000a90046001600160a01b03166001600160a01b03166358ac00386040518163ffffffff1660e01b8152600401602060405180830381865afa158015611ad2573d6000803e3d6000fd5b505050506040513d601f19601f82011682018060405250810190611af69190613c8f565b811015611b575760405162461bcd60e51b815260206004820152602960248201527f4e6f7420656e6f756768206b6f6a6f732e204f6e6520706c616e7420636f73746044820152683990189035b7b5379760b91b6064820152608401610701565b600080611b626127c7565b915091507f1d433c6c2abd3bf2a6cfd16acdabe4e34bbd292e7d77e2eb09493bd781e2f4ae8282604051611b97929190613fe5565b60405180910390a150505050565b611bb7611bb061231f565b8383612ae4565b5050565b611bc361231f565b6001600160a01b0316611bde6097546001600160a01b031690565b6001600160a01b031614611c045760405162461bcd60e51b815260040161070190613c1f565b6119b730611c1a6097546001600160a01b031690565b61016054611c283082610699565b60405180602001604052806000815250611d6b565b611c786040518060c0016040528060008152602001600081526020016000815260200160608152602001600081526020016000151581525090565b6101625460405163e599913960e01b81526001600160a01b0384811660048301529091169063e599913990602401600060405180830381865afa158015611cc3573d6000803e3d6000fd5b505050506040513d6000823e601f3d908101601f1916820160405261072f9190810190613cb3565b60606040518060600160405280602481526020016144da60249139905090565b60006001600160a01b03821673207fa8df3a17d96ca7ea4f2893fcdcb78a3041011415611d3a5750600161072f565b6001600160a01b0380841660009081526066602090815260408083209386168352929052205460ff165b9392505050565b611d7361231f565b6001600160a01b0316856001600160a01b03161480611d995750611d99856105e061231f565b611df75760405162461bcd60e51b815260206004820152602960248201527f455243313135353a2063616c6c6572206973206e6f74206f776e6572206e6f7260448201526808185c1c1c9bdd995960ba1b6064820152608401610701565b6110ed8585858585612bc5565b611e0c61231f565b6001600160a01b0316611e276097546001600160a01b031690565b6001600160a01b031614611e4d5760405162461bcd60e51b815260040161070190613c1f565b6001600160a01b038116611eb25760405162461bcd60e51b815260206004820152602660248201527f4f776e61626c653a206e6577206f776e657220697320746865207a65726f206160448201526564647265737360d01b6064820152608401610701565b61079281612775565b6000611ec76001612d0c565b90508015611edf576000805461ff0019166101001790555b611ee7612d99565b61016280546001600160a01b038088166001600160a01b0319928316179092556101638054878416908316179055610164805486841690831617905561016580549285169290911691909117905580156110ed576000805461ff0019169055604051600181527f7f26b83ff96e1f2b6a682f133852f6798a09c465da95921460cefb38474024989060200160405180910390a15050505050565b323314611fa05760405162461bcd60e51b815260040161070190613dba565b6101625460405163e599913960e01b81523360048201526000916001600160a01b03169063e599913990602401600060405180830381865afa158015611fea573d6000803e3d6000fd5b505050506040513d6000823e601f3d908101601f191682016040526120129190810190613cb3565b90508060a001511561209b5760405162461bcd60e51b815260206004820152604660248201527f5061727469636970616e7420616c7265616479206578697374732e20596f752060448201527f63616e206f6e6c7920636c61696d20796f757220696e7469616c206b6f6a6f736064820152651037b731b29760d11b608482015260a401610701565b610162546040516311622ce560e01b81523360048201526000916001600160a01b0316906311622ce5906024016000604051808303816000875af11580156120e7573d6000803e3d6000fd5b505050506040513d6000823e601f3d908101601f1916820160405261210f9190810190613cb3565b90506121a6336101605461016260009054906101000a90046001600160a01b03166001600160a01b0316631bca55e56040518163ffffffff1660e01b8152600401602060405180830381865afa15801561216d573d6000803e3d6000fd5b505050506040513d601f19601f820116820180604052508101906121919190613c8f565b6040518060200160405280600081525061267f565b7f9014d2efd8c9aeeb2f911acca5d3df29a9f7b10b6566664cd0367c9cbd4c41d18161016260009054906101000a90046001600160a01b03166001600160a01b0316631bca55e56040518163ffffffff1660e01b8152600401602060405180830381865afa15801561221c573d6000803e3d6000fd5b505050506040513d601f19601f820116820180604052508101906122409190613c8f565b6040516117e09291906140f4565b61225661231f565b6001600160a01b03166122716097546001600160a01b031690565b6001600160a01b0316146122975760405162461bcd60e51b815260040161070190613c1f565b61016280546001600160a01b039586166001600160a01b0319918216179091556101638054948616948216949094179093556101648054928516928416929092179091556101658054919093169116179055565b6001600160a01b03163b151590565b60006001600160e01b03198216630271189760e51b148061072f575061072f82612e19565b6000611046612e69565b8051611bb7906067906020840190613352565b600082815261015f60209081526040909120825161235c92840190613352565b505050565b6001600160a01b0384166123875760405162461bcd60e51b815260040161070190614116565b81518351146123a85760405162461bcd60e51b815260040161070190614157565b60006123b261231f565b90506123c381600087878787612ec6565b60005b845181101561245f578381815181106123e1576123e16140ab565b6020026020010151606560008784815181106123ff576123ff6140ab565b602002602001015181526020019081526020016000206000886001600160a01b03166001600160a01b03168152602001908152602001600020600082825461244791906140c1565b90915550819050612457816140d9565b9150506123c6565b50846001600160a01b031660006001600160a01b0316826001600160a01b03167f4a39dc06d4c0dbc64b70af90fd698a233a518aa5d07e595d983b8c0526c8f7fb87876040516124b092919061419f565b60405180910390a46110ed81600087878787612ed4565b81518351146124e85760405162461bcd60e51b815260040161070190614157565b6001600160a01b03841661250e5760405162461bcd60e51b8152600401610701906141cd565b600061251861231f565b9050612528818787878787612ec6565b60005b8451811015612611576000858281518110612548576125486140ab565b602002602001015190506000858381518110612566576125666140ab565b60209081029190910181015160008481526065835260408082206001600160a01b038e1683529093529190912054909150818110156125b75760405162461bcd60e51b815260040161070190614212565b60008381526065602090815260408083206001600160a01b038e8116855292528083208585039055908b168252812080548492906125f69084906140c1565b925050819055505050508061260a906140d9565b905061252b565b50846001600160a01b0316866001600160a01b0316826001600160a01b03167f4a39dc06d4c0dbc64b70af90fd698a233a518aa5d07e595d983b8c0526c8f7fb878760405161266192919061419f565b60405180910390a4612677818787878787612ed4565b505050505050565b6001600160a01b0384166126a55760405162461bcd60e51b815260040161070190614116565b60006126af61231f565b905060006126bc85613030565b905060006126c985613030565b90506126da83600089858589612ec6565b60008681526065602090815260408083206001600160a01b038b1684529091528120805487929061270c9084906140c1565b909155505060408051878152602081018790526001600160a01b03808a1692600092918716917fc3d58168c5ae7397731d063d5bbf3d657854427343f4c083240f7aacaa2d0f62910160405180910390a461276c8360008989898961307b565b50505050505050565b609780546001600160a01b038381166001600160a01b0319831681179093556040519116919082907f8be0079c531659141344cd1fd0a4f28419497f9722a3daafe3b4186f6b6457e090600090a35050565b6128026040518060c0016040528060008152602001600081526020016000815260200160608152602001600081526020016000151581525090565b61283d6040518060c0016040528060008152602001600081526020016000815260200160008152602001600081526020016000151581525090565b61285c336101615460016040518060200160405280600081525061267f565b6128dd33306101605461016260009054906101000a90046001600160a01b03166001600160a01b03166358ac00386040518163ffffffff1660e01b8152600401602060405180830381865afa1580156128b9573d6000803e3d6000fd5b505050506040513d601f19601f82011682018060405250810190611c289190613c8f565b6101625461016154604051639fd9491760e01b815233600482015260248101919091526000916001600160a01b031690639fd94917906044016000604051808303816000875af1158015612935573d6000803e3d6000fd5b505050506040513d6000823e601f3d908101601f1916820160405261295d9190810190613cb3565b6101625461016154604051631ec5a1a760e21b81529293506000926001600160a01b0390921691637b16869c9161299a9160040190815260200190565b60c0604051808303816000875af11580156129b9573d6000803e3d6000fd5b505050506040513d601f19601f820116820180604052508101906129dd9190613ddf565b61016354604051637182817b60e01b81529192506000916001600160a01b0390911690637182817b90612a149085906004016137b3565b600060405180830381865afa158015612a31573d6000803e3d6000fd5b505050506040513d6000823e601f3d908101601f19168201604052612a599190810190613f0d565b9050612a68610161548261233c565b612a70613136565b61016260009054906101000a90046001600160a01b03166001600160a01b0316630591f3626040518163ffffffff1660e01b8152600401600060405180830381600087803b158015612ac157600080fd5b505af1158015612ad5573d6000803e3d6000fd5b50949793965092945050505050565b816001600160a01b0316836001600160a01b03161415612b585760405162461bcd60e51b815260206004820152602960248201527f455243313135353a2073657474696e6720617070726f76616c20737461747573604482015268103337b91039b2b63360b91b6064820152608401610701565b6001600160a01b03838116600081815260666020908152604080832094871680845294825291829020805460ff191686151590811790915591519182527f17307eab39ab6107e8899845ad3d59bd9653f200f220920489ca2b5937696c31910160405180910390a3505050565b6001600160a01b038416612beb5760405162461bcd60e51b8152600401610701906141cd565b6000612bf561231f565b90506000612c0285613030565b90506000612c0f85613030565b9050612c1f838989858589612ec6565b60008681526065602090815260408083206001600160a01b038c16845290915290205485811015612c625760405162461bcd60e51b815260040161070190614212565b60008781526065602090815260408083206001600160a01b038d8116855292528083208985039055908a16825281208054889290612ca19084906140c1565b909155505060408051888152602081018890526001600160a01b03808b16928c821692918816917fc3d58168c5ae7397731d063d5bbf3d657854427343f4c083240f7aacaa2d0f62910160405180910390a4612d01848a8a8a8a8a61307b565b505050505050505050565b60008054610100900460ff1615612d53578160ff166001148015612d2f5750303b155b612d4b5760405162461bcd60e51b81526004016107019061425c565b506000919050565b60005460ff808416911610612d7a5760405162461bcd60e51b81526004016107019061425c565b506000805460ff191660ff92909216919091179055600190565b919050565b600054610100900460ff16612dc05760405162461bcd60e51b8152600401610701906142aa565b612dd860405180602001604052806000815250613151565b612de0613178565b612de86131af565b6000610160819055600161016155604080516080810190915260438082526119b7929190614497602083013961233c565b60006001600160e01b03198216636cdb3d1360e11b1480612e4a57506001600160e01b031982166303a24d0760e21b145b8061072f57506301ffc9a760e01b6001600160e01b031983161461072f565b600033301415612ec057600080368080601f0160208091040260200160405190810160405280939291908181526020018383808284376000920191909152505050503601516001600160a01b03169150612ec39050565b50335b90565b6126778686868686866131d6565b6001600160a01b0384163b156126775760405163bc197c8160e01b81526001600160a01b0385169063bc197c8190612f1890899089908890889088906004016142f5565b6020604051808303816000875af1925050508015612f53575060408051601f3d908101601f19168201909252612f5091810190614353565b60015b61300057612f5f614370565b806308c379a01415612f995750612f7461438b565b80612f7f5750612f9b565b8060405162461bcd60e51b815260040161070191906135f4565b505b60405162461bcd60e51b815260206004820152603460248201527f455243313135353a207472616e7366657220746f206e6f6e20455243313135356044820152732932b1b2b4bb32b91034b6b83632b6b2b73a32b960611b6064820152608401610701565b6001600160e01b0319811663bc197c8160e01b1461276c5760405162461bcd60e51b815260040161070190614414565b6040805160018082528183019092526060916000919060208083019080368337019050509050828160008151811061306a5761306a6140ab565b602090810291909101015292915050565b6001600160a01b0384163b156126775760405163f23a6e6160e01b81526001600160a01b0385169063f23a6e61906130bf908990899088908890889060040161445c565b6020604051808303816000875af19250505080156130fa575060408051601f3d908101601f191682019092526130f791810190614353565b60015b61310657612f5f614370565b6001600160e01b0319811663f23a6e6160e01b1461276c5760405162461bcd60e51b815260040161070190614414565b6001610161600082825461314a91906140c1565b9091555050565b600054610100900460ff166107895760405162461bcd60e51b8152600401610701906142aa565b600054610100900460ff1661319f5760405162461bcd60e51b8152600401610701906142aa565b6119b76131aa61231f565b612775565b600054610100900460ff166119b75760405162461bcd60e51b8152600401610701906142aa565b6001600160a01b03851661325e5760005b835181101561325c57828181518110613202576132026140ab565b602002602001015161012d6000868481518110613221576132216140ab565b60200260200101518152602001908152602001600020600082825461324691906140c1565b909155506132559050816140d9565b90506131e7565b505b6001600160a01b0384166126775760005b835181101561276c57600084828151811061328c5761328c6140ab565b6020026020010151905060008483815181106132aa576132aa6140ab565b60200260200101519050600061012d60008481526020019081526020016000205490508181101561332e5760405162461bcd60e51b815260206004820152602860248201527f455243313135353a206275726e20616d6f756e74206578636565647320746f74604482015267616c537570706c7960c01b6064820152608401610701565b600092835261012d60205260409092209103905561334b816140d9565b905061326f565b82805461335e90613c54565b90600052602060002090601f01602090048101928261338057600085556133c6565b82601f1061339957805160ff19168380011785556133c6565b828001600101855582156133c6579182015b828111156133c65782518255916020019190600101906133ab565b506133d29291506133d6565b5090565b5b808211156133d257600081556001016133d7565b6001600160a01b038116811461079257600080fd5b6000806040838503121561341357600080fd5b823561341e816133eb565b946020939093013593505050565b6001600160e01b03198116811461079257600080fd5b60006020828403121561345457600080fd5b8135611d648161342c565b634e487b7160e01b600052604160045260246000fd5b60c081018181106001600160401b03821117156134945761349461345f565b60405250565b601f8201601f191681016001600160401b03811182821017156134bf576134bf61345f565b6040525050565b60006001600160401b038211156134df576134df61345f565b50601f01601f191660200190565b60006134f8836134c6565b604051613505828261349a565b80925084815285858501111561351a57600080fd5b8484602083013760006020868301015250509392505050565b60006020828403121561354557600080fd5b81356001600160401b0381111561355b57600080fd5b8201601f8101841361356c57600080fd5b61357b848235602084016134ed565b949350505050565b60006020828403121561359557600080fd5b5035919050565b60005b838110156135b757818101518382015260200161359f565b83811115610f245750506000910152565b600081518084526135e081602086016020860161359c565b601f01601f19169290920160200192915050565b602081526000611d6460208301846135c8565b6000806040838503121561361a57600080fd5b50508035926020909101359150565b60006001600160401b038211156136425761364261345f565b5060051b60200190565b600082601f83011261365d57600080fd5b8135602061366a82613629565b604051613677828261349a565b83815260059390931b850182019282810191508684111561369757600080fd5b8286015b848110156136b2578035835291830191830161369b565b509695505050505050565b600082601f8301126136ce57600080fd5b611d64838335602085016134ed565b600080600080608085870312156136f357600080fd5b84356136fe816133eb565b935060208501356001600160401b038082111561371a57600080fd5b6137268883890161364c565b9450604087013591508082111561373c57600080fd5b6137488883890161364c565b9350606087013591508082111561375e57600080fd5b5061376b878288016136bd565b91505092959194509250565b805182526020810151602083015260408101516040830152606081015160608301526080810151608083015260a0810151151560a08301525050565b60c0810161072f8284613777565b6020808252825182820181905260009190848201906040850190845b818110156138025783516001600160a01b0316835292840192918401916001016137dd565b50909695505050505050565b600080600080600060a0868803121561382657600080fd5b8535613831816133eb565b94506020860135613841816133eb565b935060408601356001600160401b038082111561385d57600080fd5b61386989838a0161364c565b9450606088013591508082111561387f57600080fd5b61388b89838a0161364c565b935060808801359150808211156138a157600080fd5b506138ae888289016136bd565b9150509295509295909350565b600080602083850312156138ce57600080fd5b82356001600160401b03808211156138e557600080fd5b818501915085601f8301126138f957600080fd5b81358181111561390857600080fd5b86602082850101111561391a57600080fd5b60209290920196919550909350505050565b6000806040838503121561393f57600080fd5b82356001600160401b038082111561395657600080fd5b818501915085601f83011261396a57600080fd5b8135602061397782613629565b604051613984828261349a565b83815260059390931b85018201928281019150898411156139a457600080fd5b948201945b838610156139cb5785356139bc816133eb565b825294820194908201906139a9565b965050860135925050808211156139e157600080fd5b506139ee8582860161364c565b9150509250929050565b600081518084526020808501945080840160005b83811015613a2857815187529582019590820190600101613a0c565b509495945050505050565b602081526000611d6460208301846139f8565b821515815260406020820152600061357b60408301846135c8565b801515811461079257600080fd5b60008060408385031215613a8257600080fd5b8235613a8d816133eb565b91506020830135613a9d81613a61565b809150509250929050565b600060208284031215613aba57600080fd5b8135611d64816133eb565b8051825260208101516020830152604081015160408301526000606082015160c06060850152613af860c08501826139f8565b90506080830151608085015260a0830151151560a08501528091505092915050565b602081526000611d646020830184613ac5565b60008060408385031215613b4057600080fd5b8235613b4b816133eb565b91506020830135613a9d816133eb565b600080600080600060a08688031215613b7357600080fd5b8535613b7e816133eb565b94506020860135613b8e816133eb565b9350604086013592506060860135915060808601356001600160401b03811115613bb757600080fd5b6138ae888289016136bd565b60008060008060808587031215613bd957600080fd5b8435613be4816133eb565b93506020850135613bf4816133eb565b92506040850135613c04816133eb565b91506060850135613c14816133eb565b939692955090935050565b6020808252818101527f4f776e61626c653a2063616c6c6572206973206e6f7420746865206f776e6572604082015260600190565b600181811c90821680613c6857607f821691505b60208210811415613c8957634e487b7160e01b600052602260045260246000fd5b50919050565b600060208284031215613ca157600080fd5b5051919050565b8051612d9481613a61565b60006020808385031215613cc657600080fd5b82516001600160401b0380821115613cdd57600080fd5b9084019060c08287031215613cf157600080fd5b604051613cfd81613475565b82518152838301518482015260408301516040820152606083015182811115613d2557600080fd5b83019150601f82018713613d3857600080fd5b8151613d4381613629565b604051613d50828261349a565b82815260059290921b8401860191868101915089831115613d7057600080fd5b938601935b82851015613d8e57845182529386019390860190613d75565b6060840152505060808381015190820152613dab60a08401613ca8565b60a08201529695505050505050565b6020808252600b908201526a2737ba1030b71022a7a09760a91b604082015260600190565b600060c08284031215613df157600080fd5b60405160c081018181106001600160401b0382111715613e1357613e1361345f565b8060405250825181526020830151602082015260408301516040820152606083015160608201526080830151608082015260a0830151613e5281613a61565b60a08201529392505050565b6020808252601b908201527f5061727469636970616e7420646f6573206e6f742065786973742e0000000000604082015260600190565b606081526000613ea86060830186613ac5565b60208301949094525060400152919050565b60e08101613ec88285613777565b8260c08301529392505050565b6001600160a01b038316815260406020820181905260009061357b90830184613ac5565b82815260e08101611d646020830184613777565b600060208284031215613f1f57600080fd5b81516001600160401b03811115613f3557600080fd5b8201601f81018413613f4657600080fd5b8051613f51816134c6565b604051613f5e828261349a565b828152866020848601011115613f7357600080fd5b613f8483602083016020870161359c565b9695505050505050565b634e487b7160e01b600052601160045260246000fd5b6000816000190483118215151615613fbe57613fbe613f8e565b500290565b600082613fe057634e487b7160e01b600052601260045260246000fd5b500490565b60e081526000613ff860e0830185613ac5565b9050611d646020830184613777565b6000602080838503121561401a57600080fd5b82516001600160401b0381111561403057600080fd5b8301601f8101851361404157600080fd5b805161404c81613629565b604051614059828261349a565b82815260059290921b830184019184810191508783111561407957600080fd5b928401925b828410156140a0578351614091816133eb565b8252928401929084019061407e565b979650505050505050565b634e487b7160e01b600052603260045260246000fd5b600082198211156140d4576140d4613f8e565b500190565b60006000198214156140ed576140ed613f8e565b5060010190565b6040815260006141076040830185613ac5565b90508260208301529392505050565b60208082526021908201527f455243313135353a206d696e7420746f20746865207a65726f206164647265736040820152607360f81b606082015260800190565b60208082526028908201527f455243313135353a2069647320616e6420616d6f756e7473206c656e677468206040820152670dad2e6dac2e8c6d60c31b606082015260800190565b6040815260006141b260408301856139f8565b82810360208401526141c481856139f8565b95945050505050565b60208082526025908201527f455243313135353a207472616e7366657220746f20746865207a65726f206164604082015264647265737360d81b606082015260800190565b6020808252602a908201527f455243313135353a20696e73756666696369656e742062616c616e636520666f60408201526939103a3930b739b332b960b11b606082015260800190565b6020808252602e908201527f496e697469616c697a61626c653a20636f6e747261637420697320616c72656160408201526d191e481a5b9a5d1a585b1a5e995960921b606082015260800190565b6020808252602b908201527f496e697469616c697a61626c653a20636f6e7472616374206973206e6f74206960408201526a6e697469616c697a696e6760a81b606082015260800190565b6001600160a01b0386811682528516602082015260a060408201819052600090614321908301866139f8565b828103606084015261433381866139f8565b9050828103608084015261434781856135c8565b98975050505050505050565b60006020828403121561436557600080fd5b8151611d648161342c565b600060033d1115612ec35760046000803e5060005160e01c90565b600060443d10156143995790565b6040516003193d81016004833e81513d6001600160401b0381602484011181841117156143c857505050505090565b82850191508151818111156143e05750505050505090565b843d87010160208285010111156143fa5750505050505090565b6144096020828601018761349a565b509095945050505050565b60208082526028908201527f455243313135353a204552433131353552656365697665722072656a656374656040820152676420746f6b656e7360c01b606082015260800190565b6001600160a01b03868116825285166020820152604081018490526060810183905260a0608082018190526000906140a0908301846135c856fe68747470733a2f2f697066732e696f2f697066732f516d52357674385045443773786a587a765166314a506565475163646365336a6643444357444b7978687369327a68747470733a2f2f6d657461646174612d75726c2e636f6d2f6d792d6d65746164617461a26469706673582212203d5cc791f993cf4fe32f2a0e89b16327946d7bd64cefa02bc44f9e4b68745a7f64736f6c634300080c0033496e697469616c697a61626c653a20636f6e747261637420697320616c726561",
  "linkReferences": {},
  "deployedLinkReferences": {}
}