{
  "_format": "hh-sol-artifact-1",
  "contractName": "KojoV1",
  "sourceName": "contracts/KojoV1.sol",
  "abi": [
    {
      "anonymous": false,
      "inputs": [
        {
          "indexed": true,
          "internalType": "address",
          "name": "account",
          "type": "address"
        },
        {
          "indexed": true,
          "internalType": "address",
          "name": "operator",
          "type": "address"
        },
        {
          "indexed": false,
          "internalType": "bool",
          "name": "approved",
          "type": "bool"
        }
      ],
      "name": "ApprovalForAll",
      "type": "event"
    },
    {
      "anonymous": false,
      "inputs": [
        {
          "indexed": false,
          "internalType": "uint8",
          "name": "version",
          "type": "uint8"
        }
      ],
      "name": "Initialized",
      "type": "event"
    },
    {
      "anonymous": false,
      "inputs": [
        {
          "indexed": true,
          "internalType": "address",
          "name": "previousOwner",
          "type": "address"
        },
        {
          "indexed": true,
          "internalType": "address",
          "name": "newOwner",
          "type": "address"
        }
      ],
      "name": "OwnershipTransferred",
      "type": "event"
    },
    {
      "anonymous": false,
      "inputs": [
        {
          "components": [
            {
              "internalType": "uint256",
              "name": "level",
              "type": "uint256"
            },
            {
              "internalType": "uint256",
              "name": "experiencePoints",
              "type": "uint256"
            },
            {
              "internalType": "uint256[]",
              "name": "plantIds",
              "type": "uint256[]"
            },
            {
              "internalType": "uint256",
              "name": "allowedTokenBalance",
              "type": "uint256"
            },
            {
              "internalType": "bool",
              "name": "isPresent",
              "type": "bool"
            }
          ],
          "indexed": false,
          "internalType": "struct Structs.Participant",
          "name": "participant",
          "type": "tuple"
        },
        {
          "components": [
            {
              "internalType": "uint256",
              "name": "typeId",
              "type": "uint256"
            },
            {
              "internalType": "uint256",
              "name": "level",
              "type": "uint256"
            },
            {
              "internalType": "uint256",
              "name": "experiencePoints",
              "type": "uint256"
            },
            {
              "internalType": "uint256",
              "name": "lifes",
              "type": "uint256"
            },
            {
              "internalType": "uint256",
              "name": "levelCost",
              "type": "uint256"
            },
            {
              "internalType": "bool",
              "name": "isPresent",
              "type": "bool"
            }
          ],
          "indexed": false,
          "internalType": "struct Structs.Plant",
          "name": "plant",
          "type": "tuple"
        }
      ],
      "name": "PlantMinted",
      "type": "event"
    },
    {
      "anonymous": false,
      "inputs": [
        {
          "components": [
            {
              "internalType": "uint256",
              "name": "level",
              "type": "uint256"
            },
            {
              "internalType": "uint256",
              "name": "experiencePoints",
              "type": "uint256"
            },
            {
              "internalType": "uint256[]",
              "name": "plantIds",
              "type": "uint256[]"
            },
            {
              "internalType": "uint256",
              "name": "allowedTokenBalance",
              "type": "uint256"
            },
            {
              "internalType": "bool",
              "name": "isPresent",
              "type": "bool"
            }
          ],
          "indexed": false,
          "internalType": "struct Structs.Participant",
          "name": "participant",
          "type": "tuple"
        },
        {
          "components": [
            {
              "internalType": "uint256",
              "name": "typeId",
              "type": "uint256"
            },
            {
              "internalType": "uint256",
              "name": "level",
              "type": "uint256"
            },
            {
              "internalType": "uint256",
              "name": "experiencePoints",
              "type": "uint256"
            },
            {
              "internalType": "uint256",
              "name": "lifes",
              "type": "uint256"
            },
            {
              "internalType": "uint256",
              "name": "levelCost",
              "type": "uint256"
            },
            {
              "internalType": "bool",
              "name": "isPresent",
              "type": "bool"
            }
          ],
          "indexed": false,
          "internalType": "struct Structs.Plant",
          "name": "plant",
          "type": "tuple"
        }
      ],
      "name": "PlantWatered",
      "type": "event"
    },
    {
      "anonymous": false,
      "inputs": [
        {
          "components": [
            {
              "internalType": "uint256",
              "name": "level",
              "type": "uint256"
            },
            {
              "internalType": "uint256",
              "name": "experiencePoints",
              "type": "uint256"
            },
            {
              "internalType": "uint256[]",
              "name": "plantIds",
              "type": "uint256[]"
            },
            {
              "internalType": "uint256",
              "name": "allowedTokenBalance",
              "type": "uint256"
            },
            {
              "internalType": "bool",
              "name": "isPresent",
              "type": "bool"
            }
          ],
          "indexed": false,
          "internalType": "struct Structs.Participant",
          "name": "participant",
          "type": "tuple"
        },
        {
          "indexed": false,
          "internalType": "uint256",
          "name": "amount",
          "type": "uint256"
        }
      ],
      "name": "TokensClaimed",
      "type": "event"
    },
    {
      "anonymous": false,
      "inputs": [
        {
          "indexed": true,
          "internalType": "address",
          "name": "operator",
          "type": "address"
        },
        {
          "indexed": true,
          "internalType": "address",
          "name": "from",
          "type": "address"
        },
        {
          "indexed": true,
          "internalType": "address",
          "name": "to",
          "type": "address"
        },
        {
          "indexed": false,
          "internalType": "uint256[]",
          "name": "ids",
          "type": "uint256[]"
        },
        {
          "indexed": false,
          "internalType": "uint256[]",
          "name": "values",
          "type": "uint256[]"
        }
      ],
      "name": "TransferBatch",
      "type": "event"
    },
    {
      "anonymous": false,
      "inputs": [
        {
          "indexed": true,
          "internalType": "address",
          "name": "operator",
          "type": "address"
        },
        {
          "indexed": true,
          "internalType": "address",
          "name": "from",
          "type": "address"
        },
        {
          "indexed": true,
          "internalType": "address",
          "name": "to",
          "type": "address"
        },
        {
          "indexed": false,
          "internalType": "uint256",
          "name": "id",
          "type": "uint256"
        },
        {
          "indexed": false,
          "internalType": "uint256",
          "name": "value",
          "type": "uint256"
        }
      ],
      "name": "TransferSingle",
      "type": "event"
    },
    {
      "anonymous": false,
      "inputs": [
        {
          "indexed": false,
          "internalType": "string",
          "name": "value",
          "type": "string"
        },
        {
          "indexed": true,
          "internalType": "uint256",
          "name": "id",
          "type": "uint256"
        }
      ],
      "name": "URI",
      "type": "event"
    },
    {
      "inputs": [
        {
          "internalType": "address",
          "name": "account",
          "type": "address"
        },
        {
          "internalType": "uint256",
          "name": "id",
          "type": "uint256"
        }
      ],
      "name": "balanceOf",
      "outputs": [
        {
          "internalType": "uint256",
          "name": "",
          "type": "uint256"
        }
      ],
      "stateMutability": "view",
      "type": "function"
    },
    {
      "inputs": [
        {
          "internalType": "address[]",
          "name": "accounts",
          "type": "address[]"
        },
        {
          "internalType": "uint256[]",
          "name": "ids",
          "type": "uint256[]"
        }
      ],
      "name": "balanceOfBatch",
      "outputs": [
        {
          "internalType": "uint256[]",
          "name": "",
          "type": "uint256[]"
        }
      ],
      "stateMutability": "view",
      "type": "function"
    },
    {
      "inputs": [
        {
          "internalType": "uint256",
          "name": "id",
          "type": "uint256"
        }
      ],
      "name": "exists",
      "outputs": [
        {
          "internalType": "bool",
          "name": "",
          "type": "bool"
        }
      ],
      "stateMutability": "view",
      "type": "function"
    },
    {
      "inputs": [],
      "name": "fungibleTokenId",
      "outputs": [
        {
          "internalType": "uint256",
          "name": "",
          "type": "uint256"
        }
      ],
      "stateMutability": "view",
      "type": "function"
    },
    {
      "inputs": [],
      "name": "handleBuyPlant",
      "outputs": [],
      "stateMutability": "payable",
      "type": "function"
    },
    {
      "inputs": [],
      "name": "handleClaimMonthlyReward",
      "outputs": [],
      "stateMutability": "nonpayable",
      "type": "function"
    },
    {
      "inputs": [],
      "name": "handleClaimStartTokens",
      "outputs": [],
      "stateMutability": "payable",
      "type": "function"
    },
    {
      "inputs": [],
      "name": "handleReadInititalAllowance",
      "outputs": [
        {
          "internalType": "uint256",
          "name": "",
          "type": "uint256"
        }
      ],
      "stateMutability": "view",
      "type": "function"
    },
    {
      "inputs": [
        {
          "internalType": "address",
          "name": "account",
          "type": "address"
        }
      ],
      "name": "handleReadParticipant",
      "outputs": [
        {
          "components": [
            {
              "internalType": "uint256",
              "name": "level",
              "type": "uint256"
            },
            {
              "internalType": "uint256",
              "name": "experiencePoints",
              "type": "uint256"
            },
            {
              "internalType": "uint256[]",
              "name": "plantIds",
              "type": "uint256[]"
            },
            {
              "internalType": "uint256",
              "name": "allowedTokenBalance",
              "type": "uint256"
            },
            {
              "internalType": "bool",
              "name": "isPresent",
              "type": "bool"
            }
          ],
          "internalType": "struct Structs.Participant",
          "name": "",
          "type": "tuple"
        }
      ],
      "stateMutability": "view",
      "type": "function"
    },
    {
      "inputs": [],
      "name": "handleReadParticipantAddress",
      "outputs": [
        {
          "internalType": "address[]",
          "name": "",
          "type": "address[]"
        }
      ],
      "stateMutability": "view",
      "type": "function"
    },
    {
      "inputs": [
        {
          "internalType": "uint256",
          "name": "tokenId",
          "type": "uint256"
        }
      ],
      "name": "handleReadPlant",
      "outputs": [
        {
          "components": [
            {
              "internalType": "uint256",
              "name": "typeId",
              "type": "uint256"
            },
            {
              "internalType": "uint256",
              "name": "level",
              "type": "uint256"
            },
            {
              "internalType": "uint256",
              "name": "experiencePoints",
              "type": "uint256"
            },
            {
              "internalType": "uint256",
              "name": "lifes",
              "type": "uint256"
            },
            {
              "internalType": "uint256",
              "name": "levelCost",
              "type": "uint256"
            },
            {
              "internalType": "bool",
              "name": "isPresent",
              "type": "bool"
            }
          ],
          "internalType": "struct Structs.Plant",
          "name": "",
          "type": "tuple"
        }
      ],
      "stateMutability": "view",
      "type": "function"
    },
    {
      "inputs": [
        {
          "internalType": "address",
          "name": "_store",
          "type": "address"
        },
        {
          "internalType": "address",
          "name": "_utils",
          "type": "address"
        },
        {
          "internalType": "address",
          "name": "_api",
          "type": "address"
        },
        {
          "internalType": "address",
          "name": "_burn",
          "type": "address"
        }
      ],
      "name": "handleUpdateContracts",
      "outputs": [],
      "stateMutability": "nonpayable",
      "type": "function"
    },
    {
      "inputs": [
        {
          "internalType": "uint256",
          "name": "tokenId",
          "type": "uint256"
        },
        {
          "internalType": "uint256",
          "name": "amount",
          "type": "uint256"
        }
      ],
      "name": "handleWaterPlant",
      "outputs": [],
      "stateMutability": "payable",
      "type": "function"
    },
    {
      "inputs": [
        {
          "internalType": "address",
          "name": "_store",
          "type": "address"
        },
        {
          "internalType": "address",
          "name": "_utils",
          "type": "address"
        },
        {
          "internalType": "address",
          "name": "_api",
          "type": "address"
        },
        {
          "internalType": "address",
          "name": "_burn",
          "type": "address"
        }
      ],
      "name": "initialize",
      "outputs": [],
      "stateMutability": "nonpayable",
      "type": "function"
    },
    {
      "inputs": [
        {
          "internalType": "address",
          "name": "account",
          "type": "address"
        },
        {
          "internalType": "address",
          "name": "operator",
          "type": "address"
        }
      ],
      "name": "isApprovedForAll",
      "outputs": [
        {
          "internalType": "bool",
          "name": "",
          "type": "bool"
        }
      ],
      "stateMutability": "view",
      "type": "function"
    },
    {
      "inputs": [
        {
          "internalType": "address",
          "name": "to",
          "type": "address"
        },
        {
          "internalType": "uint256[]",
          "name": "ids",
          "type": "uint256[]"
        },
        {
          "internalType": "uint256[]",
          "name": "amounts",
          "type": "uint256[]"
        },
        {
          "internalType": "bytes",
          "name": "data",
          "type": "bytes"
        }
      ],
      "name": "mintBatch",
      "outputs": [],
      "stateMutability": "nonpayable",
      "type": "function"
    },
    {
      "inputs": [],
      "name": "nonFungibleTokenCount",
      "outputs": [
        {
          "internalType": "uint256",
          "name": "",
          "type": "uint256"
        }
      ],
      "stateMutability": "view",
      "type": "function"
    },
    {
      "inputs": [
        {
          "internalType": "address",
          "name": "",
          "type": "address"
        },
        {
          "internalType": "address",
          "name": "",
          "type": "address"
        },
        {
          "internalType": "uint256[]",
          "name": "",
          "type": "uint256[]"
        },
        {
          "internalType": "uint256[]",
          "name": "",
          "type": "uint256[]"
        },
        {
          "internalType": "bytes",
          "name": "",
          "type": "bytes"
        }
      ],
      "name": "onERC1155BatchReceived",
      "outputs": [
        {
          "internalType": "bytes4",
          "name": "",
          "type": "bytes4"
        }
      ],
      "stateMutability": "nonpayable",
      "type": "function"
    },
    {
      "inputs": [
        {
          "internalType": "address",
          "name": "",
          "type": "address"
        },
        {
          "internalType": "address",
          "name": "",
          "type": "address"
        },
        {
          "internalType": "uint256",
          "name": "",
          "type": "uint256"
        },
        {
          "internalType": "uint256",
          "name": "",
          "type": "uint256"
        },
        {
          "internalType": "bytes",
          "name": "",
          "type": "bytes"
        }
      ],
      "name": "onERC1155Received",
      "outputs": [
        {
          "internalType": "bytes4",
          "name": "",
          "type": "bytes4"
        }
      ],
      "stateMutability": "nonpayable",
      "type": "function"
    },
    {
      "inputs": [],
      "name": "owner",
      "outputs": [
        {
          "internalType": "address",
          "name": "",
          "type": "address"
        }
      ],
      "stateMutability": "view",
      "type": "function"
    },
    {
      "inputs": [],
      "name": "renounceOwnership",
      "outputs": [],
      "stateMutability": "nonpayable",
      "type": "function"
    },
    {
      "inputs": [
        {
          "internalType": "address",
          "name": "from",
          "type": "address"
        },
        {
          "internalType": "address",
          "name": "to",
          "type": "address"
        },
        {
          "internalType": "uint256[]",
          "name": "ids",
          "type": "uint256[]"
        },
        {
          "internalType": "uint256[]",
          "name": "amounts",
          "type": "uint256[]"
        },
        {
          "internalType": "bytes",
          "name": "data",
          "type": "bytes"
        }
      ],
      "name": "safeBatchTransferFrom",
      "outputs": [],
      "stateMutability": "nonpayable",
      "type": "function"
    },
    {
      "inputs": [
        {
          "internalType": "address",
          "name": "from",
          "type": "address"
        },
        {
          "internalType": "address",
          "name": "to",
          "type": "address"
        },
        {
          "internalType": "uint256",
          "name": "id",
          "type": "uint256"
        },
        {
          "internalType": "uint256",
          "name": "amount",
          "type": "uint256"
        },
        {
          "internalType": "bytes",
          "name": "data",
          "type": "bytes"
        }
      ],
      "name": "safeTransferFrom",
      "outputs": [],
      "stateMutability": "nonpayable",
      "type": "function"
    },
    {
      "inputs": [
        {
          "internalType": "address",
          "name": "operator",
          "type": "address"
        },
        {
          "internalType": "bool",
          "name": "approved",
          "type": "bool"
        }
      ],
      "name": "setApprovalForAll",
      "outputs": [],
      "stateMutability": "nonpayable",
      "type": "function"
    },
    {
      "inputs": [
        {
          "internalType": "string",
          "name": "newuri",
          "type": "string"
        }
      ],
      "name": "setURI",
      "outputs": [],
      "stateMutability": "nonpayable",
      "type": "function"
    },
    {
      "inputs": [
        {
          "internalType": "bytes4",
          "name": "interfaceId",
          "type": "bytes4"
        }
      ],
      "name": "supportsInterface",
      "outputs": [
        {
          "internalType": "bool",
          "name": "",
          "type": "bool"
        }
      ],
      "stateMutability": "view",
      "type": "function"
    },
    {
      "inputs": [
        {
          "internalType": "uint256",
          "name": "id",
          "type": "uint256"
        }
      ],
      "name": "totalSupply",
      "outputs": [
        {
          "internalType": "uint256",
          "name": "",
          "type": "uint256"
        }
      ],
      "stateMutability": "view",
      "type": "function"
    },
    {
      "inputs": [
        {
          "internalType": "address",
          "name": "newOwner",
          "type": "address"
        }
      ],
      "name": "transferOwnership",
      "outputs": [],
      "stateMutability": "nonpayable",
      "type": "function"
    },
    {
      "inputs": [
        {
          "internalType": "uint256",
          "name": "tokenId",
          "type": "uint256"
        }
      ],
      "name": "uri",
      "outputs": [
        {
          "internalType": "string",
          "name": "",
          "type": "string"
        }
      ],
      "stateMutability": "view",
      "type": "function"
    },
    {
      "inputs": [],
      "name": "withdrawKojos",
      "outputs": [],
      "stateMutability": "payable",
      "type": "function"
    }
  ],
  "bytecode": "0x60806040523480156200001157600080fd5b506200001c62000022565b62000152565b6200002e60ff62000031565b50565b60008054610100900460ff1615620000ca578160ff1660011480156200006a575062000068306200014360201b62001b941760201c565b155b620000c25760405162461bcd60e51b815260206004820152602e602482015260008051602062003db083398151915260448201526d191e481a5b9a5d1a585b1a5e995960921b60648201526084015b60405180910390fd5b506000919050565b60005460ff808416911610620001295760405162461bcd60e51b815260206004820152602e602482015260008051602062003db083398151915260448201526d191e481a5b9a5d1a585b1a5e995960921b6064820152608401620000b9565b506000805460ff191660ff92909216919091179055600190565b6001600160a01b03163b151590565b613c4e80620001626000396000f3fe6080604052600436106101cc5760003560e01c80638da5cb5b116100f7578063e599913911610095578063f2fde38b11610064578063f2fde38b1461057c578063f8c8765e1461059c578063fabe6b3c146105bc578063fc57ca29146105c457600080fd5b8063e5999139146104ba578063e985e9c5146104e7578063f23a6e6114610530578063f242432a1461055c57600080fd5b8063b4daaf55116100d1578063b4daaf5514610428578063bacb7dc01461043f578063bc197c8114610447578063bd85b0391461048c57600080fd5b80638da5cb5b146103d85780639c3423b114610400578063a22cb4651461040857600080fd5b80632eb2c2d61161016f578063584c7b371161013e578063584c7b37146103775780636c7ff22e1461038c578063715018a6146103a1578063767e779d146103b657600080fd5b80632eb2c2d6146102e357806345e8eca8146103035780634e1273f41461031a5780634f558e791461034757600080fd5b80630e89341c116101ab5780630e89341c146102565780631f79087b146102835780631f7fdffa146102965780631fec8c02146102b657600080fd5b8062fdd58e146101d157806301ffc9a71461020457806302fe530514610234575b600080fd5b3480156101dd57600080fd5b506101f16101ec366004612c3f565b6105e4565b6040519081526020015b60405180910390f35b34801561021057600080fd5b5061022461021f366004612c81565b610680565b60405190151581526020016101fb565b34801561024057600080fd5b5061025461024f366004612d79565b61068b565b005b34801561026257600080fd5b50610276610271366004612dc9565b6106c1565b6040516101fb9190612e3a565b610254610291366004612e4d565b610764565b3480156102a257600080fd5b506102546102b1366004612f23565b610ce0565b3480156102c257600080fd5b506102d66102d1366004612dc9565b610d1c565b6040516101fb9190612ff9565b3480156102ef57600080fd5b506102546102fe366004613007565b610dd4565b34801561030f57600080fd5b506101f16101615481565b34801561032657600080fd5b5061033a6103353660046130b4565b610e6b565b6040516101fb91906131bb565b34801561035357600080fd5b50610224610362366004612dc9565b600090815261012d6020526040902054151590565b34801561038357600080fd5b506101f1610f94565b34801561039857600080fd5b50610254611017565b3480156103ad57600080fd5b5061025461123e565b3480156103c257600080fd5b506103cb611274565b6040516101fb91906131ce565b3480156103e457600080fd5b506097546040516001600160a01b0390911681526020016101fb565b6102546112f6565b34801561041457600080fd5b50610254610423366004613229565b611500565b34801561043457600080fd5b506101f16101605481565b61025461150f565b34801561045357600080fd5b50610473610462366004613007565b63bc197c8160e01b95945050505050565b6040516001600160e01b031990911681526020016101fb565b34801561049857600080fd5b506101f16104a7366004612dc9565b600090815261012d602052604090205490565b3480156104c657600080fd5b506104da6104d5366004613262565b611572565b6040516101fb91906132ca565b3480156104f357600080fd5b506102246105023660046132dd565b6001600160a01b03918216600090815260666020908152604080832093909416825291909152205460ff1690565b34801561053c57600080fd5b5061047361054b36600461330b565b63f23a6e6160e01b95945050505050565b34801561056857600080fd5b5061025461057736600461330b565b611628565b34801561058857600080fd5b50610254610597366004613262565b6116af565b3480156105a857600080fd5b506102546105b7366004613373565b611747565b61025461180d565b3480156105d057600080fd5b506102546105df366004613373565b611b16565b60006001600160a01b0383166106555760405162461bcd60e51b815260206004820152602b60248201527f455243313135353a2062616c616e636520717565727920666f7220746865207a60448201526a65726f206164647265737360a81b60648201526084015b60405180910390fd5b5060008181526065602090815260408083206001600160a01b03861684529091529020545b92915050565b600061067a82611ba3565b6097546001600160a01b031633146106b55760405162461bcd60e51b815260040161064c906133cf565b6106be81611bc8565b50565b600081815261015f602052604090208054606091906106df90613404565b80601f016020809104026020016040519081016040528092919081815260200182805461070b90613404565b80156107585780601f1061072d57610100808354040283529160200191610758565b820191906000526020600020905b81548152906001019060200180831161073b57829003601f168201915b50505050509050919050565b3233146107835760405162461bcd60e51b815260040161064c9061343f565b6101625460405163e599913960e01b81523360048201526000916001600160a01b03169063e59991399060240160006040518083038186803b1580156107c857600080fd5b505afa1580156107dc573d6000803e3d6000fd5b505050506040513d6000823e601f3d908101601f19168201604052610804919081019061346f565b61016254604051630ff6460160e11b8152600481018690529192506000916001600160a01b0390911690631fec8c029060240160c06040518083038186803b15801561084f57600080fd5b505afa158015610863573d6000803e3d6000fd5b505050506040513d601f19601f82011682018060405250810190610887919061356c565b905081608001516108aa5760405162461bcd60e51b815260040161064c906135eb565b8060a001516108f35760405162461bcd60e51b8152602060048201526015602482015274283630b73a103237b2b9903737ba1032bc34b9ba1760591b604482015260640161064c565b600061090233610160546105e4565b9050838110156109625760405162461bcd60e51b815260206004820152602560248201527f4e6f7420656e6f756768206b6f6a6f7320746f20776174657220796f757220706044820152643630b73a1760d91b606482015260840161064c565b610163546040516342ee184d60e11b81526000916001600160a01b0316906385dc309a906109969087908990600401613622565b60006040518083038186803b1580156109ae57600080fd5b505afa1580156109c2573d6000803e3d6000fd5b505050506040513d6000823e601f3d908101601f191682016040526109ea919081019061346f565b6101635460405163348fd32360e11b81529192506000916001600160a01b039091169063691fa64690610a239087908a90600401613644565b60c06040518083038186803b158015610a3b57600080fd5b505afa158015610a4f573d6000803e3d6000fd5b505050506040513d601f19601f82011682018060405250810190610a73919061356c565b61016254604051633fcd0c3760e01b81529192506001600160a01b031690633fcd0c3790610aa7903390869060040161365f565b600060405180830381600087803b158015610ac157600080fd5b505af1158015610ad5573d6000803e3d6000fd5b505050506040513d6000823e601f3d908101601f19168201604052610afd919081019061346f565b50610162546040516315485de360e01b81526001600160a01b03909116906315485de390610b31908a908590600401613683565b60c060405180830381600087803b158015610b4b57600080fd5b505af1158015610b5f573d6000803e3d6000fd5b505050506040513d601f19601f82011682018060405250810190610b83919061356c565b5061016354604051637182817b60e01b81526000916001600160a01b031690637182817b90610bb6908590600401612ff9565b60006040518083038186803b158015610bce57600080fd5b505afa158015610be2573d6000803e3d6000fd5b505050506040513d6000823e601f3d908101601f19168201604052610c0a9190810190613697565b9050610c168882611bdb565b60006064610c2589600261372e565b610c2f919061374d565b905060006064610c408a606261372e565b610c4a919061374d565b9050610c6b3330610160548560405180602001604052806000815250611628565b6101655461016054604080516020810190915260008152610c9b9233926001600160a01b03909116918590611628565b7f944be6466f82a31b267f7b7cb99fb34611bf5ab1250d9a1e5bbedb73ccb838f18585604051610ccc92919061376f565b60405180910390a150505050505050505050565b6097546001600160a01b03163314610d0a5760405162461bcd60e51b815260040161064c906133cf565b610d1684848484611c00565b50505050565b610d576040518060c0016040528060008152602001600081526020016000815260200160008152602001600081526020016000151581525090565b61016254604051630ff6460160e11b8152600481018490526001600160a01b0390911690631fec8c029060240160c06040518083038186803b158015610d9c57600080fd5b505afa158015610db0573d6000803e3d6000fd5b505050506040513d601f19601f8201168201806040525081019061067a919061356c565b6001600160a01b038516331480610df05750610df08533610502565b610e575760405162461bcd60e51b815260206004820152603260248201527f455243313135353a207472616e736665722063616c6c6572206973206e6f74206044820152711bdddb995c881b9bdc88185c1c1c9bdd995960721b606482015260840161064c565b610e648585858585611d5b565b5050505050565b60608151835114610ed05760405162461bcd60e51b815260206004820152602960248201527f455243313135353a206163636f756e747320616e6420696473206c656e677468604482015268040dad2e6dac2e8c6d60bb1b606482015260840161064c565b600083516001600160401b03811115610eeb57610eeb612ca5565b604051908082528060200260200182016040528015610f14578160200160208202803683370190505b50905060005b8451811015610f8c57610f5f858281518110610f3857610f38613791565b6020026020010151858381518110610f5257610f52613791565b60200260200101516105e4565b828281518110610f7157610f71613791565b6020908102919091010152610f85816137a7565b9050610f1a565b509392505050565b6101625460408051631bca55e560e01b815290516000926001600160a01b031691631bca55e5916004808301926020929190829003018186803b158015610fda57600080fd5b505afa158015610fee573d6000803e3d6000fd5b505050506040513d601f19601f8201168201806040525081019061101291906137c2565b905090565b3233146110365760405162461bcd60e51b815260040161064c9061343f565b6101625460405163e599913960e01b81523360048201526000916001600160a01b03169063e59991399060240160006040518083038186803b15801561107b57600080fd5b505afa15801561108f573d6000803e3d6000fd5b505050506040513d6000823e601f3d908101601f191682016040526110b7919081019061346f565b905080608001516110da5760405162461bcd60e51b815260040161064c906135eb565b600081606001511161114a5760405162461bcd60e51b815260206004820152603360248201527f5061727469636970616e7420646f65736e2774206861766520616c6c6f77616e60448201527231b2903a379031b630b4b6903a37b5b2b7399760691b606482015260840161064c565b61116c3361016054836060015160405180602001604052806000815250611f08565b6000606082015261016254604051633fcd0c3760e01b815282916001600160a01b031690633fcd0c37906111a6903390859060040161365f565b600060405180830381600087803b1580156111c057600080fd5b505af11580156111d4573d6000803e3d6000fd5b505050506040513d6000823e601f3d908101601f191682016040526111fc919081019061346f565b507f1800ac493c2559610df079ad63033e4a99ae93f599a3df7ef426015113ff0278828360600151604051611232929190613622565b60405180910390a15050565b6097546001600160a01b031633146112685760405162461bcd60e51b815260040161064c906133cf565b6112726000611ff3565b565b61016254604080516326fad77760e01b815290516060926001600160a01b0316916326fad777916004808301926000929190829003018186803b1580156112ba57600080fd5b505afa1580156112ce573d6000803e3d6000fd5b505050506040513d6000823e601f3d908101601f1916820160405261101291908101906137db565b3233146113155760405162461bcd60e51b815260040161064c9061343f565b6101625460405163e599913960e01b81523360048201526000916001600160a01b03169063e59991399060240160006040518083038186803b15801561135a57600080fd5b505afa15801561136e573d6000803e3d6000fd5b505050506040513d6000823e601f3d908101601f19168201604052611396919081019061346f565b905080608001516113b95760405162461bcd60e51b815260040161064c906135eb565b60006113c833610160546105e4565b905061016260009054906101000a90046001600160a01b03166001600160a01b03166358ac00386040518163ffffffff1660e01b815260040160206040518083038186803b15801561141957600080fd5b505afa15801561142d573d6000803e3d6000fd5b505050506040513d601f19601f8201168201806040525081019061145191906137c2565b8110156114b25760405162461bcd60e51b815260206004820152602960248201527f4e6f7420656e6f756768206b6f6a6f732e204f6e6520706c616e7420636f73746044820152683990189035b7b5379760b91b606482015260840161064c565b6000806114bd612045565b915091507f367cdb6722de94302dcfbc865a92c99153567007a99a08c3dc2615c8caa3e75982826040516114f292919061376f565b60405180910390a150505050565b61150b338383612397565b5050565b6097546001600160a01b031633146115395760405162461bcd60e51b815260040161064c906133cf565b6112723061154f6097546001600160a01b031690565b6101605461155d30826105e4565b60405180602001604052806000815250611628565b6115a66040518060a00160405280600081526020016000815260200160608152602001600081526020016000151581525090565b6101625460405163e599913960e01b81526001600160a01b0384811660048301529091169063e59991399060240160006040518083038186803b1580156115ec57600080fd5b505afa158015611600573d6000803e3d6000fd5b505050506040513d6000823e601f3d908101601f1916820160405261067a919081019061346f565b6001600160a01b03851633148061164457506116448533610502565b6116a25760405162461bcd60e51b815260206004820152602960248201527f455243313135353a2063616c6c6572206973206e6f74206f776e6572206e6f7260448201526808185c1c1c9bdd995960ba1b606482015260840161064c565b610e648585858585612478565b6097546001600160a01b031633146116d95760405162461bcd60e51b815260040161064c906133cf565b6001600160a01b03811661173e5760405162461bcd60e51b815260206004820152602660248201527f4f776e61626c653a206e6577206f776e657220697320746865207a65726f206160448201526564647265737360d01b606482015260840161064c565b6106be81611ff3565b600061175360016125b4565b9050801561176b576000805461ff0019166101001790555b611773612641565b61016280546001600160a01b038088166001600160a01b031992831617909255610163805487841690831617905561016480548684169083161790556101658054928516929091169190911790558015610e64576000805461ff0019169055604051600181527f7f26b83ff96e1f2b6a682f133852f6798a09c465da95921460cefb38474024989060200160405180910390a15050505050565b32331461182c5760405162461bcd60e51b815260040161064c9061343f565b6101625460405163e599913960e01b81523360048201526000916001600160a01b03169063e59991399060240160006040518083038186803b15801561187157600080fd5b505afa158015611885573d6000803e3d6000fd5b505050506040513d6000823e601f3d908101601f191682016040526118ad919081019061346f565b90508060800151156119365760405162461bcd60e51b815260206004820152604660248201527f5061727469636970616e7420616c7265616479206578697374732e20596f752060448201527f63616e206f6e6c7920636c61696d20796f757220696e7469616c206b6f6a6f736064820152651037b731b29760d11b608482015260a40161064c565b610162546040516311622ce560e01b81523360048201526000916001600160a01b0316906311622ce590602401600060405180830381600087803b15801561197d57600080fd5b505af1158015611991573d6000803e3d6000fd5b505050506040513d6000823e601f3d908101601f191682016040526119b9919081019061346f565b9050611a5f336101605461016260009054906101000a90046001600160a01b03166001600160a01b0316631bca55e56040518163ffffffff1660e01b815260040160206040518083038186803b158015611a1257600080fd5b505afa158015611a26573d6000803e3d6000fd5b505050506040513d601f19601f82011682018060405250810190611a4a91906137c2565b60405180602001604052806000815250611f08565b7f1800ac493c2559610df079ad63033e4a99ae93f599a3df7ef426015113ff02788161016260009054906101000a90046001600160a01b03166001600160a01b0316631bca55e56040518163ffffffff1660e01b815260040160206040518083038186803b158015611ad057600080fd5b505afa158015611ae4573d6000803e3d6000fd5b505050506040513d601f19601f82011682018060405250810190611b0891906137c2565b604051611232929190613622565b6097546001600160a01b03163314611b405760405162461bcd60e51b815260040161064c906133cf565b61016280546001600160a01b039586166001600160a01b0319918216179091556101638054948616948216949094179093556101648054928516928416929092179091556101658054919093169116179055565b6001600160a01b03163b151590565b60006001600160e01b03198216630271189760e51b148061067a575061067a8261269e565b805161150b906067906020840190612b91565b600082815261015f602090815260409091208251611bfb92840190612b91565b505050565b6001600160a01b038416611c265760405162461bcd60e51b815260040161064c9061387f565b8151835114611c475760405162461bcd60e51b815260040161064c906138c0565b33611c57816000878787876126ee565b60005b8451811015611cf357838181518110611c7557611c75613791565b602002602001015160656000878481518110611c9357611c93613791565b602002602001015181526020019081526020016000206000886001600160a01b03166001600160a01b031681526020019081526020016000206000828254611cdb9190613908565b90915550819050611ceb816137a7565b915050611c5a565b50846001600160a01b031660006001600160a01b0316826001600160a01b03167f4a39dc06d4c0dbc64b70af90fd698a233a518aa5d07e595d983b8c0526c8f7fb8787604051611d44929190613920565b60405180910390a4610e64816000878787876126fc565b8151835114611d7c5760405162461bcd60e51b815260040161064c906138c0565b6001600160a01b038416611da25760405162461bcd60e51b815260040161064c9061394e565b33611db18187878787876126ee565b60005b8451811015611e9a576000858281518110611dd157611dd1613791565b602002602001015190506000858381518110611def57611def613791565b60209081029190910181015160008481526065835260408082206001600160a01b038e168352909352919091205490915081811015611e405760405162461bcd60e51b815260040161064c90613993565b60008381526065602090815260408083206001600160a01b038e8116855292528083208585039055908b16825281208054849290611e7f908490613908565b9250508190555050505080611e93906137a7565b9050611db4565b50846001600160a01b0316866001600160a01b0316826001600160a01b03167f4a39dc06d4c0dbc64b70af90fd698a233a518aa5d07e595d983b8c0526c8f7fb8787604051611eea929190613920565b60405180910390a4611f008187878787876126fc565b505050505050565b6001600160a01b038416611f2e5760405162461bcd60e51b815260040161064c9061387f565b336000611f3a85612867565b90506000611f4785612867565b9050611f58836000898585896126ee565b60008681526065602090815260408083206001600160a01b038b16845290915281208054879290611f8a908490613908565b909155505060408051878152602081018790526001600160a01b03808a1692600092918716917fc3d58168c5ae7397731d063d5bbf3d657854427343f4c083240f7aacaa2d0f62910160405180910390a4611fea836000898989896128b2565b50505050505050565b609780546001600160a01b038381166001600160a01b0319831681179093556040519116919082907f8be0079c531659141344cd1fd0a4f28419497f9722a3daafe3b4186f6b6457e090600090a35050565b6120796040518060a00160405280600081526020016000815260200160608152602001600081526020016000151581525090565b6120b46040518060c0016040528060008152602001600081526020016000815260200160008152602001600081526020016000151581525090565b6120d33361016154600160405180602001604052806000815250611f08565b61216333306101605461016260009054906101000a90046001600160a01b03166001600160a01b03166358ac00386040518163ffffffff1660e01b815260040160206040518083038186803b15801561212b57600080fd5b505afa15801561213f573d6000803e3d6000fd5b505050506040513d601f19601f8201168201806040525081019061155d91906137c2565b6101625461016154604051639fd9491760e01b815233600482015260248101919091526000916001600160a01b031690639fd9491790604401600060405180830381600087803b1580156121b657600080fd5b505af11580156121ca573d6000803e3d6000fd5b505050506040513d6000823e601f3d908101601f191682016040526121f2919081019061346f565b6101625461016154604051631ec5a1a760e21b81529293506000926001600160a01b0390921691637b16869c9161222f9160040190815260200190565b60c060405180830381600087803b15801561224957600080fd5b505af115801561225d573d6000803e3d6000fd5b505050506040513d601f19601f82011682018060405250810190612281919061356c565b61016354604051637182817b60e01b81529192506000916001600160a01b0390911690637182817b906122b8908590600401612ff9565b60006040518083038186803b1580156122d057600080fd5b505afa1580156122e4573d6000803e3d6000fd5b505050506040513d6000823e601f3d908101601f1916820160405261230c9190810190613697565b905061231b6101615482611bdb565b61232361297c565b61016260009054906101000a90046001600160a01b03166001600160a01b0316630591f3626040518163ffffffff1660e01b8152600401600060405180830381600087803b15801561237457600080fd5b505af1158015612388573d6000803e3d6000fd5b50949793965092945050505050565b816001600160a01b0316836001600160a01b0316141561240b5760405162461bcd60e51b815260206004820152602960248201527f455243313135353a2073657474696e6720617070726f76616c20737461747573604482015268103337b91039b2b63360b91b606482015260840161064c565b6001600160a01b03838116600081815260666020908152604080832094871680845294825291829020805460ff191686151590811790915591519182527f17307eab39ab6107e8899845ad3d59bd9653f200f220920489ca2b5937696c31910160405180910390a3505050565b6001600160a01b03841661249e5760405162461bcd60e51b815260040161064c9061394e565b3360006124aa85612867565b905060006124b785612867565b90506124c78389898585896126ee565b60008681526065602090815260408083206001600160a01b038c1684529091529020548581101561250a5760405162461bcd60e51b815260040161064c90613993565b60008781526065602090815260408083206001600160a01b038d8116855292528083208985039055908a16825281208054889290612549908490613908565b909155505060408051888152602081018890526001600160a01b03808b16928c821692918816917fc3d58168c5ae7397731d063d5bbf3d657854427343f4c083240f7aacaa2d0f62910160405180910390a46125a9848a8a8a8a8a6128b2565b505050505050505050565b60008054610100900460ff16156125fb578160ff1660011480156125d75750303b155b6125f35760405162461bcd60e51b815260040161064c906139dd565b506000919050565b60005460ff8084169116106126225760405162461bcd60e51b815260040161064c906139dd565b506000805460ff191660ff92909216919091179055600190565b919050565b600054610100900460ff166126685760405162461bcd60e51b815260040161064c90613a2b565b61268060405180602001604052806000815250612997565b6126886129be565b6126906129ee565b600061016055600161016155565b60006001600160e01b03198216636cdb3d1360e11b14806126cf57506001600160e01b031982166303a24d0760e21b145b8061067a57506301ffc9a760e01b6001600160e01b031983161461067a565b611f00868686868686612a15565b6001600160a01b0384163b15611f005760405163bc197c8160e01b81526001600160a01b0385169063bc197c81906127409089908990889088908890600401613a76565b602060405180830381600087803b15801561275a57600080fd5b505af192505050801561278a575060408051601f3d908101601f1916820190925261278791810190613ad4565b60015b61283757612796613af1565b806308c379a014156127d057506127ab613b0d565b806127b657506127d2565b8060405162461bcd60e51b815260040161064c9190612e3a565b505b60405162461bcd60e51b815260206004820152603460248201527f455243313135353a207472616e7366657220746f206e6f6e20455243313135356044820152732932b1b2b4bb32b91034b6b83632b6b2b73a32b960611b606482015260840161064c565b6001600160e01b0319811663bc197c8160e01b14611fea5760405162461bcd60e51b815260040161064c90613b96565b604080516001808252818301909252606091600091906020808301908036833701905050905082816000815181106128a1576128a1613791565b602090810291909101015292915050565b6001600160a01b0384163b15611f005760405163f23a6e6160e01b81526001600160a01b0385169063f23a6e61906128f69089908990889088908890600401613bde565b602060405180830381600087803b15801561291057600080fd5b505af1925050508015612940575060408051601f3d908101601f1916820190925261293d91810190613ad4565b60015b61294c57612796613af1565b6001600160e01b0319811663f23a6e6160e01b14611fea5760405162461bcd60e51b815260040161064c90613b96565b600161016160008282546129909190613908565b9091555050565b600054610100900460ff166106b55760405162461bcd60e51b815260040161064c90613a2b565b600054610100900460ff166129e55760405162461bcd60e51b815260040161064c90613a2b565b61127233611ff3565b600054610100900460ff166112725760405162461bcd60e51b815260040161064c90613a2b565b6001600160a01b038516612a9d5760005b8351811015612a9b57828181518110612a4157612a41613791565b602002602001015161012d6000868481518110612a6057612a60613791565b602002602001015181526020019081526020016000206000828254612a859190613908565b90915550612a949050816137a7565b9050612a26565b505b6001600160a01b038416611f005760005b8351811015611fea576000848281518110612acb57612acb613791565b602002602001015190506000848381518110612ae957612ae9613791565b60200260200101519050600061012d600084815260200190815260200160002054905081811015612b6d5760405162461bcd60e51b815260206004820152602860248201527f455243313135353a206275726e20616d6f756e74206578636565647320746f74604482015267616c537570706c7960c01b606482015260840161064c565b600092835261012d602052604090922091039055612b8a816137a7565b9050612aae565b828054612b9d90613404565b90600052602060002090601f016020900481019282612bbf5760008555612c05565b82601f10612bd857805160ff1916838001178555612c05565b82800160010185558215612c05579182015b82811115612c05578251825591602001919060010190612bea565b50612c11929150612c15565b5090565b5b80821115612c115760008155600101612c16565b6001600160a01b03811681146106be57600080fd5b60008060408385031215612c5257600080fd5b8235612c5d81612c2a565b946020939093013593505050565b6001600160e01b0319811681146106be57600080fd5b600060208284031215612c9357600080fd5b8135612c9e81612c6b565b9392505050565b634e487b7160e01b600052604160045260246000fd5b60a081018181106001600160401b0382111715612cda57612cda612ca5565b60405250565b601f8201601f191681016001600160401b0381118282101715612d0557612d05612ca5565b6040525050565b60006001600160401b03821115612d2557612d25612ca5565b50601f01601f191660200190565b6000612d3e83612d0c565b604051612d4b8282612ce0565b809250848152858585011115612d6057600080fd5b8484602083013760006020868301015250509392505050565b600060208284031215612d8b57600080fd5b81356001600160401b03811115612da157600080fd5b8201601f81018413612db257600080fd5b612dc184823560208401612d33565b949350505050565b600060208284031215612ddb57600080fd5b5035919050565b60005b83811015612dfd578181015183820152602001612de5565b83811115610d165750506000910152565b60008151808452612e26816020860160208601612de2565b601f01601f19169290920160200192915050565b602081526000612c9e6020830184612e0e565b60008060408385031215612e6057600080fd5b50508035926020909101359150565b60006001600160401b03821115612e8857612e88612ca5565b5060051b60200190565b600082601f830112612ea357600080fd5b81356020612eb082612e6f565b604051612ebd8282612ce0565b83815260059390931b8501820192828101915086841115612edd57600080fd5b8286015b84811015612ef85780358352918301918301612ee1565b509695505050505050565b600082601f830112612f1457600080fd5b612c9e83833560208501612d33565b60008060008060808587031215612f3957600080fd5b8435612f4481612c2a565b935060208501356001600160401b0380821115612f6057600080fd5b612f6c88838901612e92565b94506040870135915080821115612f8257600080fd5b612f8e88838901612e92565b93506060870135915080821115612fa457600080fd5b50612fb187828801612f03565b91505092959194509250565b805182526020810151602083015260408101516040830152606081015160608301526080810151608083015260a0810151151560a08301525050565b60c0810161067a8284612fbd565b600080600080600060a0868803121561301f57600080fd5b853561302a81612c2a565b9450602086013561303a81612c2a565b935060408601356001600160401b038082111561305657600080fd5b61306289838a01612e92565b9450606088013591508082111561307857600080fd5b61308489838a01612e92565b9350608088013591508082111561309a57600080fd5b506130a788828901612f03565b9150509295509295909350565b600080604083850312156130c757600080fd5b82356001600160401b03808211156130de57600080fd5b818501915085601f8301126130f257600080fd5b813560206130ff82612e6f565b60405161310c8282612ce0565b83815260059390931b850182019282810191508984111561312c57600080fd5b948201945b8386101561315357853561314481612c2a565b82529482019490820190613131565b9650508601359250508082111561316957600080fd5b5061317685828601612e92565b9150509250929050565b600081518084526020808501945080840160005b838110156131b057815187529582019590820190600101613194565b509495945050505050565b602081526000612c9e6020830184613180565b6020808252825182820181905260009190848201906040850190845b8181101561320f5783516001600160a01b0316835292840192918401916001016131ea565b50909695505050505050565b80151581146106be57600080fd5b6000806040838503121561323c57600080fd5b823561324781612c2a565b915060208301356132578161321b565b809150509250929050565b60006020828403121561327457600080fd5b8135612c9e81612c2a565b80518252602081015160208301526000604082015160a060408501526132a860a0850182613180565b9050606083015160608501526080830151151560808501528091505092915050565b602081526000612c9e602083018461327f565b600080604083850312156132f057600080fd5b82356132fb81612c2a565b9150602083013561325781612c2a565b600080600080600060a0868803121561332357600080fd5b853561332e81612c2a565b9450602086013561333e81612c2a565b9350604086013592506060860135915060808601356001600160401b0381111561336757600080fd5b6130a788828901612f03565b6000806000806080858703121561338957600080fd5b843561339481612c2a565b935060208501356133a481612c2a565b925060408501356133b481612c2a565b915060608501356133c481612c2a565b939692955090935050565b6020808252818101527f4f776e61626c653a2063616c6c6572206973206e6f7420746865206f776e6572604082015260600190565b600181811c9082168061341857607f821691505b6020821081141561343957634e487b7160e01b600052602260045260246000fd5b50919050565b6020808252600b908201526a2737ba1030b71022a7a09760a91b604082015260600190565b805161263c8161321b565b6000602080838503121561348257600080fd5b82516001600160401b038082111561349957600080fd5b9084019060a082870312156134ad57600080fd5b6040516134b981612cbb565b8251815283830151848201526040830151828111156134d757600080fd5b83019150601f820187136134ea57600080fd5b81516134f581612e6f565b6040516135028282612ce0565b82815260059290921b840186019186810191508983111561352257600080fd5b938601935b8285101561354057845182529386019390860190613527565b604084015250506060838101519082015261355d60808401613464565b60808201529695505050505050565b600060c0828403121561357e57600080fd5b60405160c081018181106001600160401b03821117156135a0576135a0612ca5565b8060405250825181526020830151602082015260408301516040820152606083015160608201526080830151608082015260a08301516135df8161321b565b60a08201529392505050565b6020808252601b908201527f5061727469636970616e7420646f6573206e6f742065786973742e0000000000604082015260600190565b604081526000613635604083018561327f565b90508260208301529392505050565b60e081016136528285612fbd565b8260c08301529392505050565b6001600160a01b0383168152604060208201819052600090612dc19083018461327f565b82815260e08101612c9e6020830184612fbd565b6000602082840312156136a957600080fd5b81516001600160401b038111156136bf57600080fd5b8201601f810184136136d057600080fd5b80516136db81612d0c565b6040516136e88282612ce0565b8281528660208486010111156136fd57600080fd5b61370e836020830160208701612de2565b9695505050505050565b634e487b7160e01b600052601160045260246000fd5b600081600019048311821515161561374857613748613718565b500290565b60008261376a57634e487b7160e01b600052601260045260246000fd5b500490565b60e08152600061378260e083018561327f565b9050612c9e6020830184612fbd565b634e487b7160e01b600052603260045260246000fd5b60006000198214156137bb576137bb613718565b5060010190565b6000602082840312156137d457600080fd5b5051919050565b600060208083850312156137ee57600080fd5b82516001600160401b0381111561380457600080fd5b8301601f8101851361381557600080fd5b805161382081612e6f565b60405161382d8282612ce0565b82815260059290921b830184019184810191508783111561384d57600080fd5b928401925b8284101561387457835161386581612c2a565b82529284019290840190613852565b979650505050505050565b60208082526021908201527f455243313135353a206d696e7420746f20746865207a65726f206164647265736040820152607360f81b606082015260800190565b60208082526028908201527f455243313135353a2069647320616e6420616d6f756e7473206c656e677468206040820152670dad2e6dac2e8c6d60c31b606082015260800190565b6000821982111561391b5761391b613718565b500190565b6040815260006139336040830185613180565b82810360208401526139458185613180565b95945050505050565b60208082526025908201527f455243313135353a207472616e7366657220746f20746865207a65726f206164604082015264647265737360d81b606082015260800190565b6020808252602a908201527f455243313135353a20696e73756666696369656e742062616c616e636520666f60408201526939103a3930b739b332b960b11b606082015260800190565b6020808252602e908201527f496e697469616c697a61626c653a20636f6e747261637420697320616c72656160408201526d191e481a5b9a5d1a585b1a5e995960921b606082015260800190565b6020808252602b908201527f496e697469616c697a61626c653a20636f6e7472616374206973206e6f74206960408201526a6e697469616c697a696e6760a81b606082015260800190565b6001600160a01b0386811682528516602082015260a060408201819052600090613aa290830186613180565b8281036060840152613ab48186613180565b90508281036080840152613ac88185612e0e565b98975050505050505050565b600060208284031215613ae657600080fd5b8151612c9e81612c6b565b600060033d1115613b0a5760046000803e5060005160e01c5b90565b600060443d1015613b1b5790565b6040516003193d81016004833e81513d6001600160401b038160248401118184111715613b4a57505050505090565b8285019150815181811115613b625750505050505090565b843d8701016020828501011115613b7c5750505050505090565b613b8b60208286010187612ce0565b509095945050505050565b60208082526028908201527f455243313135353a204552433131353552656365697665722072656a656374656040820152676420746f6b656e7360c01b606082015260800190565b6001600160a01b03868116825285166020820152604081018490526060810183905260a06080820181905260009061387490830184612e0e56fea26469706673582212202307dae9d3da2688326c9335d4f35c92c6c438c4dc5ee202c5e865d63f7be04964736f6c63430008090033496e697469616c697a61626c653a20636f6e747261637420697320616c726561",
  "linkReferences": {},
  "deployedLinkReferences": {}
}