{
  "_format": "hh-sol-artifact-1",
  "contractName": "KojoV1",
  "sourceName": "contracts/KojoV1.sol",
  "abi": [
    {
      "anonymous": false,
      "inputs": [
        {
          "indexed": false,
          "internalType": "uint8",
          "name": "version",
          "type": "uint8"
        }
      ],
      "name": "Initialized",
      "type": "event"
    },
    {
      "anonymous": false,
      "inputs": [
        {
          "indexed": true,
          "internalType": "address",
          "name": "previousOwner",
          "type": "address"
        },
        {
          "indexed": true,
          "internalType": "address",
          "name": "newOwner",
          "type": "address"
        }
      ],
      "name": "OwnershipTransferred",
      "type": "event"
    },
    {
      "anonymous": false,
      "inputs": [
        {
          "indexed": false,
          "internalType": "address",
          "name": "account",
          "type": "address"
        },
        {
          "components": [
            {
              "internalType": "uint256",
              "name": "level",
              "type": "uint256"
            },
            {
              "internalType": "uint256",
              "name": "experiencePoints",
              "type": "uint256"
            },
            {
              "internalType": "uint256[]",
              "name": "plantIds",
              "type": "uint256[]"
            },
            {
              "internalType": "uint256",
              "name": "allowedTokenBalance",
              "type": "uint256"
            },
            {
              "internalType": "bool",
              "name": "isPresent",
              "type": "bool"
            }
          ],
          "indexed": false,
          "internalType": "struct Structs.Participant",
          "name": "participant",
          "type": "tuple"
        },
        {
          "components": [
            {
              "internalType": "uint256",
              "name": "level",
              "type": "uint256"
            },
            {
              "internalType": "uint256",
              "name": "experiencePoints",
              "type": "uint256"
            },
            {
              "internalType": "uint256",
              "name": "lifes",
              "type": "uint256"
            },
            {
              "internalType": "uint256",
              "name": "levelCost",
              "type": "uint256"
            },
            {
              "internalType": "bool",
              "name": "isPresent",
              "type": "bool"
            }
          ],
          "indexed": false,
          "internalType": "struct Structs.Plant",
          "name": "plant",
          "type": "tuple"
        }
      ],
      "name": "PlantBought",
      "type": "event"
    },
    {
      "anonymous": false,
      "inputs": [
        {
          "indexed": false,
          "internalType": "address",
          "name": "account",
          "type": "address"
        },
        {
          "components": [
            {
              "internalType": "uint256",
              "name": "level",
              "type": "uint256"
            },
            {
              "internalType": "uint256",
              "name": "experiencePoints",
              "type": "uint256"
            },
            {
              "internalType": "uint256[]",
              "name": "plantIds",
              "type": "uint256[]"
            },
            {
              "internalType": "uint256",
              "name": "allowedTokenBalance",
              "type": "uint256"
            },
            {
              "internalType": "bool",
              "name": "isPresent",
              "type": "bool"
            }
          ],
          "indexed": false,
          "internalType": "struct Structs.Participant",
          "name": "participant",
          "type": "tuple"
        },
        {
          "components": [
            {
              "internalType": "uint256",
              "name": "level",
              "type": "uint256"
            },
            {
              "internalType": "uint256",
              "name": "experiencePoints",
              "type": "uint256"
            },
            {
              "internalType": "uint256",
              "name": "lifes",
              "type": "uint256"
            },
            {
              "internalType": "uint256",
              "name": "levelCost",
              "type": "uint256"
            },
            {
              "internalType": "bool",
              "name": "isPresent",
              "type": "bool"
            }
          ],
          "indexed": false,
          "internalType": "struct Structs.Plant",
          "name": "plant",
          "type": "tuple"
        }
      ],
      "name": "PlantClaimed",
      "type": "event"
    },
    {
      "anonymous": false,
      "inputs": [
        {
          "indexed": false,
          "internalType": "address",
          "name": "account",
          "type": "address"
        },
        {
          "components": [
            {
              "internalType": "uint256",
              "name": "level",
              "type": "uint256"
            },
            {
              "internalType": "uint256",
              "name": "experiencePoints",
              "type": "uint256"
            },
            {
              "internalType": "uint256[]",
              "name": "plantIds",
              "type": "uint256[]"
            },
            {
              "internalType": "uint256",
              "name": "allowedTokenBalance",
              "type": "uint256"
            },
            {
              "internalType": "bool",
              "name": "isPresent",
              "type": "bool"
            }
          ],
          "indexed": false,
          "internalType": "struct Structs.Participant",
          "name": "participant",
          "type": "tuple"
        },
        {
          "components": [
            {
              "internalType": "uint256",
              "name": "level",
              "type": "uint256"
            },
            {
              "internalType": "uint256",
              "name": "experiencePoints",
              "type": "uint256"
            },
            {
              "internalType": "uint256",
              "name": "lifes",
              "type": "uint256"
            },
            {
              "internalType": "uint256",
              "name": "levelCost",
              "type": "uint256"
            },
            {
              "internalType": "bool",
              "name": "isPresent",
              "type": "bool"
            }
          ],
          "indexed": false,
          "internalType": "struct Structs.Plant",
          "name": "plant",
          "type": "tuple"
        },
        {
          "indexed": false,
          "internalType": "uint256",
          "name": "amount",
          "type": "uint256"
        }
      ],
      "name": "PlantWatered",
      "type": "event"
    },
    {
      "anonymous": false,
      "inputs": [
        {
          "indexed": false,
          "internalType": "address",
          "name": "account",
          "type": "address"
        },
        {
          "components": [
            {
              "internalType": "uint256",
              "name": "level",
              "type": "uint256"
            },
            {
              "internalType": "uint256",
              "name": "experiencePoints",
              "type": "uint256"
            },
            {
              "internalType": "uint256[]",
              "name": "plantIds",
              "type": "uint256[]"
            },
            {
              "internalType": "uint256",
              "name": "allowedTokenBalance",
              "type": "uint256"
            },
            {
              "internalType": "bool",
              "name": "isPresent",
              "type": "bool"
            }
          ],
          "indexed": false,
          "internalType": "struct Structs.Participant",
          "name": "participant",
          "type": "tuple"
        },
        {
          "indexed": false,
          "internalType": "uint256",
          "name": "amount",
          "type": "uint256"
        }
      ],
      "name": "TokensClaimed",
      "type": "event"
    },
    {
      "inputs": [],
      "name": "checkUpkeep",
      "outputs": [],
      "stateMutability": "view",
      "type": "function"
    },
    {
      "inputs": [],
      "name": "handleBuyPlant",
      "outputs": [],
      "stateMutability": "payable",
      "type": "function"
    },
    {
      "inputs": [],
      "name": "handleClaimMonthlyReward",
      "outputs": [],
      "stateMutability": "nonpayable",
      "type": "function"
    },
    {
      "inputs": [],
      "name": "handleClaimStartTokens",
      "outputs": [
        {
          "components": [
            {
              "internalType": "uint256",
              "name": "level",
              "type": "uint256"
            },
            {
              "internalType": "uint256",
              "name": "experiencePoints",
              "type": "uint256"
            },
            {
              "internalType": "uint256[]",
              "name": "plantIds",
              "type": "uint256[]"
            },
            {
              "internalType": "uint256",
              "name": "allowedTokenBalance",
              "type": "uint256"
            },
            {
              "internalType": "bool",
              "name": "isPresent",
              "type": "bool"
            }
          ],
          "internalType": "struct Structs.Participant",
          "name": "value",
          "type": "tuple"
        }
      ],
      "stateMutability": "payable",
      "type": "function"
    },
    {
      "inputs": [],
      "name": "handleReadInititalAllowance",
      "outputs": [
        {
          "internalType": "uint256",
          "name": "",
          "type": "uint256"
        }
      ],
      "stateMutability": "view",
      "type": "function"
    },
    {
      "inputs": [
        {
          "internalType": "address",
          "name": "account",
          "type": "address"
        }
      ],
      "name": "handleReadParticipant",
      "outputs": [
        {
          "components": [
            {
              "internalType": "uint256",
              "name": "level",
              "type": "uint256"
            },
            {
              "internalType": "uint256",
              "name": "experiencePoints",
              "type": "uint256"
            },
            {
              "internalType": "uint256[]",
              "name": "plantIds",
              "type": "uint256[]"
            },
            {
              "internalType": "uint256",
              "name": "allowedTokenBalance",
              "type": "uint256"
            },
            {
              "internalType": "bool",
              "name": "isPresent",
              "type": "bool"
            }
          ],
          "internalType": "struct Structs.Participant",
          "name": "_participant",
          "type": "tuple"
        }
      ],
      "stateMutability": "view",
      "type": "function"
    },
    {
      "inputs": [
        {
          "internalType": "address",
          "name": "location",
          "type": "address"
        }
      ],
      "name": "handleUpdateStoreAddress",
      "outputs": [],
      "stateMutability": "nonpayable",
      "type": "function"
    },
    {
      "inputs": [
        {
          "internalType": "uint256",
          "name": "tokenSensitivity",
          "type": "uint256"
        }
      ],
      "name": "handleUpdateTokenSensitivity",
      "outputs": [],
      "stateMutability": "nonpayable",
      "type": "function"
    },
    {
      "inputs": [
        {
          "internalType": "address",
          "name": "location",
          "type": "address"
        }
      ],
      "name": "handleUpdateUtilsAddress",
      "outputs": [],
      "stateMutability": "nonpayable",
      "type": "function"
    },
    {
      "inputs": [
        {
          "internalType": "uint256",
          "name": "tokenId",
          "type": "uint256"
        }
      ],
      "name": "handleWaterPlant",
      "outputs": [],
      "stateMutability": "payable",
      "type": "function"
    },
    {
      "inputs": [
        {
          "internalType": "address",
          "name": "_store",
          "type": "address"
        },
        {
          "internalType": "address",
          "name": "_utils",
          "type": "address"
        },
        {
          "internalType": "address",
          "name": "_api",
          "type": "address"
        },
        {
          "internalType": "address",
          "name": "_token",
          "type": "address"
        }
      ],
      "name": "initialize",
      "outputs": [],
      "stateMutability": "nonpayable",
      "type": "function"
    },
    {
      "inputs": [],
      "name": "owner",
      "outputs": [
        {
          "internalType": "address",
          "name": "",
          "type": "address"
        }
      ],
      "stateMutability": "view",
      "type": "function"
    },
    {
      "inputs": [],
      "name": "performUpkeep",
      "outputs": [],
      "stateMutability": "view",
      "type": "function"
    },
    {
      "inputs": [],
      "name": "renounceOwnership",
      "outputs": [],
      "stateMutability": "nonpayable",
      "type": "function"
    },
    {
      "inputs": [],
      "name": "tokenAddress",
      "outputs": [
        {
          "internalType": "address",
          "name": "",
          "type": "address"
        }
      ],
      "stateMutability": "view",
      "type": "function"
    },
    {
      "inputs": [
        {
          "internalType": "address",
          "name": "newOwner",
          "type": "address"
        }
      ],
      "name": "transferOwnership",
      "outputs": [],
      "stateMutability": "nonpayable",
      "type": "function"
    }
  ],
  "bytecode": "0x608060405234801561001057600080fd5b506120c8806100206000396000f3fe6080604052600436106100f35760003560e01c80639c3423b11161008a578063e599913911610059578063e59991391461022e578063f2fde38b1461025b578063f8c8765e1461027b578063fabe6b3c1461029b57600080fd5b80639c3423b1146101f35780639d76ea58146101fb578063a13abdad14610197578063de349ae71461021b57600080fd5b80636c7ff22e116100c65780636c7ff22e146101825780636e4d243a14610197578063715018a6146101ac5780638da5cb5b146101c157600080fd5b80630da575dc146100f857806323192a8f1461011a578063302424541461013a578063584c7b371461015a575b600080fd5b34801561010457600080fd5b506101186101133660046119e6565b6102a3565b005b34801561012657600080fd5b506101186101353660046119e6565b6102f8565b34801561014657600080fd5b50610118610155366004611a08565b610344565b34801561016657600080fd5b5061016f6103cf565b6040519081526020015b60405180910390f35b34801561018e57600080fd5b50610118610451565b3480156101a357600080fd5b50610118610712565b3480156101b857600080fd5b5061011861072c565b3480156101cd57600080fd5b506033546001600160a01b03165b6040516001600160a01b039091168152602001610179565b610118610760565b34801561020757600080fd5b506069546101db906001600160a01b031681565b610118610229366004611a08565b61093a565b34801561023a57600080fd5b5061024e6102493660046119e6565b610e5b565b6040516101799190611a9b565b34801561026757600080fd5b506101186102763660046119e6565b610f16565b34801561028757600080fd5b50610118610296366004611aae565b610fb1565b61024e61107c565b6033546001600160a01b031633146102d65760405162461bcd60e51b81526004016102cd90611b02565b60405180910390fd5b606680546001600160a01b0319166001600160a01b0392909216919091179055565b6033546001600160a01b031633146103225760405162461bcd60e51b81526004016102cd90611b02565b606780546001600160a01b0319166001600160a01b0392909216919091179055565b6033546001600160a01b0316331461036e5760405162461bcd60e51b81526004016102cd90611b02565b606654604051630c09091560e21b8152600481018390526001600160a01b0390911690633024245490602401600060405180830381600087803b1580156103b457600080fd5b505af11580156103c8573d6000803e3d6000fd5b5050505050565b60665460408051631bca55e560e01b815290516000926001600160a01b031691631bca55e5916004808301926020929190829003018186803b15801561041457600080fd5b505afa158015610428573d6000803e3d6000fd5b505050506040513d601f19601f8201168201806040525081019061044c9190611b37565b905090565b3233146104705760405162461bcd60e51b81526004016102cd90611b50565b60665460405163e599913960e01b81523360048201526000916001600160a01b03169063e59991399060240160006040518083038186803b1580156104b457600080fd5b505afa1580156104c8573d6000803e3d6000fd5b505050506040513d6000823e601f3d908101601f191682016040526104f09190810190611bf5565b905080608001516105135760405162461bcd60e51b81526004016102cd90611cf3565b60608101516105645760405162461bcd60e51b815260206004820152601b60248201527f5061727469636970616e74206973206e6f7420616c6c6f7765642e000000000060448201526064016102cd565b6065546040805163b4daaf5560e01b815290516001600160a01b039092169163731133e9913391849163b4daaf55916004808301926020929190829003018186803b1580156105b257600080fd5b505afa1580156105c6573d6000803e3d6000fd5b505050506040513d601f19601f820116820180604052508101906105ea9190611b37565b84606001516040518463ffffffff1660e01b815260040161060d93929190611d2a565b600060405180830381600087803b15801561062757600080fd5b505af115801561063b573d6000803e3d6000fd5b5050600060608401525050606654604051633fcd0c3760e01b815282916001600160a01b031690633fcd0c37906106789033908590600401611d5a565b600060405180830381600087803b15801561069257600080fd5b505af11580156106a6573d6000803e3d6000fd5b505050506040513d6000823e601f3d908101601f191682016040526106ce9190810190611bf5565b507f3e84b6367406cff7e5e6ccb266c97459f5e2b801fdc2541239cf86da35ecbf293383846060015160405161070693929190611d86565b60405180910390a15050565b61072a6040518060200160405280600081525061144a565b565b6033546001600160a01b031633146107565760405162461bcd60e51b81526004016102cd90611b02565b61072a600061148d565b32331461077f5760405162461bcd60e51b81526004016102cd90611b50565b60665460405163e599913960e01b81523360048201526000916001600160a01b03169063e59991399060240160006040518083038186803b1580156107c357600080fd5b505afa1580156107d7573d6000803e3d6000fd5b505050506040513d6000823e601f3d908101601f191682016040526107ff9190810190611bf5565b905080608001516108225760405162461bcd60e51b81526004016102cd90611cf3565b606660009054906101000a90046001600160a01b03166001600160a01b03166358ac00386040518163ffffffff1660e01b815260040160206040518083038186803b15801561087057600080fd5b505afa158015610884573d6000803e3d6000fd5b505050506040513d601f19601f820116820180604052508101906108a89190611b37565b34116108ea5760405162461bcd60e51b81526020600482015260116024820152702737ba1032b737bab3b41026a0aa24a19760791b60448201526064016102cd565b6000806108f6836114df565b915091507f9cdb3eb7c64977bb4da7ee02edeaf906493749a72bcd222259f4e8b39862c85833838360405161092d93929190611dec565b60405180910390a1505050565b3233146109595760405162461bcd60e51b81526004016102cd90611b50565b60665460405163e599913960e01b81523360048201526000916001600160a01b03169063e59991399060240160006040518083038186803b15801561099d57600080fd5b505afa1580156109b1573d6000803e3d6000fd5b505050506040513d6000823e601f3d908101601f191682016040526109d99190810190611bf5565b606654604051630ff6460160e11b8152600481018590529192506000916001600160a01b0390911690631fec8c029060240160a06040518083038186803b158015610a2357600080fd5b505afa158015610a37573d6000803e3d6000fd5b505050506040513d601f19601f82011682018060405250810190610a5b9190611e1f565b90508160800151610a7e5760405162461bcd60e51b81526004016102cd90611cf3565b8060800151610ac75760405162461bcd60e51b8152602060048201526015602482015274283630b73a103237b2b9903737ba1032bc34b9ba1760591b60448201526064016102cd565b60003411610b0c5760405162461bcd60e51b815260206004820152601260248201527127379026a0aa24a190383937bb34b232b21760711b60448201526064016102cd565b6067546040516342ee184d60e11b81526000916001600160a01b0316906385dc309a90610b3f9086903490600401611e93565b60006040518083038186803b158015610b5757600080fd5b505afa158015610b6b573d6000803e3d6000fd5b505050506040513d6000823e601f3d908101601f19168201604052610b939190810190611bf5565b6067546040516358e5d9cf60e01b81529192506000916001600160a01b03909116906358e5d9cf90610bcb9086903490600401611eb5565b60a06040518083038186803b158015610be357600080fd5b505afa158015610bf7573d6000803e3d6000fd5b505050506040513d601f19601f82011682018060405250810190610c1b9190611e1f565b606654604051633fcd0c3760e01b81529192506001600160a01b031690633fcd0c3790610c4e9033908690600401611d5a565b600060405180830381600087803b158015610c6857600080fd5b505af1158015610c7c573d6000803e3d6000fd5b505050506040513d6000823e601f3d908101601f19168201604052610ca49190810190611bf5565b50606654604051635717651560e01b81526001600160a01b0390911690635717651590610cd79088908590600401611ed0565b60a060405180830381600087803b158015610cf157600080fd5b505af1158015610d05573d6000803e3d6000fd5b505050506040513d601f19601f82011682018060405250810190610d299190611e1f565b506067546040516333d2c6b160e11b81526000916001600160a01b0316906367a58d6290610d5d9085908a90600401611eb5565b60006040518083038186803b158015610d7557600080fd5b505afa158015610d89573d6000803e3d6000fd5b505050506040513d6000823e601f3d908101601f19168201604052610db19190810190611f14565b606554604051632bfbbc4f60e11b81529192506001600160a01b0316906357f7789e90610de49089908590600401611fd4565b600060405180830381600087803b158015610dfe57600080fd5b505af1158015610e12573d6000803e3d6000fd5b505050507f3ed1cc965f2aba30207367f92d9c957caa3365fea3b717c6721108aaf9b43a4533848434604051610e4b9493929190611fed565b60405180910390a1505050505050565b610e8f6040518060a00160405280600081526020016000815260200160608152602001600081526020016000151581525090565b60665460405163e599913960e01b81526001600160a01b0384811660048301529091169063e59991399060240160006040518083038186803b158015610ed457600080fd5b505afa158015610ee8573d6000803e3d6000fd5b505050506040513d6000823e601f3d908101601f19168201604052610f109190810190611bf5565b92915050565b6033546001600160a01b03163314610f405760405162461bcd60e51b81526004016102cd90611b02565b6001600160a01b038116610fa55760405162461bcd60e51b815260206004820152602660248201527f4f776e61626c653a206e6577206f776e657220697320746865207a65726f206160448201526564647265737360d01b60648201526084016102cd565b610fae8161148d565b50565b6000610fbd60016118ad565b90508015610fd5576000805461ff0019166101001790555b606680546001600160a01b038088166001600160a01b0319928316179092556067805487841690831617905560688054868416908316179055606580549285169282168317905560698054909116909117905561103061193a565b80156103c8576000805461ff0019169055604051600181527f7f26b83ff96e1f2b6a682f133852f6798a09c465da95921460cefb38474024989060200160405180910390a15050505050565b6110b06040518060a00160405280600081526020016000815260200160608152602001600081526020016000151581525090565b3233146110cf5760405162461bcd60e51b81526004016102cd90611b50565b60665460405163e599913960e01b81523360048201526000916001600160a01b03169063e59991399060240160006040518083038186803b15801561111357600080fd5b505afa158015611127573d6000803e3d6000fd5b505050506040513d6000823e601f3d908101601f1916820160405261114f9190810190611bf5565b90508060800151156111a35760405162461bcd60e51b815260206004820152601b60248201527f5061727469636970616e7420616c7265616479206578697374732e000000000060448201526064016102cd565b6066546040516311622ce560e01b81523360048201526000916001600160a01b0316906311622ce590602401600060405180830381600087803b1580156111e957600080fd5b505af11580156111fd573d6000803e3d6000fd5b505050506040513d6000823e601f3d908101601f191682016040526112259190810190611bf5565b6065546040805163b4daaf5560e01b815290519293506001600160a01b039091169163731133e9913391849163b4daaf55916004808301926020929190829003018186803b15801561127657600080fd5b505afa15801561128a573d6000803e3d6000fd5b505050506040513d601f19601f820116820180604052508101906112ae9190611b37565b606660009054906101000a90046001600160a01b03166001600160a01b0316631bca55e56040518163ffffffff1660e01b815260040160206040518083038186803b1580156112fc57600080fd5b505afa158015611310573d6000803e3d6000fd5b505050506040513d601f19601f820116820180604052508101906113349190611b37565b6040518463ffffffff1660e01b815260040161135293929190611d2a565b600060405180830381600087803b15801561136c57600080fd5b505af1158015611380573d6000803e3d6000fd5b505050507f3e84b6367406cff7e5e6ccb266c97459f5e2b801fdc2541239cf86da35ecbf293383606660009054906101000a90046001600160a01b03166001600160a01b0316631bca55e56040518163ffffffff1660e01b815260040160206040518083038186803b1580156113f557600080fd5b505afa158015611409573d6000803e3d6000fd5b505050506040513d601f19601f8201168201806040525081019061142d9190611b37565b60405161143c93929190611d86565b60405180910390a191505090565b610fae8160405160240161145e9190612031565b60408051601f198184030181529190526020810180516001600160e01b031663104c13eb60e21b1790526119ae565b603380546001600160a01b038381166001600160a01b0319831681179093556040519116919082907f8be0079c531659141344cd1fd0a4f28419497f9722a3daafe3b4186f6b6457e090600090a35050565b6115136040518060a00160405280600081526020016000815260200160608152602001600081526020016000151581525090565b6115476040518060a00160405280600081526020016000815260200160008152602001600081526020016000151581525090565b606554604080516308bd1d9560e31b815290516001600160a01b039092169163731133e991339184916345e8eca8916004808301926020929190829003018186803b15801561159557600080fd5b505afa1580156115a9573d6000803e3d6000fd5b505050506040513d601f19601f820116820180604052508101906115cd9190611b37565b60016040518463ffffffff1660e01b81526004016115ed93929190611d2a565b600060405180830381600087803b15801561160757600080fd5b505af115801561161b573d6000803e3d6000fd5b5050606754606554604080516308bd1d9560e31b81529051600095506001600160a01b03938416945063a3dac62993899316916345e8eca8916004808301926020929190829003018186803b15801561167357600080fd5b505afa158015611687573d6000803e3d6000fd5b505050506040513d601f19601f820116820180604052508101906116ab9190611b37565b6040518363ffffffff1660e01b81526004016116c8929190611e93565b60006040518083038186803b1580156116e057600080fd5b505afa1580156116f4573d6000803e3d6000fd5b505050506040513d6000823e601f3d908101601f1916820160405261171c9190810190611bf5565b606654606554604080516308bd1d9560e31b815290519394506000936001600160a01b0393841693637b16869c9316916345e8eca8916004808301926020929190829003018186803b15801561177157600080fd5b505afa158015611785573d6000803e3d6000fd5b505050506040513d601f19601f820116820180604052508101906117a99190611b37565b6040518263ffffffff1660e01b81526004016117c791815260200190565b60a060405180830381600087803b1580156117e157600080fd5b505af11580156117f5573d6000803e3d6000fd5b505050506040513d601f19601f820116820180604052508101906118199190611e1f565b606654604051633fcd0c3760e01b81529192506001600160a01b031690633fcd0c379061184c9033908690600401611d5a565b600060405180830381600087803b15801561186657600080fd5b505af115801561187a573d6000803e3d6000fd5b505050506040513d6000823e601f3d908101601f191682016040526118a29190810190611bf5565b509094909350915050565b60008054610100900460ff16156118f4578160ff1660011480156118d05750303b155b6118ec5760405162461bcd60e51b81526004016102cd90612044565b506000919050565b60005460ff80841691161061191b5760405162461bcd60e51b81526004016102cd90612044565b506000805460ff191660ff92909216919091179055600190565b919050565b600054610100900460ff166119a55760405162461bcd60e51b815260206004820152602b60248201527f496e697469616c697a61626c653a20636f6e7472616374206973206e6f74206960448201526a6e697469616c697a696e6760a81b60648201526084016102cd565b61072a3361148d565b80516a636f6e736f6c652e6c6f67602083016000808483855afa5050505050565b80356001600160a01b038116811461193557600080fd5b6000602082840312156119f857600080fd5b611a01826119cf565b9392505050565b600060208284031215611a1a57600080fd5b5035919050565b600060a083018251845260208084015181860152604084015160a0604087015282815180855260c0880191508383019450600092505b80831015611a775784518252938301936001929092019190830190611a57565b50606086015160608801526080860151151560808801528094505050505092915050565b602081526000611a016020830184611a21565b60008060008060808587031215611ac457600080fd5b611acd856119cf565b9350611adb602086016119cf565b9250611ae9604086016119cf565b9150611af7606086016119cf565b905092959194509250565b6020808252818101527f4f776e61626c653a2063616c6c6572206973206e6f7420746865206f776e6572604082015260600190565b600060208284031215611b4957600080fd5b5051919050565b6020808252600b908201526a2737ba1030b71022a7a09760a91b604082015260600190565b634e487b7160e01b600052604160045260246000fd5b60405160a0810167ffffffffffffffff81118282101715611bae57611bae611b75565b60405290565b604051601f8201601f1916810167ffffffffffffffff81118282101715611bdd57611bdd611b75565b604052919050565b8051801515811461193557600080fd5b60006020808385031215611c0857600080fd5b825167ffffffffffffffff80821115611c2057600080fd5b9084019060a08287031215611c3457600080fd5b611c3c611b8b565b825181528383015184820152604083015182811115611c5a57600080fd5b8301601f81018813611c6b57600080fd5b805183811115611c7d57611c7d611b75565b8060051b9350611c8e868501611bb4565b818152938201860193868101908a861115611ca857600080fd5b928701925b85841015611cc657835182529287019290870190611cad565b604085015250505060608381015190820152611ce460808401611be5565b60808201529695505050505050565b6020808252601b908201527f5061727469636970616e7420646f6573206e6f742065786973742e0000000000604082015260600190565b6001600160a01b039390931683526020830191909152604082015260806060820181905260009082015260a00190565b6001600160a01b0383168152604060208201819052600090611d7e90830184611a21565b949350505050565b6001600160a01b0384168152606060208201819052600090611daa90830185611a21565b9050826040830152949350505050565b805182526020810151602083015260408101516040830152606081015160608301526080810151151560808301525050565b6001600160a01b038416815260e060208201819052600090611e1090830185611a21565b9050611d7e6040830184611dba565b600060a08284031215611e3157600080fd5b60405160a0810181811067ffffffffffffffff82111715611e5457611e54611b75565b806040525082518152602083015160208201526040830151604082015260608301516060820152611e8760808401611be5565b60808201529392505050565b604081526000611ea66040830185611a21565b90508260208301529392505050565b60c08101611ec38285611dba565b8260a08301529392505050565b82815260c08101611a016020830184611dba565b60005b83811015611eff578181015183820152602001611ee7565b83811115611f0e576000848401525b50505050565b600060208284031215611f2657600080fd5b815167ffffffffffffffff80821115611f3e57600080fd5b818401915084601f830112611f5257600080fd5b815181811115611f6457611f64611b75565b611f77601f8201601f1916602001611bb4565b9150808252856020828501011115611f8e57600080fd5b611f9f816020840160208601611ee4565b50949350505050565b60008151808452611fc0816020860160208601611ee4565b601f01601f19169290920160200192915050565b828152604060208201526000611d7e6040830184611fa8565b6001600160a01b03851681526101006020820181905260009061201283820187611a21565b9150506120226040830185611dba565b8260e083015295945050505050565b602081526000611a016020830184611fa8565b6020808252602e908201527f496e697469616c697a61626c653a20636f6e747261637420697320616c72656160408201526d191e481a5b9a5d1a585b1a5e995960921b60608201526080019056fea26469706673582212208e910b66669f6470cb74b01f1424aaf80fb85b8174b71cad61469ce23c52678a64736f6c63430008090033",
  "linkReferences": {},
  "deployedLinkReferences": {}
}