{
  "_format": "hh-sol-artifact-1",
  "contractName": "KojoV1",
  "sourceName": "contracts/KojoV1.sol",
  "abi": [
    {
      "inputs": [],
      "stateMutability": "nonpayable",
      "type": "constructor"
    },
    {
      "anonymous": false,
      "inputs": [
        {
          "indexed": true,
          "internalType": "address",
          "name": "account",
          "type": "address"
        },
        {
          "indexed": true,
          "internalType": "address",
          "name": "operator",
          "type": "address"
        },
        {
          "indexed": false,
          "internalType": "bool",
          "name": "approved",
          "type": "bool"
        }
      ],
      "name": "ApprovalForAll",
      "type": "event"
    },
    {
      "anonymous": false,
      "inputs": [
        {
          "indexed": false,
          "internalType": "uint8",
          "name": "version",
          "type": "uint8"
        }
      ],
      "name": "Initialized",
      "type": "event"
    },
    {
      "anonymous": false,
      "inputs": [
        {
          "indexed": true,
          "internalType": "address",
          "name": "previousOwner",
          "type": "address"
        },
        {
          "indexed": true,
          "internalType": "address",
          "name": "newOwner",
          "type": "address"
        }
      ],
      "name": "OwnershipTransferred",
      "type": "event"
    },
    {
      "anonymous": false,
      "inputs": [
        {
          "indexed": false,
          "internalType": "address",
          "name": "account",
          "type": "address"
        },
        {
          "components": [
            {
              "internalType": "uint256",
              "name": "level",
              "type": "uint256"
            },
            {
              "internalType": "uint256",
              "name": "experiencePoints",
              "type": "uint256"
            },
            {
              "internalType": "uint256[]",
              "name": "plantIds",
              "type": "uint256[]"
            },
            {
              "internalType": "uint256",
              "name": "allowedTokenBalance",
              "type": "uint256"
            },
            {
              "internalType": "bool",
              "name": "isPresent",
              "type": "bool"
            }
          ],
          "indexed": false,
          "internalType": "struct Structs.Participant",
          "name": "participant",
          "type": "tuple"
        },
        {
          "components": [
            {
              "internalType": "uint256",
              "name": "level",
              "type": "uint256"
            },
            {
              "internalType": "uint256",
              "name": "experiencePoints",
              "type": "uint256"
            },
            {
              "internalType": "uint256",
              "name": "lifes",
              "type": "uint256"
            },
            {
              "internalType": "uint256",
              "name": "levelCost",
              "type": "uint256"
            },
            {
              "internalType": "bool",
              "name": "isPresent",
              "type": "bool"
            }
          ],
          "indexed": false,
          "internalType": "struct Structs.Plant",
          "name": "plant",
          "type": "tuple"
        }
      ],
      "name": "PlantBought",
      "type": "event"
    },
    {
      "anonymous": false,
      "inputs": [
        {
          "indexed": false,
          "internalType": "address",
          "name": "account",
          "type": "address"
        },
        {
          "components": [
            {
              "internalType": "uint256",
              "name": "level",
              "type": "uint256"
            },
            {
              "internalType": "uint256",
              "name": "experiencePoints",
              "type": "uint256"
            },
            {
              "internalType": "uint256[]",
              "name": "plantIds",
              "type": "uint256[]"
            },
            {
              "internalType": "uint256",
              "name": "allowedTokenBalance",
              "type": "uint256"
            },
            {
              "internalType": "bool",
              "name": "isPresent",
              "type": "bool"
            }
          ],
          "indexed": false,
          "internalType": "struct Structs.Participant",
          "name": "participant",
          "type": "tuple"
        },
        {
          "components": [
            {
              "internalType": "uint256",
              "name": "level",
              "type": "uint256"
            },
            {
              "internalType": "uint256",
              "name": "experiencePoints",
              "type": "uint256"
            },
            {
              "internalType": "uint256",
              "name": "lifes",
              "type": "uint256"
            },
            {
              "internalType": "uint256",
              "name": "levelCost",
              "type": "uint256"
            },
            {
              "internalType": "bool",
              "name": "isPresent",
              "type": "bool"
            }
          ],
          "indexed": false,
          "internalType": "struct Structs.Plant",
          "name": "plant",
          "type": "tuple"
        }
      ],
      "name": "PlantClaimed",
      "type": "event"
    },
    {
      "anonymous": false,
      "inputs": [
        {
          "indexed": false,
          "internalType": "address",
          "name": "account",
          "type": "address"
        },
        {
          "components": [
            {
              "internalType": "uint256",
              "name": "level",
              "type": "uint256"
            },
            {
              "internalType": "uint256",
              "name": "experiencePoints",
              "type": "uint256"
            },
            {
              "internalType": "uint256[]",
              "name": "plantIds",
              "type": "uint256[]"
            },
            {
              "internalType": "uint256",
              "name": "allowedTokenBalance",
              "type": "uint256"
            },
            {
              "internalType": "bool",
              "name": "isPresent",
              "type": "bool"
            }
          ],
          "indexed": false,
          "internalType": "struct Structs.Participant",
          "name": "participant",
          "type": "tuple"
        },
        {
          "components": [
            {
              "internalType": "uint256",
              "name": "level",
              "type": "uint256"
            },
            {
              "internalType": "uint256",
              "name": "experiencePoints",
              "type": "uint256"
            },
            {
              "internalType": "uint256",
              "name": "lifes",
              "type": "uint256"
            },
            {
              "internalType": "uint256",
              "name": "levelCost",
              "type": "uint256"
            },
            {
              "internalType": "bool",
              "name": "isPresent",
              "type": "bool"
            }
          ],
          "indexed": false,
          "internalType": "struct Structs.Plant",
          "name": "plant",
          "type": "tuple"
        },
        {
          "indexed": false,
          "internalType": "uint256",
          "name": "amount",
          "type": "uint256"
        }
      ],
      "name": "PlantWatered",
      "type": "event"
    },
    {
      "anonymous": false,
      "inputs": [
        {
          "indexed": false,
          "internalType": "address",
          "name": "account",
          "type": "address"
        },
        {
          "components": [
            {
              "internalType": "uint256",
              "name": "level",
              "type": "uint256"
            },
            {
              "internalType": "uint256",
              "name": "experiencePoints",
              "type": "uint256"
            },
            {
              "internalType": "uint256[]",
              "name": "plantIds",
              "type": "uint256[]"
            },
            {
              "internalType": "uint256",
              "name": "allowedTokenBalance",
              "type": "uint256"
            },
            {
              "internalType": "bool",
              "name": "isPresent",
              "type": "bool"
            }
          ],
          "indexed": false,
          "internalType": "struct Structs.Participant",
          "name": "participant",
          "type": "tuple"
        },
        {
          "indexed": false,
          "internalType": "uint256",
          "name": "amount",
          "type": "uint256"
        }
      ],
      "name": "TokensClaimed",
      "type": "event"
    },
    {
      "anonymous": false,
      "inputs": [
        {
          "indexed": true,
          "internalType": "address",
          "name": "operator",
          "type": "address"
        },
        {
          "indexed": true,
          "internalType": "address",
          "name": "from",
          "type": "address"
        },
        {
          "indexed": true,
          "internalType": "address",
          "name": "to",
          "type": "address"
        },
        {
          "indexed": false,
          "internalType": "uint256[]",
          "name": "ids",
          "type": "uint256[]"
        },
        {
          "indexed": false,
          "internalType": "uint256[]",
          "name": "values",
          "type": "uint256[]"
        }
      ],
      "name": "TransferBatch",
      "type": "event"
    },
    {
      "anonymous": false,
      "inputs": [
        {
          "indexed": true,
          "internalType": "address",
          "name": "operator",
          "type": "address"
        },
        {
          "indexed": true,
          "internalType": "address",
          "name": "from",
          "type": "address"
        },
        {
          "indexed": true,
          "internalType": "address",
          "name": "to",
          "type": "address"
        },
        {
          "indexed": false,
          "internalType": "uint256",
          "name": "id",
          "type": "uint256"
        },
        {
          "indexed": false,
          "internalType": "uint256",
          "name": "value",
          "type": "uint256"
        }
      ],
      "name": "TransferSingle",
      "type": "event"
    },
    {
      "anonymous": false,
      "inputs": [
        {
          "indexed": false,
          "internalType": "string",
          "name": "value",
          "type": "string"
        },
        {
          "indexed": true,
          "internalType": "uint256",
          "name": "id",
          "type": "uint256"
        }
      ],
      "name": "URI",
      "type": "event"
    },
    {
      "inputs": [],
      "name": "FUNGIBLE_TOKEN",
      "outputs": [
        {
          "internalType": "uint256",
          "name": "",
          "type": "uint256"
        }
      ],
      "stateMutability": "view",
      "type": "function"
    },
    {
      "inputs": [
        {
          "internalType": "address",
          "name": "account",
          "type": "address"
        },
        {
          "internalType": "uint256",
          "name": "id",
          "type": "uint256"
        }
      ],
      "name": "balanceOf",
      "outputs": [
        {
          "internalType": "uint256",
          "name": "",
          "type": "uint256"
        }
      ],
      "stateMutability": "view",
      "type": "function"
    },
    {
      "inputs": [
        {
          "internalType": "address[]",
          "name": "accounts",
          "type": "address[]"
        },
        {
          "internalType": "uint256[]",
          "name": "ids",
          "type": "uint256[]"
        }
      ],
      "name": "balanceOfBatch",
      "outputs": [
        {
          "internalType": "uint256[]",
          "name": "",
          "type": "uint256[]"
        }
      ],
      "stateMutability": "view",
      "type": "function"
    },
    {
      "inputs": [
        {
          "internalType": "address",
          "name": "account",
          "type": "address"
        },
        {
          "internalType": "uint256",
          "name": "id",
          "type": "uint256"
        },
        {
          "internalType": "uint256",
          "name": "value",
          "type": "uint256"
        }
      ],
      "name": "burn",
      "outputs": [],
      "stateMutability": "nonpayable",
      "type": "function"
    },
    {
      "inputs": [
        {
          "internalType": "address",
          "name": "account",
          "type": "address"
        },
        {
          "internalType": "uint256[]",
          "name": "ids",
          "type": "uint256[]"
        },
        {
          "internalType": "uint256[]",
          "name": "values",
          "type": "uint256[]"
        }
      ],
      "name": "burnBatch",
      "outputs": [],
      "stateMutability": "nonpayable",
      "type": "function"
    },
    {
      "inputs": [],
      "name": "checkUpkeep",
      "outputs": [],
      "stateMutability": "view",
      "type": "function"
    },
    {
      "inputs": [
        {
          "internalType": "uint256",
          "name": "id",
          "type": "uint256"
        }
      ],
      "name": "exists",
      "outputs": [
        {
          "internalType": "bool",
          "name": "",
          "type": "bool"
        }
      ],
      "stateMutability": "view",
      "type": "function"
    },
    {
      "inputs": [],
      "name": "handleBuyPlant",
      "outputs": [],
      "stateMutability": "payable",
      "type": "function"
    },
    {
      "inputs": [],
      "name": "handleClaimMonthlyReward",
      "outputs": [],
      "stateMutability": "nonpayable",
      "type": "function"
    },
    {
      "inputs": [],
      "name": "handleClaimStartTokens",
      "outputs": [
        {
          "components": [
            {
              "internalType": "uint256",
              "name": "level",
              "type": "uint256"
            },
            {
              "internalType": "uint256",
              "name": "experiencePoints",
              "type": "uint256"
            },
            {
              "internalType": "uint256[]",
              "name": "plantIds",
              "type": "uint256[]"
            },
            {
              "internalType": "uint256",
              "name": "allowedTokenBalance",
              "type": "uint256"
            },
            {
              "internalType": "bool",
              "name": "isPresent",
              "type": "bool"
            }
          ],
          "internalType": "struct Structs.Participant",
          "name": "value",
          "type": "tuple"
        }
      ],
      "stateMutability": "payable",
      "type": "function"
    },
    {
      "inputs": [
        {
          "internalType": "bytes32",
          "name": "_jobId",
          "type": "bytes32"
        },
        {
          "internalType": "uint256",
          "name": "_fee",
          "type": "uint256"
        },
        {
          "internalType": "string",
          "name": "_endpoint",
          "type": "string"
        },
        {
          "internalType": "string",
          "name": "_path",
          "type": "string"
        },
        {
          "internalType": "address",
          "name": "_tokenAddress",
          "type": "address"
        },
        {
          "internalType": "address",
          "name": "_oracleAddress",
          "type": "address"
        }
      ],
      "name": "handleConfigureAPIConsumer",
      "outputs": [],
      "stateMutability": "nonpayable",
      "type": "function"
    },
    {
      "inputs": [
        {
          "internalType": "address",
          "name": "account",
          "type": "address"
        }
      ],
      "name": "handleReadParticipant",
      "outputs": [
        {
          "components": [
            {
              "internalType": "uint256",
              "name": "level",
              "type": "uint256"
            },
            {
              "internalType": "uint256",
              "name": "experiencePoints",
              "type": "uint256"
            },
            {
              "internalType": "uint256[]",
              "name": "plantIds",
              "type": "uint256[]"
            },
            {
              "internalType": "uint256",
              "name": "allowedTokenBalance",
              "type": "uint256"
            },
            {
              "internalType": "bool",
              "name": "isPresent",
              "type": "bool"
            }
          ],
          "internalType": "struct Structs.Participant",
          "name": "_participant",
          "type": "tuple"
        }
      ],
      "stateMutability": "view",
      "type": "function"
    },
    {
      "inputs": [
        {
          "internalType": "address",
          "name": "location",
          "type": "address"
        }
      ],
      "name": "handleUpdateAPIConsumerAddress",
      "outputs": [],
      "stateMutability": "nonpayable",
      "type": "function"
    },
    {
      "inputs": [
        {
          "internalType": "address",
          "name": "location",
          "type": "address"
        }
      ],
      "name": "handleUpdateStoreAddress",
      "outputs": [],
      "stateMutability": "nonpayable",
      "type": "function"
    },
    {
      "inputs": [
        {
          "internalType": "uint256",
          "name": "tokenSensitivity",
          "type": "uint256"
        }
      ],
      "name": "handleUpdateTokenSensitivity",
      "outputs": [],
      "stateMutability": "nonpayable",
      "type": "function"
    },
    {
      "inputs": [
        {
          "internalType": "address",
          "name": "location",
          "type": "address"
        }
      ],
      "name": "handleUpdateUtilsAddress",
      "outputs": [],
      "stateMutability": "nonpayable",
      "type": "function"
    },
    {
      "inputs": [
        {
          "internalType": "uint256",
          "name": "tokenId",
          "type": "uint256"
        }
      ],
      "name": "handleWaterPlant",
      "outputs": [],
      "stateMutability": "payable",
      "type": "function"
    },
    {
      "inputs": [],
      "name": "initialTokenAllowance",
      "outputs": [
        {
          "internalType": "uint256",
          "name": "",
          "type": "uint256"
        }
      ],
      "stateMutability": "view",
      "type": "function"
    },
    {
      "inputs": [],
      "name": "initialize",
      "outputs": [],
      "stateMutability": "nonpayable",
      "type": "function"
    },
    {
      "inputs": [
        {
          "internalType": "address",
          "name": "account",
          "type": "address"
        },
        {
          "internalType": "address",
          "name": "operator",
          "type": "address"
        }
      ],
      "name": "isApprovedForAll",
      "outputs": [
        {
          "internalType": "bool",
          "name": "",
          "type": "bool"
        }
      ],
      "stateMutability": "view",
      "type": "function"
    },
    {
      "inputs": [
        {
          "internalType": "address",
          "name": "account",
          "type": "address"
        },
        {
          "internalType": "uint256",
          "name": "id",
          "type": "uint256"
        },
        {
          "internalType": "uint256",
          "name": "amount",
          "type": "uint256"
        },
        {
          "internalType": "bytes",
          "name": "data",
          "type": "bytes"
        }
      ],
      "name": "mint",
      "outputs": [],
      "stateMutability": "nonpayable",
      "type": "function"
    },
    {
      "inputs": [
        {
          "internalType": "address",
          "name": "to",
          "type": "address"
        },
        {
          "internalType": "uint256[]",
          "name": "ids",
          "type": "uint256[]"
        },
        {
          "internalType": "uint256[]",
          "name": "amounts",
          "type": "uint256[]"
        },
        {
          "internalType": "bytes",
          "name": "data",
          "type": "bytes"
        }
      ],
      "name": "mintBatch",
      "outputs": [],
      "stateMutability": "nonpayable",
      "type": "function"
    },
    {
      "inputs": [],
      "name": "nonFungibleTokenCount",
      "outputs": [
        {
          "internalType": "uint256",
          "name": "",
          "type": "uint256"
        }
      ],
      "stateMutability": "view",
      "type": "function"
    },
    {
      "inputs": [],
      "name": "owner",
      "outputs": [
        {
          "internalType": "address",
          "name": "",
          "type": "address"
        }
      ],
      "stateMutability": "view",
      "type": "function"
    },
    {
      "inputs": [],
      "name": "performUpkeep",
      "outputs": [],
      "stateMutability": "view",
      "type": "function"
    },
    {
      "inputs": [],
      "name": "renounceOwnership",
      "outputs": [],
      "stateMutability": "nonpayable",
      "type": "function"
    },
    {
      "inputs": [
        {
          "internalType": "address",
          "name": "from",
          "type": "address"
        },
        {
          "internalType": "address",
          "name": "to",
          "type": "address"
        },
        {
          "internalType": "uint256[]",
          "name": "ids",
          "type": "uint256[]"
        },
        {
          "internalType": "uint256[]",
          "name": "amounts",
          "type": "uint256[]"
        },
        {
          "internalType": "bytes",
          "name": "data",
          "type": "bytes"
        }
      ],
      "name": "safeBatchTransferFrom",
      "outputs": [],
      "stateMutability": "nonpayable",
      "type": "function"
    },
    {
      "inputs": [
        {
          "internalType": "address",
          "name": "from",
          "type": "address"
        },
        {
          "internalType": "address",
          "name": "to",
          "type": "address"
        },
        {
          "internalType": "uint256",
          "name": "id",
          "type": "uint256"
        },
        {
          "internalType": "uint256",
          "name": "amount",
          "type": "uint256"
        },
        {
          "internalType": "bytes",
          "name": "data",
          "type": "bytes"
        }
      ],
      "name": "safeTransferFrom",
      "outputs": [],
      "stateMutability": "nonpayable",
      "type": "function"
    },
    {
      "inputs": [
        {
          "internalType": "address",
          "name": "operator",
          "type": "address"
        },
        {
          "internalType": "bool",
          "name": "approved",
          "type": "bool"
        }
      ],
      "name": "setApprovalForAll",
      "outputs": [],
      "stateMutability": "nonpayable",
      "type": "function"
    },
    {
      "inputs": [
        {
          "internalType": "uint256",
          "name": "tokenId",
          "type": "uint256"
        },
        {
          "internalType": "string",
          "name": "_uri",
          "type": "string"
        }
      ],
      "name": "setTokenUri",
      "outputs": [],
      "stateMutability": "nonpayable",
      "type": "function"
    },
    {
      "inputs": [
        {
          "internalType": "string",
          "name": "newuri",
          "type": "string"
        }
      ],
      "name": "setURI",
      "outputs": [],
      "stateMutability": "nonpayable",
      "type": "function"
    },
    {
      "inputs": [
        {
          "internalType": "bytes4",
          "name": "interfaceId",
          "type": "bytes4"
        }
      ],
      "name": "supportsInterface",
      "outputs": [
        {
          "internalType": "bool",
          "name": "",
          "type": "bool"
        }
      ],
      "stateMutability": "view",
      "type": "function"
    },
    {
      "inputs": [
        {
          "internalType": "uint256",
          "name": "id",
          "type": "uint256"
        }
      ],
      "name": "totalSupply",
      "outputs": [
        {
          "internalType": "uint256",
          "name": "",
          "type": "uint256"
        }
      ],
      "stateMutability": "view",
      "type": "function"
    },
    {
      "inputs": [
        {
          "internalType": "address",
          "name": "newOwner",
          "type": "address"
        }
      ],
      "name": "transferOwnership",
      "outputs": [],
      "stateMutability": "nonpayable",
      "type": "function"
    },
    {
      "inputs": [
        {
          "internalType": "uint256",
          "name": "tokenId",
          "type": "uint256"
        }
      ],
      "name": "uri",
      "outputs": [
        {
          "internalType": "string",
          "name": "",
          "type": "string"
        }
      ],
      "stateMutability": "view",
      "type": "function"
    }
  ],
  "bytecode": "0x608060405261012e805460ff191690556001610131556064610132553480156200002857600080fd5b506200003362000130565b6040516200004190620002c6565b604051809103906000f0801580156200005e573d6000803e3d6000fd5b5061012e60016101000a8154816001600160a01b0302191690836001600160a01b031602179055506040516200009490620002d4565b604051809103906000f080158015620000b1573d6000803e3d6000fd5b5061012f80546001600160a01b0319166001600160a01b0392909216919091179055604051620000e190620002e2565b604051809103906000f080158015620000fe573d6000803e3d6000fd5b5061013080546001600160a01b0319166001600160a01b03929092169190911790556200012a6200013f565b620002f0565b6200013c60ff620001a9565b50565b61012e5460ff1615620001995760405162461bcd60e51b815260206004820152601d60248201527f436f6e747261637420616c726561647920696e697469616c697a65642e00000060448201526064015b60405180910390fd5b61012e805460ff19166001179055565b60008054610100900460ff16156200023e578160ff166001148015620001e25750620001e030620002b760201b62001af61760201c565b155b620002365760405162461bcd60e51b815260206004820152602e6024820152600080516020620079e083398151915260448201526d191e481a5b9a5d1a585b1a5e995960921b606482015260840162000190565b506000919050565b60005460ff8084169116106200029d5760405162461bcd60e51b815260206004820152602e6024820152600080516020620079e083398151915260448201526d191e481a5b9a5d1a585b1a5e995960921b606482015260840162000190565b506000805460ff191660ff92909216919091179055600190565b6001600160a01b03163b151590565b6113c0806200460483390190565b6109c880620059c483390190565b611654806200638c83390190565b61430480620003006000396000f3fe6080604052600436106102035760003560e01c8063715018a611610118578063de349ae7116100a0578063f242432a1161006f578063f242432a146105d3578063f2fde38b146105f3578063f5298aca14610613578063f769aba714610633578063fabe6b3c1461065357600080fd5b8063de349ae714610535578063de8bb68514610548578063e59991391461055d578063e985e9c51461058a57600080fd5b80639c3423b1116100e75780639c3423b1146104c0578063a13abdad14610439578063a22cb465146104c8578063a305bb22146104e8578063bd85b0391461050857600080fd5b8063715018a61461044e578063731133e9146104635780638129fc1c146104835780638da5cb5b1461049857600080fd5b80632eb2c2d61161019b5780634f558e791161016a5780634f558e79146103b557806357f7789e146103e45780636b20c454146104045780636c7ff22e146104245780636e4d243a1461043957600080fd5b80632eb2c2d614610331578063302424541461035157806345e8eca8146103715780634e1273f41461038857600080fd5b80630e89341c116101d75780630e89341c146102ad5780631bca55e5146102da5780631f7fdffa146102f157806323192a8f1461031157600080fd5b8062fdd58e1461020857806301ffc9a71461023b57806302fe53051461026b5780630da575dc1461028d575b600080fd5b34801561021457600080fd5b506102286102233660046130e9565b61065b565b6040519081526020015b60405180910390f35b34801561024757600080fd5b5061025b610256366004613129565b6106f4565b6040519015158152602001610232565b34801561027757600080fd5b5061028b610286366004613237565b610746565b005b34801561029957600080fd5b5061028b6102a8366004613273565b61077c565b3480156102b957600080fd5b506102cd6102c836600461328e565b6107cf565b60405161023291906132ff565b3480156102e657600080fd5b506102286101325481565b3480156102fd57600080fd5b5061028b61030c3660046133a6565b610872565b34801561031d57600080fd5b5061028b61032c366004613273565b6108ae565b34801561033d57600080fd5b5061028b61034c36600461343e565b6108fb565b34801561035d57600080fd5b5061028b61036c36600461328e565b610992565b34801561037d57600080fd5b506102286101315481565b34801561039457600080fd5b506103a86103a33660046134e7565b610a1b565b60405161023291906135ec565b3480156103c157600080fd5b5061025b6103d036600461328e565b600090815260fb6020526040902054151590565b3480156103f057600080fd5b5061028b6103ff3660046135ff565b610b44565b34801561041057600080fd5b5061028b61041f36600461363b565b610b93565b34801561043057600080fd5b5061028b610bd6565b34801561044557600080fd5b5061028b610de8565b34801561045a57600080fd5b5061028b610e02565b34801561046f57600080fd5b5061028b61047e3660046136ae565b610e36565b34801561048f57600080fd5b5061028b610e6c565b3480156104a457600080fd5b506097546040516001600160a01b039091168152602001610232565b61028b610f08565b3480156104d457600080fd5b5061028b6104e3366004613710565b6110e9565b3480156104f457600080fd5b5061028b610503366004613273565b6110f8565b34801561051457600080fd5b5061022861052336600461328e565b600090815260fb602052604090205490565b61028b61054336600461328e565b611145565b34801561055457600080fd5b50610228600081565b34801561056957600080fd5b5061057d610578366004613273565b611626565b6040516102329190613792565b34801561059657600080fd5b5061025b6105a53660046137a5565b6001600160a01b03918216600090815260666020908152604080832093909416825291909152205460ff1690565b3480156105df57600080fd5b5061028b6105ee3660046137d8565b6116e2565b3480156105ff57600080fd5b5061028b61060e366004613273565b611727565b34801561061f57600080fd5b5061028b61062e36600461383c565b6117bf565b34801561063f57600080fd5b5061028b61064e3660046138b7565b611802565b61057d6118a7565b60006001600160a01b0383166106cc5760405162461bcd60e51b815260206004820152602b60248201527f455243313135353a2062616c616e636520717565727920666f7220746865207a60448201526a65726f206164647265737360a81b60648201526084015b60405180910390fd5b5060009081526065602090815260408083206001600160a01b03949094168352929052205490565b60006001600160e01b03198216636cdb3d1360e11b148061072557506001600160e01b031982166303a24d0760e21b145b8061074057506301ffc9a760e01b6001600160e01b03198316145b92915050565b6097546001600160a01b031633146107705760405162461bcd60e51b81526004016106c39061395a565b61077981611b05565b50565b6097546001600160a01b031633146107a65760405162461bcd60e51b81526004016106c39061395a565b61012e80546001600160a01b0390921661010002610100600160a81b0319909216919091179055565b600081815261012d602052604090208054606091906107ed9061398f565b80601f01602080910402602001604051908101604052809291908181526020018280546108199061398f565b80156108665780601f1061083b57610100808354040283529160200191610866565b820191906000526020600020905b81548152906001019060200180831161084957829003601f168201915b50505050509050919050565b6097546001600160a01b0316331461089c5760405162461bcd60e51b81526004016106c39061395a565b6108a884848484611b18565b50505050565b6097546001600160a01b031633146108d85760405162461bcd60e51b81526004016106c39061395a565b61012f80546001600160a01b0319166001600160a01b0392909216919091179055565b6001600160a01b038516331480610917575061091785336105a5565b61097e5760405162461bcd60e51b815260206004820152603260248201527f455243313135353a207472616e736665722063616c6c6572206973206e6f74206044820152711bdddb995c881b9bdc88185c1c1c9bdd995960721b60648201526084016106c3565b61098b8585858585611c82565b5050505050565b6097546001600160a01b031633146109bc5760405162461bcd60e51b81526004016106c39061395a565b61012e54604051630c09091560e21b8152600481018390526101009091046001600160a01b031690633024245490602401600060405180830381600087803b158015610a0757600080fd5b505af115801561098b573d6000803e3d6000fd5b60608151835114610a805760405162461bcd60e51b815260206004820152602960248201527f455243313135353a206163636f756e747320616e6420696473206c656e677468604482015268040dad2e6dac2e8c6d60bb1b60648201526084016106c3565b600083516001600160401b03811115610a9b57610a9b61314d565b604051908082528060200260200182016040528015610ac4578160200160208202803683370190505b50905060005b8451811015610b3c57610b0f858281518110610ae857610ae86139ca565b6020026020010151858381518110610b0257610b026139ca565b602002602001015161065b565b828281518110610b2157610b216139ca565b6020908102919091010152610b35816139f6565b9050610aca565b509392505050565b6097546001600160a01b03163314610b6e5760405162461bcd60e51b81526004016106c39061395a565b600082815261012d602090815260409091208251610b8e92840190613039565b505050565b6001600160a01b038316331480610baf5750610baf83336105a5565b610bcb5760405162461bcd60e51b81526004016106c390613a11565b610b8e838383611e3d565b323314610bf55760405162461bcd60e51b81526004016106c390613a5a565b61012e5460405163e599913960e01b815233600482015260009161010090046001600160a01b03169063e59991399060240160006040518083038186803b158015610c3f57600080fd5b505afa158015610c53573d6000803e3d6000fd5b505050506040513d6000823e601f3d908101601f19168201604052610c7b9190810190613a8a565b90508060800151610c9e5760405162461bcd60e51b81526004016106c390613b87565b6060810151610cef5760405162461bcd60e51b815260206004820152601b60248201527f5061727469636970616e74206973206e6f7420616c6c6f7765642e000000000060448201526064016106c3565b610d0f336000836060015160405180602001604052806000815250611fe6565b6000606082015261012e54604051633fcd0c3760e01b8152829161010090046001600160a01b031690633fcd0c3790610d4e9033908590600401613bbe565b600060405180830381600087803b158015610d6857600080fd5b505af1158015610d7c573d6000803e3d6000fd5b505050506040513d6000823e601f3d908101601f19168201604052610da49190810190613a8a565b507f3e84b6367406cff7e5e6ccb266c97459f5e2b801fdc2541239cf86da35ecbf2933838460600151604051610ddc93929190613be2565b60405180910390a15050565b610e00604051806020016040528060008152506120e0565b565b6097546001600160a01b03163314610e2c5760405162461bcd60e51b81526004016106c39061395a565b610e006000612123565b6097546001600160a01b03163314610e605760405162461bcd60e51b81526004016106c39061395a565b6108a884848484611fe6565b6000610e786001612175565b90508015610e90576000805461ff0019166101001790555b610ea860405180602001604052806000815250612202565b610eb0612232565b610eb8612261565b610ec0612261565b8015610779576000805461ff0019169055604051600181527f7f26b83ff96e1f2b6a682f133852f6798a09c465da95921460cefb38474024989060200160405180910390a150565b323314610f275760405162461bcd60e51b81526004016106c390613a5a565b61012e5460405163e599913960e01b815233600482015260009161010090046001600160a01b03169063e59991399060240160006040518083038186803b158015610f7157600080fd5b505afa158015610f85573d6000803e3d6000fd5b505050506040513d6000823e601f3d908101601f19168201604052610fad9190810190613a8a565b90508060800151610fd05760405162461bcd60e51b81526004016106c390613b87565b61012e60019054906101000a90046001600160a01b03166001600160a01b03166358ac00386040518163ffffffff1660e01b815260040160206040518083038186803b15801561101f57600080fd5b505afa158015611033573d6000803e3d6000fd5b505050506040513d601f19601f820116820180604052508101906110579190613c16565b34116110995760405162461bcd60e51b81526020600482015260116024820152702737ba1032b737bab3b41026a0aa24a19760791b60448201526064016106c3565b6000806110a583612288565b915091507f9cdb3eb7c64977bb4da7ee02edeaf906493749a72bcd222259f4e8b39862c8583383836040516110dc93929190613c61565b60405180910390a1505050565b6110f43383836124da565b5050565b6097546001600160a01b031633146111225760405162461bcd60e51b81526004016106c39061395a565b61013080546001600160a01b0319166001600160a01b0392909216919091179055565b3233146111645760405162461bcd60e51b81526004016106c390613a5a565b61012e5460405163e599913960e01b815233600482015260009161010090046001600160a01b03169063e59991399060240160006040518083038186803b1580156111ae57600080fd5b505afa1580156111c2573d6000803e3d6000fd5b505050506040513d6000823e601f3d908101601f191682016040526111ea9190810190613a8a565b61012e54604051630ff6460160e11b8152600481018590529192506000916101009091046001600160a01b031690631fec8c029060240160a06040518083038186803b15801561123957600080fd5b505afa15801561124d573d6000803e3d6000fd5b505050506040513d601f19601f820116820180604052508101906112719190613c94565b905081608001516112945760405162461bcd60e51b81526004016106c390613b87565b80608001516112dd5760405162461bcd60e51b8152602060048201526015602482015274283630b73a103237b2b9903737ba1032bc34b9ba1760591b60448201526064016106c3565b600034116113225760405162461bcd60e51b815260206004820152601260248201527127379026a0aa24a190383937bb34b232b21760711b60448201526064016106c3565b61012f546040516342ee184d60e11b81526000916001600160a01b0316906385dc309a906113569086903490600401613d09565b60006040518083038186803b15801561136e57600080fd5b505afa158015611382573d6000803e3d6000fd5b505050506040513d6000823e601f3d908101601f191682016040526113aa9190810190613a8a565b61012f546040516358e5d9cf60e01b81529192506000916001600160a01b03909116906358e5d9cf906113e39086903490600401613d2b565b60a06040518083038186803b1580156113fb57600080fd5b505afa15801561140f573d6000803e3d6000fd5b505050506040513d601f19601f820116820180604052508101906114339190613c94565b61012e54604051633fcd0c3760e01b815291925061010090046001600160a01b031690633fcd0c379061146c9033908690600401613bbe565b600060405180830381600087803b15801561148657600080fd5b505af115801561149a573d6000803e3d6000fd5b505050506040513d6000823e601f3d908101601f191682016040526114c29190810190613a8a565b5061012e54604051635717651560e01b81526101009091046001600160a01b0316906357176515906114fa9088908590600401613d46565b60a060405180830381600087803b15801561151457600080fd5b505af1158015611528573d6000803e3d6000fd5b505050506040513d601f19601f8201168201806040525081019061154c9190613c94565b5061012f546040516333d2c6b160e11b81526000916001600160a01b0316906367a58d62906115819085908a90600401613d2b565b60006040518083038186803b15801561159957600080fd5b505afa1580156115ad573d6000803e3d6000fd5b505050506040513d6000823e601f3d908101601f191682016040526115d59190810190613d5a565b90506115e18682610b44565b7f3ed1cc965f2aba30207367f92d9c957caa3365fea3b717c6721108aaf9b43a45338484346040516116169493929190613ddb565b60405180910390a1505050505050565b61165a6040518060a00160405280600081526020016000815260200160608152602001600081526020016000151581525090565b61012e5460405163e599913960e01b81526001600160a01b0384811660048301526101009092049091169063e59991399060240160006040518083038186803b1580156116a657600080fd5b505afa1580156116ba573d6000803e3d6000fd5b505050506040513d6000823e601f3d908101601f191682016040526107409190810190613a8a565b6001600160a01b0385163314806116fe57506116fe85336105a5565b61171a5760405162461bcd60e51b81526004016106c390613a11565b61098b85858585856125bb565b6097546001600160a01b031633146117515760405162461bcd60e51b81526004016106c39061395a565b6001600160a01b0381166117b65760405162461bcd60e51b815260206004820152602660248201527f4f776e61626c653a206e6577206f776e657220697320746865207a65726f206160448201526564647265737360d01b60648201526084016106c3565b61077981612123565b6001600160a01b0383163314806117db57506117db83336105a5565b6117f75760405162461bcd60e51b81526004016106c390613a11565b610b8e838383612705565b6097546001600160a01b0316331461182c5760405162461bcd60e51b81526004016106c39061395a565b6101305460405163c5cad3a160e01b81526001600160a01b039091169063c5cad3a19061186b908b908b908b908b908b908b908b908b90600401613e48565b600060405180830381600087803b15801561188557600080fd5b505af1158015611899573d6000803e3d6000fd5b505050505050505050505050565b6118db6040518060a00160405280600081526020016000815260200160608152602001600081526020016000151581525090565b3233146118fa5760405162461bcd60e51b81526004016106c390613a5a565b61012e5460405163e599913960e01b815233600482015260009161010090046001600160a01b03169063e59991399060240160006040518083038186803b15801561194457600080fd5b505afa158015611958573d6000803e3d6000fd5b505050506040513d6000823e601f3d908101601f191682016040526119809190810190613a8a565b9050806080015115611a085760405162461bcd60e51b8152602060048201526044602482018190527f5061727469636970616e7420616c7265616479206578697374732e20596f7520908201527f616c726561647920636c61696d656420796f757220696e697469616c20746f6b60648201526332b7399760e11b608482015260a4016106c3565b61012e546040516311622ce560e01b815233600482015260009161010090046001600160a01b0316906311622ce590602401600060405180830381600087803b158015611a5457600080fd5b505af1158015611a68573d6000803e3d6000fd5b505050506040513d6000823e601f3d908101601f19168201604052611a909190810190613a8a565b9050611ab13360006101325460405180602001604052806000815250611fe6565b7f3e84b6367406cff7e5e6ccb266c97459f5e2b801fdc2541239cf86da35ecbf29338361013254604051611ae793929190613be2565b60405180910390a19150505b90565b6001600160a01b03163b151590565b80516110f4906067906020840190613039565b6001600160a01b038416611b3e5760405162461bcd60e51b81526004016106c390613ea4565b8151835114611b5f5760405162461bcd60e51b81526004016106c390613ee5565b33611b6f8160008787878761282b565b60005b8451811015611c0b57838181518110611b8d57611b8d6139ca565b602002602001015160656000878481518110611bab57611bab6139ca565b602002602001015181526020019081526020016000206000886001600160a01b03166001600160a01b031681526020019081526020016000206000828254611bf39190613f2d565b90915550819050611c03816139f6565b915050611b72565b50846001600160a01b031660006001600160a01b0316826001600160a01b03167f4a39dc06d4c0dbc64b70af90fd698a233a518aa5d07e595d983b8c0526c8f7fb8787604051611c5c929190613f45565b60405180910390a4611c7381600087878787612839565b61098b81600087878787612bc8565b8151835114611ca35760405162461bcd60e51b81526004016106c390613ee5565b6001600160a01b038416611cc95760405162461bcd60e51b81526004016106c390613f73565b33611cd881878787878761282b565b60005b8451811015611dc1576000858281518110611cf857611cf86139ca565b602002602001015190506000858381518110611d1657611d166139ca565b60209081029190910181015160008481526065835260408082206001600160a01b038e168352909352919091205490915081811015611d675760405162461bcd60e51b81526004016106c390613fb8565b60008381526065602090815260408083206001600160a01b038e8116855292528083208585039055908b16825281208054849290611da6908490613f2d565b9250508190555050505080611dba906139f6565b9050611cdb565b50846001600160a01b0316866001600160a01b0316826001600160a01b03167f4a39dc06d4c0dbc64b70af90fd698a233a518aa5d07e595d983b8c0526c8f7fb8787604051611e11929190613f45565b60405180910390a4611e27818787878787612839565b611e35818787878787612bc8565b505050505050565b6001600160a01b038316611e635760405162461bcd60e51b81526004016106c390614002565b8051825114611e845760405162461bcd60e51b81526004016106c390613ee5565b6000339050611ea78185600086866040518060200160405280600081525061282b565b60005b8351811015611f6f576000848281518110611ec757611ec76139ca565b602002602001015190506000848381518110611ee557611ee56139ca565b60209081029190910181015160008481526065835260408082206001600160a01b038c168352909352919091205490915081811015611f365760405162461bcd60e51b81526004016106c390614045565b60009283526065602090815260408085206001600160a01b038b1686529091529092209103905580611f67816139f6565b915050611eaa565b5060006001600160a01b0316846001600160a01b0316826001600160a01b03167f4a39dc06d4c0dbc64b70af90fd698a233a518aa5d07e595d983b8c0526c8f7fb8686604051611fc0929190613f45565b60405180910390a46108a881856000868660405180602001604052806000815250612839565b6001600160a01b03841661200c5760405162461bcd60e51b81526004016106c390613ea4565b33600061201885612d33565b9050600061202585612d33565b90506120368360008985858961282b565b60008681526065602090815260408083206001600160a01b038b16845290915281208054879290612068908490613f2d565b909155505060408051878152602081018790526001600160a01b03808a1692600092918716917fc3d58168c5ae7397731d063d5bbf3d657854427343f4c083240f7aacaa2d0f62910160405180910390a46120c883600089858589612839565b6120d783600089898989612d7e565b50505050505050565b610779816040516024016120f491906132ff565b60408051601f198184030181529190526020810180516001600160e01b031663104c13eb60e21b179052612e48565b609780546001600160a01b038381166001600160a01b0319831681179093556040519116919082907f8be0079c531659141344cd1fd0a4f28419497f9722a3daafe3b4186f6b6457e090600090a35050565b60008054610100900460ff16156121bc578160ff1660011480156121985750303b155b6121b45760405162461bcd60e51b81526004016106c390614089565b506000919050565b60005460ff8084169116106121e35760405162461bcd60e51b81526004016106c390614089565b506000805460ff191660ff92909216919091179055600190565b919050565b600054610100900460ff166122295760405162461bcd60e51b81526004016106c3906140d7565b61077981612e69565b600054610100900460ff166122595760405162461bcd60e51b81526004016106c3906140d7565b610e00612e90565b600054610100900460ff16610e005760405162461bcd60e51b81526004016106c3906140d7565b6122bc6040518060a00160405280600081526020016000815260200160608152602001600081526020016000151581525090565b6122f06040518060a00160405280600081526020016000815260200160008152602001600081526020016000151581525090565b61230f3361013154600160405180602001604052806000815250611fe6565b61012f546101315460405163a3dac62960e01b81526000926001600160a01b03169163a3dac62991612345918891600401613d09565b60006040518083038186803b15801561235d57600080fd5b505afa158015612371573d6000803e3d6000fd5b505050506040513d6000823e601f3d908101601f191682016040526123999190810190613a8a565b61012e5461013154604051631ec5a1a760e21b815260048101919091529192506000916101009091046001600160a01b031690637b16869c9060240160a060405180830381600087803b1580156123ef57600080fd5b505af1158015612403573d6000803e3d6000fd5b505050506040513d601f19601f820116820180604052508101906124279190613c94565b61012e54604051633fcd0c3760e01b815291925061010090046001600160a01b031690633fcd0c37906124609033908690600401613bbe565b600060405180830381600087803b15801561247a57600080fd5b505af115801561248e573d6000803e3d6000fd5b505050506040513d6000823e601f3d908101601f191682016040526124b69190810190613a8a565b50600161013160008282546124cb9190613f2d565b90915550919590945092505050565b816001600160a01b0316836001600160a01b0316141561254e5760405162461bcd60e51b815260206004820152602960248201527f455243313135353a2073657474696e6720617070726f76616c20737461747573604482015268103337b91039b2b63360b91b60648201526084016106c3565b6001600160a01b03838116600081815260666020908152604080832094871680845294825291829020805460ff191686151590811790915591519182527f17307eab39ab6107e8899845ad3d59bd9653f200f220920489ca2b5937696c31910160405180910390a3505050565b6001600160a01b0384166125e15760405162461bcd60e51b81526004016106c390613f73565b3360006125ed85612d33565b905060006125fa85612d33565b905061260a83898985858961282b565b60008681526065602090815260408083206001600160a01b038c1684529091529020548581101561264d5760405162461bcd60e51b81526004016106c390613fb8565b60008781526065602090815260408083206001600160a01b038d8116855292528083208985039055908a1682528120805488929061268c908490613f2d565b909155505060408051888152602081018890526001600160a01b03808b16928c821692918816917fc3d58168c5ae7397731d063d5bbf3d657854427343f4c083240f7aacaa2d0f62910160405180910390a46126ec848a8a86868a612839565b6126fa848a8a8a8a8a612d7e565b505050505050505050565b6001600160a01b03831661272b5760405162461bcd60e51b81526004016106c390614002565b33600061273784612d33565b9050600061274484612d33565b90506127648387600085856040518060200160405280600081525061282b565b60008581526065602090815260408083206001600160a01b038a168452909152902054848110156127a75760405162461bcd60e51b81526004016106c390614045565b60008681526065602090815260408083206001600160a01b038b81168086529184528285208a8703905582518b81529384018a90529092908816917fc3d58168c5ae7397731d063d5bbf3d657854427343f4c083240f7aacaa2d0f62910160405180910390a46120d784886000868660405180602001604052806000815250612839565b611e35868686868686612ec0565b60008360008151811061284e5761284e6139ca565b6020026020010151905060008114612bc35761012e5460405163e599913960e01b81526001600160a01b0388811660048301526000926101009004169063e59991399060240160006040518083038186803b1580156128ac57600080fd5b505afa1580156128c0573d6000803e3d6000fd5b505050506040513d6000823e601f3d908101601f191682016040526128e89190810190613a8a565b61012e5460405163e599913960e01b81526001600160a01b0389811660048301529293506000926101009092049091169063e59991399060240160006040518083038186803b15801561293a57600080fd5b505afa15801561294e573d6000803e3d6000fd5b505050506040513d6000823e601f3d908101601f191682016040526129769190810190613a8a565b9050816080015115612a9c5761012f54604051633637d22160e11b81526000916001600160a01b031690636c6fa442906129b69086908890600401613d09565b60006040518083038186803b1580156129ce57600080fd5b505afa1580156129e2573d6000803e3d6000fd5b505050506040513d6000823e601f3d908101601f19168201604052612a0a9190810190613a8a565b61012e54604051633fcd0c3760e01b815291925061010090046001600160a01b031690633fcd0c3790612a43908c908590600401613bbe565b600060405180830381600087803b158015612a5d57600080fd5b505af1158015612a71573d6000803e3d6000fd5b505050506040513d6000823e601f3d908101601f19168201604052612a999190810190613a8a565b50505b806080015115612bc05761012f5460405163a3dac62960e01b81526000916001600160a01b03169063a3dac62990612ada9085908890600401613d09565b60006040518083038186803b158015612af257600080fd5b505afa158015612b06573d6000803e3d6000fd5b505050506040513d6000823e601f3d908101601f19168201604052612b2e9190810190613a8a565b61012e54604051633fcd0c3760e01b815291925061010090046001600160a01b031690633fcd0c3790612b67908b908590600401613bbe565b600060405180830381600087803b158015612b8157600080fd5b505af1158015612b95573d6000803e3d6000fd5b505050506040513d6000823e601f3d908101601f19168201604052612bbd9190810190613a8a565b50505b50505b6120d7565b6001600160a01b0384163b15611e355760405163bc197c8160e01b81526001600160a01b0385169063bc197c8190612c0c9089908990889088908890600401614122565b602060405180830381600087803b158015612c2657600080fd5b505af1925050508015612c56575060408051601f3d908101601f19168201909252612c5391810190614180565b60015b612d0357612c6261419d565b806308c379a01415612c9c5750612c776141b8565b80612c825750612c9e565b8060405162461bcd60e51b81526004016106c391906132ff565b505b60405162461bcd60e51b815260206004820152603460248201527f455243313135353a207472616e7366657220746f206e6f6e20455243313135356044820152732932b1b2b4bb32b91034b6b83632b6b2b73a32b960611b60648201526084016106c3565b6001600160e01b0319811663bc197c8160e01b146120d75760405162461bcd60e51b81526004016106c390614241565b60408051600180825281830190925260609160009190602080830190803683370190505090508281600081518110612d6d57612d6d6139ca565b602090810291909101015292915050565b6001600160a01b0384163b15611e355760405163f23a6e6160e01b81526001600160a01b0385169063f23a6e6190612dc29089908990889088908890600401614289565b602060405180830381600087803b158015612ddc57600080fd5b505af1925050508015612e0c575060408051601f3d908101601f19168201909252612e0991810190614180565b60015b612e1857612c6261419d565b6001600160e01b0319811663f23a6e6160e01b146120d75760405162461bcd60e51b81526004016106c390614241565b80516a636f6e736f6c652e6c6f67602083016000808483855afa5050505050565b600054610100900460ff166107705760405162461bcd60e51b81526004016106c3906140d7565b600054610100900460ff16612eb75760405162461bcd60e51b81526004016106c3906140d7565b610e0033612123565b6001600160a01b038516612f475760005b8351811015612f4557828181518110612eec57612eec6139ca565b602002602001015160fb6000868481518110612f0a57612f0a6139ca565b602002602001015181526020019081526020016000206000828254612f2f9190613f2d565b90915550612f3e9050816139f6565b9050612ed1565b505b6001600160a01b038416611e355760005b83518110156120d7576000848281518110612f7557612f756139ca565b602002602001015190506000848381518110612f9357612f936139ca565b60200260200101519050600060fb6000848152602001908152602001600020549050818110156130165760405162461bcd60e51b815260206004820152602860248201527f455243313135353a206275726e20616d6f756e74206578636565647320746f74604482015267616c537570706c7960c01b60648201526084016106c3565b600092835260fb602052604090922091039055613032816139f6565b9050612f58565b8280546130459061398f565b90600052602060002090601f01602090048101928261306757600085556130ad565b82601f1061308057805160ff19168380011785556130ad565b828001600101855582156130ad579182015b828111156130ad578251825591602001919060010190613092565b506130b99291506130bd565b5090565b5b808211156130b957600081556001016130be565b80356001600160a01b03811681146121fd57600080fd5b600080604083850312156130fc57600080fd5b613105836130d2565b946020939093013593505050565b6001600160e01b03198116811461077957600080fd5b60006020828403121561313b57600080fd5b813561314681613113565b9392505050565b634e487b7160e01b600052604160045260246000fd5b60a081018181106001600160401b03821117156131825761318261314d565b60405250565b601f8201601f191681016001600160401b03811182821017156131ad576131ad61314d565b6040525050565b60006001600160401b038211156131cd576131cd61314d565b50601f01601f191660200190565b600082601f8301126131ec57600080fd5b81356131f7816131b4565b6040516132048282613188565b82815285602084870101111561321957600080fd5b82602086016020830137600092810160200192909252509392505050565b60006020828403121561324957600080fd5b81356001600160401b0381111561325f57600080fd5b61326b848285016131db565b949350505050565b60006020828403121561328557600080fd5b613146826130d2565b6000602082840312156132a057600080fd5b5035919050565b60005b838110156132c25781810151838201526020016132aa565b838111156108a85750506000910152565b600081518084526132eb8160208601602086016132a7565b601f01601f19169290920160200192915050565b60208152600061314660208301846132d3565b60006001600160401b0382111561332b5761332b61314d565b5060051b60200190565b600082601f83011261334657600080fd5b8135602061335382613312565b6040516133608282613188565b83815260059390931b850182019282810191508684111561338057600080fd5b8286015b8481101561339b5780358352918301918301613384565b509695505050505050565b600080600080608085870312156133bc57600080fd5b6133c5856130d2565b935060208501356001600160401b03808211156133e157600080fd5b6133ed88838901613335565b9450604087013591508082111561340357600080fd5b61340f88838901613335565b9350606087013591508082111561342557600080fd5b50613432878288016131db565b91505092959194509250565b600080600080600060a0868803121561345657600080fd5b61345f866130d2565b945061346d602087016130d2565b935060408601356001600160401b038082111561348957600080fd5b61349589838a01613335565b945060608801359150808211156134ab57600080fd5b6134b789838a01613335565b935060808801359150808211156134cd57600080fd5b506134da888289016131db565b9150509295509295909350565b600080604083850312156134fa57600080fd5b82356001600160401b038082111561351157600080fd5b818501915085601f83011261352557600080fd5b8135602061353282613312565b60405161353f8282613188565b83815260059390931b850182019282810191508984111561355f57600080fd5b948201945b8386101561358457613575866130d2565b82529482019490820190613564565b9650508601359250508082111561359a57600080fd5b506135a785828601613335565b9150509250929050565b600081518084526020808501945080840160005b838110156135e1578151875295820195908201906001016135c5565b509495945050505050565b60208152600061314660208301846135b1565b6000806040838503121561361257600080fd5b8235915060208301356001600160401b0381111561362f57600080fd5b6135a7858286016131db565b60008060006060848603121561365057600080fd5b613659846130d2565b925060208401356001600160401b038082111561367557600080fd5b61368187838801613335565b9350604086013591508082111561369757600080fd5b506136a486828701613335565b9150509250925092565b600080600080608085870312156136c457600080fd5b6136cd856130d2565b9350602085013592506040850135915060608501356001600160401b038111156136f657600080fd5b613432878288016131db565b801515811461077957600080fd5b6000806040838503121561372357600080fd5b61372c836130d2565b9150602083013561373c81613702565b809150509250929050565b80518252602081015160208301526000604082015160a0604085015261377060a08501826135b1565b9050606083015160608501526080830151151560808501528091505092915050565b6020815260006131466020830184613747565b600080604083850312156137b857600080fd5b6137c1836130d2565b91506137cf602084016130d2565b90509250929050565b600080600080600060a086880312156137f057600080fd5b6137f9866130d2565b9450613807602087016130d2565b9350604086013592506060860135915060808601356001600160401b0381111561383057600080fd5b6134da888289016131db565b60008060006060848603121561385157600080fd5b61385a846130d2565b95602085013595506040909401359392505050565b60008083601f84011261388157600080fd5b5081356001600160401b0381111561389857600080fd5b6020830191508360208285010111156138b057600080fd5b9250929050565b60008060008060008060008060c0898b0312156138d357600080fd5b883597506020890135965060408901356001600160401b03808211156138f857600080fd5b6139048c838d0161386f565b909850965060608b013591508082111561391d57600080fd5b5061392a8b828c0161386f565b909550935061393d905060808a016130d2565b915061394b60a08a016130d2565b90509295985092959890939650565b6020808252818101527f4f776e61626c653a2063616c6c6572206973206e6f7420746865206f776e6572604082015260600190565b600181811c908216806139a357607f821691505b602082108114156139c457634e487b7160e01b600052602260045260246000fd5b50919050565b634e487b7160e01b600052603260045260246000fd5b634e487b7160e01b600052601160045260246000fd5b6000600019821415613a0a57613a0a6139e0565b5060010190565b60208082526029908201527f455243313135353a2063616c6c6572206973206e6f74206f776e6572206e6f7260408201526808185c1c1c9bdd995960ba1b606082015260800190565b6020808252600b908201526a2737ba1030b71022a7a09760a91b604082015260600190565b80516121fd81613702565b60006020808385031215613a9d57600080fd5b82516001600160401b0380821115613ab457600080fd5b9084019060a08287031215613ac857600080fd5b604051613ad481613163565b825181528383015184820152604083015182811115613af257600080fd5b83019150601f82018713613b0557600080fd5b8151613b1081613312565b604051613b1d8282613188565b82815260059290921b8401860191868101915089831115613b3d57600080fd5b938601935b82851015613b5b57845182529386019390860190613b42565b6040840152505060608381015190820152613b7860808401613a7f565b60808201529695505050505050565b6020808252601b908201527f5061727469636970616e7420646f6573206e6f742065786973742e0000000000604082015260600190565b6001600160a01b038316815260406020820181905260009061326b90830184613747565b6001600160a01b0384168152606060208201819052600090613c0690830185613747565b9050826040830152949350505050565b600060208284031215613c2857600080fd5b5051919050565b805182526020810151602083015260408101516040830152606081015160608301526080810151151560808301525050565b6001600160a01b038416815260e060208201819052600090613c8590830185613747565b905061326b6040830184613c2f565b600060a08284031215613ca657600080fd5b60405160a081018181106001600160401b0382111715613cc857613cc861314d565b8060405250825181526020830151602082015260408301516040820152606083015160608201526080830151613cfd81613702565b60808201529392505050565b604081526000613d1c6040830185613747565b90508260208301529392505050565b60c08101613d398285613c2f565b8260a08301529392505050565b82815260c081016131466020830184613c2f565b600060208284031215613d6c57600080fd5b81516001600160401b03811115613d8257600080fd5b8201601f81018413613d9357600080fd5b8051613d9e816131b4565b604051613dab8282613188565b828152866020848601011115613dc057600080fd5b613dd18360208301602087016132a7565b9695505050505050565b6001600160a01b038516815261010060208201819052600090613e0083820187613747565b915050613e106040830185613c2f565b8260e083015295945050505050565b81835281816020850137506000828201602090810191909152601f909101601f19169091010190565b88815287602082015260c060408201526000613e6860c08301888a613e1f565b8281036060840152613e7b818789613e1f565b6001600160a01b0395861660808501529390941660a09092019190915250979650505050505050565b60208082526021908201527f455243313135353a206d696e7420746f20746865207a65726f206164647265736040820152607360f81b606082015260800190565b60208082526028908201527f455243313135353a2069647320616e6420616d6f756e7473206c656e677468206040820152670dad2e6dac2e8c6d60c31b606082015260800190565b60008219821115613f4057613f406139e0565b500190565b604081526000613f5860408301856135b1565b8281036020840152613f6a81856135b1565b95945050505050565b60208082526025908201527f455243313135353a207472616e7366657220746f20746865207a65726f206164604082015264647265737360d81b606082015260800190565b6020808252602a908201527f455243313135353a20696e73756666696369656e742062616c616e636520666f60408201526939103a3930b739b332b960b11b606082015260800190565b60208082526023908201527f455243313135353a206275726e2066726f6d20746865207a65726f206164647260408201526265737360e81b606082015260800190565b60208082526024908201527f455243313135353a206275726e20616d6f756e7420657863656564732062616c604082015263616e636560e01b606082015260800190565b6020808252602e908201527f496e697469616c697a61626c653a20636f6e747261637420697320616c72656160408201526d191e481a5b9a5d1a585b1a5e995960921b606082015260800190565b6020808252602b908201527f496e697469616c697a61626c653a20636f6e7472616374206973206e6f74206960408201526a6e697469616c697a696e6760a81b606082015260800190565b6001600160a01b0386811682528516602082015260a06040820181905260009061414e908301866135b1565b828103606084015261416081866135b1565b9050828103608084015261417481856132d3565b98975050505050505050565b60006020828403121561419257600080fd5b815161314681613113565b600060033d1115611af35760046000803e5060005160e01c90565b600060443d10156141c65790565b6040516003193d81016004833e81513d6001600160401b0381602484011181841117156141f557505050505090565b828501915081518181111561420d5750505050505090565b843d87010160208285010111156142275750505050505090565b61423660208286010187613188565b509095945050505050565b60208082526028908201527f455243313135353a204552433131353552656365697665722072656a656374656040820152676420746f6b656e7360c01b606082015260800190565b6001600160a01b03868116825285166020820152604081018490526060810183905260a0608082018190526000906142c3908301846132d3565b97965050505050505056fea2646970667358221220d42f878f84dc7576276bc1f5027e082af08d12f1dcbe37b1e6c053bc603878e564736f6c6343000809003360806040526065805460ff1916905534801561001a57600080fd5b50610023610028565b610099565b60655460ff161561007f5760405162461bcd60e51b815260206004820152601d60248201527f436f6e747261637420616c726561647920696e697469616c697a65642e000000604482015260640160405180910390fd5b6103e860668190556067556065805460ff19166001179055565b611318806100a86000396000f3fe608060405234801561001057600080fd5b50600436106101005760003560e01c8063715018a6116100975780639778e0b3116100665780639778e0b31461029f578063e1d1ad12146102b2578063e5999139146102c5578063f2fde38b146102d857600080fd5b8063715018a6146101ff5780637b16869c146102075780638da5cb5b1461021a5780638dd2361c1461023557600080fd5b806330242454116100d357806330242454146101bb5780633fcd0c37146101d057806357176515146101e357806358ac0038146101f657600080fd5b806309e69ede1461010557806311622ce5146101645780631fec8c0214610184578063229e04c8146101a4575b600080fd5b61013d610113366004610f1e565b60686020526000908152604090208054600182015460038301546004909301549192909160ff1684565b60408051948552602085019390935291830152151560608201526080015b60405180910390f35b610177610172366004610f1e565b6102eb565b60405161015b9190610f40565b610197610192366004610fc6565b6104dd565b60405161015b9190610fdf565b6101ad60675481565b60405190815260200161015b565b6101ce6101c9366004610fc6565b6105a8565b005b6101776101de366004611033565b6105d7565b6101976101f1366004611081565b6107ab565b6101ad60665481565b6101ce6108d6565b610197610215366004610fc6565b61090c565b6033546040516001600160a01b03909116815260200161015b565b610275610243366004610fc6565b606960205260009081526040902080546001820154600283015460038401546004909401549293919290919060ff1685565b6040805195865260208601949094529284019190915260608301521515608082015260a00161015b565b6101776102ad366004610f1e565b610a69565b6101976102c0366004610fc6565b610bd3565b6101776102d3366004610f1e565b610cac565b6101ce6102e6366004610f1e565b610d58565b6102f3610e45565b6033546001600160a01b031633146103265760405162461bcd60e51b815260040161031d906110ae565b60405180910390fd5b6001600160a01b0382166000908152606860209081526040808320815160a081018352815481526001820154818501526002820180548451818702810187018652818152929593948601938301828280156103a057602002820191906000526020600020905b81548152602001906001019080831161038c575b50505091835250506003820154602082015260049091015460ff1615156040909101526080810151909150156104185760405162461bcd60e51b815260206004820152601b60248201527f5061727469636970616e7420616c7265616479206578697374732e0000000000604482015260640161031d565b610420610e45565b60008082526020808301828152606084018390526001608085018190526001600160a01b03881684526068835260409384902085518155915190820155918301518051849392610477926002850192910190610e76565b50606082015160038201556080909101516004909101805460ff19169115159190911790556040517fa264353b4d8dc876f7a9e4030a7dbc206124e120101dd032f4ef2bcabb15ec4b906104cc908390610f40565b60405180910390a19150505b919050565b6104e5610ec1565b600082815260696020908152604091829020825160a081018452815481526001820154928101929092526002810154928201929092526003820154606082015260049091015460ff161515608082018190526105535760405162461bcd60e51b815260040161031d906110e3565b5050600090815260696020908152604091829020825160a081018452815481526001820154928101929092526002810154928201929092526003820154606082015260049091015460ff161515608082015290565b6033546001600160a01b031633146105d25760405162461bcd60e51b815260040161031d906110ae565b606755565b6105df610e45565b6033546001600160a01b031633146106095760405162461bcd60e51b815260040161031d906110ae565b6001600160a01b0383166000908152606860209081526040808320815160a0810183528154815260018201548185015260028201805484518187028101870186528181529295939486019383018282801561068357602002820191906000526020600020905b81548152602001906001019080831161066f575b50505091835250506003820154602082015260049091015460ff16151560409091015260808101519091506106fa5760405162461bcd60e51b815260206004820152601b60248201527f5061727469636970616e7420646f6573206e6f742065786973742e0000000000604482015260640161031d565b61070383611192565b6001600160a01b0385166000908152606860209081526040918290208351815581840151600182015591830151805193945084936107479260028501920190610e76565b50606082015160038201556080909101516004909101805460ff19169115159190911790556040517fbde0b5f6c349605083550b6ae7537d272caa80d602b2953848ce00156a594b2d9061079c908390610f40565b60405180910390a19392505050565b6107b3610ec1565b6033546001600160a01b031633146107dd5760405162461bcd60e51b815260040161031d906110ae565b600083815260696020908152604091829020825160a081018452815481526001820154928101929092526002810154928201929092526003820154606082015260049091015460ff1615156080820181905261084b5760405162461bcd60e51b815260040161031d906110e3565b61085a3684900384018461126e565b600085815260696020908152604091829020835181559083015160018201558282015160028201556060830151600382015560808301516004909101805460ff1916911515919091179055519091507f55bf2566c2dd3965de515a5b2fb036fd69ce0893ac5e8ad62121064c03887f3a9061079c908390610fdf565b6033546001600160a01b031633146109005760405162461bcd60e51b815260040161031d906110ae565b61090a6000610df3565b565b610914610ec1565b6033546001600160a01b0316331461093e5760405162461bcd60e51b815260040161031d906110ae565b600082815260696020908152604091829020825160a081018452815481526001820154928101929092526002810154928201929092526003820154606082015260049091015460ff1615801560808301526109d35760405162461bcd60e51b8152602060048201526015602482015274283630b73a1030b63932b0b23c9032bc34b9ba399760591b604482015260640161031d565b6109db610ec1565b60008082526020808301828152600360408086018281526064606088019081528a875260699095529481902086518155925160018401559351600283015591519181019190915560808301516004909101805460ff1916911515919091179055517f68fc3804c4a15e9c4c95952cc9077b7368ac270150deb7da2920322d82f64804906104cc908390610fdf565b610a71610e45565b6033546001600160a01b03163314610a9b5760405162461bcd60e51b815260040161031d906110ae565b6001600160a01b0382166000908152606860209081526040808320815160a08101835281548152600182015481850152600282018054845181870281018701865281815292959394860193830182828015610b1557602002820191906000526020600020905b815481526020019060010190808311610b01575b50505091835250506003820154602082015260049091015460ff1615156040909101526080810151909150610b8c5760405162461bcd60e51b815260206004820152601b60248201527f5061727469636970616e7420646f6573206e6f742065786973742e0000000000604482015260640161031d565b610b94610e45565b90507fd0a3d2d8946fb042e4542a54d3647344add244d38811d62cad6f4398f56ab0c481604051610bc59190610f40565b60405180910390a192915050565b610bdb610ec1565b6033546001600160a01b03163314610c055760405162461bcd60e51b815260040161031d906110ae565b600082815260696020908152604091829020825160a081018452815481526001820154928101929092526002810154928201929092526003820154606082015260049091015460ff16151560808201819052610c735760405162461bcd60e51b815260040161031d906110e3565b610c7b610ec1565b90507f936baf471dcef319d10b9521f71ec0f4ce18632f2ea784d49f23a4ec8120c80681604051610bc59190610fdf565b610cb4610e45565b6001600160a01b0382166000908152606860209081526040808320815160a08101835281548152600182015481850152600282018054845181870281018701865281815292959394860193830182828015610d2e57602002820191906000526020600020905b815481526020019060010190808311610d1a575b50505091835250506003820154602082015260049091015460ff1615156040909101529392505050565b6033546001600160a01b03163314610d825760405162461bcd60e51b815260040161031d906110ae565b6001600160a01b038116610de75760405162461bcd60e51b815260206004820152602660248201527f4f776e61626c653a206e6577206f776e657220697320746865207a65726f206160448201526564647265737360d01b606482015260840161031d565b610df081610df3565b50565b603380546001600160a01b038381166001600160a01b0319831681179093556040519116919082907f8be0079c531659141344cd1fd0a4f28419497f9722a3daafe3b4186f6b6457e090600090a35050565b6040518060a00160405280600081526020016000815260200160608152602001600081526020016000151581525090565b828054828255906000526020600020908101928215610eb1579160200282015b82811115610eb1578251825591602001919060010190610e96565b50610ebd929150610ef2565b5090565b6040518060a00160405280600081526020016000815260200160008152602001600081526020016000151581525090565b5b80821115610ebd5760008155600101610ef3565b80356001600160a01b03811681146104d857600080fd5b600060208284031215610f3057600080fd5b610f3982610f07565b9392505050565b6000602080835260c08301845182850152818501516040850152604085015160a0606086015281815180845260e0870191508483019350600092505b80831015610f9c5783518252928401926001929092019190840190610f7c565b506060870151608087015260808701519350610fbc60a087018515159052565b9695505050505050565b600060208284031215610fd857600080fd5b5035919050565b600060a0820190508251825260208301516020830152604083015160408301526060830151606083015260808301511515608083015292915050565b600060a0828403121561102d57600080fd5b50919050565b6000806040838503121561104657600080fd5b61104f83610f07565b9150602083013567ffffffffffffffff81111561106b57600080fd5b6110778582860161101b565b9150509250929050565b60008060c0838503121561109457600080fd5b823591506110a5846020850161101b565b90509250929050565b6020808252818101527f4f776e61626c653a2063616c6c6572206973206e6f7420746865206f776e6572604082015260600190565b602080825260159082015274283630b73a103237b2b9903737ba1032bc34b9ba1760591b604082015260600190565b634e487b7160e01b600052604160045260246000fd5b60405160a0810167ffffffffffffffff8111828210171561114b5761114b611112565b60405290565b604051601f8201601f1916810167ffffffffffffffff8111828210171561117a5761117a611112565b604052919050565b803580151581146104d857600080fd5b600060a082360312156111a457600080fd5b6111ac611128565b8235815260208084013581830152604084013567ffffffffffffffff808211156111d557600080fd5b9085019036601f8301126111e857600080fd5b8135818111156111fa576111fa611112565b8060051b915061120b848301611151565b818152918301840191848101903684111561122557600080fd5b938501935b838510156112435784358252938501939085019061122a565b604087015250505050506060838101359082015261126360808401611182565b608082015292915050565b600060a0828403121561128057600080fd5b60405160a0810181811067ffffffffffffffff821117156112a3576112a3611112565b8060405250823581526020830135602082015260408301356040820152606083013560608201526112d660808401611182565b6080820152939250505056fea26469706673582212204202ce26f6ead16312741d6a9f993393caa1e979f9730f26b2f5c958b2f26c5f64736f6c63430008090033608060405234801561001057600080fd5b506109a8806100206000396000f3fe608060405234801561001057600080fd5b50600436106100625760003560e01c806358e5d9cf1461006757806367a58d62146100c75780636c6fa442146100e757806385dc309a14610107578063a3dac6291461011a578063ddf62c141461012d575b600080fd5b61007a610075366004610620565b61014e565b6040516100be9190600060a0820190508251825260208301516020830152604083015160408301526060830151606083015260808301511515608083015292915050565b60405180910390f35b6100da6100d5366004610620565b610210565b6040516100be91906106bc565b6100fa6100f53660046106ef565b61026a565b6040516100be91906107f2565b6100fa6101153660046106ef565b61036f565b6100fa6101283660046106ef565b610452565b61014061013b3660046106ef565b610579565b6040519081526020016100be565b6101826040518060a00160405280600081526020016000815260200160008152602001600081526020016000151581525090565b8260600151828460200151610197919061088e565b10156101b3578183602001516101ad919061088e565b60208401525b82606001518284602001516101c8919061088e565b1115610209576001836000018181516101e1919061088e565b905250606083015160208401516101f990849061088e565b61020391906108a6565b60208401525b5090919050565b6040805180820182526009815268697066732f6e66742f60b81b602080830191909152845185840151935160609460009361025193869389939192016108bd565b60408051808303601f1901815291905295945050505050565b61029e6040518060a00160405280600081526020016000815260200160608152602001600081526020016000151581525090565b600060018460400151516102b291906108a6565b67ffffffffffffffff8111156102ca576102ca61059b565b6040519080825280602002602001820160405280156102f3578160200160208202803683370190505b50905060005b8460400151518110156103625760008560400151828151811061031e5761031e610900565b6020026020010151905084811461034f578083838151811061034257610342610900565b6020026020010181815250505b508061035a81610916565b9150506102f9565b5060408401525090919050565b6103a36040518060a00160405280600081526020016000815260200160608152602001600081526020016000151581525090565b82516000906103b490600590610931565b84516103c0919061088e565b6103cc906103e8610953565b9050808385602001516103df919061088e565b10156103fb578284602001516103f5919061088e565b60208501525b8083856020015161040c919061088e565b111561044a57600184600001818151610425919061088e565b9052506020840151819061043a90859061088e565b61044491906108a6565b60208501525b509192915050565b6104866040518060a00160405280600081526020016000815260200160608152602001600081526020016000151581525090565b6000836040015151600161049a919061088e565b67ffffffffffffffff8111156104b2576104b261059b565b6040519080825280602002602001820160405280156104db578160200160208202803683370190505b50905060005b8460400151518110156105415760008560400151828151811061050657610506610900565b602002602001015190508083838151811061052357610523610900565b6020908102919091010152508061053981610916565b9150506104e1565b50828182516001610552919061088e565b8151811061056257610562610900565b602090810291909101015260408401525090919050565b815160009061058a90600a90610931565b6105949083610953565b9392505050565b634e487b7160e01b600052604160045260246000fd5b60405160a0810167ffffffffffffffff811182821017156105d4576105d461059b565b60405290565b604051601f8201601f1916810167ffffffffffffffff811182821017156106035761060361059b565b604052919050565b8035801515811461061b57600080fd5b919050565b60008082840360c081121561063457600080fd5b60a081121561064257600080fd5b5061064b6105b1565b833581526020840135602082015260408401356040820152606084013560608201526106796080850161060b565b60808201529460a0939093013593505050565b60005b838110156106a757818101518382015260200161068f565b838111156106b6576000848401525b50505050565b60208152600082518060208401526106db81604085016020870161068c565b601f01601f19169190910160400192915050565b6000806040838503121561070257600080fd5b823567ffffffffffffffff8082111561071a57600080fd5b9084019060a0828703121561072e57600080fd5b6107366105b1565b823581526020808401358183015260408401358381111561075657600080fd5b8401601f8101891361076757600080fd5b8035848111156107795761077961059b565b8060051b945061078a8386016105da565b818152948201830194838101908b8711156107a457600080fd5b928401925b868410156107c2578335825292840192908401906107a9565b6040860152505050606084810135908301526107e06080850161060b565b60808301529097950135955050505050565b6000602080835260c08301845182850152818501516040850152604085015160a0606086015281815180845260e0870191508483019350600092505b8083101561084e578351825292840192600192909201919084019061082e565b50606087015160808701526080870151935061086e60a087018515159052565b9695505050505050565b634e487b7160e01b600052601160045260246000fd5b600082198211156108a1576108a1610878565b500190565b6000828210156108b8576108b8610878565b500390565b600085516108cf818460208a0161068c565b9190910193845250602d60f81b60208401819052602184019290925260418301919091526042820152606201919050565b634e487b7160e01b600052603260045260246000fd5b600060001982141561092a5761092a610878565b5060010190565b60008261094e57634e487b7160e01b600052601260045260246000fd5b500490565b600081600019048311821515161561096d5761096d610878565b50029056fea2646970667358221220caf79e2481889c4bb465948b009c2baee52609a26fa3402bef6f22e878274e4864736f6c634300080900336080604052600160045534801561001557600080fd5b50338060008161006c5760405162461bcd60e51b815260206004820152601860248201527f43616e6e6f7420736574206f776e657220746f207a65726f000000000000000060448201526064015b60405180910390fd5b600680546001600160a01b0319166001600160a01b038481169190911790915581161561009c5761009c8161011c565b5050506100c273326c977e6efc84e512bb9c30f76e30c160ed06fb6101c760201b60201c565b600380546001600160a01b03191673c8d925525ca8759812d0c299b90247917d4d4b7c1790557f6134666639383339376461333435363539363863663737356132393339343063600f55662386f26fc100006010556101e9565b6001600160a01b0381163314156101755760405162461bcd60e51b815260206004820152601760248201527f43616e6e6f74207472616e7366657220746f2073656c660000000000000000006044820152606401610063565b600780546001600160a01b0319166001600160a01b03838116918217909255600654604051919216907fed8889f560326eb138920d842192f0eb3dd22b4f139c87a2c57538e05bae127890600090a350565b600280546001600160a01b0319166001600160a01b0392909216919091179055565b61145c806101f86000396000f3fe608060405234801561001057600080fd5b50600436106100a95760003560e01c80638da5cb5b116100715780638da5cb5b1461013d5780638dc654a214610158578063c133ae9814610160578063c5cad3a114610169578063d83d170c1461017c578063f2fde38b1461018557600080fd5b806337db7fae146100ae578063593b79fe146100c35780636d811e711461010b578063709770b71461012257806379ba509714610135575b600080fd5b6100c16100bc366004610f90565b610198565b005b6100f56100d1366004610fde565b604080516001600160a01b0392909216600560a21b18601483015260348201905290565b6040516101029190611051565b60405180910390f35b61011460095481565b604051908152602001610102565b6100c1610130366004610fde565b6102ac565b6100c1610498565b6006546040516001600160a01b039091168152602001610102565b6100c1610546565b61011460085481565b6100c16101773660046110ad565b6106a8565b610114600a5481565b6100c1610193366004610fde565b610708565b60008481526005602052604090205484906001600160a01b031633146102165760405162461bcd60e51b815260206004820152602860248201527f536f75726365206d75737420626520746865206f7261636c65206f6620746865604482015267081c995c5d595cdd60c21b60648201526084015b60405180910390fd5b60008181526005602052604080822080546001600160a01b03191690555182917f7cc135e0cebb02c3480ae5d74d377283180a2601f8f644edf7987b009316c63a91a2604080518581526020810185905290810183905285907f1ed77f15bedb9f2e18446e63e8c9f73d9c3bb15fb83afc3c4ee9842050c6377e9060600160405180910390a250600892909255600955600a5550565b6102b4610719565b60006102ca600f54306337db7fae60e01b61076e565b604080516001600160a01b038516600560a21b1860148201526074810182526003603482019081526219d95d60ea1b605483015291519293509161032f9190610317908490602001611151565b60408051601f19818403018152919052849190610793565b610385604051806040016040528060048152602001630e0c2e8d60e31b8152506040518060400160405280600d81526020016c726567696f6e4176657261676560981b815250846107939092919063ffffffff16565b6103b56040518060400160405280600381526020016219d95d60ea1b815250826040516020016103179190611151565b610403604051806040016040528060048152602001630e0c2e8d60e31b81525060405180604001604052806005815260200164757361676560d81b815250846107939092919063ffffffff16565b6104336040518060400160405280600381526020016219d95d60ea1b815250826040516020016103179190611151565b610486604051806040016040528060048152602001630e0c2e8d60e31b8152506040518060400160405280600a81526020016966616d696c7953697a6560b01b815250846107939092919063ffffffff16565b610492826010546107b6565b50505050565b6007546001600160a01b031633146104eb5760405162461bcd60e51b815260206004820152601660248201527526bab9ba10313290383937b837b9b2b21037bbb732b960511b604482015260640161020d565b600680546001600160a01b0319808216339081179093556007805490911690556040516001600160a01b03909116919082907f8be0079c531659141344cd1fd0a4f28419497f9722a3daafe3b4186f6b6457e090600090a350565b61054e610719565b60006105626002546001600160a01b031690565b6040516370a0823160e01b81523060048201529091506001600160a01b0382169063a9059cbb90339083906370a082319060240160206040518083038186803b1580156105ae57600080fd5b505afa1580156105c2573d6000803e3d6000fd5b505050506040513d601f19601f820116820180604052508101906105e691906111aa565b6040516001600160e01b031960e085901b1681526001600160a01b0390921660048301526024820152604401602060405180830381600087803b15801561062c57600080fd5b505af1158015610640573d6000803e3d6000fd5b505050506040513d601f19601f8201168201806040525081019061066491906111c3565b6106a55760405162461bcd60e51b81526020600482015260126024820152712ab730b13632903a37903a3930b739b332b960711b604482015260640161020d565b50565b6106b0610719565b600f88905560108790556106c6600b8787610ebc565b506106d3600c8585610ebc565b50600d80546001600160a01b039384166001600160a01b031991821617909155600e8054929093169116179055505050505050565b610710610719565b6106a5816107d9565b6006546001600160a01b0316331461076c5760405162461bcd60e51b815260206004820152601660248201527527b7363c9031b0b63630b1363290313c9037bbb732b960511b604482015260640161020d565b565b610776610f40565b61077e610f40565b61078a81868686610884565b95945050505050565b60808301516107a290836108ca565b60808301516107b190826108ca565b505050565b6003546000906107d0906001600160a01b031684846108e1565b90505b92915050565b6001600160a01b0381163314156108325760405162461bcd60e51b815260206004820152601760248201527f43616e6e6f74207472616e7366657220746f2073656c66000000000000000000604482015260640161020d565b600780546001600160a01b0319166001600160a01b03838116918217909255600654604051919216907fed8889f560326eb138920d842192f0eb3dd22b4f139c87a2c57538e05bae127890600090a350565b61088c610f40565b61089c8560800151610100610974565b50508284526001600160a01b03821660208501526001600160e01b031981166040850152835b949350505050565b6108d782600383516109d9565b6107b18282610ae8565b6004546000906108f2816001611202565b600455835160408086015160808701515191516000936320214ca360e11b9361092a9386938493923092918a9160019160240161121a565b60408051601f198184030181529190526020810180516001600160e01b03166001600160e01b031990931692909217909152905061096a86838684610b0f565b9695505050505050565b604080518082019091526060815260006020820152610994602083611282565b156109bc576109a4602083611282565b6109af9060206112a4565b6109b99083611202565b91505b506020828101829052604080518085526000815290920101905290565b60178167ffffffffffffffff16116109fe576104928360e0600585901b168317610c7c565b60ff8167ffffffffffffffff1611610a3c57610a25836018611fe0600586901b1617610c7c565b506104928367ffffffffffffffff83166001610ca1565b61ffff8167ffffffffffffffff1611610a7b57610a64836019611fe0600586901b1617610c7c565b506104928367ffffffffffffffff83166002610ca1565b63ffffffff8167ffffffffffffffff1611610abc57610aa583601a611fe0600586901b1617610c7c565b506104928367ffffffffffffffff83166004610ca1565b610ad183601b611fe0600586901b1617610c7c565b506104928367ffffffffffffffff83166008610ca1565b6040805180820190915260608152600060208201526107d083846000015151848551610cc7565b6040516bffffffffffffffffffffffff193060601b1660208201526034810184905260009060540160408051808303601f1901815282825280516020918201206000818152600590925291812080546001600160a01b0319166001600160a01b038a1617905590925082917fb5e6e01e79f91267dc17b4e6314d5d4d03593d2ceee0fbb452b750bd70ea5af99190a2600254604051630200057560e51b81526001600160a01b0390911690634000aea090610bd2908890879087906004016112bb565b602060405180830381600087803b158015610bec57600080fd5b505af1158015610c00573d6000803e3d6000fd5b505050506040513d601f19601f82011682018060405250810190610c2491906111c3565b6108c25760405162461bcd60e51b815260206004820152602360248201527f756e61626c6520746f207472616e73666572416e6443616c6c20746f206f7261604482015262636c6560e81b606482015260840161020d565b6040805180820190915260608152600060208201526107d08384600001515184610db1565b6040805180820190915260608152600060208201526108c2848560000151518585610e0d565b6040805180820190915260608152600060208201528251821115610cea57600080fd5b6020850151610cf98386611202565b1115610d2c57610d2c85610d1c87602001518786610d179190611202565b610e8e565b610d279060026112e2565b610ea5565b600080865180518760208301019350808887011115610d4b5787860182525b505050602084015b60208410610d8b5780518252610d6a602083611202565b9150610d77602082611202565b9050610d846020856112a4565b9350610d53565b51815160001960208690036101000a019081169019919091161790525083949350505050565b60408051808201909152606081526000602082015283602001518310610de657610de68485602001516002610d2791906112e2565b835180516020858301018481535080851415610e03576001810182525b5093949350505050565b6040805180820190915260608152600060208201526020850151610e318584611202565b1115610e4557610e4585610d1c8685611202565b60006001610e55846101006113e5565b610e5f91906112a4565b9050855183868201018583198251161781525080518487011115610e835783860181525b509495945050505050565b600081831115610e9f5750816107d3565b50919050565b8151610eb18383610974565b506104928382610ae8565b828054610ec8906113f1565b90600052602060002090601f016020900481019282610eea5760008555610f30565b82601f10610f035782800160ff19823516178555610f30565b82800160010185558215610f30579182015b82811115610f30578235825591602001919060010190610f15565b50610f3c929150610f7b565b5090565b6040805160a0810182526000808252602080830182905282840182905260608084018390528451808601909552845283015290608082015290565b5b80821115610f3c5760008155600101610f7c565b60008060008060808587031215610fa657600080fd5b5050823594602084013594506040840135936060013592509050565b80356001600160a01b0381168114610fd957600080fd5b919050565b600060208284031215610ff057600080fd5b6107d082610fc2565b60005b83811015611014578181015183820152602001610ffc565b838111156104925750506000910152565b6000815180845261103d816020860160208601610ff9565b601f01601f19169290920160200192915050565b6020815260006107d06020830184611025565b60008083601f84011261107657600080fd5b50813567ffffffffffffffff81111561108e57600080fd5b6020830191508360208285010111156110a657600080fd5b9250929050565b60008060008060008060008060c0898b0312156110c957600080fd5b8835975060208901359650604089013567ffffffffffffffff808211156110ef57600080fd5b6110fb8c838d01611064565b909850965060608b013591508082111561111457600080fd5b506111218b828c01611064565b9095509350611134905060808a01610fc2565b915061114260a08a01610fc2565b90509295985092959890939650565b7f68747470733a2f2f6170692e706c61792d6b6f6a6f2e78797a2f6170692f666181526a7279732f6c61746573742f60a81b60208201526000825161119d81602b850160208701610ff9565b91909101602b0192915050565b6000602082840312156111bc57600080fd5b5051919050565b6000602082840312156111d557600080fd5b815180151581146111e557600080fd5b9392505050565b634e487b7160e01b600052601160045260246000fd5b60008219821115611215576112156111ec565b500190565b6001600160a01b0389811682526020820189905260408201889052861660608201526001600160e01b03198516608082015260a0810184905260c0810183905261010060e0820181905260009061127383820185611025565b9b9a5050505050505050505050565b60008261129f57634e487b7160e01b600052601260045260246000fd5b500690565b6000828210156112b6576112b66111ec565b500390565b60018060a01b038416815282602082015260606040820152600061078a6060830184611025565b60008160001904831182151516156112fc576112fc6111ec565b500290565b600181815b8085111561133c578160001904821115611322576113226111ec565b8085161561132f57918102915b93841c9390800290611306565b509250929050565b600082611353575060016107d3565b81611360575060006107d3565b816001811461137657600281146113805761139c565b60019150506107d3565b60ff841115611391576113916111ec565b50506001821b6107d3565b5060208310610133831016604e8410600b84101617156113bf575081810a6107d3565b6113c98383611301565b80600019048211156113dd576113dd6111ec565b029392505050565b60006107d08383611344565b600181811c9082168061140557607f821691505b60208210811415610e9f57634e487b7160e01b600052602260045260246000fdfea26469706673582212204f3aecf7b4709274bd64284d82d32d26fddbe657fdc8a7cb1325d4ba1b248c7464736f6c63430008090033496e697469616c697a61626c653a20636f6e747261637420697320616c726561",
  "linkReferences": {},
  "deployedLinkReferences": {}
}