{
  "_format": "hh-sol-artifact-1",
  "contractName": "KojoV1",
  "sourceName": "contracts/KojoV1.sol",
  "abi": [
    {
      "anonymous": false,
      "inputs": [
        {
          "indexed": true,
          "internalType": "address",
          "name": "account",
          "type": "address"
        },
        {
          "indexed": true,
          "internalType": "address",
          "name": "operator",
          "type": "address"
        },
        {
          "indexed": false,
          "internalType": "bool",
          "name": "approved",
          "type": "bool"
        }
      ],
      "name": "ApprovalForAll",
      "type": "event"
    },
    {
      "anonymous": false,
      "inputs": [
        {
          "indexed": false,
          "internalType": "uint8",
          "name": "version",
          "type": "uint8"
        }
      ],
      "name": "Initialized",
      "type": "event"
    },
    {
      "anonymous": false,
      "inputs": [
        {
          "indexed": true,
          "internalType": "address",
          "name": "previousOwner",
          "type": "address"
        },
        {
          "indexed": true,
          "internalType": "address",
          "name": "newOwner",
          "type": "address"
        }
      ],
      "name": "OwnershipTransferred",
      "type": "event"
    },
    {
      "anonymous": false,
      "inputs": [
        {
          "components": [
            {
              "internalType": "uint256",
              "name": "level",
              "type": "uint256"
            },
            {
              "internalType": "uint256",
              "name": "experiencePoints",
              "type": "uint256"
            },
            {
              "internalType": "uint256[]",
              "name": "plantIds",
              "type": "uint256[]"
            },
            {
              "internalType": "uint256",
              "name": "allowedTokenBalance",
              "type": "uint256"
            },
            {
              "internalType": "bool",
              "name": "isPresent",
              "type": "bool"
            }
          ],
          "indexed": false,
          "internalType": "struct Structs.Participant",
          "name": "participant",
          "type": "tuple"
        },
        {
          "components": [
            {
              "internalType": "uint256",
              "name": "level",
              "type": "uint256"
            },
            {
              "internalType": "uint256",
              "name": "experiencePoints",
              "type": "uint256"
            },
            {
              "internalType": "uint256",
              "name": "lifes",
              "type": "uint256"
            },
            {
              "internalType": "uint256",
              "name": "levelCost",
              "type": "uint256"
            },
            {
              "internalType": "bool",
              "name": "isPresent",
              "type": "bool"
            }
          ],
          "indexed": false,
          "internalType": "struct Structs.Plant",
          "name": "plant",
          "type": "tuple"
        }
      ],
      "name": "PlantMinted",
      "type": "event"
    },
    {
      "anonymous": false,
      "inputs": [
        {
          "indexed": false,
          "internalType": "address",
          "name": "account",
          "type": "address"
        },
        {
          "components": [
            {
              "internalType": "uint256",
              "name": "level",
              "type": "uint256"
            },
            {
              "internalType": "uint256",
              "name": "experiencePoints",
              "type": "uint256"
            },
            {
              "internalType": "uint256[]",
              "name": "plantIds",
              "type": "uint256[]"
            },
            {
              "internalType": "uint256",
              "name": "allowedTokenBalance",
              "type": "uint256"
            },
            {
              "internalType": "bool",
              "name": "isPresent",
              "type": "bool"
            }
          ],
          "indexed": false,
          "internalType": "struct Structs.Participant",
          "name": "participant",
          "type": "tuple"
        },
        {
          "components": [
            {
              "internalType": "uint256",
              "name": "level",
              "type": "uint256"
            },
            {
              "internalType": "uint256",
              "name": "experiencePoints",
              "type": "uint256"
            },
            {
              "internalType": "uint256",
              "name": "lifes",
              "type": "uint256"
            },
            {
              "internalType": "uint256",
              "name": "levelCost",
              "type": "uint256"
            },
            {
              "internalType": "bool",
              "name": "isPresent",
              "type": "bool"
            }
          ],
          "indexed": false,
          "internalType": "struct Structs.Plant",
          "name": "plant",
          "type": "tuple"
        },
        {
          "indexed": false,
          "internalType": "uint256",
          "name": "amount",
          "type": "uint256"
        }
      ],
      "name": "PlantWatered",
      "type": "event"
    },
    {
      "anonymous": false,
      "inputs": [
        {
          "components": [
            {
              "internalType": "uint256",
              "name": "level",
              "type": "uint256"
            },
            {
              "internalType": "uint256",
              "name": "experiencePoints",
              "type": "uint256"
            },
            {
              "internalType": "uint256[]",
              "name": "plantIds",
              "type": "uint256[]"
            },
            {
              "internalType": "uint256",
              "name": "allowedTokenBalance",
              "type": "uint256"
            },
            {
              "internalType": "bool",
              "name": "isPresent",
              "type": "bool"
            }
          ],
          "indexed": false,
          "internalType": "struct Structs.Participant",
          "name": "participant",
          "type": "tuple"
        },
        {
          "indexed": false,
          "internalType": "uint256",
          "name": "amount",
          "type": "uint256"
        }
      ],
      "name": "TokensClaimed",
      "type": "event"
    },
    {
      "anonymous": false,
      "inputs": [
        {
          "indexed": true,
          "internalType": "address",
          "name": "operator",
          "type": "address"
        },
        {
          "indexed": true,
          "internalType": "address",
          "name": "from",
          "type": "address"
        },
        {
          "indexed": true,
          "internalType": "address",
          "name": "to",
          "type": "address"
        },
        {
          "indexed": false,
          "internalType": "uint256[]",
          "name": "ids",
          "type": "uint256[]"
        },
        {
          "indexed": false,
          "internalType": "uint256[]",
          "name": "values",
          "type": "uint256[]"
        }
      ],
      "name": "TransferBatch",
      "type": "event"
    },
    {
      "anonymous": false,
      "inputs": [
        {
          "indexed": true,
          "internalType": "address",
          "name": "operator",
          "type": "address"
        },
        {
          "indexed": true,
          "internalType": "address",
          "name": "from",
          "type": "address"
        },
        {
          "indexed": true,
          "internalType": "address",
          "name": "to",
          "type": "address"
        },
        {
          "indexed": false,
          "internalType": "uint256",
          "name": "id",
          "type": "uint256"
        },
        {
          "indexed": false,
          "internalType": "uint256",
          "name": "value",
          "type": "uint256"
        }
      ],
      "name": "TransferSingle",
      "type": "event"
    },
    {
      "anonymous": false,
      "inputs": [
        {
          "indexed": false,
          "internalType": "string",
          "name": "value",
          "type": "string"
        },
        {
          "indexed": true,
          "internalType": "uint256",
          "name": "id",
          "type": "uint256"
        }
      ],
      "name": "URI",
      "type": "event"
    },
    {
      "inputs": [
        {
          "internalType": "address",
          "name": "account",
          "type": "address"
        },
        {
          "internalType": "uint256",
          "name": "id",
          "type": "uint256"
        }
      ],
      "name": "balanceOf",
      "outputs": [
        {
          "internalType": "uint256",
          "name": "",
          "type": "uint256"
        }
      ],
      "stateMutability": "view",
      "type": "function"
    },
    {
      "inputs": [
        {
          "internalType": "address[]",
          "name": "accounts",
          "type": "address[]"
        },
        {
          "internalType": "uint256[]",
          "name": "ids",
          "type": "uint256[]"
        }
      ],
      "name": "balanceOfBatch",
      "outputs": [
        {
          "internalType": "uint256[]",
          "name": "",
          "type": "uint256[]"
        }
      ],
      "stateMutability": "view",
      "type": "function"
    },
    {
      "inputs": [
        {
          "internalType": "address",
          "name": "account",
          "type": "address"
        },
        {
          "internalType": "uint256",
          "name": "id",
          "type": "uint256"
        },
        {
          "internalType": "uint256",
          "name": "value",
          "type": "uint256"
        }
      ],
      "name": "burn",
      "outputs": [],
      "stateMutability": "nonpayable",
      "type": "function"
    },
    {
      "inputs": [
        {
          "internalType": "address",
          "name": "account",
          "type": "address"
        },
        {
          "internalType": "uint256[]",
          "name": "ids",
          "type": "uint256[]"
        },
        {
          "internalType": "uint256[]",
          "name": "values",
          "type": "uint256[]"
        }
      ],
      "name": "burnBatch",
      "outputs": [],
      "stateMutability": "nonpayable",
      "type": "function"
    },
    {
      "inputs": [],
      "name": "checkUpkeep",
      "outputs": [],
      "stateMutability": "view",
      "type": "function"
    },
    {
      "inputs": [
        {
          "internalType": "uint256",
          "name": "id",
          "type": "uint256"
        }
      ],
      "name": "exists",
      "outputs": [
        {
          "internalType": "bool",
          "name": "",
          "type": "bool"
        }
      ],
      "stateMutability": "view",
      "type": "function"
    },
    {
      "inputs": [],
      "name": "fungibleTokenId",
      "outputs": [
        {
          "internalType": "uint256",
          "name": "",
          "type": "uint256"
        }
      ],
      "stateMutability": "view",
      "type": "function"
    },
    {
      "inputs": [],
      "name": "handleBuyPlant",
      "outputs": [],
      "stateMutability": "payable",
      "type": "function"
    },
    {
      "inputs": [],
      "name": "handleClaimMonthlyReward",
      "outputs": [],
      "stateMutability": "nonpayable",
      "type": "function"
    },
    {
      "inputs": [],
      "name": "handleClaimStartTokens",
      "outputs": [
        {
          "components": [
            {
              "internalType": "uint256",
              "name": "level",
              "type": "uint256"
            },
            {
              "internalType": "uint256",
              "name": "experiencePoints",
              "type": "uint256"
            },
            {
              "internalType": "uint256[]",
              "name": "plantIds",
              "type": "uint256[]"
            },
            {
              "internalType": "uint256",
              "name": "allowedTokenBalance",
              "type": "uint256"
            },
            {
              "internalType": "bool",
              "name": "isPresent",
              "type": "bool"
            }
          ],
          "internalType": "struct Structs.Participant",
          "name": "value",
          "type": "tuple"
        }
      ],
      "stateMutability": "payable",
      "type": "function"
    },
    {
      "inputs": [],
      "name": "handleReadInititalAllowance",
      "outputs": [
        {
          "internalType": "uint256",
          "name": "",
          "type": "uint256"
        }
      ],
      "stateMutability": "view",
      "type": "function"
    },
    {
      "inputs": [
        {
          "internalType": "address",
          "name": "account",
          "type": "address"
        }
      ],
      "name": "handleReadParticipant",
      "outputs": [
        {
          "components": [
            {
              "internalType": "uint256",
              "name": "level",
              "type": "uint256"
            },
            {
              "internalType": "uint256",
              "name": "experiencePoints",
              "type": "uint256"
            },
            {
              "internalType": "uint256[]",
              "name": "plantIds",
              "type": "uint256[]"
            },
            {
              "internalType": "uint256",
              "name": "allowedTokenBalance",
              "type": "uint256"
            },
            {
              "internalType": "bool",
              "name": "isPresent",
              "type": "bool"
            }
          ],
          "internalType": "struct Structs.Participant",
          "name": "_participant",
          "type": "tuple"
        }
      ],
      "stateMutability": "view",
      "type": "function"
    },
    {
      "inputs": [
        {
          "internalType": "address",
          "name": "_store",
          "type": "address"
        },
        {
          "internalType": "address",
          "name": "_utils",
          "type": "address"
        },
        {
          "internalType": "address",
          "name": "_api",
          "type": "address"
        }
      ],
      "name": "handleUpdateContracts",
      "outputs": [],
      "stateMutability": "nonpayable",
      "type": "function"
    },
    {
      "inputs": [
        {
          "internalType": "uint256",
          "name": "tokenSensitivity",
          "type": "uint256"
        }
      ],
      "name": "handleUpdateTokenSensitivity",
      "outputs": [],
      "stateMutability": "nonpayable",
      "type": "function"
    },
    {
      "inputs": [
        {
          "internalType": "uint256",
          "name": "tokenId",
          "type": "uint256"
        }
      ],
      "name": "handleWaterPlant",
      "outputs": [],
      "stateMutability": "payable",
      "type": "function"
    },
    {
      "inputs": [
        {
          "internalType": "address",
          "name": "_store",
          "type": "address"
        },
        {
          "internalType": "address",
          "name": "_utils",
          "type": "address"
        },
        {
          "internalType": "address",
          "name": "_api",
          "type": "address"
        }
      ],
      "name": "initialize",
      "outputs": [],
      "stateMutability": "nonpayable",
      "type": "function"
    },
    {
      "inputs": [
        {
          "internalType": "address",
          "name": "account",
          "type": "address"
        },
        {
          "internalType": "address",
          "name": "operator",
          "type": "address"
        }
      ],
      "name": "isApprovedForAll",
      "outputs": [
        {
          "internalType": "bool",
          "name": "",
          "type": "bool"
        }
      ],
      "stateMutability": "view",
      "type": "function"
    },
    {
      "inputs": [
        {
          "internalType": "address",
          "name": "to",
          "type": "address"
        },
        {
          "internalType": "uint256[]",
          "name": "ids",
          "type": "uint256[]"
        },
        {
          "internalType": "uint256[]",
          "name": "amounts",
          "type": "uint256[]"
        },
        {
          "internalType": "bytes",
          "name": "data",
          "type": "bytes"
        }
      ],
      "name": "mintBatch",
      "outputs": [],
      "stateMutability": "nonpayable",
      "type": "function"
    },
    {
      "inputs": [],
      "name": "nonFungibleTokenCount",
      "outputs": [
        {
          "internalType": "uint256",
          "name": "",
          "type": "uint256"
        }
      ],
      "stateMutability": "view",
      "type": "function"
    },
    {
      "inputs": [],
      "name": "owner",
      "outputs": [
        {
          "internalType": "address",
          "name": "",
          "type": "address"
        }
      ],
      "stateMutability": "view",
      "type": "function"
    },
    {
      "inputs": [],
      "name": "performUpkeep",
      "outputs": [],
      "stateMutability": "view",
      "type": "function"
    },
    {
      "inputs": [],
      "name": "renounceOwnership",
      "outputs": [],
      "stateMutability": "nonpayable",
      "type": "function"
    },
    {
      "inputs": [
        {
          "internalType": "address",
          "name": "from",
          "type": "address"
        },
        {
          "internalType": "address",
          "name": "to",
          "type": "address"
        },
        {
          "internalType": "uint256[]",
          "name": "ids",
          "type": "uint256[]"
        },
        {
          "internalType": "uint256[]",
          "name": "amounts",
          "type": "uint256[]"
        },
        {
          "internalType": "bytes",
          "name": "data",
          "type": "bytes"
        }
      ],
      "name": "safeBatchTransferFrom",
      "outputs": [],
      "stateMutability": "nonpayable",
      "type": "function"
    },
    {
      "inputs": [
        {
          "internalType": "address",
          "name": "from",
          "type": "address"
        },
        {
          "internalType": "address",
          "name": "to",
          "type": "address"
        },
        {
          "internalType": "uint256",
          "name": "id",
          "type": "uint256"
        },
        {
          "internalType": "uint256",
          "name": "amount",
          "type": "uint256"
        },
        {
          "internalType": "bytes",
          "name": "data",
          "type": "bytes"
        }
      ],
      "name": "safeTransferFrom",
      "outputs": [],
      "stateMutability": "nonpayable",
      "type": "function"
    },
    {
      "inputs": [
        {
          "internalType": "address",
          "name": "operator",
          "type": "address"
        },
        {
          "internalType": "bool",
          "name": "approved",
          "type": "bool"
        }
      ],
      "name": "setApprovalForAll",
      "outputs": [],
      "stateMutability": "nonpayable",
      "type": "function"
    },
    {
      "inputs": [
        {
          "internalType": "uint256",
          "name": "tokenId",
          "type": "uint256"
        },
        {
          "internalType": "string",
          "name": "_uri",
          "type": "string"
        }
      ],
      "name": "setTokenUri",
      "outputs": [],
      "stateMutability": "nonpayable",
      "type": "function"
    },
    {
      "inputs": [
        {
          "internalType": "string",
          "name": "newuri",
          "type": "string"
        }
      ],
      "name": "setURI",
      "outputs": [],
      "stateMutability": "nonpayable",
      "type": "function"
    },
    {
      "inputs": [
        {
          "internalType": "bytes4",
          "name": "interfaceId",
          "type": "bytes4"
        }
      ],
      "name": "supportsInterface",
      "outputs": [
        {
          "internalType": "bool",
          "name": "",
          "type": "bool"
        }
      ],
      "stateMutability": "view",
      "type": "function"
    },
    {
      "inputs": [
        {
          "internalType": "uint256",
          "name": "id",
          "type": "uint256"
        }
      ],
      "name": "totalSupply",
      "outputs": [
        {
          "internalType": "uint256",
          "name": "",
          "type": "uint256"
        }
      ],
      "stateMutability": "view",
      "type": "function"
    },
    {
      "inputs": [
        {
          "internalType": "address",
          "name": "newOwner",
          "type": "address"
        }
      ],
      "name": "transferOwnership",
      "outputs": [],
      "stateMutability": "nonpayable",
      "type": "function"
    },
    {
      "inputs": [
        {
          "internalType": "uint256",
          "name": "tokenId",
          "type": "uint256"
        }
      ],
      "name": "uri",
      "outputs": [
        {
          "internalType": "string",
          "name": "",
          "type": "string"
        }
      ],
      "stateMutability": "view",
      "type": "function"
    }
  ],
  "bytecode": "0x608060405234801561001057600080fd5b50613eb8806100206000396000f3fe6080604052600436106101d75760003560e01c80636e4d243a11610102578063c0c53b8b11610095578063f242432a11610064578063f242432a14610552578063f2fde38b14610572578063f5298aca14610592578063fabe6b3c146105b257600080fd5b8063c0c53b8b146104a9578063de349ae7146104c9578063e5999139146104dc578063e985e9c51461050957600080fd5b8063a13abdad116100d1578063a13abdad146103eb578063a22cb46514610445578063b4daaf5514610465578063bd85b0391461047c57600080fd5b80636e4d243a146103eb578063715018a6146104005780638da5cb5b146104155780639c3423b11461043d57600080fd5b8063302424541161017a57806357f7789e1161014957806357f7789e14610381578063584c7b37146103a15780636b20c454146103b65780636c7ff22e146103d657600080fd5b806330242454146102ee57806345e8eca81461030e5780634e1273f4146103255780634f558e791461035257600080fd5b80630e89341c116101b65780630e89341c146102615780631f7fdffa1461028e5780632540fe91146102ae5780632eb2c2d6146102ce57600080fd5b8062fdd58e146101dc57806301ffc9a71461020f57806302fe53051461023f575b600080fd5b3480156101e857600080fd5b506101fc6101f7366004612e2c565b6105ba565b6040519081526020015b60405180910390f35b34801561021b57600080fd5b5061022f61022a366004612e6c565b610653565b6040519015158152602001610206565b34801561024b57600080fd5b5061025f61025a366004612f7a565b6106a5565b005b34801561026d57600080fd5b5061028161027c366004612fb6565b6106db565b6040516102069190613027565b34801561029a57600080fd5b5061025f6102a93660046130ce565b61077e565b3480156102ba57600080fd5b5061025f6102c9366004613166565b6107ba565b3480156102da57600080fd5b5061025f6102e93660046131a9565b610826565b3480156102fa57600080fd5b5061025f610309366004612fb6565b6108bd565b34801561031a57600080fd5b506101fc61012f5481565b34801561033157600080fd5b50610345610340366004613252565b610942565b6040516102069190613357565b34801561035e57600080fd5b5061022f61036d366004612fb6565b600090815260fb6020526040902054151590565b34801561038d57600080fd5b5061025f61039c36600461336a565b610a6b565b3480156103ad57600080fd5b506101fc610aba565b3480156103c257600080fd5b5061025f6103d13660046133a6565b610b3d565b3480156103e257600080fd5b5061025f610b80565b3480156103f757600080fd5b5061025f610d88565b34801561040c57600080fd5b5061025f610da2565b34801561042157600080fd5b506097546040516001600160a01b039091168152602001610206565b61025f610dd6565b34801561045157600080fd5b5061025f610460366004613427565b611050565b34801561047157600080fd5b506101fc61012e5481565b34801561048857600080fd5b506101fc610497366004612fb6565b600090815260fb602052604090205490565b3480156104b557600080fd5b5061025f6104c4366004613166565b61105f565b61025f6104d7366004612fb6565b611141565b3480156104e857600080fd5b506104fc6104f736600461345e565b611610565b60405161020691906134c4565b34801561051557600080fd5b5061022f6105243660046134d7565b6001600160a01b03918216600090815260666020908152604080832093909416825291909152205460ff1690565b34801561055e57600080fd5b5061025f61056d36600461350a565b6116c6565b34801561057e57600080fd5b5061025f61058d36600461345e565b61170b565b34801561059e57600080fd5b5061025f6105ad36600461356e565b6117a3565b6104fc6117e6565b60006001600160a01b03831661062b5760405162461bcd60e51b815260206004820152602b60248201527f455243313135353a2062616c616e636520717565727920666f7220746865207a60448201526a65726f206164647265737360a81b60648201526084015b60405180910390fd5b5060009081526065602090815260408083206001600160a01b03949094168352929052205490565b60006001600160e01b03198216636cdb3d1360e11b148061068457506001600160e01b031982166303a24d0760e21b145b8061069f57506301ffc9a760e01b6001600160e01b03198316145b92915050565b6097546001600160a01b031633146106cf5760405162461bcd60e51b8152600401610622906135a1565b6106d881611b32565b50565b600081815261012d602052604090208054606091906106f9906135d6565b80601f0160208091040260200160405190810160405280929190818152602001828054610725906135d6565b80156107725780601f1061074757610100808354040283529160200191610772565b820191906000526020600020905b81548152906001019060200180831161075557829003601f168201915b50505050509050919050565b6097546001600160a01b031633146107a85760405162461bcd60e51b8152600401610622906135a1565b6107b484848484611b45565b50505050565b6097546001600160a01b031633146107e45760405162461bcd60e51b8152600401610622906135a1565b61013080546001600160a01b039485166001600160a01b0319918216179091556101318054938516938216939093179092556101328054919093169116179055565b6001600160a01b03851633148061084257506108428533610524565b6108a95760405162461bcd60e51b815260206004820152603260248201527f455243313135353a207472616e736665722063616c6c6572206973206e6f74206044820152711bdddb995c881b9bdc88185c1c1c9bdd995960721b6064820152608401610622565b6108b68585858585611ca0565b5050505050565b6097546001600160a01b031633146108e75760405162461bcd60e51b8152600401610622906135a1565b61013054604051630c09091560e21b8152600481018390526001600160a01b0390911690633024245490602401600060405180830381600087803b15801561092e57600080fd5b505af11580156108b6573d6000803e3d6000fd5b606081518351146109a75760405162461bcd60e51b815260206004820152602960248201527f455243313135353a206163636f756e747320616e6420696473206c656e677468604482015268040dad2e6dac2e8c6d60bb1b6064820152608401610622565b600083516001600160401b038111156109c2576109c2612e90565b6040519080825280602002602001820160405280156109eb578160200160208202803683370190505b50905060005b8451811015610a6357610a36858281518110610a0f57610a0f613611565b6020026020010151858381518110610a2957610a29613611565b60200260200101516105ba565b828281518110610a4857610a48613611565b6020908102919091010152610a5c8161363d565b90506109f1565b509392505050565b6097546001600160a01b03163314610a955760405162461bcd60e51b8152600401610622906135a1565b600082815261012d602090815260409091208251610ab592840190612d7c565b505050565b6101305460408051631bca55e560e01b815290516000926001600160a01b031691631bca55e5916004808301926020929190829003018186803b158015610b0057600080fd5b505afa158015610b14573d6000803e3d6000fd5b505050506040513d601f19601f82011682018060405250810190610b389190613658565b905090565b6001600160a01b038316331480610b595750610b598333610524565b610b755760405162461bcd60e51b815260040161062290613671565b610ab5838383611e4d565b323314610b9f5760405162461bcd60e51b8152600401610622906136ba565b6101305460405163e599913960e01b81523360048201526000916001600160a01b03169063e59991399060240160006040518083038186803b158015610be457600080fd5b505afa158015610bf8573d6000803e3d6000fd5b505050506040513d6000823e601f3d908101601f19168201604052610c2091908101906136ea565b90508060800151610c435760405162461bcd60e51b8152600401610622906137e7565b6060810151610c945760405162461bcd60e51b815260206004820152601b60248201527f5061727469636970616e74206973206e6f7420616c6c6f7765642e00000000006044820152606401610622565b610cb63361012e54836060015160405180602001604052806000815250611fec565b6000606082015261013054604051633fcd0c3760e01b815282916001600160a01b031690633fcd0c3790610cf0903390859060040161381e565b600060405180830381600087803b158015610d0a57600080fd5b505af1158015610d1e573d6000803e3d6000fd5b505050506040513d6000823e601f3d908101601f19168201604052610d4691908101906136ea565b507f1800ac493c2559610df079ad63033e4a99ae93f599a3df7ef426015113ff0278828360600151604051610d7c929190613842565b60405180910390a15050565b610da0604051806020016040528060008152506120d7565b565b6097546001600160a01b03163314610dcc5760405162461bcd60e51b8152600401610622906135a1565b610da0600061211a565b323314610df55760405162461bcd60e51b8152600401610622906136ba565b6101305460405163e599913960e01b81523360048201526000916001600160a01b03169063e59991399060240160006040518083038186803b158015610e3a57600080fd5b505afa158015610e4e573d6000803e3d6000fd5b505050506040513d6000823e601f3d908101601f19168201604052610e7691908101906136ea565b90508060800151610e995760405162461bcd60e51b8152600401610622906137e7565b6000610ea83361012e546105ba565b9050610ee96040518060400160405280601b81526020017f53656e6465722062616c616e636520697320257320746f6b656e7300000000008152508261216c565b61013060009054906101000a90046001600160a01b03166001600160a01b03166358ac00386040518163ffffffff1660e01b815260040160206040518083038186803b158015610f3857600080fd5b505afa158015610f4c573d6000803e3d6000fd5b505050506040513d601f19601f82011682018060405250810190610f709190613658565b811015610fd05760405162461bcd60e51b815260206004820152602860248201527f4e6f7420656e6f756768206b6f6a6f732e204f6e6520706c616e7420636f7374604482015267732031206b6f6a6f60c01b6064820152608401610622565b600080610fdb6121b1565b915091506110116040518060400160405280600c81526020016b706c616e747365656520257360a01b8152508260800151612451565b7fd3c27ff71e4143519cb0a887c47b332099ba4f226bf05e73f471a71a987691cc8282604051611042929190613896565b60405180910390a150505050565b61105b338383612496565b5050565b600061106b6001612577565b90508015611083576000805461ff0019166101001790555b61109b60405180602001604052806000815250612604565b6110a3612634565b6110ab612663565b6110b3612663565b600061012e55600161012f5561013080546001600160a01b038087166001600160a01b031992831617909255610131805486841690831617905561013280549285169290911691909117905580156107b4576000805461ff0019169055604051600181527f7f26b83ff96e1f2b6a682f133852f6798a09c465da95921460cefb384740249890602001611042565b3233146111605760405162461bcd60e51b8152600401610622906136ba565b6101305460405163e599913960e01b81523360048201526000916001600160a01b03169063e59991399060240160006040518083038186803b1580156111a557600080fd5b505afa1580156111b9573d6000803e3d6000fd5b505050506040513d6000823e601f3d908101601f191682016040526111e191908101906136ea565b61013054604051630ff6460160e11b8152600481018590529192506000916001600160a01b0390911690631fec8c029060240160a06040518083038186803b15801561122c57600080fd5b505afa158015611240573d6000803e3d6000fd5b505050506040513d601f19601f8201168201806040525081019061126491906138b8565b905081608001516112875760405162461bcd60e51b8152600401610622906137e7565b80608001516112d05760405162461bcd60e51b8152602060048201526015602482015274283630b73a103237b2b9903737ba1032bc34b9ba1760591b6044820152606401610622565b600034116113155760405162461bcd60e51b815260206004820152601260248201527127379026a0aa24a190383937bb34b232b21760711b6044820152606401610622565b610131546040516342ee184d60e11b81526000916001600160a01b0316906385dc309a906113499086903490600401613842565b60006040518083038186803b15801561136157600080fd5b505afa158015611375573d6000803e3d6000fd5b505050506040513d6000823e601f3d908101601f1916820160405261139d91908101906136ea565b610131546040516358e5d9cf60e01b81529192506000916001600160a01b03909116906358e5d9cf906113d6908690349060040161392d565b60a06040518083038186803b1580156113ee57600080fd5b505afa158015611402573d6000803e3d6000fd5b505050506040513d601f19601f8201168201806040525081019061142691906138b8565b61013054604051633fcd0c3760e01b81529192506001600160a01b031690633fcd0c379061145a903390869060040161381e565b600060405180830381600087803b15801561147457600080fd5b505af1158015611488573d6000803e3d6000fd5b505050506040513d6000823e601f3d908101601f191682016040526114b091908101906136ea565b5061013054604051635717651560e01b81526001600160a01b03909116906357176515906114e49088908590600401613948565b60a060405180830381600087803b1580156114fe57600080fd5b505af1158015611512573d6000803e3d6000fd5b505050506040513d601f19601f8201168201806040525081019061153691906138b8565b50610131546040516333d2c6b160e11b81526000916001600160a01b0316906367a58d629061156b9085908a9060040161392d565b60006040518083038186803b15801561158357600080fd5b505afa158015611597573d6000803e3d6000fd5b505050506040513d6000823e601f3d908101601f191682016040526115bf919081019061395c565b90506115cb8682610a6b565b7f3ed1cc965f2aba30207367f92d9c957caa3365fea3b717c6721108aaf9b43a453384843460405161160094939291906139dd565b60405180910390a1505050505050565b6116446040518060a00160405280600081526020016000815260200160608152602001600081526020016000151581525090565b6101305460405163e599913960e01b81526001600160a01b0384811660048301529091169063e59991399060240160006040518083038186803b15801561168a57600080fd5b505afa15801561169e573d6000803e3d6000fd5b505050506040513d6000823e601f3d908101601f1916820160405261069f91908101906136ea565b6001600160a01b0385163314806116e257506116e28533610524565b6116fe5760405162461bcd60e51b815260040161062290613671565b6108b6858585858561268a565b6097546001600160a01b031633146117355760405162461bcd60e51b8152600401610622906135a1565b6001600160a01b03811661179a5760405162461bcd60e51b815260206004820152602660248201527f4f776e61626c653a206e6577206f776e657220697320746865207a65726f206160448201526564647265737360d01b6064820152608401610622565b6106d88161211a565b6001600160a01b0383163314806117bf57506117bf8333610524565b6117db5760405162461bcd60e51b815260040161062290613671565b610ab58383836127c6565b61181a6040518060a00160405280600081526020016000815260200160608152602001600081526020016000151581525090565b3233146118395760405162461bcd60e51b8152600401610622906136ba565b6101305460405163e599913960e01b81523360048201526000916001600160a01b03169063e59991399060240160006040518083038186803b15801561187e57600080fd5b505afa158015611892573d6000803e3d6000fd5b505050506040513d6000823e601f3d908101601f191682016040526118ba91908101906136ea565b90508060800151156119435760405162461bcd60e51b815260206004820152604660248201527f5061727469636970616e7420616c7265616479206578697374732e20596f752060448201527f63616e206f6e6c7920636c61696d20796f757220696e7469616c206b6f6a6f736064820152651037b731b29760d11b608482015260a401610622565b610130546040516311622ce560e01b81523360048201526000916001600160a01b0316906311622ce590602401600060405180830381600087803b15801561198a57600080fd5b505af115801561199e573d6000803e3d6000fd5b505050506040513d6000823e601f3d908101601f191682016040526119c691908101906136ea565b9050611a6c3361012e5461013060009054906101000a90046001600160a01b03166001600160a01b0316631bca55e56040518163ffffffff1660e01b815260040160206040518083038186803b158015611a1f57600080fd5b505afa158015611a33573d6000803e3d6000fd5b505050506040513d601f19601f82011682018060405250810190611a579190613658565b60405180602001604052806000815250611fec565b7f1800ac493c2559610df079ad63033e4a99ae93f599a3df7ef426015113ff02788161013060009054906101000a90046001600160a01b03166001600160a01b0316631bca55e56040518163ffffffff1660e01b815260040160206040518083038186803b158015611add57600080fd5b505afa158015611af1573d6000803e3d6000fd5b505050506040513d601f19601f82011682018060405250810190611b159190613658565b604051611b23929190613842565b60405180910390a19150505b90565b805161105b906067906020840190612d7c565b6001600160a01b038416611b6b5760405162461bcd60e51b815260040161062290613a21565b8151835114611b8c5760405162461bcd60e51b815260040161062290613a62565b33611b9c816000878787876128e2565b60005b8451811015611c3857838181518110611bba57611bba613611565b602002602001015160656000878481518110611bd857611bd8613611565b602002602001015181526020019081526020016000206000886001600160a01b03166001600160a01b031681526020019081526020016000206000828254611c209190613aaa565b90915550819050611c308161363d565b915050611b9f565b50846001600160a01b031660006001600160a01b0316826001600160a01b03167f4a39dc06d4c0dbc64b70af90fd698a233a518aa5d07e595d983b8c0526c8f7fb8787604051611c89929190613ac2565b60405180910390a46108b6816000878787876128f0565b8151835114611cc15760405162461bcd60e51b815260040161062290613a62565b6001600160a01b038416611ce75760405162461bcd60e51b815260040161062290613af0565b33611cf68187878787876128e2565b60005b8451811015611ddf576000858281518110611d1657611d16613611565b602002602001015190506000858381518110611d3457611d34613611565b60209081029190910181015160008481526065835260408082206001600160a01b038e168352909352919091205490915081811015611d855760405162461bcd60e51b815260040161062290613b35565b60008381526065602090815260408083206001600160a01b038e8116855292528083208585039055908b16825281208054849290611dc4908490613aaa565b9250508190555050505080611dd89061363d565b9050611cf9565b50846001600160a01b0316866001600160a01b0316826001600160a01b03167f4a39dc06d4c0dbc64b70af90fd698a233a518aa5d07e595d983b8c0526c8f7fb8787604051611e2f929190613ac2565b60405180910390a4611e458187878787876128f0565b505050505050565b6001600160a01b038316611e735760405162461bcd60e51b815260040161062290613b7f565b8051825114611e945760405162461bcd60e51b815260040161062290613a62565b6000339050611eb7818560008686604051806020016040528060008152506128e2565b60005b8351811015611f7f576000848281518110611ed757611ed7613611565b602002602001015190506000848381518110611ef557611ef5613611565b60209081029190910181015160008481526065835260408082206001600160a01b038c168352909352919091205490915081811015611f465760405162461bcd60e51b815260040161062290613bc2565b60009283526065602090815260408085206001600160a01b038b1686529091529092209103905580611f778161363d565b915050611eba565b5060006001600160a01b0316846001600160a01b0316826001600160a01b03167f4a39dc06d4c0dbc64b70af90fd698a233a518aa5d07e595d983b8c0526c8f7fb8686604051611fd0929190613ac2565b60405180910390a46040805160208101909152600090526107b4565b6001600160a01b0384166120125760405162461bcd60e51b815260040161062290613a21565b33600061201e85612a5b565b9050600061202b85612a5b565b905061203c836000898585896128e2565b60008681526065602090815260408083206001600160a01b038b1684529091528120805487929061206e908490613aaa565b909155505060408051878152602081018790526001600160a01b03808a1692600092918716917fc3d58168c5ae7397731d063d5bbf3d657854427343f4c083240f7aacaa2d0f62910160405180910390a46120ce83600089898989612aa6565b50505050505050565b6106d8816040516024016120eb9190613027565b60408051601f198184030181529190526020810180516001600160e01b031663104c13eb60e21b179052612b70565b609780546001600160a01b038381166001600160a01b0319831681179093556040519116919082907f8be0079c531659141344cd1fd0a4f28419497f9722a3daafe3b4186f6b6457e090600090a35050565b61105b8282604051602401612182929190613c06565b60408051601f198184030181529190526020810180516001600160e01b03166309710a9d60e41b179052612b70565b6121e56040518060a00160405280600081526020016000815260200160608152602001600081526020016000151581525090565b6122196040518060a00160405280600081526020016000815260200160008152602001600081526020016000151581525090565b6122383361012f54600160405180602001604052806000815250611fec565b6122656040518060400160405280600c81526020016b0746c6f6f7074206d697320360a41b8152506120d7565b6122743361012e5460016117a3565b6122a16040518060400160405280600c81526020016b746c6f6f7074206d6973203160a01b8152506120d7565b6101305461012f54604051639fd9491760e01b815233600482015260248101919091526000916001600160a01b031690639fd9491790604401600060405180830381600087803b1580156122f457600080fd5b505af1158015612308573d6000803e3d6000fd5b505050506040513d6000823e601f3d908101601f1916820160405261233091908101906136ea565b905061235f6040518060400160405280600c81526020016b3a3637b7b83a1036b4b9901960a11b8152506120d7565b6101305461012f54604051631ec5a1a760e21b815260048101919091526000916001600160a01b031690637b16869c9060240160a060405180830381600087803b1580156123ac57600080fd5b505af11580156123c0573d6000803e3d6000fd5b505050506040513d601f19601f820116820180604052508101906123e491906138b8565b90506124136040518060400160405280600c81526020016b746c6f6f7074206d6973203360a01b8152506120d7565b61241b612b91565b6124486040518060400160405280600c81526020016b1d1b1bdbdc1d081b5a5cc80d60a21b8152506120d7565b90939092509050565b61105b8282604051602401612467929190613c19565b60408051601f198184030181529190526020810180516001600160e01b031663c3b5563560e01b179052612b70565b816001600160a01b0316836001600160a01b0316141561250a5760405162461bcd60e51b815260206004820152602960248201527f455243313135353a2073657474696e6720617070726f76616c20737461747573604482015268103337b91039b2b63360b91b6064820152608401610622565b6001600160a01b03838116600081815260666020908152604080832094871680845294825291829020805460ff191686151590811790915591519182527f17307eab39ab6107e8899845ad3d59bd9653f200f220920489ca2b5937696c31910160405180910390a3505050565b60008054610100900460ff16156125be578160ff16600114801561259a5750303b155b6125b65760405162461bcd60e51b815260040161062290613c3d565b506000919050565b60005460ff8084169116106125e55760405162461bcd60e51b815260040161062290613c3d565b506000805460ff191660ff92909216919091179055600190565b919050565b600054610100900460ff1661262b5760405162461bcd60e51b815260040161062290613c8b565b6106d881612bac565b600054610100900460ff1661265b5760405162461bcd60e51b815260040161062290613c8b565b610da0612bd3565b600054610100900460ff16610da05760405162461bcd60e51b815260040161062290613c8b565b6001600160a01b0384166126b05760405162461bcd60e51b815260040161062290613af0565b3360006126bc85612a5b565b905060006126c985612a5b565b90506126d98389898585896128e2565b60008681526065602090815260408083206001600160a01b038c1684529091529020548581101561271c5760405162461bcd60e51b815260040161062290613b35565b60008781526065602090815260408083206001600160a01b038d8116855292528083208985039055908a1682528120805488929061275b908490613aaa565b909155505060408051888152602081018890526001600160a01b03808b16928c821692918816917fc3d58168c5ae7397731d063d5bbf3d657854427343f4c083240f7aacaa2d0f62910160405180910390a46127bb848a8a8a8a8a612aa6565b505050505050505050565b6001600160a01b0383166127ec5760405162461bcd60e51b815260040161062290613b7f565b3360006127f884612a5b565b9050600061280584612a5b565b9050612825838760008585604051806020016040528060008152506128e2565b60008581526065602090815260408083206001600160a01b038a168452909152902054848110156128685760405162461bcd60e51b815260040161062290613bc2565b60008681526065602090815260408083206001600160a01b038b81168086529184528285208a8703905582518b81529384018a90529092908816917fc3d58168c5ae7397731d063d5bbf3d657854427343f4c083240f7aacaa2d0f62910160405180910390a46040805160208101909152600090526120ce565b611e45868686868686612c03565b6001600160a01b0384163b15611e455760405163bc197c8160e01b81526001600160a01b0385169063bc197c81906129349089908990889088908890600401613cd6565b602060405180830381600087803b15801561294e57600080fd5b505af192505050801561297e575060408051601f3d908101601f1916820190925261297b91810190613d34565b60015b612a2b5761298a613d51565b806308c379a014156129c4575061299f613d6c565b806129aa57506129c6565b8060405162461bcd60e51b81526004016106229190613027565b505b60405162461bcd60e51b815260206004820152603460248201527f455243313135353a207472616e7366657220746f206e6f6e20455243313135356044820152732932b1b2b4bb32b91034b6b83632b6b2b73a32b960611b6064820152608401610622565b6001600160e01b0319811663bc197c8160e01b146120ce5760405162461bcd60e51b815260040161062290613df5565b60408051600180825281830190925260609160009190602080830190803683370190505090508281600081518110612a9557612a95613611565b602090810291909101015292915050565b6001600160a01b0384163b15611e455760405163f23a6e6160e01b81526001600160a01b0385169063f23a6e6190612aea9089908990889088908890600401613e3d565b602060405180830381600087803b158015612b0457600080fd5b505af1925050508015612b34575060408051601f3d908101601f19168201909252612b3191810190613d34565b60015b612b405761298a613d51565b6001600160e01b0319811663f23a6e6160e01b146120ce5760405162461bcd60e51b815260040161062290613df5565b80516a636f6e736f6c652e6c6f67602083016000808483855afa5050505050565b600161012f6000828254612ba59190613aaa565b9091555050565b600054610100900460ff166106cf5760405162461bcd60e51b815260040161062290613c8b565b600054610100900460ff16612bfa5760405162461bcd60e51b815260040161062290613c8b565b610da03361211a565b6001600160a01b038516612c8a5760005b8351811015612c8857828181518110612c2f57612c2f613611565b602002602001015160fb6000868481518110612c4d57612c4d613611565b602002602001015181526020019081526020016000206000828254612c729190613aaa565b90915550612c8190508161363d565b9050612c14565b505b6001600160a01b038416611e455760005b83518110156120ce576000848281518110612cb857612cb8613611565b602002602001015190506000848381518110612cd657612cd6613611565b60200260200101519050600060fb600084815260200190815260200160002054905081811015612d595760405162461bcd60e51b815260206004820152602860248201527f455243313135353a206275726e20616d6f756e74206578636565647320746f74604482015267616c537570706c7960c01b6064820152608401610622565b600092835260fb602052604090922091039055612d758161363d565b9050612c9b565b828054612d88906135d6565b90600052602060002090601f016020900481019282612daa5760008555612df0565b82601f10612dc357805160ff1916838001178555612df0565b82800160010185558215612df0579182015b82811115612df0578251825591602001919060010190612dd5565b50612dfc929150612e00565b5090565b5b80821115612dfc5760008155600101612e01565b80356001600160a01b03811681146125ff57600080fd5b60008060408385031215612e3f57600080fd5b612e4883612e15565b946020939093013593505050565b6001600160e01b0319811681146106d857600080fd5b600060208284031215612e7e57600080fd5b8135612e8981612e56565b9392505050565b634e487b7160e01b600052604160045260246000fd5b60a081018181106001600160401b0382111715612ec557612ec5612e90565b60405250565b601f8201601f191681016001600160401b0381118282101715612ef057612ef0612e90565b6040525050565b60006001600160401b03821115612f1057612f10612e90565b50601f01601f191660200190565b600082601f830112612f2f57600080fd5b8135612f3a81612ef7565b604051612f478282612ecb565b828152856020848701011115612f5c57600080fd5b82602086016020830137600092810160200192909252509392505050565b600060208284031215612f8c57600080fd5b81356001600160401b03811115612fa257600080fd5b612fae84828501612f1e565b949350505050565b600060208284031215612fc857600080fd5b5035919050565b60005b83811015612fea578181015183820152602001612fd2565b838111156107b45750506000910152565b60008151808452613013816020860160208601612fcf565b601f01601f19169290920160200192915050565b602081526000612e896020830184612ffb565b60006001600160401b0382111561305357613053612e90565b5060051b60200190565b600082601f83011261306e57600080fd5b8135602061307b8261303a565b6040516130888282612ecb565b83815260059390931b85018201928281019150868411156130a857600080fd5b8286015b848110156130c357803583529183019183016130ac565b509695505050505050565b600080600080608085870312156130e457600080fd5b6130ed85612e15565b935060208501356001600160401b038082111561310957600080fd5b6131158883890161305d565b9450604087013591508082111561312b57600080fd5b6131378883890161305d565b9350606087013591508082111561314d57600080fd5b5061315a87828801612f1e565b91505092959194509250565b60008060006060848603121561317b57600080fd5b61318484612e15565b925061319260208501612e15565b91506131a060408501612e15565b90509250925092565b600080600080600060a086880312156131c157600080fd5b6131ca86612e15565b94506131d860208701612e15565b935060408601356001600160401b03808211156131f457600080fd5b61320089838a0161305d565b9450606088013591508082111561321657600080fd5b61322289838a0161305d565b9350608088013591508082111561323857600080fd5b5061324588828901612f1e565b9150509295509295909350565b6000806040838503121561326557600080fd5b82356001600160401b038082111561327c57600080fd5b818501915085601f83011261329057600080fd5b8135602061329d8261303a565b6040516132aa8282612ecb565b83815260059390931b85018201928281019150898411156132ca57600080fd5b948201945b838610156132ef576132e086612e15565b825294820194908201906132cf565b9650508601359250508082111561330557600080fd5b506133128582860161305d565b9150509250929050565b600081518084526020808501945080840160005b8381101561334c57815187529582019590820190600101613330565b509495945050505050565b602081526000612e89602083018461331c565b6000806040838503121561337d57600080fd5b8235915060208301356001600160401b0381111561339a57600080fd5b61331285828601612f1e565b6000806000606084860312156133bb57600080fd5b6133c484612e15565b925060208401356001600160401b03808211156133e057600080fd5b6133ec8783880161305d565b9350604086013591508082111561340257600080fd5b5061340f8682870161305d565b9150509250925092565b80151581146106d857600080fd5b6000806040838503121561343a57600080fd5b61344383612e15565b9150602083013561345381613419565b809150509250929050565b60006020828403121561347057600080fd5b612e8982612e15565b80518252602081015160208301526000604082015160a060408501526134a260a085018261331c565b9050606083015160608501526080830151151560808501528091505092915050565b602081526000612e896020830184613479565b600080604083850312156134ea57600080fd5b6134f383612e15565b915061350160208401612e15565b90509250929050565b600080600080600060a0868803121561352257600080fd5b61352b86612e15565b945061353960208701612e15565b9350604086013592506060860135915060808601356001600160401b0381111561356257600080fd5b61324588828901612f1e565b60008060006060848603121561358357600080fd5b61358c84612e15565b95602085013595506040909401359392505050565b6020808252818101527f4f776e61626c653a2063616c6c6572206973206e6f7420746865206f776e6572604082015260600190565b600181811c908216806135ea57607f821691505b6020821081141561360b57634e487b7160e01b600052602260045260246000fd5b50919050565b634e487b7160e01b600052603260045260246000fd5b634e487b7160e01b600052601160045260246000fd5b600060001982141561365157613651613627565b5060010190565b60006020828403121561366a57600080fd5b5051919050565b60208082526029908201527f455243313135353a2063616c6c6572206973206e6f74206f776e6572206e6f7260408201526808185c1c1c9bdd995960ba1b606082015260800190565b6020808252600b908201526a2737ba1030b71022a7a09760a91b604082015260600190565b80516125ff81613419565b600060208083850312156136fd57600080fd5b82516001600160401b038082111561371457600080fd5b9084019060a0828703121561372857600080fd5b60405161373481612ea6565b82518152838301518482015260408301518281111561375257600080fd5b83019150601f8201871361376557600080fd5b81516137708161303a565b60405161377d8282612ecb565b82815260059290921b840186019186810191508983111561379d57600080fd5b938601935b828510156137bb578451825293860193908601906137a2565b60408401525050606083810151908201526137d8608084016136df565b60808201529695505050505050565b6020808252601b908201527f5061727469636970616e7420646f6573206e6f742065786973742e0000000000604082015260600190565b6001600160a01b0383168152604060208201819052600090612fae90830184613479565b6040815260006138556040830185613479565b90508260208301529392505050565b805182526020810151602083015260408101516040830152606081015160608301526080810151151560808301525050565b60c0815260006138a960c0830185613479565b9050612e896020830184613864565b600060a082840312156138ca57600080fd5b60405160a081018181106001600160401b03821117156138ec576138ec612e90565b806040525082518152602083015160208201526040830151604082015260608301516060820152608083015161392181613419565b60808201529392505050565b60c0810161393b8285613864565b8260a08301529392505050565b82815260c08101612e896020830184613864565b60006020828403121561396e57600080fd5b81516001600160401b0381111561398457600080fd5b8201601f8101841361399557600080fd5b80516139a081612ef7565b6040516139ad8282612ecb565b8281528660208486010111156139c257600080fd5b6139d3836020830160208701612fcf565b9695505050505050565b6001600160a01b038516815261010060208201819052600090613a0283820187613479565b915050613a126040830185613864565b8260e083015295945050505050565b60208082526021908201527f455243313135353a206d696e7420746f20746865207a65726f206164647265736040820152607360f81b606082015260800190565b60208082526028908201527f455243313135353a2069647320616e6420616d6f756e7473206c656e677468206040820152670dad2e6dac2e8c6d60c31b606082015260800190565b60008219821115613abd57613abd613627565b500190565b604081526000613ad5604083018561331c565b8281036020840152613ae7818561331c565b95945050505050565b60208082526025908201527f455243313135353a207472616e7366657220746f20746865207a65726f206164604082015264647265737360d81b606082015260800190565b6020808252602a908201527f455243313135353a20696e73756666696369656e742062616c616e636520666f60408201526939103a3930b739b332b960b11b606082015260800190565b60208082526023908201527f455243313135353a206275726e2066726f6d20746865207a65726f206164647260408201526265737360e81b606082015260800190565b60208082526024908201527f455243313135353a206275726e20616d6f756e7420657863656564732062616c604082015263616e636560e01b606082015260800190565b6040815260006138556040830185612ffb565b604081526000613c2c6040830185612ffb565b905082151560208301529392505050565b6020808252602e908201527f496e697469616c697a61626c653a20636f6e747261637420697320616c72656160408201526d191e481a5b9a5d1a585b1a5e995960921b606082015260800190565b6020808252602b908201527f496e697469616c697a61626c653a20636f6e7472616374206973206e6f74206960408201526a6e697469616c697a696e6760a81b606082015260800190565b6001600160a01b0386811682528516602082015260a060408201819052600090613d029083018661331c565b8281036060840152613d14818661331c565b90508281036080840152613d288185612ffb565b98975050505050505050565b600060208284031215613d4657600080fd5b8151612e8981612e56565b600060033d1115611b2f5760046000803e5060005160e01c90565b600060443d1015613d7a5790565b6040516003193d81016004833e81513d6001600160401b038160248401118184111715613da957505050505090565b8285019150815181811115613dc15750505050505090565b843d8701016020828501011115613ddb5750505050505090565b613dea60208286010187612ecb565b509095945050505050565b60208082526028908201527f455243313135353a204552433131353552656365697665722072656a656374656040820152676420746f6b656e7360c01b606082015260800190565b6001600160a01b03868116825285166020820152604081018490526060810183905260a060808201819052600090613e7790830184612ffb565b97965050505050505056fea2646970667358221220f2fc106c3141038b7886314c0c4606c027a6a0b6c556a6c570763a27ecae88ff64736f6c63430008090033",
  "linkReferences": {},
  "deployedLinkReferences": {}
}