{
  "_format": "hh-sol-artifact-1",
  "contractName": "KojoV1",
  "sourceName": "contracts/KojoV1.sol",
  "abi": [
    {
      "anonymous": false,
      "inputs": [
        {
          "indexed": true,
          "internalType": "address",
          "name": "account",
          "type": "address"
        },
        {
          "indexed": true,
          "internalType": "address",
          "name": "operator",
          "type": "address"
        },
        {
          "indexed": false,
          "internalType": "bool",
          "name": "approved",
          "type": "bool"
        }
      ],
      "name": "ApprovalForAll",
      "type": "event"
    },
    {
      "anonymous": false,
      "inputs": [
        {
          "indexed": false,
          "internalType": "uint8",
          "name": "version",
          "type": "uint8"
        }
      ],
      "name": "Initialized",
      "type": "event"
    },
    {
      "anonymous": false,
      "inputs": [
        {
          "indexed": true,
          "internalType": "address",
          "name": "previousOwner",
          "type": "address"
        },
        {
          "indexed": true,
          "internalType": "address",
          "name": "newOwner",
          "type": "address"
        }
      ],
      "name": "OwnershipTransferred",
      "type": "event"
    },
    {
      "anonymous": false,
      "inputs": [
        {
          "components": [
            {
              "internalType": "uint256",
              "name": "level",
              "type": "uint256"
            },
            {
              "internalType": "uint256",
              "name": "experiencePoints",
              "type": "uint256"
            },
            {
              "internalType": "uint256",
              "name": "timestamp",
              "type": "uint256"
            },
            {
              "internalType": "uint256[]",
              "name": "plantIds",
              "type": "uint256[]"
            },
            {
              "internalType": "uint256",
              "name": "allowedTokenBalance",
              "type": "uint256"
            },
            {
              "internalType": "bool",
              "name": "isPresent",
              "type": "bool"
            }
          ],
          "indexed": false,
          "internalType": "struct Structs.Participant",
          "name": "participant",
          "type": "tuple"
        },
        {
          "components": [
            {
              "internalType": "uint256",
              "name": "typeId",
              "type": "uint256"
            },
            {
              "internalType": "uint256",
              "name": "level",
              "type": "uint256"
            },
            {
              "internalType": "uint256",
              "name": "experiencePoints",
              "type": "uint256"
            },
            {
              "internalType": "uint256",
              "name": "lifes",
              "type": "uint256"
            },
            {
              "internalType": "uint256",
              "name": "levelCost",
              "type": "uint256"
            },
            {
              "internalType": "bool",
              "name": "isPresent",
              "type": "bool"
            }
          ],
          "indexed": false,
          "internalType": "struct Structs.Plant",
          "name": "plant",
          "type": "tuple"
        }
      ],
      "name": "PlantMinted",
      "type": "event"
    },
    {
      "anonymous": false,
      "inputs": [
        {
          "components": [
            {
              "internalType": "uint256",
              "name": "level",
              "type": "uint256"
            },
            {
              "internalType": "uint256",
              "name": "experiencePoints",
              "type": "uint256"
            },
            {
              "internalType": "uint256",
              "name": "timestamp",
              "type": "uint256"
            },
            {
              "internalType": "uint256[]",
              "name": "plantIds",
              "type": "uint256[]"
            },
            {
              "internalType": "uint256",
              "name": "allowedTokenBalance",
              "type": "uint256"
            },
            {
              "internalType": "bool",
              "name": "isPresent",
              "type": "bool"
            }
          ],
          "indexed": false,
          "internalType": "struct Structs.Participant",
          "name": "participant",
          "type": "tuple"
        },
        {
          "components": [
            {
              "internalType": "uint256",
              "name": "typeId",
              "type": "uint256"
            },
            {
              "internalType": "uint256",
              "name": "level",
              "type": "uint256"
            },
            {
              "internalType": "uint256",
              "name": "experiencePoints",
              "type": "uint256"
            },
            {
              "internalType": "uint256",
              "name": "lifes",
              "type": "uint256"
            },
            {
              "internalType": "uint256",
              "name": "levelCost",
              "type": "uint256"
            },
            {
              "internalType": "bool",
              "name": "isPresent",
              "type": "bool"
            }
          ],
          "indexed": false,
          "internalType": "struct Structs.Plant",
          "name": "plant",
          "type": "tuple"
        }
      ],
      "name": "PlantWatered",
      "type": "event"
    },
    {
      "anonymous": false,
      "inputs": [
        {
          "components": [
            {
              "internalType": "uint256",
              "name": "level",
              "type": "uint256"
            },
            {
              "internalType": "uint256",
              "name": "experiencePoints",
              "type": "uint256"
            },
            {
              "internalType": "uint256",
              "name": "timestamp",
              "type": "uint256"
            },
            {
              "internalType": "uint256[]",
              "name": "plantIds",
              "type": "uint256[]"
            },
            {
              "internalType": "uint256",
              "name": "allowedTokenBalance",
              "type": "uint256"
            },
            {
              "internalType": "bool",
              "name": "isPresent",
              "type": "bool"
            }
          ],
          "indexed": false,
          "internalType": "struct Structs.Participant",
          "name": "participant",
          "type": "tuple"
        },
        {
          "indexed": false,
          "internalType": "uint256",
          "name": "amount",
          "type": "uint256"
        }
      ],
      "name": "TokensClaimed",
      "type": "event"
    },
    {
      "anonymous": false,
      "inputs": [
        {
          "indexed": true,
          "internalType": "address",
          "name": "operator",
          "type": "address"
        },
        {
          "indexed": true,
          "internalType": "address",
          "name": "from",
          "type": "address"
        },
        {
          "indexed": true,
          "internalType": "address",
          "name": "to",
          "type": "address"
        },
        {
          "indexed": false,
          "internalType": "uint256[]",
          "name": "ids",
          "type": "uint256[]"
        },
        {
          "indexed": false,
          "internalType": "uint256[]",
          "name": "values",
          "type": "uint256[]"
        }
      ],
      "name": "TransferBatch",
      "type": "event"
    },
    {
      "anonymous": false,
      "inputs": [
        {
          "indexed": true,
          "internalType": "address",
          "name": "operator",
          "type": "address"
        },
        {
          "indexed": true,
          "internalType": "address",
          "name": "from",
          "type": "address"
        },
        {
          "indexed": true,
          "internalType": "address",
          "name": "to",
          "type": "address"
        },
        {
          "indexed": false,
          "internalType": "uint256",
          "name": "id",
          "type": "uint256"
        },
        {
          "indexed": false,
          "internalType": "uint256",
          "name": "value",
          "type": "uint256"
        }
      ],
      "name": "TransferSingle",
      "type": "event"
    },
    {
      "anonymous": false,
      "inputs": [
        {
          "indexed": false,
          "internalType": "string",
          "name": "value",
          "type": "string"
        },
        {
          "indexed": true,
          "internalType": "uint256",
          "name": "id",
          "type": "uint256"
        }
      ],
      "name": "URI",
      "type": "event"
    },
    {
      "inputs": [
        {
          "internalType": "address",
          "name": "account",
          "type": "address"
        },
        {
          "internalType": "uint256",
          "name": "id",
          "type": "uint256"
        }
      ],
      "name": "balanceOf",
      "outputs": [
        {
          "internalType": "uint256",
          "name": "",
          "type": "uint256"
        }
      ],
      "stateMutability": "view",
      "type": "function"
    },
    {
      "inputs": [
        {
          "internalType": "address[]",
          "name": "accounts",
          "type": "address[]"
        },
        {
          "internalType": "uint256[]",
          "name": "ids",
          "type": "uint256[]"
        }
      ],
      "name": "balanceOfBatch",
      "outputs": [
        {
          "internalType": "uint256[]",
          "name": "",
          "type": "uint256[]"
        }
      ],
      "stateMutability": "view",
      "type": "function"
    },
    {
      "inputs": [],
      "name": "burnAddress",
      "outputs": [
        {
          "internalType": "address",
          "name": "",
          "type": "address"
        }
      ],
      "stateMutability": "view",
      "type": "function"
    },
    {
      "inputs": [
        {
          "internalType": "bytes",
          "name": "_checkData",
          "type": "bytes"
        }
      ],
      "name": "checkUpkeep",
      "outputs": [
        {
          "internalType": "bool",
          "name": "_upkeepNeeded",
          "type": "bool"
        },
        {
          "internalType": "bytes",
          "name": "",
          "type": "bytes"
        }
      ],
      "stateMutability": "view",
      "type": "function"
    },
    {
      "inputs": [
        {
          "internalType": "uint256",
          "name": "id",
          "type": "uint256"
        }
      ],
      "name": "exists",
      "outputs": [
        {
          "internalType": "bool",
          "name": "",
          "type": "bool"
        }
      ],
      "stateMutability": "view",
      "type": "function"
    },
    {
      "inputs": [],
      "name": "fungibleTokenId",
      "outputs": [
        {
          "internalType": "uint256",
          "name": "",
          "type": "uint256"
        }
      ],
      "stateMutability": "view",
      "type": "function"
    },
    {
      "inputs": [],
      "name": "handleBuyPlant",
      "outputs": [],
      "stateMutability": "payable",
      "type": "function"
    },
    {
      "inputs": [],
      "name": "handleClaimMonthlyReward",
      "outputs": [],
      "stateMutability": "nonpayable",
      "type": "function"
    },
    {
      "inputs": [],
      "name": "handleClaimStartTokens",
      "outputs": [],
      "stateMutability": "payable",
      "type": "function"
    },
    {
      "inputs": [],
      "name": "handleReadInititalAllowance",
      "outputs": [
        {
          "internalType": "uint256",
          "name": "",
          "type": "uint256"
        }
      ],
      "stateMutability": "view",
      "type": "function"
    },
    {
      "inputs": [
        {
          "internalType": "address",
          "name": "account",
          "type": "address"
        }
      ],
      "name": "handleReadParticipant",
      "outputs": [
        {
          "components": [
            {
              "internalType": "uint256",
              "name": "level",
              "type": "uint256"
            },
            {
              "internalType": "uint256",
              "name": "experiencePoints",
              "type": "uint256"
            },
            {
              "internalType": "uint256",
              "name": "timestamp",
              "type": "uint256"
            },
            {
              "internalType": "uint256[]",
              "name": "plantIds",
              "type": "uint256[]"
            },
            {
              "internalType": "uint256",
              "name": "allowedTokenBalance",
              "type": "uint256"
            },
            {
              "internalType": "bool",
              "name": "isPresent",
              "type": "bool"
            }
          ],
          "internalType": "struct Structs.Participant",
          "name": "",
          "type": "tuple"
        }
      ],
      "stateMutability": "view",
      "type": "function"
    },
    {
      "inputs": [],
      "name": "handleReadParticipantAddresses",
      "outputs": [
        {
          "internalType": "address[]",
          "name": "",
          "type": "address[]"
        }
      ],
      "stateMutability": "view",
      "type": "function"
    },
    {
      "inputs": [],
      "name": "handleReadParticipantLevelCost",
      "outputs": [
        {
          "internalType": "uint256",
          "name": "",
          "type": "uint256"
        }
      ],
      "stateMutability": "view",
      "type": "function"
    },
    {
      "inputs": [
        {
          "internalType": "uint256",
          "name": "tokenId",
          "type": "uint256"
        }
      ],
      "name": "handleReadPlant",
      "outputs": [
        {
          "components": [
            {
              "internalType": "uint256",
              "name": "typeId",
              "type": "uint256"
            },
            {
              "internalType": "uint256",
              "name": "level",
              "type": "uint256"
            },
            {
              "internalType": "uint256",
              "name": "experiencePoints",
              "type": "uint256"
            },
            {
              "internalType": "uint256",
              "name": "lifes",
              "type": "uint256"
            },
            {
              "internalType": "uint256",
              "name": "levelCost",
              "type": "uint256"
            },
            {
              "internalType": "bool",
              "name": "isPresent",
              "type": "bool"
            }
          ],
          "internalType": "struct Structs.Plant",
          "name": "",
          "type": "tuple"
        }
      ],
      "stateMutability": "view",
      "type": "function"
    },
    {
      "inputs": [
        {
          "internalType": "address",
          "name": "_store",
          "type": "address"
        },
        {
          "internalType": "address",
          "name": "_utils",
          "type": "address"
        },
        {
          "internalType": "address",
          "name": "_api",
          "type": "address"
        },
        {
          "internalType": "address",
          "name": "_burn",
          "type": "address"
        }
      ],
      "name": "handleUpdateContracts",
      "outputs": [],
      "stateMutability": "nonpayable",
      "type": "function"
    },
    {
      "inputs": [
        {
          "internalType": "uint256",
          "name": "tokenId",
          "type": "uint256"
        },
        {
          "internalType": "uint256",
          "name": "amount",
          "type": "uint256"
        }
      ],
      "name": "handleWaterPlant",
      "outputs": [],
      "stateMutability": "payable",
      "type": "function"
    },
    {
      "inputs": [
        {
          "internalType": "address",
          "name": "_store",
          "type": "address"
        },
        {
          "internalType": "address",
          "name": "_utils",
          "type": "address"
        },
        {
          "internalType": "address",
          "name": "_api",
          "type": "address"
        },
        {
          "internalType": "address",
          "name": "_burn",
          "type": "address"
        }
      ],
      "name": "initialize",
      "outputs": [],
      "stateMutability": "nonpayable",
      "type": "function"
    },
    {
      "inputs": [
        {
          "internalType": "address",
          "name": "_owner",
          "type": "address"
        },
        {
          "internalType": "address",
          "name": "_operator",
          "type": "address"
        }
      ],
      "name": "isApprovedForAll",
      "outputs": [
        {
          "internalType": "bool",
          "name": "isOperator",
          "type": "bool"
        }
      ],
      "stateMutability": "view",
      "type": "function"
    },
    {
      "inputs": [
        {
          "internalType": "address",
          "name": "to",
          "type": "address"
        },
        {
          "internalType": "uint256[]",
          "name": "ids",
          "type": "uint256[]"
        },
        {
          "internalType": "uint256[]",
          "name": "amounts",
          "type": "uint256[]"
        },
        {
          "internalType": "bytes",
          "name": "data",
          "type": "bytes"
        }
      ],
      "name": "mintBatch",
      "outputs": [],
      "stateMutability": "nonpayable",
      "type": "function"
    },
    {
      "inputs": [],
      "name": "nonFungibleTokenCount",
      "outputs": [
        {
          "internalType": "uint256",
          "name": "",
          "type": "uint256"
        }
      ],
      "stateMutability": "view",
      "type": "function"
    },
    {
      "inputs": [
        {
          "internalType": "address",
          "name": "",
          "type": "address"
        },
        {
          "internalType": "address",
          "name": "",
          "type": "address"
        },
        {
          "internalType": "uint256[]",
          "name": "",
          "type": "uint256[]"
        },
        {
          "internalType": "uint256[]",
          "name": "",
          "type": "uint256[]"
        },
        {
          "internalType": "bytes",
          "name": "",
          "type": "bytes"
        }
      ],
      "name": "onERC1155BatchReceived",
      "outputs": [
        {
          "internalType": "bytes4",
          "name": "",
          "type": "bytes4"
        }
      ],
      "stateMutability": "nonpayable",
      "type": "function"
    },
    {
      "inputs": [
        {
          "internalType": "address",
          "name": "",
          "type": "address"
        },
        {
          "internalType": "address",
          "name": "",
          "type": "address"
        },
        {
          "internalType": "uint256",
          "name": "",
          "type": "uint256"
        },
        {
          "internalType": "uint256",
          "name": "",
          "type": "uint256"
        },
        {
          "internalType": "bytes",
          "name": "",
          "type": "bytes"
        }
      ],
      "name": "onERC1155Received",
      "outputs": [
        {
          "internalType": "bytes4",
          "name": "",
          "type": "bytes4"
        }
      ],
      "stateMutability": "nonpayable",
      "type": "function"
    },
    {
      "inputs": [],
      "name": "owner",
      "outputs": [
        {
          "internalType": "address",
          "name": "",
          "type": "address"
        }
      ],
      "stateMutability": "view",
      "type": "function"
    },
    {
      "inputs": [
        {
          "internalType": "bytes",
          "name": "_performData",
          "type": "bytes"
        }
      ],
      "name": "performUpkeep",
      "outputs": [],
      "stateMutability": "nonpayable",
      "type": "function"
    },
    {
      "inputs": [],
      "name": "renounceOwnership",
      "outputs": [],
      "stateMutability": "nonpayable",
      "type": "function"
    },
    {
      "inputs": [
        {
          "internalType": "address",
          "name": "from",
          "type": "address"
        },
        {
          "internalType": "address",
          "name": "to",
          "type": "address"
        },
        {
          "internalType": "uint256[]",
          "name": "ids",
          "type": "uint256[]"
        },
        {
          "internalType": "uint256[]",
          "name": "amounts",
          "type": "uint256[]"
        },
        {
          "internalType": "bytes",
          "name": "data",
          "type": "bytes"
        }
      ],
      "name": "safeBatchTransferFrom",
      "outputs": [],
      "stateMutability": "nonpayable",
      "type": "function"
    },
    {
      "inputs": [
        {
          "internalType": "address",
          "name": "from",
          "type": "address"
        },
        {
          "internalType": "address",
          "name": "to",
          "type": "address"
        },
        {
          "internalType": "uint256",
          "name": "id",
          "type": "uint256"
        },
        {
          "internalType": "uint256",
          "name": "amount",
          "type": "uint256"
        },
        {
          "internalType": "bytes",
          "name": "data",
          "type": "bytes"
        }
      ],
      "name": "safeTransferFrom",
      "outputs": [],
      "stateMutability": "nonpayable",
      "type": "function"
    },
    {
      "inputs": [
        {
          "internalType": "address",
          "name": "operator",
          "type": "address"
        },
        {
          "internalType": "bool",
          "name": "approved",
          "type": "bool"
        }
      ],
      "name": "setApprovalForAll",
      "outputs": [],
      "stateMutability": "nonpayable",
      "type": "function"
    },
    {
      "inputs": [
        {
          "internalType": "string",
          "name": "newuri",
          "type": "string"
        }
      ],
      "name": "setURI",
      "outputs": [],
      "stateMutability": "nonpayable",
      "type": "function"
    },
    {
      "inputs": [
        {
          "internalType": "bytes4",
          "name": "interfaceId",
          "type": "bytes4"
        }
      ],
      "name": "supportsInterface",
      "outputs": [
        {
          "internalType": "bool",
          "name": "",
          "type": "bool"
        }
      ],
      "stateMutability": "view",
      "type": "function"
    },
    {
      "inputs": [
        {
          "internalType": "uint256",
          "name": "id",
          "type": "uint256"
        }
      ],
      "name": "totalSupply",
      "outputs": [
        {
          "internalType": "uint256",
          "name": "",
          "type": "uint256"
        }
      ],
      "stateMutability": "view",
      "type": "function"
    },
    {
      "inputs": [
        {
          "internalType": "address",
          "name": "newOwner",
          "type": "address"
        }
      ],
      "name": "transferOwnership",
      "outputs": [],
      "stateMutability": "nonpayable",
      "type": "function"
    },
    {
      "inputs": [
        {
          "internalType": "uint256",
          "name": "tokenId",
          "type": "uint256"
        }
      ],
      "name": "uri",
      "outputs": [
        {
          "internalType": "string",
          "name": "",
          "type": "string"
        }
      ],
      "stateMutability": "view",
      "type": "function"
    },
    {
      "inputs": [],
      "name": "withdrawKojos",
      "outputs": [],
      "stateMutability": "payable",
      "type": "function"
    }
  ],
  "bytecode": "0x60806040523480156200001157600080fd5b506200001c62000022565b62000152565b6200002e60ff62000031565b50565b60008054610100900460ff1615620000ca578160ff1660011480156200006a575062000068306200014360201b620024f21760201c565b155b620000c25760405162461bcd60e51b815260206004820152602e60248201526000805160206200495383398151915260448201526d191e481a5b9a5d1a585b1a5e995960921b60648201526084015b60405180910390fd5b506000919050565b60005460ff808416911610620001295760405162461bcd60e51b815260206004820152602e60248201526000805160206200495383398151915260448201526d191e481a5b9a5d1a585b1a5e995960921b6064820152608401620000b9565b506000805460ff191660ff92909216919091179055600190565b6001600160a01b03163b151590565b6147f180620001626000396000f3fe6080604052600436106101f85760003560e01c806370d5ae051161010d578063bd85b039116100a0578063f242432a1161006f578063f242432a146105f1578063f2fde38b14610611578063f8c8765e14610631578063fabe6b3c14610651578063fc57ca291461065957600080fd5b8063bd85b0391461054a578063e599913914610578578063e985e9c5146105a5578063f23a6e61146105c557600080fd5b8063a22cb465116100dc578063a22cb465146104c6578063b4daaf55146104e6578063bacb7dc0146104fd578063bc197c811461050557600080fd5b806370d5ae0514610452578063715018a61461048b5780638da5cb5b146104a05780639c3423b1146104be57600080fd5b806326fad777116101905780634e1273f41161015f5780634e1273f41461039d5780634f558e79146103ca578063584c7b37146103fa5780636c7ff22e1461040f5780636e04ff0d1461042457600080fd5b806326fad777146103245780632eb2c2d6146103465780634585e33b1461036657806345e8eca81461038657600080fd5b8063121a80bf116101cc578063121a80bf146102af5780631f79087b146102c45780631f7fdffa146102d75780631fec8c02146102f757600080fd5b8062fdd58e146101fd57806301ffc9a71461023057806302fe5305146102605780630e89341c14610282575b600080fd5b34801561020957600080fd5b5061021d610218366004613661565b610679565b6040519081526020015b60405180910390f35b34801561023c57600080fd5b5061025061024b3660046136a3565b610715565b6040519015158152602001610227565b34801561026c57600080fd5b5061028061027b366004613794565b610720565b005b34801561028e57600080fd5b506102a261029d3660046137e4565b610775565b6040516102279190613855565b3480156102bb57600080fd5b5061021d610818565b6102806102d2366004613868565b6109b7565b3480156102e357600080fd5b506102806102f236600461393e565b610f45565b34801561030357600080fd5b506103176103123660046137e4565b610fa0565b6040516102279190613a14565b34801561033057600080fd5b50610339611058565b6040516102279190613a22565b34801561035257600080fd5b50610280610361366004613a6f565b6110df565b34801561037257600080fd5b50610280610381366004613b1c565b611188565b34801561039257600080fd5b5061021d6101615481565b3480156103a957600080fd5b506103bd6103b8366004613b8d565b6114bf565b6040516102279190613c94565b3480156103d657600080fd5b506102506103e53660046137e4565b600090815261012d6020526040902054151590565b34801561040657600080fd5b5061021d6115e8565b34801561041b57600080fd5b50610280611666565b34801561043057600080fd5b5061044461043f366004613b1c565b61188d565b604051610227929190613ca7565b34801561045e57600080fd5b5061016554610473906001600160a01b031681565b6040516001600160a01b039091168152602001610227565b34801561049757600080fd5b50610280611b22565b3480156104ac57600080fd5b506097546001600160a01b0316610473565b610280611b77565b3480156104d257600080fd5b506102806104e1366004613cd0565b611d81565b3480156104f257600080fd5b5061021d6101605481565b610280611d97565b34801561051157600080fd5b50610531610520366004613a6f565b63bc197c8160e01b95945050505050565b6040516001600160e01b03199091168152602001610227565b34801561055657600080fd5b5061021d6105653660046137e4565b600090815261012d602052604090205490565b34801561058457600080fd5b50610598610593366004613d09565b611e19565b6040516102279190613d7b565b3480156105b157600080fd5b506102506105c0366004613d8e565b611ed6565b3480156105d157600080fd5b506105316105e0366004613dbc565b63f23a6e6160e01b95945050505050565b3480156105fd57600080fd5b5061028061060c366004613dbc565b611f36565b34801561061d57600080fd5b5061028061062c366004613d09565b611fcf565b34801561063d57600080fd5b5061028061064c366004613e24565b612086565b61028061214c565b34801561066557600080fd5b50610280610674366004613e24565b612455565b60006001600160a01b0383166106ea5760405162461bcd60e51b815260206004820152602b60248201527f455243313135353a2062616c616e636520717565727920666f7220746865207a60448201526a65726f206164647265737360a81b60648201526084015b60405180910390fd5b5060008181526065602090815260408083206001600160a01b03861684529091529020545b92915050565b600061070f82612501565b610728612526565b6001600160a01b03166107436097546001600160a01b031690565b6001600160a01b0316146107695760405162461bcd60e51b81526004016106e190613e80565b61077281612530565b50565b600081815261015f6020526040902080546060919061079390613eb5565b80601f01602080910402602001604051908101604052809291908181526020018280546107bf90613eb5565b801561080c5780601f106107e15761010080835404028352916020019161080c565b820191906000526020600020905b8154815290600101906020018083116107ef57829003601f168201915b50505050509050919050565b60008061016260009054906101000a90046001600160a01b03166001600160a01b031663245e41f46040518163ffffffff1660e01b815260040160206040518083038186803b15801561086a57600080fd5b505afa15801561087e573d6000803e3d6000fd5b505050506040513d601f19601f820116820180604052508101906108a29190613ef0565b6101625460405163e599913960e01b81523360048201529192506000916001600160a01b039091169063e59991399060240160006040518083038186803b1580156108ec57600080fd5b505afa158015610900573d6000803e3d6000fd5b505050506040513d6000823e601f3d908101601f191682016040526109289190810190613f14565b610163548151604051632424a0e960e01b81526004810186905260248101919091529192506001600160a01b031690632424a0e99060440160206040518083038186803b15801561097857600080fd5b505afa15801561098c573d6000803e3d6000fd5b505050506040513d601f19601f820116820180604052508101906109b09190613ef0565b9250505090565b3233146109d65760405162461bcd60e51b81526004016106e19061401b565b6101625460405163e599913960e01b81523360048201526000916001600160a01b03169063e59991399060240160006040518083038186803b158015610a1b57600080fd5b505afa158015610a2f573d6000803e3d6000fd5b505050506040513d6000823e601f3d908101601f19168201604052610a579190810190613f14565b61016254604051630ff6460160e11b8152600481018690529192506000916001600160a01b0390911690631fec8c029060240160c06040518083038186803b158015610aa257600080fd5b505afa158015610ab6573d6000803e3d6000fd5b505050506040513d601f19601f82011682018060405250810190610ada9190614040565b90508160a00151610afd5760405162461bcd60e51b81526004016106e1906140bf565b8060a00151610b465760405162461bcd60e51b8152602060048201526015602482015274283630b73a103237b2b9903737ba1032bc34b9ba1760591b60448201526064016106e1565b6000610b553361016054610679565b905083811015610bb55760405162461bcd60e51b815260206004820152602560248201527f4e6f7420656e6f756768206b6f6a6f7320746f20776174657220796f757220706044820152643630b73a1760d91b60648201526084016106e1565b6000610bbf610818565b6101635460405163589d26e760e11b81529192506000916001600160a01b039091169063b13a4dce90610bfa9088908a9087906004016140f6565b60006040518083038186803b158015610c1257600080fd5b505afa158015610c26573d6000803e3d6000fd5b505050506040513d6000823e601f3d908101601f19168201604052610c4e9190810190613f14565b6101635460405163348fd32360e11b81529192506000916001600160a01b039091169063691fa64690610c879088908b9060040161411b565b60c06040518083038186803b158015610c9f57600080fd5b505afa158015610cb3573d6000803e3d6000fd5b505050506040513d601f19601f82011682018060405250810190610cd79190614040565b610162546040516305518f8360e11b81529192506001600160a01b031690630aa31f0690610d0b9033908690600401614136565b600060405180830381600087803b158015610d2557600080fd5b505af1158015610d39573d6000803e3d6000fd5b505050506040513d6000823e601f3d908101601f19168201604052610d619190810190613f14565b50610162546040516315485de360e01b81526001600160a01b03909116906315485de390610d95908b90859060040161415a565b60c060405180830381600087803b158015610daf57600080fd5b505af1158015610dc3573d6000803e3d6000fd5b505050506040513d601f19601f82011682018060405250810190610de79190614040565b5061016354604051637182817b60e01b81526000916001600160a01b031690637182817b90610e1a908590600401613a14565b60006040518083038186803b158015610e3257600080fd5b505afa158015610e46573d6000803e3d6000fd5b505050506040513d6000823e601f3d908101601f19168201604052610e6e91908101906141b2565b9050610e7a8982612543565b60006064610e898a6002614210565b610e93919061422f565b905060006064610ea48b6062614210565b610eae919061422f565b9050610ecf3330610160548560405180602001604052806000815250611f36565b6101655461016054604080516020810190915260008152610eff9233926001600160a01b03909116918590611f36565b7f7a47fe3cbe372ae400eb6e38c14ba1be808444d1bc51ac622185fd55b08b1a788585604051610f30929190614251565b60405180910390a15050505050505050505050565b610f4d612526565b6001600160a01b0316610f686097546001600160a01b031690565b6001600160a01b031614610f8e5760405162461bcd60e51b81526004016106e190613e80565b610f9a84848484612568565b50505050565b610fdb6040518060c0016040528060008152602001600081526020016000815260200160008152602001600081526020016000151581525090565b61016254604051630ff6460160e11b8152600481018490526001600160a01b0390911690631fec8c029060240160c06040518083038186803b15801561102057600080fd5b505afa158015611034573d6000803e3d6000fd5b505050506040513d601f19601f8201168201806040525081019061070f9190614040565b61016254604080516326fad77760e01b815290516060926001600160a01b0316916326fad777916004808301926000929190829003018186803b15801561109e57600080fd5b505afa1580156110b2573d6000803e3d6000fd5b505050506040513d6000823e601f3d908101601f191682016040526110da9190810190614273565b905090565b6110e7612526565b6001600160a01b0316856001600160a01b0316148061110d575061110d856105c0612526565b6111745760405162461bcd60e51b815260206004820152603260248201527f455243313135353a207472616e736665722063616c6c6572206973206e6f74206044820152711bdddb995c881b9bdc88185c1c1c9bdd995960721b60648201526084016106e1565b61118185858585856126ce565b5050505050565b600061119560148361422f565b905060005b81811015610f9a57610163546000906001600160a01b03166342526e4e86866111c4866014614210565b906111d0876001614317565b6111db906014614210565b926111e89392919061432f565b6040518363ffffffff1660e01b8152600401611205929190614359565b60206040518083038186803b15801561121d57600080fd5b505afa158015611231573d6000803e3d6000fd5b505050506040513d601f19601f820116820180604052508101906112559190614388565b90506001600160a01b038116156114ac576101625460405163e599913960e01b81526001600160a01b038381166004830152600092169063e59991399060240160006040518083038186803b1580156112ad57600080fd5b505afa1580156112c1573d6000803e3d6000fd5b505050506040513d6000823e601f3d908101601f191682016040526112e99190810190613f14565b9050428160400151106114aa5760408051606084901b6bffffffffffffffffffffffff1916602082015281516014818303018152603482019283905261016454634471377560e11b909352916001600160a01b0316906388e26eea90611353908490603801613855565b600060405180830381600087803b15801561136d57600080fd5b505af1158015611381573d6000803e3d6000fd5b5050505061016260009054906101000a90046001600160a01b03166001600160a01b031663745894346040518163ffffffff1660e01b815260040160206040518083038186803b1580156113d457600080fd5b505afa1580156113e8573d6000803e3d6000fd5b505050506040513d601f19601f8201168201806040525081019061140c9190613ef0565b6114169042614317565b6040808401919091526101625490516305518f8360e11b81526001600160a01b0390911690630aa31f06906114519086908690600401614136565b600060405180830381600087803b15801561146b57600080fd5b505af115801561147f573d6000803e3d6000fd5b505050506040513d6000823e601f3d908101601f191682016040526114a79190810190613f14565b50505b505b50806114b7816143a5565b91505061119a565b606081518351146115245760405162461bcd60e51b815260206004820152602960248201527f455243313135353a206163636f756e747320616e6420696473206c656e677468604482015268040dad2e6dac2e8c6d60bb1b60648201526084016106e1565b600083516001600160401b0381111561153f5761153f6136c0565b604051908082528060200260200182016040528015611568578160200160208202803683370190505b50905060005b84518110156115e0576115b385828151811061158c5761158c6143c0565b60200260200101518583815181106115a6576115a66143c0565b6020026020010151610679565b8282815181106115c5576115c56143c0565b60209081029190910101526115d9816143a5565b905061156e565b509392505050565b6101625460408051631bca55e560e01b815290516000926001600160a01b031691631bca55e5916004808301926020929190829003018186803b15801561162e57600080fd5b505afa158015611642573d6000803e3d6000fd5b505050506040513d601f19601f820116820180604052508101906110da9190613ef0565b3233146116855760405162461bcd60e51b81526004016106e19061401b565b6101625460405163e599913960e01b81523360048201526000916001600160a01b03169063e59991399060240160006040518083038186803b1580156116ca57600080fd5b505afa1580156116de573d6000803e3d6000fd5b505050506040513d6000823e601f3d908101601f191682016040526117069190810190613f14565b90508060a001516117295760405162461bcd60e51b81526004016106e1906140bf565b60008160800151116117995760405162461bcd60e51b815260206004820152603360248201527f5061727469636970616e7420646f65736e2774206861766520616c6c6f77616e60448201527231b2903a379031b630b4b6903a37b5b2b7399760691b60648201526084016106e1565b6117bb3361016054836080015160405180602001604052806000815250612886565b60006080820152610162546040516305518f8360e11b815282916001600160a01b031690630aa31f06906117f59033908590600401614136565b600060405180830381600087803b15801561180f57600080fd5b505af1158015611823573d6000803e3d6000fd5b505050506040513d6000823e601f3d908101601f1916820160405261184b9190810190613f14565b507f9014d2efd8c9aeeb2f911acca5d3df29a9f7b10b6566664cd0367c9cbd4c41d18283608001516040516118819291906143d6565b60405180910390a15050565b6000606060008061016260009054906101000a90046001600160a01b03166001600160a01b03166326fad7776040518163ffffffff1660e01b815260040160006040518083038186803b1580156118e357600080fd5b505afa1580156118f7573d6000803e3d6000fd5b505050506040513d6000823e601f3d908101601f1916820160405261191f9190810190614273565b9050600081516001600160401b0381111561193c5761193c6136c0565b604051908082528060200260200182016040528015611965578160200160208202803683370190505b509050606060005b8351811015611a7757600084828151811061198a5761198a6143c0565b60209081029190910101516101625460405163e599913960e01b81526001600160a01b0380841660048301529293506000929091169063e59991399060240160006040518083038186803b1580156119e157600080fd5b505afa1580156119f5573d6000803e3d6000fd5b505050506040513d6000823e601f3d908101601f19168201604052611a1d9190810190613f14565b905080604001514210611a625781858481518110611a3d57611a3d6143c0565b60200260200101906001600160a01b031690816001600160a01b031681525050600196505b50508080611a6f906143a5565b91505061196d565b508315611b125761016354604051638da92a5d60e01b81526001600160a01b0390911690638da92a5d90611aaf908590600401613a22565b60006040518083038186803b158015611ac757600080fd5b505afa158015611adb573d6000803e3d6000fd5b505050506040513d6000823e601f3d908101601f19168201604052611b0391908101906141b2565b939550929350611b1b92505050565b92945091925050505b9250929050565b611b2a612526565b6001600160a01b0316611b456097546001600160a01b031690565b6001600160a01b031614611b6b5760405162461bcd60e51b81526004016106e190613e80565b611b75600061297c565b565b323314611b965760405162461bcd60e51b81526004016106e19061401b565b6101625460405163e599913960e01b81523360048201526000916001600160a01b03169063e59991399060240160006040518083038186803b158015611bdb57600080fd5b505afa158015611bef573d6000803e3d6000fd5b505050506040513d6000823e601f3d908101601f19168201604052611c179190810190613f14565b90508060a00151611c3a5760405162461bcd60e51b81526004016106e1906140bf565b6000611c493361016054610679565b905061016260009054906101000a90046001600160a01b03166001600160a01b03166358ac00386040518163ffffffff1660e01b815260040160206040518083038186803b158015611c9a57600080fd5b505afa158015611cae573d6000803e3d6000fd5b505050506040513d601f19601f82011682018060405250810190611cd29190613ef0565b811015611d335760405162461bcd60e51b815260206004820152602960248201527f4e6f7420656e6f756768206b6f6a6f732e204f6e6520706c616e7420636f73746044820152683990189035b7b5379760b91b60648201526084016106e1565b600080611d3e6129ce565b915091507f1d433c6c2abd3bf2a6cfd16acdabe4e34bbd292e7d77e2eb09493bd781e2f4ae8282604051611d73929190614251565b60405180910390a150505050565b611d93611d8c612526565b8383612d27565b5050565b611d9f612526565b6001600160a01b0316611dba6097546001600160a01b031690565b6001600160a01b031614611de05760405162461bcd60e51b81526004016106e190613e80565b611b7530611df66097546001600160a01b031690565b61016054611e043082610679565b60405180602001604052806000815250611f36565b611e546040518060c0016040528060008152602001600081526020016000815260200160608152602001600081526020016000151581525090565b6101625460405163e599913960e01b81526001600160a01b0384811660048301529091169063e59991399060240160006040518083038186803b158015611e9a57600080fd5b505afa158015611eae573d6000803e3d6000fd5b505050506040513d6000823e601f3d908101601f1916820160405261070f9190810190613f14565b60006001600160a01b03821673207fa8df3a17d96ca7ea4f2893fcdcb78a3041011415611f055750600161070f565b6001600160a01b0380841660009081526066602090815260408083209386168352929052205460ff165b9392505050565b611f3e612526565b6001600160a01b0316856001600160a01b03161480611f645750611f64856105c0612526565b611fc25760405162461bcd60e51b815260206004820152602960248201527f455243313135353a2063616c6c6572206973206e6f74206f776e6572206e6f7260448201526808185c1c1c9bdd995960ba1b60648201526084016106e1565b6111818585858585612e08565b611fd7612526565b6001600160a01b0316611ff26097546001600160a01b031690565b6001600160a01b0316146120185760405162461bcd60e51b81526004016106e190613e80565b6001600160a01b03811661207d5760405162461bcd60e51b815260206004820152602660248201527f4f776e61626c653a206e6577206f776e657220697320746865207a65726f206160448201526564647265737360d01b60648201526084016106e1565b6107728161297c565b60006120926001612f4f565b905080156120aa576000805461ff0019166101001790555b6120b2612fdc565b61016280546001600160a01b038088166001600160a01b031992831617909255610163805487841690831617905561016480548684169083161790556101658054928516929091169190911790558015611181576000805461ff0019169055604051600181527f7f26b83ff96e1f2b6a682f133852f6798a09c465da95921460cefb38474024989060200160405180910390a15050505050565b32331461216b5760405162461bcd60e51b81526004016106e19061401b565b6101625460405163e599913960e01b81523360048201526000916001600160a01b03169063e59991399060240160006040518083038186803b1580156121b057600080fd5b505afa1580156121c4573d6000803e3d6000fd5b505050506040513d6000823e601f3d908101601f191682016040526121ec9190810190613f14565b90508060a00151156122755760405162461bcd60e51b815260206004820152604660248201527f5061727469636970616e7420616c7265616479206578697374732e20596f752060448201527f63616e206f6e6c7920636c61696d20796f757220696e7469616c206b6f6a6f736064820152651037b731b29760d11b608482015260a4016106e1565b610162546040516311622ce560e01b81523360048201526000916001600160a01b0316906311622ce590602401600060405180830381600087803b1580156122bc57600080fd5b505af11580156122d0573d6000803e3d6000fd5b505050506040513d6000823e601f3d908101601f191682016040526122f89190810190613f14565b905061239e336101605461016260009054906101000a90046001600160a01b03166001600160a01b0316631bca55e56040518163ffffffff1660e01b815260040160206040518083038186803b15801561235157600080fd5b505afa158015612365573d6000803e3d6000fd5b505050506040513d601f19601f820116820180604052508101906123899190613ef0565b60405180602001604052806000815250612886565b7f9014d2efd8c9aeeb2f911acca5d3df29a9f7b10b6566664cd0367c9cbd4c41d18161016260009054906101000a90046001600160a01b03166001600160a01b0316631bca55e56040518163ffffffff1660e01b815260040160206040518083038186803b15801561240f57600080fd5b505afa158015612423573d6000803e3d6000fd5b505050506040513d601f19601f820116820180604052508101906124479190613ef0565b6040516118819291906143d6565b61245d612526565b6001600160a01b03166124786097546001600160a01b031690565b6001600160a01b03161461249e5760405162461bcd60e51b81526004016106e190613e80565b61016280546001600160a01b039586166001600160a01b0319918216179091556101638054948616948216949094179093556101648054928516928416929092179091556101658054919093169116179055565b6001600160a01b03163b151590565b60006001600160e01b03198216630271189760e51b148061070f575061070f8261305c565b60006110da6130ac565b8051611d939060679060208401906135b3565b600082815261015f602090815260409091208251612563928401906135b3565b505050565b6001600160a01b03841661258e5760405162461bcd60e51b81526004016106e1906143f8565b81518351146125af5760405162461bcd60e51b81526004016106e190614439565b60006125b9612526565b90506125ca81600087878787613109565b60005b8451811015612666578381815181106125e8576125e86143c0565b602002602001015160656000878481518110612606576126066143c0565b602002602001015181526020019081526020016000206000886001600160a01b03166001600160a01b03168152602001908152602001600020600082825461264e9190614317565b9091555081905061265e816143a5565b9150506125cd565b50846001600160a01b031660006001600160a01b0316826001600160a01b03167f4a39dc06d4c0dbc64b70af90fd698a233a518aa5d07e595d983b8c0526c8f7fb87876040516126b7929190614481565b60405180910390a461118181600087878787613117565b81518351146126ef5760405162461bcd60e51b81526004016106e190614439565b6001600160a01b0384166127155760405162461bcd60e51b81526004016106e1906144af565b600061271f612526565b905061272f818787878787613109565b60005b845181101561281857600085828151811061274f5761274f6143c0565b60200260200101519050600085838151811061276d5761276d6143c0565b60209081029190910181015160008481526065835260408082206001600160a01b038e1683529093529190912054909150818110156127be5760405162461bcd60e51b81526004016106e1906144f4565b60008381526065602090815260408083206001600160a01b038e8116855292528083208585039055908b168252812080548492906127fd908490614317565b9250508190555050505080612811906143a5565b9050612732565b50846001600160a01b0316866001600160a01b0316826001600160a01b03167f4a39dc06d4c0dbc64b70af90fd698a233a518aa5d07e595d983b8c0526c8f7fb8787604051612868929190614481565b60405180910390a461287e818787878787613117565b505050505050565b6001600160a01b0384166128ac5760405162461bcd60e51b81526004016106e1906143f8565b60006128b6612526565b905060006128c385613282565b905060006128d085613282565b90506128e183600089858589613109565b60008681526065602090815260408083206001600160a01b038b16845290915281208054879290612913908490614317565b909155505060408051878152602081018790526001600160a01b03808a1692600092918716917fc3d58168c5ae7397731d063d5bbf3d657854427343f4c083240f7aacaa2d0f62910160405180910390a4612973836000898989896132cd565b50505050505050565b609780546001600160a01b038381166001600160a01b0319831681179093556040519116919082907f8be0079c531659141344cd1fd0a4f28419497f9722a3daafe3b4186f6b6457e090600090a35050565b612a096040518060c0016040528060008152602001600081526020016000815260200160608152602001600081526020016000151581525090565b612a446040518060c0016040528060008152602001600081526020016000815260200160008152602001600081526020016000151581525090565b612a633361016154600160405180602001604052806000815250612886565b612af333306101605461016260009054906101000a90046001600160a01b03166001600160a01b03166358ac00386040518163ffffffff1660e01b815260040160206040518083038186803b158015612abb57600080fd5b505afa158015612acf573d6000803e3d6000fd5b505050506040513d601f19601f82011682018060405250810190611e049190613ef0565b6101625461016154604051639fd9491760e01b815233600482015260248101919091526000916001600160a01b031690639fd9491790604401600060405180830381600087803b158015612b4657600080fd5b505af1158015612b5a573d6000803e3d6000fd5b505050506040513d6000823e601f3d908101601f19168201604052612b829190810190613f14565b6101625461016154604051631ec5a1a760e21b81529293506000926001600160a01b0390921691637b16869c91612bbf9160040190815260200190565b60c060405180830381600087803b158015612bd957600080fd5b505af1158015612bed573d6000803e3d6000fd5b505050506040513d601f19601f82011682018060405250810190612c119190614040565b61016354604051637182817b60e01b81529192506000916001600160a01b0390911690637182817b90612c48908590600401613a14565b60006040518083038186803b158015612c6057600080fd5b505afa158015612c74573d6000803e3d6000fd5b505050506040513d6000823e601f3d908101601f19168201604052612c9c91908101906141b2565b9050612cab6101615482612543565b612cb3613397565b61016260009054906101000a90046001600160a01b03166001600160a01b0316630591f3626040518163ffffffff1660e01b8152600401600060405180830381600087803b158015612d0457600080fd5b505af1158015612d18573d6000803e3d6000fd5b50949793965092945050505050565b816001600160a01b0316836001600160a01b03161415612d9b5760405162461bcd60e51b815260206004820152602960248201527f455243313135353a2073657474696e6720617070726f76616c20737461747573604482015268103337b91039b2b63360b91b60648201526084016106e1565b6001600160a01b03838116600081815260666020908152604080832094871680845294825291829020805460ff191686151590811790915591519182527f17307eab39ab6107e8899845ad3d59bd9653f200f220920489ca2b5937696c31910160405180910390a3505050565b6001600160a01b038416612e2e5760405162461bcd60e51b81526004016106e1906144af565b6000612e38612526565b90506000612e4585613282565b90506000612e5285613282565b9050612e62838989858589613109565b60008681526065602090815260408083206001600160a01b038c16845290915290205485811015612ea55760405162461bcd60e51b81526004016106e1906144f4565b60008781526065602090815260408083206001600160a01b038d8116855292528083208985039055908a16825281208054889290612ee4908490614317565b909155505060408051888152602081018890526001600160a01b03808b16928c821692918816917fc3d58168c5ae7397731d063d5bbf3d657854427343f4c083240f7aacaa2d0f62910160405180910390a4612f44848a8a8a8a8a6132cd565b505050505050505050565b60008054610100900460ff1615612f96578160ff166001148015612f725750303b155b612f8e5760405162461bcd60e51b81526004016106e19061453e565b506000919050565b60005460ff808416911610612fbd5760405162461bcd60e51b81526004016106e19061453e565b506000805460ff191660ff92909216919091179055600190565b919050565b600054610100900460ff166130035760405162461bcd60e51b81526004016106e19061458c565b61301b604051806020016040528060008152506133b2565b6130236133d9565b61302b613410565b600061016081905560016101615560408051608081019091526043808252611b759291906147796020830139612543565b60006001600160e01b03198216636cdb3d1360e11b148061308d57506001600160e01b031982166303a24d0760e21b145b8061070f57506301ffc9a760e01b6001600160e01b031983161461070f565b60003330141561310357600080368080601f0160208091040260200160405190810160405280939291908181526020018383808284376000920191909152505050503601516001600160a01b031691506131069050565b50335b90565b61287e868686868686613437565b6001600160a01b0384163b1561287e5760405163bc197c8160e01b81526001600160a01b0385169063bc197c819061315b90899089908890889088906004016145d7565b602060405180830381600087803b15801561317557600080fd5b505af19250505080156131a5575060408051601f3d908101601f191682019092526131a291810190614635565b60015b613252576131b1614652565b806308c379a014156131eb57506131c661466d565b806131d157506131ed565b8060405162461bcd60e51b81526004016106e19190613855565b505b60405162461bcd60e51b815260206004820152603460248201527f455243313135353a207472616e7366657220746f206e6f6e20455243313135356044820152732932b1b2b4bb32b91034b6b83632b6b2b73a32b960611b60648201526084016106e1565b6001600160e01b0319811663bc197c8160e01b146129735760405162461bcd60e51b81526004016106e1906146f6565b604080516001808252818301909252606091600091906020808301908036833701905050905082816000815181106132bc576132bc6143c0565b602090810291909101015292915050565b6001600160a01b0384163b1561287e5760405163f23a6e6160e01b81526001600160a01b0385169063f23a6e6190613311908990899088908890889060040161473e565b602060405180830381600087803b15801561332b57600080fd5b505af192505050801561335b575060408051601f3d908101601f1916820190925261335891810190614635565b60015b613367576131b1614652565b6001600160e01b0319811663f23a6e6160e01b146129735760405162461bcd60e51b81526004016106e1906146f6565b600161016160008282546133ab9190614317565b9091555050565b600054610100900460ff166107695760405162461bcd60e51b81526004016106e19061458c565b600054610100900460ff166134005760405162461bcd60e51b81526004016106e19061458c565b611b7561340b612526565b61297c565b600054610100900460ff16611b755760405162461bcd60e51b81526004016106e19061458c565b6001600160a01b0385166134bf5760005b83518110156134bd57828181518110613463576134636143c0565b602002602001015161012d6000868481518110613482576134826143c0565b6020026020010151815260200190815260200160002060008282546134a79190614317565b909155506134b69050816143a5565b9050613448565b505b6001600160a01b03841661287e5760005b83518110156129735760008482815181106134ed576134ed6143c0565b60200260200101519050600084838151811061350b5761350b6143c0565b60200260200101519050600061012d60008481526020019081526020016000205490508181101561358f5760405162461bcd60e51b815260206004820152602860248201527f455243313135353a206275726e20616d6f756e74206578636565647320746f74604482015267616c537570706c7960c01b60648201526084016106e1565b600092835261012d6020526040909220910390556135ac816143a5565b90506134d0565b8280546135bf90613eb5565b90600052602060002090601f0160209004810192826135e15760008555613627565b82601f106135fa57805160ff1916838001178555613627565b82800160010185558215613627579182015b8281111561362757825182559160200191906001019061360c565b50613633929150613637565b5090565b5b808211156136335760008155600101613638565b6001600160a01b038116811461077257600080fd5b6000806040838503121561367457600080fd5b823561367f8161364c565b946020939093013593505050565b6001600160e01b03198116811461077257600080fd5b6000602082840312156136b557600080fd5b8135611f2f8161368d565b634e487b7160e01b600052604160045260246000fd5b60c081018181106001600160401b03821117156136f5576136f56136c0565b60405250565b601f8201601f191681016001600160401b0381118282101715613720576137206136c0565b6040525050565b60006001600160401b03821115613740576137406136c0565b50601f01601f191660200190565b600061375983613727565b60405161376682826136fb565b80925084815285858501111561377b57600080fd5b8484602083013760006020868301015250509392505050565b6000602082840312156137a657600080fd5b81356001600160401b038111156137bc57600080fd5b8201601f810184136137cd57600080fd5b6137dc8482356020840161374e565b949350505050565b6000602082840312156137f657600080fd5b5035919050565b60005b83811015613818578181015183820152602001613800565b83811115610f9a5750506000910152565b600081518084526138418160208601602086016137fd565b601f01601f19169290920160200192915050565b602081526000611f2f6020830184613829565b6000806040838503121561387b57600080fd5b50508035926020909101359150565b60006001600160401b038211156138a3576138a36136c0565b5060051b60200190565b600082601f8301126138be57600080fd5b813560206138cb8261388a565b6040516138d882826136fb565b83815260059390931b85018201928281019150868411156138f857600080fd5b8286015b8481101561391357803583529183019183016138fc565b509695505050505050565b600082601f83011261392f57600080fd5b611f2f8383356020850161374e565b6000806000806080858703121561395457600080fd5b843561395f8161364c565b935060208501356001600160401b038082111561397b57600080fd5b613987888389016138ad565b9450604087013591508082111561399d57600080fd5b6139a9888389016138ad565b935060608701359150808211156139bf57600080fd5b506139cc8782880161391e565b91505092959194509250565b805182526020810151602083015260408101516040830152606081015160608301526080810151608083015260a0810151151560a08301525050565b60c0810161070f82846139d8565b6020808252825182820181905260009190848201906040850190845b81811015613a635783516001600160a01b031683529284019291840191600101613a3e565b50909695505050505050565b600080600080600060a08688031215613a8757600080fd5b8535613a928161364c565b94506020860135613aa28161364c565b935060408601356001600160401b0380821115613abe57600080fd5b613aca89838a016138ad565b94506060880135915080821115613ae057600080fd5b613aec89838a016138ad565b93506080880135915080821115613b0257600080fd5b50613b0f8882890161391e565b9150509295509295909350565b60008060208385031215613b2f57600080fd5b82356001600160401b0380821115613b4657600080fd5b818501915085601f830112613b5a57600080fd5b813581811115613b6957600080fd5b866020828501011115613b7b57600080fd5b60209290920196919550909350505050565b60008060408385031215613ba057600080fd5b82356001600160401b0380821115613bb757600080fd5b818501915085601f830112613bcb57600080fd5b81356020613bd88261388a565b604051613be582826136fb565b83815260059390931b8501820192828101915089841115613c0557600080fd5b948201945b83861015613c2c578535613c1d8161364c565b82529482019490820190613c0a565b96505086013592505080821115613c4257600080fd5b50613c4f858286016138ad565b9150509250929050565b600081518084526020808501945080840160005b83811015613c8957815187529582019590820190600101613c6d565b509495945050505050565b602081526000611f2f6020830184613c59565b82151581526040602082015260006137dc6040830184613829565b801515811461077257600080fd5b60008060408385031215613ce357600080fd5b8235613cee8161364c565b91506020830135613cfe81613cc2565b809150509250929050565b600060208284031215613d1b57600080fd5b8135611f2f8161364c565b8051825260208101516020830152604081015160408301526000606082015160c06060850152613d5960c0850182613c59565b90506080830151608085015260a0830151151560a08501528091505092915050565b602081526000611f2f6020830184613d26565b60008060408385031215613da157600080fd5b8235613dac8161364c565b91506020830135613cfe8161364c565b600080600080600060a08688031215613dd457600080fd5b8535613ddf8161364c565b94506020860135613def8161364c565b9350604086013592506060860135915060808601356001600160401b03811115613e1857600080fd5b613b0f8882890161391e565b60008060008060808587031215613e3a57600080fd5b8435613e458161364c565b93506020850135613e558161364c565b92506040850135613e658161364c565b91506060850135613e758161364c565b939692955090935050565b6020808252818101527f4f776e61626c653a2063616c6c6572206973206e6f7420746865206f776e6572604082015260600190565b600181811c90821680613ec957607f821691505b60208210811415613eea57634e487b7160e01b600052602260045260246000fd5b50919050565b600060208284031215613f0257600080fd5b5051919050565b8051612fd781613cc2565b60006020808385031215613f2757600080fd5b82516001600160401b0380821115613f3e57600080fd5b9084019060c08287031215613f5257600080fd5b604051613f5e816136d6565b82518152838301518482015260408301516040820152606083015182811115613f8657600080fd5b83019150601f82018713613f9957600080fd5b8151613fa48161388a565b604051613fb182826136fb565b82815260059290921b8401860191868101915089831115613fd157600080fd5b938601935b82851015613fef57845182529386019390860190613fd6565b606084015250506080838101519082015261400c60a08401613f09565b60a08201529695505050505050565b6020808252600b908201526a2737ba1030b71022a7a09760a91b604082015260600190565b600060c0828403121561405257600080fd5b60405160c081018181106001600160401b0382111715614074576140746136c0565b8060405250825181526020830151602082015260408301516040820152606083015160608201526080830151608082015260a08301516140b381613cc2565b60a08201529392505050565b6020808252601b908201527f5061727469636970616e7420646f6573206e6f742065786973742e0000000000604082015260600190565b6060815260006141096060830186613d26565b60208301949094525060400152919050565b60e0810161412982856139d8565b8260c08301529392505050565b6001600160a01b03831681526040602082018190526000906137dc90830184613d26565b82815260e08101611f2f60208301846139d8565b600061417983613727565b60405161418682826136fb565b80925084815285858501111561419b57600080fd5b6141a98560208301866137fd565b50509392505050565b6000602082840312156141c457600080fd5b81516001600160401b038111156141da57600080fd5b8201601f810184136141eb57600080fd5b6137dc8482516020840161416e565b634e487b7160e01b600052601160045260246000fd5b600081600019048311821515161561422a5761422a6141fa565b500290565b60008261424c57634e487b7160e01b600052601260045260246000fd5b500490565b60e08152600061426460e0830185613d26565b9050611f2f60208301846139d8565b6000602080838503121561428657600080fd5b82516001600160401b0381111561429c57600080fd5b8301601f810185136142ad57600080fd5b80516142b88161388a565b6040516142c582826136fb565b82815260059290921b83018401918481019150878311156142e557600080fd5b928401925b8284101561430c5783516142fd8161364c565b825292840192908401906142ea565b979650505050505050565b6000821982111561432a5761432a6141fa565b500190565b6000808585111561433f57600080fd5b8386111561434c57600080fd5b5050820193919092039150565b60208152816020820152818360408301376000818301604090810191909152601f909201601f19160101919050565b60006020828403121561439a57600080fd5b8151611f2f8161364c565b60006000198214156143b9576143b96141fa565b5060010190565b634e487b7160e01b600052603260045260246000fd5b6040815260006143e96040830185613d26565b90508260208301529392505050565b60208082526021908201527f455243313135353a206d696e7420746f20746865207a65726f206164647265736040820152607360f81b606082015260800190565b60208082526028908201527f455243313135353a2069647320616e6420616d6f756e7473206c656e677468206040820152670dad2e6dac2e8c6d60c31b606082015260800190565b6040815260006144946040830185613c59565b82810360208401526144a68185613c59565b95945050505050565b60208082526025908201527f455243313135353a207472616e7366657220746f20746865207a65726f206164604082015264647265737360d81b606082015260800190565b6020808252602a908201527f455243313135353a20696e73756666696369656e742062616c616e636520666f60408201526939103a3930b739b332b960b11b606082015260800190565b6020808252602e908201527f496e697469616c697a61626c653a20636f6e747261637420697320616c72656160408201526d191e481a5b9a5d1a585b1a5e995960921b606082015260800190565b6020808252602b908201527f496e697469616c697a61626c653a20636f6e7472616374206973206e6f74206960408201526a6e697469616c697a696e6760a81b606082015260800190565b6001600160a01b0386811682528516602082015260a06040820181905260009061460390830186613c59565b82810360608401526146158186613c59565b905082810360808401526146298185613829565b98975050505050505050565b60006020828403121561464757600080fd5b8151611f2f8161368d565b600060033d11156131065760046000803e5060005160e01c90565b600060443d101561467b5790565b6040516003193d81016004833e81513d6001600160401b0381602484011181841117156146aa57505050505090565b82850191508151818111156146c25750505050505090565b843d87010160208285010111156146dc5750505050505090565b6146eb602082860101876136fb565b509095945050505050565b60208082526028908201527f455243313135353a204552433131353552656365697665722072656a656374656040820152676420746f6b656e7360c01b606082015260800190565b6001600160a01b03868116825285166020820152604081018490526060810183905260a06080820181905260009061430c9083018461382956fe68747470733a2f2f697066732e696f2f697066732f516d52357674385045443773786a587a765166314a506565475163646365336a6643444357444b7978687369327aa26469706673582212201a29dd949dacb1dd0df15633241585cdeec39744011f65d0bb150fc5824989f864736f6c63430008090033496e697469616c697a61626c653a20636f6e747261637420697320616c726561",
  "linkReferences": {},
  "deployedLinkReferences": {}
}