{
  "_format": "hh-sol-artifact-1",
  "contractName": "KojoV1",
  "sourceName": "contracts/KojoV1.sol",
  "abi": [
    {
      "inputs": [],
      "stateMutability": "nonpayable",
      "type": "constructor"
    },
    {
      "anonymous": false,
      "inputs": [
        {
          "indexed": true,
          "internalType": "address",
          "name": "account",
          "type": "address"
        },
        {
          "indexed": true,
          "internalType": "address",
          "name": "operator",
          "type": "address"
        },
        {
          "indexed": false,
          "internalType": "bool",
          "name": "approved",
          "type": "bool"
        }
      ],
      "name": "ApprovalForAll",
      "type": "event"
    },
    {
      "anonymous": false,
      "inputs": [
        {
          "indexed": false,
          "internalType": "uint8",
          "name": "version",
          "type": "uint8"
        }
      ],
      "name": "Initialized",
      "type": "event"
    },
    {
      "anonymous": false,
      "inputs": [
        {
          "indexed": true,
          "internalType": "address",
          "name": "previousOwner",
          "type": "address"
        },
        {
          "indexed": true,
          "internalType": "address",
          "name": "newOwner",
          "type": "address"
        }
      ],
      "name": "OwnershipTransferred",
      "type": "event"
    },
    {
      "anonymous": false,
      "inputs": [
        {
          "indexed": false,
          "internalType": "address",
          "name": "account",
          "type": "address"
        },
        {
          "components": [
            {
              "internalType": "uint256",
              "name": "level",
              "type": "uint256"
            },
            {
              "internalType": "uint256",
              "name": "experiencePoints",
              "type": "uint256"
            },
            {
              "internalType": "uint256[]",
              "name": "plantIds",
              "type": "uint256[]"
            },
            {
              "internalType": "uint256",
              "name": "allowedTokenBalance",
              "type": "uint256"
            },
            {
              "internalType": "bool",
              "name": "isPresent",
              "type": "bool"
            }
          ],
          "indexed": false,
          "internalType": "struct Structs.Participant",
          "name": "participant",
          "type": "tuple"
        },
        {
          "components": [
            {
              "internalType": "uint256",
              "name": "level",
              "type": "uint256"
            },
            {
              "internalType": "uint256",
              "name": "experiencePoints",
              "type": "uint256"
            },
            {
              "internalType": "uint256",
              "name": "lifes",
              "type": "uint256"
            },
            {
              "internalType": "uint256",
              "name": "levelCost",
              "type": "uint256"
            },
            {
              "internalType": "bool",
              "name": "isPresent",
              "type": "bool"
            }
          ],
          "indexed": false,
          "internalType": "struct Structs.Plant",
          "name": "plant",
          "type": "tuple"
        }
      ],
      "name": "PlantBought",
      "type": "event"
    },
    {
      "anonymous": false,
      "inputs": [
        {
          "indexed": false,
          "internalType": "address",
          "name": "account",
          "type": "address"
        },
        {
          "components": [
            {
              "internalType": "uint256",
              "name": "level",
              "type": "uint256"
            },
            {
              "internalType": "uint256",
              "name": "experiencePoints",
              "type": "uint256"
            },
            {
              "internalType": "uint256[]",
              "name": "plantIds",
              "type": "uint256[]"
            },
            {
              "internalType": "uint256",
              "name": "allowedTokenBalance",
              "type": "uint256"
            },
            {
              "internalType": "bool",
              "name": "isPresent",
              "type": "bool"
            }
          ],
          "indexed": false,
          "internalType": "struct Structs.Participant",
          "name": "participant",
          "type": "tuple"
        },
        {
          "components": [
            {
              "internalType": "uint256",
              "name": "level",
              "type": "uint256"
            },
            {
              "internalType": "uint256",
              "name": "experiencePoints",
              "type": "uint256"
            },
            {
              "internalType": "uint256",
              "name": "lifes",
              "type": "uint256"
            },
            {
              "internalType": "uint256",
              "name": "levelCost",
              "type": "uint256"
            },
            {
              "internalType": "bool",
              "name": "isPresent",
              "type": "bool"
            }
          ],
          "indexed": false,
          "internalType": "struct Structs.Plant",
          "name": "plant",
          "type": "tuple"
        }
      ],
      "name": "PlantClaimed",
      "type": "event"
    },
    {
      "anonymous": false,
      "inputs": [
        {
          "indexed": false,
          "internalType": "address",
          "name": "account",
          "type": "address"
        },
        {
          "components": [
            {
              "internalType": "uint256",
              "name": "level",
              "type": "uint256"
            },
            {
              "internalType": "uint256",
              "name": "experiencePoints",
              "type": "uint256"
            },
            {
              "internalType": "uint256[]",
              "name": "plantIds",
              "type": "uint256[]"
            },
            {
              "internalType": "uint256",
              "name": "allowedTokenBalance",
              "type": "uint256"
            },
            {
              "internalType": "bool",
              "name": "isPresent",
              "type": "bool"
            }
          ],
          "indexed": false,
          "internalType": "struct Structs.Participant",
          "name": "participant",
          "type": "tuple"
        },
        {
          "components": [
            {
              "internalType": "uint256",
              "name": "level",
              "type": "uint256"
            },
            {
              "internalType": "uint256",
              "name": "experiencePoints",
              "type": "uint256"
            },
            {
              "internalType": "uint256",
              "name": "lifes",
              "type": "uint256"
            },
            {
              "internalType": "uint256",
              "name": "levelCost",
              "type": "uint256"
            },
            {
              "internalType": "bool",
              "name": "isPresent",
              "type": "bool"
            }
          ],
          "indexed": false,
          "internalType": "struct Structs.Plant",
          "name": "plant",
          "type": "tuple"
        },
        {
          "indexed": false,
          "internalType": "uint256",
          "name": "amount",
          "type": "uint256"
        }
      ],
      "name": "PlantWatered",
      "type": "event"
    },
    {
      "anonymous": false,
      "inputs": [
        {
          "indexed": false,
          "internalType": "address",
          "name": "account",
          "type": "address"
        },
        {
          "components": [
            {
              "internalType": "uint256",
              "name": "level",
              "type": "uint256"
            },
            {
              "internalType": "uint256",
              "name": "experiencePoints",
              "type": "uint256"
            },
            {
              "internalType": "uint256[]",
              "name": "plantIds",
              "type": "uint256[]"
            },
            {
              "internalType": "uint256",
              "name": "allowedTokenBalance",
              "type": "uint256"
            },
            {
              "internalType": "bool",
              "name": "isPresent",
              "type": "bool"
            }
          ],
          "indexed": false,
          "internalType": "struct Structs.Participant",
          "name": "participant",
          "type": "tuple"
        },
        {
          "indexed": false,
          "internalType": "uint256",
          "name": "amount",
          "type": "uint256"
        }
      ],
      "name": "TokensClaimed",
      "type": "event"
    },
    {
      "anonymous": false,
      "inputs": [
        {
          "indexed": true,
          "internalType": "address",
          "name": "operator",
          "type": "address"
        },
        {
          "indexed": true,
          "internalType": "address",
          "name": "from",
          "type": "address"
        },
        {
          "indexed": true,
          "internalType": "address",
          "name": "to",
          "type": "address"
        },
        {
          "indexed": false,
          "internalType": "uint256[]",
          "name": "ids",
          "type": "uint256[]"
        },
        {
          "indexed": false,
          "internalType": "uint256[]",
          "name": "values",
          "type": "uint256[]"
        }
      ],
      "name": "TransferBatch",
      "type": "event"
    },
    {
      "anonymous": false,
      "inputs": [
        {
          "indexed": true,
          "internalType": "address",
          "name": "operator",
          "type": "address"
        },
        {
          "indexed": true,
          "internalType": "address",
          "name": "from",
          "type": "address"
        },
        {
          "indexed": true,
          "internalType": "address",
          "name": "to",
          "type": "address"
        },
        {
          "indexed": false,
          "internalType": "uint256",
          "name": "id",
          "type": "uint256"
        },
        {
          "indexed": false,
          "internalType": "uint256",
          "name": "value",
          "type": "uint256"
        }
      ],
      "name": "TransferSingle",
      "type": "event"
    },
    {
      "anonymous": false,
      "inputs": [
        {
          "indexed": false,
          "internalType": "string",
          "name": "value",
          "type": "string"
        },
        {
          "indexed": true,
          "internalType": "uint256",
          "name": "id",
          "type": "uint256"
        }
      ],
      "name": "URI",
      "type": "event"
    },
    {
      "inputs": [],
      "name": "FUNGIBLE_TOKEN",
      "outputs": [
        {
          "internalType": "uint256",
          "name": "",
          "type": "uint256"
        }
      ],
      "stateMutability": "view",
      "type": "function"
    },
    {
      "inputs": [
        {
          "internalType": "address",
          "name": "account",
          "type": "address"
        },
        {
          "internalType": "uint256",
          "name": "id",
          "type": "uint256"
        }
      ],
      "name": "balanceOf",
      "outputs": [
        {
          "internalType": "uint256",
          "name": "",
          "type": "uint256"
        }
      ],
      "stateMutability": "view",
      "type": "function"
    },
    {
      "inputs": [
        {
          "internalType": "address[]",
          "name": "accounts",
          "type": "address[]"
        },
        {
          "internalType": "uint256[]",
          "name": "ids",
          "type": "uint256[]"
        }
      ],
      "name": "balanceOfBatch",
      "outputs": [
        {
          "internalType": "uint256[]",
          "name": "",
          "type": "uint256[]"
        }
      ],
      "stateMutability": "view",
      "type": "function"
    },
    {
      "inputs": [
        {
          "internalType": "address",
          "name": "account",
          "type": "address"
        },
        {
          "internalType": "uint256",
          "name": "id",
          "type": "uint256"
        },
        {
          "internalType": "uint256",
          "name": "value",
          "type": "uint256"
        }
      ],
      "name": "burn",
      "outputs": [],
      "stateMutability": "nonpayable",
      "type": "function"
    },
    {
      "inputs": [
        {
          "internalType": "address",
          "name": "account",
          "type": "address"
        },
        {
          "internalType": "uint256[]",
          "name": "ids",
          "type": "uint256[]"
        },
        {
          "internalType": "uint256[]",
          "name": "values",
          "type": "uint256[]"
        }
      ],
      "name": "burnBatch",
      "outputs": [],
      "stateMutability": "nonpayable",
      "type": "function"
    },
    {
      "inputs": [],
      "name": "checkUpkeep",
      "outputs": [],
      "stateMutability": "view",
      "type": "function"
    },
    {
      "inputs": [
        {
          "internalType": "uint256",
          "name": "id",
          "type": "uint256"
        }
      ],
      "name": "exists",
      "outputs": [
        {
          "internalType": "bool",
          "name": "",
          "type": "bool"
        }
      ],
      "stateMutability": "view",
      "type": "function"
    },
    {
      "inputs": [],
      "name": "handleBuyPlant",
      "outputs": [],
      "stateMutability": "payable",
      "type": "function"
    },
    {
      "inputs": [],
      "name": "handleClaimMonthlyReward",
      "outputs": [],
      "stateMutability": "nonpayable",
      "type": "function"
    },
    {
      "inputs": [],
      "name": "handleClaimStartTokens",
      "outputs": [
        {
          "components": [
            {
              "internalType": "uint256",
              "name": "level",
              "type": "uint256"
            },
            {
              "internalType": "uint256",
              "name": "experiencePoints",
              "type": "uint256"
            },
            {
              "internalType": "uint256[]",
              "name": "plantIds",
              "type": "uint256[]"
            },
            {
              "internalType": "uint256",
              "name": "allowedTokenBalance",
              "type": "uint256"
            },
            {
              "internalType": "bool",
              "name": "isPresent",
              "type": "bool"
            }
          ],
          "internalType": "struct Structs.Participant",
          "name": "value",
          "type": "tuple"
        }
      ],
      "stateMutability": "payable",
      "type": "function"
    },
    {
      "inputs": [
        {
          "internalType": "bytes32",
          "name": "_jobId",
          "type": "bytes32"
        },
        {
          "internalType": "uint256",
          "name": "_fee",
          "type": "uint256"
        },
        {
          "internalType": "string",
          "name": "_endpoint",
          "type": "string"
        },
        {
          "internalType": "string",
          "name": "_path",
          "type": "string"
        },
        {
          "internalType": "address",
          "name": "_tokenAddress",
          "type": "address"
        },
        {
          "internalType": "address",
          "name": "_oracleAddress",
          "type": "address"
        }
      ],
      "name": "handleConfigureAPIConsumer",
      "outputs": [],
      "stateMutability": "nonpayable",
      "type": "function"
    },
    {
      "inputs": [
        {
          "internalType": "address",
          "name": "account",
          "type": "address"
        }
      ],
      "name": "handleReadParticipant",
      "outputs": [
        {
          "components": [
            {
              "internalType": "uint256",
              "name": "level",
              "type": "uint256"
            },
            {
              "internalType": "uint256",
              "name": "experiencePoints",
              "type": "uint256"
            },
            {
              "internalType": "uint256[]",
              "name": "plantIds",
              "type": "uint256[]"
            },
            {
              "internalType": "uint256",
              "name": "allowedTokenBalance",
              "type": "uint256"
            },
            {
              "internalType": "bool",
              "name": "isPresent",
              "type": "bool"
            }
          ],
          "internalType": "struct Structs.Participant",
          "name": "_participant",
          "type": "tuple"
        }
      ],
      "stateMutability": "view",
      "type": "function"
    },
    {
      "inputs": [
        {
          "internalType": "address",
          "name": "location",
          "type": "address"
        }
      ],
      "name": "handleUpdateAPIConsumerAddress",
      "outputs": [],
      "stateMutability": "nonpayable",
      "type": "function"
    },
    {
      "inputs": [
        {
          "internalType": "address",
          "name": "location",
          "type": "address"
        }
      ],
      "name": "handleUpdateStoreAddress",
      "outputs": [],
      "stateMutability": "nonpayable",
      "type": "function"
    },
    {
      "inputs": [
        {
          "internalType": "uint256",
          "name": "tokenSensitivity",
          "type": "uint256"
        }
      ],
      "name": "handleUpdateTokenSensitivity",
      "outputs": [],
      "stateMutability": "nonpayable",
      "type": "function"
    },
    {
      "inputs": [
        {
          "internalType": "address",
          "name": "location",
          "type": "address"
        }
      ],
      "name": "handleUpdateUtilsAddress",
      "outputs": [],
      "stateMutability": "nonpayable",
      "type": "function"
    },
    {
      "inputs": [
        {
          "internalType": "uint256",
          "name": "tokenId",
          "type": "uint256"
        }
      ],
      "name": "handleWaterPlant",
      "outputs": [],
      "stateMutability": "payable",
      "type": "function"
    },
    {
      "inputs": [],
      "name": "initialTokenAllowance",
      "outputs": [
        {
          "internalType": "uint256",
          "name": "",
          "type": "uint256"
        }
      ],
      "stateMutability": "view",
      "type": "function"
    },
    {
      "inputs": [],
      "name": "initialize",
      "outputs": [],
      "stateMutability": "nonpayable",
      "type": "function"
    },
    {
      "inputs": [
        {
          "internalType": "address",
          "name": "account",
          "type": "address"
        },
        {
          "internalType": "address",
          "name": "operator",
          "type": "address"
        }
      ],
      "name": "isApprovedForAll",
      "outputs": [
        {
          "internalType": "bool",
          "name": "",
          "type": "bool"
        }
      ],
      "stateMutability": "view",
      "type": "function"
    },
    {
      "inputs": [
        {
          "internalType": "address",
          "name": "account",
          "type": "address"
        },
        {
          "internalType": "uint256",
          "name": "id",
          "type": "uint256"
        },
        {
          "internalType": "uint256",
          "name": "amount",
          "type": "uint256"
        },
        {
          "internalType": "bytes",
          "name": "data",
          "type": "bytes"
        }
      ],
      "name": "mint",
      "outputs": [],
      "stateMutability": "nonpayable",
      "type": "function"
    },
    {
      "inputs": [
        {
          "internalType": "address",
          "name": "to",
          "type": "address"
        },
        {
          "internalType": "uint256[]",
          "name": "ids",
          "type": "uint256[]"
        },
        {
          "internalType": "uint256[]",
          "name": "amounts",
          "type": "uint256[]"
        },
        {
          "internalType": "bytes",
          "name": "data",
          "type": "bytes"
        }
      ],
      "name": "mintBatch",
      "outputs": [],
      "stateMutability": "nonpayable",
      "type": "function"
    },
    {
      "inputs": [],
      "name": "nonFungibleTokenCount",
      "outputs": [
        {
          "internalType": "uint256",
          "name": "",
          "type": "uint256"
        }
      ],
      "stateMutability": "view",
      "type": "function"
    },
    {
      "inputs": [],
      "name": "owner",
      "outputs": [
        {
          "internalType": "address",
          "name": "",
          "type": "address"
        }
      ],
      "stateMutability": "view",
      "type": "function"
    },
    {
      "inputs": [],
      "name": "performUpkeep",
      "outputs": [],
      "stateMutability": "view",
      "type": "function"
    },
    {
      "inputs": [],
      "name": "renounceOwnership",
      "outputs": [],
      "stateMutability": "nonpayable",
      "type": "function"
    },
    {
      "inputs": [
        {
          "internalType": "address",
          "name": "from",
          "type": "address"
        },
        {
          "internalType": "address",
          "name": "to",
          "type": "address"
        },
        {
          "internalType": "uint256[]",
          "name": "ids",
          "type": "uint256[]"
        },
        {
          "internalType": "uint256[]",
          "name": "amounts",
          "type": "uint256[]"
        },
        {
          "internalType": "bytes",
          "name": "data",
          "type": "bytes"
        }
      ],
      "name": "safeBatchTransferFrom",
      "outputs": [],
      "stateMutability": "nonpayable",
      "type": "function"
    },
    {
      "inputs": [
        {
          "internalType": "address",
          "name": "from",
          "type": "address"
        },
        {
          "internalType": "address",
          "name": "to",
          "type": "address"
        },
        {
          "internalType": "uint256",
          "name": "id",
          "type": "uint256"
        },
        {
          "internalType": "uint256",
          "name": "amount",
          "type": "uint256"
        },
        {
          "internalType": "bytes",
          "name": "data",
          "type": "bytes"
        }
      ],
      "name": "safeTransferFrom",
      "outputs": [],
      "stateMutability": "nonpayable",
      "type": "function"
    },
    {
      "inputs": [
        {
          "internalType": "address",
          "name": "operator",
          "type": "address"
        },
        {
          "internalType": "bool",
          "name": "approved",
          "type": "bool"
        }
      ],
      "name": "setApprovalForAll",
      "outputs": [],
      "stateMutability": "nonpayable",
      "type": "function"
    },
    {
      "inputs": [
        {
          "internalType": "uint256",
          "name": "tokenId",
          "type": "uint256"
        },
        {
          "internalType": "string",
          "name": "_uri",
          "type": "string"
        }
      ],
      "name": "setTokenUri",
      "outputs": [],
      "stateMutability": "nonpayable",
      "type": "function"
    },
    {
      "inputs": [
        {
          "internalType": "string",
          "name": "newuri",
          "type": "string"
        }
      ],
      "name": "setURI",
      "outputs": [],
      "stateMutability": "nonpayable",
      "type": "function"
    },
    {
      "inputs": [
        {
          "internalType": "bytes4",
          "name": "interfaceId",
          "type": "bytes4"
        }
      ],
      "name": "supportsInterface",
      "outputs": [
        {
          "internalType": "bool",
          "name": "",
          "type": "bool"
        }
      ],
      "stateMutability": "view",
      "type": "function"
    },
    {
      "inputs": [
        {
          "internalType": "uint256",
          "name": "id",
          "type": "uint256"
        }
      ],
      "name": "totalSupply",
      "outputs": [
        {
          "internalType": "uint256",
          "name": "",
          "type": "uint256"
        }
      ],
      "stateMutability": "view",
      "type": "function"
    },
    {
      "inputs": [
        {
          "internalType": "address",
          "name": "newOwner",
          "type": "address"
        }
      ],
      "name": "transferOwnership",
      "outputs": [],
      "stateMutability": "nonpayable",
      "type": "function"
    },
    {
      "inputs": [
        {
          "internalType": "uint256",
          "name": "tokenId",
          "type": "uint256"
        }
      ],
      "name": "uri",
      "outputs": [
        {
          "internalType": "string",
          "name": "",
          "type": "string"
        }
      ],
      "stateMutability": "view",
      "type": "function"
    }
  ],
  "bytecode": "0x608060405261012e805460ff191690556001610131556064610132553480156200002857600080fd5b506200003362000130565b6040516200004190620002c6565b604051809103906000f0801580156200005e573d6000803e3d6000fd5b5061012e60016101000a8154816001600160a01b0302191690836001600160a01b031602179055506040516200009490620002d4565b604051809103906000f080158015620000b1573d6000803e3d6000fd5b5061012f80546001600160a01b0319166001600160a01b0392909216919091179055604051620000e190620002e2565b604051809103906000f080158015620000fe573d6000803e3d6000fd5b5061013080546001600160a01b0319166001600160a01b03929092169190911790556200012a6200013f565b620002f0565b6200013c60ff620001a9565b50565b61012e5460ff1615620001995760405162461bcd60e51b815260206004820152601d60248201527f436f6e747261637420616c726561647920696e697469616c697a65642e00000060448201526064015b60405180910390fd5b61012e805460ff19166001179055565b60008054610100900460ff16156200023e578160ff166001148015620001e25750620001e030620002b760201b62001fff1760201c565b155b620002365760405162461bcd60e51b815260206004820152602e6024820152600080516020620088df83398151915260448201526d191e481a5b9a5d1a585b1a5e995960921b606482015260840162000190565b506000919050565b60005460ff8084169116106200029d5760405162461bcd60e51b815260206004820152602e6024820152600080516020620088df83398151915260448201526d191e481a5b9a5d1a585b1a5e995960921b606482015260840162000190565b506000805460ff191660ff92909216919091179055600190565b6001600160a01b03163b151590565b6118658062004ea483390190565b610a08806200670983390190565b6117ce806200711183390190565b614ba480620003006000396000f3fe6080604052600436106102335760003560e01c8063715018a611610138578063de349ae7116100b0578063f242432a1161007f578063f5298aca11610064578063f5298aca14610643578063f769aba714610663578063fabe6b3c1461068357600080fd5b8063f242432a14610603578063f2fde38b1461062357600080fd5b8063de349ae714610565578063de8bb68514610578578063e59991391461058d578063e985e9c5146105ba57600080fd5b80639c3423b111610107578063a22cb465116100ec578063a22cb465146104f8578063a305bb2214610518578063bd85b0391461053857600080fd5b80639c3423b1146104f0578063a13abdad1461046957600080fd5b8063715018a61461047e578063731133e9146104935780638129fc1c146104b35780638da5cb5b146104c857600080fd5b80632eb2c2d6116101cb5780634f558e791161019a5780636b20c4541161017f5780636b20c454146104345780636c7ff22e146104545780636e4d243a1461046957600080fd5b80634f558e79146103e557806357f7789e1461041457600080fd5b80632eb2c2d614610361578063302424541461038157806345e8eca8146103a15780634e1273f4146103b857600080fd5b80630e89341c116102075780630e89341c146102dd5780631bca55e51461030a5780631f7fdffa1461032157806323192a8f1461034157600080fd5b8062fdd58e1461023857806301ffc9a71461026b57806302fe53051461029b5780630da575dc146102bd575b600080fd5b34801561024457600080fd5b50610258610253366004613c39565b61068b565b6040519081526020015b60405180910390f35b34801561027757600080fd5b5061028b610286366004613c79565b610736565b6040519015158152602001610262565b3480156102a757600080fd5b506102bb6102b6366004613d8a565b6107d3565b005b3480156102c957600080fd5b506102bb6102d8366004613dc7565b610827565b3480156102e957600080fd5b506102fd6102f8366004613de2565b6108af565b6040516102629190613e53565b34801561031657600080fd5b506102586101325481565b34801561032d57600080fd5b506102bb61033c366004613efb565b610952565b34801561034d57600080fd5b506102bb61035c366004613dc7565b6109ac565b34801561036d57600080fd5b506102bb61037c366004613f94565b610a24565b34801561038d57600080fd5b506102bb61039c366004613de2565b610ac6565b3480156103ad57600080fd5b506102586101315481565b3480156103c457600080fd5b506103d86103d336600461403e565b610b86565b6040516102629190614144565b3480156103f157600080fd5b5061028b610400366004613de2565b600090815260fb6020526040902054151590565b34801561042057600080fd5b506102bb61042f366004614157565b610cc4565b34801561044057600080fd5b506102bb61044f366004614194565b610d31565b34801561046057600080fd5b506102bb610db6565b34801561047557600080fd5b506102bb611016565b34801561048a57600080fd5b506102bb611030565b34801561049f57600080fd5b506102bb6104ae366004614208565b611082565b3480156104bf57600080fd5b506102bb6110d6565b3480156104d457600080fd5b506097546040516001600160a01b039091168152602001610262565b6102bb611172565b34801561050457600080fd5b506102bb61051336600461426b565b6113ad565b34801561052457600080fd5b506102bb610533366004613dc7565b6113bc565b34801561054457600080fd5b50610258610553366004613de2565b600090815260fb602052604090205490565b6102bb610573366004613de2565b611434565b34801561058457600080fd5b50610258600081565b34801561059957600080fd5b506105ad6105a8366004613dc7565b6119f3565b60405161026291906142ed565b3480156105c657600080fd5b5061028b6105d5366004614300565b6001600160a01b03918216600090815260666020908152604080832093909416825291909152205460ff1690565b34801561060f57600080fd5b506102bb61061e366004614333565b611aaf565b34801561062f57600080fd5b506102bb61063e366004613dc7565b611b36565b34801561064f57600080fd5b506102bb61065e366004614398565b611c03565b34801561066f57600080fd5b506102bb61067e366004614414565b611c88565b6105ad611d64565b60006001600160a01b03831661070e5760405162461bcd60e51b815260206004820152602b60248201527f455243313135353a2062616c616e636520717565727920666f7220746865207a60448201527f65726f206164647265737300000000000000000000000000000000000000000060648201526084015b60405180910390fd5b5060009081526065602090815260408083206001600160a01b03949094168352929052205490565b60006001600160e01b031982167fd9b67a2600000000000000000000000000000000000000000000000000000000148061079957506001600160e01b031982167f0e89341c00000000000000000000000000000000000000000000000000000000145b806107cd57507f01ffc9a7000000000000000000000000000000000000000000000000000000006001600160e01b03198316145b92915050565b6097546001600160a01b0316331461081b5760405162461bcd60e51b81526020600482018190526024820152600080516020614b4f8339815191526044820152606401610705565b6108248161200e565b50565b6097546001600160a01b0316331461086f5760405162461bcd60e51b81526020600482018190526024820152600080516020614b4f8339815191526044820152606401610705565b61012e80546001600160a01b03909216610100027fffffffffffffffffffffff0000000000000000000000000000000000000000ff909216919091179055565b600081815261012d602052604090208054606091906108cd906144b8565b80601f01602080910402602001604051908101604052809291908181526020018280546108f9906144b8565b80156109465780601f1061091b57610100808354040283529160200191610946565b820191906000526020600020905b81548152906001019060200180831161092957829003601f168201915b50505050509050919050565b6097546001600160a01b0316331461099a5760405162461bcd60e51b81526020600482018190526024820152600080516020614b4f8339815191526044820152606401610705565b6109a684848484612021565b50505050565b6097546001600160a01b031633146109f45760405162461bcd60e51b81526020600482018190526024820152600080516020614b4f8339815191526044820152606401610705565b61012f805473ffffffffffffffffffffffffffffffffffffffff19166001600160a01b0392909216919091179055565b6001600160a01b038516331480610a405750610a4085336105d5565b610ab25760405162461bcd60e51b815260206004820152603260248201527f455243313135353a207472616e736665722063616c6c6572206973206e6f742060448201527f6f776e6572206e6f7220617070726f76656400000000000000000000000000006064820152608401610705565b610abf8585858585612206565b5050505050565b6097546001600160a01b03163314610b0e5760405162461bcd60e51b81526020600482018190526024820152600080516020614b4f8339815191526044820152606401610705565b61012e546040517f30242454000000000000000000000000000000000000000000000000000000008152600481018390526101009091046001600160a01b031690633024245490602401600060405180830381600087803b158015610b7257600080fd5b505af1158015610abf573d6000803e3d6000fd5b60608151835114610bff5760405162461bcd60e51b815260206004820152602960248201527f455243313135353a206163636f756e747320616e6420696473206c656e67746860448201527f206d69736d6174636800000000000000000000000000000000000000000000006064820152608401610705565b6000835167ffffffffffffffff811115610c1b57610c1b613c9d565b604051908082528060200260200182016040528015610c44578160200160208202803683370190505b50905060005b8451811015610cbc57610c8f858281518110610c6857610c686144f3565b6020026020010151858381518110610c8257610c826144f3565b602002602001015161068b565b828281518110610ca157610ca16144f3565b6020908102919091010152610cb58161451f565b9050610c4a565b509392505050565b6097546001600160a01b03163314610d0c5760405162461bcd60e51b81526020600482018190526024820152600080516020614b4f8339815191526044820152606401610705565b600082815261012d602090815260409091208251610d2c92840190613b89565b505050565b6001600160a01b038316331480610d4d5750610d4d83336105d5565b610dab5760405162461bcd60e51b815260206004820152602960248201527f455243313135353a2063616c6c6572206973206e6f74206f776e6572206e6f7260448201526808185c1c1c9bdd995960ba1b6064820152608401610705565b610d2c838383612483565b323314610df35760405162461bcd60e51b815260206004820152600b60248201526a2737ba1030b71022a7a09760a91b6044820152606401610705565b61012e5460405163e599913960e01b815233600482015260009161010090046001600160a01b03169063e59991399060240160006040518083038186803b158015610e3d57600080fd5b505afa158015610e51573d6000803e3d6000fd5b505050506040513d6000823e601f3d908101601f19168201604052610e799190810190614545565b90508060800151610ecc5760405162461bcd60e51b815260206004820152601b60248201527f5061727469636970616e7420646f6573206e6f742065786973742e00000000006044820152606401610705565b6060810151610f1d5760405162461bcd60e51b815260206004820152601b60248201527f5061727469636970616e74206973206e6f7420616c6c6f7765642e00000000006044820152606401610705565b610f3d3360008360600151604051806020016040528060008152506126e5565b6000606082015261012e54604051633fcd0c3760e01b8152829161010090046001600160a01b031690633fcd0c3790610f7c9033908590600401614643565b600060405180830381600087803b158015610f9657600080fd5b505af1158015610faa573d6000803e3d6000fd5b505050506040513d6000823e601f3d908101601f19168201604052610fd29190810190614545565b507f3e84b6367406cff7e5e6ccb266c97459f5e2b801fdc2541239cf86da35ecbf293383846060015160405161100a93929190614665565b60405180910390a15050565b61102e60405180602001604052806000815250612819565b565b6097546001600160a01b031633146110785760405162461bcd60e51b81526020600482018190526024820152600080516020614b4f8339815191526044820152606401610705565b61102e600061288a565b6097546001600160a01b031633146110ca5760405162461bcd60e51b81526020600482018190526024820152600080516020614b4f8339815191526044820152606401610705565b6109a6848484846126e5565b60006110e260016128e9565b905080156110fa576000805461ff0019166101001790555b61111260405180602001604052806000815250612a22565b61111a612a96565b611122612b09565b61112a612b09565b8015610824576000805461ff0019169055604051600181527f7f26b83ff96e1f2b6a682f133852f6798a09c465da95921460cefb38474024989060200160405180910390a150565b3233146111af5760405162461bcd60e51b815260206004820152600b60248201526a2737ba1030b71022a7a09760a91b6044820152606401610705565b61012e5460405163e599913960e01b815233600482015260009161010090046001600160a01b03169063e59991399060240160006040518083038186803b1580156111f957600080fd5b505afa15801561120d573d6000803e3d6000fd5b505050506040513d6000823e601f3d908101601f191682016040526112359190810190614545565b905080608001516112885760405162461bcd60e51b815260206004820152601b60248201527f5061727469636970616e7420646f6573206e6f742065786973742e00000000006044820152606401610705565b61012e60019054906101000a90046001600160a01b03166001600160a01b03166358ac00386040518163ffffffff1660e01b815260040160206040518083038186803b1580156112d757600080fd5b505afa1580156112eb573d6000803e3d6000fd5b505050506040513d601f19601f8201168201806040525081019061130f9190614697565b341161135d5760405162461bcd60e51b815260206004820152601160248201527f4e6f7420656e6f756768204d415449432e0000000000000000000000000000006044820152606401610705565b60008061136983612b74565b915091507f9cdb3eb7c64977bb4da7ee02edeaf906493749a72bcd222259f4e8b39862c8583383836040516113a0939291906146b0565b60405180910390a1505050565b6113b8338383612ddf565b5050565b6097546001600160a01b031633146114045760405162461bcd60e51b81526020600482018190526024820152600080516020614b4f8339815191526044820152606401610705565b610130805473ffffffffffffffffffffffffffffffffffffffff19166001600160a01b0392909216919091179055565b3233146114715760405162461bcd60e51b815260206004820152600b60248201526a2737ba1030b71022a7a09760a91b6044820152606401610705565b61012e5460405163e599913960e01b815233600482015260009161010090046001600160a01b03169063e59991399060240160006040518083038186803b1580156114bb57600080fd5b505afa1580156114cf573d6000803e3d6000fd5b505050506040513d6000823e601f3d908101601f191682016040526114f79190810190614545565b61012e546040517f1fec8c02000000000000000000000000000000000000000000000000000000008152600481018590529192506000916101009091046001600160a01b031690631fec8c029060240160a06040518083038186803b15801561155f57600080fd5b505afa158015611573573d6000803e3d6000fd5b505050506040513d601f19601f82011682018060405250810190611597919061470e565b905081608001516115ea5760405162461bcd60e51b815260206004820152601b60248201527f5061727469636970616e7420646f6573206e6f742065786973742e00000000006044820152606401610705565b806080015161163b5760405162461bcd60e51b815260206004820152601560248201527f506c616e7420646f6573206e6f742065786973742e00000000000000000000006044820152606401610705565b6000341161168b5760405162461bcd60e51b815260206004820152601260248201527f4e6f204d415449432070726f76696465642e00000000000000000000000000006044820152606401610705565b61012f546040517f85dc309a0000000000000000000000000000000000000000000000000000000081526000916001600160a01b0316906385dc309a906116d89086903490600401614784565b60006040518083038186803b1580156116f057600080fd5b505afa158015611704573d6000803e3d6000fd5b505050506040513d6000823e601f3d908101601f1916820160405261172c9190810190614545565b61012f546040517f58e5d9cf0000000000000000000000000000000000000000000000000000000081529192506000916001600160a01b03909116906358e5d9cf9061177e90869034906004016147a6565b60a06040518083038186803b15801561179657600080fd5b505afa1580156117aa573d6000803e3d6000fd5b505050506040513d601f19601f820116820180604052508101906117ce919061470e565b61012e54604051633fcd0c3760e01b815291925061010090046001600160a01b031690633fcd0c37906118079033908690600401614643565b600060405180830381600087803b15801561182157600080fd5b505af1158015611835573d6000803e3d6000fd5b505050506040513d6000823e601f3d908101601f1916820160405261185d9190810190614545565b5061012e546040517f571765150000000000000000000000000000000000000000000000000000000081526101009091046001600160a01b0316906357176515906118ae90889085906004016147ee565b60a060405180830381600087803b1580156118c857600080fd5b505af11580156118dc573d6000803e3d6000fd5b505050506040513d601f19601f82011682018060405250810190611900919061470e565b5061012f546040517f67a58d620000000000000000000000000000000000000000000000000000000081526000916001600160a01b0316906367a58d629061194e9085908a906004016147a6565b60006040518083038186803b15801561196657600080fd5b505afa15801561197a573d6000803e3d6000fd5b505050506040513d6000823e601f3d908101601f191682016040526119a2919081019061482f565b90506119ae8682610cc4565b7f3ed1cc965f2aba30207367f92d9c957caa3365fea3b717c6721108aaf9b43a45338484346040516119e394939291906148b1565b60405180910390a1505050505050565b611a276040518060a00160405280600081526020016000815260200160608152602001600081526020016000151581525090565b61012e5460405163e599913960e01b81526001600160a01b0384811660048301526101009092049091169063e59991399060240160006040518083038186803b158015611a7357600080fd5b505afa158015611a87573d6000803e3d6000fd5b505050506040513d6000823e601f3d908101601f191682016040526107cd9190810190614545565b6001600160a01b038516331480611acb5750611acb85336105d5565b611b295760405162461bcd60e51b815260206004820152602960248201527f455243313135353a2063616c6c6572206973206e6f74206f776e6572206e6f7260448201526808185c1c1c9bdd995960ba1b6064820152608401610705565b610abf8585858585612ed4565b6097546001600160a01b03163314611b7e5760405162461bcd60e51b81526020600482018190526024820152600080516020614b4f8339815191526044820152606401610705565b6001600160a01b038116611bfa5760405162461bcd60e51b815260206004820152602660248201527f4f776e61626c653a206e6577206f776e657220697320746865207a65726f206160448201527f64647265737300000000000000000000000000000000000000000000000000006064820152608401610705565b6108248161288a565b6001600160a01b038316331480611c1f5750611c1f83336105d5565b611c7d5760405162461bcd60e51b815260206004820152602960248201527f455243313135353a2063616c6c6572206973206e6f74206f776e6572206e6f7260448201526808185c1c1c9bdd995960ba1b6064820152608401610705565b610d2c83838361309f565b6097546001600160a01b03163314611cd05760405162461bcd60e51b81526020600482018190526024820152600080516020614b4f8339815191526044820152606401610705565b610130546040517fc5cad3a10000000000000000000000000000000000000000000000000000000081526001600160a01b039091169063c5cad3a190611d28908b908b908b908b908b908b908b908b90600401614949565b600060405180830381600087803b158015611d4257600080fd5b505af1158015611d56573d6000803e3d6000fd5b505050505050505050505050565b611d986040518060a00160405280600081526020016000815260200160608152602001600081526020016000151581525090565b323314611dd55760405162461bcd60e51b815260206004820152600b60248201526a2737ba1030b71022a7a09760a91b6044820152606401610705565b61012e5460405163e599913960e01b815233600482015260009161010090046001600160a01b03169063e59991399060240160006040518083038186803b158015611e1f57600080fd5b505afa158015611e33573d6000803e3d6000fd5b505050506040513d6000823e601f3d908101601f19168201604052611e5b9190810190614545565b9050806080015115611efc5760405162461bcd60e51b8152602060048201526044602482018190527f5061727469636970616e7420616c7265616479206578697374732e20596f7520908201527f616c726561647920636c61696d656420796f757220696e697469616c20746f6b60648201527f656e732e00000000000000000000000000000000000000000000000000000000608482015260a401610705565b611f1b33600061013254604051806020016040528060008152506126e5565b7f3e84b6367406cff7e5e6ccb266c97459f5e2b801fdc2541239cf86da35ecbf29338261013254604051611f5193929190614665565b60405180910390a161012e546040517f11622ce50000000000000000000000000000000000000000000000000000000081523360048201526101009091046001600160a01b0316906311622ce590602401600060405180830381600087803b158015611fbc57600080fd5b505af1158015611fd0573d6000803e3d6000fd5b505050506040513d6000823e601f3d908101601f19168201604052611ff89190810190614545565b9150505b90565b6001600160a01b03163b151590565b80516113b8906067906020840190613b89565b6001600160a01b0384166120815760405162461bcd60e51b815260206004820152602160248201527f455243313135353a206d696e7420746f20746865207a65726f206164647265736044820152607360f81b6064820152608401610705565b81518351146120e35760405162461bcd60e51b815260206004820152602860248201527f455243313135353a2069647320616e6420616d6f756e7473206c656e677468206044820152670dad2e6dac2e8c6d60c31b6064820152608401610705565b336120f38160008787878761323d565b60005b845181101561218f57838181518110612111576121116144f3565b60200260200101516065600087848151811061212f5761212f6144f3565b602002602001015181526020019081526020016000206000886001600160a01b03166001600160a01b03168152602001908152602001600020600082825461217791906149a5565b909155508190506121878161451f565b9150506120f6565b50846001600160a01b031660006001600160a01b0316826001600160a01b03167f4a39dc06d4c0dbc64b70af90fd698a233a518aa5d07e595d983b8c0526c8f7fb87876040516121e09291906149bd565b60405180910390a46121f78160008787878761324b565b610abf816000878787876135f0565b81518351146122685760405162461bcd60e51b815260206004820152602860248201527f455243313135353a2069647320616e6420616d6f756e7473206c656e677468206044820152670dad2e6dac2e8c6d60c31b6064820152608401610705565b6001600160a01b0384166122cc5760405162461bcd60e51b815260206004820152602560248201527f455243313135353a207472616e7366657220746f20746865207a65726f206164604482015264647265737360d81b6064820152608401610705565b336122db81878787878761323d565b60005b84518110156124075760008582815181106122fb576122fb6144f3565b602002602001015190506000858381518110612319576123196144f3565b60209081029190910181015160008481526065835260408082206001600160a01b038e1683529093529190912054909150818110156123ad5760405162461bcd60e51b815260206004820152602a60248201527f455243313135353a20696e73756666696369656e742062616c616e636520666f60448201526939103a3930b739b332b960b11b6064820152608401610705565b60008381526065602090815260408083206001600160a01b038e8116855292528083208585039055908b168252812080548492906123ec9084906149a5565b92505081905550505050806124009061451f565b90506122de565b50846001600160a01b0316866001600160a01b0316826001600160a01b03167f4a39dc06d4c0dbc64b70af90fd698a233a518aa5d07e595d983b8c0526c8f7fb87876040516124579291906149bd565b60405180910390a461246d81878787878761324b565b61247b8187878787876135f0565b505050505050565b6001600160a01b0383166124e55760405162461bcd60e51b815260206004820152602360248201527f455243313135353a206275726e2066726f6d20746865207a65726f206164647260448201526265737360e81b6064820152608401610705565b80518251146125475760405162461bcd60e51b815260206004820152602860248201527f455243313135353a2069647320616e6420616d6f756e7473206c656e677468206044820152670dad2e6dac2e8c6d60c31b6064820152608401610705565b600033905061256a8185600086866040518060200160405280600081525061323d565b60005b835181101561266e57600084828151811061258a5761258a6144f3565b6020026020010151905060008483815181106125a8576125a86144f3565b60209081029190910181015160008481526065835260408082206001600160a01b038c1683529093529190912054909150818110156126355760405162461bcd60e51b8152602060048201526024808201527f455243313135353a206275726e20616d6f756e7420657863656564732062616c604482015263616e636560e01b6064820152608401610705565b60009283526065602090815260408085206001600160a01b038b16865290915290922091039055806126668161451f565b91505061256d565b5060006001600160a01b0316846001600160a01b0316826001600160a01b03167f4a39dc06d4c0dbc64b70af90fd698a233a518aa5d07e595d983b8c0526c8f7fb86866040516126bf9291906149bd565b60405180910390a46109a68185600086866040518060200160405280600081525061324b565b6001600160a01b0384166127455760405162461bcd60e51b815260206004820152602160248201527f455243313135353a206d696e7420746f20746865207a65726f206164647265736044820152607360f81b6064820152608401610705565b336000612751856137a5565b9050600061275e856137a5565b905061276f8360008985858961323d565b60008681526065602090815260408083206001600160a01b038b168452909152812080548792906127a19084906149a5565b909155505060408051878152602081018790526001600160a01b03808a1692600092918716917fc3d58168c5ae7397731d063d5bbf3d657854427343f4c083240f7aacaa2d0f62910160405180910390a46128018360008985858961324b565b612810836000898989896137f0565b50505050505050565b6108248160405160240161282d9190613e53565b60408051601f198184030181529190526020810180517bffffffffffffffffffffffffffffffffffffffffffffffffffffffff167f41304fac000000000000000000000000000000000000000000000000000000001790526138fb565b609780546001600160a01b0383811673ffffffffffffffffffffffffffffffffffffffff19831681179093556040519116919082907f8be0079c531659141344cd1fd0a4f28419497f9722a3daafe3b4186f6b6457e090600090a35050565b60008054610100900460ff1615612986578160ff16600114801561290c5750303b155b61297e5760405162461bcd60e51b815260206004820152602e60248201527f496e697469616c697a61626c653a20636f6e747261637420697320616c72656160448201527f647920696e697469616c697a65640000000000000000000000000000000000006064820152608401610705565b506000919050565b60005460ff808416911610612a035760405162461bcd60e51b815260206004820152602e60248201527f496e697469616c697a61626c653a20636f6e747261637420697320616c72656160448201527f647920696e697469616c697a65640000000000000000000000000000000000006064820152608401610705565b506000805460ff191660ff92909216919091179055600190565b919050565b600054610100900460ff16612a8d5760405162461bcd60e51b815260206004820152602b60248201527f496e697469616c697a61626c653a20636f6e7472616374206973206e6f74206960448201526a6e697469616c697a696e6760a81b6064820152608401610705565b6108248161391c565b600054610100900460ff16612b015760405162461bcd60e51b815260206004820152602b60248201527f496e697469616c697a61626c653a20636f6e7472616374206973206e6f74206960448201526a6e697469616c697a696e6760a81b6064820152608401610705565b61102e613987565b600054610100900460ff1661102e5760405162461bcd60e51b815260206004820152602b60248201527f496e697469616c697a61626c653a20636f6e7472616374206973206e6f74206960448201526a6e697469616c697a696e6760a81b6064820152608401610705565b612ba86040518060a00160405280600081526020016000815260200160608152602001600081526020016000151581525090565b612bdc6040518060a00160405280600081526020016000815260200160008152602001600081526020016000151581525090565b612bfb33610131546001604051806020016040528060008152506126e5565b61012f546101315460405163a3dac62960e01b81526000926001600160a01b03169163a3dac62991612c31918891600401614784565b60006040518083038186803b158015612c4957600080fd5b505afa158015612c5d573d6000803e3d6000fd5b505050506040513d6000823e601f3d908101601f19168201604052612c859190810190614545565b61012e54610131546040517f7b16869c00000000000000000000000000000000000000000000000000000000815260048101919091529192506000916101009091046001600160a01b031690637b16869c9060240160a060405180830381600087803b158015612cf457600080fd5b505af1158015612d08573d6000803e3d6000fd5b505050506040513d601f19601f82011682018060405250810190612d2c919061470e565b61012e54604051633fcd0c3760e01b815291925061010090046001600160a01b031690633fcd0c3790612d659033908690600401614643565b600060405180830381600087803b158015612d7f57600080fd5b505af1158015612d93573d6000803e3d6000fd5b505050506040513d6000823e601f3d908101601f19168201604052612dbb9190810190614545565b5060016101316000828254612dd091906149a5565b90915550919590945092505050565b816001600160a01b0316836001600160a01b03161415612e675760405162461bcd60e51b815260206004820152602960248201527f455243313135353a2073657474696e6720617070726f76616c2073746174757360448201527f20666f722073656c6600000000000000000000000000000000000000000000006064820152608401610705565b6001600160a01b03838116600081815260666020908152604080832094871680845294825291829020805460ff191686151590811790915591519182527f17307eab39ab6107e8899845ad3d59bd9653f200f220920489ca2b5937696c31910160405180910390a3505050565b6001600160a01b038416612f385760405162461bcd60e51b815260206004820152602560248201527f455243313135353a207472616e7366657220746f20746865207a65726f206164604482015264647265737360d81b6064820152608401610705565b336000612f44856137a5565b90506000612f51856137a5565b9050612f6183898985858961323d565b60008681526065602090815260408083206001600160a01b038c16845290915290205485811015612fe75760405162461bcd60e51b815260206004820152602a60248201527f455243313135353a20696e73756666696369656e742062616c616e636520666f60448201526939103a3930b739b332b960b11b6064820152608401610705565b60008781526065602090815260408083206001600160a01b038d8116855292528083208985039055908a168252812080548892906130269084906149a5565b909155505060408051888152602081018890526001600160a01b03808b16928c821692918816917fc3d58168c5ae7397731d063d5bbf3d657854427343f4c083240f7aacaa2d0f62910160405180910390a4613086848a8a86868a61324b565b613094848a8a8a8a8a6137f0565b505050505050505050565b6001600160a01b0383166131015760405162461bcd60e51b815260206004820152602360248201527f455243313135353a206275726e2066726f6d20746865207a65726f206164647260448201526265737360e81b6064820152608401610705565b33600061310d846137a5565b9050600061311a846137a5565b905061313a8387600085856040518060200160405280600081525061323d565b60008581526065602090815260408083206001600160a01b038a168452909152902054848110156131b95760405162461bcd60e51b8152602060048201526024808201527f455243313135353a206275726e20616d6f756e7420657863656564732062616c604482015263616e636560e01b6064820152608401610705565b60008681526065602090815260408083206001600160a01b038b81168086529184528285208a8703905582518b81529384018a90529092908816917fc3d58168c5ae7397731d063d5bbf3d657854427343f4c083240f7aacaa2d0f62910160405180910390a46128108488600086866040518060200160405280600081525061324b565b61247b8686868686866139fb565b61012e5460405163e599913960e01b81526001600160a01b0387811660048301526000926101009004169063e59991399060240160006040518083038186803b15801561329757600080fd5b505afa1580156132ab573d6000803e3d6000fd5b505050506040513d6000823e601f3d908101601f191682016040526132d39190810190614545565b61012e5460405163e599913960e01b81526001600160a01b0388811660048301529293506000926101009092049091169063e59991399060240160006040518083038186803b15801561332557600080fd5b505afa158015613339573d6000803e3d6000fd5b505050506040513d6000823e601f3d908101601f191682016040526133619190810190614545565b9050600085600081518110613378576133786144f3565b60200260200101519050600081146135eb578260800151156134c75761012f546040517f6c6fa4420000000000000000000000000000000000000000000000000000000081526000916001600160a01b031690636c6fa442906133e19087908690600401614784565b60006040518083038186803b1580156133f957600080fd5b505afa15801561340d573d6000803e3d6000fd5b505050506040513d6000823e601f3d908101601f191682016040526134359190810190614545565b61012e54604051633fcd0c3760e01b815291925061010090046001600160a01b031690633fcd0c379061346e908c908590600401614643565b600060405180830381600087803b15801561348857600080fd5b505af115801561349c573d6000803e3d6000fd5b505050506040513d6000823e601f3d908101601f191682016040526134c49190810190614545565b50505b8160800151156135eb5761012f5460405163a3dac62960e01b81526000916001600160a01b03169063a3dac629906135059086908690600401614784565b60006040518083038186803b15801561351d57600080fd5b505afa158015613531573d6000803e3d6000fd5b505050506040513d6000823e601f3d908101601f191682016040526135599190810190614545565b61012e54604051633fcd0c3760e01b815291925061010090046001600160a01b031690633fcd0c3790613592908b908590600401614643565b600060405180830381600087803b1580156135ac57600080fd5b505af11580156135c0573d6000803e3d6000fd5b505050506040513d6000823e601f3d908101601f191682016040526135e89190810190614545565b50505b613094565b6001600160a01b0384163b1561247b5760405163bc197c8160e01b81526001600160a01b0385169063bc197c819061363490899089908890889088906004016149eb565b602060405180830381600087803b15801561364e57600080fd5b505af192505050801561367e575060408051601f3d908101601f1916820190925261367b91810190614a49565b60015b6137345761368a614a66565b806308c379a014156136c4575061369f614a81565b806136aa57506136c6565b8060405162461bcd60e51b81526004016107059190613e53565b505b60405162461bcd60e51b815260206004820152603460248201527f455243313135353a207472616e7366657220746f206e6f6e204552433131353560448201527f526563656976657220696d706c656d656e7465720000000000000000000000006064820152608401610705565b6001600160e01b0319811663bc197c8160e01b146128105760405162461bcd60e51b815260206004820152602860248201527f455243313135353a204552433131353552656365697665722072656a656374656044820152676420746f6b656e7360c01b6064820152608401610705565b604080516001808252818301909252606091600091906020808301908036833701905050905082816000815181106137df576137df6144f3565b602090810291909101015292915050565b6001600160a01b0384163b1561247b5760405163f23a6e6160e01b81526001600160a01b0385169063f23a6e61906138349089908990889088908890600401614b0b565b602060405180830381600087803b15801561384e57600080fd5b505af192505050801561387e575060408051601f3d908101601f1916820190925261387b91810190614a49565b60015b61388a5761368a614a66565b6001600160e01b0319811663f23a6e6160e01b146128105760405162461bcd60e51b815260206004820152602860248201527f455243313135353a204552433131353552656365697665722072656a656374656044820152676420746f6b656e7360c01b6064820152608401610705565b80516a636f6e736f6c652e6c6f67602083016000808483855afa5050505050565b600054610100900460ff1661081b5760405162461bcd60e51b815260206004820152602b60248201527f496e697469616c697a61626c653a20636f6e7472616374206973206e6f74206960448201526a6e697469616c697a696e6760a81b6064820152608401610705565b600054610100900460ff166139f25760405162461bcd60e51b815260206004820152602b60248201527f496e697469616c697a61626c653a20636f6e7472616374206973206e6f74206960448201526a6e697469616c697a696e6760a81b6064820152608401610705565b61102e3361288a565b6001600160a01b038516613a825760005b8351811015613a8057828181518110613a2757613a276144f3565b602002602001015160fb6000868481518110613a4557613a456144f3565b602002602001015181526020019081526020016000206000828254613a6a91906149a5565b90915550613a7990508161451f565b9050613a0c565b505b6001600160a01b03841661247b5760005b8351811015612810576000848281518110613ab057613ab06144f3565b602002602001015190506000848381518110613ace57613ace6144f3565b60200260200101519050600060fb600084815260200190815260200160002054905081811015613b665760405162461bcd60e51b815260206004820152602860248201527f455243313135353a206275726e20616d6f756e74206578636565647320746f7460448201527f616c537570706c790000000000000000000000000000000000000000000000006064820152608401610705565b600092835260fb602052604090922091039055613b828161451f565b9050613a93565b828054613b95906144b8565b90600052602060002090601f016020900481019282613bb75760008555613bfd565b82601f10613bd057805160ff1916838001178555613bfd565b82800160010185558215613bfd579182015b82811115613bfd578251825591602001919060010190613be2565b50613c09929150613c0d565b5090565b5b80821115613c095760008155600101613c0e565b80356001600160a01b0381168114612a1d57600080fd5b60008060408385031215613c4c57600080fd5b613c5583613c22565b946020939093013593505050565b6001600160e01b03198116811461082457600080fd5b600060208284031215613c8b57600080fd5b8135613c9681613c63565b9392505050565b634e487b7160e01b600052604160045260246000fd5b60a0810181811067ffffffffffffffff82111715613cd357613cd3613c9d565b60405250565b601f8201601f1916810167ffffffffffffffff81118282101715613cff57613cff613c9d565b6040525050565b600067ffffffffffffffff821115613d2057613d20613c9d565b50601f01601f191660200190565b600082601f830112613d3f57600080fd5b8135613d4a81613d06565b604051613d578282613cd9565b828152856020848701011115613d6c57600080fd5b82602086016020830137600092810160200192909252509392505050565b600060208284031215613d9c57600080fd5b813567ffffffffffffffff811115613db357600080fd5b613dbf84828501613d2e565b949350505050565b600060208284031215613dd957600080fd5b613c9682613c22565b600060208284031215613df457600080fd5b5035919050565b60005b83811015613e16578181015183820152602001613dfe565b838111156109a65750506000910152565b60008151808452613e3f816020860160208601613dfb565b601f01601f19169290920160200192915050565b602081526000613c966020830184613e27565b600067ffffffffffffffff821115613e8057613e80613c9d565b5060051b60200190565b600082601f830112613e9b57600080fd5b81356020613ea882613e66565b604051613eb58282613cd9565b83815260059390931b8501820192828101915086841115613ed557600080fd5b8286015b84811015613ef05780358352918301918301613ed9565b509695505050505050565b60008060008060808587031215613f1157600080fd5b613f1a85613c22565b9350602085013567ffffffffffffffff80821115613f3757600080fd5b613f4388838901613e8a565b94506040870135915080821115613f5957600080fd5b613f6588838901613e8a565b93506060870135915080821115613f7b57600080fd5b50613f8887828801613d2e565b91505092959194509250565b600080600080600060a08688031215613fac57600080fd5b613fb586613c22565b9450613fc360208701613c22565b9350604086013567ffffffffffffffff80821115613fe057600080fd5b613fec89838a01613e8a565b9450606088013591508082111561400257600080fd5b61400e89838a01613e8a565b9350608088013591508082111561402457600080fd5b5061403188828901613d2e565b9150509295509295909350565b6000806040838503121561405157600080fd5b823567ffffffffffffffff8082111561406957600080fd5b818501915085601f83011261407d57600080fd5b8135602061408a82613e66565b6040516140978282613cd9565b83815260059390931b85018201928281019150898411156140b757600080fd5b948201945b838610156140dc576140cd86613c22565b825294820194908201906140bc565b965050860135925050808211156140f257600080fd5b506140ff85828601613e8a565b9150509250929050565b600081518084526020808501945080840160005b838110156141395781518752958201959082019060010161411d565b509495945050505050565b602081526000613c966020830184614109565b6000806040838503121561416a57600080fd5b82359150602083013567ffffffffffffffff81111561418857600080fd5b6140ff85828601613d2e565b6000806000606084860312156141a957600080fd5b6141b284613c22565b9250602084013567ffffffffffffffff808211156141cf57600080fd5b6141db87838801613e8a565b935060408601359150808211156141f157600080fd5b506141fe86828701613e8a565b9150509250925092565b6000806000806080858703121561421e57600080fd5b61422785613c22565b93506020850135925060408501359150606085013567ffffffffffffffff81111561425157600080fd5b613f8887828801613d2e565b801515811461082457600080fd5b6000806040838503121561427e57600080fd5b61428783613c22565b915060208301356142978161425d565b809150509250929050565b80518252602081015160208301526000604082015160a060408501526142cb60a0850182614109565b9050606083015160608501526080830151151560808501528091505092915050565b602081526000613c9660208301846142a2565b6000806040838503121561431357600080fd5b61431c83613c22565b915061432a60208401613c22565b90509250929050565b600080600080600060a0868803121561434b57600080fd5b61435486613c22565b945061436260208701613c22565b93506040860135925060608601359150608086013567ffffffffffffffff81111561438c57600080fd5b61403188828901613d2e565b6000806000606084860312156143ad57600080fd5b6143b684613c22565b95602085013595506040909401359392505050565b60008083601f8401126143dd57600080fd5b50813567ffffffffffffffff8111156143f557600080fd5b60208301915083602082850101111561440d57600080fd5b9250929050565b60008060008060008060008060c0898b03121561443057600080fd5b8835975060208901359650604089013567ffffffffffffffff8082111561445657600080fd5b6144628c838d016143cb565b909850965060608b013591508082111561447b57600080fd5b506144888b828c016143cb565b909550935061449b905060808a01613c22565b91506144a960a08a01613c22565b90509295985092959890939650565b600181811c908216806144cc57607f821691505b602082108114156144ed57634e487b7160e01b600052602260045260246000fd5b50919050565b634e487b7160e01b600052603260045260246000fd5b634e487b7160e01b600052601160045260246000fd5b600060001982141561453357614533614509565b5060010190565b8051612a1d8161425d565b6000602080838503121561455857600080fd5b825167ffffffffffffffff8082111561457057600080fd5b9084019060a0828703121561458457600080fd5b60405161459081613cb3565b8251815283830151848201526040830151828111156145ae57600080fd5b83019150601f820187136145c157600080fd5b81516145cc81613e66565b6040516145d98282613cd9565b82815260059290921b84018601918681019150898311156145f957600080fd5b938601935b82851015614617578451825293860193908601906145fe565b60408401525050606083810151908201526146346080840161453a565b60808201529695505050505050565b6001600160a01b0383168152604060208201526000613dbf60408301846142a2565b6001600160a01b038416815260606020820152600061468760608301856142a2565b9050826040830152949350505050565b6000602082840312156146a957600080fd5b5051919050565b6001600160a01b038416815260e0602082015260006146d260e08301856142a2565b9050613dbf6040830184805182526020810151602083015260408101516040830152606081015160608301526080810151151560808301525050565b600060a0828403121561472057600080fd5b60405160a0810181811067ffffffffffffffff8211171561474357614743613c9d565b80604052508251815260208301516020820152604083015160408201526060830151606082015260808301516147788161425d565b60808201529392505050565b60408152600061479760408301856142a2565b90508260208301529392505050565b60c081016147e18285805182526020810151602083015260408101516040830152606081015160608301526080810151151560808301525050565b8260a08301529392505050565b82815260c08101613c966020830184805182526020810151602083015260408101516040830152606081015160608301526080810151151560808301525050565b60006020828403121561484157600080fd5b815167ffffffffffffffff81111561485857600080fd5b8201601f8101841361486957600080fd5b805161487481613d06565b6040516148818282613cd9565b82815286602084860101111561489657600080fd5b6148a7836020830160208701613dfb565b9695505050505050565b60006101006001600160a01b03871683528060208401526148d4818401876142a2565b9150506149116040830185805182526020810151602083015260408101516040830152606081015160608301526080810151151560808301525050565b8260e083015295945050505050565b81835281816020850137506000828201602090810191909152601f909101601f19169091010190565b88815287602082015260c06040820152600061496960c08301888a614920565b828103606084015261497c818789614920565b9150506001600160a01b03808516608084015280841660a0840152509998505050505050505050565b600082198211156149b8576149b8614509565b500190565b6040815260006149d06040830185614109565b82810360208401526149e28185614109565b95945050505050565b60006001600160a01b03808816835280871660208401525060a06040830152614a1760a0830186614109565b8281036060840152614a298186614109565b90508281036080840152614a3d8185613e27565b98975050505050505050565b600060208284031215614a5b57600080fd5b8151613c9681613c63565b600060033d1115611ffc5760046000803e5060005160e01c90565b600060443d1015614a8f5790565b6040516003193d81016004833e81513d67ffffffffffffffff8160248401118184111715614abf57505050505090565b8285019150815181811115614ad75750505050505090565b843d8701016020828501011115614af15750505050505090565b614b0060208286010187613cd9565b509095945050505050565b60006001600160a01b03808816835280871660208401525084604083015283606083015260a06080830152614b4360a0830184613e27565b97965050505050505056fe4f776e61626c653a2063616c6c6572206973206e6f7420746865206f776e6572a2646970667358221220aa16b1a3d39dd662b6d8cdb263d308f908a83c826856915925aef2666135506464736f6c6343000809003360806040526065805460ff1916905534801561001a57600080fd5b50610023610028565b610099565b60655460ff161561007f5760405162461bcd60e51b815260206004820152601d60248201527f436f6e747261637420616c726561647920696e697469616c697a65642e000000604482015260640160405180910390fd5b6103e860668190556067556065805460ff19166001179055565b6117bd806100a86000396000f3fe608060405234801561001057600080fd5b50600436106101005760003560e01c8063715018a6116100975780639778e0b3116100665780639778e0b3146102d6578063e1d1ad12146102e9578063e5999139146102fc578063f2fde38b1461030f57600080fd5b8063715018a6146102365780637b16869c1461023e5780638da5cb5b146102515780638dd2361c1461026c57600080fd5b806330242454116100d357806330242454146101f25780633fcd0c3714610207578063571765151461021a57806358ac00381461022d57600080fd5b806309e69ede1461010557806311622ce5146101645780631fec8c0214610184578063229e04c8146101db575b600080fd5b61013d61011336600461144a565b60686020526000908152604090208054600182015460038301546004909301549192909160ff1684565b60408051948552602085019390935291830152151560608201526080015b60405180910390f35b61017761017236600461144a565b610322565b60405161015b919061146c565b6101976101923660046114f2565b610598565b60405161015b9190600060a0820190508251825260208301516020830152604083015160408301526060830151606083015260808301511515608083015292915050565b6101e460675481565b60405190815260200161015b565b6102056102003660046114f2565b6106bf565b005b610177610215366004611523565b61071e565b610197610228366004611571565b61094e565b6101e460665481565b610205610b30565b61019761024c3660046114f2565b610b96565b6033546040516001600160a01b03909116815260200161015b565b6102ac61027a3660046114f2565b606960205260009081526040902080546001820154600283015460038401546004909401549293919290919060ff1685565b6040805195865260208601949094529284019190915260608301521515608082015260a00161015b565b6101776102e436600461144a565b610daa565b6101976102f73660046114f2565b610f9c565b61017761030a36600461144a565b61115c565b61020561031d36600461144a565b611287565b6103566040518060a00160405280600081526020016000815260200160608152602001600081526020016000151581525090565b6033546001600160a01b031633146103b55760405162461bcd60e51b815260206004820181905260248201527f4f776e61626c653a2063616c6c6572206973206e6f7420746865206f776e657260448201526064015b60405180910390fd5b6001600160a01b0382166000908152606860209081526040808320815160a0810183528154815260018201548185015260028201805484518187028101870186528181529295939486019383018282801561042f57602002820191906000526020600020905b81548152602001906001019080831161041b575b50505091835250506003820154602082015260049091015460ff1615156040909101526080810151909150156104a75760405162461bcd60e51b815260206004820152601b60248201527f5061727469636970616e7420616c7265616479206578697374732e000000000060448201526064016103ac565b6104db6040518060a00160405280600081526020016000815260200160608152602001600081526020016000151581525090565b60008082526020808301828152606084018390526001608085018190526001600160a01b038816845260688352604093849020855181559151908201559183015180518493926105329260028501929101906113d3565b50606082015160038201556080909101516004909101805460ff19169115159190911790556040517fa264353b4d8dc876f7a9e4030a7dbc206124e120101dd032f4ef2bcabb15ec4b9061058790839061146c565b60405180910390a19150505b919050565b6105cc6040518060a00160405280600081526020016000815260200160008152602001600081526020016000151581525090565b600082815260696020908152604091829020825160a081018452815481526001820154928101929092526002810154928201929092526003820154606082015260049091015460ff1615156080820181905261066a5760405162461bcd60e51b815260206004820152601560248201527f506c616e7420646f6573206e6f742065786973742e000000000000000000000060448201526064016103ac565b5050600090815260696020908152604091829020825160a081018452815481526001820154928101929092526002810154928201929092526003820154606082015260049091015460ff161515608082015290565b6033546001600160a01b031633146107195760405162461bcd60e51b815260206004820181905260248201527f4f776e61626c653a2063616c6c6572206973206e6f7420746865206f776e657260448201526064016103ac565b606755565b6107526040518060a00160405280600081526020016000815260200160608152602001600081526020016000151581525090565b6033546001600160a01b031633146107ac5760405162461bcd60e51b815260206004820181905260248201527f4f776e61626c653a2063616c6c6572206973206e6f7420746865206f776e657260448201526064016103ac565b6001600160a01b0383166000908152606860209081526040808320815160a0810183528154815260018201548185015260028201805484518187028101870186528181529295939486019383018282801561082657602002820191906000526020600020905b815481526020019060010190808311610812575b50505091835250506003820154602082015260049091015460ff161515604090910152608081015190915061089d5760405162461bcd60e51b815260206004820152601b60248201527f5061727469636970616e7420646f6573206e6f742065786973742e000000000060448201526064016103ac565b6108a683611637565b6001600160a01b0385166000908152606860209081526040918290208351815581840151600182015591830151805193945084936108ea92600285019201906113d3565b50606082015160038201556080909101516004909101805460ff19169115159190911790556040517fbde0b5f6c349605083550b6ae7537d272caa80d602b2953848ce00156a594b2d9061093f90839061146c565b60405180910390a19392505050565b6109826040518060a00160405280600081526020016000815260200160008152602001600081526020016000151581525090565b6033546001600160a01b031633146109dc5760405162461bcd60e51b815260206004820181905260248201527f4f776e61626c653a2063616c6c6572206973206e6f7420746865206f776e657260448201526064016103ac565b600083815260696020908152604091829020825160a081018452815481526001820154928101929092526002810154928201929092526003820154606082015260049091015460ff16151560808201819052610a7a5760405162461bcd60e51b815260206004820152601560248201527f506c616e7420646f6573206e6f742065786973742e000000000000000000000060448201526064016103ac565b610a8936849003840184611713565b600085815260696020908152604091829020835180825584830180516001840155858501805160028501556060808801805160038701556080808a0180516004909801805460ff1916981515989098179097558851958652935196850196909652905195830195909552925193810193909352511515908201529091507f55bf2566c2dd3965de515a5b2fb036fd69ce0893ac5e8ad62121064c03887f3a9060a00161093f565b6033546001600160a01b03163314610b8a5760405162461bcd60e51b815260206004820181905260248201527f4f776e61626c653a2063616c6c6572206973206e6f7420746865206f776e657260448201526064016103ac565b610b946000611369565b565b610bca6040518060a00160405280600081526020016000815260200160008152602001600081526020016000151581525090565b6033546001600160a01b03163314610c245760405162461bcd60e51b815260206004820181905260248201527f4f776e61626c653a2063616c6c6572206973206e6f7420746865206f776e657260448201526064016103ac565b600082815260696020908152604091829020825160a081018452815481526001820154928101929092526002810154928201929092526003820154606082015260049091015460ff161580156080830152610cc15760405162461bcd60e51b815260206004820152601560248201527f506c616e7420616c7265616479206578697374732e000000000000000000000060448201526064016103ac565b610cf56040518060a00160405280600081526020016000815260200160008152602001600081526020016000151581525090565b6000808252602080830182815260036040808601828152606460608089019182528b88526069875296839020885180825586516001830155835160028301558251958201959095556080808a0180516004909301805460ff1916931515939093179092558451958652955196850196909652905191830191909152519381019390935290511515908201527f68fc3804c4a15e9c4c95952cc9077b7368ac270150deb7da2920322d82f648049060a001610587565b610dde6040518060a00160405280600081526020016000815260200160608152602001600081526020016000151581525090565b6033546001600160a01b03163314610e385760405162461bcd60e51b815260206004820181905260248201527f4f776e61626c653a2063616c6c6572206973206e6f7420746865206f776e657260448201526064016103ac565b6001600160a01b0382166000908152606860209081526040808320815160a08101835281548152600182015481850152600282018054845181870281018701865281815292959394860193830182828015610eb257602002820191906000526020600020905b815481526020019060010190808311610e9e575b50505091835250506003820154602082015260049091015460ff1615156040909101526080810151909150610f295760405162461bcd60e51b815260206004820152601b60248201527f5061727469636970616e7420646f6573206e6f742065786973742e000000000060448201526064016103ac565b610f5d6040518060a00160405280600081526020016000815260200160608152602001600081526020016000151581525090565b90507fd0a3d2d8946fb042e4542a54d3647344add244d38811d62cad6f4398f56ab0c481604051610f8e919061146c565b60405180910390a192915050565b610fd06040518060a00160405280600081526020016000815260200160008152602001600081526020016000151581525090565b6033546001600160a01b0316331461102a5760405162461bcd60e51b815260206004820181905260248201527f4f776e61626c653a2063616c6c6572206973206e6f7420746865206f776e657260448201526064016103ac565b600082815260696020908152604091829020825160a081018452815481526001820154928101929092526002810154928201929092526003820154606082015260049091015460ff161515608082018190526110c85760405162461bcd60e51b815260206004820152601560248201527f506c616e7420646f6573206e6f742065786973742e000000000000000000000060448201526064016103ac565b6110fc6040518060a00160405280600081526020016000815260200160008152602001600081526020016000151581525090565b6040805182518152602080840151908201528183015191810191909152606080830151908201526080808301511515908201529091507f936baf471dcef319d10b9521f71ec0f4ce18632f2ea784d49f23a4ec8120c8069060a001610f8e565b6111906040518060a00160405280600081526020016000815260200160608152602001600081526020016000151581525090565b6001600160a01b0382166000908152606860209081526040808320815160a0810183528154815260018201548185015260028201805484518187028101870186528181529295939486019383018282801561120a57602002820191906000526020600020905b8154815260200190600101908083116111f6575b50505091835250506003820154602082015260049091015460ff16151560409091015260808101519091506112815760405162461bcd60e51b815260206004820152601b60248201527f5061727469636970616e7420646f6573206e6f742065786973742e000000000060448201526064016103ac565b92915050565b6033546001600160a01b031633146112e15760405162461bcd60e51b815260206004820181905260248201527f4f776e61626c653a2063616c6c6572206973206e6f7420746865206f776e657260448201526064016103ac565b6001600160a01b03811661135d5760405162461bcd60e51b815260206004820152602660248201527f4f776e61626c653a206e6577206f776e657220697320746865207a65726f206160448201527f646472657373000000000000000000000000000000000000000000000000000060648201526084016103ac565b61136681611369565b50565b603380546001600160a01b038381167fffffffffffffffffffffffff0000000000000000000000000000000000000000831681179093556040519116919082907f8be0079c531659141344cd1fd0a4f28419497f9722a3daafe3b4186f6b6457e090600090a35050565b82805482825590600052602060002090810192821561140e579160200282015b8281111561140e5782518255916020019190600101906113f3565b5061141a92915061141e565b5090565b5b8082111561141a576000815560010161141f565b80356001600160a01b038116811461059357600080fd5b60006020828403121561145c57600080fd5b61146582611433565b9392505050565b6000602080835260c08301845182850152818501516040850152604085015160a0606086015281815180845260e0870191508483019350600092505b808310156114c857835182529284019260019290920191908401906114a8565b5060608701516080870152608087015193506114e860a087018515159052565b9695505050505050565b60006020828403121561150457600080fd5b5035919050565b600060a0828403121561151d57600080fd5b50919050565b6000806040838503121561153657600080fd5b61153f83611433565b9150602083013567ffffffffffffffff81111561155b57600080fd5b6115678582860161150b565b9150509250929050565b60008060c0838503121561158457600080fd5b82359150611595846020850161150b565b90509250929050565b7f4e487b7100000000000000000000000000000000000000000000000000000000600052604160045260246000fd5b60405160a0810167ffffffffffffffff811182821017156115f0576115f061159e565b60405290565b604051601f8201601f1916810167ffffffffffffffff8111828210171561161f5761161f61159e565b604052919050565b8035801515811461059357600080fd5b600060a0823603121561164957600080fd5b6116516115cd565b8235815260208084013581830152604084013567ffffffffffffffff8082111561167a57600080fd5b9085019036601f83011261168d57600080fd5b81358181111561169f5761169f61159e565b8060051b91506116b08483016115f6565b81815291830184019184810190368411156116ca57600080fd5b938501935b838510156116e8578435825293850193908501906116cf565b604087015250505050506060838101359082015261170860808401611627565b608082015292915050565b600060a0828403121561172557600080fd5b60405160a0810181811067ffffffffffffffff821117156117485761174861159e565b80604052508235815260208301356020820152604083013560408201526060830135606082015261177b60808401611627565b6080820152939250505056fea264697066735822122072d0df61b41e0fee5167b9b442cd53503886db7b0b017d1656168c0695a61dd964736f6c63430008090033608060405234801561001057600080fd5b506109e8806100206000396000f3fe608060405234801561001057600080fd5b50600436106100725760003560e01c806385dc309a1161005057806385dc309a14610117578063a3dac6291461012a578063ddf62c141461013d57600080fd5b806358e5d9cf1461007757806367a58d62146100d75780636c6fa442146100f7575b600080fd5b61008a610085366004610644565b61015e565b6040516100ce9190600060a0820190508251825260208301516020830152604083015160408301526060830151606083015260808301511515608083015292915050565b60405180910390f35b6100ea6100e5366004610644565b610220565b6040516100ce91906106e0565b61010a610105366004610713565b61028e565b6040516100ce9190610816565b61010a610125366004610713565b610393565b61010a610138366004610713565b610476565b61015061014b366004610713565b61059d565b6040519081526020016100ce565b6101926040518060a00160405280600081526020016000815260200160008152602001600081526020016000151581525090565b82606001518284602001516101a791906108b2565b10156101c3578183602001516101bd91906108b2565b60208401525b82606001518284602001516101d891906108b2565b1115610219576001836000018181516101f191906108b2565b905250606083015160208401516102099084906108b2565b61021391906108ca565b60208401525b5090919050565b604080518082018252600981527f697066732f6e66742f0000000000000000000000000000000000000000000000602080830191909152845185840151935160609460009361027593869389939192016108e1565b60408051808303601f1901815291905295945050505050565b6102c26040518060a00160405280600081526020016000815260200160608152602001600081526020016000151581525090565b600060018460400151516102d691906108ca565b67ffffffffffffffff8111156102ee576102ee6105bf565b604051908082528060200260200182016040528015610317578160200160208202803683370190505b50905060005b8460400151518110156103865760008560400151828151811061034257610342610940565b60200260200101519050848114610373578083838151811061036657610366610940565b6020026020010181815250505b508061037e81610956565b91505061031d565b5060408401525090919050565b6103c76040518060a00160405280600081526020016000815260200160608152602001600081526020016000151581525090565b82516000906103d890600590610971565b84516103e491906108b2565b6103f0906103e8610993565b90508083856020015161040391906108b2565b101561041f5782846020015161041991906108b2565b60208501525b8083856020015161043091906108b2565b111561046e5760018460000181815161044991906108b2565b9052506020840151819061045e9085906108b2565b61046891906108ca565b60208501525b509192915050565b6104aa6040518060a00160405280600081526020016000815260200160608152602001600081526020016000151581525090565b600083604001515160016104be91906108b2565b67ffffffffffffffff8111156104d6576104d66105bf565b6040519080825280602002602001820160405280156104ff578160200160208202803683370190505b50905060005b8460400151518110156105655760008560400151828151811061052a5761052a610940565b602002602001015190508083838151811061054757610547610940565b6020908102919091010152508061055d81610956565b915050610505565b5082818251600161057691906108b2565b8151811061058657610586610940565b602090810291909101015260408401525090919050565b81516000906105ae90600a90610971565b6105b89083610993565b9392505050565b634e487b7160e01b600052604160045260246000fd5b60405160a0810167ffffffffffffffff811182821017156105f8576105f86105bf565b60405290565b604051601f8201601f1916810167ffffffffffffffff81118282101715610627576106276105bf565b604052919050565b8035801515811461063f57600080fd5b919050565b60008082840360c081121561065857600080fd5b60a081121561066657600080fd5b5061066f6105d5565b8335815260208401356020820152604084013560408201526060840135606082015261069d6080850161062f565b60808201529460a0939093013593505050565b60005b838110156106cb5781810151838201526020016106b3565b838111156106da576000848401525b50505050565b60208152600082518060208401526106ff8160408501602087016106b0565b601f01601f19169190910160400192915050565b6000806040838503121561072657600080fd5b823567ffffffffffffffff8082111561073e57600080fd5b9084019060a0828703121561075257600080fd5b61075a6105d5565b823581526020808401358183015260408401358381111561077a57600080fd5b8401601f8101891361078b57600080fd5b80358481111561079d5761079d6105bf565b8060051b94506107ae8386016105fe565b818152948201830194838101908b8711156107c857600080fd5b928401925b868410156107e6578335825292840192908401906107cd565b6040860152505050606084810135908301526108046080850161062f565b60808301529097950135955050505050565b6000602080835260c08301845182850152818501516040850152604085015160a0606086015281815180845260e0870191508483019350600092505b808310156108725783518252928401926001929092019190840190610852565b50606087015160808701526080870151935061089260a087018515159052565b9695505050505050565b634e487b7160e01b600052601160045260246000fd5b600082198211156108c5576108c561089c565b500190565b6000828210156108dc576108dc61089c565b500390565b600085516108f3818460208a016106b0565b91909101938452507f2d0000000000000000000000000000000000000000000000000000000000000060208401819052602184019290925260418301919091526042820152606201919050565b634e487b7160e01b600052603260045260246000fd5b600060001982141561096a5761096a61089c565b5060010190565b60008261098e57634e487b7160e01b600052601260045260246000fd5b500490565b60008160001904831182151516156109ad576109ad61089c565b50029056fea2646970667358221220f4236ae994770f6d05b36dc851ab8ecce488340b3d22a9c728c369240ddeb97364736f6c634300080900336080604052600160045534801561001557600080fd5b50338060008161006c5760405162461bcd60e51b815260206004820152601860248201527f43616e6e6f7420736574206f776e657220746f207a65726f000000000000000060448201526064015b60405180910390fd5b600680546001600160a01b0319166001600160a01b038481169190911790915581161561009c5761009c8161011c565b5050506100c273326c977e6efc84e512bb9c30f76e30c160ed06fb6101c760201b60201c565b600380546001600160a01b03191673c8d925525ca8759812d0c299b90247917d4d4b7c1790557f6134666639383339376461333435363539363863663737356132393339343063600f55662386f26fc100006010556101e9565b6001600160a01b0381163314156101755760405162461bcd60e51b815260206004820152601760248201527f43616e6e6f74207472616e7366657220746f2073656c660000000000000000006044820152606401610063565b600780546001600160a01b0319166001600160a01b03838116918217909255600654604051919216907fed8889f560326eb138920d842192f0eb3dd22b4f139c87a2c57538e05bae127890600090a350565b600280546001600160a01b0319166001600160a01b0392909216919091179055565b6115d580620001f96000396000f3fe608060405234801561001057600080fd5b50600436106100c95760003560e01c80638da5cb5b11610081578063c5cad3a11161005b578063c5cad3a114610189578063d83d170c1461019c578063f2fde38b146101a557600080fd5b80638da5cb5b1461015d5780638dc654a214610178578063c133ae981461018057600080fd5b80636d811e71116100b25780636d811e711461012b578063709770b71461014257806379ba50971461015557600080fd5b806337db7fae146100ce578063593b79fe146100e3575b600080fd5b6100e16100dc3660046110fa565b6101b8565b005b6101156100f1366004611148565b604080516001600160a01b0392909216600560a21b18601483015260348201905290565b60405161012291906111bb565b60405180910390f35b61013460095481565b604051908152602001610122565b6100e1610150366004611148565b6102e1565b6100e1610508565b6006546040516001600160a01b039091168152602001610122565b6100e16105bd565b61013460085481565b6100e1610197366004611217565b610743565b610134600a5481565b6100e16101b3366004611148565b6107a3565b60008481526005602052604090205484906001600160a01b0316331461024b5760405162461bcd60e51b815260206004820152602860248201527f536f75726365206d75737420626520746865206f7261636c65206f662074686560448201527f207265717565737400000000000000000000000000000000000000000000000060648201526084015b60405180910390fd5b60008181526005602052604080822080546001600160a01b03191690555182917f7cc135e0cebb02c3480ae5d74d377283180a2601f8f644edf7987b009316c63a91a2604080518581526020810185905290810183905285907f1ed77f15bedb9f2e18446e63e8c9f73d9c3bb15fb83afc3c4ee9842050c6377e9060600160405180910390a250600892909255600955600a5550565b6102e96107b4565b60006102ff600f54306337db7fae60e01b610810565b60408051600560a21b6001600160a01b0386161860148201526074810182526003603482019081526219d95d60ea1b6054830152915192935091610364919061034c9084906020016112bb565b60408051601f198184030181529190528491906108a1565b6103ca604051806040016040528060048152602001630e0c2e8d60e31b8152506040518060400160405280600d81526020017f726567696f6e4176657261676500000000000000000000000000000000000000815250846108a19092919063ffffffff16565b6103fa6040518060400160405280600381526020016219d95d60ea1b8152508260405160200161034c91906112bb565b610460604051806040016040528060048152602001630e0c2e8d60e31b8152506040518060400160405280600581526020017f7573616765000000000000000000000000000000000000000000000000000000815250846108a19092919063ffffffff16565b6104906040518060400160405280600381526020016219d95d60ea1b8152508260405160200161034c91906112bb565b6104f6604051806040016040528060048152602001630e0c2e8d60e31b8152506040518060400160405280600a81526020017f66616d696c7953697a6500000000000000000000000000000000000000000000815250846108a19092919063ffffffff16565b610502826010546108c4565b50505050565b6007546001600160a01b031633146105625760405162461bcd60e51b815260206004820152601660248201527f4d7573742062652070726f706f736564206f776e6572000000000000000000006044820152606401610242565b600680546001600160a01b0319808216339081179093556007805490911690556040516001600160a01b03909116919082907f8be0079c531659141344cd1fd0a4f28419497f9722a3daafe3b4186f6b6457e090600090a350565b6105c56107b4565b60006105d96002546001600160a01b031690565b6040517f70a082310000000000000000000000000000000000000000000000000000000081523060048201529091506001600160a01b0382169063a9059cbb90339083906370a082319060240160206040518083038186803b15801561063e57600080fd5b505afa158015610652573d6000803e3d6000fd5b505050506040513d601f19601f820116820180604052508101906106769190611326565b6040516001600160e01b031960e085901b1681526001600160a01b0390921660048301526024820152604401602060405180830381600087803b1580156106bc57600080fd5b505af11580156106d0573d6000803e3d6000fd5b505050506040513d601f19601f820116820180604052508101906106f4919061133f565b6107405760405162461bcd60e51b815260206004820152601260248201527f556e61626c6520746f207472616e7366657200000000000000000000000000006044820152606401610242565b50565b61074b6107b4565b600f8890556010879055610761600b8787611061565b5061076e600c8585611061565b50600d80546001600160a01b039384166001600160a01b031991821617909155600e8054929093169116179055505050505050565b6107ab6107b4565b610740816108e7565b6006546001600160a01b0316331461080e5760405162461bcd60e51b815260206004820152601660248201527f4f6e6c792063616c6c61626c65206279206f776e6572000000000000000000006044820152606401610242565b565b61084e6040805160a0810182526000808252602080830182905282840182905260608084018390528451808601909552845283015290608082015290565b61088c6040805160a0810182526000808252602080830182905282840182905260608084018390528451808601909552845283015290608082015290565b61089881868686610992565b95945050505050565b60808301516108b09083610a0e565b60808301516108bf9082610a0e565b505050565b6003546000906108de906001600160a01b03168484610a25565b90505b92915050565b6001600160a01b0381163314156109405760405162461bcd60e51b815260206004820152601760248201527f43616e6e6f74207472616e7366657220746f2073656c660000000000000000006044820152606401610242565b600780546001600160a01b0319166001600160a01b03838116918217909255600654604051919216907fed8889f560326eb138920d842192f0eb3dd22b4f139c87a2c57538e05bae127890600090a350565b6109d06040805160a0810182526000808252602080830182905282840182905260608084018390528451808601909552845283015290608082015290565b6109e08560800151610100610ae6565b50508284526001600160a01b03821660208501526001600160e01b031981166040850152835b949350505050565b610a1b8260038351610b4b565b6108bf8282610c5a565b600454600090610a3681600161137e565b600455835160408086015160808701515191516000937f404299460000000000000000000000000000000000000000000000000000000093610a879386938493923092918a91600191602401611396565b60408051601f198184030181529190526020810180517bffffffffffffffffffffffffffffffffffffffffffffffffffffffff166001600160e01b0319909316929092179091529050610adc86838684610c81565b9695505050505050565b604080518082019091526060815260006020820152610b066020836113fa565b15610b2e57610b166020836113fa565b610b2190602061141c565b610b2b908361137e565b91505b506020828101829052604080518085526000815290920101905290565b60178167ffffffffffffffff1611610b70576105028360e0600585901b168317610e21565b60ff8167ffffffffffffffff1611610bae57610b97836018611fe0600586901b1617610e21565b506105028367ffffffffffffffff83166001610e46565b61ffff8167ffffffffffffffff1611610bed57610bd6836019611fe0600586901b1617610e21565b506105028367ffffffffffffffff83166002610e46565b63ffffffff8167ffffffffffffffff1611610c2e57610c1783601a611fe0600586901b1617610e21565b506105028367ffffffffffffffff83166004610e46565b610c4383601b611fe0600586901b1617610e21565b506105028367ffffffffffffffff83166008610e46565b6040805180820190915260608152600060208201526108de83846000015151848551610e6c565b6040516bffffffffffffffffffffffff193060601b1660208201526034810184905260009060540160408051808303601f1901815282825280516020918201206000818152600590925291812080546001600160a01b0319166001600160a01b038a1617905590925082917fb5e6e01e79f91267dc17b4e6314d5d4d03593d2ceee0fbb452b750bd70ea5af99190a26002546040517f4000aea00000000000000000000000000000000000000000000000000000000081526001600160a01b0390911690634000aea090610d5d90889087908790600401611433565b602060405180830381600087803b158015610d7757600080fd5b505af1158015610d8b573d6000803e3d6000fd5b505050506040513d601f19601f82011682018060405250810190610daf919061133f565b610a065760405162461bcd60e51b815260206004820152602360248201527f756e61626c6520746f207472616e73666572416e6443616c6c20746f206f726160448201527f636c6500000000000000000000000000000000000000000000000000000000006064820152608401610242565b6040805180820190915260608152600060208201526108de8384600001515184610f56565b604080518082019091526060815260006020820152610a06848560000151518585610fb2565b6040805180820190915260608152600060208201528251821115610e8f57600080fd5b6020850151610e9e838661137e565b1115610ed157610ed185610ec187602001518786610ebc919061137e565b611033565b610ecc90600261145b565b61104a565b600080865180518760208301019350808887011115610ef05787860182525b505050602084015b60208410610f305780518252610f0f60208361137e565b9150610f1c60208261137e565b9050610f2960208561141c565b9350610ef8565b51815160001960208690036101000a019081169019919091161790525083949350505050565b60408051808201909152606081526000602082015283602001518310610f8b57610f8b8485602001516002610ecc919061145b565b835180516020858301018481535080851415610fa8576001810182525b5093949350505050565b6040805180820190915260608152600060208201526020850151610fd6858461137e565b1115610fea57610fea85610ec1868561137e565b60006001610ffa8461010061155e565b611004919061141c565b90508551838682010185831982511617815250805184870111156110285783860181525b509495945050505050565b6000818311156110445750816108e1565b50919050565b81516110568383610ae6565b506105028382610c5a565b82805461106d9061156a565b90600052602060002090601f01602090048101928261108f57600085556110d5565b82601f106110a85782800160ff198235161785556110d5565b828001600101855582156110d5579182015b828111156110d55782358255916020019190600101906110ba565b506110e19291506110e5565b5090565b5b808211156110e157600081556001016110e6565b6000806000806080858703121561111057600080fd5b5050823594602084013594506040840135936060013592509050565b80356001600160a01b038116811461114357600080fd5b919050565b60006020828403121561115a57600080fd5b6108de8261112c565b60005b8381101561117e578181015183820152602001611166565b838111156105025750506000910152565b600081518084526111a7816020860160208601611163565b601f01601f19169290920160200192915050565b6020815260006108de602083018461118f565b60008083601f8401126111e057600080fd5b50813567ffffffffffffffff8111156111f857600080fd5b60208301915083602082850101111561121057600080fd5b9250929050565b60008060008060008060008060c0898b03121561123357600080fd5b8835975060208901359650604089013567ffffffffffffffff8082111561125957600080fd5b6112658c838d016111ce565b909850965060608b013591508082111561127e57600080fd5b5061128b8b828c016111ce565b909550935061129e905060808a0161112c565b91506112ac60a08a0161112c565b90509295985092959890939650565b7f68747470733a2f2f6170692e706c61792d6b6f6a6f2e78797a2f6170692f666181527f7279732f6c61746573742f00000000000000000000000000000000000000000060208201526000825161131981602b850160208701611163565b91909101602b0192915050565b60006020828403121561133857600080fd5b5051919050565b60006020828403121561135157600080fd5b8151801515811461136157600080fd5b9392505050565b634e487b7160e01b600052601160045260246000fd5b6000821982111561139157611391611368565b500190565b60006101006001600160a01b03808c1684528a60208501528960408501528089166060850152506001600160e01b0319871660808401528560a08401528460c08401528060e08401526113eb8184018561118f565b9b9a5050505050505050505050565b60008261141757634e487b7160e01b600052601260045260246000fd5b500690565b60008282101561142e5761142e611368565b500390565b6001600160a01b0384168152826020820152606060408201526000610898606083018461118f565b600081600019048311821515161561147557611475611368565b500290565b600181815b808511156114b557816000190482111561149b5761149b611368565b808516156114a857918102915b93841c939080029061147f565b509250929050565b6000826114cc575060016108e1565b816114d9575060006108e1565b81600181146114ef57600281146114f957611515565b60019150506108e1565b60ff84111561150a5761150a611368565b50506001821b6108e1565b5060208310610133831016604e8410600b8410161715611538575081810a6108e1565b611542838361147a565b806000190482111561155657611556611368565b029392505050565b60006108de83836114bd565b600181811c9082168061157e57607f821691505b6020821081141561104457634e487b7160e01b600052602260045260246000fdfea2646970667358221220226c814bc65d9b7269bce6608105bd7fc7aecfc9eba6d89ccd0df75dc780499d64736f6c63430008090033496e697469616c697a61626c653a20636f6e747261637420697320616c726561",
  "linkReferences": {},
  "deployedLinkReferences": {}
}