{
  "_format": "hh-sol-artifact-1",
  "contractName": "KojoV1",
  "sourceName": "contracts/KojoV1.sol",
  "abi": [
    {
      "anonymous": false,
      "inputs": [
        {
          "indexed": true,
          "internalType": "address",
          "name": "account",
          "type": "address"
        },
        {
          "indexed": true,
          "internalType": "address",
          "name": "operator",
          "type": "address"
        },
        {
          "indexed": false,
          "internalType": "bool",
          "name": "approved",
          "type": "bool"
        }
      ],
      "name": "ApprovalForAll",
      "type": "event"
    },
    {
      "anonymous": false,
      "inputs": [
        {
          "indexed": false,
          "internalType": "uint8",
          "name": "version",
          "type": "uint8"
        }
      ],
      "name": "Initialized",
      "type": "event"
    },
    {
      "anonymous": false,
      "inputs": [
        {
          "indexed": true,
          "internalType": "address",
          "name": "previousOwner",
          "type": "address"
        },
        {
          "indexed": true,
          "internalType": "address",
          "name": "newOwner",
          "type": "address"
        }
      ],
      "name": "OwnershipTransferred",
      "type": "event"
    },
    {
      "anonymous": false,
      "inputs": [
        {
          "components": [
            {
              "internalType": "uint256",
              "name": "level",
              "type": "uint256"
            },
            {
              "internalType": "uint256",
              "name": "experiencePoints",
              "type": "uint256"
            },
            {
              "internalType": "uint256[]",
              "name": "plantIds",
              "type": "uint256[]"
            },
            {
              "internalType": "uint256",
              "name": "allowedTokenBalance",
              "type": "uint256"
            },
            {
              "internalType": "bool",
              "name": "isPresent",
              "type": "bool"
            }
          ],
          "indexed": false,
          "internalType": "struct Structs.Participant",
          "name": "participant",
          "type": "tuple"
        },
        {
          "components": [
            {
              "internalType": "uint256",
              "name": "typeId",
              "type": "uint256"
            },
            {
              "internalType": "uint256",
              "name": "level",
              "type": "uint256"
            },
            {
              "internalType": "uint256",
              "name": "experiencePoints",
              "type": "uint256"
            },
            {
              "internalType": "uint256",
              "name": "lifes",
              "type": "uint256"
            },
            {
              "internalType": "uint256",
              "name": "levelCost",
              "type": "uint256"
            },
            {
              "internalType": "bool",
              "name": "isPresent",
              "type": "bool"
            }
          ],
          "indexed": false,
          "internalType": "struct Structs.Plant",
          "name": "plant",
          "type": "tuple"
        }
      ],
      "name": "PlantMinted",
      "type": "event"
    },
    {
      "anonymous": false,
      "inputs": [
        {
          "components": [
            {
              "internalType": "uint256",
              "name": "level",
              "type": "uint256"
            },
            {
              "internalType": "uint256",
              "name": "experiencePoints",
              "type": "uint256"
            },
            {
              "internalType": "uint256[]",
              "name": "plantIds",
              "type": "uint256[]"
            },
            {
              "internalType": "uint256",
              "name": "allowedTokenBalance",
              "type": "uint256"
            },
            {
              "internalType": "bool",
              "name": "isPresent",
              "type": "bool"
            }
          ],
          "indexed": false,
          "internalType": "struct Structs.Participant",
          "name": "participant",
          "type": "tuple"
        },
        {
          "components": [
            {
              "internalType": "uint256",
              "name": "typeId",
              "type": "uint256"
            },
            {
              "internalType": "uint256",
              "name": "level",
              "type": "uint256"
            },
            {
              "internalType": "uint256",
              "name": "experiencePoints",
              "type": "uint256"
            },
            {
              "internalType": "uint256",
              "name": "lifes",
              "type": "uint256"
            },
            {
              "internalType": "uint256",
              "name": "levelCost",
              "type": "uint256"
            },
            {
              "internalType": "bool",
              "name": "isPresent",
              "type": "bool"
            }
          ],
          "indexed": false,
          "internalType": "struct Structs.Plant",
          "name": "plant",
          "type": "tuple"
        }
      ],
      "name": "PlantWatered",
      "type": "event"
    },
    {
      "anonymous": false,
      "inputs": [
        {
          "components": [
            {
              "internalType": "uint256",
              "name": "level",
              "type": "uint256"
            },
            {
              "internalType": "uint256",
              "name": "experiencePoints",
              "type": "uint256"
            },
            {
              "internalType": "uint256[]",
              "name": "plantIds",
              "type": "uint256[]"
            },
            {
              "internalType": "uint256",
              "name": "allowedTokenBalance",
              "type": "uint256"
            },
            {
              "internalType": "bool",
              "name": "isPresent",
              "type": "bool"
            }
          ],
          "indexed": false,
          "internalType": "struct Structs.Participant",
          "name": "participant",
          "type": "tuple"
        },
        {
          "indexed": false,
          "internalType": "uint256",
          "name": "amount",
          "type": "uint256"
        }
      ],
      "name": "TokensClaimed",
      "type": "event"
    },
    {
      "anonymous": false,
      "inputs": [
        {
          "indexed": true,
          "internalType": "address",
          "name": "operator",
          "type": "address"
        },
        {
          "indexed": true,
          "internalType": "address",
          "name": "from",
          "type": "address"
        },
        {
          "indexed": true,
          "internalType": "address",
          "name": "to",
          "type": "address"
        },
        {
          "indexed": false,
          "internalType": "uint256[]",
          "name": "ids",
          "type": "uint256[]"
        },
        {
          "indexed": false,
          "internalType": "uint256[]",
          "name": "values",
          "type": "uint256[]"
        }
      ],
      "name": "TransferBatch",
      "type": "event"
    },
    {
      "anonymous": false,
      "inputs": [
        {
          "indexed": true,
          "internalType": "address",
          "name": "operator",
          "type": "address"
        },
        {
          "indexed": true,
          "internalType": "address",
          "name": "from",
          "type": "address"
        },
        {
          "indexed": true,
          "internalType": "address",
          "name": "to",
          "type": "address"
        },
        {
          "indexed": false,
          "internalType": "uint256",
          "name": "id",
          "type": "uint256"
        },
        {
          "indexed": false,
          "internalType": "uint256",
          "name": "value",
          "type": "uint256"
        }
      ],
      "name": "TransferSingle",
      "type": "event"
    },
    {
      "anonymous": false,
      "inputs": [
        {
          "indexed": false,
          "internalType": "string",
          "name": "value",
          "type": "string"
        },
        {
          "indexed": true,
          "internalType": "uint256",
          "name": "id",
          "type": "uint256"
        }
      ],
      "name": "URI",
      "type": "event"
    },
    {
      "inputs": [
        {
          "internalType": "address",
          "name": "account",
          "type": "address"
        },
        {
          "internalType": "uint256",
          "name": "id",
          "type": "uint256"
        }
      ],
      "name": "balanceOf",
      "outputs": [
        {
          "internalType": "uint256",
          "name": "",
          "type": "uint256"
        }
      ],
      "stateMutability": "view",
      "type": "function"
    },
    {
      "inputs": [
        {
          "internalType": "address[]",
          "name": "accounts",
          "type": "address[]"
        },
        {
          "internalType": "uint256[]",
          "name": "ids",
          "type": "uint256[]"
        }
      ],
      "name": "balanceOfBatch",
      "outputs": [
        {
          "internalType": "uint256[]",
          "name": "",
          "type": "uint256[]"
        }
      ],
      "stateMutability": "view",
      "type": "function"
    },
    {
      "inputs": [],
      "name": "checkUpkeep",
      "outputs": [],
      "stateMutability": "view",
      "type": "function"
    },
    {
      "inputs": [
        {
          "internalType": "uint256",
          "name": "id",
          "type": "uint256"
        }
      ],
      "name": "exists",
      "outputs": [
        {
          "internalType": "bool",
          "name": "",
          "type": "bool"
        }
      ],
      "stateMutability": "view",
      "type": "function"
    },
    {
      "inputs": [],
      "name": "fungibleTokenId",
      "outputs": [
        {
          "internalType": "uint256",
          "name": "",
          "type": "uint256"
        }
      ],
      "stateMutability": "view",
      "type": "function"
    },
    {
      "inputs": [],
      "name": "handleBuyPlant",
      "outputs": [],
      "stateMutability": "payable",
      "type": "function"
    },
    {
      "inputs": [],
      "name": "handleClaimMonthlyReward",
      "outputs": [],
      "stateMutability": "nonpayable",
      "type": "function"
    },
    {
      "inputs": [],
      "name": "handleClaimStartTokens",
      "outputs": [],
      "stateMutability": "payable",
      "type": "function"
    },
    {
      "inputs": [],
      "name": "handleReadInititalAllowance",
      "outputs": [
        {
          "internalType": "uint256",
          "name": "",
          "type": "uint256"
        }
      ],
      "stateMutability": "view",
      "type": "function"
    },
    {
      "inputs": [
        {
          "internalType": "address",
          "name": "account",
          "type": "address"
        }
      ],
      "name": "handleReadParticipant",
      "outputs": [
        {
          "components": [
            {
              "internalType": "uint256",
              "name": "level",
              "type": "uint256"
            },
            {
              "internalType": "uint256",
              "name": "experiencePoints",
              "type": "uint256"
            },
            {
              "internalType": "uint256[]",
              "name": "plantIds",
              "type": "uint256[]"
            },
            {
              "internalType": "uint256",
              "name": "allowedTokenBalance",
              "type": "uint256"
            },
            {
              "internalType": "bool",
              "name": "isPresent",
              "type": "bool"
            }
          ],
          "internalType": "struct Structs.Participant",
          "name": "",
          "type": "tuple"
        }
      ],
      "stateMutability": "view",
      "type": "function"
    },
    {
      "inputs": [
        {
          "internalType": "uint256",
          "name": "tokenId",
          "type": "uint256"
        }
      ],
      "name": "handleReadPlant",
      "outputs": [
        {
          "components": [
            {
              "internalType": "uint256",
              "name": "typeId",
              "type": "uint256"
            },
            {
              "internalType": "uint256",
              "name": "level",
              "type": "uint256"
            },
            {
              "internalType": "uint256",
              "name": "experiencePoints",
              "type": "uint256"
            },
            {
              "internalType": "uint256",
              "name": "lifes",
              "type": "uint256"
            },
            {
              "internalType": "uint256",
              "name": "levelCost",
              "type": "uint256"
            },
            {
              "internalType": "bool",
              "name": "isPresent",
              "type": "bool"
            }
          ],
          "internalType": "struct Structs.Plant",
          "name": "",
          "type": "tuple"
        }
      ],
      "stateMutability": "view",
      "type": "function"
    },
    {
      "inputs": [
        {
          "internalType": "address",
          "name": "_store",
          "type": "address"
        },
        {
          "internalType": "address",
          "name": "_utils",
          "type": "address"
        },
        {
          "internalType": "address",
          "name": "_api",
          "type": "address"
        },
        {
          "internalType": "address",
          "name": "_burn",
          "type": "address"
        }
      ],
      "name": "handleUpdateContracts",
      "outputs": [],
      "stateMutability": "nonpayable",
      "type": "function"
    },
    {
      "inputs": [
        {
          "internalType": "uint256",
          "name": "tokenId",
          "type": "uint256"
        },
        {
          "internalType": "uint256",
          "name": "amount",
          "type": "uint256"
        }
      ],
      "name": "handleWaterPlant",
      "outputs": [],
      "stateMutability": "payable",
      "type": "function"
    },
    {
      "inputs": [
        {
          "internalType": "address",
          "name": "_store",
          "type": "address"
        },
        {
          "internalType": "address",
          "name": "_utils",
          "type": "address"
        },
        {
          "internalType": "address",
          "name": "_api",
          "type": "address"
        },
        {
          "internalType": "address",
          "name": "_burn",
          "type": "address"
        }
      ],
      "name": "initialize",
      "outputs": [],
      "stateMutability": "nonpayable",
      "type": "function"
    },
    {
      "inputs": [
        {
          "internalType": "address",
          "name": "account",
          "type": "address"
        },
        {
          "internalType": "address",
          "name": "operator",
          "type": "address"
        }
      ],
      "name": "isApprovedForAll",
      "outputs": [
        {
          "internalType": "bool",
          "name": "",
          "type": "bool"
        }
      ],
      "stateMutability": "view",
      "type": "function"
    },
    {
      "inputs": [
        {
          "internalType": "address",
          "name": "to",
          "type": "address"
        },
        {
          "internalType": "uint256[]",
          "name": "ids",
          "type": "uint256[]"
        },
        {
          "internalType": "uint256[]",
          "name": "amounts",
          "type": "uint256[]"
        },
        {
          "internalType": "bytes",
          "name": "data",
          "type": "bytes"
        }
      ],
      "name": "mintBatch",
      "outputs": [],
      "stateMutability": "nonpayable",
      "type": "function"
    },
    {
      "inputs": [],
      "name": "nonFungibleTokenCount",
      "outputs": [
        {
          "internalType": "uint256",
          "name": "",
          "type": "uint256"
        }
      ],
      "stateMutability": "view",
      "type": "function"
    },
    {
      "inputs": [
        {
          "internalType": "address",
          "name": "",
          "type": "address"
        },
        {
          "internalType": "address",
          "name": "",
          "type": "address"
        },
        {
          "internalType": "uint256[]",
          "name": "",
          "type": "uint256[]"
        },
        {
          "internalType": "uint256[]",
          "name": "",
          "type": "uint256[]"
        },
        {
          "internalType": "bytes",
          "name": "",
          "type": "bytes"
        }
      ],
      "name": "onERC1155BatchReceived",
      "outputs": [
        {
          "internalType": "bytes4",
          "name": "",
          "type": "bytes4"
        }
      ],
      "stateMutability": "nonpayable",
      "type": "function"
    },
    {
      "inputs": [
        {
          "internalType": "address",
          "name": "",
          "type": "address"
        },
        {
          "internalType": "address",
          "name": "",
          "type": "address"
        },
        {
          "internalType": "uint256",
          "name": "",
          "type": "uint256"
        },
        {
          "internalType": "uint256",
          "name": "",
          "type": "uint256"
        },
        {
          "internalType": "bytes",
          "name": "",
          "type": "bytes"
        }
      ],
      "name": "onERC1155Received",
      "outputs": [
        {
          "internalType": "bytes4",
          "name": "",
          "type": "bytes4"
        }
      ],
      "stateMutability": "nonpayable",
      "type": "function"
    },
    {
      "inputs": [],
      "name": "owner",
      "outputs": [
        {
          "internalType": "address",
          "name": "",
          "type": "address"
        }
      ],
      "stateMutability": "view",
      "type": "function"
    },
    {
      "inputs": [],
      "name": "performUpkeep",
      "outputs": [],
      "stateMutability": "view",
      "type": "function"
    },
    {
      "inputs": [],
      "name": "renounceOwnership",
      "outputs": [],
      "stateMutability": "nonpayable",
      "type": "function"
    },
    {
      "inputs": [
        {
          "internalType": "address",
          "name": "from",
          "type": "address"
        },
        {
          "internalType": "address",
          "name": "to",
          "type": "address"
        },
        {
          "internalType": "uint256[]",
          "name": "ids",
          "type": "uint256[]"
        },
        {
          "internalType": "uint256[]",
          "name": "amounts",
          "type": "uint256[]"
        },
        {
          "internalType": "bytes",
          "name": "data",
          "type": "bytes"
        }
      ],
      "name": "safeBatchTransferFrom",
      "outputs": [],
      "stateMutability": "nonpayable",
      "type": "function"
    },
    {
      "inputs": [
        {
          "internalType": "address",
          "name": "from",
          "type": "address"
        },
        {
          "internalType": "address",
          "name": "to",
          "type": "address"
        },
        {
          "internalType": "uint256",
          "name": "id",
          "type": "uint256"
        },
        {
          "internalType": "uint256",
          "name": "amount",
          "type": "uint256"
        },
        {
          "internalType": "bytes",
          "name": "data",
          "type": "bytes"
        }
      ],
      "name": "safeTransferFrom",
      "outputs": [],
      "stateMutability": "nonpayable",
      "type": "function"
    },
    {
      "inputs": [
        {
          "internalType": "address",
          "name": "operator",
          "type": "address"
        },
        {
          "internalType": "bool",
          "name": "approved",
          "type": "bool"
        }
      ],
      "name": "setApprovalForAll",
      "outputs": [],
      "stateMutability": "nonpayable",
      "type": "function"
    },
    {
      "inputs": [
        {
          "internalType": "string",
          "name": "newuri",
          "type": "string"
        }
      ],
      "name": "setURI",
      "outputs": [],
      "stateMutability": "nonpayable",
      "type": "function"
    },
    {
      "inputs": [
        {
          "internalType": "bytes4",
          "name": "interfaceId",
          "type": "bytes4"
        }
      ],
      "name": "supportsInterface",
      "outputs": [
        {
          "internalType": "bool",
          "name": "",
          "type": "bool"
        }
      ],
      "stateMutability": "view",
      "type": "function"
    },
    {
      "inputs": [
        {
          "internalType": "uint256",
          "name": "id",
          "type": "uint256"
        }
      ],
      "name": "totalSupply",
      "outputs": [
        {
          "internalType": "uint256",
          "name": "",
          "type": "uint256"
        }
      ],
      "stateMutability": "view",
      "type": "function"
    },
    {
      "inputs": [
        {
          "internalType": "address",
          "name": "newOwner",
          "type": "address"
        }
      ],
      "name": "transferOwnership",
      "outputs": [],
      "stateMutability": "nonpayable",
      "type": "function"
    },
    {
      "inputs": [
        {
          "internalType": "uint256",
          "name": "tokenId",
          "type": "uint256"
        }
      ],
      "name": "uri",
      "outputs": [
        {
          "internalType": "string",
          "name": "",
          "type": "string"
        }
      ],
      "stateMutability": "view",
      "type": "function"
    },
    {
      "inputs": [],
      "name": "withdrawKojos",
      "outputs": [],
      "stateMutability": "payable",
      "type": "function"
    }
  ],
  "bytecode": "0x60806040523480156200001157600080fd5b506200001c62000022565b62000152565b6200002e60ff62000031565b50565b60008054610100900460ff1615620000ca578160ff1660011480156200006a575062000068306200014360201b62001b891760201c565b155b620000c25760405162461bcd60e51b815260206004820152602e602482015260008051602062003d6883398151915260448201526d191e481a5b9a5d1a585b1a5e995960921b60648201526084015b60405180910390fd5b506000919050565b60005460ff808416911610620001295760405162461bcd60e51b815260206004820152602e602482015260008051602062003d6883398151915260448201526d191e481a5b9a5d1a585b1a5e995960921b6064820152608401620000b9565b506000805460ff191660ff92909216919091179055600190565b6001600160a01b03163b151590565b613c0680620001626000396000f3fe6080604052600436106101d75760003560e01c80638da5cb5b11610102578063e599913911610095578063f2fde38b11610064578063f2fde38b1461057a578063f8c8765e1461059a578063fabe6b3c146105ba578063fc57ca29146105c257600080fd5b8063e5999139146104b8578063e985e9c5146104e5578063f23a6e611461052e578063f242432a1461055a57600080fd5b8063b4daaf55116100d1578063b4daaf5514610426578063bacb7dc01461043d578063bc197c8114610445578063bd85b0391461048a57600080fd5b80638da5cb5b146103d65780639c3423b1146103fe578063a13abdad146103ac578063a22cb4651461040657600080fd5b80632eb2c2d61161017a578063584c7b3711610149578063584c7b37146103825780636c7ff22e146103975780636e4d243a146103ac578063715018a6146103c157600080fd5b80632eb2c2d6146102ee57806345e8eca81461030e5780634e1273f4146103255780634f558e791461035257600080fd5b80630e89341c116101b65780630e89341c146102615780631f79087b1461028e5780631f7fdffa146102a15780631fec8c02146102c157600080fd5b8062fdd58e146101dc57806301ffc9a71461020f57806302fe53051461023f575b600080fd5b3480156101e857600080fd5b506101fc6101f7366004612cdf565b6105e2565b6040519081526020015b60405180910390f35b34801561021b57600080fd5b5061022f61022a366004612d1f565b61067e565b6040519015158152602001610206565b34801561024b57600080fd5b5061025f61025a366004612e17565b610689565b005b34801561026d57600080fd5b5061028161027c366004612e67565b6106bf565b6040516102069190612ed8565b61025f61029c366004612eeb565b610762565b3480156102ad57600080fd5b5061025f6102bc366004612fc1565b610d3f565b3480156102cd57600080fd5b506102e16102dc366004612e67565b610d7b565b6040516102069190613095565b3480156102fa57600080fd5b5061025f6103093660046130a3565b610e33565b34801561031a57600080fd5b506101fc6101615481565b34801561033157600080fd5b5061034561034036600461314c565b610eca565b6040516102069190613251565b34801561035e57600080fd5b5061022f61036d366004612e67565b600090815261012d6020526040902054151590565b34801561038e57600080fd5b506101fc610ff3565b3480156103a357600080fd5b5061025f611076565b3480156103b857600080fd5b5061025f61129d565b3480156103cd57600080fd5b5061025f6112b7565b3480156103e257600080fd5b506097546040516001600160a01b039091168152602001610206565b61025f6112eb565b34801561041257600080fd5b5061025f610421366004613272565b6114f5565b34801561043257600080fd5b506101fc6101605481565b61025f611504565b34801561045157600080fd5b506104716104603660046130a3565b63bc197c8160e01b95945050505050565b6040516001600160e01b03199091168152602001610206565b34801561049657600080fd5b506101fc6104a5366004612e67565b600090815261012d602052604090205490565b3480156104c457600080fd5b506104d86104d33660046132a9565b611567565b604051610206919061330f565b3480156104f157600080fd5b5061022f610500366004613322565b6001600160a01b03918216600090815260666020908152604080832093909416825291909152205460ff1690565b34801561053a57600080fd5b50610471610549366004613355565b63f23a6e6160e01b95945050505050565b34801561056657600080fd5b5061025f610575366004613355565b61161d565b34801561058657600080fd5b5061025f6105953660046132a9565b6116a4565b3480156105a657600080fd5b5061025f6105b53660046133b9565b61173c565b61025f611802565b3480156105ce57600080fd5b5061025f6105dd3660046133b9565b611b0b565b60006001600160a01b0383166106535760405162461bcd60e51b815260206004820152602b60248201527f455243313135353a2062616c616e636520717565727920666f7220746865207a60448201526a65726f206164647265737360a81b60648201526084015b60405180910390fd5b5060008181526065602090815260408083206001600160a01b03861684529091529020545b92915050565b600061067882611b98565b6097546001600160a01b031633146106b35760405162461bcd60e51b815260040161064a9061340d565b6106bc81611bbd565b50565b600081815261015f602052604090208054606091906106dd90613442565b80601f016020809104026020016040519081016040528092919081815260200182805461070990613442565b80156107565780601f1061072b57610100808354040283529160200191610756565b820191906000526020600020905b81548152906001019060200180831161073957829003601f168201915b50505050509050919050565b3233146107815760405162461bcd60e51b815260040161064a9061347d565b6101625460405163e599913960e01b81523360048201526000916001600160a01b03169063e59991399060240160006040518083038186803b1580156107c657600080fd5b505afa1580156107da573d6000803e3d6000fd5b505050506040513d6000823e601f3d908101601f1916820160405261080291908101906134ad565b61016254604051630ff6460160e11b8152600481018690529192506000916001600160a01b0390911690631fec8c029060240160c06040518083038186803b15801561084d57600080fd5b505afa158015610861573d6000803e3d6000fd5b505050506040513d601f19601f8201168201806040525081019061088591906135aa565b905081608001516108a85760405162461bcd60e51b815260040161064a90613629565b8060a001516108f15760405162461bcd60e51b8152602060048201526015602482015274283630b73a103237b2b9903737ba1032bc34b9ba1760591b604482015260640161064a565b600061090033610160546105e2565b9050838110156109605760405162461bcd60e51b815260206004820152602560248201527f4e6f7420656e6f756768206b6f6a6f7320746f20776174657220796f757220706044820152643630b73a1760d91b606482015260840161064a565b610163546040516342ee184d60e11b81526000916001600160a01b0316906385dc309a906109949087908990600401613660565b60006040518083038186803b1580156109ac57600080fd5b505afa1580156109c0573d6000803e3d6000fd5b505050506040513d6000823e601f3d908101601f191682016040526109e891908101906134ad565b6101635460405163348fd32360e11b81529192506000916001600160a01b039091169063691fa64690610a219087908a90600401613682565b60c06040518083038186803b158015610a3957600080fd5b505afa158015610a4d573d6000803e3d6000fd5b505050506040513d601f19601f82011682018060405250810190610a7191906135aa565b61016254604051633fcd0c3760e01b81529192506001600160a01b031690633fcd0c3790610aa5903390869060040161369d565b600060405180830381600087803b158015610abf57600080fd5b505af1158015610ad3573d6000803e3d6000fd5b505050506040513d6000823e601f3d908101601f19168201604052610afb91908101906134ad565b50610162546040516315485de360e01b81526001600160a01b03909116906315485de390610b2f908a9085906004016136c1565b60c060405180830381600087803b158015610b4957600080fd5b505af1158015610b5d573d6000803e3d6000fd5b505050506040513d601f19601f82011682018060405250810190610b8191906135aa565b5061016354604051637182817b60e01b81526000916001600160a01b031690637182817b90610bb4908590600401613095565b60006040518083038186803b158015610bcc57600080fd5b505afa158015610be0573d6000803e3d6000fd5b505050506040513d6000823e601f3d908101601f19168201604052610c0891908101906136d5565b9050610c148882611bd0565b60006064610c2389600261376c565b610c2d919061378b565b905060006064610c3e8a606261376c565b610c48919061378b565b9050610c7b6040518060400160405280600f81526020016e7661756c74416d6f756e743a20257360881b81525083611bf5565b610cab6040518060400160405280600e81526020016d6275726e416d6f756e743a20257360901b81525082611bf5565b610cca333061016054856040518060200160405280600081525061161d565b6101655461016054604080516020810190915260008152610cfa9233926001600160a01b0390911691859061161d565b7f944be6466f82a31b267f7b7cb99fb34611bf5ab1250d9a1e5bbedb73ccb838f18585604051610d2b9291906137ad565b60405180910390a150505050505050505050565b6097546001600160a01b03163314610d695760405162461bcd60e51b815260040161064a9061340d565b610d7584848484611c3a565b50505050565b610db66040518060c0016040528060008152602001600081526020016000815260200160008152602001600081526020016000151581525090565b61016254604051630ff6460160e11b8152600481018490526001600160a01b0390911690631fec8c029060240160c06040518083038186803b158015610dfb57600080fd5b505afa158015610e0f573d6000803e3d6000fd5b505050506040513d601f19601f8201168201806040525081019061067891906135aa565b6001600160a01b038516331480610e4f5750610e4f8533610500565b610eb65760405162461bcd60e51b815260206004820152603260248201527f455243313135353a207472616e736665722063616c6c6572206973206e6f74206044820152711bdddb995c881b9bdc88185c1c1c9bdd995960721b606482015260840161064a565b610ec38585858585611d95565b5050505050565b60608151835114610f2f5760405162461bcd60e51b815260206004820152602960248201527f455243313135353a206163636f756e747320616e6420696473206c656e677468604482015268040dad2e6dac2e8c6d60bb1b606482015260840161064a565b600083516001600160401b03811115610f4a57610f4a612d43565b604051908082528060200260200182016040528015610f73578160200160208202803683370190505b50905060005b8451811015610feb57610fbe858281518110610f9757610f976137cf565b6020026020010151858381518110610fb157610fb16137cf565b60200260200101516105e2565b828281518110610fd057610fd06137cf565b6020908102919091010152610fe4816137e5565b9050610f79565b509392505050565b6101625460408051631bca55e560e01b815290516000926001600160a01b031691631bca55e5916004808301926020929190829003018186803b15801561103957600080fd5b505afa15801561104d573d6000803e3d6000fd5b505050506040513d601f19601f820116820180604052508101906110719190613800565b905090565b3233146110955760405162461bcd60e51b815260040161064a9061347d565b6101625460405163e599913960e01b81523360048201526000916001600160a01b03169063e59991399060240160006040518083038186803b1580156110da57600080fd5b505afa1580156110ee573d6000803e3d6000fd5b505050506040513d6000823e601f3d908101601f1916820160405261111691908101906134ad565b905080608001516111395760405162461bcd60e51b815260040161064a90613629565b60008160600151116111a95760405162461bcd60e51b815260206004820152603360248201527f5061727469636970616e7420646f65736e2774206861766520616c6c6f77616e60448201527231b2903a379031b630b4b6903a37b5b2b7399760691b606482015260840161064a565b6111cb3361016054836060015160405180602001604052806000815250611f42565b6000606082015261016254604051633fcd0c3760e01b815282916001600160a01b031690633fcd0c3790611205903390859060040161369d565b600060405180830381600087803b15801561121f57600080fd5b505af1158015611233573d6000803e3d6000fd5b505050506040513d6000823e601f3d908101601f1916820160405261125b91908101906134ad565b507f1800ac493c2559610df079ad63033e4a99ae93f599a3df7ef426015113ff0278828360600151604051611291929190613660565b60405180910390a15050565b6112b56040518060200160405280600081525061202d565b565b6097546001600160a01b031633146112e15760405162461bcd60e51b815260040161064a9061340d565b6112b56000612070565b32331461130a5760405162461bcd60e51b815260040161064a9061347d565b6101625460405163e599913960e01b81523360048201526000916001600160a01b03169063e59991399060240160006040518083038186803b15801561134f57600080fd5b505afa158015611363573d6000803e3d6000fd5b505050506040513d6000823e601f3d908101601f1916820160405261138b91908101906134ad565b905080608001516113ae5760405162461bcd60e51b815260040161064a90613629565b60006113bd33610160546105e2565b905061016260009054906101000a90046001600160a01b03166001600160a01b03166358ac00386040518163ffffffff1660e01b815260040160206040518083038186803b15801561140e57600080fd5b505afa158015611422573d6000803e3d6000fd5b505050506040513d601f19601f820116820180604052508101906114469190613800565b8110156114a75760405162461bcd60e51b815260206004820152602960248201527f4e6f7420656e6f756768206b6f6a6f732e204f6e6520706c616e7420636f73746044820152683990189035b7b5379760b91b606482015260840161064a565b6000806114b26120c2565b915091507f367cdb6722de94302dcfbc865a92c99153567007a99a08c3dc2615c8caa3e75982826040516114e79291906137ad565b60405180910390a150505050565b611500338383612414565b5050565b6097546001600160a01b0316331461152e5760405162461bcd60e51b815260040161064a9061340d565b6112b5306115446097546001600160a01b031690565b6101605461155230826105e2565b6040518060200160405280600081525061161d565b61159b6040518060a00160405280600081526020016000815260200160608152602001600081526020016000151581525090565b6101625460405163e599913960e01b81526001600160a01b0384811660048301529091169063e59991399060240160006040518083038186803b1580156115e157600080fd5b505afa1580156115f5573d6000803e3d6000fd5b505050506040513d6000823e601f3d908101601f1916820160405261067891908101906134ad565b6001600160a01b03851633148061163957506116398533610500565b6116975760405162461bcd60e51b815260206004820152602960248201527f455243313135353a2063616c6c6572206973206e6f74206f776e6572206e6f7260448201526808185c1c1c9bdd995960ba1b606482015260840161064a565b610ec385858585856124f5565b6097546001600160a01b031633146116ce5760405162461bcd60e51b815260040161064a9061340d565b6001600160a01b0381166117335760405162461bcd60e51b815260206004820152602660248201527f4f776e61626c653a206e6577206f776e657220697320746865207a65726f206160448201526564647265737360d01b606482015260840161064a565b6106bc81612070565b60006117486001612631565b90508015611760576000805461ff0019166101001790555b6117686126be565b61016280546001600160a01b038088166001600160a01b031992831617909255610163805487841690831617905561016480548684169083161790556101658054928516929091169190911790558015610ec3576000805461ff0019169055604051600181527f7f26b83ff96e1f2b6a682f133852f6798a09c465da95921460cefb38474024989060200160405180910390a15050505050565b3233146118215760405162461bcd60e51b815260040161064a9061347d565b6101625460405163e599913960e01b81523360048201526000916001600160a01b03169063e59991399060240160006040518083038186803b15801561186657600080fd5b505afa15801561187a573d6000803e3d6000fd5b505050506040513d6000823e601f3d908101601f191682016040526118a291908101906134ad565b905080608001511561192b5760405162461bcd60e51b815260206004820152604660248201527f5061727469636970616e7420616c7265616479206578697374732e20596f752060448201527f63616e206f6e6c7920636c61696d20796f757220696e7469616c206b6f6a6f736064820152651037b731b29760d11b608482015260a40161064a565b610162546040516311622ce560e01b81523360048201526000916001600160a01b0316906311622ce590602401600060405180830381600087803b15801561197257600080fd5b505af1158015611986573d6000803e3d6000fd5b505050506040513d6000823e601f3d908101601f191682016040526119ae91908101906134ad565b9050611a54336101605461016260009054906101000a90046001600160a01b03166001600160a01b0316631bca55e56040518163ffffffff1660e01b815260040160206040518083038186803b158015611a0757600080fd5b505afa158015611a1b573d6000803e3d6000fd5b505050506040513d601f19601f82011682018060405250810190611a3f9190613800565b60405180602001604052806000815250611f42565b7f1800ac493c2559610df079ad63033e4a99ae93f599a3df7ef426015113ff02788161016260009054906101000a90046001600160a01b03166001600160a01b0316631bca55e56040518163ffffffff1660e01b815260040160206040518083038186803b158015611ac557600080fd5b505afa158015611ad9573d6000803e3d6000fd5b505050506040513d601f19601f82011682018060405250810190611afd9190613800565b604051611291929190613660565b6097546001600160a01b03163314611b355760405162461bcd60e51b815260040161064a9061340d565b61016280546001600160a01b039586166001600160a01b0319918216179091556101638054948616948216949094179093556101648054928516928416929092179091556101658054919093169116179055565b6001600160a01b03163b151590565b60006001600160e01b03198216630271189760e51b148061067857506106788261271b565b8051611500906067906020840190612c2f565b600082815261015f602090815260409091208251611bf092840190612c2f565b505050565b6115008282604051602401611c0b929190613819565b60408051601f198184030181529190526020810180516001600160e01b03166309710a9d60e41b17905261276b565b6001600160a01b038416611c605760405162461bcd60e51b815260040161064a9061382c565b8151835114611c815760405162461bcd60e51b815260040161064a9061386d565b33611c918160008787878761278c565b60005b8451811015611d2d57838181518110611caf57611caf6137cf565b602002602001015160656000878481518110611ccd57611ccd6137cf565b602002602001015181526020019081526020016000206000886001600160a01b03166001600160a01b031681526020019081526020016000206000828254611d1591906138b5565b90915550819050611d25816137e5565b915050611c94565b50846001600160a01b031660006001600160a01b0316826001600160a01b03167f4a39dc06d4c0dbc64b70af90fd698a233a518aa5d07e595d983b8c0526c8f7fb8787604051611d7e9291906138cd565b60405180910390a4610ec38160008787878761279a565b8151835114611db65760405162461bcd60e51b815260040161064a9061386d565b6001600160a01b038416611ddc5760405162461bcd60e51b815260040161064a906138fb565b33611deb81878787878761278c565b60005b8451811015611ed4576000858281518110611e0b57611e0b6137cf565b602002602001015190506000858381518110611e2957611e296137cf565b60209081029190910181015160008481526065835260408082206001600160a01b038e168352909352919091205490915081811015611e7a5760405162461bcd60e51b815260040161064a90613940565b60008381526065602090815260408083206001600160a01b038e8116855292528083208585039055908b16825281208054849290611eb99084906138b5565b9250508190555050505080611ecd906137e5565b9050611dee565b50846001600160a01b0316866001600160a01b0316826001600160a01b03167f4a39dc06d4c0dbc64b70af90fd698a233a518aa5d07e595d983b8c0526c8f7fb8787604051611f249291906138cd565b60405180910390a4611f3a81878787878761279a565b505050505050565b6001600160a01b038416611f685760405162461bcd60e51b815260040161064a9061382c565b336000611f7485612905565b90506000611f8185612905565b9050611f928360008985858961278c565b60008681526065602090815260408083206001600160a01b038b16845290915281208054879290611fc49084906138b5565b909155505060408051878152602081018790526001600160a01b03808a1692600092918716917fc3d58168c5ae7397731d063d5bbf3d657854427343f4c083240f7aacaa2d0f62910160405180910390a461202483600089898989612950565b50505050505050565b6106bc816040516024016120419190612ed8565b60408051601f198184030181529190526020810180516001600160e01b031663104c13eb60e21b17905261276b565b609780546001600160a01b038381166001600160a01b0319831681179093556040519116919082907f8be0079c531659141344cd1fd0a4f28419497f9722a3daafe3b4186f6b6457e090600090a35050565b6120f66040518060a00160405280600081526020016000815260200160608152602001600081526020016000151581525090565b6121316040518060c0016040528060008152602001600081526020016000815260200160008152602001600081526020016000151581525090565b6121503361016154600160405180602001604052806000815250611f42565b6121e033306101605461016260009054906101000a90046001600160a01b03166001600160a01b03166358ac00386040518163ffffffff1660e01b815260040160206040518083038186803b1580156121a857600080fd5b505afa1580156121bc573d6000803e3d6000fd5b505050506040513d601f19601f820116820180604052508101906115529190613800565b6101625461016154604051639fd9491760e01b815233600482015260248101919091526000916001600160a01b031690639fd9491790604401600060405180830381600087803b15801561223357600080fd5b505af1158015612247573d6000803e3d6000fd5b505050506040513d6000823e601f3d908101601f1916820160405261226f91908101906134ad565b6101625461016154604051631ec5a1a760e21b81529293506000926001600160a01b0390921691637b16869c916122ac9160040190815260200190565b60c060405180830381600087803b1580156122c657600080fd5b505af11580156122da573d6000803e3d6000fd5b505050506040513d601f19601f820116820180604052508101906122fe91906135aa565b61016354604051637182817b60e01b81529192506000916001600160a01b0390911690637182817b90612335908590600401613095565b60006040518083038186803b15801561234d57600080fd5b505afa158015612361573d6000803e3d6000fd5b505050506040513d6000823e601f3d908101601f1916820160405261238991908101906136d5565b90506123986101615482611bd0565b6123a0612a1a565b61016260009054906101000a90046001600160a01b03166001600160a01b0316630591f3626040518163ffffffff1660e01b8152600401600060405180830381600087803b1580156123f157600080fd5b505af1158015612405573d6000803e3d6000fd5b50949793965092945050505050565b816001600160a01b0316836001600160a01b031614156124885760405162461bcd60e51b815260206004820152602960248201527f455243313135353a2073657474696e6720617070726f76616c20737461747573604482015268103337b91039b2b63360b91b606482015260840161064a565b6001600160a01b03838116600081815260666020908152604080832094871680845294825291829020805460ff191686151590811790915591519182527f17307eab39ab6107e8899845ad3d59bd9653f200f220920489ca2b5937696c31910160405180910390a3505050565b6001600160a01b03841661251b5760405162461bcd60e51b815260040161064a906138fb565b33600061252785612905565b9050600061253485612905565b905061254483898985858961278c565b60008681526065602090815260408083206001600160a01b038c168452909152902054858110156125875760405162461bcd60e51b815260040161064a90613940565b60008781526065602090815260408083206001600160a01b038d8116855292528083208985039055908a168252812080548892906125c69084906138b5565b909155505060408051888152602081018890526001600160a01b03808b16928c821692918816917fc3d58168c5ae7397731d063d5bbf3d657854427343f4c083240f7aacaa2d0f62910160405180910390a4612626848a8a8a8a8a612950565b505050505050505050565b60008054610100900460ff1615612678578160ff1660011480156126545750303b155b6126705760405162461bcd60e51b815260040161064a9061398a565b506000919050565b60005460ff80841691161061269f5760405162461bcd60e51b815260040161064a9061398a565b506000805460ff191660ff92909216919091179055600190565b919050565b600054610100900460ff166126e55760405162461bcd60e51b815260040161064a906139d8565b6126fd60405180602001604052806000815250612a35565b612705612a5c565b61270d612a8c565b600061016055600161016155565b60006001600160e01b03198216636cdb3d1360e11b148061274c57506001600160e01b031982166303a24d0760e21b145b8061067857506301ffc9a760e01b6001600160e01b0319831614610678565b80516a636f6e736f6c652e6c6f67602083016000808483855afa5050505050565b611f3a868686868686612ab3565b6001600160a01b0384163b15611f3a5760405163bc197c8160e01b81526001600160a01b0385169063bc197c81906127de9089908990889088908890600401613a23565b602060405180830381600087803b1580156127f857600080fd5b505af1925050508015612828575060408051601f3d908101601f1916820190925261282591810190613a81565b60015b6128d557612834613a9e565b806308c379a0141561286e5750612849613aba565b806128545750612870565b8060405162461bcd60e51b815260040161064a9190612ed8565b505b60405162461bcd60e51b815260206004820152603460248201527f455243313135353a207472616e7366657220746f206e6f6e20455243313135356044820152732932b1b2b4bb32b91034b6b83632b6b2b73a32b960611b606482015260840161064a565b6001600160e01b0319811663bc197c8160e01b146120245760405162461bcd60e51b815260040161064a90613b43565b6040805160018082528183019092526060916000919060208083019080368337019050509050828160008151811061293f5761293f6137cf565b602090810291909101015292915050565b6001600160a01b0384163b15611f3a5760405163f23a6e6160e01b81526001600160a01b0385169063f23a6e61906129949089908990889088908890600401613b8b565b602060405180830381600087803b1580156129ae57600080fd5b505af19250505080156129de575060408051601f3d908101601f191682019092526129db91810190613a81565b60015b6129ea57612834613a9e565b6001600160e01b0319811663f23a6e6160e01b146120245760405162461bcd60e51b815260040161064a90613b43565b60016101616000828254612a2e91906138b5565b9091555050565b600054610100900460ff166106b35760405162461bcd60e51b815260040161064a906139d8565b600054610100900460ff16612a835760405162461bcd60e51b815260040161064a906139d8565b6112b533612070565b600054610100900460ff166112b55760405162461bcd60e51b815260040161064a906139d8565b6001600160a01b038516612b3b5760005b8351811015612b3957828181518110612adf57612adf6137cf565b602002602001015161012d6000868481518110612afe57612afe6137cf565b602002602001015181526020019081526020016000206000828254612b2391906138b5565b90915550612b329050816137e5565b9050612ac4565b505b6001600160a01b038416611f3a5760005b8351811015612024576000848281518110612b6957612b696137cf565b602002602001015190506000848381518110612b8757612b876137cf565b60200260200101519050600061012d600084815260200190815260200160002054905081811015612c0b5760405162461bcd60e51b815260206004820152602860248201527f455243313135353a206275726e20616d6f756e74206578636565647320746f74604482015267616c537570706c7960c01b606482015260840161064a565b600092835261012d602052604090922091039055612c28816137e5565b9050612b4c565b828054612c3b90613442565b90600052602060002090601f016020900481019282612c5d5760008555612ca3565b82601f10612c7657805160ff1916838001178555612ca3565b82800160010185558215612ca3579182015b82811115612ca3578251825591602001919060010190612c88565b50612caf929150612cb3565b5090565b5b80821115612caf5760008155600101612cb4565b80356001600160a01b03811681146126b957600080fd5b60008060408385031215612cf257600080fd5b612cfb83612cc8565b946020939093013593505050565b6001600160e01b0319811681146106bc57600080fd5b600060208284031215612d3157600080fd5b8135612d3c81612d09565b9392505050565b634e487b7160e01b600052604160045260246000fd5b60a081018181106001600160401b0382111715612d7857612d78612d43565b60405250565b601f8201601f191681016001600160401b0381118282101715612da357612da3612d43565b6040525050565b60006001600160401b03821115612dc357612dc3612d43565b50601f01601f191660200190565b6000612ddc83612daa565b604051612de98282612d7e565b809250848152858585011115612dfe57600080fd5b8484602083013760006020868301015250509392505050565b600060208284031215612e2957600080fd5b81356001600160401b03811115612e3f57600080fd5b8201601f81018413612e5057600080fd5b612e5f84823560208401612dd1565b949350505050565b600060208284031215612e7957600080fd5b5035919050565b60005b83811015612e9b578181015183820152602001612e83565b83811115610d755750506000910152565b60008151808452612ec4816020860160208601612e80565b601f01601f19169290920160200192915050565b602081526000612d3c6020830184612eac565b60008060408385031215612efe57600080fd5b50508035926020909101359150565b60006001600160401b03821115612f2657612f26612d43565b5060051b60200190565b600082601f830112612f4157600080fd5b81356020612f4e82612f0d565b604051612f5b8282612d7e565b83815260059390931b8501820192828101915086841115612f7b57600080fd5b8286015b84811015612f965780358352918301918301612f7f565b509695505050505050565b600082601f830112612fb257600080fd5b612d3c83833560208501612dd1565b60008060008060808587031215612fd757600080fd5b612fe085612cc8565b935060208501356001600160401b0380821115612ffc57600080fd5b61300888838901612f30565b9450604087013591508082111561301e57600080fd5b61302a88838901612f30565b9350606087013591508082111561304057600080fd5b5061304d87828801612fa1565b91505092959194509250565b805182526020810151602083015260408101516040830152606081015160608301526080810151608083015260a0810151151560a08301525050565b60c081016106788284613059565b600080600080600060a086880312156130bb57600080fd5b6130c486612cc8565b94506130d260208701612cc8565b935060408601356001600160401b03808211156130ee57600080fd5b6130fa89838a01612f30565b9450606088013591508082111561311057600080fd5b61311c89838a01612f30565b9350608088013591508082111561313257600080fd5b5061313f88828901612fa1565b9150509295509295909350565b6000806040838503121561315f57600080fd5b82356001600160401b038082111561317657600080fd5b818501915085601f83011261318a57600080fd5b8135602061319782612f0d565b6040516131a48282612d7e565b83815260059390931b85018201928281019150898411156131c457600080fd5b948201945b838610156131e9576131da86612cc8565b825294820194908201906131c9565b965050860135925050808211156131ff57600080fd5b5061320c85828601612f30565b9150509250929050565b600081518084526020808501945080840160005b838110156132465781518752958201959082019060010161322a565b509495945050505050565b602081526000612d3c6020830184613216565b80151581146106bc57600080fd5b6000806040838503121561328557600080fd5b61328e83612cc8565b9150602083013561329e81613264565b809150509250929050565b6000602082840312156132bb57600080fd5b612d3c82612cc8565b80518252602081015160208301526000604082015160a060408501526132ed60a0850182613216565b9050606083015160608501526080830151151560808501528091505092915050565b602081526000612d3c60208301846132c4565b6000806040838503121561333557600080fd5b61333e83612cc8565b915061334c60208401612cc8565b90509250929050565b600080600080600060a0868803121561336d57600080fd5b61337686612cc8565b945061338460208701612cc8565b9350604086013592506060860135915060808601356001600160401b038111156133ad57600080fd5b61313f88828901612fa1565b600080600080608085870312156133cf57600080fd5b6133d885612cc8565b93506133e660208601612cc8565b92506133f460408601612cc8565b915061340260608601612cc8565b905092959194509250565b6020808252818101527f4f776e61626c653a2063616c6c6572206973206e6f7420746865206f776e6572604082015260600190565b600181811c9082168061345657607f821691505b6020821081141561347757634e487b7160e01b600052602260045260246000fd5b50919050565b6020808252600b908201526a2737ba1030b71022a7a09760a91b604082015260600190565b80516126b981613264565b600060208083850312156134c057600080fd5b82516001600160401b03808211156134d757600080fd5b9084019060a082870312156134eb57600080fd5b6040516134f781612d59565b82518152838301518482015260408301518281111561351557600080fd5b83019150601f8201871361352857600080fd5b815161353381612f0d565b6040516135408282612d7e565b82815260059290921b840186019186810191508983111561356057600080fd5b938601935b8285101561357e57845182529386019390860190613565565b604084015250506060838101519082015261359b608084016134a2565b60808201529695505050505050565b600060c082840312156135bc57600080fd5b60405160c081018181106001600160401b03821117156135de576135de612d43565b8060405250825181526020830151602082015260408301516040820152606083015160608201526080830151608082015260a083015161361d81613264565b60a08201529392505050565b6020808252601b908201527f5061727469636970616e7420646f6573206e6f742065786973742e0000000000604082015260600190565b60408152600061367360408301856132c4565b90508260208301529392505050565b60e081016136908285613059565b8260c08301529392505050565b6001600160a01b0383168152604060208201819052600090612e5f908301846132c4565b82815260e08101612d3c6020830184613059565b6000602082840312156136e757600080fd5b81516001600160401b038111156136fd57600080fd5b8201601f8101841361370e57600080fd5b805161371981612daa565b6040516137268282612d7e565b82815286602084860101111561373b57600080fd5b61374c836020830160208701612e80565b9695505050505050565b634e487b7160e01b600052601160045260246000fd5b600081600019048311821515161561378657613786613756565b500290565b6000826137a857634e487b7160e01b600052601260045260246000fd5b500490565b60e0815260006137c060e08301856132c4565b9050612d3c6020830184613059565b634e487b7160e01b600052603260045260246000fd5b60006000198214156137f9576137f9613756565b5060010190565b60006020828403121561381257600080fd5b5051919050565b6040815260006136736040830185612eac565b60208082526021908201527f455243313135353a206d696e7420746f20746865207a65726f206164647265736040820152607360f81b606082015260800190565b60208082526028908201527f455243313135353a2069647320616e6420616d6f756e7473206c656e677468206040820152670dad2e6dac2e8c6d60c31b606082015260800190565b600082198211156138c8576138c8613756565b500190565b6040815260006138e06040830185613216565b82810360208401526138f28185613216565b95945050505050565b60208082526025908201527f455243313135353a207472616e7366657220746f20746865207a65726f206164604082015264647265737360d81b606082015260800190565b6020808252602a908201527f455243313135353a20696e73756666696369656e742062616c616e636520666f60408201526939103a3930b739b332b960b11b606082015260800190565b6020808252602e908201527f496e697469616c697a61626c653a20636f6e747261637420697320616c72656160408201526d191e481a5b9a5d1a585b1a5e995960921b606082015260800190565b6020808252602b908201527f496e697469616c697a61626c653a20636f6e7472616374206973206e6f74206960408201526a6e697469616c697a696e6760a81b606082015260800190565b6001600160a01b0386811682528516602082015260a060408201819052600090613a4f90830186613216565b8281036060840152613a618186613216565b90508281036080840152613a758185612eac565b98975050505050505050565b600060208284031215613a9357600080fd5b8151612d3c81612d09565b600060033d1115613ab75760046000803e5060005160e01c5b90565b600060443d1015613ac85790565b6040516003193d81016004833e81513d6001600160401b038160248401118184111715613af757505050505090565b8285019150815181811115613b0f5750505050505090565b843d8701016020828501011115613b295750505050505090565b613b3860208286010187612d7e565b509095945050505050565b60208082526028908201527f455243313135353a204552433131353552656365697665722072656a656374656040820152676420746f6b656e7360c01b606082015260800190565b6001600160a01b03868116825285166020820152604081018490526060810183905260a060808201819052600090613bc590830184612eac565b97965050505050505056fea2646970667358221220ebc4dc62282dd5c6813d20fa9a42139fe2635b59a82fd7787f781561d4cbcd0464736f6c63430008090033496e697469616c697a61626c653a20636f6e747261637420697320616c726561",
  "linkReferences": {},
  "deployedLinkReferences": {}
}