{
  "_format": "hh-sol-artifact-1",
  "contractName": "KojoV1",
  "sourceName": "contracts/KojoV1.sol",
  "abi": [
    {
      "anonymous": false,
      "inputs": [
        {
          "indexed": true,
          "internalType": "address",
          "name": "account",
          "type": "address"
        },
        {
          "indexed": true,
          "internalType": "address",
          "name": "operator",
          "type": "address"
        },
        {
          "indexed": false,
          "internalType": "bool",
          "name": "approved",
          "type": "bool"
        }
      ],
      "name": "ApprovalForAll",
      "type": "event"
    },
    {
      "anonymous": false,
      "inputs": [
        {
          "indexed": false,
          "internalType": "uint8",
          "name": "version",
          "type": "uint8"
        }
      ],
      "name": "Initialized",
      "type": "event"
    },
    {
      "anonymous": false,
      "inputs": [
        {
          "indexed": true,
          "internalType": "address",
          "name": "previousOwner",
          "type": "address"
        },
        {
          "indexed": true,
          "internalType": "address",
          "name": "newOwner",
          "type": "address"
        }
      ],
      "name": "OwnershipTransferred",
      "type": "event"
    },
    {
      "anonymous": false,
      "inputs": [
        {
          "components": [
            {
              "internalType": "uint256",
              "name": "level",
              "type": "uint256"
            },
            {
              "internalType": "uint256",
              "name": "experiencePoints",
              "type": "uint256"
            },
            {
              "internalType": "uint256[]",
              "name": "plantIds",
              "type": "uint256[]"
            },
            {
              "internalType": "uint256",
              "name": "allowedTokenBalance",
              "type": "uint256"
            },
            {
              "internalType": "bool",
              "name": "isPresent",
              "type": "bool"
            }
          ],
          "indexed": false,
          "internalType": "struct Structs.Participant",
          "name": "participant",
          "type": "tuple"
        },
        {
          "components": [
            {
              "internalType": "uint256",
              "name": "level",
              "type": "uint256"
            },
            {
              "internalType": "uint256",
              "name": "experiencePoints",
              "type": "uint256"
            },
            {
              "internalType": "uint256",
              "name": "lifes",
              "type": "uint256"
            },
            {
              "internalType": "uint256",
              "name": "levelCost",
              "type": "uint256"
            },
            {
              "internalType": "bool",
              "name": "isPresent",
              "type": "bool"
            }
          ],
          "indexed": false,
          "internalType": "struct Structs.Plant",
          "name": "plant",
          "type": "tuple"
        }
      ],
      "name": "PlantMinted",
      "type": "event"
    },
    {
      "anonymous": false,
      "inputs": [
        {
          "components": [
            {
              "internalType": "uint256",
              "name": "level",
              "type": "uint256"
            },
            {
              "internalType": "uint256",
              "name": "experiencePoints",
              "type": "uint256"
            },
            {
              "internalType": "uint256[]",
              "name": "plantIds",
              "type": "uint256[]"
            },
            {
              "internalType": "uint256",
              "name": "allowedTokenBalance",
              "type": "uint256"
            },
            {
              "internalType": "bool",
              "name": "isPresent",
              "type": "bool"
            }
          ],
          "indexed": false,
          "internalType": "struct Structs.Participant",
          "name": "participant",
          "type": "tuple"
        },
        {
          "components": [
            {
              "internalType": "uint256",
              "name": "level",
              "type": "uint256"
            },
            {
              "internalType": "uint256",
              "name": "experiencePoints",
              "type": "uint256"
            },
            {
              "internalType": "uint256",
              "name": "lifes",
              "type": "uint256"
            },
            {
              "internalType": "uint256",
              "name": "levelCost",
              "type": "uint256"
            },
            {
              "internalType": "bool",
              "name": "isPresent",
              "type": "bool"
            }
          ],
          "indexed": false,
          "internalType": "struct Structs.Plant",
          "name": "plant",
          "type": "tuple"
        }
      ],
      "name": "PlantWatered",
      "type": "event"
    },
    {
      "anonymous": false,
      "inputs": [
        {
          "components": [
            {
              "internalType": "uint256",
              "name": "level",
              "type": "uint256"
            },
            {
              "internalType": "uint256",
              "name": "experiencePoints",
              "type": "uint256"
            },
            {
              "internalType": "uint256[]",
              "name": "plantIds",
              "type": "uint256[]"
            },
            {
              "internalType": "uint256",
              "name": "allowedTokenBalance",
              "type": "uint256"
            },
            {
              "internalType": "bool",
              "name": "isPresent",
              "type": "bool"
            }
          ],
          "indexed": false,
          "internalType": "struct Structs.Participant",
          "name": "participant",
          "type": "tuple"
        },
        {
          "indexed": false,
          "internalType": "uint256",
          "name": "amount",
          "type": "uint256"
        }
      ],
      "name": "TokensClaimed",
      "type": "event"
    },
    {
      "anonymous": false,
      "inputs": [
        {
          "indexed": true,
          "internalType": "address",
          "name": "operator",
          "type": "address"
        },
        {
          "indexed": true,
          "internalType": "address",
          "name": "from",
          "type": "address"
        },
        {
          "indexed": true,
          "internalType": "address",
          "name": "to",
          "type": "address"
        },
        {
          "indexed": false,
          "internalType": "uint256[]",
          "name": "ids",
          "type": "uint256[]"
        },
        {
          "indexed": false,
          "internalType": "uint256[]",
          "name": "values",
          "type": "uint256[]"
        }
      ],
      "name": "TransferBatch",
      "type": "event"
    },
    {
      "anonymous": false,
      "inputs": [
        {
          "indexed": true,
          "internalType": "address",
          "name": "operator",
          "type": "address"
        },
        {
          "indexed": true,
          "internalType": "address",
          "name": "from",
          "type": "address"
        },
        {
          "indexed": true,
          "internalType": "address",
          "name": "to",
          "type": "address"
        },
        {
          "indexed": false,
          "internalType": "uint256",
          "name": "id",
          "type": "uint256"
        },
        {
          "indexed": false,
          "internalType": "uint256",
          "name": "value",
          "type": "uint256"
        }
      ],
      "name": "TransferSingle",
      "type": "event"
    },
    {
      "anonymous": false,
      "inputs": [
        {
          "indexed": false,
          "internalType": "string",
          "name": "value",
          "type": "string"
        },
        {
          "indexed": true,
          "internalType": "uint256",
          "name": "id",
          "type": "uint256"
        }
      ],
      "name": "URI",
      "type": "event"
    },
    {
      "inputs": [
        {
          "internalType": "address",
          "name": "account",
          "type": "address"
        },
        {
          "internalType": "uint256",
          "name": "id",
          "type": "uint256"
        }
      ],
      "name": "balanceOf",
      "outputs": [
        {
          "internalType": "uint256",
          "name": "",
          "type": "uint256"
        }
      ],
      "stateMutability": "view",
      "type": "function"
    },
    {
      "inputs": [
        {
          "internalType": "address[]",
          "name": "accounts",
          "type": "address[]"
        },
        {
          "internalType": "uint256[]",
          "name": "ids",
          "type": "uint256[]"
        }
      ],
      "name": "balanceOfBatch",
      "outputs": [
        {
          "internalType": "uint256[]",
          "name": "",
          "type": "uint256[]"
        }
      ],
      "stateMutability": "view",
      "type": "function"
    },
    {
      "inputs": [],
      "name": "checkUpkeep",
      "outputs": [],
      "stateMutability": "view",
      "type": "function"
    },
    {
      "inputs": [
        {
          "internalType": "uint256",
          "name": "id",
          "type": "uint256"
        }
      ],
      "name": "exists",
      "outputs": [
        {
          "internalType": "bool",
          "name": "",
          "type": "bool"
        }
      ],
      "stateMutability": "view",
      "type": "function"
    },
    {
      "inputs": [],
      "name": "fungibleTokenId",
      "outputs": [
        {
          "internalType": "uint256",
          "name": "",
          "type": "uint256"
        }
      ],
      "stateMutability": "view",
      "type": "function"
    },
    {
      "inputs": [],
      "name": "handleBuyPlant",
      "outputs": [],
      "stateMutability": "payable",
      "type": "function"
    },
    {
      "inputs": [],
      "name": "handleClaimMonthlyReward",
      "outputs": [],
      "stateMutability": "nonpayable",
      "type": "function"
    },
    {
      "inputs": [],
      "name": "handleClaimStartTokens",
      "outputs": [],
      "stateMutability": "payable",
      "type": "function"
    },
    {
      "inputs": [],
      "name": "handleReadInititalAllowance",
      "outputs": [
        {
          "internalType": "uint256",
          "name": "",
          "type": "uint256"
        }
      ],
      "stateMutability": "view",
      "type": "function"
    },
    {
      "inputs": [
        {
          "internalType": "address",
          "name": "account",
          "type": "address"
        }
      ],
      "name": "handleReadParticipant",
      "outputs": [
        {
          "components": [
            {
              "internalType": "uint256",
              "name": "level",
              "type": "uint256"
            },
            {
              "internalType": "uint256",
              "name": "experiencePoints",
              "type": "uint256"
            },
            {
              "internalType": "uint256[]",
              "name": "plantIds",
              "type": "uint256[]"
            },
            {
              "internalType": "uint256",
              "name": "allowedTokenBalance",
              "type": "uint256"
            },
            {
              "internalType": "bool",
              "name": "isPresent",
              "type": "bool"
            }
          ],
          "internalType": "struct Structs.Participant",
          "name": "",
          "type": "tuple"
        }
      ],
      "stateMutability": "view",
      "type": "function"
    },
    {
      "inputs": [
        {
          "internalType": "address",
          "name": "_store",
          "type": "address"
        },
        {
          "internalType": "address",
          "name": "_utils",
          "type": "address"
        },
        {
          "internalType": "address",
          "name": "_api",
          "type": "address"
        },
        {
          "internalType": "address",
          "name": "_burn",
          "type": "address"
        }
      ],
      "name": "handleUpdateContracts",
      "outputs": [],
      "stateMutability": "nonpayable",
      "type": "function"
    },
    {
      "inputs": [
        {
          "internalType": "uint256",
          "name": "tokenId",
          "type": "uint256"
        },
        {
          "internalType": "uint256",
          "name": "amount",
          "type": "uint256"
        }
      ],
      "name": "handleWaterPlant",
      "outputs": [],
      "stateMutability": "payable",
      "type": "function"
    },
    {
      "inputs": [
        {
          "internalType": "address",
          "name": "_store",
          "type": "address"
        },
        {
          "internalType": "address",
          "name": "_utils",
          "type": "address"
        },
        {
          "internalType": "address",
          "name": "_api",
          "type": "address"
        },
        {
          "internalType": "address",
          "name": "_burn",
          "type": "address"
        }
      ],
      "name": "initialize",
      "outputs": [],
      "stateMutability": "nonpayable",
      "type": "function"
    },
    {
      "inputs": [
        {
          "internalType": "address",
          "name": "account",
          "type": "address"
        },
        {
          "internalType": "address",
          "name": "operator",
          "type": "address"
        }
      ],
      "name": "isApprovedForAll",
      "outputs": [
        {
          "internalType": "bool",
          "name": "",
          "type": "bool"
        }
      ],
      "stateMutability": "view",
      "type": "function"
    },
    {
      "inputs": [
        {
          "internalType": "address",
          "name": "to",
          "type": "address"
        },
        {
          "internalType": "uint256[]",
          "name": "ids",
          "type": "uint256[]"
        },
        {
          "internalType": "uint256[]",
          "name": "amounts",
          "type": "uint256[]"
        },
        {
          "internalType": "bytes",
          "name": "data",
          "type": "bytes"
        }
      ],
      "name": "mintBatch",
      "outputs": [],
      "stateMutability": "nonpayable",
      "type": "function"
    },
    {
      "inputs": [],
      "name": "nonFungibleTokenCount",
      "outputs": [
        {
          "internalType": "uint256",
          "name": "",
          "type": "uint256"
        }
      ],
      "stateMutability": "view",
      "type": "function"
    },
    {
      "inputs": [
        {
          "internalType": "address",
          "name": "",
          "type": "address"
        },
        {
          "internalType": "address",
          "name": "",
          "type": "address"
        },
        {
          "internalType": "uint256[]",
          "name": "",
          "type": "uint256[]"
        },
        {
          "internalType": "uint256[]",
          "name": "",
          "type": "uint256[]"
        },
        {
          "internalType": "bytes",
          "name": "",
          "type": "bytes"
        }
      ],
      "name": "onERC1155BatchReceived",
      "outputs": [
        {
          "internalType": "bytes4",
          "name": "",
          "type": "bytes4"
        }
      ],
      "stateMutability": "nonpayable",
      "type": "function"
    },
    {
      "inputs": [
        {
          "internalType": "address",
          "name": "",
          "type": "address"
        },
        {
          "internalType": "address",
          "name": "",
          "type": "address"
        },
        {
          "internalType": "uint256",
          "name": "",
          "type": "uint256"
        },
        {
          "internalType": "uint256",
          "name": "",
          "type": "uint256"
        },
        {
          "internalType": "bytes",
          "name": "",
          "type": "bytes"
        }
      ],
      "name": "onERC1155Received",
      "outputs": [
        {
          "internalType": "bytes4",
          "name": "",
          "type": "bytes4"
        }
      ],
      "stateMutability": "nonpayable",
      "type": "function"
    },
    {
      "inputs": [],
      "name": "owner",
      "outputs": [
        {
          "internalType": "address",
          "name": "",
          "type": "address"
        }
      ],
      "stateMutability": "view",
      "type": "function"
    },
    {
      "inputs": [],
      "name": "performUpkeep",
      "outputs": [],
      "stateMutability": "view",
      "type": "function"
    },
    {
      "inputs": [],
      "name": "renounceOwnership",
      "outputs": [],
      "stateMutability": "nonpayable",
      "type": "function"
    },
    {
      "inputs": [
        {
          "internalType": "address",
          "name": "from",
          "type": "address"
        },
        {
          "internalType": "address",
          "name": "to",
          "type": "address"
        },
        {
          "internalType": "uint256[]",
          "name": "ids",
          "type": "uint256[]"
        },
        {
          "internalType": "uint256[]",
          "name": "amounts",
          "type": "uint256[]"
        },
        {
          "internalType": "bytes",
          "name": "data",
          "type": "bytes"
        }
      ],
      "name": "safeBatchTransferFrom",
      "outputs": [],
      "stateMutability": "nonpayable",
      "type": "function"
    },
    {
      "inputs": [
        {
          "internalType": "address",
          "name": "from",
          "type": "address"
        },
        {
          "internalType": "address",
          "name": "to",
          "type": "address"
        },
        {
          "internalType": "uint256",
          "name": "id",
          "type": "uint256"
        },
        {
          "internalType": "uint256",
          "name": "amount",
          "type": "uint256"
        },
        {
          "internalType": "bytes",
          "name": "data",
          "type": "bytes"
        }
      ],
      "name": "safeTransferFrom",
      "outputs": [],
      "stateMutability": "nonpayable",
      "type": "function"
    },
    {
      "inputs": [
        {
          "internalType": "address",
          "name": "operator",
          "type": "address"
        },
        {
          "internalType": "bool",
          "name": "approved",
          "type": "bool"
        }
      ],
      "name": "setApprovalForAll",
      "outputs": [],
      "stateMutability": "nonpayable",
      "type": "function"
    },
    {
      "inputs": [
        {
          "internalType": "uint256",
          "name": "tokenId",
          "type": "uint256"
        },
        {
          "internalType": "string",
          "name": "_uri",
          "type": "string"
        }
      ],
      "name": "setTokenUri",
      "outputs": [],
      "stateMutability": "nonpayable",
      "type": "function"
    },
    {
      "inputs": [
        {
          "internalType": "string",
          "name": "newuri",
          "type": "string"
        }
      ],
      "name": "setURI",
      "outputs": [],
      "stateMutability": "nonpayable",
      "type": "function"
    },
    {
      "inputs": [
        {
          "internalType": "bytes4",
          "name": "interfaceId",
          "type": "bytes4"
        }
      ],
      "name": "supportsInterface",
      "outputs": [
        {
          "internalType": "bool",
          "name": "",
          "type": "bool"
        }
      ],
      "stateMutability": "view",
      "type": "function"
    },
    {
      "inputs": [
        {
          "internalType": "uint256",
          "name": "id",
          "type": "uint256"
        }
      ],
      "name": "totalSupply",
      "outputs": [
        {
          "internalType": "uint256",
          "name": "",
          "type": "uint256"
        }
      ],
      "stateMutability": "view",
      "type": "function"
    },
    {
      "inputs": [
        {
          "internalType": "address",
          "name": "newOwner",
          "type": "address"
        }
      ],
      "name": "transferOwnership",
      "outputs": [],
      "stateMutability": "nonpayable",
      "type": "function"
    },
    {
      "inputs": [
        {
          "internalType": "uint256",
          "name": "tokenId",
          "type": "uint256"
        }
      ],
      "name": "uri",
      "outputs": [
        {
          "internalType": "string",
          "name": "",
          "type": "string"
        }
      ],
      "stateMutability": "view",
      "type": "function"
    },
    {
      "inputs": [],
      "name": "withdrawKojos",
      "outputs": [],
      "stateMutability": "payable",
      "type": "function"
    }
  ],
  "bytecode": "0x60806040523480156200001157600080fd5b506200001c62000022565b62000152565b6200002e60ff62000031565b50565b60008054610100900460ff1615620000ca578160ff1660011480156200006a575062000068306200014360201b62001a961760201c565b155b620000c25760405162461bcd60e51b815260206004820152602e602482015260008051602062003ba983398151915260448201526d191e481a5b9a5d1a585b1a5e995960921b60648201526084015b60405180910390fd5b506000919050565b60005460ff808416911610620001295760405162461bcd60e51b815260206004820152602e602482015260008051602062003ba983398151915260448201526d191e481a5b9a5d1a585b1a5e995960921b6064820152608401620000b9565b506000805460ff191660ff92909216919091179055600190565b6001600160a01b03163b151590565b613a4780620001626000396000f3fe6080604052600436106101d75760003560e01c80638da5cb5b11610102578063e599913911610095578063f2fde38b11610064578063f2fde38b1461056d578063f8c8765e1461058d578063fabe6b3c146105ad578063fc57ca29146105b557600080fd5b8063e5999139146104ab578063e985e9c5146104d8578063f23a6e6114610521578063f242432a1461054d57600080fd5b8063b4daaf55116100d1578063b4daaf5514610419578063bacb7dc014610430578063bc197c8114610438578063bd85b0391461047d57600080fd5b80638da5cb5b146103c95780639c3423b1146103f1578063a13abdad1461039f578063a22cb465146103f957600080fd5b806345e8eca81161017a578063584c7b3711610149578063584c7b37146103755780636c7ff22e1461038a5780636e4d243a1461039f578063715018a6146103b457600080fd5b806345e8eca8146102e15780634e1273f4146102f85780634f558e791461032557806357f7789e1461035557600080fd5b80630e89341c116101b65780630e89341c146102615780631f79087b1461028e5780631f7fdffa146102a15780632eb2c2d6146102c157600080fd5b8062fdd58e146101dc57806301ffc9a71461020f57806302fe53051461023f575b600080fd5b3480156101e857600080fd5b506101fc6101f7366004612ae2565b6105d5565b6040519081526020015b60405180910390f35b34801561021b57600080fd5b5061022f61022a366004612b22565b61066e565b6040519015158152602001610206565b34801561024b57600080fd5b5061025f61025a366004612c30565b61067f565b005b34801561026d57600080fd5b5061028161027c366004612c6c565b6106b5565b6040516102069190612cdd565b61025f61029c366004612cf0565b610758565b3480156102ad57600080fd5b5061025f6102bc366004612da6565b610cd4565b3480156102cd57600080fd5b5061025f6102dc366004612e3e565b610d10565b3480156102ed57600080fd5b506101fc6101615481565b34801561030457600080fd5b50610318610313366004612ee7565b610da7565b6040516102069190612fec565b34801561033157600080fd5b5061022f610340366004612c6c565b600090815261012d6020526040902054151590565b34801561036157600080fd5b5061025f610370366004612fff565b610ed0565b34801561038157600080fd5b506101fc610f1f565b34801561039657600080fd5b5061025f610fa2565b3480156103ab57600080fd5b5061025f6111aa565b3480156103c057600080fd5b5061025f6111c4565b3480156103d557600080fd5b506097546040516001600160a01b039091168152602001610206565b61025f6111f8565b34801561040557600080fd5b5061025f610414366004613049565b611402565b34801561042557600080fd5b506101fc6101605481565b61025f611411565b34801561044457600080fd5b50610464610453366004612e3e565b63bc197c8160e01b95945050505050565b6040516001600160e01b03199091168152602001610206565b34801561048957600080fd5b506101fc610498366004612c6c565b600090815261012d602052604090205490565b3480156104b757600080fd5b506104cb6104c6366004613080565b611474565b60405161020691906130e6565b3480156104e457600080fd5b5061022f6104f33660046130f9565b6001600160a01b03918216600090815260666020908152604080832093909416825291909152205460ff1690565b34801561052d57600080fd5b5061046461053c36600461312c565b63f23a6e6160e01b95945050505050565b34801561055957600080fd5b5061025f61056836600461312c565b61152a565b34801561057957600080fd5b5061025f610588366004613080565b6115b1565b34801561059957600080fd5b5061025f6105a8366004613190565b611649565b61025f61170f565b3480156105c157600080fd5b5061025f6105d0366004613190565b611a18565b60006001600160a01b0383166106465760405162461bcd60e51b815260206004820152602b60248201527f455243313135353a2062616c616e636520717565727920666f7220746865207a60448201526a65726f206164647265737360a81b60648201526084015b60405180910390fd5b5060009081526065602090815260408083206001600160a01b03949094168352929052205490565b600061067982611aa5565b92915050565b6097546001600160a01b031633146106a95760405162461bcd60e51b815260040161063d906131e4565b6106b281611aca565b50565b600081815261015f602052604090208054606091906106d390613219565b80601f01602080910402602001604051908101604052809291908181526020018280546106ff90613219565b801561074c5780601f106107215761010080835404028352916020019161074c565b820191906000526020600020905b81548152906001019060200180831161072f57829003601f168201915b50505050509050919050565b3233146107775760405162461bcd60e51b815260040161063d90613254565b6101625460405163e599913960e01b81523360048201526000916001600160a01b03169063e59991399060240160006040518083038186803b1580156107bc57600080fd5b505afa1580156107d0573d6000803e3d6000fd5b505050506040513d6000823e601f3d908101601f191682016040526107f89190810190613284565b61016254604051630ff6460160e11b8152600481018690529192506000916001600160a01b0390911690631fec8c029060240160a06040518083038186803b15801561084357600080fd5b505afa158015610857573d6000803e3d6000fd5b505050506040513d601f19601f8201168201806040525081019061087b9190613381565b9050816080015161089e5760405162461bcd60e51b815260040161063d906133f6565b80608001516108e75760405162461bcd60e51b8152602060048201526015602482015274283630b73a103237b2b9903737ba1032bc34b9ba1760591b604482015260640161063d565b60006108f633610160546105d5565b9050838110156109565760405162461bcd60e51b815260206004820152602560248201527f4e6f7420656e6f756768206b6f6a6f7320746f20776174657220796f757220706044820152643630b73a1760d91b606482015260840161063d565b610163546040516342ee184d60e11b81526000916001600160a01b0316906385dc309a9061098a908790899060040161342d565b60006040518083038186803b1580156109a257600080fd5b505afa1580156109b6573d6000803e3d6000fd5b505050506040513d6000823e601f3d908101601f191682016040526109de9190810190613284565b610163546040516358e5d9cf60e01b81529192506000916001600160a01b03909116906358e5d9cf90610a179087908a9060040161344f565b60a06040518083038186803b158015610a2f57600080fd5b505afa158015610a43573d6000803e3d6000fd5b505050506040513d601f19601f82011682018060405250810190610a679190613381565b61016254604051633fcd0c3760e01b81529192506001600160a01b031690633fcd0c3790610a9b9033908690600401613497565b600060405180830381600087803b158015610ab557600080fd5b505af1158015610ac9573d6000803e3d6000fd5b505050506040513d6000823e601f3d908101601f19168201604052610af19190810190613284565b5061016254604051635717651560e01b81526001600160a01b0390911690635717651590610b25908a9085906004016134bb565b60a060405180830381600087803b158015610b3f57600080fd5b505af1158015610b53573d6000803e3d6000fd5b505050506040513d601f19601f82011682018060405250810190610b779190613381565b50610163546040516333d2c6b160e11b81526000916001600160a01b0316906367a58d6290610bac9085908c9060040161344f565b60006040518083038186803b158015610bc457600080fd5b505afa158015610bd8573d6000803e3d6000fd5b505050506040513d6000823e601f3d908101601f19168201604052610c0091908101906134fc565b9050610c0c8882610ed0565b6000610c19606489613593565b610c249060026135b5565b90506000610c3360648a613593565b610c3e9060626135b5565b9050610c5f333061016054856040518060200160405280600081525061152a565b6101655461016054604080516020810190915260008152610c8f9233926001600160a01b0390911691859061152a565b7fa93d20792e171e87b9d540e0ae4312b934991d3c44a0e3632d43e42114d0783e8585604051610cc09291906135d4565b60405180910390a150505050505050505050565b6097546001600160a01b03163314610cfe5760405162461bcd60e51b815260040161063d906131e4565b610d0a84848484611add565b50505050565b6001600160a01b038516331480610d2c5750610d2c85336104f3565b610d935760405162461bcd60e51b815260206004820152603260248201527f455243313135353a207472616e736665722063616c6c6572206973206e6f74206044820152711bdddb995c881b9bdc88185c1c1c9bdd995960721b606482015260840161063d565b610da08585858585611c38565b5050505050565b60608151835114610e0c5760405162461bcd60e51b815260206004820152602960248201527f455243313135353a206163636f756e747320616e6420696473206c656e677468604482015268040dad2e6dac2e8c6d60bb1b606482015260840161063d565b600083516001600160401b03811115610e2757610e27612b46565b604051908082528060200260200182016040528015610e50578160200160208202803683370190505b50905060005b8451811015610ec857610e9b858281518110610e7457610e74613623565b6020026020010151858381518110610e8e57610e8e613623565b60200260200101516105d5565b828281518110610ead57610ead613623565b6020908102919091010152610ec181613639565b9050610e56565b509392505050565b6097546001600160a01b03163314610efa5760405162461bcd60e51b815260040161063d906131e4565b600082815261015f602090815260409091208251610f1a92840190612a32565b505050565b6101625460408051631bca55e560e01b815290516000926001600160a01b031691631bca55e5916004808301926020929190829003018186803b158015610f6557600080fd5b505afa158015610f79573d6000803e3d6000fd5b505050506040513d601f19601f82011682018060405250810190610f9d9190613654565b905090565b323314610fc15760405162461bcd60e51b815260040161063d90613254565b6101625460405163e599913960e01b81523360048201526000916001600160a01b03169063e59991399060240160006040518083038186803b15801561100657600080fd5b505afa15801561101a573d6000803e3d6000fd5b505050506040513d6000823e601f3d908101601f191682016040526110429190810190613284565b905080608001516110655760405162461bcd60e51b815260040161063d906133f6565b60608101516110b65760405162461bcd60e51b815260206004820152601b60248201527f5061727469636970616e74206973206e6f7420616c6c6f7765642e0000000000604482015260640161063d565b6110d83361016054836060015160405180602001604052806000815250611de5565b6000606082015261016254604051633fcd0c3760e01b815282916001600160a01b031690633fcd0c37906111129033908590600401613497565b600060405180830381600087803b15801561112c57600080fd5b505af1158015611140573d6000803e3d6000fd5b505050506040513d6000823e601f3d908101601f191682016040526111689190810190613284565b507f1800ac493c2559610df079ad63033e4a99ae93f599a3df7ef426015113ff027882836060015160405161119e92919061342d565b60405180910390a15050565b6111c260405180602001604052806000815250611ed0565b565b6097546001600160a01b031633146111ee5760405162461bcd60e51b815260040161063d906131e4565b6111c26000611f13565b3233146112175760405162461bcd60e51b815260040161063d90613254565b6101625460405163e599913960e01b81523360048201526000916001600160a01b03169063e59991399060240160006040518083038186803b15801561125c57600080fd5b505afa158015611270573d6000803e3d6000fd5b505050506040513d6000823e601f3d908101601f191682016040526112989190810190613284565b905080608001516112bb5760405162461bcd60e51b815260040161063d906133f6565b60006112ca33610160546105d5565b905061016260009054906101000a90046001600160a01b03166001600160a01b03166358ac00386040518163ffffffff1660e01b815260040160206040518083038186803b15801561131b57600080fd5b505afa15801561132f573d6000803e3d6000fd5b505050506040513d601f19601f820116820180604052508101906113539190613654565b8110156113b45760405162461bcd60e51b815260206004820152602960248201527f4e6f7420656e6f756768206b6f6a6f732e204f6e6520706c616e7420636f73746044820152683990189035b7b5379760b91b606482015260840161063d565b6000806113bf611f65565b915091507fd3c27ff71e4143519cb0a887c47b332099ba4f226bf05e73f471a71a987691cc82826040516113f49291906135d4565b60405180910390a150505050565b61140d338383612217565b5050565b6097546001600160a01b0316331461143b5760405162461bcd60e51b815260040161063d906131e4565b6111c2306114516097546001600160a01b031690565b6101605461145f30826105d5565b6040518060200160405280600081525061152a565b6114a86040518060a00160405280600081526020016000815260200160608152602001600081526020016000151581525090565b6101625460405163e599913960e01b81526001600160a01b0384811660048301529091169063e59991399060240160006040518083038186803b1580156114ee57600080fd5b505afa158015611502573d6000803e3d6000fd5b505050506040513d6000823e601f3d908101601f191682016040526106799190810190613284565b6001600160a01b038516331480611546575061154685336104f3565b6115a45760405162461bcd60e51b815260206004820152602960248201527f455243313135353a2063616c6c6572206973206e6f74206f776e6572206e6f7260448201526808185c1c1c9bdd995960ba1b606482015260840161063d565b610da085858585856122f8565b6097546001600160a01b031633146115db5760405162461bcd60e51b815260040161063d906131e4565b6001600160a01b0381166116405760405162461bcd60e51b815260206004820152602660248201527f4f776e61626c653a206e6577206f776e657220697320746865207a65726f206160448201526564647265737360d01b606482015260840161063d565b6106b281611f13565b60006116556001612434565b9050801561166d576000805461ff0019166101001790555b6116756124c1565b61016280546001600160a01b038088166001600160a01b031992831617909255610163805487841690831617905561016480548684169083161790556101658054928516929091169190911790558015610da0576000805461ff0019169055604051600181527f7f26b83ff96e1f2b6a682f133852f6798a09c465da95921460cefb38474024989060200160405180910390a15050505050565b32331461172e5760405162461bcd60e51b815260040161063d90613254565b6101625460405163e599913960e01b81523360048201526000916001600160a01b03169063e59991399060240160006040518083038186803b15801561177357600080fd5b505afa158015611787573d6000803e3d6000fd5b505050506040513d6000823e601f3d908101601f191682016040526117af9190810190613284565b90508060800151156118385760405162461bcd60e51b815260206004820152604660248201527f5061727469636970616e7420616c7265616479206578697374732e20596f752060448201527f63616e206f6e6c7920636c61696d20796f757220696e7469616c206b6f6a6f736064820152651037b731b29760d11b608482015260a40161063d565b610162546040516311622ce560e01b81523360048201526000916001600160a01b0316906311622ce590602401600060405180830381600087803b15801561187f57600080fd5b505af1158015611893573d6000803e3d6000fd5b505050506040513d6000823e601f3d908101601f191682016040526118bb9190810190613284565b9050611961336101605461016260009054906101000a90046001600160a01b03166001600160a01b0316631bca55e56040518163ffffffff1660e01b815260040160206040518083038186803b15801561191457600080fd5b505afa158015611928573d6000803e3d6000fd5b505050506040513d601f19601f8201168201806040525081019061194c9190613654565b60405180602001604052806000815250611de5565b7f1800ac493c2559610df079ad63033e4a99ae93f599a3df7ef426015113ff02788161016260009054906101000a90046001600160a01b03166001600160a01b0316631bca55e56040518163ffffffff1660e01b815260040160206040518083038186803b1580156119d257600080fd5b505afa1580156119e6573d6000803e3d6000fd5b505050506040513d601f19601f82011682018060405250810190611a0a9190613654565b60405161119e92919061342d565b6097546001600160a01b03163314611a425760405162461bcd60e51b815260040161063d906131e4565b61016280546001600160a01b039586166001600160a01b0319918216179091556101638054948616948216949094179093556101648054928516928416929092179091556101658054919093169116179055565b6001600160a01b03163b151590565b60006001600160e01b03198216630271189760e51b148061067957506106798261251e565b805161140d906067906020840190612a32565b6001600160a01b038416611b035760405162461bcd60e51b815260040161063d9061366d565b8151835114611b245760405162461bcd60e51b815260040161063d906136ae565b33611b348160008787878761256e565b60005b8451811015611bd057838181518110611b5257611b52613623565b602002602001015160656000878481518110611b7057611b70613623565b602002602001015181526020019081526020016000206000886001600160a01b03166001600160a01b031681526020019081526020016000206000828254611bb891906136f6565b90915550819050611bc881613639565b915050611b37565b50846001600160a01b031660006001600160a01b0316826001600160a01b03167f4a39dc06d4c0dbc64b70af90fd698a233a518aa5d07e595d983b8c0526c8f7fb8787604051611c2192919061370e565b60405180910390a4610da08160008787878761257c565b8151835114611c595760405162461bcd60e51b815260040161063d906136ae565b6001600160a01b038416611c7f5760405162461bcd60e51b815260040161063d9061373c565b33611c8e81878787878761256e565b60005b8451811015611d77576000858281518110611cae57611cae613623565b602002602001015190506000858381518110611ccc57611ccc613623565b60209081029190910181015160008481526065835260408082206001600160a01b038e168352909352919091205490915081811015611d1d5760405162461bcd60e51b815260040161063d90613781565b60008381526065602090815260408083206001600160a01b038e8116855292528083208585039055908b16825281208054849290611d5c9084906136f6565b9250508190555050505080611d7090613639565b9050611c91565b50846001600160a01b0316866001600160a01b0316826001600160a01b03167f4a39dc06d4c0dbc64b70af90fd698a233a518aa5d07e595d983b8c0526c8f7fb8787604051611dc792919061370e565b60405180910390a4611ddd81878787878761257c565b505050505050565b6001600160a01b038416611e0b5760405162461bcd60e51b815260040161063d9061366d565b336000611e17856126e7565b90506000611e24856126e7565b9050611e358360008985858961256e565b60008681526065602090815260408083206001600160a01b038b16845290915281208054879290611e679084906136f6565b909155505060408051878152602081018790526001600160a01b03808a1692600092918716917fc3d58168c5ae7397731d063d5bbf3d657854427343f4c083240f7aacaa2d0f62910160405180910390a4611ec783600089898989612732565b50505050505050565b6106b281604051602401611ee49190612cdd565b60408051601f198184030181529190526020810180516001600160e01b031663104c13eb60e21b1790526127fc565b609780546001600160a01b038381166001600160a01b0319831681179093556040519116919082907f8be0079c531659141344cd1fd0a4f28419497f9722a3daafe3b4186f6b6457e090600090a35050565b611f996040518060a00160405280600081526020016000815260200160608152602001600081526020016000151581525090565b611fcd6040518060a00160405280600081526020016000815260200160008152602001600081526020016000151581525090565b611fec3361016154600160405180602001604052806000815250611de5565b61207c33306101605461016260009054906101000a90046001600160a01b03166001600160a01b03166358ac00386040518163ffffffff1660e01b815260040160206040518083038186803b15801561204457600080fd5b505afa158015612058573d6000803e3d6000fd5b505050506040513d601f19601f8201168201806040525081019061145f9190613654565b6101625461016154604051639fd9491760e01b815233600482015260248101919091526000916001600160a01b031690639fd9491790604401600060405180830381600087803b1580156120cf57600080fd5b505af11580156120e3573d6000803e3d6000fd5b505050506040513d6000823e601f3d908101601f1916820160405261210b9190810190613284565b6101625461016154604051631ec5a1a760e21b81529293506000926001600160a01b0390921691637b16869c916121489160040190815260200190565b60a060405180830381600087803b15801561216257600080fd5b505af1158015612176573d6000803e3d6000fd5b505050506040513d601f19601f8201168201806040525081019061219a9190613381565b90506121a461281d565b61016260009054906101000a90046001600160a01b03166001600160a01b0316630591f3626040518163ffffffff1660e01b8152600401600060405180830381600087803b1580156121f557600080fd5b505af1158015612209573d6000803e3d6000fd5b509396929550919350505050565b816001600160a01b0316836001600160a01b0316141561228b5760405162461bcd60e51b815260206004820152602960248201527f455243313135353a2073657474696e6720617070726f76616c20737461747573604482015268103337b91039b2b63360b91b606482015260840161063d565b6001600160a01b03838116600081815260666020908152604080832094871680845294825291829020805460ff191686151590811790915591519182527f17307eab39ab6107e8899845ad3d59bd9653f200f220920489ca2b5937696c31910160405180910390a3505050565b6001600160a01b03841661231e5760405162461bcd60e51b815260040161063d9061373c565b33600061232a856126e7565b90506000612337856126e7565b905061234783898985858961256e565b60008681526065602090815260408083206001600160a01b038c1684529091529020548581101561238a5760405162461bcd60e51b815260040161063d90613781565b60008781526065602090815260408083206001600160a01b038d8116855292528083208985039055908a168252812080548892906123c99084906136f6565b909155505060408051888152602081018890526001600160a01b03808b16928c821692918816917fc3d58168c5ae7397731d063d5bbf3d657854427343f4c083240f7aacaa2d0f62910160405180910390a4612429848a8a8a8a8a612732565b505050505050505050565b60008054610100900460ff161561247b578160ff1660011480156124575750303b155b6124735760405162461bcd60e51b815260040161063d906137cb565b506000919050565b60005460ff8084169116106124a25760405162461bcd60e51b815260040161063d906137cb565b506000805460ff191660ff92909216919091179055600190565b919050565b600054610100900460ff166124e85760405162461bcd60e51b815260040161063d90613819565b61250060405180602001604052806000815250612838565b61250861285f565b61251061288f565b600061016055600161016155565b60006001600160e01b03198216636cdb3d1360e11b148061254f57506001600160e01b031982166303a24d0760e21b145b8061067957506301ffc9a760e01b6001600160e01b0319831614610679565b611ddd8686868686866128b6565b6001600160a01b0384163b15611ddd5760405163bc197c8160e01b81526001600160a01b0385169063bc197c81906125c09089908990889088908890600401613864565b602060405180830381600087803b1580156125da57600080fd5b505af192505050801561260a575060408051601f3d908101601f19168201909252612607918101906138c2565b60015b6126b7576126166138df565b806308c379a01415612650575061262b6138fb565b806126365750612652565b8060405162461bcd60e51b815260040161063d9190612cdd565b505b60405162461bcd60e51b815260206004820152603460248201527f455243313135353a207472616e7366657220746f206e6f6e20455243313135356044820152732932b1b2b4bb32b91034b6b83632b6b2b73a32b960611b606482015260840161063d565b6001600160e01b0319811663bc197c8160e01b14611ec75760405162461bcd60e51b815260040161063d90613984565b6040805160018082528183019092526060916000919060208083019080368337019050509050828160008151811061272157612721613623565b602090810291909101015292915050565b6001600160a01b0384163b15611ddd5760405163f23a6e6160e01b81526001600160a01b0385169063f23a6e619061277690899089908890889088906004016139cc565b602060405180830381600087803b15801561279057600080fd5b505af19250505080156127c0575060408051601f3d908101601f191682019092526127bd918101906138c2565b60015b6127cc576126166138df565b6001600160e01b0319811663f23a6e6160e01b14611ec75760405162461bcd60e51b815260040161063d90613984565b80516a636f6e736f6c652e6c6f67602083016000808483855afa5050505050565b6001610161600082825461283191906136f6565b9091555050565b600054610100900460ff166106a95760405162461bcd60e51b815260040161063d90613819565b600054610100900460ff166128865760405162461bcd60e51b815260040161063d90613819565b6111c233611f13565b600054610100900460ff166111c25760405162461bcd60e51b815260040161063d90613819565b6001600160a01b03851661293e5760005b835181101561293c578281815181106128e2576128e2613623565b602002602001015161012d600086848151811061290157612901613623565b60200260200101518152602001908152602001600020600082825461292691906136f6565b90915550612935905081613639565b90506128c7565b505b6001600160a01b038416611ddd5760005b8351811015611ec757600084828151811061296c5761296c613623565b60200260200101519050600084838151811061298a5761298a613623565b60200260200101519050600061012d600084815260200190815260200160002054905081811015612a0e5760405162461bcd60e51b815260206004820152602860248201527f455243313135353a206275726e20616d6f756e74206578636565647320746f74604482015267616c537570706c7960c01b606482015260840161063d565b600092835261012d602052604090922091039055612a2b81613639565b905061294f565b828054612a3e90613219565b90600052602060002090601f016020900481019282612a605760008555612aa6565b82601f10612a7957805160ff1916838001178555612aa6565b82800160010185558215612aa6579182015b82811115612aa6578251825591602001919060010190612a8b565b50612ab2929150612ab6565b5090565b5b80821115612ab25760008155600101612ab7565b80356001600160a01b03811681146124bc57600080fd5b60008060408385031215612af557600080fd5b612afe83612acb565b946020939093013593505050565b6001600160e01b0319811681146106b257600080fd5b600060208284031215612b3457600080fd5b8135612b3f81612b0c565b9392505050565b634e487b7160e01b600052604160045260246000fd5b60a081018181106001600160401b0382111715612b7b57612b7b612b46565b60405250565b601f8201601f191681016001600160401b0381118282101715612ba657612ba6612b46565b6040525050565b60006001600160401b03821115612bc657612bc6612b46565b50601f01601f191660200190565b600082601f830112612be557600080fd5b8135612bf081612bad565b604051612bfd8282612b81565b828152856020848701011115612c1257600080fd5b82602086016020830137600092810160200192909252509392505050565b600060208284031215612c4257600080fd5b81356001600160401b03811115612c5857600080fd5b612c6484828501612bd4565b949350505050565b600060208284031215612c7e57600080fd5b5035919050565b60005b83811015612ca0578181015183820152602001612c88565b83811115610d0a5750506000910152565b60008151808452612cc9816020860160208601612c85565b601f01601f19169290920160200192915050565b602081526000612b3f6020830184612cb1565b60008060408385031215612d0357600080fd5b50508035926020909101359150565b60006001600160401b03821115612d2b57612d2b612b46565b5060051b60200190565b600082601f830112612d4657600080fd5b81356020612d5382612d12565b604051612d608282612b81565b83815260059390931b8501820192828101915086841115612d8057600080fd5b8286015b84811015612d9b5780358352918301918301612d84565b509695505050505050565b60008060008060808587031215612dbc57600080fd5b612dc585612acb565b935060208501356001600160401b0380821115612de157600080fd5b612ded88838901612d35565b94506040870135915080821115612e0357600080fd5b612e0f88838901612d35565b93506060870135915080821115612e2557600080fd5b50612e3287828801612bd4565b91505092959194509250565b600080600080600060a08688031215612e5657600080fd5b612e5f86612acb565b9450612e6d60208701612acb565b935060408601356001600160401b0380821115612e8957600080fd5b612e9589838a01612d35565b94506060880135915080821115612eab57600080fd5b612eb789838a01612d35565b93506080880135915080821115612ecd57600080fd5b50612eda88828901612bd4565b9150509295509295909350565b60008060408385031215612efa57600080fd5b82356001600160401b0380821115612f1157600080fd5b818501915085601f830112612f2557600080fd5b81356020612f3282612d12565b604051612f3f8282612b81565b83815260059390931b8501820192828101915089841115612f5f57600080fd5b948201945b83861015612f8457612f7586612acb565b82529482019490820190612f64565b96505086013592505080821115612f9a57600080fd5b50612fa785828601612d35565b9150509250929050565b600081518084526020808501945080840160005b83811015612fe157815187529582019590820190600101612fc5565b509495945050505050565b602081526000612b3f6020830184612fb1565b6000806040838503121561301257600080fd5b8235915060208301356001600160401b0381111561302f57600080fd5b612fa785828601612bd4565b80151581146106b257600080fd5b6000806040838503121561305c57600080fd5b61306583612acb565b915060208301356130758161303b565b809150509250929050565b60006020828403121561309257600080fd5b612b3f82612acb565b80518252602081015160208301526000604082015160a060408501526130c460a0850182612fb1565b9050606083015160608501526080830151151560808501528091505092915050565b602081526000612b3f602083018461309b565b6000806040838503121561310c57600080fd5b61311583612acb565b915061312360208401612acb565b90509250929050565b600080600080600060a0868803121561314457600080fd5b61314d86612acb565b945061315b60208701612acb565b9350604086013592506060860135915060808601356001600160401b0381111561318457600080fd5b612eda88828901612bd4565b600080600080608085870312156131a657600080fd5b6131af85612acb565b93506131bd60208601612acb565b92506131cb60408601612acb565b91506131d960608601612acb565b905092959194509250565b6020808252818101527f4f776e61626c653a2063616c6c6572206973206e6f7420746865206f776e6572604082015260600190565b600181811c9082168061322d57607f821691505b6020821081141561324e57634e487b7160e01b600052602260045260246000fd5b50919050565b6020808252600b908201526a2737ba1030b71022a7a09760a91b604082015260600190565b80516124bc8161303b565b6000602080838503121561329757600080fd5b82516001600160401b03808211156132ae57600080fd5b9084019060a082870312156132c257600080fd5b6040516132ce81612b5c565b8251815283830151848201526040830151828111156132ec57600080fd5b83019150601f820187136132ff57600080fd5b815161330a81612d12565b6040516133178282612b81565b82815260059290921b840186019186810191508983111561333757600080fd5b938601935b828510156133555784518252938601939086019061333c565b604084015250506060838101519082015261337260808401613279565b60808201529695505050505050565b600060a0828403121561339357600080fd5b60405160a081018181106001600160401b03821117156133b5576133b5612b46565b80604052508251815260208301516020820152604083015160408201526060830151606082015260808301516133ea8161303b565b60808201529392505050565b6020808252601b908201527f5061727469636970616e7420646f6573206e6f742065786973742e0000000000604082015260600190565b604081526000613440604083018561309b565b90508260208301529392505050565b60c0810161348a8285805182526020810151602083015260408101516040830152606081015160608301526080810151151560808301525050565b8260a08301529392505050565b6001600160a01b0383168152604060208201819052600090612c649083018461309b565b82815260c08101612b3f6020830184805182526020810151602083015260408101516040830152606081015160608301526080810151151560808301525050565b60006020828403121561350e57600080fd5b81516001600160401b0381111561352457600080fd5b8201601f8101841361353557600080fd5b805161354081612bad565b60405161354d8282612b81565b82815286602084860101111561356257600080fd5b613573836020830160208701612c85565b9695505050505050565b634e487b7160e01b600052601160045260246000fd5b6000826135b057634e487b7160e01b600052601260045260246000fd5b500490565b60008160001904831182151516156135cf576135cf61357d565b500290565b60c0815260006135e760c083018561309b565b9050612b3f6020830184805182526020810151602083015260408101516040830152606081015160608301526080810151151560808301525050565b634e487b7160e01b600052603260045260246000fd5b600060001982141561364d5761364d61357d565b5060010190565b60006020828403121561366657600080fd5b5051919050565b60208082526021908201527f455243313135353a206d696e7420746f20746865207a65726f206164647265736040820152607360f81b606082015260800190565b60208082526028908201527f455243313135353a2069647320616e6420616d6f756e7473206c656e677468206040820152670dad2e6dac2e8c6d60c31b606082015260800190565b600082198211156137095761370961357d565b500190565b6040815260006137216040830185612fb1565b82810360208401526137338185612fb1565b95945050505050565b60208082526025908201527f455243313135353a207472616e7366657220746f20746865207a65726f206164604082015264647265737360d81b606082015260800190565b6020808252602a908201527f455243313135353a20696e73756666696369656e742062616c616e636520666f60408201526939103a3930b739b332b960b11b606082015260800190565b6020808252602e908201527f496e697469616c697a61626c653a20636f6e747261637420697320616c72656160408201526d191e481a5b9a5d1a585b1a5e995960921b606082015260800190565b6020808252602b908201527f496e697469616c697a61626c653a20636f6e7472616374206973206e6f74206960408201526a6e697469616c697a696e6760a81b606082015260800190565b6001600160a01b0386811682528516602082015260a06040820181905260009061389090830186612fb1565b82810360608401526138a28186612fb1565b905082810360808401526138b68185612cb1565b98975050505050505050565b6000602082840312156138d457600080fd5b8151612b3f81612b0c565b600060033d11156138f85760046000803e5060005160e01c5b90565b600060443d10156139095790565b6040516003193d81016004833e81513d6001600160401b03816024840111818411171561393857505050505090565b82850191508151818111156139505750505050505090565b843d870101602082850101111561396a5750505050505090565b61397960208286010187612b81565b509095945050505050565b60208082526028908201527f455243313135353a204552433131353552656365697665722072656a656374656040820152676420746f6b656e7360c01b606082015260800190565b6001600160a01b03868116825285166020820152604081018490526060810183905260a060808201819052600090613a0690830184612cb1565b97965050505050505056fea26469706673582212209bf8dd0d2d872262f61886c233f72a2562df789eca738912282ab0c511b1373d64736f6c63430008090033496e697469616c697a61626c653a20636f6e747261637420697320616c726561",
  "linkReferences": {},
  "deployedLinkReferences": {}
}