{
  "_format": "hh-sol-artifact-1",
  "contractName": "KojoV1",
  "sourceName": "contracts/KojoV1.sol",
  "abi": [
    {
      "anonymous": false,
      "inputs": [
        {
          "indexed": true,
          "internalType": "address",
          "name": "account",
          "type": "address"
        },
        {
          "indexed": true,
          "internalType": "address",
          "name": "operator",
          "type": "address"
        },
        {
          "indexed": false,
          "internalType": "bool",
          "name": "approved",
          "type": "bool"
        }
      ],
      "name": "ApprovalForAll",
      "type": "event"
    },
    {
      "anonymous": false,
      "inputs": [
        {
          "indexed": false,
          "internalType": "uint8",
          "name": "version",
          "type": "uint8"
        }
      ],
      "name": "Initialized",
      "type": "event"
    },
    {
      "anonymous": false,
      "inputs": [
        {
          "indexed": true,
          "internalType": "address",
          "name": "previousOwner",
          "type": "address"
        },
        {
          "indexed": true,
          "internalType": "address",
          "name": "newOwner",
          "type": "address"
        }
      ],
      "name": "OwnershipTransferred",
      "type": "event"
    },
    {
      "anonymous": false,
      "inputs": [
        {
          "components": [
            {
              "internalType": "uint256",
              "name": "level",
              "type": "uint256"
            },
            {
              "internalType": "uint256",
              "name": "experiencePoints",
              "type": "uint256"
            },
            {
              "internalType": "uint256",
              "name": "timestamp",
              "type": "uint256"
            },
            {
              "internalType": "uint256[]",
              "name": "plantIds",
              "type": "uint256[]"
            },
            {
              "internalType": "uint256",
              "name": "allowedTokenBalance",
              "type": "uint256"
            },
            {
              "internalType": "bool",
              "name": "isPresent",
              "type": "bool"
            }
          ],
          "indexed": false,
          "internalType": "struct Structs.Participant",
          "name": "participant",
          "type": "tuple"
        },
        {
          "components": [
            {
              "internalType": "uint256",
              "name": "typeId",
              "type": "uint256"
            },
            {
              "internalType": "uint256",
              "name": "level",
              "type": "uint256"
            },
            {
              "internalType": "uint256",
              "name": "experiencePoints",
              "type": "uint256"
            },
            {
              "internalType": "uint256",
              "name": "lifes",
              "type": "uint256"
            },
            {
              "internalType": "uint256",
              "name": "levelCost",
              "type": "uint256"
            },
            {
              "internalType": "bool",
              "name": "isPresent",
              "type": "bool"
            }
          ],
          "indexed": false,
          "internalType": "struct Structs.Plant",
          "name": "plant",
          "type": "tuple"
        }
      ],
      "name": "PlantMinted",
      "type": "event"
    },
    {
      "anonymous": false,
      "inputs": [
        {
          "components": [
            {
              "internalType": "uint256",
              "name": "level",
              "type": "uint256"
            },
            {
              "internalType": "uint256",
              "name": "experiencePoints",
              "type": "uint256"
            },
            {
              "internalType": "uint256",
              "name": "timestamp",
              "type": "uint256"
            },
            {
              "internalType": "uint256[]",
              "name": "plantIds",
              "type": "uint256[]"
            },
            {
              "internalType": "uint256",
              "name": "allowedTokenBalance",
              "type": "uint256"
            },
            {
              "internalType": "bool",
              "name": "isPresent",
              "type": "bool"
            }
          ],
          "indexed": false,
          "internalType": "struct Structs.Participant",
          "name": "participant",
          "type": "tuple"
        },
        {
          "components": [
            {
              "internalType": "uint256",
              "name": "typeId",
              "type": "uint256"
            },
            {
              "internalType": "uint256",
              "name": "level",
              "type": "uint256"
            },
            {
              "internalType": "uint256",
              "name": "experiencePoints",
              "type": "uint256"
            },
            {
              "internalType": "uint256",
              "name": "lifes",
              "type": "uint256"
            },
            {
              "internalType": "uint256",
              "name": "levelCost",
              "type": "uint256"
            },
            {
              "internalType": "bool",
              "name": "isPresent",
              "type": "bool"
            }
          ],
          "indexed": false,
          "internalType": "struct Structs.Plant",
          "name": "plant",
          "type": "tuple"
        }
      ],
      "name": "PlantWatered",
      "type": "event"
    },
    {
      "anonymous": false,
      "inputs": [
        {
          "components": [
            {
              "internalType": "uint256",
              "name": "level",
              "type": "uint256"
            },
            {
              "internalType": "uint256",
              "name": "experiencePoints",
              "type": "uint256"
            },
            {
              "internalType": "uint256",
              "name": "timestamp",
              "type": "uint256"
            },
            {
              "internalType": "uint256[]",
              "name": "plantIds",
              "type": "uint256[]"
            },
            {
              "internalType": "uint256",
              "name": "allowedTokenBalance",
              "type": "uint256"
            },
            {
              "internalType": "bool",
              "name": "isPresent",
              "type": "bool"
            }
          ],
          "indexed": false,
          "internalType": "struct Structs.Participant",
          "name": "participant",
          "type": "tuple"
        },
        {
          "indexed": false,
          "internalType": "uint256",
          "name": "amount",
          "type": "uint256"
        }
      ],
      "name": "TokensClaimed",
      "type": "event"
    },
    {
      "anonymous": false,
      "inputs": [
        {
          "indexed": true,
          "internalType": "address",
          "name": "operator",
          "type": "address"
        },
        {
          "indexed": true,
          "internalType": "address",
          "name": "from",
          "type": "address"
        },
        {
          "indexed": true,
          "internalType": "address",
          "name": "to",
          "type": "address"
        },
        {
          "indexed": false,
          "internalType": "uint256[]",
          "name": "ids",
          "type": "uint256[]"
        },
        {
          "indexed": false,
          "internalType": "uint256[]",
          "name": "values",
          "type": "uint256[]"
        }
      ],
      "name": "TransferBatch",
      "type": "event"
    },
    {
      "anonymous": false,
      "inputs": [
        {
          "indexed": true,
          "internalType": "address",
          "name": "operator",
          "type": "address"
        },
        {
          "indexed": true,
          "internalType": "address",
          "name": "from",
          "type": "address"
        },
        {
          "indexed": true,
          "internalType": "address",
          "name": "to",
          "type": "address"
        },
        {
          "indexed": false,
          "internalType": "uint256",
          "name": "id",
          "type": "uint256"
        },
        {
          "indexed": false,
          "internalType": "uint256",
          "name": "value",
          "type": "uint256"
        }
      ],
      "name": "TransferSingle",
      "type": "event"
    },
    {
      "anonymous": false,
      "inputs": [
        {
          "indexed": false,
          "internalType": "string",
          "name": "value",
          "type": "string"
        },
        {
          "indexed": true,
          "internalType": "uint256",
          "name": "id",
          "type": "uint256"
        }
      ],
      "name": "URI",
      "type": "event"
    },
    {
      "inputs": [
        {
          "internalType": "address",
          "name": "account",
          "type": "address"
        },
        {
          "internalType": "uint256",
          "name": "id",
          "type": "uint256"
        }
      ],
      "name": "balanceOf",
      "outputs": [
        {
          "internalType": "uint256",
          "name": "",
          "type": "uint256"
        }
      ],
      "stateMutability": "view",
      "type": "function"
    },
    {
      "inputs": [
        {
          "internalType": "address[]",
          "name": "accounts",
          "type": "address[]"
        },
        {
          "internalType": "uint256[]",
          "name": "ids",
          "type": "uint256[]"
        }
      ],
      "name": "balanceOfBatch",
      "outputs": [
        {
          "internalType": "uint256[]",
          "name": "",
          "type": "uint256[]"
        }
      ],
      "stateMutability": "view",
      "type": "function"
    },
    {
      "inputs": [],
      "name": "burnAddress",
      "outputs": [
        {
          "internalType": "address",
          "name": "",
          "type": "address"
        }
      ],
      "stateMutability": "view",
      "type": "function"
    },
    {
      "inputs": [
        {
          "internalType": "bytes",
          "name": "_checkData",
          "type": "bytes"
        }
      ],
      "name": "checkUpkeep",
      "outputs": [
        {
          "internalType": "bool",
          "name": "upkeepNeeded",
          "type": "bool"
        },
        {
          "internalType": "bytes",
          "name": "",
          "type": "bytes"
        }
      ],
      "stateMutability": "view",
      "type": "function"
    },
    {
      "inputs": [
        {
          "internalType": "uint256",
          "name": "id",
          "type": "uint256"
        }
      ],
      "name": "exists",
      "outputs": [
        {
          "internalType": "bool",
          "name": "",
          "type": "bool"
        }
      ],
      "stateMutability": "view",
      "type": "function"
    },
    {
      "inputs": [],
      "name": "fungibleTokenId",
      "outputs": [
        {
          "internalType": "uint256",
          "name": "",
          "type": "uint256"
        }
      ],
      "stateMutability": "view",
      "type": "function"
    },
    {
      "inputs": [],
      "name": "handleBuyPlant",
      "outputs": [],
      "stateMutability": "payable",
      "type": "function"
    },
    {
      "inputs": [],
      "name": "handleClaimMonthlyReward",
      "outputs": [],
      "stateMutability": "nonpayable",
      "type": "function"
    },
    {
      "inputs": [],
      "name": "handleClaimStartTokens",
      "outputs": [],
      "stateMutability": "payable",
      "type": "function"
    },
    {
      "inputs": [],
      "name": "handleReadInititalAllowance",
      "outputs": [
        {
          "internalType": "uint256",
          "name": "",
          "type": "uint256"
        }
      ],
      "stateMutability": "view",
      "type": "function"
    },
    {
      "inputs": [
        {
          "internalType": "address",
          "name": "account",
          "type": "address"
        }
      ],
      "name": "handleReadParticipant",
      "outputs": [
        {
          "components": [
            {
              "internalType": "uint256",
              "name": "level",
              "type": "uint256"
            },
            {
              "internalType": "uint256",
              "name": "experiencePoints",
              "type": "uint256"
            },
            {
              "internalType": "uint256",
              "name": "timestamp",
              "type": "uint256"
            },
            {
              "internalType": "uint256[]",
              "name": "plantIds",
              "type": "uint256[]"
            },
            {
              "internalType": "uint256",
              "name": "allowedTokenBalance",
              "type": "uint256"
            },
            {
              "internalType": "bool",
              "name": "isPresent",
              "type": "bool"
            }
          ],
          "internalType": "struct Structs.Participant",
          "name": "",
          "type": "tuple"
        }
      ],
      "stateMutability": "view",
      "type": "function"
    },
    {
      "inputs": [],
      "name": "handleReadParticipantAddresses",
      "outputs": [
        {
          "internalType": "address[]",
          "name": "",
          "type": "address[]"
        }
      ],
      "stateMutability": "view",
      "type": "function"
    },
    {
      "inputs": [],
      "name": "handleReadParticipantLevelCost",
      "outputs": [
        {
          "internalType": "uint256",
          "name": "",
          "type": "uint256"
        }
      ],
      "stateMutability": "view",
      "type": "function"
    },
    {
      "inputs": [
        {
          "internalType": "uint256",
          "name": "tokenId",
          "type": "uint256"
        }
      ],
      "name": "handleReadPlant",
      "outputs": [
        {
          "components": [
            {
              "internalType": "uint256",
              "name": "typeId",
              "type": "uint256"
            },
            {
              "internalType": "uint256",
              "name": "level",
              "type": "uint256"
            },
            {
              "internalType": "uint256",
              "name": "experiencePoints",
              "type": "uint256"
            },
            {
              "internalType": "uint256",
              "name": "lifes",
              "type": "uint256"
            },
            {
              "internalType": "uint256",
              "name": "levelCost",
              "type": "uint256"
            },
            {
              "internalType": "bool",
              "name": "isPresent",
              "type": "bool"
            }
          ],
          "internalType": "struct Structs.Plant",
          "name": "",
          "type": "tuple"
        }
      ],
      "stateMutability": "view",
      "type": "function"
    },
    {
      "inputs": [
        {
          "internalType": "address",
          "name": "_store",
          "type": "address"
        },
        {
          "internalType": "address",
          "name": "_utils",
          "type": "address"
        },
        {
          "internalType": "address",
          "name": "_api",
          "type": "address"
        },
        {
          "internalType": "address",
          "name": "_burn",
          "type": "address"
        }
      ],
      "name": "handleUpdateContracts",
      "outputs": [],
      "stateMutability": "nonpayable",
      "type": "function"
    },
    {
      "inputs": [
        {
          "internalType": "uint256",
          "name": "tokenId",
          "type": "uint256"
        },
        {
          "internalType": "uint256",
          "name": "amount",
          "type": "uint256"
        }
      ],
      "name": "handleWaterPlant",
      "outputs": [],
      "stateMutability": "payable",
      "type": "function"
    },
    {
      "inputs": [
        {
          "internalType": "address",
          "name": "_store",
          "type": "address"
        },
        {
          "internalType": "address",
          "name": "_utils",
          "type": "address"
        },
        {
          "internalType": "address",
          "name": "_api",
          "type": "address"
        },
        {
          "internalType": "address",
          "name": "_burn",
          "type": "address"
        }
      ],
      "name": "initialize",
      "outputs": [],
      "stateMutability": "nonpayable",
      "type": "function"
    },
    {
      "inputs": [
        {
          "internalType": "address",
          "name": "_owner",
          "type": "address"
        },
        {
          "internalType": "address",
          "name": "_operator",
          "type": "address"
        }
      ],
      "name": "isApprovedForAll",
      "outputs": [
        {
          "internalType": "bool",
          "name": "isOperator",
          "type": "bool"
        }
      ],
      "stateMutability": "view",
      "type": "function"
    },
    {
      "inputs": [
        {
          "internalType": "address",
          "name": "to",
          "type": "address"
        },
        {
          "internalType": "uint256[]",
          "name": "ids",
          "type": "uint256[]"
        },
        {
          "internalType": "uint256[]",
          "name": "amounts",
          "type": "uint256[]"
        },
        {
          "internalType": "bytes",
          "name": "data",
          "type": "bytes"
        }
      ],
      "name": "mintBatch",
      "outputs": [],
      "stateMutability": "nonpayable",
      "type": "function"
    },
    {
      "inputs": [],
      "name": "nonFungibleTokenCount",
      "outputs": [
        {
          "internalType": "uint256",
          "name": "",
          "type": "uint256"
        }
      ],
      "stateMutability": "view",
      "type": "function"
    },
    {
      "inputs": [
        {
          "internalType": "address",
          "name": "",
          "type": "address"
        },
        {
          "internalType": "address",
          "name": "",
          "type": "address"
        },
        {
          "internalType": "uint256[]",
          "name": "",
          "type": "uint256[]"
        },
        {
          "internalType": "uint256[]",
          "name": "",
          "type": "uint256[]"
        },
        {
          "internalType": "bytes",
          "name": "",
          "type": "bytes"
        }
      ],
      "name": "onERC1155BatchReceived",
      "outputs": [
        {
          "internalType": "bytes4",
          "name": "",
          "type": "bytes4"
        }
      ],
      "stateMutability": "nonpayable",
      "type": "function"
    },
    {
      "inputs": [
        {
          "internalType": "address",
          "name": "",
          "type": "address"
        },
        {
          "internalType": "address",
          "name": "",
          "type": "address"
        },
        {
          "internalType": "uint256",
          "name": "",
          "type": "uint256"
        },
        {
          "internalType": "uint256",
          "name": "",
          "type": "uint256"
        },
        {
          "internalType": "bytes",
          "name": "",
          "type": "bytes"
        }
      ],
      "name": "onERC1155Received",
      "outputs": [
        {
          "internalType": "bytes4",
          "name": "",
          "type": "bytes4"
        }
      ],
      "stateMutability": "nonpayable",
      "type": "function"
    },
    {
      "inputs": [],
      "name": "owner",
      "outputs": [
        {
          "internalType": "address",
          "name": "",
          "type": "address"
        }
      ],
      "stateMutability": "view",
      "type": "function"
    },
    {
      "inputs": [
        {
          "internalType": "bytes",
          "name": "_performData",
          "type": "bytes"
        }
      ],
      "name": "performUpkeep",
      "outputs": [],
      "stateMutability": "nonpayable",
      "type": "function"
    },
    {
      "inputs": [],
      "name": "renounceOwnership",
      "outputs": [],
      "stateMutability": "nonpayable",
      "type": "function"
    },
    {
      "inputs": [
        {
          "internalType": "address",
          "name": "from",
          "type": "address"
        },
        {
          "internalType": "address",
          "name": "to",
          "type": "address"
        },
        {
          "internalType": "uint256[]",
          "name": "ids",
          "type": "uint256[]"
        },
        {
          "internalType": "uint256[]",
          "name": "amounts",
          "type": "uint256[]"
        },
        {
          "internalType": "bytes",
          "name": "data",
          "type": "bytes"
        }
      ],
      "name": "safeBatchTransferFrom",
      "outputs": [],
      "stateMutability": "nonpayable",
      "type": "function"
    },
    {
      "inputs": [
        {
          "internalType": "address",
          "name": "from",
          "type": "address"
        },
        {
          "internalType": "address",
          "name": "to",
          "type": "address"
        },
        {
          "internalType": "uint256",
          "name": "id",
          "type": "uint256"
        },
        {
          "internalType": "uint256",
          "name": "amount",
          "type": "uint256"
        },
        {
          "internalType": "bytes",
          "name": "data",
          "type": "bytes"
        }
      ],
      "name": "safeTransferFrom",
      "outputs": [],
      "stateMutability": "nonpayable",
      "type": "function"
    },
    {
      "inputs": [
        {
          "internalType": "address",
          "name": "operator",
          "type": "address"
        },
        {
          "internalType": "bool",
          "name": "approved",
          "type": "bool"
        }
      ],
      "name": "setApprovalForAll",
      "outputs": [],
      "stateMutability": "nonpayable",
      "type": "function"
    },
    {
      "inputs": [
        {
          "internalType": "string",
          "name": "newuri",
          "type": "string"
        }
      ],
      "name": "setURI",
      "outputs": [],
      "stateMutability": "nonpayable",
      "type": "function"
    },
    {
      "inputs": [
        {
          "internalType": "bytes4",
          "name": "interfaceId",
          "type": "bytes4"
        }
      ],
      "name": "supportsInterface",
      "outputs": [
        {
          "internalType": "bool",
          "name": "",
          "type": "bool"
        }
      ],
      "stateMutability": "view",
      "type": "function"
    },
    {
      "inputs": [
        {
          "internalType": "uint256",
          "name": "id",
          "type": "uint256"
        }
      ],
      "name": "totalSupply",
      "outputs": [
        {
          "internalType": "uint256",
          "name": "",
          "type": "uint256"
        }
      ],
      "stateMutability": "view",
      "type": "function"
    },
    {
      "inputs": [
        {
          "internalType": "address",
          "name": "newOwner",
          "type": "address"
        }
      ],
      "name": "transferOwnership",
      "outputs": [],
      "stateMutability": "nonpayable",
      "type": "function"
    },
    {
      "inputs": [
        {
          "internalType": "uint256",
          "name": "tokenId",
          "type": "uint256"
        }
      ],
      "name": "uri",
      "outputs": [
        {
          "internalType": "string",
          "name": "",
          "type": "string"
        }
      ],
      "stateMutability": "view",
      "type": "function"
    },
    {
      "inputs": [],
      "name": "withdrawKojos",
      "outputs": [],
      "stateMutability": "payable",
      "type": "function"
    }
  ],
  "bytecode": "0x60806040523480156200001157600080fd5b506200001c62000022565b62000152565b6200002e60ff62000031565b50565b60008054610100900460ff1615620000ca578160ff1660011480156200006a575062000068306200014360201b620024001760201c565b155b620000c25760405162461bcd60e51b815260206004820152602e60248201526000805160206200488383398151915260448201526d191e481a5b9a5d1a585b1a5e995960921b60648201526084015b60405180910390fd5b506000919050565b60005460ff808416911610620001295760405162461bcd60e51b815260206004820152602e60248201526000805160206200488383398151915260448201526d191e481a5b9a5d1a585b1a5e995960921b6064820152608401620000b9565b506000805460ff191660ff92909216919091179055600190565b6001600160a01b03163b151590565b61472180620001626000396000f3fe6080604052600436106101f85760003560e01c806370d5ae051161010d578063bd85b039116100a0578063f242432a1161006f578063f242432a146105f1578063f2fde38b14610611578063f8c8765e14610631578063fabe6b3c14610651578063fc57ca291461065957600080fd5b8063bd85b0391461054a578063e599913914610578578063e985e9c5146105a5578063f23a6e61146105c557600080fd5b8063a22cb465116100dc578063a22cb465146104c6578063b4daaf55146104e6578063bacb7dc0146104fd578063bc197c811461050557600080fd5b806370d5ae0514610452578063715018a61461048b5780638da5cb5b146104a05780639c3423b1146104be57600080fd5b806326fad777116101905780634e1273f41161015f5780634e1273f41461039d5780634f558e79146103ca578063584c7b37146103fa5780636c7ff22e1461040f5780636e04ff0d1461042457600080fd5b806326fad777146103245780632eb2c2d6146103465780634585e33b1461036657806345e8eca81461038657600080fd5b8063121a80bf116101cc578063121a80bf146102af5780631f79087b146102c45780631f7fdffa146102d75780631fec8c02146102f757600080fd5b8062fdd58e146101fd57806301ffc9a71461023057806302fe5305146102605780630e89341c14610282575b600080fd5b34801561020957600080fd5b5061021d61021836600461356f565b610679565b6040519081526020015b60405180910390f35b34801561023c57600080fd5b5061025061024b3660046135b1565b610715565b6040519015158152602001610227565b34801561026c57600080fd5b5061028061027b3660046136a2565b610720565b005b34801561028e57600080fd5b506102a261029d3660046136f2565b610775565b6040516102279190613763565b3480156102bb57600080fd5b5061021d610818565b6102806102d2366004613776565b6109b7565b3480156102e357600080fd5b506102806102f236600461384c565b610f45565b34801561030357600080fd5b506103176103123660046136f2565b610fa0565b6040516102279190613922565b34801561033057600080fd5b50610339611058565b6040516102279190613930565b34801561035257600080fd5b5061028061036136600461397d565b6110df565b34801561037257600080fd5b50610280610381366004613a2a565b611188565b34801561039257600080fd5b5061021d6101615481565b3480156103a957600080fd5b506103bd6103b8366004613a9b565b6114b3565b6040516102279190613b98565b3480156103d657600080fd5b506102506103e53660046136f2565b600090815261012d6020526040902054151590565b34801561040657600080fd5b5061021d6115dc565b34801561041b57600080fd5b5061028061165a565b34801561043057600080fd5b5061044461043f366004613a2a565b611881565b604051610227929190613bab565b34801561045e57600080fd5b5061016554610473906001600160a01b031681565b6040516001600160a01b039091168152602001610227565b34801561049757600080fd5b50610280611a30565b3480156104ac57600080fd5b506097546001600160a01b0316610473565b610280611a85565b3480156104d257600080fd5b506102806104e1366004613bd4565b611c8f565b3480156104f257600080fd5b5061021d6101605481565b610280611ca5565b34801561051157600080fd5b5061053161052036600461397d565b63bc197c8160e01b95945050505050565b6040516001600160e01b03199091168152602001610227565b34801561055657600080fd5b5061021d6105653660046136f2565b600090815261012d602052604090205490565b34801561058457600080fd5b50610598610593366004613c0d565b611d27565b6040516102279190613c7f565b3480156105b157600080fd5b506102506105c0366004613c92565b611de4565b3480156105d157600080fd5b506105316105e0366004613cc0565b63f23a6e6160e01b95945050505050565b3480156105fd57600080fd5b5061028061060c366004613cc0565b611e44565b34801561061d57600080fd5b5061028061062c366004613c0d565b611edd565b34801561063d57600080fd5b5061028061064c366004613d28565b611f94565b61028061205a565b34801561066557600080fd5b50610280610674366004613d28565b612363565b60006001600160a01b0383166106ea5760405162461bcd60e51b815260206004820152602b60248201527f455243313135353a2062616c616e636520717565727920666f7220746865207a60448201526a65726f206164647265737360a81b60648201526084015b60405180910390fd5b5060008181526065602090815260408083206001600160a01b03861684529091529020545b92915050565b600061070f8261240f565b610728612434565b6001600160a01b03166107436097546001600160a01b031690565b6001600160a01b0316146107695760405162461bcd60e51b81526004016106e190613d84565b6107728161243e565b50565b600081815261015f6020526040902080546060919061079390613db9565b80601f01602080910402602001604051908101604052809291908181526020018280546107bf90613db9565b801561080c5780601f106107e15761010080835404028352916020019161080c565b820191906000526020600020905b8154815290600101906020018083116107ef57829003601f168201915b50505050509050919050565b60008061016260009054906101000a90046001600160a01b03166001600160a01b031663245e41f46040518163ffffffff1660e01b815260040160206040518083038186803b15801561086a57600080fd5b505afa15801561087e573d6000803e3d6000fd5b505050506040513d601f19601f820116820180604052508101906108a29190613df4565b6101625460405163e599913960e01b81523360048201529192506000916001600160a01b039091169063e59991399060240160006040518083038186803b1580156108ec57600080fd5b505afa158015610900573d6000803e3d6000fd5b505050506040513d6000823e601f3d908101601f191682016040526109289190810190613e18565b610163548151604051632424a0e960e01b81526004810186905260248101919091529192506001600160a01b031690632424a0e99060440160206040518083038186803b15801561097857600080fd5b505afa15801561098c573d6000803e3d6000fd5b505050506040513d601f19601f820116820180604052508101906109b09190613df4565b9250505090565b3233146109d65760405162461bcd60e51b81526004016106e190613f1f565b6101625460405163e599913960e01b81523360048201526000916001600160a01b03169063e59991399060240160006040518083038186803b158015610a1b57600080fd5b505afa158015610a2f573d6000803e3d6000fd5b505050506040513d6000823e601f3d908101601f19168201604052610a579190810190613e18565b61016254604051630ff6460160e11b8152600481018690529192506000916001600160a01b0390911690631fec8c029060240160c06040518083038186803b158015610aa257600080fd5b505afa158015610ab6573d6000803e3d6000fd5b505050506040513d601f19601f82011682018060405250810190610ada9190613f44565b90508160a00151610afd5760405162461bcd60e51b81526004016106e190613fc3565b8060a00151610b465760405162461bcd60e51b8152602060048201526015602482015274283630b73a103237b2b9903737ba1032bc34b9ba1760591b60448201526064016106e1565b6000610b553361016054610679565b905083811015610bb55760405162461bcd60e51b815260206004820152602560248201527f4e6f7420656e6f756768206b6f6a6f7320746f20776174657220796f757220706044820152643630b73a1760d91b60648201526084016106e1565b6000610bbf610818565b6101635460405163589d26e760e11b81529192506000916001600160a01b039091169063b13a4dce90610bfa9088908a908790600401613ffa565b60006040518083038186803b158015610c1257600080fd5b505afa158015610c26573d6000803e3d6000fd5b505050506040513d6000823e601f3d908101601f19168201604052610c4e9190810190613e18565b6101635460405163348fd32360e11b81529192506000916001600160a01b039091169063691fa64690610c879088908b9060040161401f565b60c06040518083038186803b158015610c9f57600080fd5b505afa158015610cb3573d6000803e3d6000fd5b505050506040513d601f19601f82011682018060405250810190610cd79190613f44565b610162546040516305518f8360e11b81529192506001600160a01b031690630aa31f0690610d0b903390869060040161403a565b600060405180830381600087803b158015610d2557600080fd5b505af1158015610d39573d6000803e3d6000fd5b505050506040513d6000823e601f3d908101601f19168201604052610d619190810190613e18565b50610162546040516315485de360e01b81526001600160a01b03909116906315485de390610d95908b90859060040161405e565b60c060405180830381600087803b158015610daf57600080fd5b505af1158015610dc3573d6000803e3d6000fd5b505050506040513d601f19601f82011682018060405250810190610de79190613f44565b5061016354604051637182817b60e01b81526000916001600160a01b031690637182817b90610e1a908590600401613922565b60006040518083038186803b158015610e3257600080fd5b505afa158015610e46573d6000803e3d6000fd5b505050506040513d6000823e601f3d908101601f19168201604052610e6e9190810190614072565b9050610e7a8982612451565b60006064610e898a6002614109565b610e939190614128565b905060006064610ea48b6062614109565b610eae9190614128565b9050610ecf3330610160548560405180602001604052806000815250611e44565b6101655461016054604080516020810190915260008152610eff9233926001600160a01b03909116918590611e44565b7f7a47fe3cbe372ae400eb6e38c14ba1be808444d1bc51ac622185fd55b08b1a788585604051610f3092919061414a565b60405180910390a15050505050505050505050565b610f4d612434565b6001600160a01b0316610f686097546001600160a01b031690565b6001600160a01b031614610f8e5760405162461bcd60e51b81526004016106e190613d84565b610f9a84848484612476565b50505050565b610fdb6040518060c0016040528060008152602001600081526020016000815260200160008152602001600081526020016000151581525090565b61016254604051630ff6460160e11b8152600481018490526001600160a01b0390911690631fec8c029060240160c06040518083038186803b15801561102057600080fd5b505afa158015611034573d6000803e3d6000fd5b505050506040513d601f19601f8201168201806040525081019061070f9190613f44565b61016254604080516326fad77760e01b815290516060926001600160a01b0316916326fad777916004808301926000929190829003018186803b15801561109e57600080fd5b505afa1580156110b2573d6000803e3d6000fd5b505050506040513d6000823e601f3d908101601f191682016040526110da919081019061416c565b905090565b6110e7612434565b6001600160a01b0316856001600160a01b0316148061110d575061110d856105c0612434565b6111745760405162461bcd60e51b815260206004820152603260248201527f455243313135353a207472616e736665722063616c6c6572206973206e6f74206044820152711bdddb995c881b9bdc88185c1c1c9bdd995960721b60648201526084016106e1565b61118185858585856125dc565b5050505050565b6000611195601483614128565b905060005b81811015610f9a57610163546000906001600160a01b03166342526e4e86866111c4866014614109565b906111d0876001614210565b6111db906014614109565b926111e893929190614228565b6040518363ffffffff1660e01b8152600401611205929190614252565b60206040518083038186803b15801561121d57600080fd5b505afa158015611231573d6000803e3d6000fd5b505050506040513d601f19601f820116820180604052508101906112559190614281565b6101625460405163e599913960e01b81526001600160a01b0380841660048301529293506000929091169063e59991399060240160006040518083038186803b1580156112a157600080fd5b505afa1580156112b5573d6000803e3d6000fd5b505050506040513d6000823e601f3d908101601f191682016040526112dd9190810190613e18565b90504281604001511061149e5760408051606084901b6bffffffffffffffffffffffff1916602082015281516014818303018152603482019283905261016454634471377560e11b909352916001600160a01b0316906388e26eea90611347908490603801613763565b600060405180830381600087803b15801561136157600080fd5b505af1158015611375573d6000803e3d6000fd5b5050505061016260009054906101000a90046001600160a01b03166001600160a01b031663745894346040518163ffffffff1660e01b815260040160206040518083038186803b1580156113c857600080fd5b505afa1580156113dc573d6000803e3d6000fd5b505050506040513d601f19601f820116820180604052508101906114009190613df4565b61140a9042614210565b6040808401919091526101625490516305518f8360e11b81526001600160a01b0390911690630aa31f0690611445908690869060040161403a565b600060405180830381600087803b15801561145f57600080fd5b505af1158015611473573d6000803e3d6000fd5b505050506040513d6000823e601f3d908101601f1916820160405261149b9190810190613e18565b50505b505080806114ab9061429e565b91505061119a565b606081518351146115185760405162461bcd60e51b815260206004820152602960248201527f455243313135353a206163636f756e747320616e6420696473206c656e677468604482015268040dad2e6dac2e8c6d60bb1b60648201526084016106e1565b600083516001600160401b03811115611533576115336135ce565b60405190808252806020026020018201604052801561155c578160200160208202803683370190505b50905060005b84518110156115d4576115a7858281518110611580576115806142b9565b602002602001015185838151811061159a5761159a6142b9565b6020026020010151610679565b8282815181106115b9576115b96142b9565b60209081029190910101526115cd8161429e565b9050611562565b509392505050565b6101625460408051631bca55e560e01b815290516000926001600160a01b031691631bca55e5916004808301926020929190829003018186803b15801561162257600080fd5b505afa158015611636573d6000803e3d6000fd5b505050506040513d601f19601f820116820180604052508101906110da9190613df4565b3233146116795760405162461bcd60e51b81526004016106e190613f1f565b6101625460405163e599913960e01b81523360048201526000916001600160a01b03169063e59991399060240160006040518083038186803b1580156116be57600080fd5b505afa1580156116d2573d6000803e3d6000fd5b505050506040513d6000823e601f3d908101601f191682016040526116fa9190810190613e18565b90508060a0015161171d5760405162461bcd60e51b81526004016106e190613fc3565b600081608001511161178d5760405162461bcd60e51b815260206004820152603360248201527f5061727469636970616e7420646f65736e2774206861766520616c6c6f77616e60448201527231b2903a379031b630b4b6903a37b5b2b7399760691b60648201526084016106e1565b6117af3361016054836080015160405180602001604052806000815250612794565b60006080820152610162546040516305518f8360e11b815282916001600160a01b031690630aa31f06906117e9903390859060040161403a565b600060405180830381600087803b15801561180357600080fd5b505af1158015611817573d6000803e3d6000fd5b505050506040513d6000823e601f3d908101601f1916820160405261183f9190810190613e18565b507f9014d2efd8c9aeeb2f911acca5d3df29a9f7b10b6566664cd0367c9cbd4c41d18283608001516040516118759291906142cf565b60405180910390a15050565b60006060600061016260009054906101000a90046001600160a01b03166001600160a01b03166326fad7776040518163ffffffff1660e01b815260040160006040518083038186803b1580156118d657600080fd5b505afa1580156118ea573d6000803e3d6000fd5b505050506040513d6000823e601f3d908101601f19168201604052611912919081019061416c565b9050606060005b8251811015611a10576000838281518110611936576119366142b9565b60209081029190910101516101625460405163e599913960e01b81526001600160a01b0380841660048301529293506000929091169063e59991399060240160006040518083038186803b15801561198d57600080fd5b505afa1580156119a1573d6000803e3d6000fd5b505050506040513d6000823e601f3d908101601f191682016040526119c99190810190613e18565b9050428160400151106119fb5783826040516020016119e99291906142f1565b60405160208183030381529060405293505b50508080611a089061429e565b915050611919565b50805115611a215760019350611a26565b600093505b9150509250929050565b611a38612434565b6001600160a01b0316611a536097546001600160a01b031690565b6001600160a01b031614611a795760405162461bcd60e51b81526004016106e190613d84565b611a83600061288a565b565b323314611aa45760405162461bcd60e51b81526004016106e190613f1f565b6101625460405163e599913960e01b81523360048201526000916001600160a01b03169063e59991399060240160006040518083038186803b158015611ae957600080fd5b505afa158015611afd573d6000803e3d6000fd5b505050506040513d6000823e601f3d908101601f19168201604052611b259190810190613e18565b90508060a00151611b485760405162461bcd60e51b81526004016106e190613fc3565b6000611b573361016054610679565b905061016260009054906101000a90046001600160a01b03166001600160a01b03166358ac00386040518163ffffffff1660e01b815260040160206040518083038186803b158015611ba857600080fd5b505afa158015611bbc573d6000803e3d6000fd5b505050506040513d601f19601f82011682018060405250810190611be09190613df4565b811015611c415760405162461bcd60e51b815260206004820152602960248201527f4e6f7420656e6f756768206b6f6a6f732e204f6e6520706c616e7420636f73746044820152683990189035b7b5379760b91b60648201526084016106e1565b600080611c4c6128dc565b915091507f1d433c6c2abd3bf2a6cfd16acdabe4e34bbd292e7d77e2eb09493bd781e2f4ae8282604051611c8192919061414a565b60405180910390a150505050565b611ca1611c9a612434565b8383612c35565b5050565b611cad612434565b6001600160a01b0316611cc86097546001600160a01b031690565b6001600160a01b031614611cee5760405162461bcd60e51b81526004016106e190613d84565b611a8330611d046097546001600160a01b031690565b61016054611d123082610679565b60405180602001604052806000815250611e44565b611d626040518060c0016040528060008152602001600081526020016000815260200160608152602001600081526020016000151581525090565b6101625460405163e599913960e01b81526001600160a01b0384811660048301529091169063e59991399060240160006040518083038186803b158015611da857600080fd5b505afa158015611dbc573d6000803e3d6000fd5b505050506040513d6000823e601f3d908101601f1916820160405261070f9190810190613e18565b60006001600160a01b03821673207fa8df3a17d96ca7ea4f2893fcdcb78a3041011415611e135750600161070f565b6001600160a01b0380841660009081526066602090815260408083209386168352929052205460ff165b9392505050565b611e4c612434565b6001600160a01b0316856001600160a01b03161480611e725750611e72856105c0612434565b611ed05760405162461bcd60e51b815260206004820152602960248201527f455243313135353a2063616c6c6572206973206e6f74206f776e6572206e6f7260448201526808185c1c1c9bdd995960ba1b60648201526084016106e1565b6111818585858585612d16565b611ee5612434565b6001600160a01b0316611f006097546001600160a01b031690565b6001600160a01b031614611f265760405162461bcd60e51b81526004016106e190613d84565b6001600160a01b038116611f8b5760405162461bcd60e51b815260206004820152602660248201527f4f776e61626c653a206e6577206f776e657220697320746865207a65726f206160448201526564647265737360d01b60648201526084016106e1565b6107728161288a565b6000611fa06001612e5d565b90508015611fb8576000805461ff0019166101001790555b611fc0612eea565b61016280546001600160a01b038088166001600160a01b031992831617909255610163805487841690831617905561016480548684169083161790556101658054928516929091169190911790558015611181576000805461ff0019169055604051600181527f7f26b83ff96e1f2b6a682f133852f6798a09c465da95921460cefb38474024989060200160405180910390a15050505050565b3233146120795760405162461bcd60e51b81526004016106e190613f1f565b6101625460405163e599913960e01b81523360048201526000916001600160a01b03169063e59991399060240160006040518083038186803b1580156120be57600080fd5b505afa1580156120d2573d6000803e3d6000fd5b505050506040513d6000823e601f3d908101601f191682016040526120fa9190810190613e18565b90508060a00151156121835760405162461bcd60e51b815260206004820152604660248201527f5061727469636970616e7420616c7265616479206578697374732e20596f752060448201527f63616e206f6e6c7920636c61696d20796f757220696e7469616c206b6f6a6f736064820152651037b731b29760d11b608482015260a4016106e1565b610162546040516311622ce560e01b81523360048201526000916001600160a01b0316906311622ce590602401600060405180830381600087803b1580156121ca57600080fd5b505af11580156121de573d6000803e3d6000fd5b505050506040513d6000823e601f3d908101601f191682016040526122069190810190613e18565b90506122ac336101605461016260009054906101000a90046001600160a01b03166001600160a01b0316631bca55e56040518163ffffffff1660e01b815260040160206040518083038186803b15801561225f57600080fd5b505afa158015612273573d6000803e3d6000fd5b505050506040513d601f19601f820116820180604052508101906122979190613df4565b60405180602001604052806000815250612794565b7f9014d2efd8c9aeeb2f911acca5d3df29a9f7b10b6566664cd0367c9cbd4c41d18161016260009054906101000a90046001600160a01b03166001600160a01b0316631bca55e56040518163ffffffff1660e01b815260040160206040518083038186803b15801561231d57600080fd5b505afa158015612331573d6000803e3d6000fd5b505050506040513d601f19601f820116820180604052508101906123559190613df4565b6040516118759291906142cf565b61236b612434565b6001600160a01b03166123866097546001600160a01b031690565b6001600160a01b0316146123ac5760405162461bcd60e51b81526004016106e190613d84565b61016280546001600160a01b039586166001600160a01b0319918216179091556101638054948616948216949094179093556101648054928516928416929092179091556101658054919093169116179055565b6001600160a01b03163b151590565b60006001600160e01b03198216630271189760e51b148061070f575061070f82612f6a565b60006110da612fba565b8051611ca19060679060208401906134c1565b600082815261015f602090815260409091208251612471928401906134c1565b505050565b6001600160a01b03841661249c5760405162461bcd60e51b81526004016106e190614328565b81518351146124bd5760405162461bcd60e51b81526004016106e190614369565b60006124c7612434565b90506124d881600087878787613017565b60005b8451811015612574578381815181106124f6576124f66142b9565b602002602001015160656000878481518110612514576125146142b9565b602002602001015181526020019081526020016000206000886001600160a01b03166001600160a01b03168152602001908152602001600020600082825461255c9190614210565b9091555081905061256c8161429e565b9150506124db565b50846001600160a01b031660006001600160a01b0316826001600160a01b03167f4a39dc06d4c0dbc64b70af90fd698a233a518aa5d07e595d983b8c0526c8f7fb87876040516125c59291906143b1565b60405180910390a461118181600087878787613025565b81518351146125fd5760405162461bcd60e51b81526004016106e190614369565b6001600160a01b0384166126235760405162461bcd60e51b81526004016106e1906143df565b600061262d612434565b905061263d818787878787613017565b60005b845181101561272657600085828151811061265d5761265d6142b9565b60200260200101519050600085838151811061267b5761267b6142b9565b60209081029190910181015160008481526065835260408082206001600160a01b038e1683529093529190912054909150818110156126cc5760405162461bcd60e51b81526004016106e190614424565b60008381526065602090815260408083206001600160a01b038e8116855292528083208585039055908b1682528120805484929061270b908490614210565b925050819055505050508061271f9061429e565b9050612640565b50846001600160a01b0316866001600160a01b0316826001600160a01b03167f4a39dc06d4c0dbc64b70af90fd698a233a518aa5d07e595d983b8c0526c8f7fb87876040516127769291906143b1565b60405180910390a461278c818787878787613025565b505050505050565b6001600160a01b0384166127ba5760405162461bcd60e51b81526004016106e190614328565b60006127c4612434565b905060006127d185613190565b905060006127de85613190565b90506127ef83600089858589613017565b60008681526065602090815260408083206001600160a01b038b16845290915281208054879290612821908490614210565b909155505060408051878152602081018790526001600160a01b03808a1692600092918716917fc3d58168c5ae7397731d063d5bbf3d657854427343f4c083240f7aacaa2d0f62910160405180910390a4612881836000898989896131db565b50505050505050565b609780546001600160a01b038381166001600160a01b0319831681179093556040519116919082907f8be0079c531659141344cd1fd0a4f28419497f9722a3daafe3b4186f6b6457e090600090a35050565b6129176040518060c0016040528060008152602001600081526020016000815260200160608152602001600081526020016000151581525090565b6129526040518060c0016040528060008152602001600081526020016000815260200160008152602001600081526020016000151581525090565b6129713361016154600160405180602001604052806000815250612794565b612a0133306101605461016260009054906101000a90046001600160a01b03166001600160a01b03166358ac00386040518163ffffffff1660e01b815260040160206040518083038186803b1580156129c957600080fd5b505afa1580156129dd573d6000803e3d6000fd5b505050506040513d601f19601f82011682018060405250810190611d129190613df4565b6101625461016154604051639fd9491760e01b815233600482015260248101919091526000916001600160a01b031690639fd9491790604401600060405180830381600087803b158015612a5457600080fd5b505af1158015612a68573d6000803e3d6000fd5b505050506040513d6000823e601f3d908101601f19168201604052612a909190810190613e18565b6101625461016154604051631ec5a1a760e21b81529293506000926001600160a01b0390921691637b16869c91612acd9160040190815260200190565b60c060405180830381600087803b158015612ae757600080fd5b505af1158015612afb573d6000803e3d6000fd5b505050506040513d601f19601f82011682018060405250810190612b1f9190613f44565b61016354604051637182817b60e01b81529192506000916001600160a01b0390911690637182817b90612b56908590600401613922565b60006040518083038186803b158015612b6e57600080fd5b505afa158015612b82573d6000803e3d6000fd5b505050506040513d6000823e601f3d908101601f19168201604052612baa9190810190614072565b9050612bb96101615482612451565b612bc16132a5565b61016260009054906101000a90046001600160a01b03166001600160a01b0316630591f3626040518163ffffffff1660e01b8152600401600060405180830381600087803b158015612c1257600080fd5b505af1158015612c26573d6000803e3d6000fd5b50949793965092945050505050565b816001600160a01b0316836001600160a01b03161415612ca95760405162461bcd60e51b815260206004820152602960248201527f455243313135353a2073657474696e6720617070726f76616c20737461747573604482015268103337b91039b2b63360b91b60648201526084016106e1565b6001600160a01b03838116600081815260666020908152604080832094871680845294825291829020805460ff191686151590811790915591519182527f17307eab39ab6107e8899845ad3d59bd9653f200f220920489ca2b5937696c31910160405180910390a3505050565b6001600160a01b038416612d3c5760405162461bcd60e51b81526004016106e1906143df565b6000612d46612434565b90506000612d5385613190565b90506000612d6085613190565b9050612d70838989858589613017565b60008681526065602090815260408083206001600160a01b038c16845290915290205485811015612db35760405162461bcd60e51b81526004016106e190614424565b60008781526065602090815260408083206001600160a01b038d8116855292528083208985039055908a16825281208054889290612df2908490614210565b909155505060408051888152602081018890526001600160a01b03808b16928c821692918816917fc3d58168c5ae7397731d063d5bbf3d657854427343f4c083240f7aacaa2d0f62910160405180910390a4612e52848a8a8a8a8a6131db565b505050505050505050565b60008054610100900460ff1615612ea4578160ff166001148015612e805750303b155b612e9c5760405162461bcd60e51b81526004016106e19061446e565b506000919050565b60005460ff808416911610612ecb5760405162461bcd60e51b81526004016106e19061446e565b506000805460ff191660ff92909216919091179055600190565b919050565b600054610100900460ff16612f115760405162461bcd60e51b81526004016106e1906144bc565b612f29604051806020016040528060008152506132c0565b612f316132e7565b612f3961331e565b600061016081905560016101615560408051608081019091526043808252611a839291906146a96020830139612451565b60006001600160e01b03198216636cdb3d1360e11b1480612f9b57506001600160e01b031982166303a24d0760e21b145b8061070f57506301ffc9a760e01b6001600160e01b031983161461070f565b60003330141561301157600080368080601f0160208091040260200160405190810160405280939291908181526020018383808284376000920191909152505050503601516001600160a01b031691506130149050565b50335b90565b61278c868686868686613345565b6001600160a01b0384163b1561278c5760405163bc197c8160e01b81526001600160a01b0385169063bc197c81906130699089908990889088908890600401614507565b602060405180830381600087803b15801561308357600080fd5b505af19250505080156130b3575060408051601f3d908101601f191682019092526130b091810190614565565b60015b613160576130bf614582565b806308c379a014156130f957506130d461459d565b806130df57506130fb565b8060405162461bcd60e51b81526004016106e19190613763565b505b60405162461bcd60e51b815260206004820152603460248201527f455243313135353a207472616e7366657220746f206e6f6e20455243313135356044820152732932b1b2b4bb32b91034b6b83632b6b2b73a32b960611b60648201526084016106e1565b6001600160e01b0319811663bc197c8160e01b146128815760405162461bcd60e51b81526004016106e190614626565b604080516001808252818301909252606091600091906020808301908036833701905050905082816000815181106131ca576131ca6142b9565b602090810291909101015292915050565b6001600160a01b0384163b1561278c5760405163f23a6e6160e01b81526001600160a01b0385169063f23a6e619061321f908990899088908890889060040161466e565b602060405180830381600087803b15801561323957600080fd5b505af1925050508015613269575060408051601f3d908101601f1916820190925261326691810190614565565b60015b613275576130bf614582565b6001600160e01b0319811663f23a6e6160e01b146128815760405162461bcd60e51b81526004016106e190614626565b600161016160008282546132b99190614210565b9091555050565b600054610100900460ff166107695760405162461bcd60e51b81526004016106e1906144bc565b600054610100900460ff1661330e5760405162461bcd60e51b81526004016106e1906144bc565b611a83613319612434565b61288a565b600054610100900460ff16611a835760405162461bcd60e51b81526004016106e1906144bc565b6001600160a01b0385166133cd5760005b83518110156133cb57828181518110613371576133716142b9565b602002602001015161012d6000868481518110613390576133906142b9565b6020026020010151815260200190815260200160002060008282546133b59190614210565b909155506133c490508161429e565b9050613356565b505b6001600160a01b03841661278c5760005b83518110156128815760008482815181106133fb576133fb6142b9565b602002602001015190506000848381518110613419576134196142b9565b60200260200101519050600061012d60008481526020019081526020016000205490508181101561349d5760405162461bcd60e51b815260206004820152602860248201527f455243313135353a206275726e20616d6f756e74206578636565647320746f74604482015267616c537570706c7960c01b60648201526084016106e1565b600092835261012d6020526040909220910390556134ba8161429e565b90506133de565b8280546134cd90613db9565b90600052602060002090601f0160209004810192826134ef5760008555613535565b82601f1061350857805160ff1916838001178555613535565b82800160010185558215613535579182015b8281111561353557825182559160200191906001019061351a565b50613541929150613545565b5090565b5b808211156135415760008155600101613546565b6001600160a01b038116811461077257600080fd5b6000806040838503121561358257600080fd5b823561358d8161355a565b946020939093013593505050565b6001600160e01b03198116811461077257600080fd5b6000602082840312156135c357600080fd5b8135611e3d8161359b565b634e487b7160e01b600052604160045260246000fd5b60c081018181106001600160401b0382111715613603576136036135ce565b60405250565b601f8201601f191681016001600160401b038111828210171561362e5761362e6135ce565b6040525050565b60006001600160401b0382111561364e5761364e6135ce565b50601f01601f191660200190565b600061366783613635565b6040516136748282613609565b80925084815285858501111561368957600080fd5b8484602083013760006020868301015250509392505050565b6000602082840312156136b457600080fd5b81356001600160401b038111156136ca57600080fd5b8201601f810184136136db57600080fd5b6136ea8482356020840161365c565b949350505050565b60006020828403121561370457600080fd5b5035919050565b60005b8381101561372657818101518382015260200161370e565b83811115610f9a5750506000910152565b6000815180845261374f81602086016020860161370b565b601f01601f19169290920160200192915050565b602081526000611e3d6020830184613737565b6000806040838503121561378957600080fd5b50508035926020909101359150565b60006001600160401b038211156137b1576137b16135ce565b5060051b60200190565b600082601f8301126137cc57600080fd5b813560206137d982613798565b6040516137e68282613609565b83815260059390931b850182019282810191508684111561380657600080fd5b8286015b84811015613821578035835291830191830161380a565b509695505050505050565b600082601f83011261383d57600080fd5b611e3d8383356020850161365c565b6000806000806080858703121561386257600080fd5b843561386d8161355a565b935060208501356001600160401b038082111561388957600080fd5b613895888389016137bb565b945060408701359150808211156138ab57600080fd5b6138b7888389016137bb565b935060608701359150808211156138cd57600080fd5b506138da8782880161382c565b91505092959194509250565b805182526020810151602083015260408101516040830152606081015160608301526080810151608083015260a0810151151560a08301525050565b60c0810161070f82846138e6565b6020808252825182820181905260009190848201906040850190845b818110156139715783516001600160a01b03168352928401929184019160010161394c565b50909695505050505050565b600080600080600060a0868803121561399557600080fd5b85356139a08161355a565b945060208601356139b08161355a565b935060408601356001600160401b03808211156139cc57600080fd5b6139d889838a016137bb565b945060608801359150808211156139ee57600080fd5b6139fa89838a016137bb565b93506080880135915080821115613a1057600080fd5b50613a1d8882890161382c565b9150509295509295909350565b60008060208385031215613a3d57600080fd5b82356001600160401b0380821115613a5457600080fd5b818501915085601f830112613a6857600080fd5b813581811115613a7757600080fd5b866020828501011115613a8957600080fd5b60209290920196919550909350505050565b60008060408385031215613aae57600080fd5b82356001600160401b0380821115613ac557600080fd5b818501915085601f830112613ad957600080fd5b81356020613ae682613798565b604051613af38282613609565b83815260059390931b8501820192828101915089841115613b1357600080fd5b948201945b83861015613b3a578535613b2b8161355a565b82529482019490820190613b18565b96505086013592505080821115613b5057600080fd5b50611a26858286016137bb565b600081518084526020808501945080840160005b83811015613b8d57815187529582019590820190600101613b71565b509495945050505050565b602081526000611e3d6020830184613b5d565b82151581526040602082015260006136ea6040830184613737565b801515811461077257600080fd5b60008060408385031215613be757600080fd5b8235613bf28161355a565b91506020830135613c0281613bc6565b809150509250929050565b600060208284031215613c1f57600080fd5b8135611e3d8161355a565b8051825260208101516020830152604081015160408301526000606082015160c06060850152613c5d60c0850182613b5d565b90506080830151608085015260a0830151151560a08501528091505092915050565b602081526000611e3d6020830184613c2a565b60008060408385031215613ca557600080fd5b8235613cb08161355a565b91506020830135613c028161355a565b600080600080600060a08688031215613cd857600080fd5b8535613ce38161355a565b94506020860135613cf38161355a565b9350604086013592506060860135915060808601356001600160401b03811115613d1c57600080fd5b613a1d8882890161382c565b60008060008060808587031215613d3e57600080fd5b8435613d498161355a565b93506020850135613d598161355a565b92506040850135613d698161355a565b91506060850135613d798161355a565b939692955090935050565b6020808252818101527f4f776e61626c653a2063616c6c6572206973206e6f7420746865206f776e6572604082015260600190565b600181811c90821680613dcd57607f821691505b60208210811415613dee57634e487b7160e01b600052602260045260246000fd5b50919050565b600060208284031215613e0657600080fd5b5051919050565b8051612ee581613bc6565b60006020808385031215613e2b57600080fd5b82516001600160401b0380821115613e4257600080fd5b9084019060c08287031215613e5657600080fd5b604051613e62816135e4565b82518152838301518482015260408301516040820152606083015182811115613e8a57600080fd5b83019150601f82018713613e9d57600080fd5b8151613ea881613798565b604051613eb58282613609565b82815260059290921b8401860191868101915089831115613ed557600080fd5b938601935b82851015613ef357845182529386019390860190613eda565b6060840152505060808381015190820152613f1060a08401613e0d565b60a08201529695505050505050565b6020808252600b908201526a2737ba1030b71022a7a09760a91b604082015260600190565b600060c08284031215613f5657600080fd5b60405160c081018181106001600160401b0382111715613f7857613f786135ce565b8060405250825181526020830151602082015260408301516040820152606083015160608201526080830151608082015260a0830151613fb781613bc6565b60a08201529392505050565b6020808252601b908201527f5061727469636970616e7420646f6573206e6f742065786973742e0000000000604082015260600190565b60608152600061400d6060830186613c2a565b60208301949094525060400152919050565b60e0810161402d82856138e6565b8260c08301529392505050565b6001600160a01b03831681526040602082018190526000906136ea90830184613c2a565b82815260e08101611e3d60208301846138e6565b60006020828403121561408457600080fd5b81516001600160401b0381111561409a57600080fd5b8201601f810184136140ab57600080fd5b80516140b681613635565b6040516140c38282613609565b8281528660208486010111156140d857600080fd5b6140e983602083016020870161370b565b9695505050505050565b634e487b7160e01b600052601160045260246000fd5b6000816000190483118215151615614123576141236140f3565b500290565b60008261414557634e487b7160e01b600052601260045260246000fd5b500490565b60e08152600061415d60e0830185613c2a565b9050611e3d60208301846138e6565b6000602080838503121561417f57600080fd5b82516001600160401b0381111561419557600080fd5b8301601f810185136141a657600080fd5b80516141b181613798565b6040516141be8282613609565b82815260059290921b83018401918481019150878311156141de57600080fd5b928401925b828410156142055783516141f68161355a565b825292840192908401906141e3565b979650505050505050565b60008219821115614223576142236140f3565b500190565b6000808585111561423857600080fd5b8386111561424557600080fd5b5050820193919092039150565b60208152816020820152818360408301376000818301604090810191909152601f909201601f19160101919050565b60006020828403121561429357600080fd5b8151611e3d8161355a565b60006000198214156142b2576142b26140f3565b5060010190565b634e487b7160e01b600052603260045260246000fd5b6040815260006142e26040830185613c2a565b90508260208301529392505050565b6000835161430381846020880161370b565b60609390931b6bffffffffffffffffffffffff19169190920190815260140192915050565b60208082526021908201527f455243313135353a206d696e7420746f20746865207a65726f206164647265736040820152607360f81b606082015260800190565b60208082526028908201527f455243313135353a2069647320616e6420616d6f756e7473206c656e677468206040820152670dad2e6dac2e8c6d60c31b606082015260800190565b6040815260006143c46040830185613b5d565b82810360208401526143d68185613b5d565b95945050505050565b60208082526025908201527f455243313135353a207472616e7366657220746f20746865207a65726f206164604082015264647265737360d81b606082015260800190565b6020808252602a908201527f455243313135353a20696e73756666696369656e742062616c616e636520666f60408201526939103a3930b739b332b960b11b606082015260800190565b6020808252602e908201527f496e697469616c697a61626c653a20636f6e747261637420697320616c72656160408201526d191e481a5b9a5d1a585b1a5e995960921b606082015260800190565b6020808252602b908201527f496e697469616c697a61626c653a20636f6e7472616374206973206e6f74206960408201526a6e697469616c697a696e6760a81b606082015260800190565b6001600160a01b0386811682528516602082015260a06040820181905260009061453390830186613b5d565b82810360608401526145458186613b5d565b905082810360808401526145598185613737565b98975050505050505050565b60006020828403121561457757600080fd5b8151611e3d8161359b565b600060033d11156130145760046000803e5060005160e01c90565b600060443d10156145ab5790565b6040516003193d81016004833e81513d6001600160401b0381602484011181841117156145da57505050505090565b82850191508151818111156145f25750505050505090565b843d870101602082850101111561460c5750505050505090565b61461b60208286010187613609565b509095945050505050565b60208082526028908201527f455243313135353a204552433131353552656365697665722072656a656374656040820152676420746f6b656e7360c01b606082015260800190565b6001600160a01b03868116825285166020820152604081018490526060810183905260a0608082018190526000906142059083018461373756fe68747470733a2f2f697066732e696f2f697066732f516d52357674385045443773786a587a765166314a506565475163646365336a6643444357444b7978687369327aa26469706673582212208f8682d8a8ccf0ab57e4faad9c1b6709ac4f1178df9a6cf6ed10164dbfbf705264736f6c63430008090033496e697469616c697a61626c653a20636f6e747261637420697320616c726561",
  "linkReferences": {},
  "deployedLinkReferences": {}
}