{
  "_format": "hh-sol-artifact-1",
  "contractName": "KojoV1",
  "sourceName": "contracts/KojoV1.sol",
  "abi": [
    {
      "anonymous": false,
      "inputs": [
        {
          "indexed": true,
          "internalType": "address",
          "name": "account",
          "type": "address"
        },
        {
          "indexed": true,
          "internalType": "address",
          "name": "operator",
          "type": "address"
        },
        {
          "indexed": false,
          "internalType": "bool",
          "name": "approved",
          "type": "bool"
        }
      ],
      "name": "ApprovalForAll",
      "type": "event"
    },
    {
      "anonymous": false,
      "inputs": [
        {
          "indexed": false,
          "internalType": "uint8",
          "name": "version",
          "type": "uint8"
        }
      ],
      "name": "Initialized",
      "type": "event"
    },
    {
      "anonymous": false,
      "inputs": [
        {
          "indexed": true,
          "internalType": "address",
          "name": "previousOwner",
          "type": "address"
        },
        {
          "indexed": true,
          "internalType": "address",
          "name": "newOwner",
          "type": "address"
        }
      ],
      "name": "OwnershipTransferred",
      "type": "event"
    },
    {
      "anonymous": false,
      "inputs": [
        {
          "components": [
            {
              "internalType": "uint256",
              "name": "level",
              "type": "uint256"
            },
            {
              "internalType": "uint256",
              "name": "experiencePoints",
              "type": "uint256"
            },
            {
              "internalType": "uint256[]",
              "name": "plantIds",
              "type": "uint256[]"
            },
            {
              "internalType": "uint256",
              "name": "allowedTokenBalance",
              "type": "uint256"
            },
            {
              "internalType": "bool",
              "name": "isPresent",
              "type": "bool"
            }
          ],
          "indexed": false,
          "internalType": "struct Structs.Participant",
          "name": "participant",
          "type": "tuple"
        },
        {
          "components": [
            {
              "internalType": "uint256",
              "name": "typeId",
              "type": "uint256"
            },
            {
              "internalType": "uint256",
              "name": "level",
              "type": "uint256"
            },
            {
              "internalType": "uint256",
              "name": "experiencePoints",
              "type": "uint256"
            },
            {
              "internalType": "uint256",
              "name": "lifes",
              "type": "uint256"
            },
            {
              "internalType": "uint256",
              "name": "levelCost",
              "type": "uint256"
            },
            {
              "internalType": "bool",
              "name": "isPresent",
              "type": "bool"
            }
          ],
          "indexed": false,
          "internalType": "struct Structs.Plant",
          "name": "plant",
          "type": "tuple"
        }
      ],
      "name": "PlantMinted",
      "type": "event"
    },
    {
      "anonymous": false,
      "inputs": [
        {
          "components": [
            {
              "internalType": "uint256",
              "name": "level",
              "type": "uint256"
            },
            {
              "internalType": "uint256",
              "name": "experiencePoints",
              "type": "uint256"
            },
            {
              "internalType": "uint256[]",
              "name": "plantIds",
              "type": "uint256[]"
            },
            {
              "internalType": "uint256",
              "name": "allowedTokenBalance",
              "type": "uint256"
            },
            {
              "internalType": "bool",
              "name": "isPresent",
              "type": "bool"
            }
          ],
          "indexed": false,
          "internalType": "struct Structs.Participant",
          "name": "participant",
          "type": "tuple"
        },
        {
          "components": [
            {
              "internalType": "uint256",
              "name": "typeId",
              "type": "uint256"
            },
            {
              "internalType": "uint256",
              "name": "level",
              "type": "uint256"
            },
            {
              "internalType": "uint256",
              "name": "experiencePoints",
              "type": "uint256"
            },
            {
              "internalType": "uint256",
              "name": "lifes",
              "type": "uint256"
            },
            {
              "internalType": "uint256",
              "name": "levelCost",
              "type": "uint256"
            },
            {
              "internalType": "bool",
              "name": "isPresent",
              "type": "bool"
            }
          ],
          "indexed": false,
          "internalType": "struct Structs.Plant",
          "name": "plant",
          "type": "tuple"
        }
      ],
      "name": "PlantWatered",
      "type": "event"
    },
    {
      "anonymous": false,
      "inputs": [
        {
          "components": [
            {
              "internalType": "uint256",
              "name": "level",
              "type": "uint256"
            },
            {
              "internalType": "uint256",
              "name": "experiencePoints",
              "type": "uint256"
            },
            {
              "internalType": "uint256[]",
              "name": "plantIds",
              "type": "uint256[]"
            },
            {
              "internalType": "uint256",
              "name": "allowedTokenBalance",
              "type": "uint256"
            },
            {
              "internalType": "bool",
              "name": "isPresent",
              "type": "bool"
            }
          ],
          "indexed": false,
          "internalType": "struct Structs.Participant",
          "name": "participant",
          "type": "tuple"
        },
        {
          "indexed": false,
          "internalType": "uint256",
          "name": "amount",
          "type": "uint256"
        }
      ],
      "name": "TokensClaimed",
      "type": "event"
    },
    {
      "anonymous": false,
      "inputs": [
        {
          "indexed": true,
          "internalType": "address",
          "name": "operator",
          "type": "address"
        },
        {
          "indexed": true,
          "internalType": "address",
          "name": "from",
          "type": "address"
        },
        {
          "indexed": true,
          "internalType": "address",
          "name": "to",
          "type": "address"
        },
        {
          "indexed": false,
          "internalType": "uint256[]",
          "name": "ids",
          "type": "uint256[]"
        },
        {
          "indexed": false,
          "internalType": "uint256[]",
          "name": "values",
          "type": "uint256[]"
        }
      ],
      "name": "TransferBatch",
      "type": "event"
    },
    {
      "anonymous": false,
      "inputs": [
        {
          "indexed": true,
          "internalType": "address",
          "name": "operator",
          "type": "address"
        },
        {
          "indexed": true,
          "internalType": "address",
          "name": "from",
          "type": "address"
        },
        {
          "indexed": true,
          "internalType": "address",
          "name": "to",
          "type": "address"
        },
        {
          "indexed": false,
          "internalType": "uint256",
          "name": "id",
          "type": "uint256"
        },
        {
          "indexed": false,
          "internalType": "uint256",
          "name": "value",
          "type": "uint256"
        }
      ],
      "name": "TransferSingle",
      "type": "event"
    },
    {
      "anonymous": false,
      "inputs": [
        {
          "indexed": false,
          "internalType": "string",
          "name": "value",
          "type": "string"
        },
        {
          "indexed": true,
          "internalType": "uint256",
          "name": "id",
          "type": "uint256"
        }
      ],
      "name": "URI",
      "type": "event"
    },
    {
      "inputs": [
        {
          "internalType": "address",
          "name": "account",
          "type": "address"
        },
        {
          "internalType": "uint256",
          "name": "id",
          "type": "uint256"
        }
      ],
      "name": "balanceOf",
      "outputs": [
        {
          "internalType": "uint256",
          "name": "",
          "type": "uint256"
        }
      ],
      "stateMutability": "view",
      "type": "function"
    },
    {
      "inputs": [
        {
          "internalType": "address[]",
          "name": "accounts",
          "type": "address[]"
        },
        {
          "internalType": "uint256[]",
          "name": "ids",
          "type": "uint256[]"
        }
      ],
      "name": "balanceOfBatch",
      "outputs": [
        {
          "internalType": "uint256[]",
          "name": "",
          "type": "uint256[]"
        }
      ],
      "stateMutability": "view",
      "type": "function"
    },
    {
      "inputs": [],
      "name": "checkUpkeep",
      "outputs": [],
      "stateMutability": "view",
      "type": "function"
    },
    {
      "inputs": [
        {
          "internalType": "uint256",
          "name": "id",
          "type": "uint256"
        }
      ],
      "name": "exists",
      "outputs": [
        {
          "internalType": "bool",
          "name": "",
          "type": "bool"
        }
      ],
      "stateMutability": "view",
      "type": "function"
    },
    {
      "inputs": [],
      "name": "fungibleTokenId",
      "outputs": [
        {
          "internalType": "uint256",
          "name": "",
          "type": "uint256"
        }
      ],
      "stateMutability": "view",
      "type": "function"
    },
    {
      "inputs": [],
      "name": "handleBuyPlant",
      "outputs": [],
      "stateMutability": "payable",
      "type": "function"
    },
    {
      "inputs": [],
      "name": "handleClaimMonthlyReward",
      "outputs": [],
      "stateMutability": "nonpayable",
      "type": "function"
    },
    {
      "inputs": [],
      "name": "handleClaimStartTokens",
      "outputs": [],
      "stateMutability": "payable",
      "type": "function"
    },
    {
      "inputs": [],
      "name": "handleReadInititalAllowance",
      "outputs": [
        {
          "internalType": "uint256",
          "name": "",
          "type": "uint256"
        }
      ],
      "stateMutability": "view",
      "type": "function"
    },
    {
      "inputs": [
        {
          "internalType": "address",
          "name": "account",
          "type": "address"
        }
      ],
      "name": "handleReadParticipant",
      "outputs": [
        {
          "components": [
            {
              "internalType": "uint256",
              "name": "level",
              "type": "uint256"
            },
            {
              "internalType": "uint256",
              "name": "experiencePoints",
              "type": "uint256"
            },
            {
              "internalType": "uint256[]",
              "name": "plantIds",
              "type": "uint256[]"
            },
            {
              "internalType": "uint256",
              "name": "allowedTokenBalance",
              "type": "uint256"
            },
            {
              "internalType": "bool",
              "name": "isPresent",
              "type": "bool"
            }
          ],
          "internalType": "struct Structs.Participant",
          "name": "",
          "type": "tuple"
        }
      ],
      "stateMutability": "view",
      "type": "function"
    },
    {
      "inputs": [
        {
          "internalType": "uint256",
          "name": "tokenId",
          "type": "uint256"
        }
      ],
      "name": "handleReadPlant",
      "outputs": [
        {
          "components": [
            {
              "internalType": "uint256",
              "name": "typeId",
              "type": "uint256"
            },
            {
              "internalType": "uint256",
              "name": "level",
              "type": "uint256"
            },
            {
              "internalType": "uint256",
              "name": "experiencePoints",
              "type": "uint256"
            },
            {
              "internalType": "uint256",
              "name": "lifes",
              "type": "uint256"
            },
            {
              "internalType": "uint256",
              "name": "levelCost",
              "type": "uint256"
            },
            {
              "internalType": "bool",
              "name": "isPresent",
              "type": "bool"
            }
          ],
          "internalType": "struct Structs.Plant",
          "name": "",
          "type": "tuple"
        }
      ],
      "stateMutability": "view",
      "type": "function"
    },
    {
      "inputs": [
        {
          "internalType": "address",
          "name": "_store",
          "type": "address"
        },
        {
          "internalType": "address",
          "name": "_utils",
          "type": "address"
        },
        {
          "internalType": "address",
          "name": "_api",
          "type": "address"
        },
        {
          "internalType": "address",
          "name": "_burn",
          "type": "address"
        }
      ],
      "name": "handleUpdateContracts",
      "outputs": [],
      "stateMutability": "nonpayable",
      "type": "function"
    },
    {
      "inputs": [
        {
          "internalType": "uint256",
          "name": "tokenId",
          "type": "uint256"
        },
        {
          "internalType": "uint256",
          "name": "amount",
          "type": "uint256"
        }
      ],
      "name": "handleWaterPlant",
      "outputs": [],
      "stateMutability": "payable",
      "type": "function"
    },
    {
      "inputs": [
        {
          "internalType": "address",
          "name": "_store",
          "type": "address"
        },
        {
          "internalType": "address",
          "name": "_utils",
          "type": "address"
        },
        {
          "internalType": "address",
          "name": "_api",
          "type": "address"
        },
        {
          "internalType": "address",
          "name": "_burn",
          "type": "address"
        }
      ],
      "name": "initialize",
      "outputs": [],
      "stateMutability": "nonpayable",
      "type": "function"
    },
    {
      "inputs": [
        {
          "internalType": "address",
          "name": "account",
          "type": "address"
        },
        {
          "internalType": "address",
          "name": "operator",
          "type": "address"
        }
      ],
      "name": "isApprovedForAll",
      "outputs": [
        {
          "internalType": "bool",
          "name": "",
          "type": "bool"
        }
      ],
      "stateMutability": "view",
      "type": "function"
    },
    {
      "inputs": [
        {
          "internalType": "address",
          "name": "to",
          "type": "address"
        },
        {
          "internalType": "uint256[]",
          "name": "ids",
          "type": "uint256[]"
        },
        {
          "internalType": "uint256[]",
          "name": "amounts",
          "type": "uint256[]"
        },
        {
          "internalType": "bytes",
          "name": "data",
          "type": "bytes"
        }
      ],
      "name": "mintBatch",
      "outputs": [],
      "stateMutability": "nonpayable",
      "type": "function"
    },
    {
      "inputs": [],
      "name": "nonFungibleTokenCount",
      "outputs": [
        {
          "internalType": "uint256",
          "name": "",
          "type": "uint256"
        }
      ],
      "stateMutability": "view",
      "type": "function"
    },
    {
      "inputs": [
        {
          "internalType": "address",
          "name": "",
          "type": "address"
        },
        {
          "internalType": "address",
          "name": "",
          "type": "address"
        },
        {
          "internalType": "uint256[]",
          "name": "",
          "type": "uint256[]"
        },
        {
          "internalType": "uint256[]",
          "name": "",
          "type": "uint256[]"
        },
        {
          "internalType": "bytes",
          "name": "",
          "type": "bytes"
        }
      ],
      "name": "onERC1155BatchReceived",
      "outputs": [
        {
          "internalType": "bytes4",
          "name": "",
          "type": "bytes4"
        }
      ],
      "stateMutability": "nonpayable",
      "type": "function"
    },
    {
      "inputs": [
        {
          "internalType": "address",
          "name": "",
          "type": "address"
        },
        {
          "internalType": "address",
          "name": "",
          "type": "address"
        },
        {
          "internalType": "uint256",
          "name": "",
          "type": "uint256"
        },
        {
          "internalType": "uint256",
          "name": "",
          "type": "uint256"
        },
        {
          "internalType": "bytes",
          "name": "",
          "type": "bytes"
        }
      ],
      "name": "onERC1155Received",
      "outputs": [
        {
          "internalType": "bytes4",
          "name": "",
          "type": "bytes4"
        }
      ],
      "stateMutability": "nonpayable",
      "type": "function"
    },
    {
      "inputs": [],
      "name": "owner",
      "outputs": [
        {
          "internalType": "address",
          "name": "",
          "type": "address"
        }
      ],
      "stateMutability": "view",
      "type": "function"
    },
    {
      "inputs": [],
      "name": "performUpkeep",
      "outputs": [],
      "stateMutability": "view",
      "type": "function"
    },
    {
      "inputs": [],
      "name": "renounceOwnership",
      "outputs": [],
      "stateMutability": "nonpayable",
      "type": "function"
    },
    {
      "inputs": [
        {
          "internalType": "address",
          "name": "from",
          "type": "address"
        },
        {
          "internalType": "address",
          "name": "to",
          "type": "address"
        },
        {
          "internalType": "uint256[]",
          "name": "ids",
          "type": "uint256[]"
        },
        {
          "internalType": "uint256[]",
          "name": "amounts",
          "type": "uint256[]"
        },
        {
          "internalType": "bytes",
          "name": "data",
          "type": "bytes"
        }
      ],
      "name": "safeBatchTransferFrom",
      "outputs": [],
      "stateMutability": "nonpayable",
      "type": "function"
    },
    {
      "inputs": [
        {
          "internalType": "address",
          "name": "from",
          "type": "address"
        },
        {
          "internalType": "address",
          "name": "to",
          "type": "address"
        },
        {
          "internalType": "uint256",
          "name": "id",
          "type": "uint256"
        },
        {
          "internalType": "uint256",
          "name": "amount",
          "type": "uint256"
        },
        {
          "internalType": "bytes",
          "name": "data",
          "type": "bytes"
        }
      ],
      "name": "safeTransferFrom",
      "outputs": [],
      "stateMutability": "nonpayable",
      "type": "function"
    },
    {
      "inputs": [
        {
          "internalType": "address",
          "name": "operator",
          "type": "address"
        },
        {
          "internalType": "bool",
          "name": "approved",
          "type": "bool"
        }
      ],
      "name": "setApprovalForAll",
      "outputs": [],
      "stateMutability": "nonpayable",
      "type": "function"
    },
    {
      "inputs": [
        {
          "internalType": "string",
          "name": "newuri",
          "type": "string"
        }
      ],
      "name": "setURI",
      "outputs": [],
      "stateMutability": "nonpayable",
      "type": "function"
    },
    {
      "inputs": [
        {
          "internalType": "bytes4",
          "name": "interfaceId",
          "type": "bytes4"
        }
      ],
      "name": "supportsInterface",
      "outputs": [
        {
          "internalType": "bool",
          "name": "",
          "type": "bool"
        }
      ],
      "stateMutability": "view",
      "type": "function"
    },
    {
      "inputs": [
        {
          "internalType": "uint256",
          "name": "id",
          "type": "uint256"
        }
      ],
      "name": "totalSupply",
      "outputs": [
        {
          "internalType": "uint256",
          "name": "",
          "type": "uint256"
        }
      ],
      "stateMutability": "view",
      "type": "function"
    },
    {
      "inputs": [
        {
          "internalType": "address",
          "name": "newOwner",
          "type": "address"
        }
      ],
      "name": "transferOwnership",
      "outputs": [],
      "stateMutability": "nonpayable",
      "type": "function"
    },
    {
      "inputs": [
        {
          "internalType": "uint256",
          "name": "tokenId",
          "type": "uint256"
        }
      ],
      "name": "uri",
      "outputs": [
        {
          "internalType": "string",
          "name": "",
          "type": "string"
        }
      ],
      "stateMutability": "view",
      "type": "function"
    },
    {
      "inputs": [],
      "name": "withdrawKojos",
      "outputs": [],
      "stateMutability": "payable",
      "type": "function"
    }
  ],
  "bytecode": "0x60806040523480156200001157600080fd5b506200001c62000022565b62000152565b6200002e60ff62000031565b50565b60008054610100900460ff1615620000ca578160ff1660011480156200006a575062000068306200014360201b62001b261760201c565b155b620000c25760405162461bcd60e51b815260206004820152602e602482015260008051602062003cad83398151915260448201526d191e481a5b9a5d1a585b1a5e995960921b60648201526084015b60405180910390fd5b506000919050565b60005460ff808416911610620001295760405162461bcd60e51b815260206004820152602e602482015260008051602062003cad83398151915260448201526d191e481a5b9a5d1a585b1a5e995960921b6064820152608401620000b9565b506000805460ff191660ff92909216919091179055600190565b6001600160a01b03163b151590565b613b4b80620001626000396000f3fe6080604052600436106101d75760003560e01c80638da5cb5b11610102578063e599913911610095578063f2fde38b11610064578063f2fde38b1461057a578063f8c8765e1461059a578063fabe6b3c146105ba578063fc57ca29146105c257600080fd5b8063e5999139146104b8578063e985e9c5146104e5578063f23a6e611461052e578063f242432a1461055a57600080fd5b8063b4daaf55116100d1578063b4daaf5514610426578063bacb7dc01461043d578063bc197c8114610445578063bd85b0391461048a57600080fd5b80638da5cb5b146103d65780639c3423b1146103fe578063a13abdad146103ac578063a22cb4651461040657600080fd5b80632eb2c2d61161017a578063584c7b3711610149578063584c7b37146103825780636c7ff22e146103975780636e4d243a146103ac578063715018a6146103c157600080fd5b80632eb2c2d6146102ee57806345e8eca81461030e5780634e1273f4146103255780634f558e791461035257600080fd5b80630e89341c116101b65780630e89341c146102615780631f79087b1461028e5780631f7fdffa146102a15780631fec8c02146102c157600080fd5b8062fdd58e146101dc57806301ffc9a71461020f57806302fe53051461023f575b600080fd5b3480156101e857600080fd5b506101fc6101f7366004612c37565b6105e2565b6040519081526020015b60405180910390f35b34801561021b57600080fd5b5061022f61022a366004612c77565b61067e565b6040519015158152602001610206565b34801561024b57600080fd5b5061025f61025a366004612d6f565b610689565b005b34801561026d57600080fd5b5061028161027c366004612dbf565b6106bf565b6040516102069190612e30565b61025f61029c366004612e43565b610762565b3480156102ad57600080fd5b5061025f6102bc366004612f19565b610cdc565b3480156102cd57600080fd5b506102e16102dc366004612dbf565b610d18565b6040516102069190612fed565b3480156102fa57600080fd5b5061025f610309366004612ffb565b610dd0565b34801561031a57600080fd5b506101fc6101615481565b34801561033157600080fd5b506103456103403660046130a4565b610e67565b60405161020691906131a9565b34801561035e57600080fd5b5061022f61036d366004612dbf565b600090815261012d6020526040902054151590565b34801561038e57600080fd5b506101fc610f90565b3480156103a357600080fd5b5061025f611013565b3480156103b857600080fd5b5061025f61123a565b3480156103cd57600080fd5b5061025f611254565b3480156103e257600080fd5b506097546040516001600160a01b039091168152602001610206565b61025f611288565b34801561041257600080fd5b5061025f6104213660046131ca565b611492565b34801561043257600080fd5b506101fc6101605481565b61025f6114a1565b34801561045157600080fd5b50610471610460366004612ffb565b63bc197c8160e01b95945050505050565b6040516001600160e01b03199091168152602001610206565b34801561049657600080fd5b506101fc6104a5366004612dbf565b600090815261012d602052604090205490565b3480156104c457600080fd5b506104d86104d3366004613201565b611504565b6040516102069190613267565b3480156104f157600080fd5b5061022f61050036600461327a565b6001600160a01b03918216600090815260666020908152604080832093909416825291909152205460ff1690565b34801561053a57600080fd5b506104716105493660046132ad565b63f23a6e6160e01b95945050505050565b34801561056657600080fd5b5061025f6105753660046132ad565b6115ba565b34801561058657600080fd5b5061025f610595366004613201565b611641565b3480156105a657600080fd5b5061025f6105b5366004613311565b6116d9565b61025f61179f565b3480156105ce57600080fd5b5061025f6105dd366004613311565b611aa8565b60006001600160a01b0383166106535760405162461bcd60e51b815260206004820152602b60248201527f455243313135353a2062616c616e636520717565727920666f7220746865207a60448201526a65726f206164647265737360a81b60648201526084015b60405180910390fd5b5060008181526065602090815260408083206001600160a01b03861684529091529020545b92915050565b600061067882611b35565b6097546001600160a01b031633146106b35760405162461bcd60e51b815260040161064a90613365565b6106bc81611b5a565b50565b600081815261015f602052604090208054606091906106dd9061339a565b80601f01602080910402602001604051908101604052809291908181526020018280546107099061339a565b80156107565780601f1061072b57610100808354040283529160200191610756565b820191906000526020600020905b81548152906001019060200180831161073957829003601f168201915b50505050509050919050565b3233146107815760405162461bcd60e51b815260040161064a906133d5565b6101625460405163e599913960e01b81523360048201526000916001600160a01b03169063e59991399060240160006040518083038186803b1580156107c657600080fd5b505afa1580156107da573d6000803e3d6000fd5b505050506040513d6000823e601f3d908101601f191682016040526108029190810190613405565b61016254604051630ff6460160e11b8152600481018690529192506000916001600160a01b0390911690631fec8c029060240160c06040518083038186803b15801561084d57600080fd5b505afa158015610861573d6000803e3d6000fd5b505050506040513d601f19601f820116820180604052508101906108859190613502565b905081608001516108a85760405162461bcd60e51b815260040161064a90613581565b8060a001516108f15760405162461bcd60e51b8152602060048201526015602482015274283630b73a103237b2b9903737ba1032bc34b9ba1760591b604482015260640161064a565b600061090033610160546105e2565b9050838110156109605760405162461bcd60e51b815260206004820152602560248201527f4e6f7420656e6f756768206b6f6a6f7320746f20776174657220796f757220706044820152643630b73a1760d91b606482015260840161064a565b610163546040516342ee184d60e11b81526000916001600160a01b0316906385dc309a9061099490879089906004016135b8565b60006040518083038186803b1580156109ac57600080fd5b505afa1580156109c0573d6000803e3d6000fd5b505050506040513d6000823e601f3d908101601f191682016040526109e89190810190613405565b6101635460405163348fd32360e11b81529192506000916001600160a01b039091169063691fa64690610a219087908a906004016135da565b60c06040518083038186803b158015610a3957600080fd5b505afa158015610a4d573d6000803e3d6000fd5b505050506040513d601f19601f82011682018060405250810190610a719190613502565b61016254604051633fcd0c3760e01b81529192506001600160a01b031690633fcd0c3790610aa590339086906004016135f5565b600060405180830381600087803b158015610abf57600080fd5b505af1158015610ad3573d6000803e3d6000fd5b505050506040513d6000823e601f3d908101601f19168201604052610afb9190810190613405565b50610162546040516315485de360e01b81526001600160a01b03909116906315485de390610b2f908a908590600401613619565b60c060405180830381600087803b158015610b4957600080fd5b505af1158015610b5d573d6000803e3d6000fd5b505050506040513d601f19601f82011682018060405250810190610b819190613502565b5061016354604051637182817b60e01b81526000916001600160a01b031690637182817b90610bb4908590600401612fed565b60006040518083038186803b158015610bcc57600080fd5b505afa158015610be0573d6000803e3d6000fd5b505050506040513d6000823e601f3d908101601f19168201604052610c08919081019061362d565b9050610c148882611b6d565b6000610c216064896136c4565b610c2c9060026136e6565b90506000610c3b60648a6136c4565b610c469060626136e6565b9050610c6733306101605485604051806020016040528060008152506115ba565b6101655461016054604080516020810190915260008152610c979233926001600160a01b039091169185906115ba565b7f944be6466f82a31b267f7b7cb99fb34611bf5ab1250d9a1e5bbedb73ccb838f18585604051610cc8929190613705565b60405180910390a150505050505050505050565b6097546001600160a01b03163314610d065760405162461bcd60e51b815260040161064a90613365565b610d1284848484611b92565b50505050565b610d536040518060c0016040528060008152602001600081526020016000815260200160008152602001600081526020016000151581525090565b61016254604051630ff6460160e11b8152600481018490526001600160a01b0390911690631fec8c029060240160c06040518083038186803b158015610d9857600080fd5b505afa158015610dac573d6000803e3d6000fd5b505050506040513d601f19601f820116820180604052508101906106789190613502565b6001600160a01b038516331480610dec5750610dec8533610500565b610e535760405162461bcd60e51b815260206004820152603260248201527f455243313135353a207472616e736665722063616c6c6572206973206e6f74206044820152711bdddb995c881b9bdc88185c1c1c9bdd995960721b606482015260840161064a565b610e608585858585611ced565b5050505050565b60608151835114610ecc5760405162461bcd60e51b815260206004820152602960248201527f455243313135353a206163636f756e747320616e6420696473206c656e677468604482015268040dad2e6dac2e8c6d60bb1b606482015260840161064a565b600083516001600160401b03811115610ee757610ee7612c9b565b604051908082528060200260200182016040528015610f10578160200160208202803683370190505b50905060005b8451811015610f8857610f5b858281518110610f3457610f34613727565b6020026020010151858381518110610f4e57610f4e613727565b60200260200101516105e2565b828281518110610f6d57610f6d613727565b6020908102919091010152610f818161373d565b9050610f16565b509392505050565b6101625460408051631bca55e560e01b815290516000926001600160a01b031691631bca55e5916004808301926020929190829003018186803b158015610fd657600080fd5b505afa158015610fea573d6000803e3d6000fd5b505050506040513d601f19601f8201168201806040525081019061100e9190613758565b905090565b3233146110325760405162461bcd60e51b815260040161064a906133d5565b6101625460405163e599913960e01b81523360048201526000916001600160a01b03169063e59991399060240160006040518083038186803b15801561107757600080fd5b505afa15801561108b573d6000803e3d6000fd5b505050506040513d6000823e601f3d908101601f191682016040526110b39190810190613405565b905080608001516110d65760405162461bcd60e51b815260040161064a90613581565b60008160600151116111465760405162461bcd60e51b815260206004820152603360248201527f5061727469636970616e7420646f65736e2774206861766520616c6c6f77616e60448201527231b2903a379031b630b4b6903a37b5b2b7399760691b606482015260840161064a565b6111683361016054836060015160405180602001604052806000815250611e9a565b6000606082015261016254604051633fcd0c3760e01b815282916001600160a01b031690633fcd0c37906111a290339085906004016135f5565b600060405180830381600087803b1580156111bc57600080fd5b505af11580156111d0573d6000803e3d6000fd5b505050506040513d6000823e601f3d908101601f191682016040526111f89190810190613405565b507f1800ac493c2559610df079ad63033e4a99ae93f599a3df7ef426015113ff027882836060015160405161122e9291906135b8565b60405180910390a15050565b61125260405180602001604052806000815250611f85565b565b6097546001600160a01b0316331461127e5760405162461bcd60e51b815260040161064a90613365565b6112526000611fc8565b3233146112a75760405162461bcd60e51b815260040161064a906133d5565b6101625460405163e599913960e01b81523360048201526000916001600160a01b03169063e59991399060240160006040518083038186803b1580156112ec57600080fd5b505afa158015611300573d6000803e3d6000fd5b505050506040513d6000823e601f3d908101601f191682016040526113289190810190613405565b9050806080015161134b5760405162461bcd60e51b815260040161064a90613581565b600061135a33610160546105e2565b905061016260009054906101000a90046001600160a01b03166001600160a01b03166358ac00386040518163ffffffff1660e01b815260040160206040518083038186803b1580156113ab57600080fd5b505afa1580156113bf573d6000803e3d6000fd5b505050506040513d601f19601f820116820180604052508101906113e39190613758565b8110156114445760405162461bcd60e51b815260206004820152602960248201527f4e6f7420656e6f756768206b6f6a6f732e204f6e6520706c616e7420636f73746044820152683990189035b7b5379760b91b606482015260840161064a565b60008061144f61201a565b915091507f367cdb6722de94302dcfbc865a92c99153567007a99a08c3dc2615c8caa3e7598282604051611484929190613705565b60405180910390a150505050565b61149d33838361236c565b5050565b6097546001600160a01b031633146114cb5760405162461bcd60e51b815260040161064a90613365565b611252306114e16097546001600160a01b031690565b610160546114ef30826105e2565b604051806020016040528060008152506115ba565b6115386040518060a00160405280600081526020016000815260200160608152602001600081526020016000151581525090565b6101625460405163e599913960e01b81526001600160a01b0384811660048301529091169063e59991399060240160006040518083038186803b15801561157e57600080fd5b505afa158015611592573d6000803e3d6000fd5b505050506040513d6000823e601f3d908101601f191682016040526106789190810190613405565b6001600160a01b0385163314806115d657506115d68533610500565b6116345760405162461bcd60e51b815260206004820152602960248201527f455243313135353a2063616c6c6572206973206e6f74206f776e6572206e6f7260448201526808185c1c1c9bdd995960ba1b606482015260840161064a565b610e60858585858561244d565b6097546001600160a01b0316331461166b5760405162461bcd60e51b815260040161064a90613365565b6001600160a01b0381166116d05760405162461bcd60e51b815260206004820152602660248201527f4f776e61626c653a206e6577206f776e657220697320746865207a65726f206160448201526564647265737360d01b606482015260840161064a565b6106bc81611fc8565b60006116e56001612589565b905080156116fd576000805461ff0019166101001790555b611705612616565b61016280546001600160a01b038088166001600160a01b031992831617909255610163805487841690831617905561016480548684169083161790556101658054928516929091169190911790558015610e60576000805461ff0019169055604051600181527f7f26b83ff96e1f2b6a682f133852f6798a09c465da95921460cefb38474024989060200160405180910390a15050505050565b3233146117be5760405162461bcd60e51b815260040161064a906133d5565b6101625460405163e599913960e01b81523360048201526000916001600160a01b03169063e59991399060240160006040518083038186803b15801561180357600080fd5b505afa158015611817573d6000803e3d6000fd5b505050506040513d6000823e601f3d908101601f1916820160405261183f9190810190613405565b90508060800151156118c85760405162461bcd60e51b815260206004820152604660248201527f5061727469636970616e7420616c7265616479206578697374732e20596f752060448201527f63616e206f6e6c7920636c61696d20796f757220696e7469616c206b6f6a6f736064820152651037b731b29760d11b608482015260a40161064a565b610162546040516311622ce560e01b81523360048201526000916001600160a01b0316906311622ce590602401600060405180830381600087803b15801561190f57600080fd5b505af1158015611923573d6000803e3d6000fd5b505050506040513d6000823e601f3d908101601f1916820160405261194b9190810190613405565b90506119f1336101605461016260009054906101000a90046001600160a01b03166001600160a01b0316631bca55e56040518163ffffffff1660e01b815260040160206040518083038186803b1580156119a457600080fd5b505afa1580156119b8573d6000803e3d6000fd5b505050506040513d601f19601f820116820180604052508101906119dc9190613758565b60405180602001604052806000815250611e9a565b7f1800ac493c2559610df079ad63033e4a99ae93f599a3df7ef426015113ff02788161016260009054906101000a90046001600160a01b03166001600160a01b0316631bca55e56040518163ffffffff1660e01b815260040160206040518083038186803b158015611a6257600080fd5b505afa158015611a76573d6000803e3d6000fd5b505050506040513d601f19601f82011682018060405250810190611a9a9190613758565b60405161122e9291906135b8565b6097546001600160a01b03163314611ad25760405162461bcd60e51b815260040161064a90613365565b61016280546001600160a01b039586166001600160a01b0319918216179091556101638054948616948216949094179093556101648054928516928416929092179091556101658054919093169116179055565b6001600160a01b03163b151590565b60006001600160e01b03198216630271189760e51b1480610678575061067882612673565b805161149d906067906020840190612b87565b600082815261015f602090815260409091208251611b8d92840190612b87565b505050565b6001600160a01b038416611bb85760405162461bcd60e51b815260040161064a90613771565b8151835114611bd95760405162461bcd60e51b815260040161064a906137b2565b33611be9816000878787876126c3565b60005b8451811015611c8557838181518110611c0757611c07613727565b602002602001015160656000878481518110611c2557611c25613727565b602002602001015181526020019081526020016000206000886001600160a01b03166001600160a01b031681526020019081526020016000206000828254611c6d91906137fa565b90915550819050611c7d8161373d565b915050611bec565b50846001600160a01b031660006001600160a01b0316826001600160a01b03167f4a39dc06d4c0dbc64b70af90fd698a233a518aa5d07e595d983b8c0526c8f7fb8787604051611cd6929190613812565b60405180910390a4610e60816000878787876126d1565b8151835114611d0e5760405162461bcd60e51b815260040161064a906137b2565b6001600160a01b038416611d345760405162461bcd60e51b815260040161064a90613840565b33611d438187878787876126c3565b60005b8451811015611e2c576000858281518110611d6357611d63613727565b602002602001015190506000858381518110611d8157611d81613727565b60209081029190910181015160008481526065835260408082206001600160a01b038e168352909352919091205490915081811015611dd25760405162461bcd60e51b815260040161064a90613885565b60008381526065602090815260408083206001600160a01b038e8116855292528083208585039055908b16825281208054849290611e119084906137fa565b9250508190555050505080611e259061373d565b9050611d46565b50846001600160a01b0316866001600160a01b0316826001600160a01b03167f4a39dc06d4c0dbc64b70af90fd698a233a518aa5d07e595d983b8c0526c8f7fb8787604051611e7c929190613812565b60405180910390a4611e928187878787876126d1565b505050505050565b6001600160a01b038416611ec05760405162461bcd60e51b815260040161064a90613771565b336000611ecc8561283c565b90506000611ed98561283c565b9050611eea836000898585896126c3565b60008681526065602090815260408083206001600160a01b038b16845290915281208054879290611f1c9084906137fa565b909155505060408051878152602081018790526001600160a01b03808a1692600092918716917fc3d58168c5ae7397731d063d5bbf3d657854427343f4c083240f7aacaa2d0f62910160405180910390a4611f7c83600089898989612887565b50505050505050565b6106bc81604051602401611f999190612e30565b60408051601f198184030181529190526020810180516001600160e01b031663104c13eb60e21b179052612951565b609780546001600160a01b038381166001600160a01b0319831681179093556040519116919082907f8be0079c531659141344cd1fd0a4f28419497f9722a3daafe3b4186f6b6457e090600090a35050565b61204e6040518060a00160405280600081526020016000815260200160608152602001600081526020016000151581525090565b6120896040518060c0016040528060008152602001600081526020016000815260200160008152602001600081526020016000151581525090565b6120a83361016154600160405180602001604052806000815250611e9a565b61213833306101605461016260009054906101000a90046001600160a01b03166001600160a01b03166358ac00386040518163ffffffff1660e01b815260040160206040518083038186803b15801561210057600080fd5b505afa158015612114573d6000803e3d6000fd5b505050506040513d601f19601f820116820180604052508101906114ef9190613758565b6101625461016154604051639fd9491760e01b815233600482015260248101919091526000916001600160a01b031690639fd9491790604401600060405180830381600087803b15801561218b57600080fd5b505af115801561219f573d6000803e3d6000fd5b505050506040513d6000823e601f3d908101601f191682016040526121c79190810190613405565b6101625461016154604051631ec5a1a760e21b81529293506000926001600160a01b0390921691637b16869c916122049160040190815260200190565b60c060405180830381600087803b15801561221e57600080fd5b505af1158015612232573d6000803e3d6000fd5b505050506040513d601f19601f820116820180604052508101906122569190613502565b61016354604051637182817b60e01b81529192506000916001600160a01b0390911690637182817b9061228d908590600401612fed565b60006040518083038186803b1580156122a557600080fd5b505afa1580156122b9573d6000803e3d6000fd5b505050506040513d6000823e601f3d908101601f191682016040526122e1919081019061362d565b90506122f06101615482611b6d565b6122f8612972565b61016260009054906101000a90046001600160a01b03166001600160a01b0316630591f3626040518163ffffffff1660e01b8152600401600060405180830381600087803b15801561234957600080fd5b505af115801561235d573d6000803e3d6000fd5b50949793965092945050505050565b816001600160a01b0316836001600160a01b031614156123e05760405162461bcd60e51b815260206004820152602960248201527f455243313135353a2073657474696e6720617070726f76616c20737461747573604482015268103337b91039b2b63360b91b606482015260840161064a565b6001600160a01b03838116600081815260666020908152604080832094871680845294825291829020805460ff191686151590811790915591519182527f17307eab39ab6107e8899845ad3d59bd9653f200f220920489ca2b5937696c31910160405180910390a3505050565b6001600160a01b0384166124735760405162461bcd60e51b815260040161064a90613840565b33600061247f8561283c565b9050600061248c8561283c565b905061249c8389898585896126c3565b60008681526065602090815260408083206001600160a01b038c168452909152902054858110156124df5760405162461bcd60e51b815260040161064a90613885565b60008781526065602090815260408083206001600160a01b038d8116855292528083208985039055908a1682528120805488929061251e9084906137fa565b909155505060408051888152602081018890526001600160a01b03808b16928c821692918816917fc3d58168c5ae7397731d063d5bbf3d657854427343f4c083240f7aacaa2d0f62910160405180910390a461257e848a8a8a8a8a612887565b505050505050505050565b60008054610100900460ff16156125d0578160ff1660011480156125ac5750303b155b6125c85760405162461bcd60e51b815260040161064a906138cf565b506000919050565b60005460ff8084169116106125f75760405162461bcd60e51b815260040161064a906138cf565b506000805460ff191660ff92909216919091179055600190565b919050565b600054610100900460ff1661263d5760405162461bcd60e51b815260040161064a9061391d565b6126556040518060200160405280600081525061298d565b61265d6129b4565b6126656129e4565b600061016055600161016155565b60006001600160e01b03198216636cdb3d1360e11b14806126a457506001600160e01b031982166303a24d0760e21b145b8061067857506301ffc9a760e01b6001600160e01b0319831614610678565b611e92868686868686612a0b565b6001600160a01b0384163b15611e925760405163bc197c8160e01b81526001600160a01b0385169063bc197c81906127159089908990889088908890600401613968565b602060405180830381600087803b15801561272f57600080fd5b505af192505050801561275f575060408051601f3d908101601f1916820190925261275c918101906139c6565b60015b61280c5761276b6139e3565b806308c379a014156127a557506127806139ff565b8061278b57506127a7565b8060405162461bcd60e51b815260040161064a9190612e30565b505b60405162461bcd60e51b815260206004820152603460248201527f455243313135353a207472616e7366657220746f206e6f6e20455243313135356044820152732932b1b2b4bb32b91034b6b83632b6b2b73a32b960611b606482015260840161064a565b6001600160e01b0319811663bc197c8160e01b14611f7c5760405162461bcd60e51b815260040161064a90613a88565b6040805160018082528183019092526060916000919060208083019080368337019050509050828160008151811061287657612876613727565b602090810291909101015292915050565b6001600160a01b0384163b15611e925760405163f23a6e6160e01b81526001600160a01b0385169063f23a6e61906128cb9089908990889088908890600401613ad0565b602060405180830381600087803b1580156128e557600080fd5b505af1925050508015612915575060408051601f3d908101601f19168201909252612912918101906139c6565b60015b6129215761276b6139e3565b6001600160e01b0319811663f23a6e6160e01b14611f7c5760405162461bcd60e51b815260040161064a90613a88565b80516a636f6e736f6c652e6c6f67602083016000808483855afa5050505050565b6001610161600082825461298691906137fa565b9091555050565b600054610100900460ff166106b35760405162461bcd60e51b815260040161064a9061391d565b600054610100900460ff166129db5760405162461bcd60e51b815260040161064a9061391d565b61125233611fc8565b600054610100900460ff166112525760405162461bcd60e51b815260040161064a9061391d565b6001600160a01b038516612a935760005b8351811015612a9157828181518110612a3757612a37613727565b602002602001015161012d6000868481518110612a5657612a56613727565b602002602001015181526020019081526020016000206000828254612a7b91906137fa565b90915550612a8a90508161373d565b9050612a1c565b505b6001600160a01b038416611e925760005b8351811015611f7c576000848281518110612ac157612ac1613727565b602002602001015190506000848381518110612adf57612adf613727565b60200260200101519050600061012d600084815260200190815260200160002054905081811015612b635760405162461bcd60e51b815260206004820152602860248201527f455243313135353a206275726e20616d6f756e74206578636565647320746f74604482015267616c537570706c7960c01b606482015260840161064a565b600092835261012d602052604090922091039055612b808161373d565b9050612aa4565b828054612b939061339a565b90600052602060002090601f016020900481019282612bb55760008555612bfb565b82601f10612bce57805160ff1916838001178555612bfb565b82800160010185558215612bfb579182015b82811115612bfb578251825591602001919060010190612be0565b50612c07929150612c0b565b5090565b5b80821115612c075760008155600101612c0c565b80356001600160a01b038116811461261157600080fd5b60008060408385031215612c4a57600080fd5b612c5383612c20565b946020939093013593505050565b6001600160e01b0319811681146106bc57600080fd5b600060208284031215612c8957600080fd5b8135612c9481612c61565b9392505050565b634e487b7160e01b600052604160045260246000fd5b60a081018181106001600160401b0382111715612cd057612cd0612c9b565b60405250565b601f8201601f191681016001600160401b0381118282101715612cfb57612cfb612c9b565b6040525050565b60006001600160401b03821115612d1b57612d1b612c9b565b50601f01601f191660200190565b6000612d3483612d02565b604051612d418282612cd6565b809250848152858585011115612d5657600080fd5b8484602083013760006020868301015250509392505050565b600060208284031215612d8157600080fd5b81356001600160401b03811115612d9757600080fd5b8201601f81018413612da857600080fd5b612db784823560208401612d29565b949350505050565b600060208284031215612dd157600080fd5b5035919050565b60005b83811015612df3578181015183820152602001612ddb565b83811115610d125750506000910152565b60008151808452612e1c816020860160208601612dd8565b601f01601f19169290920160200192915050565b602081526000612c946020830184612e04565b60008060408385031215612e5657600080fd5b50508035926020909101359150565b60006001600160401b03821115612e7e57612e7e612c9b565b5060051b60200190565b600082601f830112612e9957600080fd5b81356020612ea682612e65565b604051612eb38282612cd6565b83815260059390931b8501820192828101915086841115612ed357600080fd5b8286015b84811015612eee5780358352918301918301612ed7565b509695505050505050565b600082601f830112612f0a57600080fd5b612c9483833560208501612d29565b60008060008060808587031215612f2f57600080fd5b612f3885612c20565b935060208501356001600160401b0380821115612f5457600080fd5b612f6088838901612e88565b94506040870135915080821115612f7657600080fd5b612f8288838901612e88565b93506060870135915080821115612f9857600080fd5b50612fa587828801612ef9565b91505092959194509250565b805182526020810151602083015260408101516040830152606081015160608301526080810151608083015260a0810151151560a08301525050565b60c081016106788284612fb1565b600080600080600060a0868803121561301357600080fd5b61301c86612c20565b945061302a60208701612c20565b935060408601356001600160401b038082111561304657600080fd5b61305289838a01612e88565b9450606088013591508082111561306857600080fd5b61307489838a01612e88565b9350608088013591508082111561308a57600080fd5b5061309788828901612ef9565b9150509295509295909350565b600080604083850312156130b757600080fd5b82356001600160401b03808211156130ce57600080fd5b818501915085601f8301126130e257600080fd5b813560206130ef82612e65565b6040516130fc8282612cd6565b83815260059390931b850182019282810191508984111561311c57600080fd5b948201945b838610156131415761313286612c20565b82529482019490820190613121565b9650508601359250508082111561315757600080fd5b5061316485828601612e88565b9150509250929050565b600081518084526020808501945080840160005b8381101561319e57815187529582019590820190600101613182565b509495945050505050565b602081526000612c94602083018461316e565b80151581146106bc57600080fd5b600080604083850312156131dd57600080fd5b6131e683612c20565b915060208301356131f6816131bc565b809150509250929050565b60006020828403121561321357600080fd5b612c9482612c20565b80518252602081015160208301526000604082015160a0604085015261324560a085018261316e565b9050606083015160608501526080830151151560808501528091505092915050565b602081526000612c94602083018461321c565b6000806040838503121561328d57600080fd5b61329683612c20565b91506132a460208401612c20565b90509250929050565b600080600080600060a086880312156132c557600080fd5b6132ce86612c20565b94506132dc60208701612c20565b9350604086013592506060860135915060808601356001600160401b0381111561330557600080fd5b61309788828901612ef9565b6000806000806080858703121561332757600080fd5b61333085612c20565b935061333e60208601612c20565b925061334c60408601612c20565b915061335a60608601612c20565b905092959194509250565b6020808252818101527f4f776e61626c653a2063616c6c6572206973206e6f7420746865206f776e6572604082015260600190565b600181811c908216806133ae57607f821691505b602082108114156133cf57634e487b7160e01b600052602260045260246000fd5b50919050565b6020808252600b908201526a2737ba1030b71022a7a09760a91b604082015260600190565b8051612611816131bc565b6000602080838503121561341857600080fd5b82516001600160401b038082111561342f57600080fd5b9084019060a0828703121561344357600080fd5b60405161344f81612cb1565b82518152838301518482015260408301518281111561346d57600080fd5b83019150601f8201871361348057600080fd5b815161348b81612e65565b6040516134988282612cd6565b82815260059290921b84018601918681019150898311156134b857600080fd5b938601935b828510156134d6578451825293860193908601906134bd565b60408401525050606083810151908201526134f3608084016133fa565b60808201529695505050505050565b600060c0828403121561351457600080fd5b60405160c081018181106001600160401b038211171561353657613536612c9b565b8060405250825181526020830151602082015260408301516040820152606083015160608201526080830151608082015260a0830151613575816131bc565b60a08201529392505050565b6020808252601b908201527f5061727469636970616e7420646f6573206e6f742065786973742e0000000000604082015260600190565b6040815260006135cb604083018561321c565b90508260208301529392505050565b60e081016135e88285612fb1565b8260c08301529392505050565b6001600160a01b0383168152604060208201819052600090612db79083018461321c565b82815260e08101612c946020830184612fb1565b60006020828403121561363f57600080fd5b81516001600160401b0381111561365557600080fd5b8201601f8101841361366657600080fd5b805161367181612d02565b60405161367e8282612cd6565b82815286602084860101111561369357600080fd5b6136a4836020830160208701612dd8565b9695505050505050565b634e487b7160e01b600052601160045260246000fd5b6000826136e157634e487b7160e01b600052601260045260246000fd5b500490565b6000816000190483118215151615613700576137006136ae565b500290565b60e08152600061371860e083018561321c565b9050612c946020830184612fb1565b634e487b7160e01b600052603260045260246000fd5b6000600019821415613751576137516136ae565b5060010190565b60006020828403121561376a57600080fd5b5051919050565b60208082526021908201527f455243313135353a206d696e7420746f20746865207a65726f206164647265736040820152607360f81b606082015260800190565b60208082526028908201527f455243313135353a2069647320616e6420616d6f756e7473206c656e677468206040820152670dad2e6dac2e8c6d60c31b606082015260800190565b6000821982111561380d5761380d6136ae565b500190565b604081526000613825604083018561316e565b8281036020840152613837818561316e565b95945050505050565b60208082526025908201527f455243313135353a207472616e7366657220746f20746865207a65726f206164604082015264647265737360d81b606082015260800190565b6020808252602a908201527f455243313135353a20696e73756666696369656e742062616c616e636520666f60408201526939103a3930b739b332b960b11b606082015260800190565b6020808252602e908201527f496e697469616c697a61626c653a20636f6e747261637420697320616c72656160408201526d191e481a5b9a5d1a585b1a5e995960921b606082015260800190565b6020808252602b908201527f496e697469616c697a61626c653a20636f6e7472616374206973206e6f74206960408201526a6e697469616c697a696e6760a81b606082015260800190565b6001600160a01b0386811682528516602082015260a0604082018190526000906139949083018661316e565b82810360608401526139a6818661316e565b905082810360808401526139ba8185612e04565b98975050505050505050565b6000602082840312156139d857600080fd5b8151612c9481612c61565b600060033d11156139fc5760046000803e5060005160e01c5b90565b600060443d1015613a0d5790565b6040516003193d81016004833e81513d6001600160401b038160248401118184111715613a3c57505050505090565b8285019150815181811115613a545750505050505090565b843d8701016020828501011115613a6e5750505050505090565b613a7d60208286010187612cd6565b509095945050505050565b60208082526028908201527f455243313135353a204552433131353552656365697665722072656a656374656040820152676420746f6b656e7360c01b606082015260800190565b6001600160a01b03868116825285166020820152604081018490526060810183905260a060808201819052600090613b0a90830184612e04565b97965050505050505056fea2646970667358221220eef38bf12b1889666e67fc719a67d8bdbc19db8c62f013f5f6919b5313739d2564736f6c63430008090033496e697469616c697a61626c653a20636f6e747261637420697320616c726561",
  "linkReferences": {},
  "deployedLinkReferences": {}
}