{
  "_format": "hh-sol-artifact-1",
  "contractName": "KojoBurn",
  "sourceName": "contracts/utils/KojoBurn.sol",
  "abi": [
    {
      "anonymous": false,
      "inputs": [
        {
          "indexed": true,
          "internalType": "address",
          "name": "previousOwner",
          "type": "address"
        },
        {
          "indexed": true,
          "internalType": "address",
          "name": "newOwner",
          "type": "address"
        }
      ],
      "name": "OwnershipTransferred",
      "type": "event"
    },
    {
      "inputs": [
        {
          "internalType": "address",
          "name": "",
          "type": "address"
        },
        {
          "internalType": "address",
          "name": "",
          "type": "address"
        },
        {
          "internalType": "uint256[]",
          "name": "",
          "type": "uint256[]"
        },
        {
          "internalType": "uint256[]",
          "name": "",
          "type": "uint256[]"
        },
        {
          "internalType": "bytes",
          "name": "",
          "type": "bytes"
        }
      ],
      "name": "onERC1155BatchReceived",
      "outputs": [
        {
          "internalType": "bytes4",
          "name": "",
          "type": "bytes4"
        }
      ],
      "stateMutability": "nonpayable",
      "type": "function"
    },
    {
      "inputs": [
        {
          "internalType": "address",
          "name": "",
          "type": "address"
        },
        {
          "internalType": "address",
          "name": "",
          "type": "address"
        },
        {
          "internalType": "uint256",
          "name": "",
          "type": "uint256"
        },
        {
          "internalType": "uint256",
          "name": "",
          "type": "uint256"
        },
        {
          "internalType": "bytes",
          "name": "",
          "type": "bytes"
        }
      ],
      "name": "onERC1155Received",
      "outputs": [
        {
          "internalType": "bytes4",
          "name": "",
          "type": "bytes4"
        }
      ],
      "stateMutability": "nonpayable",
      "type": "function"
    },
    {
      "inputs": [],
      "name": "owner",
      "outputs": [
        {
          "internalType": "address",
          "name": "",
          "type": "address"
        }
      ],
      "stateMutability": "view",
      "type": "function"
    },
    {
      "inputs": [],
      "name": "renounceOwnership",
      "outputs": [],
      "stateMutability": "nonpayable",
      "type": "function"
    },
    {
      "inputs": [
        {
          "internalType": "bytes4",
          "name": "interfaceId",
          "type": "bytes4"
        }
      ],
      "name": "supportsInterface",
      "outputs": [
        {
          "internalType": "bool",
          "name": "",
          "type": "bool"
        }
      ],
      "stateMutability": "view",
      "type": "function"
    },
    {
      "inputs": [
        {
          "internalType": "address",
          "name": "newOwner",
          "type": "address"
        }
      ],
      "name": "transferOwnership",
      "outputs": [],
      "stateMutability": "nonpayable",
      "type": "function"
    }
  ],
  "bytecode": "0x608060405234801561001057600080fd5b5061001a3361001f565b61006f565b600080546001600160a01b038381166001600160a01b0319831681178455604051919092169283917f8be0079c531659141344cd1fd0a4f28419497f9722a3daafe3b4186f6b6457e09190a35050565b6105bf8061007e6000396000f3fe608060405234801561001057600080fd5b50600436106100625760003560e01c806301ffc9a714610067578063715018a61461008f5780638da5cb5b14610099578063bc197c81146100b4578063f23a6e61146100ec578063f2fde38b1461010b575b600080fd5b61007a6100753660046102db565b61011e565b60405190151581526020015b60405180910390f35b610097610155565b005b6000546040516001600160a01b039091168152602001610086565b6100d36100c236600461045f565b63bc197c8160e01b95945050505050565b6040516001600160e01b03199091168152602001610086565b6100d36100fa366004610509565b63f23a6e6160e01b95945050505050565b61009761011936600461056e565b6101c0565b60006001600160e01b03198216630271189760e51b148061014f57506301ffc9a760e01b6001600160e01b03198316145b92915050565b6000546001600160a01b031633146101b45760405162461bcd60e51b815260206004820181905260248201527f4f776e61626c653a2063616c6c6572206973206e6f7420746865206f776e657260448201526064015b60405180910390fd5b6101be600061028b565b565b6000546001600160a01b0316331461021a5760405162461bcd60e51b815260206004820181905260248201527f4f776e61626c653a2063616c6c6572206973206e6f7420746865206f776e657260448201526064016101ab565b6001600160a01b03811661027f5760405162461bcd60e51b815260206004820152602660248201527f4f776e61626c653a206e6577206f776e657220697320746865207a65726f206160448201526564647265737360d01b60648201526084016101ab565b6102888161028b565b50565b600080546001600160a01b038381166001600160a01b0319831681178455604051919092169283917f8be0079c531659141344cd1fd0a4f28419497f9722a3daafe3b4186f6b6457e09190a35050565b6000602082840312156102ed57600080fd5b81356001600160e01b03198116811461030557600080fd5b9392505050565b80356001600160a01b038116811461032357600080fd5b919050565b634e487b7160e01b600052604160045260246000fd5b604051601f8201601f1916810167ffffffffffffffff8111828210171561036757610367610328565b604052919050565b600082601f83011261038057600080fd5b8135602067ffffffffffffffff82111561039c5761039c610328565b8160051b6103ab82820161033e565b92835284810182019282810190878511156103c557600080fd5b83870192505b848310156103e4578235825291830191908301906103cb565b979650505050505050565b600082601f83011261040057600080fd5b813567ffffffffffffffff81111561041a5761041a610328565b61042d601f8201601f191660200161033e565b81815284602083860101111561044257600080fd5b816020850160208301376000918101602001919091529392505050565b600080600080600060a0868803121561047757600080fd5b6104808661030c565b945061048e6020870161030c565b9350604086013567ffffffffffffffff808211156104ab57600080fd5b6104b789838a0161036f565b945060608801359150808211156104cd57600080fd5b6104d989838a0161036f565b935060808801359150808211156104ef57600080fd5b506104fc888289016103ef565b9150509295509295909350565b600080600080600060a0868803121561052157600080fd5b61052a8661030c565b94506105386020870161030c565b93506040860135925060608601359150608086013567ffffffffffffffff81111561056257600080fd5b6104fc888289016103ef565b60006020828403121561058057600080fd5b6103058261030c56fea26469706673582212203781a60aef01ef84bbd22fd196ef12ee78f517c3a866613c2bee8932ce6e153f64736f6c634300080c0033",
  "linkReferences": {},
  "deployedLinkReferences": {}
}